:020000021000EC
:10F000000000012033F10100D9F00100DBF0010024
:10F01000DDF00100DFF00100E1F001000000000080
:10F02000000000000000000000000000E3F001000C
:10F03000E5F0010000000000E7F00100E9F0010048
:10F0400059BD0400EDF00100EFF00100B9B004007B
:10F05000F3F00100B92C0500C19F040039C0040081
:10F06000FBF00100FDF00100FFF0010001F10100E3
:10F0700003F101001DCF040007F1010009F10100B7
:10F080000BF1010039E504000FF1010011F101005D
:10F0900079E5040015F101004118050019F101009E
:10F0A0001BF101001DF10100C5D00400212A05005B
:10F0B000D1B90400D5CA040000000000000000001F
:10F0C00027F1010029F101002BF101002DF10100D0
:08F0D0002FF1010031F10100F4
:10F0D800FEE7FEE7FEE7FEE7FEE7FEE7FEE7FEE700
:10F0E800FEE7FEE7FEE7FEE7FEE7FEE7FEE7FEE7F0
:10F0F800FEE7FEE7FEE7FEE7FEE7FEE7FEE7FEE7E0
:10F10800FEE7FEE7FEE7FEE7FEE7FEE7FEE7FEE7CF
:10F11800FEE7FEE7FEE7FEE7FEE7FEE7FEE7FEE7BF
:10F12800FEE7FEE7FEE7FEE7FEE70348854600F058
:10F13800C5F800F003B87047000001203749384887
:10F148000A1A02D0072291438D46364936480A1AD0
:10F1580006D00722914381F30988022282F314889A
:10F1680032483349334A00F048F833483349344A7F
:10F1780000F043F833483449344A00F03EF8344844
:10F188003449354A00F039F834483549354A00F0F1
:10F1980034F835483549364A00F02FF835483649AD
:10F1A800364A00F02AF836483649374A00F025F83A
:10F1B80036483749002200F02BF8364836490022F5
:10F1C80000F026F835483649091A082903DB0022D9
:10F1D8000260043001601F481F49884205D0026858
:10F1E800043003B4904703BCF7E700208646EC469A
:10F1F800002000212B4A9047FEE7884207D0521A88
:10F2080005D0037801300B700131013AF9D170470C
:10F21800884202D002700130FAE7704700000120EE
:10F2280000FC0020000001200000012060470600CB
:10F23800584500207C460020B0F20100B0F20100E1
:10F2480038760500604706005845002058450020DC
:10F2580038760500387605003876050038760500DA
:10F2680038760500387605003876050038760500CA
:10F2780060470600844806007C4600207C46002043
:10F28800844806007C4600208C4600208C460020DE
:10F2980068A1002068A1002070A1002070A10020B2
:08F2A80070A50020B5FD010076
:10F2B000024B034A1A6000BF704700BF5845002048
:10F2C0000090D00308B500F00DF90346002B06D0DE
:10F2D000744B1B681B0A744A03F01F03136000F091
:10F2E0002DF90346002B02D0704B714A1A6000F0D2
:10F2F00041F90346002B06D06E4B1B685B0B6E4A30
:10F3000003F00703136000F061F90346002B05D0FA
:10F310006A4BDB68694A23F08073D36000F072F9AE
:10F320000346002B0ED04FF080430022C3F80C217F
:10F330004FF080430022C3F810214FF08043002299
:10F34000C3F8382500F08AF90346002B02D05C4B45
:10F3500003221A6000F09EF90346002B0BD0594B94
:10F3600005221A60584B01221A60584B00221A607D
:10F37000574B3F221A6000F0A9F90346002B76D0C4
:10F380004FF08053534AD3F80434C2F820354FF07D
:10F390008053504AD3F80834C2F824354FF08053D4
:10F3A0004C4AD3F80C34C2F828354FF08053494A00
:10F3B000D3F81034C2F82C354FF08053454AD3F8B7
:10F3C0001434C2F830354FF08053424AD3F8183421
:10F3D000C2F834354FF080533E4AD3F81C34C2F89B
:10F3E00040354FF080533B4AD3F82034C2F84435BF
:10F3F0004FF08053374AD3F82434C2F848354FF0E1
:10F400008053344AD3F82834C2F84C354FF0805337
:10F41000304AD3F82C34C2F850354FF080532D4A7F
:10F42000D3F83034C2F854354FF08053294AD3F81A
:10F430003434C2F860354FF08053264AD3F838345C
:10F44000C2F864354FF08053224AD3F83C34C2F8F6
:10F4500068354FF080531F4AD3F84034C2F86C35FA
:10F460004FF080531B4AD3F84434C2F8703500F093
:10F4700049F90346002B05D0174B1B68174A03F0C8
:10F480004F031360164BD3F88830154A43F47003CA
:10F49000C2F88830BFF34F8FBFF36F8FFFF708FFBD
:10F4A00000BF08BD240300104035014074C0074070
:10F4B0000DF0ADBA440200103C050040F0ED00E054
:10F4C000A0050040105600408856004018560040E5
:10F4D0001456004000C0004058020010E40E0040E6
:10F4E00000ED00E0124B1B68DBB2062B1DD1114B67
:10F4F0001B6803F00F03002B17D10F4B1B6803F0A1
:10F50000F003302B01D1012310E00B4B1B6803F0FB
:10F51000F003402B01D1012308E0074B1B6803F0E7
:10F52000F003502B01D1012300E00023184670475F
:10F53000E00F00F0E40F00F0E80F00F00A4B1B684A
:10F54000DBB2062B0DD1094B1B6803F00F03002B18
:10F5500007D1074B1B6803F0F003302B01D10123C7
:10F5600000E0002318467047E00F00F0E40F00F0C1
:10F57000E80F00F0124B1B68DBB2062B1DD1114BBC
:10F580001B6803F00F03002B17D10F4B1B6803F010
:10F59000F003302B01D1012310E00B4B1B6803F06B
:10F5A000F003402B01D1012308E0074B1B6803F057
:10F5B000F003502B01D1012300E0002318467047CF
:10F5C000E00F00F0E40F00F0E80F00F00A4B1B68BA
:10F5D000DBB2062B0DD1094B1B6803F00F03002B88
:10F5E00007D1074B1B6803F0F003302B01D1012337
:10F5F00000E0002318467047E00F00F0E40F00F031
:10F60000E80F00F0124B1B68DBB2062B1DD1114B2B
:10F610001B6803F00F03002B17D10F4B1B6803F07F
:10F62000F003302B01D1012310E00B4B1B6803F0DA
:10F63000F003402B01D1012308E0074B1B6803F0C6
:10F64000F003502B01D1012300E00023184670473E
:10F65000E00F00F0E40F00F0E80F00F00A4B1B6829
:10F66000DBB2062B0DD1094B1B6803F00F03002BF7
:10F6700007D1074B1B6803F0F003302B01D10123A6
:10F6800000E0002318467047E00F00F0E40F00F0A0
:10F69000E80F00F00A4B1B68DBB2062B0DD1094BBB
:10F6A0001B6803F00F03002B07D1074B1B6803F007
:10F6B000F003302B01D1012300E0002318467047EE
:10F6C000E00F00F0E40F00F0E80F00F00A4B1B68B9
:10F6D000DBB2062B0DD1094B1B6803F00F03002B87
:10F6E00007D1074B1B6803F0F003502B01D1012316
:10F6F00000E0002318467047E00F00F0E40F00F030
:10F70000E80F00F0124B1B68DBB2062B1DD1114B2A
:10F710001B6803F00F03002B17D10F4B1B6803F07E
:10F72000F003302B01D1012310E00B4B1B6803F0D9
:10F73000F003402B01D1012308E0074B1B6803F0C5
:10F74000F003502B01D1012300E00023184670473D
:10F75000E00F00F0E40F00F0E80F00F00048704701
:10F7600060A1002082B003468DF807309DF8073075
:10F7700003F01F0206499DF907305B09012000FADA
:10F7800002F2603341F8232000BF02B0704700BF8F
:10F7900000E100E0BFF34F8F054BDB6803F4E0624C
:10F7A0000349044B1343CB60BFF34F8F00BFFDE70A
:10F7B00000ED00E00400FA0532DF704700BF184694
:10F7C0003EDF704700BF184682B001904FF0A04363
:10F7D000184602B0704700B585B001900846114642
:10F7E0001A4603468DF803300B468DF80230134657
:10F7F0008DF8013001AB1846FFF7E6FF03909DF846
:10F8000003209DF802305B001A439DF801309B00F5
:10F810001A439DF818301B0242EA03019DF81C3080
:10F820001B04019A1943039B02F5E07243F822106E
:10F8300000BF05B05DF804FB00B585B00390002360
:10F840000193002300930023012201210398FFF775
:10F85000C2FF00BF05B05DF804FB00B585B00390A2
:10F860000B468DF80B3013468DF80A309DF80B20AF
:10F870009DF80A30019300230093134600220021D3
:10F880000398FFF7A8FF00BF05B05DF804FB000078
:10F8900084B00190244B0393019B002B40D0234B59
:10F8A0001A680399019B00BF00BF00BF00BF00BFE3
:10F8B00000BF00BF00BF8A422FD000BF00BF00BF03
:10F8C00000BF00BF00BF00BF00BF00BF00BF00BF40
:10F8D00000BF00BF00BF00BF00BF00BF00BF00BF30
:10F8E00000BF00BF00BF00BF00BF00BF00BF00BF20
:10F8F00000BF00BF00BF00BF00BF00BF00BF00BF10
:10F9000000BF00BF00BF00BF00BF00BF00BF00BFFF
:10F9100000BF00BF00BF00BF00BF013BC3D10193C8
:10F9200000BF04B0704700BF0024F4005845002019
:10F9300000B583B00190019B4FF47A7202FB03F390
:10F940001846FFF7A5FF00BF03B05DF804FB0000F9
:10F9500070B58AB0079006910592059B0993099BA3
:10F960005B68184632F090F80546099B1B881E46D6
:10F97000099B9C68099B9B68184632F069FC03460A
:10F98000184632F081F803460393029401960095DD
:10F99000069B079A0849012032F0ECF8022005F096
:10F9A00055FE0520FFF7C4FF059A069907982DF02C
:10F9B00099FE00BF0AB070BDB076050000B587B0F3
:10F9C000F1EE103A0193019B23F09F030293029BF7
:10F9D000E1EE103AF1EE103A03932620FFF7C2FE53
:10F9E000FFF7EEFE0590059B0493049B002B04D0CB
:10F9F000044ABB2104982DF05DFE00BF07B05DF8FE
:10FA000004FB00BF4477050000B589B00390039B59
:10FA10005B881A46039B1B791946039B1B7800934E
:10FA20000B462049032032F071F8039B002B34D0A1
:10FA3000039B1B78012B30D107F0F4FF0790079B45
:10FA40000693069B002B04D0174ACD2106982DF073
:10FA500031FE022200210D20FFF7FFFE1349022094
:10FA600032F018F8FFF7A8FE079007F0B9FD03463B
:10FA700083F00103DBB2002B0AD0079B0593059BA3
:10FA8000002B0AD0084ADA2105982DF013FE04E075
:10FA90000749022031F0FEFFFEE700BF09B05DF824
:10FAA00004FB00BF5C78050044770500A4780500DE
:10FAB0002078050000B583B00190019B1B78012BD5
:10FAC00008D0022B10D0002B15D10D49032031F0A6
:10FAD000E1FF10E00B49032031F0DCFF0520FFF7C8
:10FAE00027FFFFF757FE06E00749032031F0D2FF5A
:10FAF000FFF750FE00BF00BF03B05DF804FB00BF7E
:10FB000008790500447905008479050000B59BB0AB
:10FB100001AB24220021184636F087FD1C238DF806
:10FB20000A3005238DF80B300D238DF80C3011238E
:10FB30008DF80D3001238DF80E3004238DF80F3031
:10FB400040F61C43ADF8103041F25E03ADF81230C0
:10FB5000594B0593594B06936F23ADF81C3040F673
:10FB60001C43ADF81E300A238DF82030544B099306
:10FB70000F2006F0B5FD1990199B1893189B002BC8
:10FB800005D0504A4FF48A7118982DF093FD4E4BD2
:10FB90000F930FAB19464D4805F0FAFD1990199BCC
:10FBA0001793179B002B05D0464A4FF48D71179879
:10FBB0002DF080FD444B0E930EAB1946444803F0E4
:10FBC000F1FA1990199B1693169B002B05D03D4A0C
:10FBD0004FF4907116982DF06DFD3B4B0D930DABCE
:10FBE00019463C4804F0B6FF1990199B1593159BD4
:10FBF000002B05D0334A40F2271115982DF05AFDFD
:10FC0000354806F0B1F91990199B1493149B002BF9
:10FC100005D02C4A4FF4957114982DF04BFD2F4BC5
:10FC2000019301AB19462E4807F0B8FA1990199BB9
:10FC30001393139B002B05D0224A40F22F111398E7
:10FC40002DF038FD41F2883007F028FA1990199B01
:10FC50001293129B002B05D01A4A4FF499711298F7
:10FC60002DF028FD1F4B0A93194B0B9305230C9382
:10FC70000AAB184601F096FC1990199B1193119B41
:10FC8000002B05D00F4A4FF49D7111982DF012FDF5
:10FC9000012005F0DBFC1990199B1093109B002BA1
:10FCA00005D0084A40F23D1110982DF003FD00BF29
:10FCB0001BB05DF804FB00BF60E3160020BF02002C
:10FCC0003876050044770500A87605009C4600209C
:10FCD0008C46002094460020A446002009FA01002A
:10FCE000AC460020B5FA010000B585B00C4B01937D
:10FCF00001AB184607F044FE0390039B0293029B5E
:10FD0000002B05D0074A4FF4B07102982DF0D2FCB9
:10FD10006420FFF70DFE00BF05B05DF804FB00BFD7
:10FD2000007A05004477050000B589B01E4B0293A8
:10FD30001E4B039302AB18460BF080F90790079B0C
:10FD40000693069B002B05D0194A40F277110698BE
:10FD50002DF0B0FC144B0093144B01936B461846E6
:10FD60000BF000FA0790079B0593059B002B05D02D
:10FD70000F4A40F27D1105982DF09CFC0BF072FBB0
:10FD80000790079B0493049B002B05D0084A4FF46F
:10FD9000C07104982DF08EFC6420FFF7C9FD00BFF0
:10FDA00009B05DF804FB00BFA87605001C7A0500C9
:10FDB0004477050000B587B0002031F015FE0590AE
:10FDC000059B0493049B002B05D01C4A4FF4D8716B
:10FDD00004982DF06FFC1A49032031F05BFE194A9C
:10FDE0003C2108202DF022FD0390039B0293029BEF
:10FDF000002B05D0114A4FF4DB7102982DF05AFC0C
:10FE00002EF0C0FB0590059B0193019B002B05D0B4
:10FE10000A4A4FF4DC7101982DF04CFCFFF764FFA7
:10FE2000FFF774FEFFF780FF07F024FE0320FFF7C3
:10FE300003FD2DF0C1FDFFF7C1FDFAE74477050092
:10FE4000C0790500B44600206DDF704700BF18463A
:10FE500076DF704700BF18467ADF704700BF18464C
:10FE60007CDF704700BF18467FDF704700BF184631
:10FE70008FDF704700BF18469EDF704700BF1846EF
:10FE8000A9DF704700BF1846ADDF704700BF1846B6
:10FE900069DF704700BF184666DF704700BF18462D
:10FEA00031DF704700BF18463DDF704700BF18467E
:10FEB00084B00190244B0393019B002B40D0234B33
:10FEC0001A680399019B00BF00BF00BF00BF00BFBD
:10FED00000BF00BF00BF8A422FD000BF00BF00BFDD
:10FEE00000BF00BF00BF00BF00BF00BF00BF00BF1A
:10FEF00000BF00BF00BF00BF00BF00BF00BF00BF0A
:10FF000000BF00BF00BF00BF00BF00BF00BF00BFF9
:10FF100000BF00BF00BF00BF00BF00BF00BF00BFE9
:10FF200000BF00BF00BF00BF00BF00BF00BF00BFD9
:10FF300000BF00BF00BF00BF00BF013BC3D10193A2
:10FF400000BF04B0704700BF0024F40058450020F3
:10FF500000B583B00190019B4FF47A7202FB03F36A
:10FF60001846FFF7A5FF00BF03B05DF804FB0000D3
:10FF700000B583B001900091009B1B78012B09D044
:10FF8000022B02D0002B0AD00EE00C49032031F0E6
:10FF900081FD0EE00A49032031F07CFD09E00949AA
:10FFA000032031F077FD04E00749022031F072FDB3
:10FFB00000BF00BF03B05DF804FB00BF507C05002C
:10FFC000907C0500CC7C05000C7D050000B585B05B
:10FFD0000023019301AB18462EF0E8FE03468DF88E
:10FFE0000F309DF80F300293029B002B04D0074A7C
:10FFF000842102982DF05EFB019B002B14BF01238E
:020000022000DC
:100000000023DBB2184605B05DF804FB487D05000F
:1000100000B589B003900B468DF80B3000238DF8A6
:1000200017300DF1170318462CF014FF00238DF83C
:100030001F3016E09DF81F3001338DF81F302E4918
:10004000022031F027FD0DF1170318462CF002FFB6
:100050000520FFF77DFF9DF81F30052B01D90D23EB
:1000600045E09DF817309DF80B209A42E2D89DF8A4
:1000700017301A462149032031F01DFD9DF80B3041
:10008000194603982CF002FF0690069B002B0CD01B
:100090001B4831F0F9FC0246069B0093A323194943
:1000A000022031F033FD069B21E01749032031F097
:1000B000F1FC00238DF81E300EE09DF81E30039AEF
:1000C00013441B781A461149132031F0F4FC9DF8B3
:1000D0001E3001338DF81E309DF81E209DF80B3028
:1000E0009A42EAD30A49132031F0D4FC002318467F
:1000F00009B05DF804FB00BF8C7D0500DC7D0500C8
:10010000487D0500147E0500687E0500987E050088
:10011000A07E050010B586B09DF804306FF3030390
:100120008DF804309DF804306FF307138DF8043018
:10013000474B1B681C46464B1B68184636F0F1FAC5
:1001400003469AB201AB21461846FFF789FE059097
:10015000059B0493049B002B04D03E4AC2210498C3
:100160002DF0A8FA02AB08220021184636F05DFAFD
:10017000374B1B68B3F80F309BB2ADF80830344BE7
:100180001B68B3F811309BB2ADF80A30304B1B68D6
:10019000B3F813309BB2ADF80C302D4B1B68B3F89D
:1001A00015309BB2ADF80E3002AB1846FFF754FE87
:1001B0000590059B072B41D1254B1B68002242F07F
:1001C0000602DA7300221A74214B1B68002242F0E7
:1001D0000C025A7400229A741D4B1B680022DA74B8
:1001E00000221A751A4B1B68002242F040025A7511
:1001F000002242F001029A75154B1B68184601F067
:100200005FFB0590059B002B01D0059B1CE006239E
:10021000ADF808300C23ADF80A300023ADF80C30EF
:100220004FF4A073ADF80E3002AB1846FFF714FE82
:100230000590059B002B06D0059B05E0059B002B38
:1002400001D0059B00E00023184606B010BD00BF9A
:10025000DC4A0020487D050000B585B00190019B77
:100260001B78002B16D11149012031F013FC104BE3
:100270001B883B211846FFF7EBFD0390039B02937D
:10028000029B002B0ED00B4A40F2011102982DF078
:1002900011FA07E0019B1B78012B03D106490320CB
:1002A00031F0F8FB00BF05B05DF804FBA47E05004B
:1002B0005C450020487D0500F47E050000B583B054
:1002C0000190019A0649012031F0F5FB054A40F200
:1002D000151101982DF0EEF900BF03B05DF804FB95
:1002E000407F0500487D050000B58BB002AB1C22A5
:1002F0000021184636F099F96B460822002118466D
:1003000036F093F91F4B1B68B3F80F309BB2ADF872
:1003100000301C4B1B68B3F811309BB2ADF80230B3
:10032000184B1B68B3F813309BB2ADF80430154B73
:100330001B68B3F815309BB2ADF806306B460293DC
:100340004FF4004303934FF47023049303238DF879
:1003500014300023ADF8163000238DF818300A4B06
:1003600007930A4B089302AB184623F089F90990CA
:10037000099B002B01D0099B00E0002318460BB01D
:100380005DF804FBDC4A002059020200BD020200B5
:1003900000B589B003468DF807309DF80730002B73
:1003A00006D0032B20D11449032031F073FB1EE04B
:1003B0001249032031F06EFB02238DF80C30104BF4
:1003C0001B6803AA10469847032022F0A5FF079058
:1003D000079B0693069B002B08D00A4A40F2531154
:1003E00006982DF067F901E000BF00E000BF00BFF4
:1003F00009B05DF804FB00BF7C7F0500B47F0500F9
:10040000844A0020487D050000B58DB00190019B15
:100410001B88013B542B00F26F8101A252F823F09C
:1004200029060200F9060200F9060200F906020098
:10043000F9060200F9060200F9060200F9060200B8
:10044000F9060200F9060200F9060200F9060200A8
:10045000F9060200F9060200F9060200750502001D
:1004600097050200F9060200D7050200F90602000E
:10047000F9060200F9060200F9060200F906020078
:10048000F9060200F9060200F9060200F906020068
:10049000F9060200F9060200F9060200F906020058
:1004A000BF060200EF060200F9060200F90602008C
:1004B000F9060200F9060200F9060200F906020038
:1004C000F9060200F9060200F9060200F906020028
:1004D000F9060200F9060200F9060200F906020018
:1004E000F9060200F9060200F9060200F906020008
:1004F000F9060200F9060200F9060200F9060200F8
:10050000F9060200AF060200F9060200F906020031
:10051000F9060200F9060200F9060200F9060200D7
:10052000F9060200F9060200F9060200F9060200C7
:10053000F9060200F9060200F9060200F9060200B7
:10054000F9060200F9060200F9060200F9060200A7
:10055000F9060200F9060200F9060200F906020097
:10056000F906020001060200F9060200F90602007F
:100570004F0602006849032031F08CFA019B9A88EB
:10058000664B1A8000238DF80830654B1B6802AA61
:1005900010469847BBE0019B1B7A1A46614903202D
:1005A00031F089FA5D4B4FF6FF721A80FFF70EFDAE
:1005B0000346002B03D05C4B01221A70A7E05A4B74
:1005C00000221A7001238DF80830554B1B6802AACF
:1005D000104698479BE0514B188800230022852144
:1005E000FFF742FC0B900B9B0A930A9B002B00F039
:1005F00085804E4A40F283110A982DF05BF87DE029
:10060000464B1888002300220021FFF739FC0B908D
:100610000B9B0993099B002B72D0444A40F289112D
:1006200009982DF047F86BE03C4B1B8800211846D9
:10063000FFF732FC0B900B9B0893089B002B61D0BB
:100640003A4A4FF4C77108982DF034F85AE0019BEC
:10065000DB881A463649032031F02DFA019B9B882E
:100660004FF48A711846FFF70FFC0B900B9B079312
:10067000079B002B05D02D4A4FF4CB7107982DF026
:1006800019F8019BDA882B4BA3F8012029492A4845
:1006900025F02CF90B900B9B0693069B002B33D077
:1006A000224A4FF4CD7106982DF004F82CE0019BFE
:1006B0005B891A462149032031F0FDF927E02049E2
:1006C000032031F0E7F9019B9B88002200211846A6
:1006D000FFF7CEFB0B900B9B0593059B002B15D0D2
:1006E000124A40F2A71105982CF0E4FF0EE01549DC
:1006F000032031F0CFF90AE000BF08E000BF06E0B8
:1007000000BF04E000BF02E000BF00E000BF00BF88
:100710000DB05DF804FB00BFEC7F05005C450020D8
:10072000844A002028800500E34A0020487D050017
:1007300078800500E04A0020904A0020C88005002B
:10074000148105006481050000B585B00190019811
:1007500023F0C8F9019823F0C5F80023039312E0B1
:10076000144B1A68039BDB0013445B68002B07D013
:10077000104B1A68039BDB0013445B680198984791
:10078000039B013303930C4B1B68039A9A42E7D3F4
:1007900001990A4824F0EFFF0199094830F0C9FD9A
:1007A0000198FFF731FE019822F0A0FE00BF05B0CE
:1007B0005DF804FB884A00208C4A0020904A002003
:1007C000004B002000B587B0019001982EF000FB8F
:1007D000019805F079FE019822F0A4FE019B022BFE
:1007E00002D0019B032B13D1FFF7F0FB034683F0EC
:1007F0000103DBB2002B0BD0074B1B78002B07D07B
:1008000001238DF80C30054B1B6803AA104698474E
:1008100000BF07B05DF804FBE34A0020844A0020D3
:1008200000B593B0A54B1B68049304A8A44B4FF4E8
:10083000A672A44930F078FF1190119B1093109B81
:10084000002B05D0A04A4FF4FE7110982CF032FF17
:100850000023039303AB184631F02AF80F900F9B47
:100860000E930E9B002B05D0974A4FF400710E9803
:100870002CF020FF6B460C220021184635F0D5FEE7
:1008800001238DF800304FF48A73ADF80230039ADB
:100890006B4619462320FFF7FBFA0F900F9B0D9331
:1008A0000D9B002B05D0884A40F209210D982CF0B1
:1008B00001FF6B460C220021184635F0B6FE0123DD
:1008C0008DF8003001238DF802300623ADF8043096
:1008D000039A6B4619462020FFF7DAFA0F900F9B18
:1008E0000C930C9B002B05D0774A40F211210C98F9
:1008F0002CF0E0FE6B460C220021184635F095FEE8
:1009000001238DF8003010238DF80230039A6B46D6
:1009100019462220FFF7BCFA0F900F9B0B930B9BFD
:10092000002B05D0684A4FF406710B982CF0C2FEDC
:100930006B460C220021184635F077FE01238DF816
:10094000003002238DF80230039A6B4619462120AD
:10095000FFF79EFA0F900F9B0A930A9B002B05D07E
:10096000594A40F21F210A982CF0A4FE6B460C2233
:100970000021184635F059FE02238DF80030039A05
:100980006B4619460120FFF783FA0F900F9B0993DE
:10099000099B002B05D04C4A4FF4097109982CF0A3
:1009A00089FE6B460C220021184635F03EFE0123DD
:1009B0008DF80030039A6B4619464020FFF768FA1D
:1009C0000F900F9B0893089B002B05D03E4A40F2E6
:1009D000292108982CF06EFE6B460C220021184647
:1009E00035F023FE4FF47A630093039A6B46194661
:1009F000A120FFF74DFA0F900F9B0793079B002B49
:100A000005D0314A40F22E2107982CF053FE6B4658
:100A10000C220021184635F008FE9DF8003043F006
:100A200001038DF80030039A6B461946A020FFF7AA
:100A30002FFA0F900F9B0693069B002B05D0224A9E
:100A400040F2332106982CF035FE03AB184630F007
:100A50003FFF0F900F9B0593059B002B05D01A4A73
:100A600040F2362105982CF025FE184830F0C8FEDB
:100A70000F900F9B002B01D00F9B1BE0144830F010
:100A8000CFFE0F900F9B002B01D00F9B12E0012097
:100A9000FFF706FA0F900F9B002B01D00F9B09E088
:100AA0000120FFF701FA0F900F9B002B01D00F9B45
:100AB00000E00023184613B05DF804FBAC8105008C
:100AC000A5190500184B0020487D050049070200C4
:100AD000C507020000B5B1B04FF48073ADF87830AF
:100AE0003B4B1B788DF87A301FAB3C220021184617
:100AF00035F09BFD02238DF87C3000238DF87E308D
:100B000006238DF87F300123ADF884301EAB22938D
:100B100016AB20220021184635F087FD01238DF801
:100B20005B302C4B1B689B899BB21A93294B1B682B
:100B30009B7B1B9307AB3C220021184635F075FDCB
:100B400000238DF8BF3010E09DF8BF30C3F10302E1
:100B50009DF8BF3020498A5C30A90B4403F8B42CBF
:100B60009DF8BF3001338DF8BF309DF8BF30032BA7
:100B7000EAD95923ADF8103003AB06930423ADF83E
:100B8000143000238DF81C3004AB109316AA07A96B
:100B90001FA800230093114B22F0BAFA2E902E9B2F
:100BA000002B0DD00E4830F06FFF02462E9B0093B5
:100BB00040F282230B49022030F0A8FF2E9B03E075
:100BC000012022F097FA0023184631B05DF804FBAB
:100BD000904A0020DC4A0020FC4A002091030200D9
:100BE000487D0500147E050000B583B00190054ADC
:100BF00040F28F2101982CF05DFD00BF03B05DF83D
:100C000004FB00BF487D050000B583B01A4B1B688C
:100C100093F82830022B03D805F014FD002327E0B9
:100C2000164B4FF43E721A60134B1B681733134A6E
:100C30005360114B1B6893F828309AB20F4B1A81FE
:100C40000E4B0F4A5A610F48FFF7FEF80190019BC7
:100C5000002B01D0019B0BE0084BDB7A0233DAB2A8
:100C6000064BDA72054805F081FC05F0ADFC002367
:100C7000184603B05DF804FBDC4A0020644C0020F9
:100C8000E90B02006E4C002000B595B00390019274
:100C90001A460B468DF80B301346ADF8083000238A
:100CA0008DF84F309DF80B30062B00F2598101A2D0
:100CB00052F823F0D10C02000D0D0200310D02009C
:100CC000B90D0200090E02003B0E0200D30E020015
:100CD000BDF808300A2B00F23681AE4B1B6818466F
:100CE000BDF808301A46019935F076FCA94B1A6810
:100CF000BDF808300021D154A64B1B68BDF8082070
:100D0000D2B2DA7201238DF84F301CE1BDF8083001
:100D1000032B40F01A819F4B1B680C33BDF8082051
:100D20000199184635F058FC01238DF84F300CE13D
:100D3000BDF80830082B40F00A81964B1B680F3332
:100D4000BDF808200199184635F046FC05AB08228D
:100D50000021184635F069FC8E4B1B68B3F80F3044
:100D60009BB2ADF814308B4B1B68B3F811309BB2BB
:100D7000ADF81630874B1B68B3F813309BB2ADF853
:100D80001830844B1B68B3F815309BB2ADF81A309D
:100D900005AB184622F0CCFD1290129B1193119BCB
:100DA000002B05D07C4A40F2E12111982CF082FC06
:100DB00001238DF84F30CAE0BDF80830112B00F246
:100DC000C880744B1B681733BDF80820019918467A
:100DD00035F002FC6F4B1B68BDF80820D2B283F8D7
:100DE000282001238DF84F30FFF70EFF1090109B45
:100DF0000F930F9B002B00F0AC80674A4FF43C71BF
:100E00000F982CF057FCA4E0BDF80830FA2B00F244
:100E1000A280604B1B682933BDF808200199184651
:100E200035F0DAFB5B4B1B68BDF80820D2B283F8C3
:100E3000232101238DF84F308DE0BDF80830032BBE
:100E400040F08B80019B0E930E9B1B78012B2FD1C2
:100E50000E9BB3F801309BB21A465049032030F084
:100E60002AFE4F4B1A880E9BB3F801309BB21946ED
:100E70001046FFF701F80D900D9B002B07D1BDF830
:100E800008301A460199474835F0A6FB65E0454908
:100E9000454824F02BFD0D900D9B0C930C9B002BD3
:100EA0005BD03D4A40F20D310C982CF003FC54E02D
:100EB0003C493D4824F01AFD0D900D9B0B930B9B74
:100EC000002B4AD0344A40F213310B982CF0F2FB3D
:100ED00043E0BDF80830F72B41D82E4B1B6803F5D3
:100EE0009573BDF808200199184635F075FB294B1C
:100EF0001B68BDF80820D2B283F8212214F09CFDB3
:100F00000A900A9B002B05D0234A40F21E310A9812
:100F10002CF0D0FB1F4B1B6803F59573BDF8082020
:100F2000D2B21146184614F09BFB0990099B002B86
:100F300005D0194A40F21F3109982CF0BBFB012360
:100F40008DF84F300BE000BF0AE000BF08E000BFA3
:100F500006E000BF04E000BF02E000BF00E000BF09
:100F60009DF84F30002B10D00A4B1B68184600F03C
:100F7000A7FC0890089B0793079B002B05D0064A07
:100F800040F22B3107982CF095FB00BF15B05DF8AF
:100F900004FB00BFDC4A0020487D0500B08105004D
:100FA0005C450020E04A0020904A002000B589B04E
:100FB00000238DF81F30724B1B6893F82431FF22F9
:100FC000934214BF012300238DF81E306C4B1B6825
:100FD00093F82531FF22934214BF012300238DF89B
:100FE0001D30674B1B6893F82631FF22934214BFD4
:100FF000012300238DF81C30614B1A6803AB02F506
:1010000092721188927819809A709DF81E30002B88
:1010100007D19DF81D30002B03D19DF81C30002B0B
:101020002ED0574B1B68FF2283F82421544B1B689A
:10103000FF2283F82521524B1B68FF2283F82621CB
:1010400001238DF81F309DF81E30002B03D19DF831
:101050001D30002B14D000238DF81F30494B012286
:101060001A70494800F02CFC0690069B0593059BDE
:10107000002B05D0454A40F24E3105982CF01AFB62
:10108000FF231A46FF231946FF2300930B464049CE
:10109000032030F03BFD3B4B1B78002B0DD09DF81F
:1010A0000C301A469DF80D3019469DF80E3000930D
:1010B0000B463849032030F029FD314B1B6893F86B
:1010C0002830112B0FD92E4B1B6817330E223249B3
:1010D000184635F081FA2A4B1B680E2283F8282027
:1010E00001238DF81F30264B1B6893F82331FA2B10
:1010F0000FD9234B1B68293300222849184635F0A5
:101100006BFA1F4B1B68002283F8232101238DF803
:101110001F301B4B1B6893F82132F72B05D8184B57
:101120001B6893F82132002B10D1154B1B6803F577
:10113000957316221A49184635F04EFA104B1B6863
:10114000162283F8212201238DF81F309DF81F30CD
:10115000002B10D00A4B1B68184600F0B1FB06901C
:10116000069B0493049B002B05D0084A40F276317D
:1011700004982CF09FFA0023184609B05DF804FB90
:10118000DC4A0020E44A00202C7A0500487D050056
:10119000F881050038820500437A0500557A05007C
:1011A000567B050000B585B00A4B1B6801930A4BBE
:1011B000029301AB1946094824F004FB0390039BFA
:1011C000002B01D0039B00E00023184605B05DF81A
:1011D00004FB00BFDC4A0020890C0200904A00207A
:1011E00000B589B001900091FFF7DCFF0690069BE7
:1011F0000593059B002B05D0244A4FF46671059892
:101200002CF058FA0023079318E0079BDB00019AA3
:1012100013441B68002B0ED0079BDB00019A13447C
:101220001B681B4A1278104698470690069B002BB5
:1012300001D0069B26E0079B01330793079A009B8A
:101240009A42E2D302AB08220021184635F0EDF9AC
:10125000104B029301238DF80C3001238DF80D30D3
:1012600002AB19460C482FF0D3FE0690069B049360
:10127000049B002B05D0054A40F2B13104982CF0B4
:1012800019FA0023184609B05DF804FB487D0500F3
:10129000E44A002071FF0100004B0020B0B5C6B049
:1012A00002AF14F0F7FBC7F80801D7F80831002B9C
:1012B0000FD0B04830F0E8FB0246D7F80831009371
:1012C00040F2BE33AC49022030F020FCD7F80831A0
:1012D0004BE1AA4B1B6803F595731622A8491846E3
:1012E00034F042FF0346002B40F01C816B461D4644
:1012F0002021A44814F0DEFAC7F80801D7F8083115
:10130000002B0FD09B4830F0BFFB0246D7F80831C6
:10131000009340F2C3339849022030F0F7FBD7F82E
:101320000831FDE01B2387F8073197F807010346D2
:10133000013BC7F80031C1B24FF000024FF000038B
:101340004FF00004D40044EA5174CB00C1B24FF016
:1013500000024FF000034FF00004D40044EA51743F
:10136000CB0003460733DB08DB00ADEB030D02AB1C
:101370000033C7F8FC30D7F8FC3000221A70D7F8D9
:10138000FC308149184634F070FFD7F8FC307F49B3
:10139000184634F06AFF002387F80F311EE007F18A
:1013A000F80300210A461A800A469A7097F80F310E
:1013B000774AD35C1A4607F1F8037649184634F0A9
:1013C0003FFFD7F8FC3007F1F8021146184634F019
:1013D0004CFF97F80F31013387F80F3197F80F3131
:1013E000032BDCD9D7F8FC30184630F04DFB034610
:1013F0001A466949032030F05EFBD7F8FC3097F8B5
:1014000007211146184614F0ADF9C7F80801D7F8BE
:101410000831002B0FD0574830F036FB0246D7F882
:101420000831009340F2D7335349022030F06EFB6D
:10143000D7F8083174E016225849012014F0EEF96B
:10144000C7F80801D7F80831002B0FD0494830F011
:101450001BFB0246D7F80831009340F2DA334649C5
:10146000022030F053FBD7F8083159E014F06AFA43
:10147000C7F80801D7F80831002B0FD03D4830F0ED
:1014800003FB0246D7F80831009340F2DD333A49B6
:10149000022030F03BFBD7F8083141E0F72387F812
:1014A000FB3007F1FB023B461146184614F030F9B9
:1014B000C7F80801D7F80831002B0FD02D4830F0BD
:1014C000E3FA0246D7F80831009340F2E1332A49A3
:1014D000022030F01BFBD7F8083121E097F8FB2001
:1014E0003B4683F8F7203B4619462D4824F02AFA5C
:1014F000C7F80801D7F80831002B0FD01D4830F08D
:10150000C3FA0246D7F80831009340F2E5331A498E
:10151000022030F0FBFAD7F8083101E0AD4623E0B5
:10152000AD4622E0154B1B6803F59572134B1B6803
:1015300093F821321946104614F092F8C7F80801C2
:10154000D7F80831002B0FD00A4830F09DFA024638
:10155000D7F80831009340F2EA330749022030F00F
:10156000D5FAD7F8083100E00023184607F5887748
:10157000BD46B0BD487D0500147E0500DC4A002054
:10158000567B0500A8820500E84A0020C8820500B5
:10159000FC4A0020987E0500CC820500F8820500F8
:1015A000904A002000B585B00190019B1B686A4AF3
:1015B0001360019B5B68694A1360019B9B68684AE2
:1015C0001360FFF72DF90390039B002B06D0039ABD
:1015D0006449012030F06FFA039BB8E0624BD3F806
:1015E0008830614A43F47003C2F88830BFF34F8FEC
:1015F000BFF36F8F04215D48FEF70AFD0390039B44
:10160000002B06D0039A5A49012030F054FA039B6C
:101610009DE05849584800F00DFA0390039B002BB9
:1016200006D0039A5549012030F045FA039B8EE01D
:10163000504B1B680C22A3F81120FFF7B7FC039056
:10164000039B002B06D0039A4D49012030F033FA5A
:10165000039B7CE0FEF75EFD0390039B002B06D00E
:10166000039A4849012030F026FA039B6FE03B4B78
:101670001A683B4B1B6819461046FFF7B1FD0390F3
:10168000039B002B06D0039A3F49012030F013FA48
:10169000039B5CE0FFF71EFA0390039B002B06D030
:1016A000039A3A49012030F006FA039B4FE0FEF717
:1016B0001BFE0390039B002B06D0039A34490120A4
:1016C00030F0F9F9039B42E0032021F025FE03905E
:1016D000039B002B06D0039A2E49012030F0EBF932
:1016E000039B34E02C4805F0FFFE0390039B002B86
:1016F00006D0039A2949012030F0DDF9039B26E04A
:10170000254830F0C1F903461A462549132030F028
:10171000D2F9FFF7C3FD0390039B002B06D0039A79
:101720002049012030F0C7F9039B10E00A20FEF7A2
:101730000FFCFFF769FA0390039B002B06D0039A76
:101740001949012030F0B7F9039B00E00023184647
:1017500005B05DF804FB00BF844A0020884A0020E1
:101760008C4A00201083050000ED00E0FC4A0020B8
:101770004C830500DC4A00202C7A0500908305008C
:10178000CC8305000C840500488405009484050082
:10179000D08405000C850500E84A00204C85050032
:1017A000888505009C850500D085050000B589B0B9
:1017B0000390039B1B78012B1AD0052B42D0002BE2
:1017C0004CD1039B5B68002B03D1344B01221A7070
:1017D00059E03349012030F05DF900230793079B5E
:1017E000002B50D12F4A5D2100202BF063FF4AE0EF
:1017F000039B5B68002B16D1039B9B89B3F5005FAD
:1018000043D1039B1B7C1A46039B9B891946039B70
:10181000DB8900930B462449032030F077F9234BF2
:1018200001221A7031E02249012030F033F90023FF
:101830000693069B002B28D11A4A6F2100202BF01B
:1018400039FF22E0039B5B68002B20D1194903205C
:1018500030F020F9184B01221A7018E0039B1B7816
:101860001A46039B5B681549032030F038F9039B47
:101870005B680593059B002B0BD00A4A7B210598DA
:101880002BF018FF05E000BF04E000BF02E000BF3E
:1018900000E000BF00BF09B05DF804FBB04E0020BF
:1018A000088605003886050080860500B14E0020B8
:1018B000CC860500FC860500B24E0020308705006E
:1018C00000B58BB003901F49032030F0E3F8039B71
:1018D000002B01D10E2331E040F2222203991A4855
:1018E00034F07AFE194B42221A60184B04938A2373
:1018F000ADF814304FF40053ADF8183042F2010344
:10190000ADF81A3004AB07930123ADF8203006ABD5
:1019100019460F482FF07BF80990099B002B0CD03B
:101920000C4830F0B1F80246099B009398230A490D
:10193000022030F0EBF8099B00E0002318460BB0C2
:101940005DF804FB608705008C4C0020884C00206B
:101950007C4C0020388605009487050000B58BB0CC
:10196000039005AB08220021184634F05EFE2B4997
:10197000032030F08FF805AB294A42F201014FF401
:1019800000502FF0B3F80990099B002B0CD025488C
:1019900030F07AF80246099B0093A92322490220DD
:1019A00030F0B4F8099B34E007AB19461C482EF020
:1019B000A3FF0990099B002B0CD01A4830F064F863
:1019C0000246099B0093AC231749022030F09EF891
:1019D000099B1EE0089B4FF40A721946134834F025
:1019E000FBFD0F482EF0C4FF0990099B002B0CD083
:1019F0000C4830F049F80246099B0093B1230A498C
:101A0000022030F083F8099B03E0039B084A1A6028
:101A1000002318460BB05DF804FB00BFE887050003
:101A20007C4C00203886050094870500884C0020F7
:101A30008C4C002000B58BB0039002915B490320D1
:101A400030F028F8039B002B01D10E23A9E0584861
:101A50002EF0BCFE0990099B002B0CD0554830F0AD
:101A600013F80246099B0093C2235349022030F029
:101A70004DF8099B95E02EF0C9FE0990099B002BBB
:101A80000ED04C4830F000F80246099B0093C52365
:101A90004949022030F03AF8099B82E02BF08CFF94
:101AA000464B1B7883F00103DBB2002BF6D12EF0FE
:101AB000F1FF0990099B002B0ED03E482FF0E4FF68
:101AC0000246099B0093CD233B49022030F01EF8CB
:101AD000099B66E02BF070FF394B1B7883F0010304
:101AE000DBB2002BF6D10298FFF738FF0990099B73
:101AF0000A2B45D1334903202FF0CCFF40F222229C
:101B00000399314834F068FD304B42221A602F4B64
:101B100004938A23ADF814304FF40053ADF8183015
:101B200042F20103ADF81A3004AB07930123ADF87C
:101B30002030274B00221A7006AB194625482EF09C
:101B400057FF0990099B002B0CD01A482FF09CFFDF
:101B50000246099B0093EB23174902202FF0D6FF82
:101B6000099B1EE0029B184A1A6001E02BF024FF3B
:101B7000174B1B7883F00103DBB2002BF6D10FE08B
:101B8000099B002B0CD00B482FF07EFF0246099BCF
:101B90000093F623084902202FF0B8FF099B00E0CC
:101BA000002318460BB05DF804FB00BF1888050041
:101BB000AD1702003886050094870500B04E00205E
:101BC000B24E0020448805008C4C0020884C002038
:101BD000B14E00207C4C002000B587B08DED030A8B
:101BE0000290DDED037AFDEEE77ACDED017A9DF806
:101BF00004305AB2029B1A70029B93F9003007EE30
:101C0000903AF8EEE77A9DED037A77EE677ACDEDBC
:101C1000057ADDED057A9FED0D7A67EE877AFCEEA9
:101C2000E77ACDED017A9DF80430DAB2029B5A7062
:101C3000029B93F900301A46029B5B78044904200A
:101C40002FF04DFF00BF07B05DF804FB0000C84255
:101C5000A088050000B583B0034600918DF80730D9
:101C6000009B9DF807201A709DF807301A4604491A
:101C700004202FF020FF00BF03B05DF804FB00BF7D
:101C8000E888050000B587B08DED030A0290DDED10
:101C9000037AFDEEE77A17EE902A029B1A60029B08
:101CA0001B6807EE903AF8EEE77A9DED037A77EE3F
:101CB000677ACDED057ADDED057A9FED0D7A67EE59
:101CC000877AFCEEE77ACDED017A9DF80430DAB23E
:101CD000029B1A71029B1B681A46029B1B790549DD
:101CE00004202FF0FCFE00BF07B05DF804FB00BF2E
:101CF0000000C8423089050000B587B00190019B03
:101D00001B78002B02D0012B14D021E0019B5B78C3
:101D1000012B1AD110F0F2FCF0EE407A03AB18461A
:101D2000B0EE670AFFF7AEFF03AB19460A4822F090
:101D300039FE0AE000230593059B002B07D1074AD3
:101D4000942100202BF0B6FC01E000BF00E000BFB2
:101D500000BF07B05DF804FBB44E00208089050089
:101D600000B58DB003468DF807309DF80730002B85
:101D700060D112F06DFD8DED0B0A12F0B7FC034639
:101D8000ADF82A3004AB18469DED0B0AFFF724FF8F
:101D9000BDF82A30DBB20DF10F0211461846FFF7ED
:101DA00059FF2B4B1B78002B14D0BDF82A309DED2A
:101DB0000B0A184600F05CFA0990099B0893089BEF
:101DC000002B04D0234AB12108982BF073FC204B40
:101DD00000221A70204B1B78002B12D004AB19463E
:101DE0001E4822F09FFD0990099B0793079B002B3B
:101DF00004D0184AB82107982BF05CFC164B00223F
:101E00001A70174B1B78002B1ED00DF10F031946CB
:101E1000124822F007FE0990099B0693069B002BAF
:101E200004D00C4ABF2106982BF044FC0C4B002236
:101E30001A7009E000230593059B002B04D1054A85
:101E4000C52100202BF036FC00BF0DB05DF804FB6F
:101E5000FE4E002080890500FD4E0020B44E00207B
:101E6000FC4E002000B585B00190019B002B15D0E1
:101E7000019B1B88ADF80C30019B5B88ADF80E30E0
:101E8000019B1B881A46019B5B88064904202FF0A2
:101E900026FE03AB1946044822F004FE00BF05B03D
:101EA0005DF804FBCC890500B44E002000B587B076
:101EB000039000200AF0A2FE039B002B27D0039B77
:101EC0001B881946039B5B881846039B9B881A4610
:101ED000039BDB880193009203460A460E490420C7
:101EE0002FF02DFE039B1B88ADF81030039B5B8801
:101EF000ADF81230039B9B88ADF81430039BDB8850
:101F0000ADF8163004AB1946044822F00BFE00BFB2
:101F100007B05DF804FB00BF108A0500B44E002036
:101F200000B585B001900A4B01221A7012F02EFD07
:101F30000390039B0293029B002B05D0054A4FF4AC
:101F4000847102982BF0B6FB00BF05B05DF804FB6E
:101F5000FD4E002080890500F0B585B0334B01228D
:101F60001A70334B01221A7012F0FAFA0390039B95
:101F7000002B0DD02F482FF087FD0246039B0093C6
:101F80004FF48B732C4902202FF0C0FD039B49E0D6
:101F900012F0FCFC0390039B002B0DD025482FF082
:101FA00073FD0246039B009340F21913224902205D
:101FB0002FF0ACFD039B35E0204F214B1B681B88A5
:101FC0009BB299B24FF000024FF000034FF00004B3
:101FD000D40344EA5144CB0313F5FA7544F10006E7
:101FE0004FF47A724FF000032846314633F0B8FEC2
:101FF00003460C460022194638462CF027FB039076
:10200000039B002B0DD00B482FF03EFD0246039B97
:1020100000934FF48F73084902202FF077FD039B44
:1020200000E00023184605B0F0BD00BFFD4E0020C3
:10203000014F0020808905005C8A0500044F0020C4
:10204000F44E002000B587B003468DF80F30194BD1
:1020500000221A70184B18462CF02AFB0590059B9D
:10206000002B0DD015482FF00FFD0246059B009365
:102070004FF49673124902202FF048FD059B14E09F
:102080009DF80F30002B0FD00E4B00221A700E4B14
:102090001B7883F00103DBB2002B03D012F0CAFAE5
:1020A000034602E0002300E00023184607B05DF875
:1020B00004FB00BFFD4E0020044F00208089050076
:1020C0005C8A0500014F0020004F002000B585B05C
:1020D000019010F063FB0390039B0293029B002B83
:1020E00005D0054A40F24B1102982BF0E3FA00BFED
:1020F00005B05DF804FB00BF80890500F0B585B030
:1021000010F0ECF90390039B0293029B002B05D087
:102110001D4A4FF4AB7102982BF0CCFA10F03EFB45
:102120000390039B0193019B002B05D0164A40F2BC
:10213000591101982BF0BEFA144F154B1B685B88A0
:102140009BB299B24FF000024FF000034FF0000431
:10215000D40344EA5144CB0313F5FA7544F1000665
:102160004FF47A724FF000032846314633F0F8FD01
:1021700003460C460022194638462CF067FA0346FF
:10218000184605B0F0BD00BF80890500244F00202F
:10219000F44E002000B585B00E4B18462CF088FA9E
:1021A0000390039B002B0DD00B482FF06DFC0246D3
:1021B000039B009340F26913084902202FF0A6FC0C
:1021C000039B02E010F040FA0346184605B05DF8A4
:1021D00004FB00BF244F0020808905005C8A0500B5
:1021E00000B587B001900023ADF80A301C4B1B7876
:1021F000012B31D10DF10A03184600F07BF905904F
:10220000059B0493049B002B05D0164A4FF4BD7127
:1022100004982BF04FFABDF80A30002B04D1124974
:1022200002202FF037FC10E0BDF80A3018460CF001
:1022300021F90590059B0393039B002B05D0094AC8
:1022400040F2831103982BF035FA054B02221A70E5
:10225000064B18462CF02CFA00BF07B05DF804FBC3
:10226000FF4E002080890500B08A0500844F0020C1
:1022700000B589B003468DED020AADF80E301E4B55
:102280001B78002B33D0BDF80E301A469200134451
:102290005B00ADF81E30DDED027A9FED187A67EE37
:1022A000877AFDEEE77A17EE903A0693BDF81E2086
:1022B000069B134904202FF012FCBDF81E3006992E
:1022C00018460BF0F7FF0590059B002B0DD00D482D
:1022D0002FF0DAFB0246059B00934FF4D3730A49B3
:1022E00002202FF013FC059B02E0002300E00023F6
:1022F000184609B05DF804FB004F002000007A4446
:10230000188B0500808905005C8A050000B585B042
:10231000114B00221A70114B1B78002B13D112F0B5
:1023200089F90390039B002B0DD00D482FF0ACFBD7
:102330000246039B00934FF4E1730A4902202FF0F9
:10234000E5FB039B04E0084B18462CF0B1F903466B
:10235000184605B05DF804FB004F0020014F002037
:10236000808905005C8A0500844F002000B585B097
:1023700001900A4B01221A7012F008FB0390039B94
:102380000293029B002B05D0054A4FF4EA71029894
:102390002BF090F900BF05B05DF804FBFC4E002067
:1023A00080890500F0B585B02A4B01221A702A4BAE
:1023B00001221A7012F0D4F80390039B002B0DD069
:1023C00026482FF061FB0246039B009340F2E11385
:1023D000234902202FF09AFB039B37E012F0D6FA34
:1023E0000390039B002B0DD01C482FF04DFB0246A1
:1023F000039B00934FF4F273194902202FF086FBE0
:10240000039B23E0174F184B1B689B889BB299B224
:102410004FF000024FF000034FF00004D40344EAF1
:102420005144CB0313F5FA7544F100064FF47A7268
:102430004FF000032846314633F092FC03460C4629
:102440000022194638462CF001F90346184605B01B
:10245000F0BD00BFFC4E0020014F00208089050028
:102460005C8A0500444F0020F44E002000B587B080
:1024700003468DF80F30194B00221A70184B18467E
:102480002CF016F90590059B002B0DD015482FF068
:10249000FBFA0246059B009340F2F5131249022015
:1024A0002FF034FB059B14E09DF80F30002B0FD06C
:1024B0000E4B00221A700E4B1B7883F00103DBB227
:1024C000002B03D012F0B6F8034602E0002300E030
:1024D0000023184607B05DF804FB00BFFC4E002047
:1024E000444F0020808905005C8A0500014F0020D0
:1024F000004F002000B583B00190284B1B681B7A69
:10250000032B43D801A252F823F000BF1D2502007F
:10251000392502005525020071250200204B1B6859
:102520001B889AB2019B1A80019B1B881A461D4981
:1025300004202FF0C0FA2BE0194B1B685B889AB27D
:10254000019B1A80019B1B881A46174904202FF013
:10255000B2FA1DE0124B1B689B889AB2019B1A804D
:10256000019B1B881A46114904202FF0A4FA0FE0A2
:102570000B4B1B68DB889AB2019B1A80019B1B885E
:102580001A460B4904202FF096FA01E0082300E0D8
:102590000023184603B05DF804FB00BFF44E002092
:1025A000F84E0020788B0500E08B0500448C050078
:1025B000A88C050000B587B00346ADF80E30314B4E
:1025C0001B681B7A032B3FD801A252F823F000BFEF
:1025D000E1250200FB250200152602002F2602003D
:1025E000294B1B68BDF80E201A80BDF80E301A4624
:1025F000264904202FF05FFA28E0234B1B68BDF822
:102600000E205A80BDF80E301A46214904202FF0C2
:1026100052FA1BE01C4B1B68BDF80E209A80BDF8D7
:102620000E301A461B4904202FF045FA0EE0164BD7
:102630001B68BDF80E20DA80BDF80E301A46164928
:1026400004202FF038FA01E0082317E00E4B1B6836
:10265000184600F0DDFF0590059B002B0DD00F48BC
:102660002FF012FA0246059B009340F24E230C49CC
:1026700002202FF04BFA059B00E00023184607B01C
:102680005DF804FBF44E0020F84E00200C8D050090
:10269000708D0500D08D0500348E05008089050001
:1026A0005C8A050000B585B0284B1B681B7A1A466A
:1026B000274904202FF0FFF9244B1B681B7A032BBA
:1026C0001AD801A252F823F0D9260200E12602000E
:1026D000E9260200F126020000238DF80F300FE0FA
:1026E00001238DF80F300BE002238DF80F3007E047
:1026F00003238DF80F3003E002238DF80F3000BF65
:102700009DF80F3018460BF02BFF0290029B002B18
:102710000DD010482FF0B8F90246029B009340F20A
:102720006F230D4902202FF0F1F9029B0AE00B4BB9
:1027300001221A700A4B00224FF0617118462BF0EB
:1027400085FF0346184605B05DF804FBF44E0020F3
:10275000988E0500808905005C8A0500FF4E0020E8
:10276000844F002000B585B0274B1B78022B41D148
:10277000FFF7CCFD0390039B002B0DD023482FF0D7
:1027800083F90246039B009340F2812320490220F3
:102790002FF0BCF9039B33E00DF10A0318460BF050
:1027A000F7FD0390039B002B0DD018482FF06CF918
:1027B0000246039B00934FF42173154902202FF02A
:1027C000A5F9039B1CE0BDF80A301846FFF7F2FE9E
:1027D0000390039B002B0DD00C482FF055F90246B7
:1027E000039B009340F28723094902202FF08EF9C2
:1027F000039B05E0044B00221A700CF059F80346C5
:10280000184605B05DF804FBFF4E002080890500E6
:102810005C8A050000B587B00190134B1B685B7A9A
:102820008DF80C30104B1B689B7A8DF80D300E4BD9
:102830001B68DB7A8DF80E3003AB194600200AF0D6
:102840002FFA0CF051FF0590059B0493049B002B7D
:1028500005D0064A40F29F2104982AF02BFF00BFC2
:1028600007B05DF804FB00BFF44E0020808905002E
:10287000F0B585B02B4B1B685B7A8DF80030294B87
:102880001B689B7A8DF80130264B1B68DB7A8DF82C
:1028900002306B46194600200AF002FA0CF086FF5F
:1028A0000390039B0293029B002B05D01E4A40F22B
:1028B000AF2102982AF0FEFE0CF016FF0390039B56
:1028C0000193019B002B05D0174A40F2B2210198D9
:1028D0002AF0F0FE154F134B1B68DB889BB299B2B0
:1028E0004FF000024FF000034FF00004D40344EA1D
:1028F0005144CB0313F5FA7544F100064FF47A7294
:102900004FF000032846314633F02AFA03460C46BE
:102910000022194638462BF099FE0346184605B0AA
:10292000F0BD00BFF44E002080890500644F0020F8
:1029300000B585B0124B18462BF0BAFE0390039BEE
:102940000293029B002B05D00E4A40F2BF21029851
:102950002AF0B0FE00200AF051F90CF0FDFF0390C0
:10296000039B0193019B002B05D0064A4FF4317164
:1029700001982AF09FFE0023184605B05DF804FB7D
:10298000644F00208089050000B585B00190019B4F
:102990001B889BB2632B32D9019B1B889BB24EF6DE
:1029A000602293422BD8019B5B889BB2312B26D9A6
:1029B000019B5B889BB24EF6602293421FD8019B1D
:1029C0009B889BB2632B1AD9019B9B889BB24EF6C6
:1029D0006022934213D8019BDB889BB2C72B0ED990
:1029E000019BDB889BB24EF66022934207D8019B85
:1029F0001B7A002B03D0019B1B7A032B0ED90A48AC
:102A000000F04EFD0390039B0293029B002B05D028
:102A1000064A40F2DA2102982AF04CFE00231846BA
:102A200005B05DF804FB00BF7888050080890500CB
:102A300000B589B00190019B002B01D10E236AE003
:102A40000020FFF7FFFAFFF7A5FB0120FFF70EFDBF
:102A5000FFF76EFF019B1B889BB2002B12D0304BFF
:102A600093F83630002B0DD0FFF776FA0790079BCE
:102A70000693069B002B05D02A4A40F2F3210698C4
:102A80002AF018FE019B5B889BB2002B12D0244BCE
:102A900093F83730002B0DD0FFF730FB0790079BE2
:102AA0000593059B002B05D01E4A40F2FA2105989C
:102AB0002AF000FE019B9B889BB2002B12D0184B82
:102AC00093F83830002B0DD0FFF76CFC0790079B74
:102AD0000493049B002B05D0124A40F20131049864
:102AE0002AF0E8FD019BDB889BB2002B12D00C4B37
:102AF00093F83A30002B0DD0FFF7BAFE0790079BF2
:102B00000393039B002B05D0064A4FF442710398B0
:102B10002AF0D0FD0023184609B05DF804FB00BF81
:102B2000B44E00208089050000B593B00390019257
:102B30001A460B468DF80B301346ADF808309DF859
:102B40000B30052B00F2428101A252F823F000BFA6
:102B5000692B0200E12B02003B2C0200B32C020087
:102B6000092D02005F2D0200039B93F836301A46B0
:102B70009F4904202EF09FFF039B93F83630002BD3
:102B80000FD0FFF7E9F91190119B1093109B002BC8
:102B900000F01E81974A40F2273110982AF08AFDF2
:102BA00016E1039B93F83830002B14BF0123002358
:102BB000DBB283F00103DBB203F00103DBB21846A2
:102BC000FFF740FA1190119B0F930F9B002B00F021
:102BD000FF80884A4FF44B710F982AF06BFDF7E0A5
:102BE000039B93F837301A46834904202EF063FF85
:102BF000039B93F83730002B0FD0FFF77FFA11902B
:102C0000119B0E930E9B002B00F0E480794A40F25A
:102C100035310E982AF04EFDDCE0FFF7BBFA11903B
:102C2000119B0D930D9B002B00F0D480714A40F254
:102C30003A310D982AF03EFDCCE0039B93F83830F2
:102C40001A466E4904202EF036FF039B93F8383065
:102C5000002B0FD0FFF7A6FB1190119B0C930C9B40
:102C6000002B00F0B980634A40F243310C982AF0FF
:102C700021FDB1E0039B93F83630002B14BF0123F4
:102C80000023DBB283F00103DBB203F00103DBB20C
:102C90001846FFF7EBFB1190119B0B930B9B002B3E
:102CA00000F09A80534A4FF452710B982AF002FDBB
:102CB00092E0039B93F839301A46514904202EF0D4
:102CC000FAFE039B93F83930002B0ED0FFF7EAFC95
:102CD0001190119B0A930A9B002B7FD0454A40F22A
:102CE00051310A982AF0E6FC78E0FFF73BFD11909D
:102CF000119B0993099B002B70D03E4A40F256313C
:102D000009982AF0D7FC69E0039B93F83A301A46F9
:102D10003C4904202EF0CFFE039B93F83A30002B61
:102D20000ED0FFF7A5FD1190119B0893089B002B77
:102D300056D0304A40F25F3108982AF0BBFC4FE091
:102D4000FFF7F6FD1190119B0793079B002B47D0CF
:102D5000284A4FF4597107982AF0ACFC40E0BDF8BE
:102D600008301A46284904202EF0A5FEBDF8083088
:102D70000C2B0CBF01230023DBB20693069B002B18
:102D800005D11C4A40F26B3100202AF093FC0198D7
:102D900000F086FB1190119B0593059B002B05D03D
:102DA000144A40F26E3105982AF084FC0198FFF72E
:102DB0003FFE1190119B0493049B002B12D00D4AEF
:102DC00040F2713104982AF075FC0BE000BF0AE074
:102DD00000BF08E000BF06E000BF04E000BF02E063
:102DE00000BF00E000BF00BF13B05DF804FB00BFF0
:102DF000CC8E0500808905001C8F0500688F0500BA
:102E0000B48F0500FC8F05004490050000B597B015
:102E100003468DF80F3000238DF8483000238DF8DD
:102E200049300023109300238DF8443000238DF89F
:102E30003F300DAB00221A605A600023ADF83030ED
:102E40000023ADF83230464B464A4749474800F028
:102E500097FC1590159B002B0DD045482EF014FEC5
:102E60000246159B009340F28E33424902202EF019
:102E70004DFE159B6FE09DF80F30002B1DD03B4899
:102E800000F00EFB1590159B1493149B002B05D09E
:102E9000374A40F2933114982AF00CFC314800F084
:102EA000B7FB1590159B1393139B002B05D0304A4D
:102EB00040F2963113982AF0FDFB2B4B1B68184605
:102EC000FFF762FD1590159B002B0DD028482EF0C2
:102ED000DBFD0246159B009340F29A332549022000
:102EE0002EF014FE159B36E005AB1C22002118467F
:102EF00033F09BFB12AB059310AB06930DF13F0330
:102F000007930DAB09930CAB0893174B1B680A93FF
:102F1000194B0B93194903202EF0BCFD05AB194644
:102F2000174821F075FC1590159B002B0DD010480B
:102F30002EF0AAFD0246159B00934FF46A730D49CB
:102F400002202EF0E3FD159B05E0074B1B68184699
:102F5000FFF76EFD0023184617B05DF804FB00BFB5
:102F6000F84E002084880500F44E00207888050083
:102F7000808905005C8A0500292B020090900500DD
:102F8000B44E002000B585B0019001990C4821F0A5
:102F90000EFC019B1B88112B0DD100F0B1F80390A2
:102FA000039B0293029B002B05D0064A40F2BE31E0
:102FB00002982AF07FFB00BF05B05DF804FB00BF5C
:102FC000B44E00208089050000B589B0019000232F
:102FD00007935F238DF8083018230393019B049314
:102FE000064B0593064B069302AB184611F0C8F941
:102FF0000790079B184609B05DF804FBE4900500B4
:10300000611D020000B589B001905C238DF8083085
:1030100017230393019B0493074B0593074B0693D8
:1030200001238DF81C3002AB18460FF0BFF90346A0
:10303000184609B05DF804FBF4900500F91C020085
:1030400000B58BB00390039B0593114B06935A2355
:103050008DF81C300F4B089305AB18460BF02CFD78
:103060000990099B002B0DD00B482EF00DFD024658
:10307000099B009340F20A43084902202EF046FDC6
:10308000099B00E0002318460BB05DF804FB00BF6D
:1030900004910500651E0200808905005C8A050018
:1030A00000B58BB00390039B0593114B0693382317
:1030B0008DF81C300F4B089305AB18460CF07AFACC
:1030C0000990099B002B0DD00B482EF0DDFC024629
:1030D000099B009340F22343084902202EF016FD7D
:1030E000099B00E0002318460BB05DF804FB00BF0D
:1030F00014910500AD1E0200808905005C8A050060
:1031000000B587B00020FEF79DFF0590059B049356
:10311000049B002B05D0224A40F2344104982AF047
:10312000C9FAFFF737F80590059B0393039B002B23
:1031300005D01B4A40F2374103982AF0BBFA012020
:10314000FFF794F90590059B0293029B002B05D095
:10315000134A40F23A4102982AF0ACFAFFF7E8FB32
:103160000590059B0193019B002B05D00C4A40F272
:103170003D4101982AF09EFAFFF7F4FA0590059B6D
:103180000093009B002B05D0054A4FF488610098FE
:103190002AF090FA0023184607B05DF804FB00BF40
:1031A0008089050000B58DB003900291039B002B30
:1031B00001D10E23BAE0029B002B01D10E23B5E012
:1031C0005C4903202EF066FC039B5B4A5A60039B1C
:1031D0005A4A1A60029B1B681846FFF713FF0B90B0
:1031E0000B9B0A930A9B002B05D0554A40F2544191
:1031F0000A982AF05FFA029B1B681846FFF7E4FE64
:103200000B900B9B0993099B002B05D04C4A40F275
:10321000574109982AF04EFA029B1B681846FFF79F
:103220000FFF0B900B9B0893089B002B05D0444A83
:1032300040F25A4108982AF03DFA029B1B68184652
:10324000FFF72EFF0B900B9B0793079B002B05D0DE
:103250003B4A40F25D4107982AF02CFA394A012195
:1032600039482BF0C3F90B900B9B0693069B002B60
:1032700005D0334A40F2614106982AF01BFA334ADE
:10328000012133482BF0B2F90B900B9B0593059B62
:10329000002B05D02A4A40F2644105982AF00AFA28
:1032A0002C4A01212C482BF0A1F90B900B9B002BF1
:1032B0000DD023482EF0E8FB02460B9B009340F212
:1032C0006743264902202EF021FC0B9B2EE0244A66
:1032D000012124482BF08AF90B900B9B002B0DD079
:1032E00017482EF0D1FB02460B9B009340F26A4335
:1032F0001A4902202EF00AFC0B9B17E01A4A012102
:103300001A482BF073F90B900B9B002B0DD00C4837
:103310002EF0BAFB02460B9B009340F26D430F491F
:1033200002202EF0F3FB0B9B00E0002318460DB0AB
:103330005DF804FBC0900500852F02000D2E0200F1
:1033400080890500211F02008C880500CD20020025
:10335000908805006D230200948805005C8A0500B2
:103360001528020098880500E12102009C880500CC
:1033700000B589B00390039B1B78002B02D0012B72
:103380001AD05BE0039B5B68002B06D13A4B01220D
:103390001A703A4B01221A7065E0394901202EF06B
:1033A00079FB00230793079B002B5CD1354A7221E0
:1033B00000202AF07FF956E0039B5B68002B2ED19A
:1033C000039B9B8941F20102934210D1039B1B7C1A
:1033D0001A46039B9B891946039BDB8900930B4686
:1033E000294903202EF092FB284B01221A70039BDF
:1033F0009B8941F20302934237D1039B1B7C1A46FF
:10340000039B9B891946039BDB8900930B4620494C
:1034100003202EF07BFB1F4B01221A7025E01E4972
:1034200001202EF037FB00230693069B002B1CD1B6
:10343000144A8C2100202AF03DF916E0039B1B78EA
:103440001A46039B5B68154903202EF048FB039B3B
:103450005B680593059B002B09D00A4A91210598CA
:103460002AF028F903E000BF02E000BF00E000BF3F
:1034700000BF09B05DF804FBD94F0020DB4F0020EE
:103480002491050054910500A4910500D84F002017
:10349000F4910500DA4F002048920500789205006B
:1034A00000B58BB003901F4903202EF0F3FA039B65
:1034B000002B01D10E2330E00C2203991A4833F07F
:1034C0008BF81A4B42221A60184B04930423ADF870
:1034D000143041F20103ADF8183041F20203ADF8A7
:1034E0001A3004AB07930123ADF8203006AB194620
:1034F0000F482DF08CFA0990099B002B0CD00D4839
:103500002EF0C2FA0246099B0093AE230A4902201C
:103510002EF0FCFA099B00E0002318460BB05DF882
:1035200004FB00BFA8920500C04F0020BC4F002044
:10353000A44F002054910500D892050000B58BB02F
:10354000039005AB08220021184633F06EF82A4993
:1035500003202EF09FFA05AB284A41F2020141F206
:1035600001002DF0C3FA0990099B002B0CD02448D0
:103570002EF08AFA0246099B0093BF2321490220BC
:103580002EF0C4FA099B33E007AB19461B482DF017
:10359000B3F90990099B002B0CD019482EF074FA4E
:1035A0000246099B0093C223164902202EF0AEFA70
:1035B000099B1DE0089B10221946134833F00CF8B4
:1035C0000E482DF0D5F90990099B002B0CD00C4822
:1035D0002EF05AFA0246099B0093C723094902209C
:1035E0002EF094FA099B03E0039B084A1A6000231B
:1035F00018460BB05DF804FB2C930500A44F002087
:1036000054910500D8920500BC4F0020C04F002007
:1036100000B58BB003901F4904202EF03BFA039BAA
:10362000002B01D10E2330E0082203991A4832F012
:10363000D3FF1A4B42221A60184B04930323ADF8B0
:10364000143041F20303ADF8183041F20403ADF831
:103650001A3004AB07930123ADF8203006AB1946AE
:103660000F482DF0D4F90990099B002B0CD00D4880
:103670002EF00AFA0246099B0093E6230A4902202B
:103680002EF044FA099B00E0002318460BB05DF8C9
:1036900004FB00BF5C930500D04F0020CC4F0020FE
:1036A000B04F002054910500D892050000B58BB0B2
:1036B000039005AB08220021184632F0B6FF2A49D4
:1036C00004202EF0E7F905AB284A41F2040141F24B
:1036D00003002DF00BFA0990099B002B0CD0244815
:1036E0002EF0D2F90246099B0093F72321490220CC
:1036F0002EF00CFA099B33E007AB19461B482DF05E
:10370000FBF80990099B002B0CD019482EF0BCF94E
:103710000246099B0093FA23164902202EF0F6F97F
:10372000099B1DE0089B0C221946134832F054FFF8
:103730000E482DF01DF90990099B002B0CD00C4868
:103740002EF0A2F90246099B0093FF2309490220AB
:103750002EF0DCF9099B03E0039B084A1A60002362
:1037600018460BB05DF804FB8C930500B04F0020A9
:1037700054910500D8920500CC4F0020D04F002076
:1037800000B593B005900491039202938D490320F4
:103790002EF080F9059B002B01D10E230DE1039B38
:1037A000002B01D10E2308E187482DF00FF811906E
:1037B000119B002B0DD085482EF066F90246119B17
:1037C00000934FF48A73824902202EF09FF9119BD7
:1037D000F3E02DF01BF81190119B002B0FD07B48CC
:1037E0002EF052F90246119B009340F217137849CC
:1037F00002202EF08BF9119BDFE02AF0DDF8754BEB
:103800001B7883F00103DBB2002BF6D1724B1B78DF
:1038100083F00103DBB2002BEFD10498FFF78EFE9B
:103820001190119B0A2B45D16C4903202EF032F9DF
:103830000C2205996A4832F0CFFE6A4B42221A6088
:10384000684B0C930423ADF8343041F20103ADF81A
:10385000383041F20203ADF83A300CAB0F9301233C
:10386000ADF84030604B00221A700EAB19465F482D
:103870002DF0BEF81190119B002B0DD053482EF067
:1038800003F90246119B009340F235135049022080
:103890002EF03CF9119B90E0049B514A1A6001E024
:1038A0002AF08AF8504B1B7883F00103DBB2002B1F
:1038B000F6D110E0119B002B0DD044482EF0E4F817
:1038C0000246119B00934FF4A073414902202EF051
:1038D0001DF9119B71E00298FFF7E8FE1190119B12
:1038E0000A2B58D1039B1B889BB21946039B5B880C
:1038F0009BB21846039B9B889BB21A46039BDB88AE
:103900009BB20193009203460A46394903202EF0E8
:1039100016F908220399374832F05EFE364B4222F0
:103920001A60354B07930323ADF8203041F20303AF
:10393000ADF8243041F20403ADF8263007AB0A930A
:103940000123ADF82C302D4B00221A7009AB19461B
:103950002B482DF04DF81190119B002B0DD01B48DA
:103960002EF092F80246119B00934FF4AD73184964
:1039700002202EF0CBF8119B1FE0029B1D4A1A601B
:1039800001E02AF019F81D4B1B7883F00103DBB22C
:10399000002BF6D110E0119B002B0DD00B482EF020
:1039A00073F80246119B009340F265130849022008
:1039B0002EF0ACF8119B00E00023184613B05DF820
:1039C00004FB00BFB8930500713302005491050059
:1039D000D8920500D94F0020DB4F0020E49305006A
:1039E000C04F0020BC4F0020D84F0020A44F002023
:1039F00018940500D04F0020CC4F0020DA4F002053
:103A0000B04F002000B589B00190019B002B01D17F
:103A10000E2327E0019B1B889BB2ADF80C30019B65
:103A20005B889BB2ADF80E30019B9B889BB2ADF8D2
:103A30001030019BDB889BB2ADF81230019B1B7AE2
:103A40008DF8143003AB18460EF000F80790079B72
:103A50000693069B002B04D0044A4C21069829F0BB
:103A600029FE0023184609B05DF804FB8094050088
:103A700000B59BB0039001921A460B468DF80B30AF
:103A80001346ADF808309DF80B300B2B00F2138273
:103A900001A252F823F000BF4F3E0200C93A0200D3
:103AA000273B0200853B0200DF3B02003D3C020059
:103AB000973C0200F13C02004B3D0200C93D020070
:103AC0001F3E0200313E0200039B93F866301A4607
:103AD000B44903202DF0EFFF039B93F86630002BD1
:103AE00010D04FF480700DF001FE1990199B1893BF
:103AF000189B002B00F0E181AB4A6021189829F057
:103B0000D9FDDAE14FF480700DF018FF1990199B80
:103B10001793179B002B00F0D081A34A65211798BB
:103B200029F0C8FDC9E1039B93F867301A469F4905
:103B300003202DF0C0FF039B93F86730002B10D0BB
:103B40004FF400700DF0D2FD1990199B1693169B3F
:103B5000002B00F0B481944A6E21169829F0AAFD3A
:103B6000ADE14FF400700DF0E9FE1990199B15932B
:103B7000159B002B00F0A3818B4A7321159829F027
:103B800099FD9CE1039B93F868301A46884903200D
:103B90002DF091FF039B93F86830002B0FD0082085
:103BA0000DF0A4FD1990199B1493149B002B00F0A9
:103BB00088817D4A7C21149829F07CFD81E10820D0
:103BC0000DF0BCFE1990199B1393139B002B00F072
:103BD0007881754A8121139829F06CFD71E1039B6E
:103BE00093F869301A46734903202DF064FF039B54
:103BF00093F86930002B10D04FF480600DF076FD03
:103C00001990199B1293129B002B00F05C81664A5D
:103C10008A21129829F04EFD55E14FF480600DF095
:103C20008DFE1990199B1193119B002B00F04B8175
:103C30005D4A8F21119829F03DFD44E1039B93F8E3
:103C40006A301A465C4903202DF035FF039B93F838
:103C50006A30002B0FD007200DF048FD1990199BFA
:103C60001093109B002B00F030814F4A9821109840
:103C700029F020FD29E107200DF060FE1990199B25
:103C80000F930F9B002B00F02081474A9D210F9836
:103C900029F010FD19E1039B93F86B301A46474950
:103CA00003202DF008FF039B93F86B30002B0FD0FF
:103CB00010200DF01BFD1990199B0E930E9B002BED
:103CC00000F00581384AA6210E9829F0F3FCFEE0A9
:103CD00010200DF033FE1990199B0D930D9B002BB6
:103CE00000F0F580304AAB210D9829F0E3FCEEE0BE
:103CF000039B93F86C301A46314903202DF0DBFE0C
:103D0000039B93F86C30002B0FD020200DF0EEFCBD
:103D10001990199B0C930C9B002B00F0DA80224A1F
:103D2000B4210C9829F0C6FCD3E020200DF006FE4B
:103D30001990199B0B930B9B002B00F0CA801A4A19
:103D4000B9210B9829F0B6FCC3E0039B93F86D30C2
:103D50001A461C4903202DF0AEFE039B93F86D30EC
:103D6000002B0FD040200DF0C1FC1990199B0A9335
:103D70000A9B002B00F0AF800B4AC2210A9829F061
:103D800099FCA8E040200DF0D9FD1990199B0993EA
:103D9000099B002B00F09F80034AC721099829F056
:103DA00089FC98E0C89405008094050014950500EE
:103DB00068950500B4950500049605005096050029
:103DC0009C960500EC960500039B93F86E301A460E
:103DD000454903202DF06FFE039B93F86E30002BB6
:103DE0000ED080200DF082FC1990199B0893089B3F
:103DF000002B72D03D4AD021089829F05BFC6CE082
:103E000080200DF09BFD1990199B0793079B002BB9
:103E100063D0364AD521079829F04CFC5DE0039B1E
:103E200093F86F301A46324903202DF044FE57E0D4
:103E3000BDF80830039A0199184603F0ABFEBDF8AF
:103E400008301A460021019832F0EFFB48E0BDF837
:103E500008301A46274903202DF02DFEBDF8083002
:103E6000092B0CBF01230023DBB20693069B002B1A
:103E700004D11E4AF021002029F01CFC019800F01A
:103E800031FF1990199B0593059B002B04D0174A0D
:103E9000F321059829F00EFC0198FFF7B3FD199066
:103EA000199B0493049B002B19D0104AF621049807
:103EB00029F000FC13E000BF12E000BF10E000BFDB
:103EC0000EE000BF0CE000BF0AE000BF08E000BF4A
:103ED00006E000BF04E000BF02E000BF00E000BF5A
:103EE00000BF1BB05DF804FB3C9705008094050003
:103EF0008C970500DC97050000B589B003468DF866
:103F00000F303249324800F0A5FF0790079B002B85
:103F10000DD030482DF0B8FD0246079B009340F2CB
:103F20000D132D4902202DF0F1FD079B49E09DF86E
:103F30000F30002B0ED0264800F0D4FE0790079BD0
:103F40000693069B002B05D0224A4FF489710698F0
:103F500029F0B0FB1D4B1B681846FFF753FD079077
:103F6000079B002B0DD01B482DF08EFD0246079BB2
:103F700000934FF48B73184902202DF0C7FD079B67
:103F80001FE004AB08220021184632F04EFB0F4B15
:103F90001B680493114B0593114903202DF07AFD02
:103FA00004AB19460F4823F021FC0790079B002B18
:103FB00006D0079A0C4901202DF07DFD079B00E0FB
:103FC0000023184609B05DF804FB00BF58500020DC
:103FD00074940500809405002C980500713A020045
:103FE00080980500DC4F0020C098050000B585B022
:103FF000019001990D4823F0C9FB019B1B88112BEF
:104000000FD140F6FF700DF099FC0390039B0293D3
:10401000029B002B05D0064A40F23711029829F086
:1040200049FB00BF05B05DF804FB00BFDC4F00207A
:10403000809405002DE9F047BAB002AFF860B9608E
:104040007A60FB681B78082B00F2718501A252F898
:1040500023F000BF794002002D4502008545020093
:104060000F4602009B480200EB480200174A02007C
:104070006D4A0200DD4A02007B68242B0CBF01233D
:104080000023DBB2C7F8D830D7F8D830002B05D1E1
:104090001F4A4FF4A171002029F00CFBBB68C7F840
:1040A000D430002387F8DD3064E097F8DD309B00E2
:1040B000D7F8D42013441B681B14A7F8D23097F804
:1040C000DD30144A32F91330B7F9D2209A4225DB99
:1040D00097F8DD10B7F9D20097F8DD300D4A32F9C4
:1040E0001330009303460A460B4902202DF00EFDC3
:1040F00097F8DD30074A32F91330194697F8DD306A
:104100009B00D7F8D42013440A041A602DE000BFA6
:1041100080940500F49D0500EC98050097F8DD30CB
:10412000C54A32F91330B7F9D2209A421DDA97F80E
:10413000DD10B7F9D20097F8DD30BF4A32F91330FD
:10414000009303460A46BD4902202DF0DFFC97F894
:10415000DD30B94A32F91330194697F8DD309B004B
:10416000D7F8D42013440A041A6097F8DD300133DD
:1041700087F8DD3097F8DD30082B96D9D7F8D430A2
:104180001B689B111BB2A7F86430D7F8D4300433F6
:104190001B689B111BB2A7F86630D7F8D4300833E0
:1041A0001B689B111BB2A7F86830D7F8D4300C33CA
:1041B0001B68DB121BB2A7F86A30D7F8D430103373
:1041C0001B68DB121BB2A7F86C30D7F8D43014335D
:1041D0001B68DB121BB2A7F86E30D7F8D430183347
:1041E0001B681B139BB25B429BB21BB2A7F87230D9
:1041F000D7F8D4301C331B681B131BB2A7F87030E0
:10420000D7F8D43020331B681B131BB2A7F87430C7
:104210008B4904202DF03EFCD7F8D4301B6818469B
:104220002FF0AEFB03460C46C7E932344FF00002D4
:10423000844BD7E932012FF033FF03460C46C7E920
:10424000323407F15C00D7E932237F4931F0F8FFBF
:1042500007F15C0318462DF017FC03461A467B490C
:1042600004202DF028FCD7F8D43004331B681846FE
:104270002FF086FB03460C46C7E932344FF00002AC
:10428000704BD7E932012FF00BFF03460C46C7E90C
:10429000323407F15C00D7E932236B4931F0D0FFAB
:1042A00007F15C0318462DF0EFFB03461A466849F8
:1042B00004202DF000FCD7F8D43008331B681846D2
:1042C0002FF05EFB03460C46C7E932344FF0000284
:1042D0005C4BD7E932012FF0E3FE03460C46C7E9F9
:1042E000323407F15C00D7E93223574931F0A8FF97
:1042F00007F15C0318462DF0C7FB03461A465549E3
:1043000004202DF0D8FBD7F8D4300C331B681846A6
:104310002FF036FB03460C46C7E932344FF000025B
:10432000484BD7E932012FF0BBFE03460C46C7E9E4
:10433000323407F15C00D7E93223434931F080FF82
:1043400007F15C0318462DF09FFB03461A464249CD
:1043500004202DF0B0FBD7F8D43010331B6818467A
:104360002FF00EFB03460C46C7E932344FF0000233
:10437000344BD7E932012FF093FE03460C46C7E9D0
:10438000323407F15C00D7E932232F4931F058FF6E
:1043900007F15C0318462DF077FB03461A462F49B8
:1043A00004202DF088FBD7F8D43014331B6818464E
:1043B0002FF0E6FA03460C46C7E932344FF000020C
:1043C000204BD7E932012FF06BFE03460C46C7E9BC
:1043D000323407F15C00D7E932231B4931F030FF5A
:1043E00007F15C0318462DF04FFB03461A461C49A3
:1043F00004202DF060FBD7F8D4301C331B6818461E
:104400002FF0BEFA03460C46C7E932344FF00002E3
:104410000C4BD7E932012FF043FE03460C46C7E9A7
:10442000323407F15C00D7E93223074931F008FF45
:1044300007F15C03184615E0089E05003899050051
:10444000849905000000F040B4990500BC9905006E
:10445000EC9905001C9A05004C9A0500809A05000D
:10446000B49A05002DF010FB03461A46BC490420FF
:104470002DF021FBD7F8D43018331B6818462FF0E5
:104480007FFA03460C461A46C7F8C82084F000435A
:10449000C7F8CC304FF00002B24BD7E932012FF011
:1044A000FFFD03460C46C7E9323407F15C00D7E94B
:1044B0003223AD4931F0C4FE07F15C0318462DF0FC
:1044C000E3FA03461A46A94904202DF0F4FAD7F876
:1044D000D43020331B6818462FF052FA03460C469E
:1044E000C7E932344FF000029E4BD7E932012FF07A
:1044F000D7FD03460C46C7E9323407F15C00D7E923
:104500003223994931F09CFE07F15C0318462DF0E7
:10451000BBFA03461A46964904202DF0CCFA07F15F
:1045200064031946934823F04DFB05E37B68102B89
:104530000CBF01230023DBB2C7F8C430D7F8C43066
:10454000002B05D18C4A40F2BF11002029F0B2F8AF
:10455000BB68C7F8C030D7F8C0301B68FB64D7F819
:10456000C0305B683B65D7F8C0309B687B65D7F887
:10457000C030DB68BB6507F14C0319467D4823F06A
:104580009BFAD9E27B680C2B0CBF01230023DBB222
:10459000C7F8BC30D7F8BC30002B05D1764A40F2C2
:1045A000E111002029F086F8BB68C7F8B830D7F8C9
:1045B000B8301B683B64D7F8B8305B687B64D7F8C9
:1045C000B8309B68BB643B6C002B02DA03F57F4379
:1045D000FF331B141A467B6C002B02DA03F57F4372
:1045E000FF331B141946BB6C002B02DA03F57F4323
:1045F000FF331B1400930B46604904202DF086FA0C
:1046000007F1400319465B4823F01FFB94E26B4619
:104610009A467B68242B0CBF01230023DBB2C7F82A
:10462000B430D7F8B430002B05D1534A4FF4F971A8
:10463000002029F03FF8BB68C7F8B030D7F8B03099
:104640001B681B141BB2BB85D7F8B03004331B6842
:104650001B141BB2FB85D7F8B03008331B681B1442
:104660001BB23B86D7F8B0300C331B681B141BB24F
:104670007B86D7F8B03010331B681B141BB2BB8687
:10468000D7F8B03014331B681B141BB2FB86D7F865
:10469000B03018331B681B141BB23B87D7F8B030FF
:1046A0001C331B681B141BB27B87D7F8B030203338
:1046B0001B681B141BB2BB87314B1B78013BC7F82F
:1046C000AC302F4B1B78D9B24FF000020B4614468A
:1046D00013EB030844EB040943464C465B1842EBDA
:1046E00004044FF000014FF00002220142EA13726D
:1046F00019010B461446224B1B781A4613465B00E1
:1047000013445B001E4B1B78D9B24FF000020B46DE
:104710001446DD1844EB04062B4634465B1842EB86
:1047200004044FF000014FF00002220142EA13722C
:1047300019010B461446124B1B781A4613465B00B0
:1047400013445B000733DB08DB00ADEB030D02AB6A
:104750000033C7F8A830002387F8DE3038E000BF08
:10476000E89A05000000F040B4990500189B050088
:10477000489B0500DC4F002080940500789B0500D5
:104780001A9E050097F8DE309B00D7F8B02013443E
:104790001B6818462FF0F4F84FF00002C24B2FF0C0
:1047A0007FFC03460C46C7E9283497F8DE20134601
:1047B0005B0013445B00D7F8A820D018D7E9282362
:1047C000BA4931F03DFD97F8DE30013387F8DE302D
:1047D000B74B1B7897F8DE209A42D3D3B549042013
:1047E0002DF058F9D7F8A83018462DF04DF90446A9
:1047F000D7F8A830063318462DF046F90546D7F805
:10480000A8300C3318462DF03FF9034600932B4691
:104810002246A94904202DF079F9D7F8A83012339F
:1048200018462DF031F90446D7F8A8301833184649
:104830002DF02AF90546D7F8A8301E3318462DF07A
:1048400023F9034600932B4622469B4904202DF072
:104850005DF9D7F8A830243318462DF015F9044631
:10486000D7F8A8302A3318462DF00EF90546D7F8A8
:10487000A830303318462DF007F9034600932B4635
:1048800022468D4904202DF041F907F12C031946E9
:104890008A4823F01DFAD5464EE17B68042B0CBFF5
:1048A00001230023DBB2C7F89C30D7F89C30002BE3
:1048B00005D1834A40F21721002028F0FBFEBB6897
:1048C0001B68BB62BB6A002B02DA03F57F43FF3330
:1048D0001B141A467B4904202DF0EDF807F128033C
:1048E0001946764823F037FA26E16B461D467B6869
:1048F0000C2B0CBF01230023DBB2C7F89830D7F88C
:104900009830002B05D16E4A40F22221002028F079
:10491000D1FEBB68C7F89430D7F894301B68FB61B0
:10492000D7F894305B683B62D7F894309B687B6221
:10493000654B1B78013BC7F89030634B1B78D9B2AD
:104940004FF000024FF000034FF00004940144EADE
:1049500091648B015C4B1B78D9B24FF000024FF091
:1049600000034FF00004940144EA91648B01564B1C
:104970001B78DB000733DB08DB00ADEB030D02AB7C
:104980000033C7F88C30002387F8DF301AE097F83F
:10499000DF30DB00D7F88C20D41897F8DF309B008D
:1049A000D7F8942013441B6818462FF025F90246C7
:1049B0000B464649204631F043FC97F8DF3001337F
:1049C00087F8DF30404B1B7897F8DF209A42DED320
:1049D000D7F88C3018462DF057F80446D7F88C30AD
:1049E000083318462DF050F80646D7F88C301033AF
:1049F00018462DF049F803460093334622463449C1
:104A000004202DF083F807F11C0319462B4823F0EE
:104A1000E6F9AD4690E07B68022B0CBF0123002332
:104A2000DBB2C7F88830D7F88830002B05D1244A8C
:104A300040F23F21002028F03DFEBB68C7F88430DB
:104A4000D7F884301B783B76D7F884305B787B7658
:104A50007B7E1A463B7E1F4904202DF040F807F16B
:104A600018031946154822F0A1FF65E07B68012B69
:104A70000CBF01230023DBB2C7F88030D7F88030A9
:104A8000002B05D10E4A4FF41471002028F012FEBD
:104A9000BB681B781A46104904202DF00CF8B96841
:104AA000064822F0C6FF47E00000D041DC9B05002D
:104AB0001A9E0500E49B0500189C0500DC4F0020B1
:104AC00080940500409C05001B9E0500809C05000D
