:020000021000EC
:10F000000000012033F10100D9F00100DBF0010024
:10F01000DDF00100DFF00100E1F001000000000080
:10F02000000000000000000000000000E3F001000C
:10F03000E5F0010000000000E7F00100E9F0010048
:10F0400005C50400EDF00100EFF0010065B8040013
:10F05000F3F00100653405006DA70400E5C7040066
:10F06000FBF00100FDF00100FFF0010001F10100E3
:10F0700003F10100C9D6040007F1010009F1010004
:10F080000BF10100E5EC04000FF1010011F10100AA
:10F0900025ED040015F10100ED1F050019F1010037
:10F0A0001BF101001DF1010071D80400CD310500F4
:10F0B0007DC1040081D204000000000000000000B7
:10F0C00027F1010029F101002BF101002DF10100D0
:08F0D0002FF1010031F10100F4
:10F0D800FEE7FEE7FEE7FEE7FEE7FEE7FEE7FEE700
:10F0E800FEE7FEE7FEE7FEE7FEE7FEE7FEE7FEE7F0
:10F0F800FEE7FEE7FEE7FEE7FEE7FEE7FEE7FEE7E0
:10F10800FEE7FEE7FEE7FEE7FEE7FEE7FEE7FEE7CF
:10F11800FEE7FEE7FEE7FEE7FEE7FEE7FEE7FEE7BF
:10F12800FEE7FEE7FEE7FEE7FEE70348854600F058
:10F13800C5F800F003B87047000001203749384887
:10F148000A1A02D0072291438D46364936480A1AD0
:10F1580006D00722914381F30988022282F314889A
:10F1680032483349334A00F048F833483349344A7F
:10F1780000F043F833483449344A00F03EF8344844
:10F188003449354A00F039F834483549354A00F0F1
:10F1980034F835483549364A00F02FF835483649AD
:10F1A800364A00F02AF836483649374A00F025F83A
:10F1B80036483749002200F02BF8364836490022F5
:10F1C80000F026F835483649091A082903DB0022D9
:10F1D8000260043001601F481F49884205D0026858
:10F1E800043003B4904703BCF7E700208646EC469A
:10F1F800002000212B4A9047FEE7884207D0521A88
:10F2080005D0037801300B700131013AF9D170470C
:10F21800884202D002700130FAE7704700000120EE
:10F2280000FC00200000012000000120484F0600DB
:10F23800584500207C460020B0F20100B0F20100E1
:10F24800E07D0500484F060058450020584500203D
:10F25800E07D0500E07D0500E07D0500E07D05001E
:10F26800E07D0500E07D0500E07D0500E07D05000E
:10F27800484F06006C5006007C4600207C46002063
:10F288006C5006007C4600208C4600208C460020EE
:10F2980080A1002080A1002088A1002088A1002052
:08F2A80088A5002031FE0100E1
:10F2B000024B034A1A6000BF704700BF5845002048
:10F2C0000090D00308B500F00DF90346002B06D0DE
:10F2D000744B1B681B0A744A03F01F03136000F091
:10F2E0002DF90346002B02D0704B714A1A6000F0D2
:10F2F00041F90346002B06D06E4B1B685B0B6E4A30
:10F3000003F00703136000F061F90346002B05D0FA
:10F310006A4BDB68694A23F08073D36000F072F9AE
:10F320000346002B0ED04FF080430022C3F80C217F
:10F330004FF080430022C3F810214FF08043002299
:10F34000C3F8382500F08AF90346002B02D05C4B45
:10F3500003221A6000F09EF90346002B0BD0594B94
:10F3600005221A60584B01221A60584B00221A607D
:10F37000574B3F221A6000F0A9F90346002B76D0C4
:10F380004FF08053534AD3F80434C2F820354FF07D
:10F390008053504AD3F80834C2F824354FF08053D4
:10F3A0004C4AD3F80C34C2F828354FF08053494A00
:10F3B000D3F81034C2F82C354FF08053454AD3F8B7
:10F3C0001434C2F830354FF08053424AD3F8183421
:10F3D000C2F834354FF080533E4AD3F81C34C2F89B
:10F3E00040354FF080533B4AD3F82034C2F84435BF
:10F3F0004FF08053374AD3F82434C2F848354FF0E1
:10F400008053344AD3F82834C2F84C354FF0805337
:10F41000304AD3F82C34C2F850354FF080532D4A7F
:10F42000D3F83034C2F854354FF08053294AD3F81A
:10F430003434C2F860354FF08053264AD3F838345C
:10F44000C2F864354FF08053224AD3F83C34C2F8F6
:10F4500068354FF080531F4AD3F84034C2F86C35FA
:10F460004FF080531B4AD3F84434C2F8703500F093
:10F4700049F90346002B05D0174B1B68174A03F0C8
:10F480004F031360164BD3F88830154A43F47003CA
:10F49000C2F88830BFF34F8FBFF36F8FFFF708FFBD
:10F4A00000BF08BD240300104035014074C0074070
:10F4B0000DF0ADBA440200103C050040F0ED00E054
:10F4C000A0050040105600408856004018560040E5
:10F4D0001456004000C0004058020010E40E0040E6
:10F4E00000ED00E0124B1B68DBB2062B1DD1114B67
:10F4F0001B6803F00F03002B17D10F4B1B6803F0A1
:10F50000F003302B01D1012310E00B4B1B6803F0FB
:10F51000F003402B01D1012308E0074B1B6803F0E7
:10F52000F003502B01D1012300E00023184670475F
:10F53000E00F00F0E40F00F0E80F00F00A4B1B684A
:10F54000DBB2062B0DD1094B1B6803F00F03002B18
:10F5500007D1074B1B6803F0F003302B01D10123C7
:10F5600000E0002318467047E00F00F0E40F00F0C1
:10F57000E80F00F0124B1B68DBB2062B1DD1114BBC
:10F580001B6803F00F03002B17D10F4B1B6803F010
:10F59000F003302B01D1012310E00B4B1B6803F06B
:10F5A000F003402B01D1012308E0074B1B6803F057
:10F5B000F003502B01D1012300E0002318467047CF
:10F5C000E00F00F0E40F00F0E80F00F00A4B1B68BA
:10F5D000DBB2062B0DD1094B1B6803F00F03002B88
:10F5E00007D1074B1B6803F0F003302B01D1012337
:10F5F00000E0002318467047E00F00F0E40F00F031
:10F60000E80F00F0124B1B68DBB2062B1DD1114B2B
:10F610001B6803F00F03002B17D10F4B1B6803F07F
:10F62000F003302B01D1012310E00B4B1B6803F0DA
:10F63000F003402B01D1012308E0074B1B6803F0C6
:10F64000F003502B01D1012300E00023184670473E
:10F65000E00F00F0E40F00F0E80F00F00A4B1B6829
:10F66000DBB2062B0DD1094B1B6803F00F03002BF7
:10F6700007D1074B1B6803F0F003302B01D10123A6
:10F6800000E0002318467047E00F00F0E40F00F0A0
:10F69000E80F00F00A4B1B68DBB2062B0DD1094BBB
:10F6A0001B6803F00F03002B07D1074B1B6803F007
:10F6B000F003302B01D1012300E0002318467047EE
:10F6C000E00F00F0E40F00F0E80F00F00A4B1B68B9
:10F6D000DBB2062B0DD1094B1B6803F00F03002B87
:10F6E00007D1074B1B6803F0F003502B01D1012316
:10F6F00000E0002318467047E00F00F0E40F00F030
:10F70000E80F00F0124B1B68DBB2062B1DD1114B2A
:10F710001B6803F00F03002B17D10F4B1B6803F07E
:10F72000F003302B01D1012310E00B4B1B6803F0D9
:10F73000F003402B01D1012308E0074B1B6803F0C5
:10F74000F003502B01D1012300E00023184670473D
:10F75000E00F00F0E40F00F0E80F00F00048704701
:10F7600078A1002082B003468DF807309DF807305D
:10F7700003F01F0206499DF907305B09012000FADA
:10F7800002F2603341F8232000BF02B0704700BF8F
:10F7900000E100E0BFF34F8F054BDB6803F4E0624C
:10F7A0000349044B1343CB60BFF34F8F00BFFDE70A
:10F7B00000ED00E00400FA0532DF704700BF184694
:10F7C0003EDF704700BF184682B001904FF0A04363
:10F7D000184602B0704700B585B001900846114642
:10F7E0001A4603468DF803300B468DF80230134657
:10F7F0008DF8013001AB1846FFF7E6FF03909DF846
:10F8000003209DF802305B001A439DF801309B00F5
:10F810001A439DF818301B0242EA03019DF81C3080
:10F820001B04019A1943039B02F5E07243F822106E
:10F8300000BF05B05DF804FB00B585B00390002360
:10F840000193002300930023012201210398FFF775
:10F85000C2FF00BF05B05DF804FB00B585B00390A2
:10F860000B468DF80B3013468DF80A309DF80B20AF
:10F870009DF80A30019300230093134600220021D3
:10F880000398FFF7A8FF00BF05B05DF804FB000078
:10F8900084B00190244B0393019B002B40D0234B59
:10F8A0001A680399019B00BF00BF00BF00BF00BFE3
:10F8B00000BF00BF00BF8A422FD000BF00BF00BF03
:10F8C00000BF00BF00BF00BF00BF00BF00BF00BF40
:10F8D00000BF00BF00BF00BF00BF00BF00BF00BF30
:10F8E00000BF00BF00BF00BF00BF00BF00BF00BF20
:10F8F00000BF00BF00BF00BF00BF00BF00BF00BF10
:10F9000000BF00BF00BF00BF00BF00BF00BF00BFFF
:10F9100000BF00BF00BF00BF00BF013BC3D10193C8
:10F9200000BF04B0704700BF0024F4005845002019
:10F9300000B583B00190019B4FF47A7202FB03F390
:10F940001846FFF7A5FF00BF03B05DF804FB0000F9
:10F9500070B58AB0079006910592059B0993099BA3
:10F960005B68184632F066FC0546099B1B881E46FC
:10F97000099B9C68099B9B68184633F03FF8034637
:10F98000184632F057FC0346039302940196009503
:10F99000069B079A0849012032F0C2FC022005F0BC
:10F9A000AFFE0520FFF7C4FF059A069907982EF0D1
:10F9B0006FFA00BF0AB070BD587E050000B587B071
:10F9C000F1EE103A0193019B23F09F030293029BF7
:10F9D000E1EE103AF1EE103A03932620FFF7C2FE53
:10F9E000FFF7EEFE0590059B0493049B002B04D0CB
:10F9F000044ABC2104982EF033FA00BF07B05DF82A
:10FA000004FB00BFEC7E050000B589B00390039BAA
:10FA10005B881A46039B1B791946039B1B7800934E
:10FA20000B462049032032F047FC039B002B34D0C7
:10FA3000039B1B78012B30D108F050F80790079BEF
:10FA40000693069B002B04D0174ACE2106982EF071
:10FA500007FA022200210D20FFF7FFFE13490220C2
:10FA600032F0EEFBFFF7A8FE079007F015FE034605
:10FA700083F00103DBB2002B0AD0079B0593059BA3
:10FA8000002B0AD0084ADB2105982EF0E9F904E0A2
:10FA90000749022032F0D4FBFEE700BF09B05DF851
:10FAA00004FB00BF04800500EC7E05004C800500CF
:10FAB000C87F050000B583B00190019B1B78012B26
:10FAC00008D0022B10D0002B15D10D49032032F0A5
:10FAD000B7FB10E00B49032032F0B2FB0520FFF723
:10FAE00027FFFFF757FE06E00749032032F0A8FB87
:10FAF000FFF750FE00BF00BF03B05DF804FB00BF7E
:10FB0000B0800500EC8005002C81050000B59BB09D
:10FB100001AB24220021184637F05BF91C238DF835
:10FB20000A3005238DF80B300D238DF80C3011238E
:10FB30008DF80D3001238DF80E3004238DF80F3031
:10FB400040F61C43ADF8103041F25E03ADF81230C0
:10FB5000594B0593594B06936F23ADF81C3040F673
:10FB60001C43ADF81E300A238DF82030544B099306
:10FB70000F2006F00FFE1990199B1893189B002B6D
:10FB800005D0504A40F2151118982EF069F94E4BE5
:10FB90000F930FAB19464D4805F054FE1990199B71
:10FBA0001793179B002B05D0464A40F21B1117985C
:10FBB0002EF056F9444B0E930EAB1946444803F011
:10FBC00041FB1990199B1693169B002B05D03D4ABB
:10FBD00040F2211116982EF043F93B4B0D930DABDB
:10FBE00019463C4805F000F81990199B1593159B90
:10FBF000002B05D0334A4FF4947115982EF030F94C
:10FC0000354806F00BFA1990199B1493149B002B9E
:10FC100005D02C4A40F22B1114982EF021F92F4BCD
:10FC2000019301AB19462E4807F014FB1990199B5C
:10FC30001393139B002B05D0224A4FF4987113980D
:10FC40002EF00EF941F2883007F084FA1990199BD2
:10FC50001293129B002B05D01A4A40F233111298CE
:10FC60002EF0FEF81F4B0A93194B0B9305230C93B0
:10FC70000AAB184601F0E6FC1990199B1193119BF1
:10FC8000002B05D00F4A40F23B1111982EF0E8F8F6
:10FC9000012005F035FD1990199B1093109B002B46
:10FCA00005D0084A4FF49F7110982EF0D9F800BF84
:10FCB0001BB05DF804FB00BF60E3160020BF02002C
:10FCC000E07D0500EC7E0500507E05009C4600208E
:10FCD0008C46002094460020A446002009FA01002A
:10FCE000AC460020B5FA010000B585B00C4B01937D
:10FCF00001AB184607F0A0FE0390039B0293029B02
:10FD0000002B05D0074A40F2611102982EF0A8F8A6
:10FD10006420FFF70DFE00BF05B05DF804FB00BFD7
:10FD2000AC810500EC7E050000B589B01E4B029346
:10FD30001E4B039302AB18460BF0C8F90790079BC4
:10FD40000693069B002B05D0194A4FF4BC71069808
:10FD50002EF086F8144B0093144B01936B46184613
:10FD60000BF048FA0790079B0593059B002B05D0E5
:10FD70000F4A4FF4BF7105982EF072F80BF0BAFBE2
:10FD80000790079B0493049B002B05D0084A40F280
:10FD9000811104982EF064F86420FFF7C9FD00BFBC
:10FDA00009B05DF804FB00BF507E0500C881050066
:10FDB000EC7E050000B583B001900B468DF8033052
:10FDC000064B1B680133054A1360044B1B68184639
:10FDD00004F05AFF00BF03B05DF804FBB4460020F6
:10FDE00000B585B00F4B1B68019301238DF80430DB
:10FDF00001AB0D4A19460C202AF08CFB0390039BA3
:10FE00000293029B002B05D0084A40F29B110298F6
:10FE10002EF026F801210C202AF0D6FB00BF05B0F9
:10FE20005DF804FB68810500B5FD0100EC7E05006E
:10FE300000B587B0002032F0ADF90590059B049322
:10FE4000049B002B05D0254A4FF4D77104982EF05F
:10FE500007F82349032032F0F3F9224A3C21082015
:10FE60002EF0BAF80390039B0293029B002B05D05F
:10FE70001A4A4FF4DA7102982DF0F2FF2EF058FF73
:10FE80000590059B0193019B002B05D0134A4FF46D
:10FE9000DB7101982DF0E4FFFFF726FFFFF736FE38
:10FEA000FFF742FF07F042FE0320FFF7C5FC12F008
:10FEB0001DFB03460593059B0093009B002B05D07B
:10FEC000064A40F2C31100982DF0CAFFFFF788FFE1
:10FED0002EF048F9FFF772FDFAE700BFEC7E05004F
:10FEE0006C810500B84600206DDF704700BF1846E2
:10FEF00076DF704700BF18467ADF704700BF1846AC
:10FF00007CDF704700BF18467FDF704700BF184690
:10FF10008FDF704700BF18469EDF704700BF18464E
:10FF2000A9DF704700BF1846ADDF704700BF184615
:10FF300069DF704700BF184666DF704700BF18468C
:10FF400031DF704700BF18463DDF704700BF1846DD
:10FF500084B00190244B0393019B002B40D0234B92
:10FF60001A680399019B00BF00BF00BF00BF00BF1C
:10FF700000BF00BF00BF8A422FD000BF00BF00BF3C
:10FF800000BF00BF00BF00BF00BF00BF00BF00BF79
:10FF900000BF00BF00BF00BF00BF00BF00BF00BF69
:10FFA00000BF00BF00BF00BF00BF00BF00BF00BF59
:10FFB00000BF00BF00BF00BF00BF00BF00BF00BF49
:10FFC00000BF00BF00BF00BF00BF00BF00BF00BF39
:10FFD00000BF00BF00BF00BF00BF013BC3D1019302
:10FFE00000BF04B0704700BF0024F4005845002053
:10FFF00000B583B00190019B4FF47A7202FB03F3CA
:020000022000DC
:100000001846FFF7A5FF00BF03B05DF804FB000032
:1000100000B583B001900091009B1B78012B09D0A3
:10002000022B02D0002B0AD00EE00C49032032F044
:1000300007F90EE00A49032032F002F909E0094904
:10004000032032F0FDF804E00749022032F0F8F80E
:1000500000BF00BF03B05DF804FB00BFFC830500D8
:100060003C84050078840500B884050000B585B09F
:100070000023019301AB18462FF06EFA03468DF86A
:100080000F309DF80F300293029B002B04D0074ADB
:10009000842102982DF0E4FE019B002B14BF012364
:1000A0000023DBB2184605B05DF804FBF4840500BC
:1000B00000B589B003900B468DF80B3000238DF806
:1000C00017300DF1170318462DF09AFA00238DF81A
:1000D0001F3016E09DF81F3001338DF81F302E4978
:1000E000022032F0ADF80DF1170318462DF088FA12
:1000F0000520FFF77DFF9DF81F30052B01D90D234B
:1001000045E09DF817309DF80B209A42E2D89DF803
:1001100017301A462149032032F0A3F89DF80B301E
:10012000194603982DF088FA0690069B002B0CD0F8
:100130001B4832F07FF80246069B0093A32319491F
:10014000022032F0B9F8069B21E01749032032F073
:1001500077F800238DF81E300EE09DF81E30039ACC
:1001600013441B781A461149132032F07AF89DF88F
:100170001E3001338DF81E309DF81E209DF80B3087
:100180009A42EAD30A49132032F05AF8002318465B
:1001900009B05DF804FB00BF3885050088850500BF
:1001A000F4840500C085050014860500448605001A
:1001B0004C86050010B586B09DF804306FF303033C
:1001C0008DF804309DF804306FF307138DF8043078
:1001D000474B1B681C46464B1B68184636F075FE9D
:1001E00003469AB201AB21461846FFF789FE0590F7
:1001F000059B0493049B002B04D03E4AC221049823
:100200002DF02EFE02AB08220021184636F0E1FD4B
:10021000374B1B68B3F80F309BB2ADF80830344B46
:100220001B68B3F811309BB2ADF80A30304B1B6835
:10023000B3F813309BB2ADF80C302D4B1B68B3F8FC
:1002400015309BB2ADF80E3002AB1846FFF754FEE6
:100250000590059B072B41D1254B1B68002242F0DE
:100260000602DA7300221A74214B1B68002242F046
:100270000C025A7400229A741D4B1B680022DA7417
:1002800000221A751A4B1B68002242F040025A7570
:10029000002242F001029A75154B1B68184601F0C6
:1002A0005FFB0590059B002B01D0059B1CE00623FE
:1002B000ADF808300C23ADF80A300023ADF80C304F
:1002C0004FF4A073ADF80E3002AB1846FFF714FEE2
:1002D0000590059B002B06D0059B05E0059B002B98
:1002E00001D0059B00E00023184606B010BD00BFFA
:1002F000E04A0020F484050000B585B00190019B20
:100300001B78002B16D11149012031F099FF104BB9
:100310001B883B211846FFF7EBFD0390039B0293DC
:10032000029B002B0ED00B4A40F2011102982DF0D7
:1003300097FD07E0019B1B78012B03D106490320A1
:1003400031F07EFF00BF05B05DF804FB508605006C
:100350005C450020F4840500A086050000B583B04C
:100360000190019A0649012031F07BFF054A40F2D5
:10037000151101982DF074FD00BF03B05DF804FB6A
:10038000EC860500F484050000B58BB002AB1C229E
:100390000021184636F01DFD6B4608220021184644
:1003A00036F017FD1F4B1B68B3F80F309BB2ADF84A
:1003B00000301C4B1B68B3F811309BB2ADF8023013
:1003C000184B1B68B3F813309BB2ADF80430154BD3
:1003D0001B68B3F815309BB2ADF806306B4602933C
:1003E0004FF4004303934FF47023049303238DF8D9
:1003F00014300023ADF8163000238DF818300A4B66
:1004000007930A4B089302AB184623F0C9FB0990E7
:10041000099B002B01D0099B00E0002318460BB07C
:100420005DF804FBE04A0020F90202005D030200CF
:1004300000B589B003468DF807309DF80730002BD2
:1004400006D0032B20D11449032031F0F9FE1EE021
:100450001249032031F0F4FE02238DF80C30104BCA
:100460001B6803AA10469847032023F0E5F907907C
:10047000079B0693069B002B08D00A4A40F25311B3
:1004800006982DF0EDFC01E000BF00E000BF00BFCA
:1004900009B05DF804FB00BF2887050060870500F0
:1004A000884A0020F484050000B58DB00190019BBE
:1004B0001B88013B542B00F26F8101A252F823F0FC
:1004C000C906020099070200990702009907020075
:1004D0009907020099070200990702009907020094
:1004E0009907020099070200990702009907020084
:1004F00099070200990702009907020015060200F9
:1005000037060200990702007706020099070200E9
:100510009907020099070200990702009907020053
:100520009907020099070200990702009907020043
:100530009907020099070200990702009907020033
:100540005F0702008F070200990702009907020067
:100550009907020099070200990702009907020013
:100560009907020099070200990702009907020003
:1005700099070200990702009907020099070200F3
:1005800099070200990702009907020099070200E3
:1005900099070200990702009907020099070200D3
:1005A000990702004F07020099070200990702000D
:1005B00099070200990702009907020099070200B3
:1005C00099070200990702009907020099070200A3
:1005D0009907020099070200990702009907020093
:1005E0009907020099070200990702009907020083
:1005F0009907020099070200990702009907020073
:1006000099070200A106020099070200990702005B
:10061000EF0602006849032031F012FE019B9A8820
:10062000664B1A8000238DF80830654B1B6802AAC0
:1006300010469847BBE0019B1B7A1A46614903208C
:1006400031F00FFE5D4B4FF6FF721A80FFF70EFD83
:100650000346002B03D05C4B01221A70A7E05A4BD3
:1006600000221A7001238DF80830554B1B6802AA2E
:10067000104698479BE0514B1888002300228521A3
:10068000FFF742FC0B900B9B0A930A9B002B00F098
:1006900085804E4A40F283110A982DF0E1FB7DE0FF
:1006A000464B1888002300220021FFF739FC0B90ED
:1006B0000B9B0993099B002B72D0444A40F289118D
:1006C00009982DF0CDFB6BE03C4B1B8800211846B0
:1006D000FFF732FC0B900B9B0893089B002B61D01B
:1006E0003A4A4FF4C77108982DF0BAFB5AE0019BC3
:1006F000DB881A463649032031F0B3FD019B9B8805
:100700004FF48A711846FFF70FFC0B900B9B079371
:10071000079B002B05D02D4A4FF4CB7107982DF085
:100720009FFB019BDA882B4BA3F8012029492A481B
:1007300025F06CFB0B900B9B0693069B002B33D094
:10074000224A4FF4CD7106982DF08AFB2CE0019BD4
:100750005B891A462149032031F083FD27E02049B7
:10076000032031F06DFD019B9B880022002118467B
:10077000FFF7CEFB0B900B9B0593059B002B15D031
:10078000124A40F2A71105982DF06AFB0EE01549B8
:10079000032031F055FD0AE000BF08E000BF06E08D
:1007A00000BF04E000BF02E000BF00E000BF00BFE8
:1007B0000DB05DF804FB00BF988705005C45002084
:1007C000884A0020D4870500E74A0020F484050009
:1007D00024880500E44A0020944A0020748805001B
:1007E000C08805001089050000B585B0019001980A
:1007F00023F008FC019823F005FB0023039312E08B
:10080000144B1A68039BDB0013445B68002B07D072
:10081000104B1A68039BDB0013445B6801989847F0
:10082000039B013303930C4B1B68039A9A42E7D353
:1008300001990A4825F02FFA0199094831F04FF93A
:100840000198FFF731FE019823F0E0F800BF05B0F2
:100850005DF804FB8C4A0020904A0020944A002056
:10086000044B002000B587B0019001982EF086FE61
:10087000019805F083FE019823F0E4F8019B022B18
:1008800002D0019B032B13D1FFF7F0FB034683F04B
:100890000103DBB2002B0BD0074B1B78002B07D0DA
:1008A00001238DF80C30054B1B6803AA10469847AE
:1008B00000BF07B05DF804FBE74A0020884A00202B
:1008C00000B593B0A54B1B68049304A8A44B4FF448
:1008D000A672A44931F0FEFA1190119B1093109B5F
:1008E000002B05D0A04A4FF4FE7110982DF0B8FAF5
:1008F0000023039303AB184631F0B0FB0F900F9B1E
:100900000E930E9B002B05D0974A4FF400710E9862
:100910002DF0A6FA6B460C220021184636F059FA43
:1009200001238DF800304FF48A73ADF80230039A3A
:100930006B4619462320FFF7FBFA0F900F9B0D9390
:100940000D9B002B05D0884A40F209210D982DF00F
:1009500087FA6B460C220021184636F03AFA01233A
:100960008DF8003001238DF802300623ADF80430F5
:10097000039A6B4619462020FFF7DAFA0F900F9B77
:100980000C930C9B002B05D0774A40F211210C9858
:100990002DF066FA6B460C220021184636F019FA43
:1009A00001238DF8003010238DF80230039A6B4636
:1009B00019462220FFF7BCFA0F900F9B0B930B9B5D
:1009C000002B05D0684A4FF406710B982DF048FAB9
:1009D0006B460C220021184636F0FBF901238DF8F6
:1009E000003002238DF80230039A6B46194621200D
:1009F000FFF79EFA0F900F9B0A930A9B002B05D0DE
:100A0000594A40F21F210A982DF02AFA6B460C220F
:100A10000021184636F0DDF902238DF80030039AE4
:100A20006B4619460120FFF783FA0F900F9B09933D
:100A3000099B002B05D04C4A4FF4097109982DF001
:100A40000FFA6B460C220021184636F0C2F901233A
:100A50008DF80030039A6B4619464020FFF768FA7C
:100A60000F900F9B0893089B002B05D03E4A40F245
:100A7000292108982DF0F4F96B460C220021184624
:100A800036F0A7F94FF47A630093039A6B46194640
:100A9000A120FFF74DFA0F900F9B0793079B002BA8
:100AA00005D0314A40F22E2107982DF0D9F96B4636
:100AB0000C220021184636F08CF99DF8003043F0E6
:100AC00001038DF80030039A6B461946A020FFF70A
:100AD0002FFA0F900F9B0693069B002B05D0224AFE
:100AE00040F2332106982DF0BBF903AB184631F0E4
:100AF000C5FA0F900F9B0593059B002B05D01A4A52
:100B000040F2362105982DF0ABF9184831F04EFA35
:100B10000F900F9B002B01D00F9B1BE0144831F06E
:100B200055FA0F900F9B002B01D00F9B12E0012074
:100B3000FFF706FA0F900F9B002B01D00F9B09E0E7
:100B40000120FFF701FA0F900F9B002B01D00F9BA4
:100B500000E00023184613B05DF804FB5889050037
:100B6000512105001C4B0020F4840500E907020018
:100B70006508020000B5B1B04FF48073ADF878306D
:100B80003B4B1B788DF87A301FAB3C220021184676
:100B900036F01FF902238DF87C3000238DF87E306B
:100BA00006238DF87F300123ADF884301EAB2293ED
:100BB00016AB20220021184636F00BF901238DF8E0
:100BC0005B302C4B1B689B899BB21A93294B1B688B
:100BD0009B7B1B9307AB3C220021184636F0F9F8AB
:100BE00000238DF8BF3010E09DF8BF30C3F1030241
:100BF0009DF8BF3020498A5C30A90B4403F8B42C1F
:100C00009DF8BF3001338DF8BF309DF8BF30032B06
:100C1000EAD95923ADF8103003AB06930423ADF89D
:100C2000143000238DF81C3004AB109316AA07A9CA
:100C30001FA800230093114B22F0FAFC2E902E9B4C
:100C4000002B0DD00E4831F0F5FA02462E9B009392
:100C500040F282230B49022031F02EFB2E9B03E051
:100C6000012022F0D7FC0023184631B05DF804FBC8
:100C7000944A0020E04A0020004B0020310402008A
:100C8000F4840500C085050000B583B00190054AD5
:100C900040F28F2101982DF0E3F800BF03B05DF81A
:100CA00004FB00BFF484050000B583B01A4B1B6839
:100CB00093F82830022B03D805F01EFD002327E00F
:100CC000164B4FF43E721A60134B1B681733134ACE
:100CD0005360114B1B6893F828309AB20F4B1A815E
:100CE0000E4B0F4A5A610F48FFF7FEF80190019B27
:100CF000002B01D0019B0BE0084BDB7A0233DAB208
:100D0000064BDA72054805F08BFC05F0B7FC0023B2
:100D1000184603B05DF804FBE04A0020684C002050
:100D2000890C0200724C002000B595B0039001922E
:100D30001A460B468DF80B301346ADF808300023E9
:100D40008DF84F309DF80B30062B00F2598101A22F
:100D500052F823F0710D0200AD0D0200D10D02001A
:100D6000590E0200A90E0200DB0E0200730F0200F2
:100D7000BDF808300A2B00F23681AE4B1B681846CE
:100D8000BDF808301A46019935F0FAFFA94B1A68E8
:100D9000BDF808300021D154A64B1B68BDF80820CF
:100DA000D2B2DA7201238DF84F301CE1BDF8083061
:100DB000032B40F01A819F4B1B680C33BDF80820B1
:100DC0000199184635F0DCFF01238DF84F300CE116
:100DD000BDF80830082B40F00A81964B1B680F3392
:100DE000BDF808200199184635F0CAFF05AB082266
:100DF0000021184635F0EDFF8E4B1B68B3F80F301D
:100E00009BB2ADF814308B4B1B68B3F811309BB21A
:100E1000ADF81630874B1B68B3F813309BB2ADF8B2
:100E20001830844B1B68B3F815309BB2ADF81A30FC
:100E300005AB184623F00CF81290129B1193119BEE
:100E4000002B05D07C4A40F2E12111982DF008F8E2
:100E500001238DF84F30CAE0BDF80830112B00F2A5
:100E6000C880744B1B681733BDF8082001991846D9
:100E700035F086FF6F4B1B68BDF80820D2B283F8AF
:100E8000282001238DF84F30FFF70EFF1090109BA4
:100E90000F930F9B002B00F0AC80674A4FF43C711E
:100EA0000F982CF0DDFFA4E0BDF80830FA2B00F21B
:100EB000A280604B1B682933BDF8082001991846B1
:100EC00035F05EFF5B4B1B68BDF80820D2B283F89B
:100ED000232101238DF84F308DE0BDF80830032B1E
:100EE00040F08B80019B0E930E9B1B78012B2FD122
:100EF0000E9BB3F801309BB21A465049032031F0E3
:100F0000B0F94F4B1A880E9BB3F801309BB21946CB
:100F10001046FFF701F80D900D9B002B07D1BDF88F
:100F200008301A460199474835F02AFF65E04549DF
:100F3000454824F06BFF0D900D9B0C930C9B002BF0
:100F40005BD03D4A40F20D310C982CF089FF54E003
:100F50003C493D4824F05AFF0D900D9B0B930B9B91
:100F6000002B4AD0344A40F213310B982CF078FF12
:100F700043E0BDF80830F72B41D82E4B1B6803F532
:100F80009573BDF808200199184635F0F9FE294BF4
:100F90001B68BDF80820D2B283F8212214F0DAFFD2
:100FA0000A900A9B002B05D0234A40F21E310A9872
:100FB0002CF056FF1F4B1B6803F59573BDF80820F6
:100FC000D2B21146184614F0D9FD0990099B002BA6
:100FD00005D0194A40F21F3109982CF041FF012336
:100FE0008DF84F300BE000BF0AE000BF08E000BF03
:100FF00006E000BF04E000BF02E000BF00E000BF69
:101000009DF84F30002B10D00A4B1B68184600F09B
:10101000A7FC0890089B0793079B002B05D0064A66
:1010200040F22B3107982CF01BFF00BF15B05DF884
:1010300004FB00BFE04A0020F48405005C89050041
:101040005C450020E44A0020944A002000B589B0A5
:1010500000238DF81F30724B1B6893F82431FF2258
:10106000934214BF012300238DF81E306C4B1B6884
:1010700093F82531FF22934214BF012300238DF8FA
:101080001D30674B1B6893F82631FF22934214BF33
:10109000012300238DF81C30614B1A6803AB02F565
:1010A00092721188927819809A709DF81E30002BE8
:1010B00007D19DF81D30002B03D19DF81C30002B6B
:1010C0002ED0574B1B68FF2283F82421544B1B68FA
:1010D000FF2283F82521524B1B68FF2283F826212B
:1010E00001238DF81F309DF81E30002B03D19DF891
:1010F0001D30002B14D000238DF81F30494B0122E6
:101100001A70494800F02CFC0690069B0593059B3D
:10111000002B05D0454A40F24E3105982CF0A0FE38
:10112000FF231A46FF231946FF2300930B4640492D
:10113000032031F0C1F83B4B1B78002B0DD09DF8FC
:101140000C301A469DF80D3019469DF80E3000936C
:101150000B463849032031F0AFF8314B1B6893F848
:101160002830112B0FD92E4B1B6817330E22324912
:10117000184635F005FE2A4B1B680E2283F82820FE
:1011800001238DF81F30264B1B6893F82331FA2B6F
:101190000FD9234B1B68293300222849184635F004
:1011A000EFFD1F4B1B68002283F8232101238DF8DC
:1011B0001F301B4B1B6893F82132F72B05D8184BB7
:1011C0001B6893F82132002B10D1154B1B6803F5D7
:1011D000957316221A49184635F0D2FD104B1B683C
:1011E000162283F8212201238DF81F309DF81F302D
:1011F000002B10D00A4B1B68184600F0B1FB06907C
:10120000069B0493049B002B05D0084A40F27631DC
:1012100004982CF025FE0023184609B05DF804FB65
:10122000E04A0020E84A0020D8810500F484050047
:10123000A4890500E4890500EF810500018205000D
:101240000283050000B585B00A4B1B6801930A4B69
:10125000029301AB1946094824F044FD0390039B17
:10126000002B01D0039B00E00023184605B05DF879
:1012700004FB00BFE04A0020290D0200944A002030
:1012800000B589B001900091FFF7DCFF0690069B46
:101290000593059B002B05D0244A4FF466710598F1
:1012A0002CF0DEFD0023079318E0079BDB00019A7A
:1012B00013441B68002B0ED0079BDB00019A1344DC
:1012C0001B681B4A1278104698470690069B002B15
:1012D00001D0069B26E0079B01330793079A009BEA
:1012E0009A42E2D302AB08220021184635F071FD84
:1012F000104B029301238DF80C3001238DF80D3033
:1013000002AB19460C4830F059FA0690069B04933C
:10131000049B002B05D0054A40F2B13104982CF013
:101320009FFD0023184609B05DF804FBF484050016
:10133000E84A002011000200044B0020B0B5C6B0FE
:1013400002AF14F035FEC7F80801D7F80831002BBA
:101350000FD0B04830F06EFF0246D7F80831009346
:1013600040F2BE33AC49022030F0A6FFD7F8083176
:101370004BE1AA4B1B6803F595731622A849184642
:1013800035F0C6FA0346002B40F01C816B461D4623
:101390002021A44814F01CFDC7F80801D7F8083133
:1013A000002B0FD09B4830F045FF0246D7F808319C
:1013B000009340F2C3339849022030F07DFFD7F804
:1013C0000831FDE01B2387F8073197F80701034632
:1013D000013BC7F80031C1B24FF000024FF00003EB
:1013E0004FF00004D40044EA5174CB00C1B24FF076
:1013F00000024FF000034FF00004D40044EA51749F
:10140000CB0003460733DB08DB00ADEB030D02AB7B
:101410000033C7F8FC30D7F8FC3000221A70D7F838
:10142000FC308149184635F0F4FAD7F8FC307F4992
:10143000184635F0EEFA002387F80F311EE007F169
:10144000F80300210A461A800A469A7097F80F316D
:10145000774AD35C1A4607F1F8037649184635F007
:10146000C3FAD7F8FC3007F1F8021146184635F0F8
:10147000D0FA97F80F31013387F80F3197F80F3111
:10148000032BDCD9D7F8FC30184630F0D3FE0346E6
:101490001A466949032030F0E4FED7F8FC3097F88B
:1014A00007211146184614F0EBFBC7F80801D7F8DE
:1014B0000831002B0FD0574830F0BCFE0246D7F859
:1014C0000831009340F2D7335349022030F0F4FE44
:1014D000D7F8083174E016225849012014F02CFC8A
:1014E000C7F80801D7F80831002B0FD0494830F071
:1014F000A1FE0246D7F80831009340F2DA3346499C
:10150000022030F0D9FED7F8083159E014F0A8FCD9
:10151000C7F80801D7F80831002B0FD03D4830F04C
:1015200089FE0246D7F80831009340F2DD333A498C
:10153000022030F0C1FED7F8083141E0F72387F8E8
:10154000FB3007F1FB023B461146184614F06EFBD8
:10155000C7F80801D7F80831002B0FD02D4830F01C
:1015600069FE0246D7F80831009340F2E1332A4978
:10157000022030F0A1FED7F8083121E097F8FB20D7
:101580003B4683F8F7203B4619462D4824F06AFC79
:10159000C7F80801D7F80831002B0FD01D4830F0EC
:1015A00049FE0246D7F80831009340F2E5331A4964
:1015B000022030F081FED7F8083101E0AD4623E08B
:1015C000AD4622E0154B1B6803F59572134B1B6863
:1015D00093F821321946104614F0D0FAC7F80801E2
:1015E000D7F80831002B0FD00A4830F023FE02460E
:1015F000D7F80831009340F2EA330749022030F06F
:101600005BFED7F8083100E00023184607F588771D
:10161000BD46B0BDF4840500C0850500E04A002049
:1016200002830500548A0500EC4A0020748A0500F4
:10163000004B002044860500788A0500A48A050036
:10164000944A002000B585B00190019B1B686A4A4E
:101650001360019B5B68694A1360019B9B68684A41
:101660001360FFF72DF90390039B002B06D0039A1C
:101670006449012030F0F5FD039BB8E0624BD3F8DC
:101680008830614A43F47003C2F88830BFF34F8F4B
:10169000BFF36F8F04215D48FEF70AFD0390039BA3
:1016A000002B06D0039A5A49012030F0DAFD039B43
:1016B0009DE05849584800F00DFA0390039B002B19
:1016C00006D0039A5549012030F0CBFD039B8EE0F4
:1016D000504B1B680C22A3F81120FFF7B7FC0390B6
:1016E000039B002B06D0039A4D49012030F0B9FD31
:1016F000039B7CE0FEF75EFD0390039B002B06D06E
:10170000039A4849012030F0ACFD039B6FE03B4B4E
:101710001A683B4B1B6819461046FFF7B1FD039052
:10172000039B002B06D0039A3F49012030F099FD1E
:10173000039B5CE0FFF71EFA0390039B002B06D08F
:10174000039A3A49012030F08CFD039B4FE0FEF7ED
:101750001BFE0390039B002B06D0039A3449012003
:1017600030F07FFD039B42E0032022F065F80390F8
:10177000039B002B06D0039A2E49012030F071FD07
:10178000039B34E02C4805F00BFF0390039B002BD8
:1017900006D0039A2949012030F063FD039B26E01F
:1017A000254830F047FD03461A462549132030F0FE
:1017B00058FDFFF7C3FD0390039B002B06D0039A4F
:1017C0002049012030F04DFD039B10E00A20FEF778
:1017D0000FFCFFF769FA0390039B002B06D0039AD6
:1017E0001949012030F03DFD039B00E0002318461D
:1017F00005B05DF804FB00BF884A00208C4A002039
:10180000904A0020BC8A050000ED00E0004B00205B
:10181000F88A0500E04A0020D88105003C8B0500CD
:10182000788B0500B88B0500F48B0500408C050013
:101830007C8C0500B88C0500EC4A0020F88C050073
:10184000348D0500488D05007C8D050000B589B0FC
:101850000390039B1B78012B1AD0052B42D0002B41
:101860004CD1039B5B68002B03D1344B01221A70CF
:1018700059E03349012030F0E3FC00230793079B34
:10188000002B50D12F4A5D2100202CF0E9FA4AE0CC
:10189000039B5B68002B16D1039B9B89B3F5005F0C
:1018A00043D1039B1B7C1A46039B9B891946039BD0
:1018B000DB8900930B462449032030F0FDFC234BC9
:1018C00001221A7031E02249012030F0B9FC0023D6
:1018D0000693069B002B28D11A4A6F2100202CF07A
:1018E000BFFA22E0039B5B68002B20D1194903203B
:1018F00030F0A6FC184B01221A7018E0039B1B78ED
:101900001A46039B5B681549032030F0BEFC039B1D
:101910005B680593059B002B0BD00A4A7B21059839
:101920002CF09EFA05E000BF04E000BF02E000BF1B
:1019300000E000BF00BF09B05DF804FBB44E00201A
:10194000B48D0500E48D05002C8E0500B54E0020F9
:10195000788E0500A88E0500B64E0020DC8E0500AE
:1019600000B58BB003901F49032030F069FC039B46
:10197000002B01D10E2331E040F2222203991A48B4
:1019800035F0FEF9194B42221A60184B04938A2352
:10199000ADF814304FF40053ADF8183042F20103A3
:1019A000ADF81A3004AB07930123ADF8203006AB35
:1019B00019460F482FF001FC0990099B002B0CD011
:1019C0000C4830F037FC0246099B009398230A49E3
:1019D000022030F071FC099B00E0002318460BB098
:1019E0005DF804FB0C8F0500904C00208C4C00200F
:1019F000804C0020E48D0500408F050000B58BB0C1
:101A0000039005AB08220021184635F0E2F92B4976
:101A1000032030F015FC05AB294A42F201014FF4D6
:101A200000502FF039FC0990099B002B0CD0254861
:101A300030F000FC0246099B0093A92322490220B2
:101A400030F03AFC099B34E007AB19461C482FF0F4
:101A500029FB0990099B002B0CD01A4830F0EAFBB7
:101A60000246099B0093AC231749022030F024FC66
:101A7000099B1EE0089B4FF40A721946134835F083
:101A80007FF90F482FF04AFB0990099B002B0CD0DF
:101A90000C4830F0CFFB0246099B0093B1230A4962
:101AA000022030F009FC099B03E0039B084A1A60FE
:101AB000002318460BB05DF804FB00BF948F0500AF
:101AC000804C0020E48D0500408F05008C4C0020E8
:101AD000904C002000B58BB0039002915B4903202D
:101AE00030F0AEFB039B002B01D10E23A9E0584838
:101AF0002FF042FA0990099B002B0CD0554830F08A
:101B000099FB0246099B0093C2235349022030F0FF
:101B1000D3FB099B95E02FF04FFA0990099B002B0E
:101B20000ED04C4830F086FB0246099B0093C5233B
:101B30004949022030F0C0FB099B82E02CF012FBE7
:101B4000464B1B7883F00103DBB2002BF6D12FF05C
:101B500077FB0990099B002B0ED03E4830F06AFBC2
:101B60000246099B0093CD233B49022030F0A4FBA1
:101B7000099B66E02CF0F6FA394B1B7883F00103E1
:101B8000DBB2002BF6D10298FFF738FF0990099BD2
:101B90000A2B45D13349032030F052FB40F2222278
:101BA0000399314835F0ECF8304B42221A602F4B44
:101BB00004938A23ADF814304FF40053ADF8183075
:101BC00042F20103ADF81A3004AB07930123ADF8DC
:101BD0002030274B00221A7006AB194625482FF0FB
:101BE000DDFA0990099B002B0CD01A4830F022FB3B
:101BF0000246099B0093EB231749022030F05CFB5F
:101C0000099B1EE0029B184A1A6001E02CF0AAFA18
:101C1000174B1B7883F00103DBB2002BF6D10FE0EA
:101C2000099B002B0CD00B4830F004FB0246099BAB
:101C30000093F6230849022030F03EFB099B00E0A8
:101C4000002318460BB05DF804FB00BFC48F0500ED
:101C50004D180200E48D0500408F0500B44E0020B1
:101C6000B64E0020F08F0500904C00208C4C0020D8
:101C7000B54E0020804C002000B587B08DED030AE2
:101C80000290DDED037AFDEEE77ACDED017A9DF865
:101C900004305AB2029B1A70029B93F9003007EE8F
:101CA000903AF8EEE77A9DED037A77EE677ACDED1C
:101CB000057ADDED057A9FED0D7A67EE877AFCEE09
:101CC000E77ACDED017A9DF80430DAB2029B5A70C2
:101CD000029B93F900301A46029B5B78044904206A
:101CE00030F0D3FA00BF07B05DF804FB0000C84233
:101CF0004C90050000B583B0034600918DF8073085
:101D0000009B9DF807201A709DF807301A46044979
:101D1000042030F0A6FA00BF03B05DF804FB00BF5A
:101D20009490050000B587B08DED030A0290DDEDBB
:101D3000037AFDEEE77A17EE902A029B1A60029B67
:101D40001B6807EE903AF8EEE77A9DED037A77EE9E
:101D5000677ACDED057ADDED057A9FED0D7A67EEB8
:101D6000877AFCEEE77ACDED017A9DF80430DAB29D
:101D7000029B1A71029B1B681A46029B1B7905493C
:101D8000042030F082FA00BF07B05DF804FB00BF0A
:101D90000000C842DC90050000B587B00190019BAF
:101DA0001B78002B02D0012B14D021E0019B5B7823
:101DB000012B1AD110F030FFF0EE407A03AB184639
:101DC000B0EE670AFFF7AEFF03AB19460A4823F0EF
:101DD00079F80AE000230593059B002B07D1074AF9
:101DE000942100202CF03CF801E000BF00E000BF8F
:101DF00000BF07B05DF804FBB84E00202C91050031
:101E000000B58DB003468DF807309DF80730002BE4
:101E100060D112F0ABFF8DED0B0A12F0F5FE034618
:101E2000ADF82A3004AB18469DED0B0AFFF724FFEE
:101E3000BDF82A30DBB20DF10F0211461846FFF74C
:101E400059FF2B4B1B78002B14D0BDF82A309DED89
:101E50000B0A184600F05CFA0990099B0893089B4E
:101E6000002B04D0234AB12108982BF0F9FF204B16
:101E700000221A70204B1B78002B12D004AB19469D
:101E80001E4822F0DFFF0990099B0793079B002B58
:101E900004D0184AB82107982BF0E2FF164B002215
:101EA0001A70174B1B78002B1ED00DF10F0319462B
:101EB000124823F047F80990099B0693069B002BD4
:101EC00004D00C4ABF2106982BF0CAFF0C4B00220D
:101ED0001A7009E000230593059B002B04D1054AE5
:101EE000C52100202BF0BCFF00BF0DB05DF804FB46
:101EF000024F00202C910500014F0020B84E002019
:101F0000004F002000B585B00190019B002B15D03B
:101F1000019B1B88ADF80C30019B5B88ADF80E303F
:101F2000019B1B881A46019B5B880649042030F000
:101F3000ACF903AB1946044823F044F800BF05B0E0
:101F40005DF804FB78910500B84E002000B587B01D
:101F5000039000200AF09EFE039B002B27D0039BDA
:101F60001B881946039B5B881846039B9B881A466F
:101F7000039BDB880193009203460A460E49042026
:101F800030F0B3F9039B1B88ADF81030039B5B88DE
:101F9000ADF81230039B9B88ADF81430039BDB88AF
:101FA000ADF8163004AB1946044823F04BF800BFD7
:101FB00007B05DF804FB00BFBC910500B84E0020DF
:101FC00000B585B001900A4B01221A7012F06CFF27
:101FD0000390039B0293029B002B05D0054A4FF40C
:101FE000847102982BF03CFF00BF05B05DF804FB44
:101FF000014F00202C910500F0B585B0334B012234
:102000001A70334B01221A7012F038FD0390039BB3
:10201000002B0DD02F4830F00DF90246039B0093A2
:102020004FF48B732C49022030F046F9039B49E0B2
:1020300012F03AFF0390039B002B0DD0254830F09F
:10204000F9F80246039B009340F21913224902203B
:1020500030F032F9039B35E0204F214B1B681B8881
:102060009BB299B24FF000024FF000034FF0000412
:10207000D40344EA5144CB0313F5FA7544F1000646
:102080004FF47A724FF000032846314634F03CFAA0
:1020900003460C460022194638462CF0ADFE03904C
:1020A000039B002B0DD00B4830F0C4F80246039B75
:1020B00000934FF48F730849022030F0FDF8039B22
:1020C00000E00023184605B0F0BD00BF014F00201E
:1020D000054F00202C91050008920500084F0020B4
:1020E000F84E002000B587B003468DF80F30194B2D
:1020F00000221A70184B18462CF0B0FE0590059B74
:10210000002B0DD0154830F095F80246059B009342
:102110004FF496731249022030F0CEF8059B14E07C
:102120009DF80F30002B0FD00E4B00221A700E4B73
:102130001B7883F00103DBB2002B03D012F008FD03
:10214000034602E0002300E00023184607B05DF8D4
:1021500004FB00BF014F0020084F00202C91050018
:1021600008920500054F0020044F002000B585B0FF
:10217000019010F0A1FD0390039B0293029B002BA2
:1021800005D0054A40F24B1102982BF069FE00BFC2
:1021900005B05DF804FB00BF2C910500F0B585B0DB
:1021A00010F02AFC0390039B0293029B002B05D0A6
:1021B0001D4A4FF4AB7102982BF052FE10F07CFDDB
:1021C0000390039B0193019B002B05D0164A40F21C
:1021D000591101982BF044FE144F154B1B685B8876
:1021E0009BB299B24FF000024FF000034FF0000491
:1021F000D40344EA5144CB0313F5FA7544F10006C5
:102200004FF47A724FF000032846314634F07CF9DF
:1022100003460C460022194638462CF0EDFD0346D5
:10222000184605B0F0BD00BF2C910500284F0020D6
:10223000F84E002000B585B00E4B18462CF00EFE6F
:102240000390039B002B0DD00B482FF0F3FF0246A9
:10225000039B009340F269130849022030F02CF8E8
:10226000039B02E010F07EFC0346184605B05DF8C3
:1022700004FB00BF284F00202C91050008920500A8
:1022800000B587B001900023ADF80A301C4B1B78D5
:10229000012B31D10DF10A03184600F07BF90590AE
:1022A000059B0493049B002B05D0164A4FF4BD7187
:1022B00004982BF0D5FDBDF80A30002B04D112494B
:1022C00002202FF0BDFF10E0BDF80A3018460CF0D8
:1022D0001DF90590059B0393039B002B05D0094A2C
:1022E00040F2831103982BF0BBFD054B02221A70BC
:1022F000064B18462CF0B2FD00BF07B05DF804FB9A
:10230000034F00202C9105005C920500884F0020AF
:1023100000B589B003468DED020AADF80E301E4BB4
:102320001B78002B33D0BDF80E301A4692001344B0
:102330005B00ADF81E30DDED027A9FED187A67EE96
:10234000877AFDEEE77A17EE903A0693BDF81E20E5
:10235000069B134904202FF098FFBDF81E30069904
:1023600018460BF0F3FF0590059B002B0DD00D4890
:102370002FF060FF0246059B00934FF4D3730A4988
:1023800002202FF099FF059B02E0002300E00023CC
:10239000184609B05DF804FB044F002000007A44A1
:1023A000C49205002C9105000892050000B585B087
:1023B000114B00221A70114B1B78002B13D112F015
:1023C000C7FB0390039B002B0DD00D482FF032FF6D
:1023D0000246039B00934FF4E1730A4902202FF059
:1023E0006BFF039B04E0084B18462CF037FD0346B7
:1023F000184605B05DF804FB044F0020054F00208F
:102400002C91050008920500884F002000B585B08A
:1024100001900A4B01221A7012F046FD0390039BB3
:102420000293029B002B05D0054A4FF4EA710298F3
:102430002BF016FD00BF05B05DF804FB004F002037
:102440002C910500F0B585B02A4B01221A702A4B59
:1024500001221A7012F012FB0390039B002B0DD087
:1024600026482FF0E7FE0246039B009340F2E1135B
:10247000234902202FF020FF039B37E012F014FDC8
:102480000390039B002B0DD01C482FF0D3FE024677
:10249000039B00934FF4F273194902202FF00CFFB5
:1024A000039B23E0174F184B1B689B889BB299B284
:1024B0004FF000024FF000034FF00004D40344EA51
:1024C0005144CB0313F5FA7544F100064FF47A72C8
:1024D0004FF000032846314634F016F803460C4608
:1024E0000022194638462CF087FC0346184605B0F2
:1024F000F0BD00BF004F0020054F00202C910500CB
:1025000008920500484F0020F84E002000B587B023
:1025100003468DF80F30194B00221A70184B1846DD
:102520002CF09CFC0590059B002B0DD015482FF03E
:1025300081FE0246059B009340F2F51312490220EA
:102540002FF0BAFE059B14E09DF80F30002B0FD042
:102550000E4B00221A700E4B1B7883F00103DBB286
:10256000002B03D012F0F4FA034602E0002300E04F
:102570000023184607B05DF804FB00BF004F0020A1
:10258000484F00202C91050008920500054F0020BF
:10259000044F002000B583B00190284B1B681B7AC4
:1025A000032B43D801A252F823F000BFBD2502003F
:1025B000D9250200F525020011260200204B1B68D8
:1025C0001B889AB2019B1A80019B1B881A461D49E1
:1025D00004202FF046FE2BE0194B1B685B889AB253
:1025E000019B1A80019B1B881A46174904202FF073
:1025F00038FE1DE0124B1B689B889AB2019B1A8023
:10260000019B1B881A46114904202FF02AFE0FE077
:102610000B4B1B68DB889AB2019B1A80019B1B88BD
:102620001A460B4904202FF01CFE01E0082300E0AD
:102630000023184603B05DF804FB00BFF84E0020ED
:10264000FC4E0020249305008C930500F0930500B8
:102650005494050000B587B00346ADF80E30314BF9
:102660001B681B7A032B3FD801A252F823F000BF4E
:10267000812602009B260200B5260200CF2602001A
:10268000294B1B68BDF80E201A80BDF80E301A4683
:10269000264904202FF0E5FD28E0234B1B68BDF8F8
:1026A0000E205A80BDF80E301A46214904202FF022
:1026B000D8FD1BE01C4B1B68BDF80E209A80BDF8AE
:1026C0000E301A461B4904202FF0CBFD0EE0164BAE
:1026D0001B68BDF80E20DA80BDF80E301A46164988
:1026E00004202FF0BEFD01E0082317E00E4B1B680D
:1026F000184600F0DDFF0590059B002B0DD00F481C
:102700002FF098FD0246059B009340F24E230C49A2
:1027100002202FF0D1FD059B00E00023184607B0F2
:102720005DF804FBF84E0020FC4E0020B894050034
:102730001C9505007C950500E09505002C91050091
:102740000892050000B585B0284B1B681B7A1A4615
:10275000274904202FF085FD244B1B681B7A032B8F
:102760001AD801A252F823F079270200812702002B
:10277000892702009127020000238DF80F300FE017
:1027800001238DF80F300BE002238DF80F3007E0A6
:1027900003238DF80F3003E002238DF80F3000BFC4
:1027A0009DF80F3018460BF027FF0290029B002B7C
:1027B0000DD010482FF03EFD0246029B009340F2E0
:1027C0006F230D4902202FF077FD029B0AE00B4B8F
:1027D00001221A700A4B00224FF0617118462CF04A
:1027E0000BFB0346184605B05DF804FBF84E0020CD
:1027F000449605002C91050008920500034F002027
:10280000884F002000B585B0274B1B78022B41D1A3
:10281000FFF7CCFD0390039B002B0DD023482FF036
:1028200009FD0246039B009340F2812320490220C8
:102830002FF042FD039B33E00DF10A0318460BF025
:10284000F3FD0390039B002B0DD018482FF0F2FCF2
:102850000246039B00934FF42173154902202FF089
:102860002BFD039B1CE0BDF80A301846FFF7F2FE73
:102870000390039B002B0DD00C482FF0DBFC02468D
:10288000039B009340F28723094902202FF014FD97
:10289000039B05E0044B00221A700CF055F8034628
:1028A000184605B05DF804FB034F00202C9105008D
:1028B0000892050000B587B00190134B1B685B7A46
:1028C0008DF80C30104B1B689B7A8DF80D300E4B39
:1028D0001B68DB7A8DF80E3003AB194600200AF036
:1028E0002BFA0CF04DFF0590059B0493049B002BE5
:1028F00005D0064A40F29F2104982BF0B1FA00BFA0
:1029000007B05DF804FB00BFF84E00202C910500D5
:10291000F0B585B02B4B1B685B7A8DF80030294BE6
:102920001B689B7A8DF80130264B1B68DB7A8DF88B
:1029300002306B46194600200AF0FEF90CF082FFC7
:102940000390039B0293029B002B05D01E4A40F28A
:10295000AF2102982BF084FA0CF012FF0390039B36
:102960000193019B002B05D0174A40F2B221019838
:102970002BF076FA154F134B1B68DB889BB299B28C
:102980004FF000024FF000034FF00004D40344EA7C
:102990005144CB0313F5FA7544F100064FF47A72F3
:1029A0004FF000032846314633F0AEFD03460C4697
:1029B0000022194638462CF01FFA0346184605B087
:1029C000F0BD00BFF84E00202C910500684F00209C
:1029D00000B585B0124B18462CF040FA0390039BCB
:1029E0000293029B002B05D00E4A40F2BF210298B1
:1029F0002BF036FA00200AF04DF90CF0F9FF0390A5
:102A0000039B0193019B002B05D0064A4FF43171C3
:102A100001982BF025FA0023184605B05DF804FB59
:102A2000684F00202C91050000B585B00190019BF6
:102A30001B889BB2632B32D9019B1B889BB24EF63D
:102A4000602293422BD8019B5B889BB2312B26D905
:102A5000019B5B889BB24EF6602293421FD8019B7C
:102A60009B889BB2632B1AD9019B9B889BB24EF625
:102A70006022934213D8019BDB889BB2C72B0ED9EF
:102A8000019BDB889BB24EF66022934207D8019BE4
:102A90001B7A002B03D0019B1B7A032B0ED90A480B
:102AA00000F04EFD0390039B0293029B002B05D088
:102AB000064A40F2DA2102982BF0D2F90023184698
:102AC00005B05DF804FB00BF249005002C910500C3
:102AD00000B589B00190019B002B01D10E236AE063
:102AE0000020FFF7FFFAFFF7A5FB0120FFF70EFD1F
:102AF000FFF76EFF019B1B889BB2002B12D0304B5F
:102B000093F83630002B0DD0FFF776FA0790079B2D
:102B10000693069B002B05D02A4A40F2F321069823
:102B20002BF09EF9019B5B889BB2002B12D0244BAB
:102B300093F83730002B0DD0FFF730FB0790079B41
:102B40000593059B002B05D01E4A40F2FA210598FB
:102B50002BF086F9019B9B889BB2002B12D0184B5F
:102B600093F83830002B0DD0FFF76CFC0790079BD3
:102B70000493049B002B05D0124A40F201310498C3
:102B80002BF06EF9019BDB889BB2002B12D00C4B13
:102B900093F83A30002B0DD0FFF7BAFE0790079B51
:102BA0000393039B002B05D0064A4FF44271039810
:102BB0002BF056F90023184609B05DF804FB00BF5E
:102BC000B84E00202C91050000B593B003900192FF
:102BD0001A460B468DF80B301346ADF808309DF8B9
:102BE0000B30052B00F2428101A252F823F000BF06
:102BF000092C0200812C0200DB2C0200532D020064
:102C0000A92D0200FF2D0200039B93F836301A46CF
:102C10009F4904202FF025FB039B93F83630002BAF
:102C20000FD0FFF7E9F91190119B1093109B002B27
:102C300000F01E81974A40F2273110982BF010F9CE
:102C400016E1039B93F83830002B14BF01230023B7
:102C5000DBB283F00103DBB203F00103DBB2184601
:102C6000FFF740FA1190119B0F930F9B002B00F080
:102C7000FF80884A4FF44B710F982BF0F1F8F7E082
:102C8000039B93F837301A46834904202FF0E9FA62
:102C9000039B93F83730002B0FD0FFF77FFA11908A
:102CA000119B0E930E9B002B00F0E480794A40F2BA
:102CB00035310E982BF0D4F8DCE0FFF7BBFA119019
:102CC000119B0D930D9B002B00F0D480714A40F2B4
:102CD0003A310D982BF0C4F8CCE0039B93F83830D0
:102CE0001A466E4904202FF0BCFA039B93F8383043
:102CF000002B0FD0FFF7A6FB1190119B0C930C9BA0
:102D0000002B00F0B980634A40F243310C982BF05D
:102D1000A7F8B1E0039B93F83630002B14BF0123D2
:102D20000023DBB283F00103DBB203F00103DBB26B
:102D30001846FFF7EBFB1190119B0B930B9B002B9D
:102D400000F09A80534A4FF452710B982BF088F898
:102D500092E0039B93F839301A46514904202FF032
:102D600080FA039B93F83930002B0ED0FFF7EAFC72
:102D70001190119B0A930A9B002B7FD0454A40F289
:102D800051310A982BF06CF878E0FFF73BFD119079
:102D9000119B0993099B002B70D03E4A40F256319B
:102DA00009982BF05DF869E0039B93F83A301A46D6
:102DB0003C4904202FF055FA039B93F83A30002B3E
:102DC0000ED0FFF7A5FD1190119B0893089B002BD7
:102DD00056D0304A40F25F3108982BF041F84FE06E
:102DE000FFF7F6FD1190119B0793079B002B47D02F
:102DF000284A4FF4597107982BF032F840E0BDF89B
:102E000008301A46284904202FF02BFABDF8083064
:102E10000C2B0CBF01230023DBB20693069B002B77
:102E200005D11C4A40F26B3100202BF019F80198B3
:102E300000F086FB1190119B0593059B002B05D09C
:102E4000144A40F26E3105982BF00AF80198FFF70A
:102E50003FFE1190119B0493049B002B12D00D4A4E
:102E600040F2713104982AF0FBFF0BE000BF0AE04A
:102E700000BF08E000BF06E000BF04E000BF02E0C2
:102E800000BF00E000BF00BF13B05DF804FB00BF4F
:102E9000789605002C910500C8960500149705004A
:102EA00060970500A8970500F097050000B597B05A
:102EB00003468DF80F3000238DF8483000238DF83D
:102EC00049300023109300238DF8443000238DF8FF
:102ED0003F300DAB00221A605A600023ADF830304D
:102EE0000023ADF83230464B464A4749474800F088
:102EF00097FC1590159B002B0DD045482FF09AF9A3
:102F00000246159B009340F28E33424902202FF077
:102F1000D3F9159B6FE09DF80F30002B1DD03B4877
:102F200000F00EFB1590159B1493149B002B05D0FD
:102F3000374A40F2933114982AF092FF314800F05A
:102F4000B7FB1590159B1393139B002B05D0304AAC
:102F500040F2963113982AF083FF2B4B1B681846DA
:102F6000FFF762FD1590159B002B0DD028482FF020
:102F700061F90246159B009340F29A3325490220DD
:102F80002FF09AF9159B36E005AB1C22002118465C
:102F900033F01FFF12AB059310AB06930DF13F0307
:102FA00007930DAB09930CAB0893174B1B680A935F
:102FB000194B0B93194903202FF042F905AB194621
:102FC000174821F0B5FE1590159B002B0DD0104829
:102FD0002FF030F90246159B00934FF46A730D49A8
:102FE00002202FF069F9159B05E0074B1B68184676
:102FF000FFF76EFD0023184617B05DF804FB00BF15
:10300000FC4E002030900500F84E00202490050072
:103010002C91050008920500C92B02003C98050080
:10302000B84E002000B585B0019001990C4821F000
:103030004EFE019B1B88112B0DD100F0B1F80390BF
:10304000039B0293029B002B05D0064A40F2BE313F
:1030500002982AF005FF00BF05B05DF804FB00BF31
:10306000B84E00202C91050000B589B001900023D6
:1030700007935F238DF8083018230393019B049373
:10308000064B0593064B069302AB184611F006FC5F
:103090000790079B184609B05DF804FB909805005F
:1030A000011E020000B589B001905C238DF8083044
:1030B00017230393019B0493074B0593074B069338
:1030C00001238DF81C3002AB18460FF0FDFB0346C0
:1030D000184609B05DF804FBA0980500991D020090
:1030E00000B58BB00390039B0593114B06935A23B5
:1030F0008DF81C300F4B089305AB18460BF028FDDC
:103100000990099B002B0DD00B482FF093F8024635
:10311000099B009340F20A43084902202FF0CCF8A3
:10312000099B00E0002318460BB05DF804FB00BFCC
:10313000B0980500051F02002C91050008920500BB
:1031400000B58BB00390039B0593114B0693382376
:103150008DF81C300F4B089305AB18460CF076FA2F
:103160000990099B002B0DD00B482FF063F8024605
:10317000099B009340F22343084902202FF09CF85A
:10318000099B00E0002318460BB05DF804FB00BF6C
:10319000C09805004D1F02002C9105000892050003
:1031A00000B587B00020FEF79DFF0590059B0493B6
:1031B000049B002B05D0224A40F2344104982AF0A7
:1031C0004FFEFFF737F80590059B0393039B002BF9
:1031D00005D01B4A40F2374103982AF041FE0120F6
:1031E000FFF794F90590059B0293029B002B05D0F5
:1031F000134A40F23A4102982AF032FEFFF7E8FB08
:103200000590059B0193019B002B05D00C4A40F2D1
:103210003D4101982AF024FEFFF7F4FA0590059B42
:103220000093009B002B05D0054A4FF4886100985D
:103230002AF016FE0023184607B05DF804FB00BF15
:103240002C91050000B58DB003900291039B002BDB
:1032500001D10E23BAE0029B002B01D10E23B5E071
:103260005C4903202EF0ECFF039B5B4A5A60039BF2
:103270005A4A1A60029B1B681846FFF713FF0B900F
:103280000B9B0A930A9B002B05D0554A40F25441F0
:103290000A982AF0E5FD029B1B681846FFF7E4FE3A
:1032A0000B900B9B0993099B002B05D04C4A40F2D5
:1032B000574109982AF0D4FD029B1B681846FFF776
:1032C0000FFF0B900B9B0893089B002B05D0444AE3
:1032D00040F25A4108982AF0C3FD029B1B68184629
:1032E000FFF72EFF0B900B9B0793079B002B05D03E
:1032F0003B4A40F25D4107982AF0B2FD394A01216C
:1033000039482BF049FD0B900B9B0693069B002B35
:1033100005D0334A40F2614106982AF0A1FD334AB4
:10332000012133482BF038FD0B900B9B0593059B37
:10333000002B05D02A4A40F2644105982AF090FDFE
:103340002C4A01212C482BF027FD0B900B9B002BC6
:103350000DD023482EF06EFF02460B9B009340F2E7
:103360006743264902202EF0A7FF0B9B2EE0244A3C
:10337000012124482BF010FD0B900B9B002B0DD04E
:1033800017482EF057FF02460B9B009340F26A430A
:103390001A4902202EF090FF0B9B17E01A4A0121D8
:1033A0001A482BF0F9FC0B900B9B002B0DD00C480E
:1033B0002EF040FF02460B9B009340F26D430F49F5
:1033C00002202EF079FF0B9B00E0002318460DB081
:1033D0005DF804FB6C98050025300200AD2E02005C
:1033E0002C910500C11F0200389005006D210200DC
:1033F0003C9005000D240200409005000892050055
:10340000B528020044900500812202004890050082
:1034100000B589B00390039B1B78002B02D0012BD1
:103420001AD05BE0039B5B68002B06D13A4B01226C
:103430001A703A4B01221A7065E0394901202EF0CA
:10344000FFFE00230793079B002B5CD1354A7221B6
:1034500000202AF005FD56E0039B5B68002B2ED16F
:10346000039B9B8941F20102934210D1039B1B7C79
:103470001A46039B9B891946039BDB8900930B46E5
:10348000294903202EF018FF284B01221A70039BB4
:103490009B8941F20302934237D1039B1B7C1A465E
:1034A000039B9B891946039BDB8900930B462049AC
:1034B00003202EF001FF1F4B01221A7025E01E4948
:1034C00001202EF0BDFE00230693069B002B1CD18D
:1034D000144A8C2100202AF0C3FC16E0039B1B78C1
:1034E0001A46039B5B68154903202EF0CEFE039B12
:1034F0005B680593059B002B09D00A4A912105982A
:103500002AF0AEFC03E000BF02E000BF00E000BF15
:1035100000BF09B05DF804FBDD4F0020DF4F002045
:10352000D09805000099050050990500DC4F002057
:10353000A0990500DE4F0020F4990500249A0500AB
:1035400000B58BB003901F4903202EF079FE039B3A
:10355000002B01D10E2330E00C2203991A4833F0DE
:103560000FFC1A4B42221A60184B04930423ADF847
:10357000143041F20103ADF8183041F20203ADF806
:103580001A3004AB07930123ADF8203006AB19467F
:103590000F482DF012FE0990099B002B0CD00D480E
:1035A0002EF048FE0246099B0093AE230A490220F2
:1035B0002EF082FE099B00E0002318460BB05DF858
:1035C00004FB00BF549A0500C44F0020C04F0020E8
:1035D000A84F002000990500849A050000B58BB023
:1035E000039005AB08220021184633F0F2FB2A496C
:1035F00003202EF025FE05AB284A41F2020141F2DC
:1036000001002DF049FE0990099B002B0CD02448A5
:103610002EF010FE0246099B0093BF232149022091
:103620002EF04AFE099B33E007AB19461B482DF0EC
:1036300039FD0990099B002B0CD019482EF0FAFD9A
:103640000246099B0093C223164902202EF034FE45
:10365000099B1DE0089B10221946134833F090FB8C
:103660000E482DF05BFD0990099B002B0CD00C48F7
:103670002EF0E0FD0246099B0093C7230949022072
:103680002EF01AFE099B03E0039B084A1A600023F0
:1036900018460BB05DF804FBD89A0500A84F00202F
:1036A00000990500849A0500C04F0020C44F0020F7
:1036B00000B58BB003901F4904202EF0C1FD039B81
:1036C000002B01D10E2330E0082203991A4833F071
:1036D00057FB1A4B42221A60184B04930323ADF890
:1036E000143041F20303ADF8183041F20403ADF891
:1036F0001A3004AB07930123ADF8203006AB19460E
:103700000F482DF05AFD0990099B002B0CD00D4855
:103710002EF090FD0246099B0093E6230A49022001
:103720002EF0CAFD099B00E0002318460BB05DF89F
:1037300004FB00BF089B0500D44F0020D04F0020A1
:10374000B44F002000990500849A050000B58BB0A5
:10375000039005AB08220021184633F03AFB2A49B2
:1037600004202EF06DFD05AB284A41F2040141F220
:1037700003002DF091FD0990099B002B0CD02448EB
:103780002EF058FD0246099B0093F72321490220A1
:103790002EF092FD099B33E007AB19461B482DF034
:1037A00081FC0990099B002B0CD019482EF042FD9A
:1037B0000246099B0093FA23164902202EF07CFD55
:1037C000099B1DE0089B0C221946134833F0D8FAD8
:1037D0000E482DF0A3FC0990099B002B0CD00C483F
:1037E0002EF028FD0246099B0093FF230949022081
:1037F0002EF062FD099B03E0039B084A1A60002338
:1038000018460BB05DF804FB389B0500B44F002050
:1038100000990500849A0500D04F0020D44F002065
:1038200000B593B005900491039202938D49032053
:103830002EF006FD059B002B01D10E230DE1039B0D
:10384000002B01D10E2308E187482DF095FB119044
:10385000119B002B0DD085482EF0ECFC0246119BED
:1038600000934FF48A73824902202EF025FD119BAC
:10387000F3E02DF0A1FB1190119B002B0FD07B48A2
:103880002EF0D8FC0246119B009340F217137849A2
:1038900002202EF011FD119BDFE02AF063FC754B36
:1038A0001B7883F00103DBB2002BF6D1724B1B783F
:1038B00083F00103DBB2002BEFD10498FFF78EFEFB
:1038C0001190119B0A2B45D16C4903202EF0B8FCB6
:1038D0000C2205996A4833F053FA6A4B42221A6067
:1038E000684B0C930423ADF8343041F20103ADF87A
:1038F000383041F20203ADF83A300CAB0F9301239C
:10390000ADF84030604B00221A700EAB19465F488C
:103910002DF044FC1190119B002B0DD053482EF03C
:1039200089FC0246119B009340F235135049022056
:103930002EF0C2FC119B90E0049B514A1A6001E0FA
:103940002AF010FC504B1B7883F00103DBB2002BF4
:10395000F6D110E0119B002B0DD044482EF06AFCEC
:103960000246119B00934FF4A073414902202EF0B0
:10397000A3FC119B71E00298FFF7E8FE1190119BE8
:103980000A2B58D1039B1B889BB21946039B5B886B
:103990009BB21846039B9B889BB21A46039BDB880D
:1039A0009BB20193009203460A46394903202EF048
:1039B0009CFC08220399374833F0E2F9364B422247
:1039C0001A60354B07930323ADF8203041F203030F
:1039D000ADF8243041F20403ADF8263007AB0A936A
:1039E0000123ADF82C302D4B00221A7009AB19467B
:1039F0002B482DF0D3FB1190119B002B0DD01B48B1
:103A00002EF018FC0246119B00934FF4AD73184939
:103A100002202EF051FC119B1FE0029B1D4A1A60F0
:103A200001E02AF09FFB1D4B1B7883F00103DBB202
:103A3000002BF6D110E0119B002B0DD00B482EF07F
:103A4000F9FB0246119B009340F2651308490220DE
:103A50002EF032FC119B00E00023184613B05DF8F5
:103A600004FB00BF649B05001134020000990500AF
:103A7000849A0500DD4F0020DF4F0020909B050059
:103A8000C44F0020C04F0020DC4F0020A84F002072
:103A9000C49B0500D44F0020D04F0020DE4F0020F3
:103AA000B44F002000B589B00190019B002B01D1DB
:103AB0000E2327E0019B1B889BB2ADF80C30019BC5
:103AC0005B889BB2ADF80E30019B9B889BB2ADF832
:103AD0001030019BDB889BB2ADF81230019B1B7A42
:103AE0008DF8143003AB18460DF0FCFF0790079BD0
:103AF0000693069B002B04D0044A4D2106982AF019
:103B0000AFF90023184609B05DF804FB2C9C0500B2
:103B100000B59DB0039001921A460B468DF80B300C
:103B20001346ADF808309DF80B300C2B00F24482A0
:103B300001A252F823F000BF4D3F02006D3B02008E
:103B4000CB3B0200293C0200833C0200E13C020026
:103B50003B3D0200953D0200EF3D02006D3E02003C
:103B60001D3F02002F3F0200C73E0200039B93F857
:103B70006E301A46B44903202EF073FB039B93F872
:103B80006E30002B10D04FF480700DF0FBFD1B90B9
:103B90001B9B1A931A9B002B00F01082AB4A6121E9
:103BA0001A982AF05DF909E24FF480700DF012FFC7
:103BB0001B901B9B1993199B002B00F0FF81A34ABC
:103BC000662119982AF04CF9F8E1039B93F86F30BD
:103BD0001A469F4903202EF044FB039B93F86F3055
:103BE000002B10D04FF400700DF0CCFD1B901B9BF0
:103BF0001893189B002B00F0E381944A6F211898CA
:103C00002AF02EF9DCE14FF400700DF0E3FE1B907A
:103C10001B9B1793179B002B00F0D2818B4A7421BA
:103C200017982AF01DF9CBE1039B93F870301A46E0
:103C3000884903202EF015FB039B93F87030002B6E
:103C40000FD008200DF09EFD1B901B9B1693169B1A
:103C5000002B00F0B7817D4A7D2116982AF000F9EB
:103C6000B0E108200DF0B6FE1B901B9B1593159B31
:103C7000002B00F0A781754A822115982AF0F0F8F0
:103C8000A0E1039B93F871301A46734903202EF08C
:103C9000E8FA039B93F87130002B10D04FF480604A
:103CA0000DF070FD1B901B9B1493149B002B00F0D8
:103CB0008B81664A8B2114982AF0D2F884E14FF464
:103CC00080600DF087FE1B901B9B1393139B002BB2
:103CD00000F07A815D4A902113982AF0C1F873E1CF
:103CE000039B93F872301A465C4903202EF0B9FA10
:103CF000039B93F87230002B0FD007200DF042FD8C
:103D00001B901B9B1293129B002B00F05F814F4A6C
:103D1000992112982AF0A4F858E107200DF05AFED4
:103D20001B901B9B1193119B002B00F04F81474A66
:103D30009E2111982AF094F848E1039B93F8733080
:103D40001A46474903202EF08CFA039B93F87330F0
:103D5000002B0FD010200DF015FD1B901B9B109316
:103D6000109B002B00F03481384AA72110982AF0CC
:103D700077F82DE110200DF02DFE1B901B9B0F936B
:103D80000F9B002B00F02481304AAC210F982AF0C1
:103D900067F81DE1039B93F874301A4631490320FC
:103DA0002EF05FFA039B93F87430002B0FD0202085
:103DB0000DF0E8FC1B901B9B0E930E9B002B00F05C
:103DC0000981224AB5210E982AF04AF802E1202002
:103DD0000DF000FE1B901B9B0D930D9B002B00F024
:103DE000F9801A4ABA210D982AF03AF8F2E0039BBA
:103DF00093F875301A461C4903202EF032FA039BC3
:103E000093F87530002B0FD040200DF0BBFC1B90B9
:103E10001B9B0C930C9B002B00F0DE800B4AC321F4
:103E20000C982AF01DF8D7E040200DF0D3FD1B9030
:103E30001B9B0B930B9B002B00F0CE80034AC821E9
:103E40000B982AF00DF8C7E0749C05002C9C050027
:103E5000C09C0500149D0500609D0500B09D0500F7
:103E6000FC9D0500489E0500989E0500039B93F865
:103E700076301A465E4903202EF0F3F9039B93F83F
:103E80007630002B0FD080200DF07CFC1B901B9B0C
:103E90000A930A9B002B00F0A180564AD1210A9870
:103EA00029F0DEFF9AE080200DF094FD1B901B9B13
:103EB0000993099B002B00F091804E4AD621099866
:103EC00029F0CEFF8AE0039B93F878301A464A49DE
:103ED00003202EF0C6F9039B93F87830002B0ED008
:103EE0000EF004FB03461B931B9B0893089B002BBF
:103EF00076D0404ADF21089829F0B2FF70E0012017
:103F00000DF030FE1B901B9B0793079B002B67D087
:103F1000384AE421079829F0A3FF61E0039B93F856
:103F200077301A46354903202EF09BF95BE0BDF847
:103F30000830039A0199184603F088FEBDF808304E
:103F40001A460021019832F044FF4CE0BDF80830D9
:103F50001A462B4903202EF084F9BDF80830092BAE
:103F60000CBF01230023DBB20693069B002B04D178
:103F7000204AFF21002029F073FF019800F00CFF78
:103F80001B901B9B0593059B002B05D0194A4FF4F2
:103F90008171059829F064FF0198FFF783FD1B905C
:103FA0001B9B0493049B002B1CD0124A40F205116A
:103FB000049829F055FF15E000BF14E000BF12E09F
:103FC00000BF10E000BF0EE000BF0CE000BF0AE041
:103FD00000BF08E000BF06E000BF04E000BF02E051
:103FE00000BF00E000BF00BF1DB05DF804FB00BFD4
:103FF000E89E05002C9C0500389F0500889F050061
:10400000D89F050000B589B003468DF80F303249BE
:10401000324800F079FF0790079B002B0DD0304805
:104020002EF008F90246079B00934FF48E732D493A
:1040300002202EF041F9079B49E09DF80F30002B3C
:104040000ED0264800F0A8FE0790079B0693069B1B
:10405000002B05D0224A40F22111069829F000FFDA
:104060001D4B1B681846FFF71DFD0790079B002B93
:104070000DD01B482EF0DEF80246079B009340F25D
:104080002513184902202EF017F9079B1FE004ABF7
:1040900008220021184632F09CFE0F4B1B68049347
:1040A000114B0593114903202EF0CAF804AB1946B1
:1040B0000F4823F007FF0790079B002B06D0079AB5
:1040C0000C4901202EF0CDF8079B00E00023184694
:1040D00009B05DF804FB00BF68500020209C05007B
:1040E0002C9C050028A00500113B02007CA00500C7
:1040F000E04F0020BCA0050000B585B001900199FB
:104100000D4823F0AFFE019B1B88112B0FD140F609
:10411000FF700DF05FFC0390039B0293029B002B4A
:1041200005D0064A40F24711029829F099FE00BFD7
:1041300005B05DF804FB00BFE04F00202C9C05009B
:104140002DE9F047BAB002AFF860B9607A60FB6859
:104150001B78082B00F2358501A252F823F000BF2E
:10416000854102003946020091460200E146020004
:1041700067490200B7490200AD4A0200034B020042
:10418000714B02007B68242B0CBF01230023DBB2A0
:10419000C7F8D830D7F8D830002B05D11F4A40F2E5
:1041A0005711002029F05CFEBB68C7F8D43000230B
:1041B00087F8DD3064E097F8DD309B00D7F8D42035
:1041C00013441B681B14A7F8D23097F8DD30144A4B
:1041D00032F91330B7F9D2209A4225DB97F8DD1077
:1041E000B7F9D20097F8DD300D4A32F91330009359
:1041F00003460A460B4902202EF05EF897F8DD30A0
:10420000074A32F91330194697F8DD309B00D7F88A
:10421000D42013440A041A602DE000BF2C9C050032
:1042200040A50500E8A0050097F8DD30C54A32F941
:104230001330B7F9D2209A421DDA97F8DD10B7F99A
:10424000D20097F8DD30BF4A32F9133000930346AD
:104250000A46BD4902202EF02FF897F8DD30B94A02
:1042600032F91330194697F8DD309B00D7F8D42087
:1042700013440A041A6097F8DD30013387F8DD3003
:1042800097F8DD30082B96D9D7F8D4301B689B11EE
:104290001BB2A7F86430D7F8D43004331B689B11E5
:1042A0001BB2A7F86630D7F8D43008331B689B11CF
:1042B0001BB2A7F86830D7F8D4300C331B68DB1278
:1042C0001BB2A7F86A30D7F8D43010331B68DB1262
:1042D0001BB2A7F86C30D7F8D43014331B68DB124C
:1042E0001BB2A7F86E30D7F8D43018331B681B13F5
:1042F0009BB25B429BB21BB2A7F87230D7F8D430A6
:104300001C331B681B131BB2A7F87030D7F8D430CE
:1043100020331B681B131BB2A7F874308B49042091
:104320002DF08EFFD7F8D4301B6818462FF0FEFE14
:1043300003460C46C7E932344FF00002844BD7E9FC
:10434000320130F083FA03460C46C7E9323407F1F4
:104350005C00D7E932237F4932F046FB07F15C036A
:1043600018462DF067FF03461A467B4904202DF0BE
:1043700078FFD7F8D43004331B6818462FF0D6FEE8
:1043800003460C46C7E932344FF00002704BD7E9C0
:10439000320130F05BFA03460C46C7E9323407F1CC
:1043A0005C00D7E932236B4932F01EFB07F15C0356
:1043B00018462DF03FFF03461A46684904202DF0A9
:1043C00050FFD7F8D43008331B6818462FF0AEFEE4
:1043D00003460C46C7E932344FF000025C4BD7E984
:1043E000320130F033FA03460C46C7E9323407F1A4
:1043F0005C00D7E93223574932F0F6FA07F15C0343
:1044000018462DF017FF03461A46554904202DF093
:1044100028FFD7F8D4300C331B6818462FF086FEDF
:1044200003460C46C7E932344FF00002484BD7E947
:10443000320130F00BFA03460C46C7E9323407F17B
:104440005C00D7E93223434932F0CEFA07F15C032E
:1044500018462DF0EFFE03461A46424904202DF07F
:1044600000FFD7F8D43010331B6818462FF05EFEDB
:1044700003460C46C7E932344FF00002344BD7E90B
:10448000320130F0E3F903460C46C7E9323407F154
:104490005C00D7E932232F4932F0A6FA07F15C031A
:1044A00018462DF0C7FE03461A462F4904202DF06A
:1044B000D8FED7F8D43014331B6818462FF036FED8
:1044C00003460C46C7E932344FF00002204BD7E9CF
:1044D000320130F0BBF903460C46C7E9323407F12C
:1044E0005C00D7E932231B4932F07EFA07F15C0306
:1044F00018462DF09FFE03461A461C4904202DF055
:10450000B0FED7F8D4301C331B6818462FF00EFECF
:1045100003460C46C7E932344FF000020C4BD7E992
:10452000320130F093F903460C46C7E9323407F103
:104530005C00D7E93223074932F056FA07F15C03F1
:10454000184615E054A5050034A1050080A105001A
:104550000000F040B0A10500B8A10500E8A10500E9
:1045600018A2050048A205007CA20500B0A2050023
:104570002DF060FE03461A46AD4904202DF071FE71
:10458000D7F8D43018331B6818462FF0CFFD0346F8
:104590000C461A46C7F8C82084F00043C7F8CC3050
:1045A0004FF00002A34BD7E9320130F04FF9034638
:1045B0000C46C7E9323407F15C00D7E932239E4943
:1045C00032F012FA07F15C0318462DF033FE034671
:1045D0001A469A4904202DF044FED7F8D4302033EF
:1045E0001B6818462FF0A2FD03460C46C7E932347B
:1045F0004FF000028F4BD7E9320130F027F9034624
:104600000C46C7E9323407F15C00D7E932238A4906
:1046100032F0EAF907F15C0318462DF00BFE034671
:104620001A46874904202DF01CFE07F16403194641
:10463000844823F045FEC9E27B68102B0CBF0123A0
:104640000023DBB2C7F8C430D7F8C430002B05D143
:104650007D4A4FF4EA71002029F002FCBB68C7F8DC
:10466000C030D7F8C0301B68FB64D7F8C0305B6837
:104670003B65D7F8C0309B687B65D7F8C030DB68F6
:10468000BB6507F14C0319466E4823F093FD9DE28C
:104690007B680C2B0CBF01230023DBB2C7F8BC30B6
:1046A000D7F8BC30002B05D1674A4FF4FB710020CE
:1046B00029F0D6FBBB68C7F8B830D7F8B8301B680C
:1046C0003B64D7F8B8305B687B64D7F8B8309B6838
:1046D000BB6407F1400319465A4823F034FE75E2E3
:1046E0006B469A467B68242B0CBF01230023DBB268
:1046F000C7F8B430D7F8B430002B05D1524A40F295
:104700000721002029F0ACFBBB68C7F8B030D7F810
:10471000B0301B681B141BB2BB85D7F8B030043314
:104720001B681B141BB2FB85D7F8B03008331B681D
:104730001B141BB23B86D7F8B0300C331B681B141C
:104740001BB27B86D7F8B03010331B681B141BB22A
:10475000BB86D7F8B03014331B681B141BB2FB8622
:10476000D7F8B03018331B681B141BB23B87D7F83F
:10477000B0301C331B681B141BB27B87D7F8B030DA
:1047800020331B681B141BB2BB87304B1B78013BCB
:10479000C7F8AC302D4B1B78D9B24FF000020B4656
:1047A000144613EB030844EB040943464C465B18DC
:1047B00042EB04044FF000014FF00002220142EAF4
:1047C000137219010B461446204B1B781A461346E8
:1047D0005B0013445B001D4B1B78D9B24FF0000205
:1047E0000B461446DD1844EB04062B4634465B1892
:1047F00042EB04044FF000014FF00002220142EAB4
:10480000137219010B461446104B1B781A461346B7
:104810005B0013445B000733DB08DB00ADEB030DEB
:1048200002AB0033C7F8A830002387F8DE3035E04C
:10483000E4A205000000F040B0A1050014A30500AB
:1048400044A30500E04F00202C9C050066A5050050
:1048500097F8DE309B00D7F8B02013441B68184649
:104860002FF064FC4FF00002B54B2FF0EFFF034632
:104870000C46C7E9283497F8DE2013465B00134442
:104880005B00D7F8A820D018D7E92823AD4932F02B
:10489000ABF897F8DE30013387F8DE30AA4B1B788F
:1048A00097F8DE209A42D3D3A84904202DF0C8FC03
:1048B000D7F8A83018462DF0BDFC0446D7F8A8302C
:1048C000063318462DF0B6FC0546D7F8A8300C3351
:1048D00018462DF0AFFC034600932B4622469C4918
:1048E00004202DF0E9FCD7F8A830123318462DF03B
:1048F000A1FC0446D7F8A830183318462DF09AFCCE
:104900000546D7F8A8301E3318462DF093FC034611
:1049100000932B4622468E4904202DF0CDFCD7F87B
:10492000A830243318462DF085FC0446D7F8A8306B
:104930002A3318462DF07EFC0546D7F8A8303033D0
:1049400018462DF077FC034600932B4622468049FB
:1049500004202DF0B1FC07F12C0319467D4823F00B
:1049600035FDD54632E17B68042B0CBF01230023C3
:10497000DBB2C7F89C30D7F89C30002B05D1764AC3
:104980004FF40B71002029F06BFABB681B68BB6207
:10499000BB6A002B02DA03F57F43FF331B141A4670
:1049A0006E4904202DF05DFC07F128031946694883
:1049B00023F04FFD0AE16B461D467B680C2B0CBFB4
:1049C00001230023DBB2C7F89830D7F89830002BCA
:1049D00005D1614A40F23721002029F041FABB6835
:1049E000C7F89430D7F894301B68FB61D7F894303F
:1049F0005B683B62D7F894309B687B62584B1B78AE
:104A0000013BC7F89030564B1B78D9B24FF00002EB
:104A10004FF000034FF00004940144EA91648B01CD
:104A20004F4B1B78D9B24FF000024FF000034FF00C
:104A30000004940144EA91648B01494B1B78DB002C
:104A40000733DB08DB00ADEB030D02AB0033C7F827
:104A50008C30002387F8DF301AE097F8DF30DB0076
:104A6000D7F88C20D41897F8DF309B00D7F8942023
:104A700013441B6818462FF095FC02460B46394933
:104A8000204631F0B1FF97F8DF30013387F8DF308F
:104A9000334B1B7897F8DF209A42DED307F11C03D3
:104AA00019462C4823F019FDAD468FE07B68022B98
:104AB0000CBF01230023DBB2C7F88830D7F8883059
:104AC000002B05D1244A4FF41571002029F0C8F9B4
