:020000021000EC
:10F000000000012033F10100D9F00100DBF0010024
:10F01000DDF00100DFF00100E1F001000000000080
:10F02000000000000000000000000000E3F001000C
:10F03000E5F0010000000000E7F00100E9F0010048
:10F0400035B30400EDF00100EFF0010095A60400D7
:10F05000F3F001009D2205009D95040015B6040003
:10F06000FBF00100FDF00100FFF0010001F10100E3
:10F0700003F10100F9C4040007F1010009F10100E6
:10F080000BF1010015DB04000FF1010011F101008B
:10F0900055DB040015F10100250E050019F10100F2
:10F0A0001BF101001DF10100A1C6040005200500AF
:10F0B000ADAF0400B1C0040000000000000000007B
:10F0C00027F1010029F101002BF101002DF10100D0
:08F0D0002FF1010031F10100F4
:10F0D800FEE7FEE7FEE7FEE7FEE7FEE7FEE7FEE700
:10F0E800FEE7FEE7FEE7FEE7FEE7FEE7FEE7FEE7F0
:10F0F800FEE7FEE7FEE7FEE7FEE7FEE7FEE7FEE7E0
:10F10800FEE7FEE7FEE7FEE7FEE7FEE7FEE7FEE7CF
:10F11800FEE7FEE7FEE7FEE7FEE7FEE7FEE7FEE7BF
:10F12800FEE7FEE7FEE7FEE7FEE70348854600F058
:10F13800C5F800F003B87047000001203749384887
:10F148000A1A02D0072291438D46364936480A1AD0
:10F1580006D00722914381F30988022282F314889A
:10F1680032483349334A00F048F833483349344A7F
:10F1780000F043F833483449344A00F03EF8344844
:10F188003449354A00F039F834483549354A00F0F1
:10F1980034F835483549364A00F02FF835483649AD
:10F1A800364A00F02AF836483649374A00F025F83A
:10F1B80036483749002200F02BF8364836490022F5
:10F1C80000F026F835483649091A082903DB0022D9
:10F1D8000260043001601F481F49884205D0026858
:10F1E800043003B4904703BCF7E700208646EC469A
:10F1F800002000212B4A9047FEE7884207D0521A88
:10F2080005D0037801300B700131013AF9D170470C
:10F21800884202D002700130FAE7704700000120EE
:10F2280000FC00200000012000000120F03E060044
:10F238005845002078460020B0F20100B0F20100E5
:10F24800186C0500F03E060058450020584500207F
:10F25800186C0500186C0500186C0500186C050082
:10F26800186C0500186C0500186C0500186C050072
:10F27800F03E060010400600784600207846002040
:10F288001040060078460020884600208846002066
:10F29800909700209097002098970020989700203A
:08F2A800989B002089FD010084
:10F2B000024B034A1A6000BF704700BF5845002048
:10F2C0000090D00308B500F00DF90346002B06D0DE
:10F2D000744B1B681B0A744A03F01F03136000F091
:10F2E0002DF90346002B02D0704B714A1A6000F0D2
:10F2F00041F90346002B06D06E4B1B685B0B6E4A30
:10F3000003F00703136000F061F90346002B05D0FA
:10F310006A4BDB68694A23F08073D36000F072F9AE
:10F320000346002B0ED04FF080430022C3F80C217F
:10F330004FF080430022C3F810214FF08043002299
:10F34000C3F8382500F08AF90346002B02D05C4B45
:10F3500003221A6000F09EF90346002B0BD0594B94
:10F3600005221A60584B01221A60584B00221A607D
:10F37000574B3F221A6000F0A9F90346002B76D0C4
:10F380004FF08053534AD3F80434C2F820354FF07D
:10F390008053504AD3F80834C2F824354FF08053D4
:10F3A0004C4AD3F80C34C2F828354FF08053494A00
:10F3B000D3F81034C2F82C354FF08053454AD3F8B7
:10F3C0001434C2F830354FF08053424AD3F8183421
:10F3D000C2F834354FF080533E4AD3F81C34C2F89B
:10F3E00040354FF080533B4AD3F82034C2F84435BF
:10F3F0004FF08053374AD3F82434C2F848354FF0E1
:10F400008053344AD3F82834C2F84C354FF0805337
:10F41000304AD3F82C34C2F850354FF080532D4A7F
:10F42000D3F83034C2F854354FF08053294AD3F81A
:10F430003434C2F860354FF08053264AD3F838345C
:10F44000C2F864354FF08053224AD3F83C34C2F8F6
:10F4500068354FF080531F4AD3F84034C2F86C35FA
:10F460004FF080531B4AD3F84434C2F8703500F093
:10F4700049F90346002B05D0174B1B68174A03F0C8
:10F480004F031360164BD3F88830154A43F47003CA
:10F49000C2F88830BFF34F8FBFF36F8FFFF708FFBD
:10F4A00000BF08BD240300104035014074C0074070
:10F4B0000DF0ADBA440200103C050040F0ED00E054
:10F4C000A0050040105600408856004018560040E5
:10F4D0001456004000C0004058020010E40E0040E6
:10F4E00000ED00E0124B1B68DBB2062B1DD1114B67
:10F4F0001B6803F00F03002B17D10F4B1B6803F0A1
:10F50000F003302B01D1012310E00B4B1B6803F0FB
:10F51000F003402B01D1012308E0074B1B6803F0E7
:10F52000F003502B01D1012300E00023184670475F
:10F53000E00F00F0E40F00F0E80F00F00A4B1B684A
:10F54000DBB2062B0DD1094B1B6803F00F03002B18
:10F5500007D1074B1B6803F0F003302B01D10123C7
:10F5600000E0002318467047E00F00F0E40F00F0C1
:10F57000E80F00F0124B1B68DBB2062B1DD1114BBC
:10F580001B6803F00F03002B17D10F4B1B6803F010
:10F59000F003302B01D1012310E00B4B1B6803F06B
:10F5A000F003402B01D1012308E0074B1B6803F057
:10F5B000F003502B01D1012300E0002318467047CF
:10F5C000E00F00F0E40F00F0E80F00F00A4B1B68BA
:10F5D000DBB2062B0DD1094B1B6803F00F03002B88
:10F5E00007D1074B1B6803F0F003302B01D1012337
:10F5F00000E0002318467047E00F00F0E40F00F031
:10F60000E80F00F0124B1B68DBB2062B1DD1114B2B
:10F610001B6803F00F03002B17D10F4B1B6803F07F
:10F62000F003302B01D1012310E00B4B1B6803F0DA
:10F63000F003402B01D1012308E0074B1B6803F0C6
:10F64000F003502B01D1012300E00023184670473E
:10F65000E00F00F0E40F00F0E80F00F00A4B1B6829
:10F66000DBB2062B0DD1094B1B6803F00F03002BF7
:10F6700007D1074B1B6803F0F003302B01D10123A6
:10F6800000E0002318467047E00F00F0E40F00F0A0
:10F69000E80F00F00A4B1B68DBB2062B0DD1094BBB
:10F6A0001B6803F00F03002B07D1074B1B6803F007
:10F6B000F003302B01D1012300E0002318467047EE
:10F6C000E00F00F0E40F00F0E80F00F00A4B1B68B9
:10F6D000DBB2062B0DD1094B1B6803F00F03002B87
:10F6E00007D1074B1B6803F0F003502B01D1012316
:10F6F00000E0002318467047E00F00F0E40F00F030
:10F70000E80F00F0124B1B68DBB2062B1DD1114B2A
:10F710001B6803F00F03002B17D10F4B1B6803F07E
:10F72000F003302B01D1012310E00B4B1B6803F0D9
:10F73000F003402B01D1012308E0074B1B6803F0C5
:10F74000F003502B01D1012300E00023184670473D
:10F75000E00F00F0E40F00F0E80F00F00048704701
:10F760008897002082B003468DF807309DF8073057
:10F7700003F01F0206499DF907305B09012000FADA
:10F7800002F2603341F8232000BF02B0704700BF8F
:10F7900000E100E0BFF34F8F054BDB6803F4E0624C
:10F7A0000349044B1343CB60BFF34F8F00BFFDE70A
:10F7B00000ED00E00400FA0532DF704700BF184694
:10F7C0003EDF704700BF184682B001904FF0A04363
:10F7D000184602B0704700B585B001900846114642
:10F7E0001A4603468DF803300B468DF80230134657
:10F7F0008DF8013001AB1846FFF7E6FF03909DF846
:10F8000003209DF802305B001A439DF801309B00F5
:10F810001A439DF818301B0242EA03019DF81C3080
:10F820001B04019A1943039B02F5E07243F822106E
:10F8300000BF05B05DF804FB00B585B003900B4632
:10F840008DF80B3013468DF80A309DF80B209DF88B
:10F850000A300193002300931346002200210398ED
:10F86000FFF7B9FF00BF05B05DF804FB84B001905D
:10F87000244B0393019B002B40D0234B1A68039920
:10F88000019B00BF00BF00BF00BF00BF00BF00BFA3
:10F8900000BF8A422FD000BF00BF00BF00BF00BF23
:10F8A00000BF00BF00BF00BF00BF00BF00BF00BF60
:10F8B00000BF00BF00BF00BF00BF00BF00BF00BF50
:10F8C00000BF00BF00BF00BF00BF00BF00BF00BF40
:10F8D00000BF00BF00BF00BF00BF00BF00BF00BF30
:10F8E00000BF00BF00BF00BF00BF00BF00BF00BF20
:10F8F00000BF00BF00BF013BC3D1019300BF04B0F4
:10F90000704700BF0024F4005845002000B583B0C4
:10F910000190019B4FF47A7202FB03F31846FFF744
:10F92000A5FF00BF03B05DF804FB000070B58AB00E
:10F93000079006910592059B0993099B5B68184601
:10F9400031F094FB0546099B1B881E46099B9C6869
:10F95000099B9B68184631F06DFF0346184631F04D
:10F9600085FB03460393029401960095069B079A34
:10F970000849012031F0F0FB022005F04FFE052080
:10F98000FFF7C4FF059A069907982DF099F900BF73
:10F990000AB070BD906C050000B587B0F1EE103A6A
:10F9A0000193019B23F09F030293029BE1EE103A27
:10F9B000F1EE103A03932620FFF7D4FEFFF700FF85
:10F9C0000590059B0493049B002B04D0044AB921A5
:10F9D00004982DF05DF900BF07B05DF804FB00BF8F
:10F9E000246D050000B589B00390039B5B881A461F
:10F9F000039B1B791946039B1B7800930B462049F8
:10FA0000032031F075FB039B002B34D0039B1B7844
:10FA1000012B30D107F0E6FF0790079B0693069B6A
:10FA2000002B04D0174ACB2106982DF031F9022281
:10FA300000210D20FFF700FF1349022031F01CFBCD
:10FA4000FFF7BAFE079007F0ABFD034683F0010312
:10FA5000DBB2002B0AD0079B0593059B002B0AD035
:10FA6000084AD82105982DF013F904E0074902202F
:10FA700031F002FBFEE700BF09B05DF804FB00BFF8
:10FA80003C6E0500246D0500846E0500006E0500C7
:10FA900000B583B00190019B1B78012B08D0022B8D
:10FAA00010D0002B15D10D49032031F0E5FA10E0FC
:10FAB0000B49032031F0E0FA0520FFF727FFFFF79D
:10FAC00069FE06E00749032031F0D6FAFFF762FE2F
:10FAD00000BF00BF03B05DF804FB00BFE86E050087
:10FAE000246F0500646F050000B59BB001AB2422B4
:10FAF0000021184636F089F81C238DF80A300523BA
:10FB00008DF80B300D238DF80C3011238DF80D304E
:10FB100001238DF80E3004238DF80F3040F61C437E
:10FB2000ADF8103041F25E03ADF81230594B059339
:10FB3000594B06936F23ADF81C3040F61C43ADF8CB
:10FB40001E300A238DF82030544B09930F2006F005
:10FB5000AFFD1990199B1893189B002B05D0504AA4
:10FB60004FF4897118982DF093F84E4B0F930FAB0B
:10FB700019464D4805F0F4FD1990199B1793179BF2
:10FB8000002B05D0464A4FF48C7117982DF080F861
:10FB9000444B0E930EAB1946444803F0EBFA199010
:10FBA000199B1693169B002B05D03D4A4FF48F717D
:10FBB00016982DF06DF83B4B0D930DAB19463C4854
:10FBC00004F0B0FF1990199B1593159B002B05D0DD
:10FBD000334A40F2251115982DF05AF8354806F0B1
:10FBE000ABF91990199B1493149B002B05D02C4A48
:10FBF0004FF4947114982DF04BF82F4B019301ABF7
:10FC000019462E4807F0AAFA1990199B1393139BD3
:10FC1000002B05D0224A40F22D1113982DF038F810
:10FC200041F2883007F01AFA1990199B1293129B2F
:10FC3000002B05D01A4A4FF4987112982DF028F82D
:10FC40001F4B0A93194B0B9305230C930AAB1846D1
:10FC500001F090FC1990199B1193119B002B05D07A
:10FC60000F4A4FF49C7111982DF012F8012005F005
:10FC7000D5FC1990199B1093109B002B05D0084AB6
:10FC800040F23B1110982DF003F800BF1BB05DF857
:10FC900004FB00BF60E3160020BF0200186C0500E3
:10FCA000246D0500886C05009846002088460020D9
:10FCB00090460020A0460020E5F90100A84600205B
:10FCC00091FA010000B585B00C4B019301AB1846C9
:10FCD00007F036FE0390039B0293029B002B05D096
:10FCE000074A4FF4AF7102982CF0D2FF6420FFF75F
:10FCF0000DFE00BF05B05DF804FB00BFE06F05001E
:10FD0000246D050000B589B01C4B02931C4B039376
:10FD100002AB18460AF0DEFD0790079B0693069B90
:10FD2000002B05D0174A40F2751106982CF0B0FF51
:10FD3000124B0093124B01936B4618460AF0AEFE2D
:10FD40000790079B0593059B002B05D00D4A40F2B9
:10FD50007B1105982CF09CFF0BF0A0F80790079BF7
:10FD60000493049B002B05D0064A4FF4BF710498FE
:10FD70002CF08EFF00BF09B05DF804FB886C050015
:10FD8000FC6F0500246D050000B587B0002031F040
:10FD90001DF90590059B0493049B002B05D01B4A7D
:10FDA00040F2AD1104982CF073FF1949032031F093
:10FDB00063F9184A3C2108202DF026F80390039B94
:10FDC0000293029B002B05D0104A40F2B311029817
:10FDD0002CF05EFF2DF0C4FE0590059B0193019B66
:10FDE000002B05D0094A40F2B51101982CF050FFC4
:10FDF000FFF768FFFFF778FEFFF784FF07F01AFEB2
:10FE00002DF0C8F8FFF7C8FDFAE700BF246D050024
:10FE1000A06F0500B04600206DDF704700BF184698
:10FE200076DF704700BF18467ADF704700BF18467C
:10FE30007CDF704700BF18467FDF704700BF184661
:10FE40008FDF704700BF18469EDF704700BF18461F
:10FE5000A9DF704700BF1846ADDF704700BF1846E6
:10FE600069DF704700BF184666DF704700BF18465D
:10FE700031DF704700BF18463DDF704700BF1846AE
:10FE800084B00190244B0393019B002B40D0234B63
:10FE90001A680399019B00BF00BF00BF00BF00BFED
:10FEA00000BF00BF00BF8A422FD000BF00BF00BF0D
:10FEB00000BF00BF00BF00BF00BF00BF00BF00BF4A
:10FEC00000BF00BF00BF00BF00BF00BF00BF00BF3A
:10FED00000BF00BF00BF00BF00BF00BF00BF00BF2A
:10FEE00000BF00BF00BF00BF00BF00BF00BF00BF1A
:10FEF00000BF00BF00BF00BF00BF00BF00BF00BF0A
:10FF000000BF00BF00BF00BF00BF013BC3D10193D2
:10FF100000BF04B0704700BF0024F4005845002023
:10FF200000B583B00190019B4FF47A7202FB03F39A
:10FF30001846FFF7A5FF00BF03B05DF804FB000003
:10FF400000B583B001900091009B1B78012B09D074
:10FF5000022B02D0002B0AD00EE00C49032031F016
:10FF60008BF80EE00A49032031F086F809E00949D0
:10FF7000032031F081F804E00749022031F07CF8D9
:10FF800000BF00BF03B05DF804FB00BF3072050086
:10FF900070720500AC720500EC72050000B585B00A
:10FFA0000023019301AB18462EF0EEF903468DF8BD
:10FFB0000F309DF80F300293029B002B04D0074AAC
:10FFC000842102982CF064FE019B002B14BF0123B6
:10FFD0000023DBB2184605B05DF804FB287305006A
:10FFE00000B589B003900B468DF80B3000238DF8D7
:10FFF00017300DF1170318462CF01AFA00238DF86C
:020000022000DC
:100000001F3016E09DF81F3001338DF81F302E4948
:10001000022031F031F80DF1170318462CF008FAE0
:100020000520FFF77DFF9DF81F30052B01D90D231B
:1000300045E09DF817309DF80B209A42E2D89DF8D4
:1000400017301A462149032031F027F89DF80B306C
:10005000194603982CF008FA0690069B002B0CD04A
:100060001B4831F003F80246069B0093A32319496D
:10007000022031F03DF8069B21E01749032030F0C3
:10008000FBFF00238DF81E300EE09DF81E30039A12
:1000900013441B781A461149132030F0FEFF9DF8D7
:1000A0001E3001338DF81E309DF81E209DF80B3058
:1000B0009A42EAD30A49132030F0DEFF00231846A3
:1000C00009B05DF804FB00BF6C730500BC7305004C
:1000D00028730500F4730500487405007874050062
:1000E0008074050010B586B09DF804306FF30303EB
:1000F0008DF804309DF804306FF307138DF8043049
:10010000474B1B681C46464B1B68184635F0F9FDEB
:1001100003469AB201AB21461846FFF789FE0590C7
:10012000059B0493049B002B04D03E4AC2210498F3
:100130002CF0AEFD02AB08220021184635F065FD1B
:10014000374B1B68B3F80F309BB2ADF80830344B17
:100150001B68B3F811309BB2ADF80A30304B1B6806
:10016000B3F813309BB2ADF80C302D4B1B68B3F8CD
:1001700015309BB2ADF80E3002AB1846FFF754FEB7
:100180000590059B072B41D1254B1B68002242F0AF
:100190000602DA7300221A74214B1B68002242F017
:1001A0000C025A7400229A741D4B1B680022DA74E8
:1001B00000221A751A4B1B68002242F040025A7541
:1001C000002242F001029A75154B1B68184601F097
:1001D0005FFB0590059B002B01D0059B1CE00623CF
:1001E000ADF808300C23ADF80A300023ADF80C3020
:1001F0004FF4A073ADF80E3002AB1846FFF714FEB3
:100200000590059B002B06D0059B05E0059B002B68
:1002100001D0059B00E00023184606B010BD00BFCA
:10022000D84A00202873050000B585B00190019BD5
:100230001B78002B16D11149012030F01DFF104B07
:100240001B883B211846FFF7EBFD0390039B0293AD
:10025000029B002B0ED00B4A40F2011102982CF0A9
:1002600017FD07E0019B1B78012B03D106490320F2
:1002700030F002FF00BF05B05DF804FB8474050098
:100280005C45002028730500D474050000B583B0D8
:100290000190019A0649012030F0FFFE054A40F224
:1002A000151101982CF0F4FC00BF03B05DF804FBBD
:1002B000207505002873050000B58BB002AB1C2229
:1002C0000021184635F0A1FC6B4608220021184693
:1002D00035F09BFC1F4B1B68B3F80F309BB2ADF899
:1002E00000301C4B1B68B3F811309BB2ADF80230E4
:1002F000184B1B68B3F813309BB2ADF80430154BA4
:100300001B68B3F815309BB2ADF806306B4602930C
:100310004FF4004303934FF47023049303238DF8A9
:1003200014300023ADF8163000238DF818300A4B36
:1003300007930A4B089302AB184622F081FD0990FF
:10034000099B002B01D0099B00E0002318460BB04D
:100350005DF804FBD84A0020290202008D02020049
:1003600000B589B003468DF807309DF80730002BA3
:1003700006D0032B20D11449032030F07DFE1EE06F
:100380001249032030F078FE02238DF80C30104B18
:100390001B6803AA10469847032022F09DFB079094
:1003A000079B0693069B002B08D00A4A40F2531184
:1003B00006982CF06DFC01E000BF00E000BF00BF1C
:1003C00009B05DF804FB00BF5C750500947505007D
:1003D000804A00202873050000B58DB00190019B74
:1003E0001B88013B542B00F26F8101A252F823F0CD
:1003F000F9050200C9060200C9060200C90602008A
:10040000C9060200C9060200C9060200C9060200A8
:10041000C9060200C9060200C9060200C906020098
:10042000C9060200C9060200C9060200450502000D
:1004300067050200C9060200A7050200C9060200FE
:10044000C9060200C9060200C9060200C906020068
:10045000C9060200C9060200C9060200C906020058
:10046000C9060200C9060200C9060200C906020048
:100470008F060200BF060200C9060200C90602007C
:10048000C9060200C9060200C9060200C906020028
:10049000C9060200C9060200C9060200C906020018
:1004A000C9060200C9060200C9060200C906020008
:1004B000C9060200C9060200C9060200C9060200F8
:1004C000C9060200C9060200C9060200C9060200E8
:1004D000C90602007F060200C9060200C906020022
:1004E000C9060200C9060200C9060200C9060200C8
:1004F000C9060200C9060200C9060200C9060200B8
:10050000C9060200C9060200C9060200C9060200A7
:10051000C9060200C9060200C9060200C906020097
:10052000C9060200C9060200C9060200C906020087
:10053000C9060200D1050200C9060200C906020070
:100540001F0602006849032030F096FD019B9A883F
:10055000664B1A8000238DF80830654B1B6802AA91
:1005600010469847BBE0019B1B7A1A46614903205D
:1005700030F093FD5D4B4FF6FF721A80FFF70EFDD2
:100580000346002B03D05C4B01221A70A7E05A4BA4
:1005900000221A7001238DF80830554B1B6802AAFF
:1005A000104698479BE0514B188800230022852174
:1005B000FFF742FC0B900B9B0A930A9B002B00F069
:1005C00085804E4A40F283110A982CF061FB7DE051
:1005D000464B1888002300220021FFF739FC0B90BE
:1005E0000B9B0993099B002B72D0444A40F289115E
:1005F00009982CF04DFB6BE03C4B1B880021184602
:10060000FFF732FC0B900B9B0893089B002B61D0EB
:100610003A4A4FF4C77108982CF03AFB5AE0019B14
:10062000DB881A463649032030F037FD019B9B8852
:100630004FF48A711846FFF70FFC0B900B9B079342
:10064000079B002B05D02D4A4FF4CB7107982CF057
:100650001FFB019BDA882B4BA3F8012029492A486C
:1006600024F024FD0B900B9B0693069B002B33D0AC
:10067000224A4FF4CD7106982CF00AFB2CE0019B26
:100680005B891A462149032030F007FD27E0204905
:10069000032030F0F1FC019B9B88002200211846CA
:1006A000FFF7CEFB0B900B9B0593059B002B15D002
:1006B000124A40F2A71105982CF0EAFA0EE015490B
:1006C000032030F0D9FC0AE000BF08E000BF06E0DC
:1006D00000BF04E000BF02E000BF00E000BF00BFB9
:1006E0000DB05DF804FB00BFCC7505005C45002033
:1006F000804A002008760500DF4A002028730500A4
:1007000058760500DC4A00208C4A0020A8760500B7
:10071000F47605004477050000B585B00190019896
:1007200022F0C0FD019822F0BDFC0023039312E0EB
:10073000144B1A68039BDB0013445B68002B07D043
:10074000104B1A68039BDB0013445B6801989847C1
:10075000039B013303930C4B1B68039A9A42E7D324
:1007600001990A4824F0E7FB0199094830F0D3F8D1
:100770000198FFF731FE019822F098FA00BF05B00A
:100780005DF804FB844A0020884A00208C4A00203F
:10079000FC4A002000B587B0019001982DF006FEBC
:1007A000019805F079FE019822F09CFA019B022B3A
:1007B00002D0019B032B13D1FFF7F0FB034683F01C
:1007C0000103DBB2002B0BD0074B1B78002B07D0AB
:1007D00001238DF80C30054B1B6803AA104698477F
:1007E00000BF07B05DF804FBDF4A0020804A00200C
:1007F00000B593B0A54B1B68049304A8A44B4FF419
:10080000A672A44930F082FA1190119B1093109BAC
:10081000002B05D0A04A4FF4FE7110982CF038FA46
:100820000023039303AB184630F034FB0F900F9B6B
:100830000E930E9B002B05D0974A4FF400710E9833
:100840002CF026FA6B460C220021184635F0DDF913
:1008500001238DF800304FF48A73ADF80230039A0B
:100860006B4619462320FFF7FBFA0F900F9B0D9361
:100870000D9B002B05D0884A40F209210D982CF0E1
:1008800007FA6B460C220021184635F0BEF9012309
:100890008DF8003001238DF802300623ADF80430C6
:1008A000039A6B4619462020FFF7DAFA0F900F9B48
:1008B0000C930C9B002B05D0774A40F211210C9829
:1008C0002CF0E6F96B460C220021184635F09DF914
:1008D00001238DF8003010238DF80230039A6B4607
:1008E00019462220FFF7BCFA0F900F9B0B930B9B2E
:1008F000002B05D0684A4FF406710B982CF0C8F90C
:100900006B460C220021184635F07FF901238DF843
:10091000003002238DF80230039A6B4619462120DD
:10092000FFF79EFA0F900F9B0A930A9B002B05D0AE
:10093000594A40F21F210A982CF0AAF96B460C2262
:100940000021184635F061F902238DF80030039A32
:100950006B4619460120FFF783FA0F900F9B09930E
:10096000099B002B05D04C4A4FF4097109982CF0D3
:100970008FF96B460C220021184635F046F9012309
:100980008DF80030039A6B4619464020FFF768FA4D
:100990000F900F9B0893089B002B05D03E4A40F216
:1009A000292108982CF074F96B460C220021184676
:1009B00035F02BF94FF47A630093039A6B4619468E
:1009C000A120FFF74DFA0F900F9B0793079B002B79
:1009D00005D0314A40F22E2107982CF059F96B4688
:1009E0000C220021184635F010F99DF8003043F034
:1009F00001038DF80030039A6B461946A020FFF7DB
:100A00002FFA0F900F9B0693069B002B05D0224ACE
:100A100040F2332106982CF03BF903AB184630F036
:100A200049FA0F900F9B0593059B002B05D01A4A9E
:100A300040F2362105982CF02BF9184830F0D2F905
:100A40000F900F9B002B01D00F9B1BE0144830F040
:100A5000D9F90F900F9B002B01D00F9B12E00120C2
:100A6000FFF706FA0F900F9B002B01D00F9B09E0B8
:100A70000120FFF701FA0F900F9B002B01D00F9B75
:100A800000E00023184613B05DF804FB8C770500E6
:100A9000890F0500144B0020287305001907020078
:100AA0009507020000B5B1B04FF48073ADF878300F
:100AB0003B4B1B788DF87A301FAB3C220021184647
:100AC00035F0A3F802238DF87C3000238DF87E30BA
:100AD00006238DF87F300123ADF884301EAB2293BE
:100AE00016AB20220021184635F08FF801238DF82F
:100AF0005B302C4B1B689B899BB21A93294B1B685C
:100B00009B7B1B9307AB3C220021184635F07DF8F8
:100B100000238DF8BF3010E09DF8BF30C3F1030211
:100B20009DF8BF3020498A5C30A90B4403F8B42CEF
:100B30009DF8BF3001338DF8BF309DF8BF30032BD7
:100B4000EAD95923ADF8103003AB06930423ADF86E
:100B5000143000238DF81C3004AB109316AA07A99B
:100B60001FA800230093114B21F0B2FE2E902E9B64
:100B7000002B0DD00E4830F079FA02462E9B0093E0
:100B800040F282230B49022030F0B2FA2E9B03E0A0
:100B9000012021F08FFE0023184631B05DF804FBE0
:100BA0008C4A0020D84A0020F84A00206103020045
:100BB00028730500F473050000B583B00190054A61
:100BC00040F28F2101982CF063F800BF03B05DF86C
:100BD00004FB00BF2873050000B583B01A4B1B68E7
:100BE00093F82830022B03D805F014FD002327E0EA
:100BF000164B4FF43E721A60134B1B681733134A9F
:100C00005360114B1B6893F828309AB20F4B1A812E
:100C10000E4B0F4A5A610F48FFF7FEF80190019BF7
:100C2000002B01D0019B0BE0084BDB7A0233DAB2D8
:100C3000064BDA72054805F081FC05F0ADFC002397
:100C4000184603B05DF804FBD84A0020604C002031
:100C5000B90B02006A4C002000B595B003900192D8
:100C60001A460B468DF80B301346ADF808300023BA
:100C70008DF84F309DF80B30062B00F2598101A200
:100C800052F823F0A10C0200DD0C0200010D02005D
:100C9000890D0200D90D02000B0E0200A30E020006
:100CA000BDF808300A2B00F23681AE4B1B6818469F
:100CB000BDF808301A46019934F07EFFA94B1A6836
:100CC000BDF808300021D154A64B1B68BDF80820A0
:100CD000D2B2DA7201238DF84F301CE1BDF8083032
:100CE000032B40F01A819F4B1B680C33BDF8082082
:100CF0000199184634F060FF01238DF84F300CE164
:100D0000BDF80830082B40F00A81964B1B680F3362
:100D1000BDF808200199184634F04EFF05AB0822B3
:100D20000021184634F071FF8E4B1B68B3F80F306A
:100D30009BB2ADF814308B4B1B68B3F811309BB2EB
:100D4000ADF81630874B1B68B3F813309BB2ADF883
:100D50001830844B1B68B3F815309BB2ADF81A30CD
:100D600005AB184622F0C4F91290129B1193119B07
:100D7000002B05D07C4A40F2E12111982BF088FF2E
:100D800001238DF84F30CAE0BDF80830112B00F276
:100D9000C880744B1B681733BDF8082001991846AA
:100DA00034F00AFF6F4B1B68BDF80820D2B283F8FD
:100DB000282001238DF84F30FFF70EFF1090109B75
:100DC0000F930F9B002B00F0AC80674A4FF43C71EF
:100DD0000F982BF05DFFA4E0BDF80830FA2B00F26D
:100DE000A280604B1B682933BDF808200199184682
:100DF00034F0E2FE5B4B1B68BDF80820D2B283F8EA
:100E0000232101238DF84F308DE0BDF80830032BEE
:100E100040F08B80019B0E930E9B1B78012B2FD1F2
:100E20000E9BB3F801309BB21A465049032030F0B4
:100E300034F94F4B1A880E9BB3F801309BB2194618
:100E40001046FFF701F80D900D9B002B07D1BDF860
:100E500008301A460199474834F0AEFE65E045492E
:100E6000454824F023F90D900D9B0C930C9B002B0F
:100E70005BD03D4A40F20D310C982BF009FF54E055
:100E80003C493D4824F012F90D900D9B0B930B9BB0
:100E9000002B4AD0344A40F213310B982BF0F8FE65
:100EA00043E0BDF80830F72B41D82E4B1B6803F503
:100EB0009573BDF808200199184634F07DFE294B42
:100EC0001B68BDF80820D2B283F8212214F092F9F1
:100ED0000A900A9B002B05D0234A40F21E310A9843
:100EE0002BF0D6FE1F4B1B6803F59573BDF8082049
:100EF000D2B21146184613F091FF0990099B002BBE
:100F000005D0194A40F21F3109982BF0C1FE012388
:100F10008DF84F300BE000BF0AE000BF08E000BFD3
:100F200006E000BF04E000BF02E000BF00E000BF39
:100F30009DF84F30002B10D00A4B1B68184600F06C
:100F4000A7FC0890089B0793079B002B05D0064A37
:100F500040F22B3107982BF09BFE00BF15B05DF8D7
:100F600004FB00BFD84A00202873050090770500D5
:100F70005C450020DC4A00208C4A002000B589B086
:100F800000238DF81F30724B1B6893F82431FF2229
:100F9000934214BF012300238DF81E306C4B1B6855
:100FA00093F82531FF22934214BF012300238DF8CB
:100FB0001D30674B1B6893F82631FF22934214BF04
:100FC000012300238DF81C30614B1A6803AB02F536
:100FD00092721188927819809A709DF81E30002BB9
:100FE00007D19DF81D30002B03D19DF81C30002B3C
:100FF0002ED0574B1B68FF2283F82421544B1B68CB
:10100000FF2283F82521524B1B68FF2283F82621FB
:1010100001238DF81F309DF81E30002B03D19DF861
:101020001D30002B14D000238DF81F30494B0122B6
:101030001A70494800F02CFC0690069B0593059B0E
:10104000002B05D0454A40F24E3105982BF020FE8A
:10105000FF231A46FF231946FF2300930B464049FE
:10106000032030F045F83B4B1B78002B0DD09DF84A
:101070000C301A469DF80D3019469DF80E3000933D
:101080000B463849032030F033F8314B1B6893F896
:101090002830112B0FD92E4B1B6817330E223249E3
:1010A000184634F089FD2A4B1B680E2283F828204D
:1010B00001238DF81F30264B1B6893F82331FA2B40
:1010C0000FD9234B1B68293300222849184634F0D6
:1010D00073FD1F4B1B68002283F8232101238DF829
:1010E0001F301B4B1B6893F82132F72B05D8184B88
:1010F0001B6893F82132002B10D1154B1B6803F5A8
:10110000957316221A49184634F056FD104B1B6889
:10111000162283F8212201238DF81F309DF81F30FD
:10112000002B10D00A4B1B68184600F0B1FB06904C
:10113000069B0493049B002B05D0084A40F27631AD
:1011400004982BF0A5FD0023184609B05DF804FBB8
:10115000D84A0020E04A00200C70050028730500E2
:10116000D877050018780500237005003570050054
:101170003671050000B585B00A4B1B6801930A4B18
:10118000029301AB1946094823F0FCFE0390039B30
:10119000002B01D0039B00E00023184605B05DF84A
:1011A00004FB00BFD84A0020590C02008C4A0020E2
:1011B00000B589B001900091FFF7DCFF0690069B17
:1011C0000593059B002B05D0244A4FF466710598C2
:1011D0002BF05EFD0023079318E0079BDB00019ACC
:1011E00013441B68002B0ED0079BDB00019A1344AD
:1011F0001B681B4A1278104698470690069B002BE6
:1012000001D0069B26E0079B01330793079A009BBA
:101210009A42E2D302AB08220021184634F0F5FCD2
:10122000104B029301238DF80C3001238DF80D3003
:1012300002AB19460C482FF0DDF90690069B04938B
:10124000049B002B05D0054A40F2B13104982BF0E5
:101250001FFD0023184609B05DF804FB2873050044
:10126000E04A002041FF0100FC4A0020B0B5C6B0B2
:1012700002AF13F0EDFFC7F80801D7F80831002BD3
:101280000FD0B0482FF0F2FE0246D7F80831009395
:1012900040F2BE33AC4902202FF02AFFD7F80831C4
:1012A0004BE1AA4B1B6803F595731622A849184613
:1012B00034F04AFA0346002B40F01C816B461D4671
:1012C0002021A44813F0D4FEC7F80801D7F808314C
:1012D000002B0FD09B482FF0C9FE0246D7F80831EB
:1012E000009340F2C333984902202FF001FFD7F852
:1012F0000831FDE01B2387F8073197F80701034603
:10130000013BC7F80031C1B24FF000024FF00003BB
:101310004FF00004D40044EA5174CB00C1B24FF046
:1013200000024FF000034FF00004D40044EA51746F
:10133000CB0003460733DB08DB00ADEB030D02AB4C
:101340000033C7F8FC30D7F8FC3000221A70D7F809
:10135000FC308149184634F078FAD7F8FC307F49E0
:10136000184634F072FA002387F80F311EE007F1B7
:10137000F80300210A461A800A469A7097F80F313E
:10138000774AD35C1A4607F1F8037649184634F0D9
:1013900047FAD7F8FC3007F1F8021146184634F046
:1013A00054FA97F80F31013387F80F3197F80F315E
:1013B000032BDCD9D7F8FC3018462FF057FE034634
:1013C0001A46694903202FF068FED7F8FC3097F8D9
:1013D00007211146184613F0A3FDC7F80801D7F8F6
:1013E0000831002B0FD057482FF040FE0246D7F8A7
:1013F0000831009340F2D733534902202FF078FE92
:10140000D7F8083174E016225849012013F0E4FDA2
:10141000C7F80801D7F80831002B0FD049482FF042
:1014200025FE0246D7F80831009340F2DA334649E8
:1014300002202FF05DFED7F8083159E013F060FE6E
:10144000C7F80801D7F80831002B0FD03D482FF01E
:101450000DFE0246D7F80831009340F2DD333A49D9
:1014600002202FF045FED7F8083141E0F72387F836
:10147000FB3007F1FB023B461146184613F026FDF0
:10148000C7F80801D7F80831002B0FD02D482FF0EE
:10149000EDFD0246D7F80831009340F2E1332A49C6
:1014A00002202FF025FED7F8083121E097F8FB2025
:1014B0003B4683F8F7203B4619462D4823F022FE91
:1014C000C7F80801D7F80831002B0FD01D482FF0BE
:1014D000CDFD0246D7F80831009340F2E5331A49B2
:1014E00002202FF005FED7F8083101E0AD4623E0D9
:1014F000AD4622E0154B1B6803F59572134B1B6834
:1015000093F821321946104613F088FCC7F80801F9
:10151000D7F80831002B0FD00A482FF0A7FD02465C
:10152000D7F80831009340F2EA33074902202FF040
:10153000DFFDD7F8083100E00023184607F588776B
:10154000BD46B0BD28730500F4730500D84A0020DD
:101550003671050088780500E44A0020A878050067
:10156000F84A002078740500AC780500D8780500AA
:101570008C4A002000B585B00190019B1B686A4A27
:101580001360019B5B68694A1360019B9B68684A12
:101590001360FFF72DF90390039B002B06D0039AED
:1015A000644901202FF079FD039BB8E0624BD3F82A
:1015B0008830614A43F47003C2F88830BFF34F8F1C
:1015C000BFF36F8F04215D48FEF70AFD0390039B74
:1015D000002B06D0039A5A4901202FF05EFD039B91
:1015E0009DE05849584800F00DFA0390039B002BEA
:1015F00006D0039A554901202FF04FFD039B8EE042
:10160000504B1B680C22A3F81120FFF7B7FC039086
:10161000039B002B06D0039A4D4901202FF03DFD7E
:10162000039B7CE0FEF75EFD0390039B002B06D03E
:10163000039A484901202FF030FD039B6FE03B4B9C
:101640001A683B4B1B6819461046FFF7B1FD039023
:10165000039B002B06D0039A3F4901202FF01DFD6C
:10166000039B5CE0FFF71EFA0390039B002B06D060
:10167000039A3A4901202FF010FD039B4FE0FEF73B
:101680001BFE0390039B002B06D0039A34490120D4
:101690002FF003FD039B42E0032021F01DFA03908D
:1016A000039B002B06D0039A2E4901202FF0F5FC56
:1016B000039B34E02C4805F0F7FE0390039B002BBE
:1016C00006D0039A294901202FF0E7FC039B26E06E
:1016D00025482FF0CBFC03461A46254913202FF04E
:1016E000DCFCFFF7C3FD0390039B002B06D0039A9D
:1016F000204901202FF0D1FC039B10E00A20FEF7C7
:101700000FFCFFF769FA0390039B002B06D0039AA6
:10171000194901202FF0C1FC039B00E0002318466B
:1017200005B05DF804FB00BF804A0020844A002019
:10173000884A0020F078050000ED00E0F84A00201B
:101740002C790500D84A00200C700500707905003E
:10175000AC790500EC790500287A0500747A05005B
:10176000B07A0500EC7A0500E44A00202C7B0500E5
:10177000687B05007C7B0500B07B050000B589B067
:101780000390039B1B78012B1AD0052B42D0002B12
:101790004CD1039B5B68002B03D1344B01221A70A0
:1017A00059E0334901202FF067FC00230793079B82
:1017B000002B50D12F4A5D2100202BF069FA4AE01E
:1017C000039B5B68002B16D1039B9B89B3F5005FDD
:1017D00043D1039B1B7C1A46039B9B891946039BA1
:1017E000DB8900930B46244903202FF081FC234B17
:1017F00001221A7031E0224901202FF03DFC002324
:101800000693069B002B28D11A4A6F2100202BF04B
:101810003FFA22E0039B5B68002B20D1194903208B
:101820002FF02AFC184B01221A7018E0039B1B783A
:101830001A46039B5B68154903202FF042FC039B6B
:101840005B680593059B002B0BD00A4A7B2105980A
:101850002BF01EFA05E000BF04E000BF02E000BF6D
:1018600000E000BF00BF09B05DF804FBAC4E0020F3
:10187000E87B0500187C0500607C0500AD4E00206B
:10188000AC7C0500DC7C0500AE4E0020107D050020
:1018900000B58BB003901F4903202FF0EDFB039B95
:1018A000002B01D10E2331E040F2222203991A4885
:1018B00034F082F9194B42221A60184B04938A23A0
:1018C000ADF814304FF40053ADF8183042F2010374
:1018D000ADF81A3004AB07930123ADF8203006AB06
:1018E00019460F482EF085FB0990099B002B0CD060
:1018F0000C482FF0BBFB0246099B009398230A4932
:1019000002202FF0F5FB099B00E0002318460BB0E6
:101910005DF804FB407D0500884C0020844C0020CD
:10192000784C0020187C0500747D050000B58BB054
:10193000039005AB08220021184634F066F92B49C4
:1019400003202FF099FB05AB294A42F201014FF425
:1019500000502EF0BDFB0990099B002B0CD02548B0
:101960002FF084FB0246099B0093A9232249022001
:101970002FF0BEFB099B34E007AB19461C482EF044
:10198000ADFA0990099B002B0CD01A482FF06EFB82
:101990000246099B0093AC23174902202FF0A8FBB5
:1019A000099B1EE0089B4FF40A721946134834F055
:1019B00003F90F482EF0CEFA0990099B002B0CD0AA
:1019C0000C482FF053FB0246099B0093B1230A49B0
:1019D00002202FF08DFB099B03E0039B084A1A604D
:1019E000002318460BB05DF804FB00BFC87D05005E
:1019F000784C0020187C0500747D0500844C002084
:101A0000884C002000B58BB0039002915B49032005
:101A10002FF032FB039B002B01D10E23A9E0584885
:101A20002EF0C6F90990099B002B0CD055482FF0D9
:101A30001DFB0246099B0093C223534902202FF04D
:101A400057FB099B95E02EF0D3F90990099B002BD9
:101A50000ED04C482FF00AFB0246099B0093C52389
:101A6000494902202FF044FB099B82E02BF092FAB7
:101A7000464B1B7883F00103DBB2002BF6D12EF02E
:101A8000FBFA0990099B002B0ED03E482FF0EEFA8E
:101A90000246099B0093CD233B4902202FF028FBEF
:101AA000099B66E02BF076FA394B1B7883F0010333
:101AB000DBB2002BF6D10298FFF738FF0990099BA3
:101AC0000A2B45D1334903202FF0D6FA40F22222C7
:101AD0000399314834F070F8304B42221A602F4B92
:101AE00004938A23ADF814304FF40053ADF8183046
:101AF00042F20103ADF81A3004AB07930123ADF8AD
:101B00002030274B00221A7006AB194625482EF0CC
:101B100061FA0990099B002B0CD01A482FF0A6FA05
:101B20000246099B0093EB23174902202FF0E0FAAD
:101B3000099B1EE0029B184A1A6001E02BF02AFA6A
:101B4000174B1B7883F00103DBB2002BF6D10FE0BB
:101B5000099B002B0CD00B482FF088FA0246099BFA
:101B60000093F623084902202FF0C2FA099B00E0F7
:101B7000002318460BB05DF804FB00BFF87D05009C
:101B80007D170200187C0500747D0500AC4E002016
:101B9000AE4E0020247E0500884C0020844C00209E
:101BA000AD4E0020784C002000B587B08DED030AC3
:101BB0000290DDED037AFDEEE77ACDED017A9DF836
:101BC00004305AB2029B1A70029B93F9003007EE60
:101BD000903AF8EEE77A9DED037A77EE677ACDEDED
:101BE000057ADDED057A9FED0D7A67EE877AFCEEDA
:101BF000E77ACDED017A9DF80430DAB2029B5A7093
:101C0000029B93F900301A46029B5B78044904203A
:101C10002FF057FA00BF07B05DF804FB0000C84280
:101C2000807E050000B583B0034600918DF8073033
:101C3000009B9DF807201A709DF807301A4604494A
:101C400004202FF02AFA00BF03B05DF804FB00BFA8
:101C5000C87E050000B587B08DED030A0290DDED6A
:101C6000037AFDEEE77A17EE902A029B1A60029B38
:101C70001B6807EE903AF8EEE77A9DED037A77EE6F
:101C8000677ACDED057ADDED057A9FED0D7A67EE89
:101C9000877AFCEEE77ACDED017A9DF80430DAB26E
:101CA000029B1A71029B1B681A46029B1B7905490D
:101CB00004202FF006FA00BF07B05DF804FB00BF58
:101CC0000000C842107F050000B587B00190019B5D
:101CD0001B78002B02D0012B14D021E0019B5B78F4
:101CE000012B1AD110F0E8F8F0EE407A03AB184659
:101CF000B0EE670AFFF7AEFF03AB19460A4822F0C1
:101D000031FA0AE000230593059B002B07D1074A0F
:101D1000942100202AF0BCFF01E000BF00E000BFDA
:101D200000BF07B05DF804FBB04E0020607F0500E7
:101D300000B58DB003468DF807309DF80730002BB5
:101D400060D112F063F98DED0B0A12F0ADF8034685
:101D5000ADF82A3004AB18469DED0B0AFFF724FFBF
:101D6000BDF82A30DBB20DF10F0211461846FFF71D
:101D700059FF2B4B1B78002B14D0BDF82A309DED5A
:101D80000B0A184600F05CFA0990099B0893089B1F
:101D9000002B04D0234AB12108982AF079FF204B68
:101DA00000221A70204B1B78002B12D004AB19466E
:101DB0001E4822F097F90990099B0793079B002B77
:101DC00004D0184AB82107982AF062FF164B002267
:101DD0001A70174B1B78002B1ED00DF10F031946FC
:101DE000124822F0FFF90990099B0693069B002BED
:101DF00004D00C4ABF2106982AF04AFF0C4B00225F
:101E00001A7009E000230593059B002B04D1054AB5
:101E1000C52100202AF03CFF00BF0DB05DF804FB97
:101E2000FA4E0020607F0500F94E0020B04E0020E1
:101E3000F84E002000B585B00190019B002B15D015
:101E4000019B1B88ADF80C30019B5B88ADF80E3010
:101E5000019B1B881A46019B5B88064904202FF0D2
:101E600030F903AB1946044822F0FCF900BF05B075
:101E70005DF804FBAC7F0500B04E002000B587B0D4
:101E8000039000200AF098FA039B002B27D0039BB5
:101E90001B881946039B5B881846039B9B881A4640
:101EA000039BDB880193009203460A460E490420F7
:101EB0002FF037F9039B1B88ADF81030039B5B882C
:101EC000ADF81230039B9B88ADF81430039BDB8880
:101ED000ADF8163004AB1946044822F003FA00BFEF
:101EE00007B05DF804FB00BFF07F0500B04E002096
:101EF00000B585B001900A4B01221A7012F024F946
:101F00000390039B0293029B002B05D0054A4FF4DC
:101F1000847102982AF0BCFE00BF05B05DF804FB96
:101F2000F94E0020607F0500F0B585B0334B0122EB
:101F30001A70334B01221A7011F0F0FE0390039BCC
:101F4000002B0DD02F482FF091F80246039B0093F1
:101F50004FF48B732C4902202FF0CAF8039B49E001
:101F600012F0F2F80390039B002B0DD025482FF0C0
:101F70007DF80246039B009340F219132249022088
:101F80002FF0B6F8039B35E0204F214B1B681B88D0
:101F90009BB299B24FF000024FF000034FF00004E3
:101FA000D40344EA5144CB0313F5FA7544F1000617
:101FB0004FF47A724FF000032846314633F0C0F9EF
:101FC00003460C460022194638462BF02DFE03909E
:101FD000039B002B0DD00B482FF048F80246039BC3
:101FE00000934FF48F73084902202FF081F8039B70
:101FF00000E00023184605B0F0BD00BFF94E0020F8
:10200000FD4E0020607F05003C800500004F002051
:10201000F04E002000B587B003468DF80F30194B05
:1020200000221A70184B18462BF030FE0590059BC5
:10203000002B0DD015482FF019F80246059B009390
:102040004FF49673124902202FF052F8059B14E0CA
:102050009DF80F30002B0FD00E4B00221A700E4B44
:102060001B7883F00103DBB2002B03D011F0C0FE1C
:10207000034602E0002300E00023184607B05DF8A5
:1020800004FB00BFF94E0020004F0020607F0500D8
:102090003C800500FD4E0020FC4E002000B585B0C0
:1020A00001900FF059FF0390039B0293029B002BBA
:1020B00005D0054A40F24B1102982AF0E9FD00BF15
:1020C00005B05DF804FB00BF607F0500F0B585B08A
:1020D0000FF0E2FD0390039B0293029B002B05D0BF
:1020E0001D4A4FF4AB7102982AF0D2FD0FF034FF75
:1020F0000390039B0193019B002B05D0164A40F2ED
:10210000591101982AF0C4FD144F154B1B685B88C8
:102110009BB299B24FF000024FF000034FF0000461
:10212000D40344EA5144CB0313F5FA7544F1000695
:102130004FF47A724FF000032846314633F000F92D
:1021400003460C460022194638462BF06DFD034627
:10215000184605B0F0BD00BF607F0500204F00208D
:10216000F04E002000B585B00E4B18462BF08EFDCA
:102170000390039B002B0DD00B482EF077FF0246F7
:10218000039B009340F26913084902202EF0B0FF30
:10219000039B02E00FF036FE0346184605B05DF8DB
:1021A00004FB00BF204F0020607F05003C8005003D
:1021B00000B587B001900023ADF80A301C4B1B78A6
:1021C000012B31D10DF10A03184600F07BF905907F
:1021D000059B0493049B002B05D0164A4FF4BD7158
:1021E00004982AF055FDBDF80A30002B04D112499D
:1021F00002202EF041FF10E0BDF80A3018460BF027
:1022000017FD0590059B0393039B002B05D0094AFE
:1022100040F2831103982AF03BFD054B02221A700D
:10222000064B18462BF032FD00BF07B05DF804FBEB
:10223000FB4E0020607F050090800500804F00204D
:1022400000B589B003468DED020AADF80E301E4B85
:102250001B78002B33D0BDF80E301A469200134481
:102260005B00ADF81E30DDED027A9FED187A67EE67
:10227000877AFDEEE77A17EE903A0693BDF81E20B6
:10228000069B134904202EF01CFFBDF81E30069952
:1022900018460BF0EDFB0590059B002B0DD00D486B
:1022A0002EF0E4FE0246059B00934FF4D3730A49D7
:1022B00002202EF01DFF059B02E0002300E000231A
:1022C000184609B05DF804FBFC4E002000007A447B
:1022D000F8800500607F05003C80050000B585B0F2
:1022E000114B00221A70114B1B78002B13D111F0E7
:1022F0007FFD0390039B002B0DD00D482EF0B6FE02
:102300000246039B00934FF4E1730A4902202EF02A
:10231000EFFE039B04E0084B18462BF0B7FC034686
:10232000184605B05DF804FBFC4E0020FD4E002071
:10233000607F05003C800500804F002000B585B01F
:1023400001900A4B01221A7011F0FEFE0390039BCC
:102350000293029B002B05D0054A4FF4EA710298C4
:102360002AF096FC00BF05B05DF804FBF84E002093
:10237000607F0500F0B585B02A4B01221A702A4B08
:1023800001221A7011F0CAFC0390039B002B0DD0A0
:1023900026482EF06BFE0246039B009340F2E113A9
:1023A000234902202EF0A4FE039B37E011F0CCFE5F
:1023B0000390039B002B0DD01C482EF057FE0246C5
:1023C000039B00934FF4F273194902202EF090FE04
:1023D000039B23E0174F184B1B689B889BB299B255
:1023E0004FF000024FF000034FF00004D40344EA22
:1023F0005144CB0313F5FA7544F100064FF47A7299
:102400004FF000032846314632F09AFF03460C464F
:102410000022194638462BF007FC0346184605B043
:10242000F0BD00BFF84E0020FD4E0020607F05008B
:102430003C800500404F0020F04E002000B587B0E2
:1024400003468DF80F30194B00221A70184B1846AE
:102450002BF01CFC0590059B002B0DD015482EF091
:1024600005FE0246059B009340F2F5131249022037
:102470002EF03EFE059B14E09DF80F30002B0FD090
:102480000E4B00221A700E4B1B7883F00103DBB257
:10249000002B03D011F0ACFC034602E0002300E067
:1024A0000023184607B05DF804FB00BFF84E00207B
:1024B000404F0020607F05003C800500FD4E00205D
:1024C000FC4E002000B583B00190284B1B681B7A9E
:1024D000032B43D801A252F823F000BFED240200E1
:1024E000092502002525020041250200204B1B681A
:1024F0001B889AB2019B1A80019B1B881A461D49B2
:1025000004202EF0CAFD2BE0194B1B685B889AB2A1
:10251000019B1A80019B1B881A46174904202EF044
:10252000BCFD1DE0124B1B689B889AB2019B1A8070
:10253000019B1B881A46114904202EF0AEFD0FE0C6
:102540000B4B1B68DB889AB2019B1A80019B1B888E
:102550001A460B4904202EF0A0FD01E0082300E0FC
:102560000023184603B05DF804FB00BFF04E0020C6
:10257000F44E002058810500C0810500248205002A
:102580008882050000B587B00346ADF80E30314BA8
:102590001B681B7A032B3FD801A252F823F000BF1F
:1025A000B1250200CB250200E5250200FF2502002F
:1025B000294B1B68BDF80E201A80BDF80E301A4654
:1025C000264904202EF069FD28E0234B1B68BDF846
:1025D0000E205A80BDF80E301A46214904202EF0F4
:1025E0005CFD1BE01C4B1B68BDF80E209A80BDF8FB
:1025F0000E301A461B4904202EF04FFD0EE0164BFC
:102600001B68BDF80E20DA80BDF80E301A46164958
:1026100004202EF042FD01E0082317E00E4B1B685A
:10262000184600F0DDFF0590059B002B0DD00F48EC
:102630002EF01CFD0246059B009340F24E230C49F0
:1026400002202EF055FD059B00E00023184607B040
:102650005DF804FBF04E0020F44E0020EC820500F3
:1026600050830500B083050014840500607F0500D9
:102670003C80050000B585B0284B1B681B7A1A46C4
:10268000274904202EF009FD244B1B681B7A032BDD
:102690001AD801A252F823F0A9260200B12602009E
:1026A000B9260200C126020000238DF80F300FE08A
:1026B00001238DF80F300BE002238DF80F3007E077
:1026C00003238DF80F3003E002238DF80F3000BF95
:1026D0009DF80F3018460BF021FB0290029B002B57
:1026E0000DD010482EF0C2FC0246029B009340F22F
:1026F0006F230D4902202EF0FBFC029B0AE00B4BDE
:1027000001221A700A4B00224FF0617118462BF01B
:102710008BFA0346184605B05DF804FBF04E002026
:1027200078840500607F05003C800500FB4E00209A
:10273000804F002000B585B0274B1B78022B41D17C
:10274000FFF7CCFD0390039B002B0DD023482EF008
:102750008DFC0246039B009340F281232049022016
:102760002EF0C6FC039B33E00DF10A0318460BF074
:10277000EDF90390039B002B0DD018482EF076FC4A
:102780000246039B00934FF42173154902202EF05B
:10279000AFFC039B1CE0BDF80A301846FFF7F2FEC1
:1027A0000390039B002B0DD00C482EF05FFC0246DB
:1027B000039B009340F28723094902202EF098FCE6
:1027C000039B05E0044B00221A700BF04FFC0346FC
:1027D000184605B05DF804FBFB4E0020607F050045
:1027E0003C80050000B587B00190134B1B685B7AF5
:1027F0008DF80C30104B1B689B7A8DF80D300E4B0A
:102800001B68DB7A8DF80E3003AB1946002009F007
:1028100025FE0CF047FB0590059B0493049B002BC1
:1028200005D0064A40F29F2104982AF031FA00BFF1
:1028300007B05DF804FB00BFF04E0020607F05008C
:10284000F0B585B02B4B1B685B7A8DF80030294BB7
:102850001B689B7A8DF80130264B1B68DB7A8DF85C
:1028600002306B461946002009F0F8FD0CF07CFBA5
:102870000390039B0293029B002B05D01E4A40F25B
:10288000AF2102982AF004FA0CF00CFB0390039B92
:102890000193019B002B05D0174A40F2B221019809
:1028A0002AF0F6F9154F134B1B68DB889BB299B2DF
:1028B0004FF000024FF000034FF00004D40344EA4D
:1028C0005144CB0313F5FA7544F100064FF47A72C4
:1028D0004FF000032846314632F032FD03460C46E5
:1028E0000022194638462BF09FF90346184605B0DA
:1028F000F0BD00BFF04E0020607F0500604F00205B
:1029000000B585B0124B18462BF0C0F90390039B1D
:102910000293029B002B05D00E4A40F2BF21029881
:102920002AF0B6F9002009F047FD0CF0F3FB039004
:10293000039B0193019B002B05D0064A4FF4317194
:1029400001982AF0A5F90023184605B05DF804FBAC
:10295000604F0020607F050000B585B00190019BAD
:102960001B889BB2632B32D9019B1B889BB24EF60E
:10297000602293422BD8019B5B889BB2312B26D9D6
:10298000019B5B889BB24EF6602293421FD8019B4D
:102990009B889BB2632B1AD9019B9B889BB24EF6F6
:1029A0006022934213D8019BDB889BB2C72B0ED9C0
:1029B000019BDB889BB24EF66022934207D8019BB5
:1029C0001B7A002B03D0019B1B7A032B0ED90A48DC
:1029D00000F04EFD0390039B0293029B002B05D059
:1029E000064A40F2DA2102982AF052F900231846EA
:1029F00005B05DF804FB00BF587E0500607F050050
:102A000000B589B00190019B002B01D10E236AE033
:102A10000020FFF7FFFAFFF7A5FB0120FFF70EFDEF
:102A2000FFF76EFF019B1B889BB2002B12D0304B2F
:102A300093F83630002B0DD0FFF776FA0790079BFE
:102A40000693069B002B05D02A4A40F2F3210698F4
:102A50002AF01EF9019B5B889BB2002B12D0244BFD
:102A600093F83730002B0DD0FFF730FB0790079B12
:102A70000593059B002B05D01E4A40F2FA210598CC
:102A80002AF006F9019B9B889BB2002B12D0184BB1
:102A900093F83830002B0DD0FFF76CFC0790079BA4
:102AA0000493049B002B05D0124A40F20131049894
:102AB0002AF0EEF8019BDB889BB2002B12D00C4B66
:102AC00093F83A30002B0DD0FFF7BAFE0790079B22
:102AD0000393039B002B05D0064A4FF442710398E1
:102AE0002AF0D6F80023184609B05DF804FB00BFB1
:102AF000B04E0020607F050000B593B003900192B6
:102B00001A460B468DF80B301346ADF808309DF889
:102B10000B30052B00F2428101A252F823F000BFD6
:102B2000392B0200B12B02000B2C0200832C020077
:102B3000D92C02002F2D0200039B93F836301A4641
:102B40009F4904202EF0A9FA039B93F83630002BFE
:102B50000FD0FFF7E9F91190119B1093109B002BF8
:102B600000F01E81974A40F2273110982AF090F821
:102B700016E1039B93F83830002B14BF0123002388
:102B8000DBB283F00103DBB203F00103DBB21846D2
:102B9000FFF740FA1190119B0F930F9B002B00F051
:102BA000FF80884A4FF44B710F982AF071F8F7E0D4
:102BB000039B93F837301A46834904202EF06DFAB0
:102BC000039B93F83730002B0FD0FFF77FFA11905B
:102BD000119B0E930E9B002B00F0E480794A40F28B
:102BE00035310E982AF054F8DCE0FFF7BBFA11906B
:102BF000119B0D930D9B002B00F0D480714A40F285
:102C00003A310D982AF044F8CCE0039B93F8383021
:102C10001A466E4904202EF040FA039B93F8383090
:102C2000002B0FD0FFF7A6FB1190119B0C930C9B70
:102C3000002B00F0B980634A40F243310C982AF02F
:102C400027F8B1E0039B93F83630002B14BF012323
:102C50000023DBB283F00103DBB203F00103DBB23C
:102C60001846FFF7EBFB1190119B0B930B9B002B6E
:102C700000F09A80534A4FF452710B982AF008F8EA
:102C800092E0039B93F839301A46514904202EF004
:102C900004FA039B93F83930002B0ED0FFF7EAFCBF
:102CA0001190119B0A930A9B002B7FD0454A40F25A
:102CB00051310A9829F0ECFF78E0FFF73BFD1190C5
:102CC000119B0993099B002B70D03E4A40F256316C
:102CD000099829F0DDFF69E0039B93F83A301A4622
:102CE0003C4904202EF0D9F9039B93F83A30002B8D
:102CF0000ED0FFF7A5FD1190119B0893089B002BA8
:102D000056D0304A40F25F31089829F0C1FF4FE0B9
:102D1000FFF7F6FD1190119B0793079B002B47D0FF
:102D2000284A4FF45971079829F0B2FF40E0BDF8E6
:102D300008301A46284904202EF0AFF9BDF80830B3
:102D40000C2B0CBF01230023DBB20693069B002B48
:102D500005D11C4A40F26B31002029F099FF0198FF
:102D600000F086FB1190119B0593059B002B05D06D
:102D7000144A40F26E31059829F08AFF0198FFF756
:102D80003FFE1190119B0493049B002B12D00D4A1F
:102D900040F27131049829F07BFF0BE000BF0AE09C
:102DA00000BF08E000BF06E000BF04E000BF02E093
:102DB00000BF00E000BF00BF13B05DF804FB00BF20
:102DC000AC840500607F0500FC8405004885050093
:102DD00094850500DC8505002486050000B597B0C4
:102DE00003468DF80F3000238DF8483000238DF80E
:102DF00049300023109300238DF8443000238DF8D0
:102E00003F300DAB00221A605A600023ADF830301D
:102E10000023ADF83230464B464A4749474800F058
:102E200097FC1590159B002B0DD045482EF01EF9F0
:102E30000246159B009340F28E33424902202EF049
:102E400057F9159B6FE09DF80F30002B1DD03B48C4
:102E500000F00EFB1590159B1493149B002B05D0CE
:102E6000374A40F29331149829F012FF314800F0AC
:102E7000B7FB1590159B1393139B002B05D0304A7D
:102E800040F29631139829F003FF2B4B1B6818462C
:102E9000FFF762FD1590159B002B0DD028482EF0F2
:102EA000E5F80246159B009340F29A33254902202B
:102EB0002EF01EF9159B36E005AB1C2200211846AA
:102EC00032F0A3FE12AB059310AB06930DF13F0356
:102ED00007930DAB09930CAB0893174B1B680A9330
:102EE000194B0B93194903202EF0C6F805AB194670
:102EF000174821F06DF81590159B002B0DD0104848
:102F00002EF0B4F80246159B00934FF46A730D49F6
:102F100002202EF0EDF8159B05E0074B1B681846C4
:102F2000FFF76EFD0023184617B05DF804FB00BFE5
:102F3000F44E0020647E0500F04E0020587E05000F
:102F4000607F05003C800500F92A020070860500BC
:102F5000B04E002000B585B0019001990C4821F0D9
:102F600006F8019B1B88112B0DD100F0B1F80390DE
:102F7000039B0293029B002B05D0064A40F2BE3110
:102F8000029829F085FE00BF05B05DF804FB00BF84
:102F9000B04E0020607F050000B589B0019000238D
:102FA00007935F238DF8083018230393019B049344
:102FB000064B0593064B069302AB184610F0BEFD78
:102FC0000790079B184609B05DF804FBC48605000E
:102FD000311D020000B589B001905C238DF80830E6
:102FE00017230393019B0493074B0593074B069309
:102FF00001238DF81C3002AB18460EF0B5FD0346D8
:10300000184609B05DF804FBD4860500C91C02000F
:1030100000B58BB00390039B0593114B06935A2385
:103020008DF81C300F4B089305AB18460BF022F9B6
:103030000990099B002B0DD00B482EF017F8024683
:10304000099B009340F20A43084902202EF050F8F1
:10305000099B00E0002318460BB05DF804FB00BF9D
:10306000E4860500351E0200607F05003C800500F7
:1030700000B58BB00390039B0593114B0693382347
:103080008DF81C300F4B089305AB18460BF070FE03
:103090000990099B002B0DD00B482DF0E7FF02464D
:1030A000099B009340F22343084902202EF020F8A8
:1030B000099B00E0002318460BB05DF804FB00BF3D
:1030C000F48605007D1E0200607F05003C8005003F
:1030D00000B587B00020FEF79DFF0590059B049387
:1030E000049B002B05D0224A40F23441049829F079
:1030F000CFFDFFF737F80590059B0393039B002B4B
:1031000005D01B4A40F23741039829F0C1FD012048
:10311000FFF794F90590059B0293029B002B05D0C5
:10312000134A40F23A41029829F0B2FDFFF7E8FB5A
:103130000590059B0193019B002B05D00C4A40F2A2
:103140003D41019829F0A4FDFFF7F4FA0590059B95
:103150000093009B002B05D0054A4FF4886100982E
:1031600029F096FD0023184607B05DF804FB00BF68
:10317000607F050000B58DB003900291039B002B8A
:1031800001D10E23BAE0029B002B01D10E23B5E042
:103190005C4903202DF070FF039B5B4A5A60039B40
:1031A0005A4A1A60029B1B681846FFF713FF0B90E0
:1031B0000B9B0A930A9B002B05D0554A40F25441C1
:1031C0000A9829F065FD029B1B681846FFF7E4FE8C
:1031D0000B900B9B0993099B002B05D04C4A40F2A6
:1031E0005741099829F054FD029B1B681846FFF7C8
:1031F0000FFF0B900B9B0893089B002B05D0444AB4
:1032000040F25A41089829F043FD029B1B6818467A
:10321000FFF72EFF0B900B9B0793079B002B05D00E
:103220003B4A40F25D41079829F032FD394A0121BD
:1032300039482AF0C9FC0B900B9B0693069B002B88
:1032400005D0334A40F26141069829F021FD334A06
:10325000012133482AF0B8FC0B900B9B0593059B8A
:10326000002B05D02A4A40F26441059829F010FD50
:103270002C4A01212C482AF0A7FC0B900B9B002B19
:103280000DD023482DF0F2FE02460B9B009340F236
:103290006743264902202DF02BFF0B9B2EE0244A8A
:1032A000012124482AF090FC0B900B9B002B0DD0A1
:1032B00017482DF0DBFE02460B9B009340F26A4359
:1032C0001A4902202DF014FF0B9B17E01A4A012126
:1032D0001A482AF079FC0B900B9B002B0DD00C4860
:1032E0002DF0C4FE02460B9B009340F26D430F4944
:1032F00002202DF0FDFE0B9B00E0002318460DB0D0
:103300005DF804FBA0860500552F0200DD2D0200AC
:10331000607F0500F11E02006C7E05009D2002000A
:10332000707E05003D230200747E05003C80050090
:10333000E5270200787E0500B12102007C7E0500B1
:1033400000B589B00390039B1B78002B02D0012BA2
:103350001AD05BE0039B5B68002B06D13A4B01223D
:103360001A703A4B01221A7065E0394901202DF09C
:1033700083FE00230793079B002B5CD1354A722103
:10338000002029F085FC56E0039B5B68002B2ED1C2
:10339000039B9B8941F20102934210D1039B1B7C4A
:1033A0001A46039B9B891946039BDB8900930B46B6
:1033B000294903202DF09CFE284B01221A70039B03
:1033C0009B8941F20302934237D1039B1B7C1A462F
:1033D000039B9B891946039BDB8900930B4620497D
:1033E00003202DF085FE1F4B01221A7025E01E4997
:1033F00001202DF041FE00230693069B002B1CD1DB
:10340000144A8C21002029F043FC16E0039B1B7812
:103410001A46039B5B68154903202DF052FE039B5F
:103420005B680593059B002B09D00A4A91210598FA
:1034300029F02EFC03E000BF02E000BF00E000BF67
:1034400000BF09B05DF804FBD54F0020D74F002026
:10345000048705003487050084870500D44F0020C9
:10346000D4870500D64F002028880500588805001D
:1034700000B58BB003901F4903202DF0FDFD039B89
:10348000002B01D10E2330E00C2203991A4832F0B0
:1034900093FB1A4B42221A60184B04930423ADF895
:1034A000143041F20103ADF8183041F20203ADF8D7
:1034B0001A3004AB07930123ADF8203006AB194650
:1034C0000F482CF096FD0990099B002B0CD00D485D
:1034D0002DF0CCFD0246099B0093AE230A49022041
:1034E0002DF006FE099B00E0002318460BB05DF8A6
:1034F00004FB00BF88880500BC4F0020B84F0020A7
:10350000A04F002034870500B888050000B58BB0B7
:10351000039005AB08220021184632F076FB2A49B9
:1035200003202DF0A9FD05AB284A41F2020141F22A
:1035300001002CF0CDFD0990099B002B0CD02448F4
:103540002DF094FD0246099B0093BF2321490220E0
:103550002DF0CEFD099B33E007AB19461B482CF03C
:10356000BDFC0990099B002B0CD019482DF07EFD65
:103570000246099B0093C223164902202DF0B8FD94
:10358000099B1DE0089B10221946134832F014FBDA
:103590000E482CF0DFFC0990099B002B0CD00C4846
:1035A0002DF064FD0246099B0093C72309490220C0
:1035B0002DF09EFD099B03E0039B084A1A6000233F
:1035C00018460BB05DF804FB0C890500A04F0020E5
:1035D00034870500B8880500B84F0020BC4F002094
:1035E00000B58BB003901F4904202DF045FD039BCF
:1035F000002B01D10E2330E0082203991A4832F043
:10360000DBFA1A4B42221A60184B04930323ADF8DD
:10361000143041F20303ADF8183041F20403ADF861
:103620001A3004AB07930123ADF8203006AB1946DE
:103630000F482CF0DEFC0990099B002B0CD00D48A4
:103640002DF014FD0246099B0093E6230A4902204F
:103650002DF04EFD099B00E0002318460BB05DF8ED
:1036600004FB00BF3C890500CC4F0020C84F002060
:10367000AC4F002034870500B888050000B58BB03A
:10368000039005AB08220021184632F0BEFA2A4901
:1036900004202DF0F1FC05AB284A41F2040141F26F
:1036A00003002CF015FD0990099B002B0CD0244839
:1036B0002DF0DCFC0246099B0093F72321490220F0
:1036C0002DF016FD099B33E007AB19461B482CF083
:1036D00005FC0990099B002B0CD019482DF0C6FC65
:1036E0000246099B0093FA23164902202DF000FDA3
:1036F000099B1DE0089B0C221946134832F05CFA26
:103700000E482CF027FC0990099B002B0CD00C488C
:103710002DF0ACFC0246099B0093FF2309490220CF
:103720002DF0E6FC099B03E0039B084A1A60002386
:1037300018460BB05DF804FB6C890500AC4F002007
:1037400034870500B8880500C84F0020CC4F002002
:1037500000B593B005900491039202938D49032024
:103760002DF08AFC059B002B01D10E230DE1039B5C
:10377000002B01D10E2308E187482CF019FB119092
:10378000119B002B0DD085482DF070FC0246119B3B
:1037900000934FF48A73824902202DF0A9FC119BFB
:1037A000F3E02CF025FB1190119B002B0FD07B48F0
:1037B0002DF05CFC0246119B009340F217137849F0
:1037C00002202DF095FC119BDFE029F0E3FB754B07
:1037D0001B7883F00103DBB2002BF6D1724B1B7810
:1037E00083F00103DBB2002BEFD10498FFF78EFECC
:1037F0001190119B0A2B45D16C4903202DF03CFC04
:103800000C2205996A4832F0D7F96A4B42221A60B5
:10381000684B0C930423ADF8343041F20103ADF84A
:10382000383041F20203ADF83A300CAB0F9301236C
:10383000ADF84030604B00221A700EAB19465F485D
:103840002CF0C8FB1190119B002B0DD053482DF08C
:103850000DFC0246119B009340F2351350490220A3
:103860002DF046FC119B90E0049B514A1A6001E048
:1038700029F090FB504B1B7883F00103DBB2002B47
:10388000F6D110E0119B002B0DD044482DF0EEFB3B
:103890000246119B00934FF4A073414902202DF082
:1038A00027FC119B71E00298FFF7E8FE1190119B35
:1038B0000A2B58D1039B1B889BB21946039B5B883C
:1038C0009BB21846039B9B889BB21A46039BDB88DE
:1038D0009BB20193009203460A46394903202DF01A
:1038E00020FC08220399374832F066F9364B422211
:1038F0001A60354B07930323ADF8203041F20303E0
:10390000ADF8243041F20403ADF8263007AB0A933A
:103910000123ADF82C302D4B00221A7009AB19464B
:103920002B482CF057FB1190119B002B0DD01B48FE
:103930002DF09CFB0246119B00934FF4AD73184988
:1039400002202DF0D5FB119B1FE0029B1D4A1A603F
:1039500001E029F01FFB1D4B1B7883F00103DBB254
:10396000002BF6D110E0119B002B0DD00B482DF051
:103970007DFB0246119B009340F26513084902202B
:103980002DF0B6FB119B00E00023184613B05DF844
:1039900004FB00BF9889050041330200348705000D
:1039A000B8880500D54F0020D74F0020C4890500F6
:1039B000BC4F0020B84F0020D44F0020A04F002063
:1039C000F8890500CC4F0020C84F0020D64F0020BA
:1039D000AC4F002000B589B00190019B002B01D1B4
:1039E0000E2327E0019B1B889BB2ADF80C30019B96
:1039F0005B889BB2ADF80E30019B9B889BB2ADF803
:103A00001030019BDB889BB2ADF81230019B1B7A12
:103A10008DF8143003AB18460DF0F6FB0790079BAA
:103A20000693069B002B04D0044A4C21069829F0EB
:103A30002FF90023184609B05DF804FB608A0500E1
:103A400000B59BB0039001921A460B468DF80B30DF
:103A50001346ADF808309DF80B300B2B00F21382A3
:103A600001A252F823F000BF1F3E0200993A020063
:103A7000F73A0200553B0200AF3B02000D3C02004A
:103A8000673C0200C13C02001B3D0200993D020060
:103A9000EF3D0200013E0200039B93F866301A4698
:103AA000B44903202DF0F9FA039B93F86630002BFC
:103AB00010D04FF480700DF0F7F91990199B1893FE
:103AC000189B002B00F0E181AB4A6021189829F087
:103AD000DFF8DAE14FF480700DF00EFB1990199BBE
:103AE0001793179B002B00F0D081A34A65211798EC
:103AF00029F0CEF8C9E1039B93F867301A469F4935
:103B000003202DF0CAFA039B93F86730002B10D0E6
:103B10004FF400700DF0C8F91990199B1693169B7D
:103B2000002B00F0B481944A6E21169829F0B0F869
:103B3000ADE14FF400700DF0DFFA1990199B159369
:103B4000159B002B00F0A3818B4A7321159829F057
:103B50009FF89CE1039B93F868301A46884903203C
:103B60002DF09BFA039B93F86830002B0FD00820B0
:103B70000DF09AF91990199B1493149B002B00F0E7
:103B800088817D4A7C21149829F082F881E10820FF
:103B90000DF0B2FA1990199B1393139B002B00F0B0
:103BA0007881754A8121139829F072F871E1039B9D
:103BB00093F869301A46734903202DF06EFA039B7F
:103BC00093F86930002B10D04FF480600DF06CF941
:103BD0001990199B1293129B002B00F05C81664A8E
:103BE0008A21129829F054F855E14FF480600DF0C5
:103BF00083FA1990199B1193119B002B00F04B81B4
:103C00005D4A8F21119829F043F844E1039B93F812
:103C10006A301A465C4903202DF03FFA039B93F863
:103C20006A30002B0FD007200DF03EF91990199B38
:103C30001093109B002B00F030814F4A9821109870
:103C400029F026F829E107200DF056FA1990199B62
:103C50000F930F9B002B00F02081474A9D210F9866
:103C600029F016F819E1039B93F86B301A4647497F
:103C700003202DF012FA039B93F86B30002B0FD02A
:103C800010200DF011F91990199B0E930E9B002B2B
:103C900000F00581384AA6210E9828F0F9FFFEE0D1
:103CA00010200DF029FA1990199B0D930D9B002BF4
:103CB00000F0F580304AAB210D9828F0E9FFEEE0E6
:103CC000039B93F86C301A46314903202DF0E5F937
:103CD000039B93F86C30002B0FD020200DF0E4F8FC
:103CE0001990199B0C930C9B002B00F0DA80224A50
:103CF000B4210C9828F0CCFFD3E020200DF0FCF983
:103D00001990199B0B930B9B002B00F0CA801A4A49
:103D1000B9210B9828F0BCFFC3E0039B93F86D30EA
:103D20001A461C4903202DF0B8F9039B93F86D3017
:103D3000002B0FD040200DF0B7F81990199B0A9373
:103D40000A9B002B00F0AF800B4AC2210A9828F092
:103D50009FFFA8E040200DF0CFF91990199B09931F
:103D6000099B002B00F09F80034AC721099828F087
:103D70008FFF98E0A88A0500608A0500F48A050094
:103D8000488B0500948B0500E48B0500308C050002
:103D90007C8C0500CC8C0500039B93F86E301A4692
:103DA000454903202DF079F9039B93F86E30002BE1
:103DB0000ED080200DF078F81990199B0893089B7D
:103DC000002B72D03D4AD021089828F061FF6CE0AA
:103DD00080200DF091F91990199B0793079B002BF8
:103DE00063D0364AD521079828F052FF5DE0039B47
:103DF00093F86F301A46324903202DF04EF957E000
:103E0000BDF80830039A0199184603F065FFBDF824
:103E100008301A460021019831F0F7FE48E0BDF85D
:103E200008301A46274903202DF037F9BDF808302D
:103E3000092B0CBF01230023DBB20693069B002B4A
:103E400004D11E4AF021002028F022FF019800F042
:103E500031FF1990199B0593059B002B04D0174A3D
:103E6000F321059828F014FF0198FFF7B3FD19908E
:103E7000199B0493049B002B19D0104AF621049837
:103E800028F006FF13E000BF12E000BF10E000BF03
:103E90000EE000BF0CE000BF0AE000BF08E000BF7A
:103EA00006E000BF04E000BF02E000BF00E000BF8A
:103EB00000BF1BB05DF804FB1C8D0500608A050087
:103EC0006C8D0500BC8D050000B589B003468DF8EA
:103ED0000F303249324800F0A5FF0790079B002BB6
:103EE0000DD030482DF0C2F80246079B009340F2F7
:103EF0000D132D4902202DF0FBF8079B49E09DF89A
:103F00000F30002B0ED0264800F0D4FE0790079B00
:103F10000693069B002B05D0224A4FF48971069820
:103F200028F0B6FE1D4B1B681846FFF753FD07909F
:103F3000079B002B0DD01B482DF098F80246079BDD
:103F400000934FF48B73184902202DF0D1F8079B92
:103F50001FE004AB08220021184631F056FE0F4B3B
:103F60001B680493114B0593114903202DF084F82D
:103F700004AB19460F4823F017F80790079B002B56
:103F800006D0079A0C4901202DF087F8079B00E026
:103F90000023184609B05DF804FB00BF5450002010
:103FA000548A0500608A05000C8E0500413A020023
:103FB000608E0500D84F0020A08E050000B585B0AA
:103FC000019001990D4822F0BFFF019B1B88112B26
:103FD0000FD140F6FF700DF08FF80390039B029312
:103FE000029B002B05D0064A40F23711029828F0B8
:103FF0004FFE00BF05B05DF804FB00BFD84F0020A6
:10400000608A05002DE9F047BAB002AFF860B960E8
:104010007A60FB681B78082B00F2718501A252F8C8
:1040200023F000BF49400200FD4402005545020054
:10403000DF4502006B480200BB480200E74902006E
:104040003D4A0200AD4A02007B68242B0CBF0123CD
:104050000023DBB2C7F8D830D7F8D830002B05D111
:104060001F4A4FF4A171002028F012FEBB68C7F868
:10407000D430002387F8DD3064E097F8DD309B0012
:10408000D7F8D42013441B681B14A7F8D23097F834
:10409000DD30144A32F91330B7F9D2209A4225DBC9
:1040A00097F8DD10B7F9D20097F8DD300D4A32F9F4
:1040B0001330009303460A460B4902202DF018F8EE
:1040C00097F8DD30074A32F91330194697F8DD309A
:1040D0009B00D7F8D42013440A041A602DE000BFD7
:1040E000608A0500D4930500CC8E050097F8DD307A
:1040F000C54A32F91330B7F9D2209A421DDA97F83F
:10410000DD10B7F9D20097F8DD30BF4A32F913302D
:10411000009303460A46BD4902202CF0E9FF97F8B8
:10412000DD30B94A32F91330194697F8DD309B007B
:10413000D7F8D42013440A041A6097F8DD3001330D
:1041400087F8DD3097F8DD30082B96D9D7F8D430D2
:104150001B689B111BB2A7F86430D7F8D430043326
:104160001B689B111BB2A7F86630D7F8D430083310
:104170001B689B111BB2A7F86830D7F8D4300C33FA
:104180001B68DB121BB2A7F86A30D7F8D4301033A3
:104190001B68DB121BB2A7F86C30D7F8D43014338D
:1041A0001B68DB121BB2A7F86E30D7F8D430183377
:1041B0001B681B139BB25B429BB21BB2A7F8723009
:1041C000D7F8D4301C331B681B131BB2A7F8703010
:1041D000D7F8D43020331B681B131BB2A7F87430F8
:1041E0008B4904202CF048FFD7F8D4301B681846C0
:1041F0002EF0B8FE03460C46C7E932344FF00002F9
:10420000844BD7E932012FF03DFA03460C46C7E94B
:10421000323407F15C00D7E932237F4931F000FBEB
:1042200007F15C0318462CF021FF03461A467B4930
:1042300004202CF032FFD7F8D43004331B68184622
:104240002EF090FE03460C46C7E932344FF00002D0
:10425000704BD7E932012FF015FA03460C46C7E937
:10426000323407F15C00D7E932236B4931F0D8FAD8
:1042700007F15C0318462CF0F9FE03461A4668491C
:1042800004202CF00AFFD7F8D43008331B681846F6
:104290002EF068FE03460C46C7E932344FF00002A8
:1042A0005C4BD7E932012FF0EDF903460C46C7E924
:1042B000323407F15C00D7E93223574931F0B0FAC4
:1042C00007F15C0318462CF0D1FE03461A46554907
:1042D00004202CF0E2FED7F8D4300C331B681846CB
:1042E0002EF040FE03460C46C7E932344FF0000280
:1042F000484BD7E932012FF0C5F903460C46C7E910
:10430000323407F15C00D7E93223434931F088FAAF
:1043100007F15C0318462CF0A9FE03461A464249F1
:1043200004202CF0BAFED7F8D43010331B6818469E
:104330002EF018FE03460C46C7E932344FF0000257
:10434000344BD7E932012FF09DF903460C46C7E9FB
:10435000323407F15C00D7E932232F4931F060FA9B
:1043600007F15C0318462CF081FE03461A462F49DC
:1043700004202CF092FED7F8D43014331B68184672
:104380002EF0F0FD03460C46C7E932344FF0000230
:10439000204BD7E932012FF075F903460C46C7E9E7
:1043A000323407F15C00D7E932231B4931F038FA87
:1043B00007F15C0318462CF059FE03461A461C49C7
:1043C00004202CF06AFED7F8D4301C331B68184642
:1043D0002EF0C8FD03460C46C7E932344FF0000208
:1043E0000C4BD7E932012FF04DF903460C46C7E9D3
:1043F000323407F15C00D7E93223074931F010FA73
:1044000007F15C03184615E0E8930500188F0500D6
:10441000648F05000000F040948F05009C8F05001C
:10442000CC8F0500FC8F05002C90050060900500E6
:10443000949005002CF01AFE03461A46BC4904204D
:104440002CF02BFED7F8D43018331B6818462EF00A
:1044500089FD03460C461A46C7F8C82084F000437D
:10446000C7F8CC304FF00002B24BD7E932012FF041
:1044700009F903460C46C7E9323407F15C00D7E975
:104480003223AD4931F0CCF907F15C0318462CF02A
:10449000EDFD03461A46A94904202CF0FEFDD7F88D
:1044A000D43020331B6818462EF05CFD03460C46C2
:1044B000C7E932344FF000029E4BD7E932012FF0AA
:1044C000E1F803460C46C7E9323407F15C00D7E94E
:1044D0003223994931F0A4F907F15C0318462CF016
:1044E000C5FD03461A46964904202CF0D6FD07F177
:1044F00064031946934822F043FF05E37B68102BC1
:104500000CBF01230023DBB2C7F8C430D7F8C43096
:10451000002B05D18C4A40F2BF11002028F0B8FBD7
:10452000BB68C7F8C030D7F8C0301B68FB64D7F849
:10453000C0305B683B65D7F8C0309B687B65D7F8B7
:10454000C030DB68BB6507F14C0319467D4822F09B
:1045500091FED9E27B680C2B0CBF01230023DBB258
:10456000C7F8BC30D7F8BC30002B05D1764A40F2F2
:10457000E111002028F08CFBBB68C7F8B830D7F8F1
:10458000B8301B683B64D7F8B8305B687B64D7F8F9
:10459000B8309B68BB643B6C002B02DA03F57F43A9
:1045A000FF331B141A467B6C002B02DA03F57F43A2
:1045B000FF331B141946BB6C002B02DA03F57F4353
:1045C000FF331B1400930B46604904202CF090FD30
:1045D00007F1400319465B4822F015FF94E26B4651
:1045E0009A467B68242B0CBF01230023DBB2C7F85B
:1045F000B430D7F8B430002B05D1534A4FF4F971D9
:10460000002028F045FBBB68C7F8B030D7F8B030C1
:104610001B681B141BB2BB85D7F8B03004331B6872
:104620001B141BB2FB85D7F8B03008331B681B1472
:104630001BB23B86D7F8B0300C331B681B141BB27F
:104640007B86D7F8B03010331B681B141BB2BB86B7
:10465000D7F8B03014331B681B141BB2FB86D7F895
:10466000B03018331B681B141BB23B87D7F8B0302F
:104670001C331B681B141BB27B87D7F8B030203368
:104680001B681B141BB2BB87314B1B78013BC7F85F
:10469000AC302F4B1B78D9B24FF000020B461446BA
:1046A00013EB030844EB040943464C465B1842EB0A
:1046B00004044FF000014FF00002220142EA13729D
:1046C00019010B461446224B1B781A4613465B0011
:1046D00013445B001E4B1B78D9B24FF000020B460F
:1046E0001446DD1844EB04062B4634465B1842EBB7
:1046F00004044FF000014FF00002220142EA13725D
:1047000019010B461446124B1B781A4613465B00E0
:1047100013445B000733DB08DB00ADEB030D02AB9A
:104720000033C7F8A830002387F8DE3038E000BF38
:10473000C89005000000F040948F0500F890050037
:1047400028910500D84F0020608A05005891050087
:10475000FA93050097F8DE309B00D7F8B020134499
:104760001B6818462EF0FEFB4FF00002C24B2EF0E5
:1047700089FF03460C46C7E9283497F8DE20134624
:104780005B0013445B00D7F8A820D018D7E9282392
:10479000BA4931F045F897F8DE30013387F8DE305A
:1047A000B74B1B7897F8DE209A42D3D3B549042043
:1047B0002CF062FCD7F8A83018462CF057FC0446C1
:1047C000D7F8A830063318462CF050FC0546D7F829
:1047D000A8300C3318462CF049FC034600932B46B6
:1047E0002246A94904202CF083FCD7F8A8301233C4
:1047F00018462CF03BFC0446D7F8A830183318466E
:104800002CF034FC0546D7F8A8301E3318462CF09F
:104810002DFC034600932B4622469B4904202CF096
:1048200067FCD7F8A830243318462CF01FFC044648
:10483000D7F8A8302A3318462CF018FC0546D7F8CC
:10484000A830303318462CF011FC034600932B4659
:1048500022468D4904202CF04BFC07F12C0319460D
:104860008A4822F013FED5464EE17B68042B0CBF2C
:1048700001230023DBB2C7F89C30D7F89C30002B13
:1048800005D1834A40F21721002028F001FABB68C5
:104890001B68BB62BB6A002B02DA03F57F43FF3360
:1048A0001B141A467B4904202CF0F7FB07F1280360
:1048B0001946764822F02DFE26E16B461D467B68A0
:1048C0000C2B0CBF01230023DBB2C7F89830D7F8BC
:1048D0009830002B05D16E4A40F22221002028F0AA
:1048E000D7F9BB68C7F89430D7F894301B68FB61E0
:1048F000D7F894305B683B62D7F894309B687B6252
:10490000654B1B78013BC7F89030634B1B78D9B2DD
:104910004FF000024FF000034FF00004940144EA0E
:1049200091648B015C4B1B78D9B24FF000024FF0C1
:1049300000034FF00004940144EA91648B01564B4C
:104940001B78DB000733DB08DB00ADEB030D02ABAC
:104950000033C7F88C30002387F8DF301AE097F86F
:10496000DF30DB00D7F88C20D41897F8DF309B00BD
:10497000D7F8942013441B6818462EF02FFC0246EB
:104980000B464649204630F04BFF97F8DF300133A5
:1049900087F8DF30404B1B7897F8DF209A42DED350
:1049A000D7F88C3018462CF061FB0446D7F88C30D1
:1049B000083318462CF05AFB0646D7F88C301033D3
:1049C00018462CF053FB03460093334622463449E5
:1049D00004202CF08DFB07F11C0319462B4822F014
:1049E000DCFDAD4690E07B68022B0CBF0123002369
:1049F000DBB2C7F88830D7F88830002B05D1244ABD
:104A000040F23F21002028F043F9BB68C7F884300A
:104A1000D7F884301B783B76D7F884305B787B7688
:104A20007B7E1A463B7E1F4904202CF04AFB07F18F
:104A300018031946154822F097FB65E07B68012BA7
:104A40000CBF01230023DBB2C7F88030D7F88030D9
:104A5000002B05D10E4A4FF41471002028F018F9EC
:104A6000BB681B781A46104904202CF016FBB96865
:104A7000064822F0BCFB47E00000D041BC91050095
:104A8000FA930500C4910500F8910500D84F002065
:104A9000608A050020920500FB93050060920500E6
:104AA00068920500B4920500EC9205007B68082B23
:104AB0000CBF01230023DBB2FB67FB6F002B05D18A
:104AC000144A40F25A21002028F0E2F8BB68BB6784
