:020000021000EC
:10F000000000012033F10100D9F00100DBF0010024
:10F01000DDF00100DFF00100E1F001000000000080
:10F02000000000000000000000000000E3F001000C
:10F03000E5F0010000000000E7F00100E9F0010048
:10F0400029B00400EDF00100EFF0010089A30400F5
:10F05000F3F00100891F05009192040009B3040038
:10F06000FBF00100FDF00100FFF0010001F10100E3
:10F0700003F10100EDC1040007F1010009F10100F5
:10F080000BF1010009D804000FF1010011F101009A
:10F0900049D8040015F10100110B050019F1010018
:10F0A0001BF101001DF1010095C30400F11C0500D6
:10F0B000A1AC0400A5BD0400000000000000000099
:10F0C00027F1010029F101002BF101002DF10100D0
:08F0D0002FF1010031F10100F4
:10F0D800FEE7FEE7FEE7FEE7FEE7FEE7FEE7FEE700
:10F0E800FEE7FEE7FEE7FEE7FEE7FEE7FEE7FEE7F0
:10F0F800FEE7FEE7FEE7FEE7FEE7FEE7FEE7FEE7E0
:10F10800FEE7FEE7FEE7FEE7FEE7FEE7FEE7FEE7CF
:10F11800FEE7FEE7FEE7FEE7FEE7FEE7FEE7FEE7BF
:10F12800FEE7FEE7FEE7FEE7FEE70348854600F058
:10F13800C5F800F003B87047000001203749384887
:10F148000A1A02D0072291438D46364936480A1AD0
:10F1580006D00722914381F30988022282F314889A
:10F1680032483349334A00F048F833483349344A7F
:10F1780000F043F833483449344A00F03EF8344844
:10F188003449354A00F039F834483549354A00F0F1
:10F1980034F835483549364A00F02FF835483649AD
:10F1A800364A00F02AF836483649374A00F025F83A
:10F1B80036483749002200F02BF8364836490022F5
:10F1C80000F026F835483649091A082903DB0022D9
:10F1D8000260043001601F481F49884205D0026858
:10F1E800043003B4904703BCF7E700208646EC469A
:10F1F800002000212B4A9047FEE7884207D0521A88
:10F2080005D0037801300B700131013AF9D170470C
:10F21800884202D002700130FAE7704700000120EE
:10F2280000FC00200000012000000120003B060037
:10F238005845002078460020B0F20100B0F20100E5
:10F2480008690500003B0600584500205845002085
:10F2580008690500086905000869050008690500CE
:10F2680008690500086905000869050008690500BE
:10F27800003B0600203C0600784600207846002027
:10F28800203C06007846002088460020884600205A
:10F2980038A1002038A1002040A1002040A1002072
:08F2A80040A5002089FD0100D2
:10F2B000024B034A1A6000BF704700BF5845002048
:10F2C0000090D00308B500F00DF90346002B06D0DE
:10F2D000744B1B681B0A744A03F01F03136000F091
:10F2E0002DF90346002B02D0704B714A1A6000F0D2
:10F2F00041F90346002B06D06E4B1B685B0B6E4A30
:10F3000003F00703136000F061F90346002B05D0FA
:10F310006A4BDB68694A23F08073D36000F072F9AE
:10F320000346002B0ED04FF080430022C3F80C217F
:10F330004FF080430022C3F810214FF08043002299
:10F34000C3F8382500F08AF90346002B02D05C4B45
:10F3500003221A6000F09EF90346002B0BD0594B94
:10F3600005221A60584B01221A60584B00221A607D
:10F37000574B3F221A6000F0A9F90346002B76D0C4
:10F380004FF08053534AD3F80434C2F820354FF07D
:10F390008053504AD3F80834C2F824354FF08053D4
:10F3A0004C4AD3F80C34C2F828354FF08053494A00
:10F3B000D3F81034C2F82C354FF08053454AD3F8B7
:10F3C0001434C2F830354FF08053424AD3F8183421
:10F3D000C2F834354FF080533E4AD3F81C34C2F89B
:10F3E00040354FF080533B4AD3F82034C2F84435BF
:10F3F0004FF08053374AD3F82434C2F848354FF0E1
:10F400008053344AD3F82834C2F84C354FF0805337
:10F41000304AD3F82C34C2F850354FF080532D4A7F
:10F42000D3F83034C2F854354FF08053294AD3F81A
:10F430003434C2F860354FF08053264AD3F838345C
:10F44000C2F864354FF08053224AD3F83C34C2F8F6
:10F4500068354FF080531F4AD3F84034C2F86C35FA
:10F460004FF080531B4AD3F84434C2F8703500F093
:10F4700049F90346002B05D0174B1B68174A03F0C8
:10F480004F031360164BD3F88830154A43F47003CA
:10F49000C2F88830BFF34F8FBFF36F8FFFF708FFBD
:10F4A00000BF08BD240300104035014074C0074070
:10F4B0000DF0ADBA440200103C050040F0ED00E054
:10F4C000A0050040105600408856004018560040E5
:10F4D0001456004000C0004058020010E40E0040E6
:10F4E00000ED00E0124B1B68DBB2062B1DD1114B67
:10F4F0001B6803F00F03002B17D10F4B1B6803F0A1
:10F50000F003302B01D1012310E00B4B1B6803F0FB
:10F51000F003402B01D1012308E0074B1B6803F0E7
:10F52000F003502B01D1012300E00023184670475F
:10F53000E00F00F0E40F00F0E80F00F00A4B1B684A
:10F54000DBB2062B0DD1094B1B6803F00F03002B18
:10F5500007D1074B1B6803F0F003302B01D10123C7
:10F5600000E0002318467047E00F00F0E40F00F0C1
:10F57000E80F00F0124B1B68DBB2062B1DD1114BBC
:10F580001B6803F00F03002B17D10F4B1B6803F010
:10F59000F003302B01D1012310E00B4B1B6803F06B
:10F5A000F003402B01D1012308E0074B1B6803F057
:10F5B000F003502B01D1012300E0002318467047CF
:10F5C000E00F00F0E40F00F0E80F00F00A4B1B68BA
:10F5D000DBB2062B0DD1094B1B6803F00F03002B88
:10F5E00007D1074B1B6803F0F003302B01D1012337
:10F5F00000E0002318467047E00F00F0E40F00F031
:10F60000E80F00F0124B1B68DBB2062B1DD1114B2B
:10F610001B6803F00F03002B17D10F4B1B6803F07F
:10F62000F003302B01D1012310E00B4B1B6803F0DA
:10F63000F003402B01D1012308E0074B1B6803F0C6
:10F64000F003502B01D1012300E00023184670473E
:10F65000E00F00F0E40F00F0E80F00F00A4B1B6829
:10F66000DBB2062B0DD1094B1B6803F00F03002BF7
:10F6700007D1074B1B6803F0F003302B01D10123A6
:10F6800000E0002318467047E00F00F0E40F00F0A0
:10F69000E80F00F00A4B1B68DBB2062B0DD1094BBB
:10F6A0001B6803F00F03002B07D1074B1B6803F007
:10F6B000F003302B01D1012300E0002318467047EE
:10F6C000E00F00F0E40F00F0E80F00F00A4B1B68B9
:10F6D000DBB2062B0DD1094B1B6803F00F03002B87
:10F6E00007D1074B1B6803F0F003502B01D1012316
:10F6F00000E0002318467047E00F00F0E40F00F030
:10F70000E80F00F0124B1B68DBB2062B1DD1114B2A
:10F710001B6803F00F03002B17D10F4B1B6803F07E
:10F72000F003302B01D1012310E00B4B1B6803F0D9
:10F73000F003402B01D1012308E0074B1B6803F0C5
:10F74000F003502B01D1012300E00023184670473D
:10F75000E00F00F0E40F00F0E80F00F00048704701
:10F7600030A1002082B003468DF807309DF80730A5
:10F7700003F01F0206499DF907305B09012000FADA
:10F7800002F2603341F8232000BF02B0704700BF8F
:10F7900000E100E0BFF34F8F054BDB6803F4E0624C
:10F7A0000349044B1343CB60BFF34F8F00BFFDE70A
:10F7B00000ED00E00400FA0532DF704700BF184694
:10F7C0003EDF704700BF184682B001904FF0A04363
:10F7D000184602B0704700B585B001900846114642
:10F7E0001A4603468DF803300B468DF80230134657
:10F7F0008DF8013001AB1846FFF7E6FF03909DF846
:10F8000003209DF802305B001A439DF801309B00F5
:10F810001A439DF818301B0242EA03019DF81C3080
:10F820001B04019A1943039B02F5E07243F822106E
:10F8300000BF05B05DF804FB00B585B003900B4632
:10F840008DF80B3013468DF80A309DF80B209DF88B
:10F850000A300193002300931346002200210398ED
:10F86000FFF7B9FF00BF05B05DF804FB84B001905D
:10F87000244B0393019B002B40D0234B1A68039920
:10F88000019B00BF00BF00BF00BF00BF00BF00BFA3
:10F8900000BF8A422FD000BF00BF00BF00BF00BF23
:10F8A00000BF00BF00BF00BF00BF00BF00BF00BF60
:10F8B00000BF00BF00BF00BF00BF00BF00BF00BF50
:10F8C00000BF00BF00BF00BF00BF00BF00BF00BF40
:10F8D00000BF00BF00BF00BF00BF00BF00BF00BF30
:10F8E00000BF00BF00BF00BF00BF00BF00BF00BF20
:10F8F00000BF00BF00BF013BC3D1019300BF04B0F4
:10F90000704700BF0024F4005845002000B583B0C4
:10F910000190019B4FF47A7202FB03F31846FFF744
:10F92000A5FF00BF03B05DF804FB000070B58AB00E
:10F93000079006910592059B0993099B5B68184601
:10F9400031F00AFA0546099B1B881E46099B9C68F4
:10F95000099B9B68184631F0E3FD0346184631F0D9
:10F96000FBF903460393029401960095069B079AC0
:10F970000849012031F066FA022005F04FFE05200B
:10F98000FFF7C4FF059A069907982DF013F800BFFA
:10F990000AB070BD8069050000B587B0F1EE103A7D
:10F9A0000193019B23F09F030293029BE1EE103A27
:10F9B000F1EE103A03932620FFF7D4FEFFF700FF85
:10F9C0000590059B0493049B002B04D0044AB921A5
:10F9D00004982CF0D7FF00BF07B05DF804FB00BF10
:10F9E000146A050000B589B00390039B5B881A4632
:10F9F000039B1B791946039B1B7800930B462049F8
:10FA0000032031F0EBF9039B002B34D0039B1B78D0
:10FA1000012B30D107F0E6FF0790079B0693069B6A
:10FA2000002B04D0174ACB2106982CF0ABFF022202
:10FA300000210D20FFF700FF1349022031F092F959
:10FA4000FFF7BAFE079007F0ABFD034683F0010312
:10FA5000DBB2002B0AD0079B0593059B002B0AD035
:10FA6000084AD82105982CF08DFF04E007490220B0
:10FA700031F078F9FEE700BF09B05DF804FB00BF84
:10FA80002C6B0500146A0500746B0500F06A050014
:10FA900000B583B00190019B1B78012B08D0022B8D
:10FAA00010D0002B15D10D49032031F05BF910E087
:10FAB0000B49032031F056F90520FFF727FFFFF728
:10FAC00069FE06E00749032031F04CF9FFF762FEBA
:10FAD00000BF00BF03B05DF804FB00BFD86B05009A
:10FAE000146C0500546C050000B59BB001AB2422DA
:10FAF0000021184635F001FF1C238DF80A3005233C
:10FB00008DF80B300D238DF80C3011238DF80D304E
:10FB100001238DF80E3004238DF80F3040F61C437E
:10FB2000ADF8103041F25E03ADF81230594B059339
:10FB3000594B06936F23ADF81C3040F61C43ADF8CB
:10FB40001E300A238DF82030544B09930F2006F005
:10FB5000AFFD1990199B1893189B002B05D0504AA4
:10FB60004FF4897118982CF00DFF4E4B0F930FAB8B
:10FB700019464D4805F0F4FD1990199B1793179BF2
:10FB8000002B05D0464A4FF48C7117982CF0FAFEE2
:10FB9000444B0E930EAB1946444803F0EBFA199010
:10FBA000199B1693169B002B05D03D4A4FF48F717D
:10FBB00016982CF0E7FE3B4B0D930DAB19463C48D5
:10FBC00004F0B0FF1990199B1593159B002B05D0DD
:10FBD000334A40F2251115982CF0D4FE354806F032
:10FBE000ABF91990199B1493149B002B05D02C4A48
:10FBF0004FF4947114982CF0C5FE2F4B019301AB78
:10FC000019462E4807F0AAFA1990199B1393139BD3
:10FC1000002B05D0224A40F22D1113982CF0B2FE91
:10FC200041F2883007F01AFA1990199B1293129B2F
:10FC3000002B05D01A4A4FF4987112982CF0A2FEAE
:10FC40001F4B0A93194B0B9305230C930AAB1846D1
:10FC500001F090FC1990199B1193119B002B05D07A
:10FC60000F4A4FF49C7111982CF08CFE012005F086
:10FC7000D5FC1990199B1093109B002B05D0084AB6
:10FC800040F23B1110982CF07DFE00BF1BB05DF8D8
:10FC900004FB00BF60E3160020BF020008690500F6
:10FCA000146A0500786905009846002088460020FF
:10FCB00090460020A0460020E5F90100A84600205B
:10FCC00091FA010000B585B00C4B019301AB1846C9
:10FCD00007F036FE0390039B0293029B002B05D096
:10FCE000074A4FF4AF7102982CF04CFE6420FFF7E6
:10FCF0000DFE00BF05B05DF804FB00BFD06C050031
:10FD0000146A050000B589B01C4B02931C4B039389
:10FD100002AB18460AF034FD0790079B0693069B3A
:10FD2000002B05D0174A40F2751106982CF02AFED8
:10FD3000124B0093124B01936B4618460AF0B4FD28
:10FD40000790079B0593059B002B05D00D4A40F2B9
:10FD50007B1105982CF016FE0AF018FF0790079B00
:10FD60000493049B002B05D0064A4FF4BF710498FE
:10FD70002CF008FE00BF09B05DF804FB78690500AF
:10FD8000EC6C0500146A050000B587B0002030F067
:10FD900093FF0590059B0493049B002B05D01B4A01
:10FDA0004FF4D67104982CF0EDFD1949032030F082
:10FDB000D9FF184A3C2108202CF0A0FE0390039B99
:10FDC0000293029B002B05D0104A4FF4D971029880
:10FDD0002CF0D8FD2DF03EFD0590059B0193019B75
:10FDE000002B05D0094A4FF4DA7101982CF0CAFDB6
:10FDF000FFF768FFFFF778FEFFF784FF07F01AFEB2
:10FE00002CF042FFFFF7C8FDFAE700BF146A0500B7
:10FE1000906C0500B04600206DDF704700BF1846AB
:10FE200076DF704700BF18467ADF704700BF18467C
:10FE30007CDF704700BF18467FDF704700BF184661
:10FE40008FDF704700BF18469EDF704700BF18461F
:10FE5000A9DF704700BF1846ADDF704700BF1846E6
:10FE600069DF704700BF184666DF704700BF18465D
:10FE700031DF704700BF18463DDF704700BF1846AE
:10FE800084B00190244B0393019B002B40D0234B63
:10FE90001A680399019B00BF00BF00BF00BF00BFED
:10FEA00000BF00BF00BF8A422FD000BF00BF00BF0D
:10FEB00000BF00BF00BF00BF00BF00BF00BF00BF4A
:10FEC00000BF00BF00BF00BF00BF00BF00BF00BF3A
:10FED00000BF00BF00BF00BF00BF00BF00BF00BF2A
:10FEE00000BF00BF00BF00BF00BF00BF00BF00BF1A
:10FEF00000BF00BF00BF00BF00BF00BF00BF00BF0A
:10FF000000BF00BF00BF00BF00BF013BC3D10193D2
:10FF100000BF04B0704700BF0024F4005845002023
:10FF200000B583B00190019B4FF47A7202FB03F39A
:10FF30001846FFF7A5FF00BF03B05DF804FB000003
:10FF400000B583B001900091009B1B78012B09D074
:10FF5000022B02D0002B0AD00EE00C49032030F017
:10FF600001FF0EE00A49032030F0FCFE09E00949D8
:10FF7000032030F0F7FE04E00749022030F0F2FEE3
:10FF800000BF00BF03B05DF804FB00BF206F050099
:10FF9000606F05009C6F0500DC6F050000B585B043
:10FFA0000023019301AB18462EF068F803468DF844
:10FFB0000F309DF80F300293029B002B04D0074AAC
:10FFC000842102982CF0DEFC019B002B14BF01233E
:10FFD0000023DBB2184605B05DF804FB187005007D
:10FFE00000B589B003900B468DF80B3000238DF8D7
:10FFF00017300DF1170318462CF094F800238DF8F4
:020000022000DC
:100000001F3016E09DF81F3001338DF81F302E4948
:10001000022030F0A7FE0DF1170318462CF082F8ED
:100020000520FFF77DFF9DF81F30052B01D90D231B
:1000300045E09DF817309DF80B209A42E2D89DF8D4
:1000400017301A462149032030F09DFE9DF80B30F1
:10005000194603982CF082F80690069B002B0CD0D2
:100060001B4830F079FE0246069B0093A3231949F2
:10007000022030F0B3FE069B21E01749032030F048
:1000800071FE00238DF81E300EE09DF81E30039A9D
:1000900013441B781A461149132030F074FE9DF862
:1000A0001E3001338DF81E309DF81E209DF80B3058
:1000B0009A42EAD30A49132030F054FE002318462E
:1000C00009B05DF804FB00BF5C700500AC70050072
:1000D00018700500E47005003871050068710500AE
:1000E0007071050010B586B09DF804306FF30303FE
:1000F0008DF804309DF804306FF307138DF8043049
:10010000474B1B681C46464B1B68184635F071FC74
:1001100003469AB201AB21461846FFF789FE0590C7
:10012000059B0493049B002B04D03E4AC2210498F3
:100130002CF028FC02AB08220021184635F0DDFB2C
:10014000374B1B68B3F80F309BB2ADF80830344B17
:100150001B68B3F811309BB2ADF80A30304B1B6806
:10016000B3F813309BB2ADF80C302D4B1B68B3F8CD
:1001700015309BB2ADF80E3002AB1846FFF754FEB7
:100180000590059B072B41D1254B1B68002242F0AF
:100190000602DA7300221A74214B1B68002242F017
:1001A0000C025A7400229A741D4B1B680022DA74E8
:1001B00000221A751A4B1B68002242F040025A7541
:1001C000002242F001029A75154B1B68184601F097
:1001D0005FFB0590059B002B01D0059B1CE00623CF
:1001E000ADF808300C23ADF80A300023ADF80C3020
:1001F0004FF4A073ADF80E3002AB1846FFF714FEB3
:100200000590059B002B06D0059B05E0059B002B68
:1002100001D0059B00E00023184606B010BD00BFCA
:10022000D84A00201870050000B585B00190019BE8
:100230001B78002B16D11149012030F093FD104B93
:100240001B883B211846FFF7EBFD0390039B0293AD
:10025000029B002B0ED00B4A40F2011102982CF0A9
:1002600091FB07E0019B1B78012B03D1064903207A
:1002700030F078FD00BF05B05DF804FB7471050037
:100280005C45002018700500C471050000B583B0FE
:100290000190019A0649012030F075FD054A40F2AF
:1002A000151101982CF06EFB00BF03B05DF804FB44
:1002B000107205001870050000B58BB002AB1C224F
:1002C0000021184635F019FB6B460822002118461C
:1002D00035F013FB1F4B1B68B3F80F309BB2ADF822
:1002E00000301C4B1B68B3F811309BB2ADF80230E4
:1002F000184B1B68B3F813309BB2ADF80430154BA4
:100300001B68B3F815309BB2ADF806306B4602930C
:100310004FF4004303934FF47023049303238DF8A9
:1003200014300023ADF8163000238DF818300A4B36
:1003300007930A4B089302AB184622F0F9FB099089
:10034000099B002B01D0099B00E0002318460BB04D
:100350005DF804FBD84A0020290202008D02020049
:1003600000B589B003468DF807309DF80730002BA3
:1003700006D0032B20D11449032030F0F3FC1EE0FB
:100380001249032030F0EEFC02238DF80C30104BA4
:100390001B6803AA10469847032022F015FA07901D
:1003A000079B0693069B002B08D00A4A40F2531184
:1003B00006982CF0E7FA01E000BF00E000BF00BFA4
:1003C00009B05DF804FB00BF4C72050084720500A3
:1003D000804A00201870050000B58DB00190019B87
:1003E0001B88013B542B00F26F8101A252F823F0CD
:1003F000F9050200C9060200C9060200C90602008A
:10040000C9060200C9060200C9060200C9060200A8
:10041000C9060200C9060200C9060200C906020098
:10042000C9060200C9060200C9060200450502000D
:1004300067050200C9060200A7050200C9060200FE
:10044000C9060200C9060200C9060200C906020068
:10045000C9060200C9060200C9060200C906020058
:10046000C9060200C9060200C9060200C906020048
:100470008F060200BF060200C9060200C90602007C
:10048000C9060200C9060200C9060200C906020028
:10049000C9060200C9060200C9060200C906020018
:1004A000C9060200C9060200C9060200C906020008
:1004B000C9060200C9060200C9060200C9060200F8
:1004C000C9060200C9060200C9060200C9060200E8
:1004D000C90602007F060200C9060200C906020022
:1004E000C9060200C9060200C9060200C9060200C8
:1004F000C9060200C9060200C9060200C9060200B8
:10050000C9060200C9060200C9060200C9060200A7
:10051000C9060200C9060200C9060200C906020097
:10052000C9060200C9060200C9060200C906020087
:10053000C9060200D1050200C9060200C906020070
:100540001F0602006849032030F00CFC019B9A88CA
:10055000664B1A8000238DF80830654B1B6802AA91
:1005600010469847BBE0019B1B7A1A46614903205D
:1005700030F009FC5D4B4FF6FF721A80FFF70EFD5D
:100580000346002B03D05C4B01221A70A7E05A4BA4
:1005900000221A7001238DF80830554B1B6802AAFF
:1005A000104698479BE0514B188800230022852174
:1005B000FFF742FC0B900B9B0A930A9B002B00F069
:1005C00085804E4A40F283110A982CF0DBF97DE0D9
:1005D000464B1888002300220021FFF739FC0B90BE
:1005E0000B9B0993099B002B72D0444A40F289115E
:1005F00009982CF0C7F96BE03C4B1B88002118468A
:10060000FFF732FC0B900B9B0893089B002B61D0EB
:100610003A4A4FF4C77108982CF0B4F95AE0019B9C
:10062000DB881A463649032030F0ADFB019B9B88DE
:100630004FF48A711846FFF70FFC0B900B9B079342
:10064000079B002B05D02D4A4FF4CB7107982CF057
:1006500099F9019BDA882B4BA3F8012029492A48F4
:1006600024F09CFB0B900B9B0693069B002B33D036
:10067000224A4FF4CD7106982CF084F92CE0019BAE
:100680005B891A462149032030F07DFB27E0204991
:10069000032030F067FB019B9B8800220021184655
:1006A000FFF7CEFB0B900B9B0593059B002B15D002
:1006B000124A40F2A71105982CF064F90EE0154992
:1006C000032030F04FFB0AE000BF08E000BF06E067
:1006D00000BF04E000BF02E000BF00E000BF00BFB9
:1006E0000DB05DF804FB00BFBC7205005C45002046
:1006F000804A0020F8720500DF4A002018700500CB
:1007000048730500DC4A00208C4A002098730500DD
:10071000E47305003474050000B585B001900198BC
:1007200022F038FC019822F035FB0023039312E0FD
:10073000144B1A68039BDB0013445B68002B07D043
:10074000104B1A68039BDB0013445B6801989847C1
:10075000039B013303930C4B1B68039A9A42E7D324
:1007600001990A4824F05FFA019909482FF049FFDE
:100770000198FFF731FE019822F010F900BF05B093
:100780005DF804FB844A0020884A00208C4A00203F
:10079000FC4A002000B587B0019001982DF080FC44
:1007A000019805F079FE019822F014F9019B022BC3
:1007B00002D0019B032B13D1FFF7F0FB034683F01C
:1007C0000103DBB2002B0BD0074B1B78002B07D0AB
:1007D00001238DF80C30054B1B6803AA104698477F
:1007E00000BF07B05DF804FBDF4A0020804A00200C
:1007F00000B593B0A54B1B68049304A8A44B4FF419
:10080000A672A44930F0F8F81190119B1093109B38
:10081000002B05D0A04A4FF4FE7110982CF0B2F8CE
:100820000023039303AB184630F0AAF90F900F9BF7
:100830000E930E9B002B05D0974A4FF400710E9833
:100840002CF0A0F86B460C220021184635F055F824
:1008500001238DF800304FF48A73ADF80230039A0B
:100860006B4619462320FFF7FBFA0F900F9B0D9361
:100870000D9B002B05D0884A40F209210D982CF0E1
:1008800081F86B460C220021184635F036F801231A
:100890008DF8003001238DF802300623ADF80430C6
:1008A000039A6B4619462020FFF7DAFA0F900F9B48
:1008B0000C930C9B002B05D0774A40F211210C9829
:1008C0002CF060F86B460C220021184635F015F824
:1008D00001238DF8003010238DF80230039A6B4607
:1008E00019462220FFF7BCFA0F900F9B0B930B9B2E
:1008F000002B05D0684A4FF406710B982CF042F893
:100900006B460C220021184634F0F7FF01238DF8C6
:10091000003002238DF80230039A6B4619462120DD
:10092000FFF79EFA0F900F9B0A930A9B002B05D0AE
:10093000594A40F21F210A982CF024F86B460C22E9
:100940000021184634F0D9FF02238DF80030039AB5
:100950006B4619460120FFF783FA0F900F9B09930E
:10096000099B002B05D04C4A4FF4097109982CF0D3
:1009700009F86B460C220021184634F0BEFF012313
:100980008DF80030039A6B4619464020FFF768FA4D
:100990000F900F9B0893089B002B05D03E4A40F216
:1009A000292108982BF0EEFF6B460C2200211846F7
:1009B00034F0A3FF4FF47A630093039A6B46194611
:1009C000A120FFF74DFA0F900F9B0793079B002B79
:1009D00005D0314A40F22E2107982BF0D3FF6B4609
:1009E0000C220021184634F088FF9DF8003043F0B7
:1009F00001038DF80030039A6B461946A020FFF7DB
:100A00002FFA0F900F9B0693069B002B05D0224ACE
:100A100040F2332106982BF0B5FF03AB184630F0B7
:100A2000BFF80F900F9B0593059B002B05D01A4A2A
:100A300040F2362105982BF0A5FF184830F048F811
:100A40000F900F9B002B01D00F9B1BE0144830F040
:100A50004FF80F900F9B002B01D00F9B12E001204D
:100A6000FFF706FA0F900F9B002B01D00F9B09E0B8
:100A70000120FFF701FA0F900F9B002B01D00F9B75
:100A800000E00023184613B05DF804FB7C740500F9
:100A9000750C0500144B00201870050019070200A2
:100AA0009507020000B5B1B04FF48073ADF878300F
:100AB0003B4B1B788DF87A301FAB3C220021184647
:100AC00034F01BFF02238DF87C3000238DF87E303C
:100AD00006238DF87F300123ADF884301EAB2293BE
:100AE00016AB20220021184634F007FF01238DF8B1
:100AF0005B302C4B1B689B899BB21A93294B1B685C
:100B00009B7B1B9307AB3C220021184634F0F5FE7B
:100B100000238DF8BF3010E09DF8BF30C3F1030211
:100B20009DF8BF3020498A5C30A90B4403F8B42CEF
:100B30009DF8BF3001338DF8BF309DF8BF30032BD7
:100B4000EAD95923ADF8103003AB06930423ADF86E
:100B5000143000238DF81C3004AB109316AA07A99B
:100B60001FA800230093114B21F02AFD2E902E9BED
:100B7000002B0DD00E4830F0EFF802462E9B00936C
:100B800040F282230B49022030F028F92E9B03E02B
:100B9000012021F007FD0023184631B05DF804FB69
:100BA0008C4A0020D84A0020F84A00206103020045
:100BB00018700500E470050000B583B00190054A87
:100BC00040F28F2101982BF0DDFE00BF03B05DF8ED
:100BD00004FB00BF1870050000B583B01A4B1B68FA
:100BE00093F82830022B03D805F014FD002327E0EA
:100BF000164B4FF43E721A60134B1B681733134A9F
:100C00005360114B1B6893F828309AB20F4B1A812E
:100C10000E4B0F4A5A610F48FFF7FEF80190019BF7
:100C2000002B01D0019B0BE0084BDB7A0233DAB2D8
:100C3000064BDA72054805F081FC05F0ADFC002397
:100C4000184603B05DF804FBD84A0020604C002031
:100C5000B90B02006A4C002000B595B003900192D8
:100C60001A460B468DF80B301346ADF808300023BA
:100C70008DF84F309DF80B30062B00F2598101A200
:100C800052F823F0A10C0200DD0C0200010D02005D
:100C9000890D0200D90D02000B0E0200A30E020006
:100CA000BDF808300A2B00F23681AE4B1B6818469F
:100CB000BDF808301A46019934F0F6FDA94B1A68C0
:100CC000BDF808300021D154A64B1B68BDF80820A0
:100CD000D2B2DA7201238DF84F301CE1BDF8083032
:100CE000032B40F01A819F4B1B680C33BDF8082082
:100CF0000199184634F0D8FD01238DF84F300CE1EE
:100D0000BDF80830082B40F00A81964B1B680F3362
:100D1000BDF808200199184634F0C6FD05AB08223D
:100D20000021184634F0E9FD8E4B1B68B3F80F30F4
:100D30009BB2ADF814308B4B1B68B3F811309BB2EB
:100D4000ADF81630874B1B68B3F813309BB2ADF883
:100D50001830844B1B68B3F815309BB2ADF81A30CD
:100D600005AB184622F03CF81290129B1193119B90
:100D7000002B05D07C4A40F2E12111982BF002FEB5
:100D800001238DF84F30CAE0BDF80830112B00F276
:100D9000C880744B1B681733BDF8082001991846AA
:100DA00034F082FD6F4B1B68BDF80820D2B283F887
:100DB000282001238DF84F30FFF70EFF1090109B75
:100DC0000F930F9B002B00F0AC80674A4FF43C71EF
:100DD0000F982BF0D7FDA4E0BDF80830FA2B00F2F5
:100DE000A280604B1B682933BDF808200199184682
:100DF00034F05AFD5B4B1B68BDF80820D2B283F873
:100E0000232101238DF84F308DE0BDF80830032BEE
:100E100040F08B80019B0E930E9B1B78012B2FD1F2
:100E20000E9BB3F801309BB21A46504903202FF0B5
:100E3000AAFF4F4B1A880E9BB3F801309BB219469C
:100E40001046FFF701F80D900D9B002B07D1BDF860
:100E500008301A460199474834F026FD65E04549B7
:100E6000454823F09BFF0D900D9B0C930C9B002B92
:100E70005BD03D4A40F20D310C982BF083FD54E0DD
:100E80003C493D4823F08AFF0D900D9B0B930B9B33
:100E9000002B4AD0344A40F213310B982BF072FDEC
:100EA00043E0BDF80830F72B41D82E4B1B6803F503
:100EB0009573BDF808200199184634F0F5FC294BCC
:100EC0001B68BDF80820D2B283F8212214F00AF87A
:100ED0000A900A9B002B05D0234A40F21E310A9843
:100EE0002BF050FD1F4B1B6803F59573BDF80820D0
:100EF000D2B21146184613F009FE0990099B002B47
:100F000005D0194A40F21F3109982BF03BFD01230F
:100F10008DF84F300BE000BF0AE000BF08E000BFD3
:100F200006E000BF04E000BF02E000BF00E000BF39
:100F30009DF84F30002B10D00A4B1B68184600F06C
:100F4000A7FC0890089B0793079B002B05D0064A37
:100F500040F22B3107982BF015FD00BF15B05DF85E
:100F600004FB00BFD84A00201870050080740500FB
:100F70005C450020DC4A00208C4A002000B589B086
:100F800000238DF81F30724B1B6893F82431FF2229
:100F9000934214BF012300238DF81E306C4B1B6855
:100FA00093F82531FF22934214BF012300238DF8CB
:100FB0001D30674B1B6893F82631FF22934214BF04
:100FC000012300238DF81C30614B1A6803AB02F536
:100FD00092721188927819809A709DF81E30002BB9
:100FE00007D19DF81D30002B03D19DF81C30002B3C
:100FF0002ED0574B1B68FF2283F82421544B1B68CB
:10100000FF2283F82521524B1B68FF2283F82621FB
:1010100001238DF81F309DF81E30002B03D19DF861
:101020001D30002B14D000238DF81F30494B0122B6
:101030001A70494800F02CFC0690069B0593059B0E
:10104000002B05D0454A40F24E3105982BF09AFC12
:10105000FF231A46FF231946FF2300930B464049FE
:1010600003202FF0BBFE3B4B1B78002B0DD09DF8CF
:101070000C301A469DF80D3019469DF80E3000933D
:101080000B46384903202FF0A9FE314B1B6893F81B
:101090002830112B0FD92E4B1B6817330E223249E3
:1010A000184634F001FC2A4B1B680E2283F82820D6
:1010B00001238DF81F30264B1B6893F82331FA2B40
:1010C0000FD9234B1B68293300222849184634F0D6
:1010D000EBFB1F4B1B68002283F8232101238DF8B3
:1010E0001F301B4B1B6893F82132F72B05D8184B88
:1010F0001B6893F82132002B10D1154B1B6803F5A8
:10110000957316221A49184634F0CEFB104B1B6813
:10111000162283F8212201238DF81F309DF81F30FD
:10112000002B10D00A4B1B68184600F0B1FB06904C
:10113000069B0493049B002B05D0084A40F27631AD
:1011400004982BF01FFC0023184609B05DF804FB3F
:10115000D84A0020E04A0020FC6C05001870050009
:10116000C874050008750500136D0500256D0500A0
:10117000266E050000B585B00A4B1B6801930A4B2B
:10118000029301AB1946094823F074FD0390039BB9
:10119000002B01D0039B00E00023184605B05DF84A
:1011A00004FB00BFD84A0020590C02008C4A0020E2
:1011B00000B589B001900091FFF7DCFF0690069B17
:1011C0000593059B002B05D0244A4FF466710598C2
:1011D0002BF0D8FB0023079318E0079BDB00019A54
:1011E00013441B68002B0ED0079BDB00019A1344AD
:1011F0001B681B4A1278104698470690069B002BE6
:1012000001D0069B26E0079B01330793079A009BBA
:101210009A42E2D302AB08220021184634F06DFB5B
:10122000104B029301238DF80C3001238DF80D3003
:1012300002AB19460C482FF053F80690069B049316
:10124000049B002B05D0054A40F2B13104982BF0E5
:1012500099FB0023184609B05DF804FB18700500DF
:10126000E04A002041FF0100FC4A0020B0B5C6B0B2
:1012700002AF13F065FEC7F80801D7F80831002B5C
:101280000FD0B0482FF068FD0246D7F80831009320
:1012900040F2BE33AC4902202FF0A0FDD7F8083150
:1012A0004BE1AA4B1B6803F595731622A849184613
:1012B00034F0C2F80346002B40F01C816B461D46FB
:1012C0002021A44813F04CFDC7F80801D7F80831D5
:1012D000002B0FD09B482FF03FFD0246D7F8083176
:1012E000009340F2C333984902202FF077FDD7F8DE
:1012F0000831FDE01B2387F8073197F80701034603
:10130000013BC7F80031C1B24FF000024FF00003BB
:101310004FF00004D40044EA5174CB00C1B24FF046
:1013200000024FF000034FF00004D40044EA51746F
:10133000CB0003460733DB08DB00ADEB030D02AB4C
:101340000033C7F8FC30D7F8FC3000221A70D7F809
:10135000FC308149184634F0F0F8D7F8FC307F496A
:10136000184634F0EAF8002387F80F311EE007F141
:10137000F80300210A461A800A469A7097F80F313E
:10138000774AD35C1A4607F1F8037649184634F0D9
:10139000BFF8D7F8FC3007F1F8021146184634F0D0
:1013A000CCF897F80F31013387F80F3197F80F31E8
:1013B000032BDCD9D7F8FC3018462FF0CDFC0346C0
:1013C0001A46694903202FF0DEFCD7F8FC3097F865
:1013D00007211146184613F01BFCC7F80801D7F87F
:1013E0000831002B0FD057482FF0B6FC0246D7F833
:1013F0000831009340F2D733534902202FF0EEFC1E
:10140000D7F8083174E016225849012013F05CFC2B
:10141000C7F80801D7F80831002B0FD049482FF042
:101420009BFC0246D7F80831009340F2DA33464974
:1014300002202FF0D3FCD7F8083159E013F0D8FC84
:10144000C7F80801D7F80831002B0FD03D482FF01E
:1014500083FC0246D7F80831009340F2DD333A4965
:1014600002202FF0BBFCD7F8083141E0F72387F8C2
:10147000FB3007F1FB023B461146184613F09EFB7A
:10148000C7F80801D7F80831002B0FD02D482FF0EE
:1014900063FC0246D7F80831009340F2E1332A4951
:1014A00002202FF09BFCD7F8083121E097F8FB20B1
:1014B0003B4683F8F7203B4619462D4823F09AFC1B
:1014C000C7F80801D7F80831002B0FD01D482FF0BE
:1014D00043FC0246D7F80831009340F2E5331A493D
:1014E00002202FF07BFCD7F8083101E0AD4623E065
:1014F000AD4622E0154B1B6803F59572134B1B6834
:1015000093F821321946104613F000FBC7F8080182
:10151000D7F80831002B0FD00A482FF01DFC0246E7
:10152000D7F80831009340F2EA33074902202FF040
:1015300055FCD7F8083100E00023184607F58877F6
:10154000BD46B0BD18700500E4700500D84A002003
:10155000266E050078750500E44A002098750500A0
:10156000F84A0020687105009C750500C8750500E3
:101570008C4A002000B585B00190019B1B686A4A27
:101580001360019B5B68694A1360019B9B68684A12
:101590001360FFF72DF90390039B002B06D0039AED
:1015A000644901202FF0EFFB039BB8E0624BD3F8B6
:1015B0008830614A43F47003C2F88830BFF34F8F1C
:1015C000BFF36F8F04215D48FEF70AFD0390039B74
:1015D000002B06D0039A5A4901202FF0D4FB039B1D
:1015E0009DE05849584800F00DFA0390039B002BEA
:1015F00006D0039A554901202FF0C5FB039B8EE0CE
:10160000504B1B680C22A3F81120FFF7B7FC039086
:10161000039B002B06D0039A4D4901202FF0B3FB0A
:10162000039B7CE0FEF75EFD0390039B002B06D03E
:10163000039A484901202FF0A6FB039B6FE03B4B28
:101640001A683B4B1B6819461046FFF7B1FD039023
:10165000039B002B06D0039A3F4901202FF093FBF8
:10166000039B5CE0FFF71EFA0390039B002B06D060
:10167000039A3A4901202FF086FB039B4FE0FEF7C7
:101680001BFE0390039B002B06D0039A34490120D4
:101690002FF079FB039B42E0032021F095F80390A3
:1016A000039B002B06D0039A2E4901202FF06BFBE1
:1016B000039B34E02C4805F0F7FE0390039B002BBE
:1016C00006D0039A294901202FF05DFB039B26E0F9
:1016D00025482FF041FB03461A46254913202FF0D9
:1016E00052FBFFF7C3FD0390039B002B06D0039A28
:1016F000204901202FF047FB039B10E00A20FEF752
:101700000FFCFFF769FA0390039B002B06D0039AA6
:10171000194901202FF037FB039B00E000231846F6
:1017200005B05DF804FB00BF804A0020844A002019
:10173000884A0020E075050000ED00E0F84A00202E
:101740001C760500D84A0020FC6C05006076050078
:101750009C760500DC7605001877050064770500A7
:10176000A0770500DC770500E44A00201C7805001E
:10177000587805006C780500A078050000B589B0A0
:101780000390039B1B78012B1AD0052B42D0002B12
:101790004CD1039B5B68002B03D1344B01221A70A0
:1017A00059E0334901202FF0DDFA00230793079B0E
:1017B000002B50D12F4A5D2100202BF0E3F84AE0A6
:1017C000039B5B68002B16D1039B9B89B3F5005FDD
:1017D00043D1039B1B7C1A46039B9B891946039BA1
:1017E000DB8900930B46244903202FF0F7FA234BA3
:1017F00001221A7031E0224901202FF0B3FA0023B0
:101800000693069B002B28D11A4A6F2100202BF04B
:10181000B9F822E0039B5B68002B20D11949032013
:101820002FF0A0FA184B01221A7018E0039B1B78C6
:101830001A46039B5B68154903202FF0B8FA039BF7
:101840005B680593059B002B0BD00A4A7B2105980A
:101850002BF098F805E000BF04E000BF02E000BFF5
:1018600000E000BF00BF09B05DF804FBAC4E0020F3
:10187000D87805000879050050790500AD4E0020A4
:101880009C790500CC790500AE4E0020007A050059
:1018900000B58BB003901F4903202FF063FA039B20
:1018A000002B01D10E2331E040F2222203991A4885
:1018B00033F0FAFF194B42221A60184B04938A2323
:1018C000ADF814304FF40053ADF8183042F2010374
:1018D000ADF81A3004AB07930123ADF8203006AB06
:1018E00019460F482EF0FBF90990099B002B0CD0EC
:1018F0000C482FF031FA0246099B009398230A49BD
:1019000002202FF06BFA099B00E0002318460BB071
:101910005DF804FB307A0500884C0020844C0020E0
:10192000784C002008790500647A050000B58BB07A
:10193000039005AB08220021184633F0DEFF2B4947
:1019400003202FF00FFA05AB294A42F201014FF4B0
:1019500000502EF033FA0990099B002B0CD025483B
:101960002FF0FAF90246099B0093A923224902208D
:101970002FF034FA099B34E007AB19461C482EF0CF
:1019800023F90990099B002B0CD01A482FF0E4F999
:101990000246099B0093AC23174902202FF01EFA40
:1019A000099B1EE0089B4FF40A721946134833F056
:1019B0007BFF0F482EF044F90990099B002B0CD0B7
:1019C0000C482FF0C9F90246099B0093B1230A493C
:1019D00002202FF003FA099B03E0039B084A1A60D8
:1019E000002318460BB05DF804FB00BFB87A050071
:1019F000784C002008790500647A0500844C0020AA
:101A0000884C002000B58BB0039002915B49032005
:101A10002FF0A8F9039B002B01D10E23A9E0584811
:101A20002EF03CF80990099B002B0CD055482FF064
:101A300093F90246099B0093C223534902202FF0D9
:101A4000CDF9099B95E02EF049F80990099B002BF0
:101A50000ED04C482FF080F90246099B0093C52315
:101A6000494902202FF0BAF9099B82E02BF00CF9CA
:101A7000464B1B7883F00103DBB2002BF6D12EF02E
:101A800071F90990099B002B0ED03E482FF064F9A4
:101A90000246099B0093CD233B4902202FF09EF97B
:101AA000099B66E02BF0F0F8394B1B7883F00103BB
:101AB000DBB2002BF6D10298FFF738FF0990099BA3
:101AC0000A2B45D1334903202FF04CF940F2222252
:101AD0000399314833F0E8FE304B42221A602F4B15
:101AE00004938A23ADF814304FF40053ADF8183046
:101AF00042F20103ADF81A3004AB07930123ADF8AD
:101B00002030274B00221A7006AB194625482EF0CC
:101B1000D7F80990099B002B0CD01A482FF01CF91C
:101B20000246099B0093EB23174902202FF056F938
:101B3000099B1EE0029B184A1A6001E02BF0A4F8F2
:101B4000174B1B7883F00103DBB2002BF6D10FE0BB
:101B5000099B002B0CD00B482FF0FEF80246099B86
:101B60000093F623084902202FF038F9099B00E082
:101B7000002318460BB05DF804FB00BFE87A0500AF
:101B80007D17020008790500647A0500AC4E00203C
:101B9000AE4E0020147B0500884C0020844C0020B1
:101BA000AD4E0020784C002000B587B08DED030AC3
:101BB0000290DDED037AFDEEE77ACDED017A9DF836
:101BC00004305AB2029B1A70029B93F9003007EE60
:101BD000903AF8EEE77A9DED037A77EE677ACDEDED
:101BE000057ADDED057A9FED0D7A67EE877AFCEEDA
:101BF000E77ACDED017A9DF80430DAB2029B5A7093
:101C0000029B93F900301A46029B5B78044904203A
:101C10002FF0CDF800BF07B05DF804FB0000C8420C
:101C2000707B050000B583B0034600918DF8073046
:101C3000009B9DF807201A709DF807301A4604494A
:101C400004202FF0A0F800BF03B05DF804FB00BF34
:101C5000B87B050000B587B08DED030A0290DDED7D
:101C6000037AFDEEE77A17EE902A029B1A60029B38
:101C70001B6807EE903AF8EEE77A9DED037A77EE6F
:101C8000677ACDED057ADDED057A9FED0D7A67EE89
:101C9000877AFCEEE77ACDED017A9DF80430DAB26E
:101CA000029B1A71029B1B681A46029B1B7905490D
:101CB00004202FF07CF800BF07B05DF804FB00BFE4
:101CC0000000C842007C050000B587B00190019B70
:101CD0001B78002B02D0012B14D021E0019B5B78F4
:101CE000012B1AD10FF060FFF0EE407A03AB1846DB
:101CF000B0EE670AFFF7AEFF03AB19460A4822F0C1
:101D0000A9F80AE000230593059B002B07D1074A99
:101D1000942100202AF036FE01E000BF00E000BF61
:101D200000BF07B05DF804FBB04E0020507C0500FA
:101D300000B58DB003468DF807309DF80730002BB5
:101D400060D111F0DBFF8DED0B0A11F025FF03468A
:101D5000ADF82A3004AB18469DED0B0AFFF724FFBF
:101D6000BDF82A30DBB20DF10F0211461846FFF71D
:101D700059FF2B4B1B78002B14D0BDF82A309DED5A
:101D80000B0A184600F05CFA0990099B0893089B1F
:101D9000002B04D0234AB12108982AF0F3FD204BF0
:101DA00000221A70204B1B78002B12D004AB19466E
:101DB0001E4822F00FF80990099B0793079B002B00
:101DC00004D0184AB82107982AF0DCFD164B0022EF
:101DD0001A70174B1B78002B1ED00DF10F031946FC
:101DE000124822F077F80990099B0693069B002B76
:101DF00004D00C4ABF2106982AF0C4FD0C4B0022E7
:101E00001A7009E000230593059B002B04D1054AB5
:101E1000C52100202AF0B6FD00BF0DB05DF804FB1F
:101E2000FA4E0020507C0500F94E0020B04E0020F4
:101E3000F84E002000B585B00190019B002B15D015
:101E4000019B1B88ADF80C30019B5B88ADF80E3010
:101E5000019B1B881A46019B5B88064904202EF0D3
:101E6000A6FF03AB1946044822F074F800BF05B082
:101E70005DF804FB9C7C0500B04E002000B587B0E7
:101E8000039000200AF010F9039B002B27D0039B3E
:101E90001B881946039B5B881846039B9B881A4640
:101EA000039BDB880193009203460A460E490420F7
:101EB0002EF0ADFF039B1B88ADF81030039B5B88B1
:101EC000ADF81230039B9B88ADF81430039BDB8880
:101ED000ADF8163004AB1946044822F07BF800BF79
:101EE00007B05DF804FB00BFE07C0500B04E0020A9
:101EF00000B585B001900A4B01221A7011F09CFFC9
:101F00000390039B0293029B002B05D0054A4FF4DC
:101F1000847102982AF036FD00BF05B05DF804FB1D
:101F2000F94E0020507C0500F0B585B0334B0122FE
:101F30001A70334B01221A7011F068FD0390039B55
:101F4000002B0DD02F482EF007FF0246039B009375
:101F50004FF48B732C4902202EF040FF039B49E085
:101F600011F06AFF0390039B002B0DD025482EF043
:101F7000F3FE0246039B009340F21913224902200C
:101F80002EF02CFF039B35E0204F214B1B681B8854
:101F90009BB299B24FF000024FF000034FF00004E3
:101FA000D40344EA5144CB0313F5FA7544F1000617
:101FB0004FF47A724FF000032846314633F038F878
:101FC00003460C460022194638462BF0A7FC039026
:101FD000039B002B0DD00B482EF0BEFE0246039B48
:101FE00000934FF48F73084902202EF0F7FE039BF5
:101FF00000E00023184605B0F0BD00BFF94E0020F8
:10200000FD4E0020507C05002C7D0500004F002077
:10201000F04E002000B587B003468DF80F30194B05
:1020200000221A70184B18462BF0AAFC0590059B4D
:10203000002B0DD015482EF08FFE0246059B009315
:102040004FF49673124902202EF0C8FE059B14E04F
:102050009DF80F30002B0FD00E4B00221A700E4B44
:102060001B7883F00103DBB2002B03D011F038FDA5
:10207000034602E0002300E00023184607B05DF8A5
:1020800004FB00BFF94E0020004F0020507C0500EB
:102090002C7D0500FD4E0020FC4E002000B585B0D3
:1020A00001900FF0D1FD0390039B0293029B002B44
:1020B00005D0054A40F24B1102982AF063FC00BF9C
:1020C00005B05DF804FB00BF507C0500F0B585B09D
:1020D0000FF05AFC0390039B0293029B002B05D048
:1020E0001D4A4FF4AB7102982AF04CFC0FF0ACFD86
:1020F0000390039B0193019B002B05D0164A40F2ED
:10210000591101982AF03EFC144F154B1B685B884F
:102110009BB299B24FF000024FF000034FF0000461
:10212000D40344EA5144CB0313F5FA7544F1000695
:102130004FF47A724FF000032846314632F078FFB0
:1021400003460C460022194638462BF0E7FB0346AF
:10215000184605B0F0BD00BF507C0500204F0020A0
:10216000F04E002000B585B00E4B18462BF008FC51
:102170000390039B002B0DD00B482EF0EDFD024683
:10218000039B009340F26913084902202EF026FEBB
:10219000039B02E00FF0AEFC0346184605B05DF865
:1021A00004FB00BF204F0020507C05002C7D050063
:1021B00000B587B001900023ADF80A301C4B1B78A6
:1021C000012B31D10DF10A03184600F07BF905907F
:1021D000059B0493049B002B05D0164A4FF4BD7158
:1021E00004982AF0CFFBBDF80A30002B04D1124925
:1021F00002202EF0B7FD10E0BDF80A3018460BF0B3
:102200008FFB0590059B0393039B002B05D0094A88
:1022100040F2831103982AF0B5FB054B02221A7095
:10222000064B18462BF0ACFB00BF07B05DF804FB73
:10223000FB4E0020507C0500807D0500804F002073
:1022400000B589B003468DED020AADF80E301E4B85
:102250001B78002B33D0BDF80E301A469200134481
:102260005B00ADF81E30DDED027A9FED187A67EE67
:10227000877AFDEEE77A17EE903A0693BDF81E20B6
:10228000069B134904202EF092FDBDF81E300699DE
:1022900018460BF065FA0590059B002B0DD00D48F4
:1022A0002EF05AFD0246059B00934FF4D3730A4962
:1022B00002202EF093FD059B02E0002300E00023A6
:1022C000184609B05DF804FBFC4E002000007A447B
:1022D000E87D0500507C05002C7D050000B585B02B
:1022E000114B00221A70114B1B78002B13D111F0E7
:1022F000F7FB0390039B002B0DD00D482EF02CFD17
:102300000246039B00934FF4E1730A4902202EF02A
:1023100065FD039B04E0084B18462BF031FB034698
:10232000184605B05DF804FBFC4E0020FD4E002071
:10233000507C05002C7D0500804F002000B585B045
:1023400001900A4B01221A7011F076FD0390039B55
:102350000293029B002B05D0054A4FF4EA710298C4
:102360002AF010FB00BF05B05DF804FBF84E00201A
:10237000507C0500F0B585B02A4B01221A702A4B1B
:1023800001221A7011F042FB0390039B002B0DD029
:1023900026482EF0E1FC0246039B009340F2E11335
:1023A000234902202EF01AFD039B37E011F044FD73
:1023B0000390039B002B0DD01C482EF0CDFC024651
:1023C000039B00934FF4F273194902202EF006FD8F
:1023D000039B23E0174F184B1B689B889BB299B255
:1023E0004FF000024FF000034FF00004D40344EA22
:1023F0005144CB0313F5FA7544F100064FF47A7299
:102400004FF000032846314632F012FE03460C46D8
:102410000022194638462BF081FA0346184605B0CB
:10242000F0BD00BFF84E0020FD4E0020507C05009E
:102430002C7D0500404F0020F04E002000B587B0F5
:1024400003468DF80F30194B00221A70184B1846AE
:102450002BF096FA0590059B002B0DD015482EF019
:102460007BFC0246059B009340F2F51312490220C3
:102470002EF0B4FC059B14E09DF80F30002B0FD01C
:102480000E4B00221A700E4B1B7883F00103DBB257
:10249000002B03D011F024FB034602E0002300E0F0
:1024A0000023184607B05DF804FB00BFF84E00207B
:1024B000404F0020507C05002C7D0500FD4E002083
:1024C000FC4E002000B583B00190284B1B681B7A9E
:1024D000032B43D801A252F823F000BFED240200E1
:1024E000092502002525020041250200204B1B681A
:1024F0001B889AB2019B1A80019B1B881A461D49B2
:1025000004202EF040FC2BE0194B1B685B889AB22C
:10251000019B1A80019B1B881A46174904202EF044
:1025200032FC1DE0124B1B689B889AB2019B1A80FB
:10253000019B1B881A46114904202EF024FC0FE051
:102540000B4B1B68DB889AB2019B1A80019B1B888E
:102550001A460B4904202EF016FC01E0082300E087
:102560000023184603B05DF804FB00BFF04E0020C6
:10257000F44E0020487E0500B07E0500147F050063
:10258000787F050000B587B00346ADF80E30314BBB
:102590001B681B7A032B3FD801A252F823F000BF1F
:1025A000B1250200CB250200E5250200FF2502002F
:1025B000294B1B68BDF80E201A80BDF80E301A4654
:1025C000264904202EF0DFFB28E0234B1B68BDF8D2
:1025D0000E205A80BDF80E301A46214904202EF0F4
:1025E000D2FB1BE01C4B1B68BDF80E209A80BDF887
:1025F0000E301A461B4904202EF0C5FB0EE0164B88
:102600001B68BDF80E20DA80BDF80E301A46164958
:1026100004202EF0B8FB01E0082317E00E4B1B68E6
:10262000184600F0DDFF0590059B002B0DD00F48EC
:102630002EF092FB0246059B009340F24E230C497C
:1026400002202EF0CBFB059B00E00023184607B0CC
:102650005DF804FBF04E0020F44E0020DC7F050006
:1026600040800500A080050004810500507C050025
:102670002C7D050000B585B0284B1B681B7A1A46D7
:10268000274904202EF07FFB244B1B681B7A032B69
:102690001AD801A252F823F0A9260200B12602009E
:1026A000B9260200C126020000238DF80F300FE08A
:1026B00001238DF80F300BE002238DF80F3007E077
:1026C00003238DF80F3003E002238DF80F3000BF95
:1026D0009DF80F3018460BF099F90290029B002BE1
:1026E0000DD010482EF038FB0246029B009340F2BA
:1026F0006F230D4902202EF071FB029B0AE00B4B69
:1027000001221A700A4B00224FF0617118462BF01B
:1027100005F90346184605B05DF804FBF04E0020AD
:1027200068810500507C05002C7D0500FB4E0020D3
:10273000804F002000B585B0274B1B78022B41D17C
:10274000FFF7CCFD0390039B002B0DD023482EF008
:1027500003FB0246039B009340F2812320490220A1
:102760002EF03CFB039B33E00DF10A0318460BF0FF
:1027700065F80390039B002B0DD018482EF0ECFA5F
:102780000246039B00934FF42173154902202EF05B
:1027900025FB039B1CE0BDF80A301846FFF7F2FE4C
:1027A0000390039B002B0DD00C482EF0D5FA024667
:1027B000039B009340F28723094902202EF00EFB71
:1027C000039B05E0044B00221A700BF0C7FA034686
:1027D000184605B05DF804FBFB4E0020507C050058
:1027E0002C7D050000B587B00190134B1B685B7A08
:1027F0008DF80C30104B1B689B7A8DF80D300E4B0A
:102800001B68DB7A8DF80E3003AB1946002009F007
:102810009DFC0CF0BFF90590059B0493049B002BD5
:1028200005D0064A40F29F2104982AF0ABF800BF79
:1028300007B05DF804FB00BFF04E0020507C05009F
:10284000F0B585B02B4B1B685B7A8DF80030294BB7
:102850001B689B7A8DF80130264B1B68DB7A8DF85C
:1028600002306B461946002009F070FC0CF0F4F9B8
:102870000390039B0293029B002B05D01E4A40F25B
:10288000AF2102982AF07EF80CF084F90390039BA4
:102890000193019B002B05D0174A40F2B221019809
:1028A0002AF070F8154F134B1B68DB889BB299B266
:1028B0004FF000024FF000034FF00004D40344EA4D
:1028C0005144CB0313F5FA7544F100064FF47A72C4
:1028D0004FF000032846314632F0AAFB03460C466F
:1028E0000022194638462BF019F80346184605B061
:1028F000F0BD00BFF04E0020507C0500604F00206E
:1029000000B585B0124B18462BF03AF80390039BA4
:102910000293029B002B05D00E4A40F2BF21029881
:102920002AF030F8002009F0BFFB0CF06BFA03909E
:10293000039B0193019B002B05D0064A4FF4317194
:1029400001982AF01FF80023184605B05DF804FB33
:10295000604F0020507C050000B585B00190019BC0
:102960001B889BB2632B32D9019B1B889BB24EF60E
:10297000602293422BD8019B5B889BB2312B26D9D6
:10298000019B5B889BB24EF6602293421FD8019B4D
:102990009B889BB2632B1AD9019B9B889BB24EF6F6
:1029A0006022934213D8019BDB889BB2C72B0ED9C0
:1029B000019BDB889BB24EF66022934207D8019BB5
:1029C0001B7A002B03D0019B1B7A032B0ED90A48DC
:1029D00000F04EFD0390039B0293029B002B05D059
:1029E000064A40F2DA21029829F0CCFF002318466B
:1029F00005B05DF804FB00BF487B0500507C050076
:102A000000B589B00190019B002B01D10E236AE033
:102A10000020FFF7FFFAFFF7A5FB0120FFF70EFDEF
:102A2000FFF76EFF019B1B889BB2002B12D0304B2F
:102A300093F83630002B0DD0FFF776FA0790079BFE
:102A40000693069B002B05D02A4A40F2F3210698F4
:102A500029F098FF019B5B889BB2002B12D0244B7E
:102A600093F83730002B0DD0FFF730FB0790079B12
:102A70000593059B002B05D01E4A40F2FA210598CC
:102A800029F080FF019B9B889BB2002B12D0184B32
:102A900093F83830002B0DD0FFF76CFC0790079BA4
:102AA0000493049B002B05D0124A40F20131049894
:102AB00029F068FF019BDB889BB2002B12D00C4BE6
:102AC00093F83A30002B0DD0FFF7BAFE0790079B22
:102AD0000393039B002B05D0064A4FF442710398E1
:102AE00029F050FF0023184609B05DF804FB00BF31
:102AF000B04E0020507C050000B593B003900192C9
:102B00001A460B468DF80B301346ADF808309DF889
:102B10000B30052B00F2428101A252F823F000BFD6
:102B2000392B0200B12B02000B2C0200832C020077
:102B3000D92C02002F2D0200039B93F836301A4641
:102B40009F4904202EF01FF9039B93F83630002B89
:102B50000FD0FFF7E9F91190119B1093109B002BF8
:102B600000F01E81974A40F22731109829F00AFFA1
:102B700016E1039B93F83830002B14BF0123002388
:102B8000DBB283F00103DBB203F00103DBB21846D2
:102B9000FFF740FA1190119B0F930F9B002B00F051
:102BA000FF80884A4FF44B710F9829F0EBFEF7E055
:102BB000039B93F837301A46834904202EF0E3F83C
:102BC000039B93F83730002B0FD0FFF77FFA11905B
:102BD000119B0E930E9B002B00F0E480794A40F28B
:102BE00035310E9829F0CEFEDCE0FFF7BBFA1190EC
:102BF000119B0D930D9B002B00F0D480714A40F285
:102C00003A310D9829F0BEFECCE0039B93F83830A2
:102C10001A466E4904202EF0B6F8039B93F838301C
:102C2000002B0FD0FFF7A6FB1190119B0C930C9B70
:102C3000002B00F0B980634A40F243310C9829F030
:102C4000A1FEB1E0039B93F83630002B14BF0123A3
:102C50000023DBB283F00103DBB203F00103DBB23C
:102C60001846FFF7EBFB1190119B0B930B9B002B6E
:102C700000F09A80534A4FF452710B9829F082FE6B
:102C800092E0039B93F839301A46514904202EF004
:102C90007AF8039B93F83930002B0ED0FFF7EAFC4B
:102CA0001190119B0A930A9B002B7FD0454A40F25A
:102CB00051310A9829F066FE78E0FFF73BFD11904C
:102CC000119B0993099B002B70D03E4A40F256316C
:102CD000099829F057FE69E0039B93F83A301A46A9
:102CE0003C4904202EF04FF8039B93F83A30002B18
:102CF0000ED0FFF7A5FD1190119B0893089B002BA8
:102D000056D0304A40F25F31089829F03BFE4FE040
:102D1000FFF7F6FD1190119B0793079B002B47D0FF
:102D2000284A4FF45971079829F02CFE40E0BDF86D
:102D300008301A46284904202EF025F8BDF808303E
:102D40000C2B0CBF01230023DBB20693069B002B48
:102D500005D11C4A40F26B31002029F013FE019886
:102D600000F086FB1190119B0593059B002B05D06D
:102D7000144A40F26E31059829F004FE0198FFF7DD
:102D80003FFE1190119B0493049B002B12D00D4A1F
:102D900040F27131049829F0F5FD0BE000BF0AE024
:102DA00000BF08E000BF06E000BF04E000BF02E093
:102DB00000BF00E000BF00BF13B05DF804FB00BF20
:102DC0009C810500507C0500EC81050038820500DF
:102DD00084820500CC8205001483050000B597B0FD
:102DE00003468DF80F3000238DF8483000238DF80E
:102DF00049300023109300238DF8443000238DF8D0
:102E00003F300DAB00221A605A600023ADF830301D
:102E10000023ADF83230464B464A4749474800F058
:102E200097FC1590159B002B0DD045482DF094FF75
:102E30000246159B009340F28E33424902202DF04A
:102E4000CDFF159B6FE09DF80F30002B1DD03B4848
:102E500000F00EFB1590159B1493149B002B05D0CE
:102E6000374A40F29331149829F08CFD314800F034
:102E7000B7FB1590159B1393139B002B05D0304A7D
:102E800040F29631139829F07DFD2B4B1B681846B4
:102E9000FFF762FD1590159B002B0DD028482DF0F3
:102EA0005BFF0246159B009340F29A3325490220AE
:102EB0002DF094FF159B36E005AB1C22002118462F
:102EC00032F01BFD12AB059310AB06930DF13F03DF
:102ED00007930DAB09930CAB0893174B1B680A9330
:102EE000194B0B93194903202DF03CFF05AB1946F4
:102EF000174820F0E5FE1590159B002B0DD01048CB
:102F00002DF02AFF0246159B00934FF46A730D497A
:102F100002202DF063FF159B05E0074B1B68184648
:102F2000FFF76EFD0023184617B05DF804FB00BFE5
:102F3000F44E0020547B0500F04E0020487B050035
:102F4000507C05002C7D0500F92A020060830500F5
:102F5000B04E002000B585B0019001990C4820F0DA
:102F60007EFE019B1B88112B0DD100F0B1F8039060
:102F7000039B0293029B002B05D0064A40F2BE3110
:102F8000029829F0FFFC00BF05B05DF804FB00BF0C
:102F9000B04E0020507C050000B589B001900023A0
:102FA00007935F238DF8083018230393019B049344
:102FB000064B0593064B069302AB184610F036FC01
:102FC0000790079B184609B05DF804FBB483050021
:102FD000311D020000B589B001905C238DF80830E6
:102FE00017230393019B0493074B0593074B069309
:102FF00001238DF81C3002AB18460EF02DFC034661
:10300000184609B05DF804FBC4830500C91C020022
:1030100000B58BB00390039B0593114B06935A2385
:103020008DF81C300F4B089305AB18460AF09AFF39
:103030000990099B002B0DD00B482DF08DFE024608
:10304000099B009340F20A43084902202DF0C6FE76
:10305000099B00E0002318460BB05DF804FB00BF9D
:10306000D4830500351E0200507C05002C7D050030
:1030700000B58BB00390039B0593114B0693382347
:103080008DF81C300F4B089305AB18460BF0E8FC8D
:103090000990099B002B0DD00B482DF05DFE0246D8
:1030A000099B009340F22343084902202DF096FE2D
:1030B000099B00E0002318460BB05DF804FB00BF3D
:1030C000E48305007D1E0200507C05002C7D050078
:1030D00000B587B00020FEF79DFF0590059B049387
:1030E000049B002B05D0224A40F23441049829F079
:1030F00049FCFFF737F80590059B0393039B002BD2
:1031000005D01B4A40F23741039829F03BFC0120CF
:10311000FFF794F90590059B0293029B002B05D0C5
:10312000134A40F23A41029829F02CFCFFF7E8FBE1
:103130000590059B0193019B002B05D00C4A40F2A2
:103140003D41019829F01EFCFFF7F4FA0590059B1C
:103150000093009B002B05D0054A4FF4886100982E
:1031600029F010FC0023184607B05DF804FB00BFEF
:10317000507C050000B58DB003900291039B002B9D
:1031800001D10E23BAE0029B002B01D10E23B5E042
:103190005C4903202DF0E6FD039B5B4A5A60039BCC
:1031A0005A4A1A60029B1B681846FFF713FF0B90E0
:1031B0000B9B0A930A9B002B05D0554A40F25441C1
:1031C0000A9829F0DFFB029B1B681846FFF7E4FE14
:1031D0000B900B9B0993099B002B05D04C4A40F2A6
:1031E0005741099829F0CEFB029B1B681846FFF750
:1031F0000FFF0B900B9B0893089B002B05D0444AB4
:1032000040F25A41089829F0BDFB029B1B68184602
:10321000FFF72EFF0B900B9B0793079B002B05D00E
:103220003B4A40F25D41079829F0ACFB394A012145
:1032300039482AF043FB0B900B9B0693069B002B0F
:1032400005D0334A40F26141069829F09BFB334A8E
:10325000012133482AF032FB0B900B9B0593059B11
:10326000002B05D02A4A40F26441059829F08AFBD8
:103270002C4A01212C482AF021FB0B900B9B002BA0
:103280000DD023482DF068FD02460B9B009340F2C1
:103290006743264902202DF0A1FD0B9B2EE0244A16
:1032A000012124482AF00AFB0B900B9B002B0DD028
:1032B00017482DF051FD02460B9B009340F26A43E4
:1032C0001A4902202DF08AFD0B9B17E01A4A0121B2
:1032D0001A482AF0F3FA0B900B9B002B0DD00C48E8
:1032E0002DF03AFD02460B9B009340F26D430F49CF
:1032F00002202DF073FD0B9B00E0002318460DB05B
:103300005DF804FB90830500552F0200DD2D0200BF
:10331000507C0500F11E02005C7B05009D20020030
:10332000607B05003D230200647B05002C7D0500C9
:10333000E5270200687B0500B12102006C7B0500D7
:1033400000B589B00390039B1B78002B02D0012BA2
:103350001AD05BE0039B5B68002B06D13A4B01223D
:103360001A703A4B01221A7065E0394901202DF09C
:10337000F9FC00230793079B002B5CD1354A72218F
:10338000002029F0FFFA56E0039B5B68002B2ED14A
:10339000039B9B8941F20102934210D1039B1B7C4A
:1033A0001A46039B9B891946039BDB8900930B46B6
:1033B000294903202DF012FD284B01221A70039B8E
:1033C0009B8941F20302934237D1039B1B7C1A462F
:1033D000039B9B891946039BDB8900930B4620497D
:1033E00003202DF0FBFC1F4B01221A7025E01E4923
:1033F00001202DF0B7FC00230693069B002B1CD167
:10340000144A8C21002029F0BDFA16E0039B1B789A
:103410001A46039B5B68154903202DF0C8FC039BEB
:103420005B680593059B002B09D00A4A91210598FA
:1034300029F0A8FA03E000BF02E000BF00E000BFEF
:1034400000BF09B05DF804FBD54F0020D74F002026
:10345000F48305002484050074840500D44F002003
:10346000C4840500D64F0020188505004885050056
:1034700000B58BB003901F4903202DF073FC039B14
:10348000002B01D10E2330E00C2203991A4832F0B0
:103490000BFA1A4B42221A60184B04930423ADF81E
:1034A000143041F20103ADF8183041F20203ADF8D7
:1034B0001A3004AB07930123ADF8203006AB194650
:1034C0000F482CF00CFC0990099B002B0CD00D48E8
:1034D0002DF042FC0246099B0093AE230A490220CC
:1034E0002DF07CFC099B00E0002318460BB05DF832
:1034F00004FB00BF78850500BC4F0020B84F0020BA
:10350000A04F002024840500A885050000B58BB0DD
:10351000039005AB08220021184632F0EEF92A4943
:1035200003202DF01FFC05AB284A41F2020141F2B5
:1035300001002CF043FC0990099B002B0CD024487F
:103540002DF00AFC0246099B0093BF23214902206B
:103550002DF044FC099B33E007AB19461B482CF0C7
:1035600033FB0990099B002B0CD019482DF0F4FB7C
:103570000246099B0093C223164902202DF02EFC1F
:10358000099B1DE0089B10221946134832F08CF964
:103590000E482CF055FB0990099B002B0CD00C48D1
:1035A0002DF0DAFB0246099B0093C723094902204C
:1035B0002DF014FC099B03E0039B084A1A600023CA
:1035C00018460BB05DF804FBFC850500A04F0020F9
:1035D00024840500A8850500B84F0020BC4F0020BA
:1035E00000B58BB003901F4904202DF0BBFB039B5B
:1035F000002B01D10E2330E0082203991A4832F043
:1036000053F91A4B42221A60184B04930323ADF866
:10361000143041F20303ADF8183041F20403ADF861
:103620001A3004AB07930123ADF8203006AB1946DE
:103630000F482CF054FB0990099B002B0CD00D482F
:103640002DF08AFB0246099B0093E6230A490220DB
:103650002DF0C4FB099B00E0002318460BB05DF879
:1036600004FB00BF2C860500CC4F0020C84F002073
:10367000AC4F002024840500A885050000B58BB060
:10368000039005AB08220021184632F036F92A498A
:1036900004202DF067FB05AB284A41F2040141F2FA
:1036A00003002CF08BFB0990099B002B0CD02448C5
:1036B0002DF052FB0246099B0093F723214902207B
:1036C0002DF08CFB099B33E007AB19461B482CF00F
:1036D0007BFA0990099B002B0CD019482DF03CFB7C
:1036E0000246099B0093FA23164902202DF076FB2F
:1036F000099B1DE0089B0C221946134832F0D4F8B0
:103700000E482CF09DFA0990099B002B0CD00C4818
:103710002DF022FB0246099B0093FF23094902205A
:103720002DF05CFB099B03E0039B084A1A60002311
:1037300018460BB05DF804FB5C860500AC4F00201A
:1037400024840500A8850500C84F0020CC4F002028
:1037500000B593B005900491039202938D49032024
:103760002DF000FB059B002B01D10E230DE1039BE7
:10377000002B01D10E2308E187482CF08FF911901E
:10378000119B002B0DD085482DF0E6FA0246119BC7
:1037900000934FF48A73824902202DF01FFB119B86
:1037A000F3E02CF09BF91190119B002B0FD07B487C
:1037B0002DF0D2FA0246119B009340F2171378497C
:1037C00002202DF00BFB119BDFE029F05DFA754B19
:1037D0001B7883F00103DBB2002BF6D1724B1B7810
:1037E00083F00103DBB2002BEFD10498FFF78EFECC
:1037F0001190119B0A2B45D16C4903202DF0B2FA90
:103800000C2205996A4832F04FF86A4B42221A603E
:10381000684B0C930423ADF8343041F20103ADF84A
:10382000383041F20203ADF83A300CAB0F9301236C
:10383000ADF84030604B00221A700EAB19465F485D
:103840002CF03EFA1190119B002B0DD053482DF017
:1038500083FA0246119B009340F23513504902202F
:103860002DF0BCFA119B90E0049B514A1A6001E0D4
:1038700029F00AFA504B1B7883F00103DBB2002BCE
:10388000F6D110E0119B002B0DD044482DF064FAC6
:103890000246119B00934FF4A073414902202DF082
:1038A0009DFA119B71E00298FFF7E8FE1190119BC1
:1038B0000A2B58D1039B1B889BB21946039B5B883C
:1038C0009BB21846039B9B889BB21A46039BDB88DE
:1038D0009BB20193009203460A46394903202DF01A
:1038E00096FA08220399374831F0DEFF364B422220
:1038F0001A60354B07930323ADF8203041F20303E0
:10390000ADF8243041F20403ADF8263007AB0A933A
:103910000123ADF82C302D4B00221A7009AB19464B
:103920002B482CF0CDF91190119B002B0DD01B488A
:103930002DF012FA0246119B00934FF4AD73184913
:1039400002202DF04BFA119B1FE0029B1D4A1A60CA
:1039500001E029F099F91D4B1B7883F00103DBB2DC
:10396000002BF6D110E0119B002B0DD00B482DF051
:10397000F3F90246119B009340F2651308490220B7
:103980002DF02CFA119B00E00023184613B05DF8CF
:1039900004FB00BF88860500413302002484050033
:1039A000A8850500D54F0020D74F0020B48605001C
:1039B000BC4F0020B84F0020D44F0020A04F002063
:1039C000E8860500CC4F0020C84F0020D64F0020CD
:1039D000AC4F002000B589B00190019B002B01D1B4
:1039E0000E2327E0019B1B889BB2ADF80C30019B96
:1039F0005B889BB2ADF80E30019B9B889BB2ADF803
:103A00001030019BDB889BB2ADF81230019B1B7A12
:103A10008DF8143003AB18460DF06EFA0790079B33
:103A20000693069B002B04D0044A4C21069828F0EC
:103A3000A9FF0023184609B05DF804FB5087050074
:103A400000B59BB0039001921A460B468DF80B30DF
:103A50001346ADF808309DF80B300B2B00F21382A3
:103A600001A252F823F000BF1F3E0200993A020063
:103A7000F73A0200553B0200AF3B02000D3C02004A
:103A8000673C0200C13C02001B3D0200993D020060
:103A9000EF3D0200013E0200039B93F866301A4698
:103AA000B44903202DF06FF9039B93F86630002B87
:103AB00010D04FF480700DF06FF81990199B189387
:103AC000189B002B00F0E181AB4A6021189828F088
:103AD00059FFDAE14FF480700DF086F91990199BC7
:103AE0001793179B002B00F0D081A34A65211798EC
:103AF00028F048FFC9E1039B93F867301A469F49B5
:103B000003202DF040F9039B93F86730002B10D071
:103B10004FF400700DF040F81990199B1693169B06
:103B2000002B00F0B481944A6E21169828F02AFFE9
:103B3000ADE14FF400700DF057F91990199B1593F2
:103B4000159B002B00F0A3818B4A7321159828F058
:103B500019FF9CE1039B93F868301A4688490320BB
:103B60002DF011F9039B93F86830002B0FD008203B
:103B70000DF012F81990199B1493149B002B00F070
:103B800088817D4A7C21149828F0FCFE81E1082080
:103B90000DF02AF91990199B1393139B002B00F039
:103BA0007881754A8121139828F0ECFE71E1039B1E
:103BB00093F869301A46734903202DF0E4F8039B0B
:103BC00093F86930002B10D04FF480600CF0E4FFC4
:103BD0001990199B1293129B002B00F05C81664A8E
:103BE0008A21129828F0CEFE55E14FF480600DF046
:103BF000FBF81990199B1193119B002B00F04B813E
:103C00005D4A8F21119828F0BDFE44E1039B93F893
:103C10006A301A465C4903202DF0B5F8039B93F8EF
:103C20006A30002B0FD007200CF0B6FF1990199BBB
:103C30001093109B002B00F030814F4A9821109870
:103C400028F0A0FE29E107200DF0CEF81990199B6D
:103C50000F930F9B002B00F02081474A9D210F9866
:103C600028F090FE19E1039B93F86B301A46474900
:103C700003202DF088F8039B93F86B30002B0FD0B6
:103C800010200CF089FF1990199B0E930E9B002BAE
:103C900000F00581384AA6210E9828F073FEFEE058
:103CA00010200DF0A1F81990199B0D930D9B002B7E
:103CB00000F0F580304AAB210D9828F063FEEEE06D
:103CC000039B93F86C301A46314903202DF05BF8C2
:103CD000039B93F86C30002B0FD020200CF05CFF7E
:103CE0001990199B0C930C9B002B00F0DA80224A50
:103CF000B4210C9828F046FED3E020200DF074F893
:103D00001990199B0B930B9B002B00F0CA801A4A49
:103D1000B9210B9828F036FEC3E0039B93F86D3071
:103D20001A461C4903202DF02EF8039B93F86D30A2
:103D3000002B0FD040200CF02FFF1990199B0A93F5
:103D40000A9B002B00F0AF800B4AC2210A9828F092
:103D500019FEA8E040200DF047F81990199B09932F
:103D6000099B002B00F09F80034AC721099828F087
:103D700009FE98E09887050050870500E487050054
:103D80003888050084880500D4880500208905004E
:103D90006C890500BC890500039B93F86E301A46B8
:103DA000454903202CF0EFFF039B93F86E30002B66
:103DB0000ED080200CF0F0FE1990199B0893089B00
:103DC000002B72D03D4AD021089828F0DBFD6CE032
:103DD00080200DF009F81990199B0793079B002B81
:103DE00063D0364AD521079828F0CCFD5DE0039BCF
:103DF00093F86F301A46324903202CF0C4FF57E085
:103E0000BDF80830039A0199184603F0A3FEBDF8E7
:103E100008301A460021019831F06FFD48E0BDF8E6
:103E200008301A46274903202CF0ADFFBDF80830B2
:103E3000092B0CBF01230023DBB20693069B002B4A
:103E400004D11E4AF021002028F09CFD019800F0CA
:103E500031FF1990199B0593059B002B04D0174A3D
:103E6000F321059828F08EFD0198FFF7B3FD199016
:103E7000199B0493049B002B19D0104AF621049837
:103E800028F080FD13E000BF12E000BF10E000BF8B
:103E90000EE000BF0CE000BF0AE000BF08E000BF7A
:103EA00006E000BF04E000BF02E000BF00E000BF8A
:103EB00000BF1BB05DF804FB0C8A050050870500AD
:103EC0005C8A0500AC8A050000B589B003468DF810
:103ED0000F303249324800F0A5FF0790079B002BB6
:103EE0000DD030482CF038FF0246079B009340F27B
:103EF0000D132D4902202CF071FF079B49E09DF81E
:103F00000F30002B0ED0264800F0D4FE0790079B00
:103F10000693069B002B05D0224A4FF48971069820
:103F200028F030FD1D4B1B681846FFF753FD079026
:103F3000079B002B0DD01B482CF00EFF0246079B61
:103F400000934FF48B73184902202CF047FF079B16
:103F50001FE004AB08220021184631F0CEFC0F4BC5
:103F60001B680493114B0593114903202CF0FAFEB2
:103F700004AB19460F4822F091FE0790079B002BD7
:103F800006D0079A0C4901202CF0FDFE079B00E0AB
:103F90000023184609B05DF804FB00BF5450002010
:103FA0004487050050870500FC8A0500413A02005D
:103FB000508B0500D84F0020908B050000B585B0D0
:103FC000019001990D4822F039FE019B1B88112BAD
:103FD0000FD140F6FF700CF007FF0390039B029394
:103FE000029B002B05D0064A40F23711029828F0B8
:103FF000C9FC00BF05B05DF804FB00BFD84F00202E
:10400000508705002DE9F047BAB002AFF860B960FB
:104010007A60FB681B78082B00F2718501A252F8C8
:1040200023F000BF49400200FD4402005545020054
:10403000DF4502006B480200BB480200E74902006E
:104040003D4A0200AD4A02007B68242B0CBF0123CD
:104050000023DBB2C7F8D830D7F8D830002B05D111
:104060001F4A4FF4A171002028F08CFCBB68C7F8F0
:10407000D430002387F8DD3064E097F8DD309B0012
:10408000D7F8D42013441B681B14A7F8D23097F834
:10409000DD30144A32F91330B7F9D2209A4225DBC9
:1040A00097F8DD10B7F9D20097F8DD300D4A32F9F4
:1040B0001330009303460A460B4902202CF08EFE73
:1040C00097F8DD30074A32F91330194697F8DD309A
:1040D0009B00D7F8D42013440A041A602DE000BFD7
:1040E00050870500C4900500BC8B050097F8DD30B3
:1040F000C54A32F91330B7F9D2209A421DDA97F83F
:10410000DD10B7F9D20097F8DD30BF4A32F913302D
:10411000009303460A46BD4902202CF05FFE97F843
:10412000DD30B94A32F91330194697F8DD309B007B
:10413000D7F8D42013440A041A6097F8DD3001330D
:1041400087F8DD3097F8DD30082B96D9D7F8D430D2
:104150001B689B111BB2A7F86430D7F8D430043326
:104160001B689B111BB2A7F86630D7F8D430083310
:104170001B689B111BB2A7F86830D7F8D4300C33FA
:104180001B68DB121BB2A7F86A30D7F8D4301033A3
:104190001B68DB121BB2A7F86C30D7F8D43014338D
:1041A0001B68DB121BB2A7F86E30D7F8D430183377
:1041B0001B681B139BB25B429BB21BB2A7F8723009
:1041C000D7F8D4301C331B681B131BB2A7F8703010
:1041D000D7F8D43020331B681B131BB2A7F87430F8
:1041E0008B4904202CF0BEFDD7F8D4301B6818464C
:1041F0002EF02EFD03460C46C7E932344FF0000284
:10420000844BD7E932012FF0B3F803460C46C7E9D7
:10421000323407F15C00D7E932237F4931F078F975
:1042200007F15C0318462CF097FD03461A467B49BC
:1042300004202CF0A8FDD7F8D43004331B681846AE
:104240002EF006FD03460C46C7E932344FF000025B
:10425000704BD7E932012FF08BF803460C46C7E9C3
:10426000323407F15C00D7E932236B4931F050F961
:1042700007F15C0318462CF06FFD03461A466849A7
:1042800004202CF080FDD7F8D43008331B68184682
:104290002EF0DEFC03460C46C7E932344FF0000234
:1042A0005C4BD7E932012FF063F803460C46C7E9AF
:1042B000323407F15C00D7E93223574931F028F94D
:1042C00007F15C0318462CF047FD03461A46554992
:1042D00004202CF058FDD7F8D4300C331B68184656
:1042E0002EF0B6FC03460C46C7E932344FF000020C
:1042F000484BD7E932012FF03BF803460C46C7E99B
:10430000323407F15C00D7E93223434931F000F938
:1043100007F15C0318462CF01FFD03461A4642497C
:1043200004202CF030FDD7F8D43010331B68184629
:104330002EF08EFC03460C46C7E932344FF00002E3
:10434000344BD7E932012FF013F803460C46C7E986
:10435000323407F15C00D7E932232F4931F0D8F825
:1043600007F15C0318462CF0F7FC03461A462F4968
:1043700004202CF008FDD7F8D43014331B681846FD
:104380002EF066FC03460C46C7E932344FF00002BB
:10439000204BD7E932012EF0EBFF03460C46C7E96C
:1043A000323407F15C00D7E932231B4931F0B0F811
:1043B00007F15C0318462CF0CFFC03461A461C4953
:1043C00004202CF0E0FCD7F8D4301C331B681846CE
:1043D0002EF03EFC03460C46C7E932344FF0000293
:1043E0000C4BD7E932012EF0C3FF03460C46C7E958
:1043F000323407F15C00D7E93223074931F088F8FD
:1044000007F15C03184615E0D8900500088C0500FC
:10441000548C05000000F040848C05008C8C050055
:10442000BC8C0500EC8C05001C8D0500508D050032
:10443000848D05002CF090FC03461A46BC490420EC
:104440002CF0A1FCD7F8D43018331B6818462EF096
:10445000FFFB03460C461A46C7F8C82084F0004309
:10446000C7F8CC304FF00002B24BD7E932012EF042
:104470007FFF03460C46C7E9323407F15C00D7E9F9
:104480003223AD4931F044F807F15C0318462CF0B3
:1044900063FC03461A46A94904202CF074FCD7F8A3
:1044A000D43020331B6818462EF0D2FB03460C464E
:1044B000C7E932344FF000029E4BD7E932012EF0AB
:1044C00057FF03460C46C7E9323407F15C00D7E9D1
:1044D0003223994931F01CF807F15C0318462CF09F
:1044E0003BFC03461A46964904202CF04CFC07F18D
:1044F00064031946934822F0BDFD05E37B68102B49
:104500000CBF01230023DBB2C7F8C430D7F8C43096
:10451000002B05D18C4A40F2BF11002028F032FA5E
:10452000BB68C7F8C030D7F8C0301B68FB64D7F849
:10453000C0305B683B65D7F8C0309B687B65D7F8B7
:10454000C030DB68BB6507F14C0319467D4822F09B
:104550000BFDD9E27B680C2B0CBF01230023DBB2DF
:10456000C7F8BC30D7F8BC30002B05D1764A40F2F2
:10457000E111002028F006FABB68C7F8B830D7F878
:10458000B8301B683B64D7F8B8305B687B64D7F8F9
:10459000B8309B68BB643B6C002B02DA03F57F43A9
:1045A000FF331B141A467B6C002B02DA03F57F43A2
:1045B000FF331B141946BB6C002B02DA03F57F4353
:1045C000FF331B1400930B46604904202CF006FCBB
:1045D00007F1400319465B4822F08FFD94E26B46D9
:1045E0009A467B68242B0CBF01230023DBB2C7F85B
:1045F000B430D7F8B430002B05D1534A4FF4F971D9
:10460000002028F0BFF9BB68C7F8B030D7F8B03049
:104610001B681B141BB2BB85D7F8B03004331B6872
:104620001B141BB2FB85D7F8B03008331B681B1472
:104630001BB23B86D7F8B0300C331B681B141BB27F
:104640007B86D7F8B03010331B681B141BB2BB86B7
:10465000D7F8B03014331B681B141BB2FB86D7F895
:10466000B03018331B681B141BB23B87D7F8B0302F
:104670001C331B681B141BB27B87D7F8B030203368
:104680001B681B141BB2BB87314B1B78013BC7F85F
:10469000AC302F4B1B78D9B24FF000020B461446BA
:1046A00013EB030844EB040943464C465B1842EB0A
:1046B00004044FF000014FF00002220142EA13729D
:1046C00019010B461446224B1B781A4613465B0011
:1046D00013445B001E4B1B78D9B24FF000020B460F
:1046E0001446DD1844EB04062B4634465B1842EBB7
:1046F00004044FF000014FF00002220142EA13725D
:1047000019010B461446124B1B781A4613465B00E0
:1047100013445B000733DB08DB00ADEB030D02AB9A
:104720000033C7F8A830002387F8DE3038E000BF38
:10473000B88D05000000F040848C0500E88D050070
:10474000188E0500D84F002050870500488E0500C0
:10475000EA90050097F8DE309B00D7F8B0201344AC
:104760001B6818462EF074FA4FF00002C24B2EF070
:10477000FFFD03460C46C7E9283497F8DE201346B0
:104780005B0013445B00D7F8A820D018D7E9282392
:10479000BA4930F0BDFE97F8DE30013387F8DE30DD
:1047A000B74B1B7897F8DE209A42D3D3B549042043
:1047B0002CF0D8FAD7F8A83018462CF0CDFA0446D9
:1047C000D7F8A830063318462CF0C6FA0546D7F8B5
:1047D000A8300C3318462CF0BFFA034600932B4642
:1047E0002246A94904202CF0F9FAD7F8A830123350
:1047F00018462CF0B1FA0446D7F8A83018331846FA
:104800002CF0AAFA0546D7F8A8301E3318462CF02B
:10481000A3FA034600932B4622469B4904202CF022
:10482000DDFAD7F8A830243318462CF095FA044660
:10483000D7F8A8302A3318462CF08EFA0546D7F858
:10484000A830303318462CF087FA034600932B46E5
:1048500022468D4904202CF0C1FA07F12C03194699
:104860008A4822F08DFCD5464EE17B68042B0CBFB4
:1048700001230023DBB2C7F89C30D7F89C30002B13
:1048800005D1834A40F21721002028F07BF8BB684D
:104890001B68BB62BB6A002B02DA03F57F43FF3360
:1048A0001B141A467B4904202CF06DFA07F12803EB
:1048B0001946764822F0A7FC26E16B461D467B6828
:1048C0000C2B0CBF01230023DBB2C7F89830D7F8BC
:1048D0009830002B05D16E4A40F22221002028F0AA
:1048E00051F8BB68C7F89430D7F894301B68FB6167
:1048F000D7F894305B683B62D7F894309B687B6252
:10490000654B1B78013BC7F89030634B1B78D9B2DD
:104910004FF000024FF000034FF00004940144EA0E
:1049200091648B015C4B1B78D9B24FF000024FF0C1
:1049300000034FF00004940144EA91648B01564B4C
:104940001B78DB000733DB08DB00ADEB030D02ABAC
:104950000033C7F88C30002387F8DF301AE097F86F
:10496000DF30DB00D7F88C20D41897F8DF309B00BD
:10497000D7F8942013441B6818462EF0A5FA024677
:104980000B464649204630F0C3FD97F8DF3001332F
:1049900087F8DF30404B1B7897F8DF209A42DED350
:1049A000D7F88C3018462CF0D7F90446D7F88C305D
:1049B000083318462CF0D0F90646D7F88C3010335F
:1049C00018462CF0C9F90346009333462246344971
:1049D00004202CF003FA07F11C0319462B4822F09F
:1049E00056FCAD4690E07B68022B0CBF01230023F0
:1049F000DBB2C7F88830D7F88830002B05D1244ABD
:104A000040F23F21002027F0BDFFBB68C7F884308B
:104A1000D7F884301B783B76D7F884305B787B7688
:104A20007B7E1A463B7E1F4904202CF0C0F907F11B
:104A300018031946154822F011FA65E07B68012B2E
:104A40000CBF01230023DBB2C7F88030D7F88030D9
:104A5000002B05D10E4A4FF41471002027F092FF6D
:104A6000BB681B781A46104904202CF08CF9B968F1
:104A7000064822F036FA47E00000D041AC8E05002F
:104A8000EA900500B48E0500E88E0500D84F00209E
:104A900050870500108F0500EB900500508F050032
:104AA000588F0500A48F0500DC8F05007B68082B5C
:104AB0000CBF01230023DBB2FB67FB6F002B05D18A
:104AC000144A40F25A21002027F05CFFBB68BB6704
