:020000021000EC
:10F000000000012033F10100D9F00100DBF0010024
:10F01000DDF00100DFF00100E1F001000000000080
:10F02000000000000000000000000000E3F001000C
:10F03000E5F0010000000000E7F00100E9F0010048
:10F0400071B80400EDF00100EFF00100D1AB040055
:10F05000F3F00100D1270500D99A040051BB040048
:10F06000FBF00100FDF00100FFF0010001F10100E3
:10F0700003F1010035CA040007F1010009F10100A4
:10F080000BF1010051E004000FF1010011F101004A
:10F0900091E0040015F101005913050019F1010078
:10F0A0001BF101001DF10100DDCB04003925050035
:10F0B000E9B40400EDC504000000000000000000F9
:10F0C00027F1010029F101002BF101002DF10100D0
:08F0D0002FF1010031F10100F4
:10F0D800FEE7FEE7FEE7FEE7FEE7FEE7FEE7FEE700
:10F0E800FEE7FEE7FEE7FEE7FEE7FEE7FEE7FEE7F0
:10F0F800FEE7FEE7FEE7FEE7FEE7FEE7FEE7FEE7E0
:10F10800FEE7FEE7FEE7FEE7FEE7FEE7FEE7FEE7CF
:10F11800FEE7FEE7FEE7FEE7FEE7FEE7FEE7FEE7BF
:10F12800FEE7FEE7FEE7FEE7FEE70348854600F058
:10F13800C5F800F003B87047000001203749384887
:10F148000A1A02D0072291438D46364936480A1AD0
:10F1580006D00722914381F30988022282F314889A
:10F1680032483349334A00F048F833483349344A7F
:10F1780000F043F833483449344A00F03EF8344844
:10F188003449354A00F039F834483549354A00F0F1
:10F1980034F835483549364A00F02FF835483649AD
:10F1A800364A00F02AF836483649374A00F025F83A
:10F1B80036483749002200F02BF8364836490022F5
:10F1C80000F026F835483649091A082903DB0022D9
:10F1D8000260043001601F481F49884205D0026858
:10F1E800043003B4904703BCF7E700208646EC469A
:10F1F800002000212B4A9047FEE7884207D0521A88
:10F2080005D0037801300B700131013AF9D170470C
:10F21800884202D002700130FAE7704700000120EE
:10F2280000FC0020000001200000012030470600FB
:10F238005845002078460020B0F20100B0F20100E5
:10F2480050710500304706005845002058450020F9
:10F25800507105005071050050710500507105008E
:10F26800507105005071050050710500507105007E
:10F2780030470600504806007846002078460020AF
:10F28800504806007846002088460020884600201E
:10F2980040A1002040A1002048A1002048A1002052
:08F2A80048A5002091FD0100C2
:10F2B000024B034A1A6000BF704700BF5845002048
:10F2C0000090D00308B500F00DF90346002B06D0DE
:10F2D000744B1B681B0A744A03F01F03136000F091
:10F2E0002DF90346002B02D0704B714A1A6000F0D2
:10F2F00041F90346002B06D06E4B1B685B0B6E4A30
:10F3000003F00703136000F061F90346002B05D0FA
:10F310006A4BDB68694A23F08073D36000F072F9AE
:10F320000346002B0ED04FF080430022C3F80C217F
:10F330004FF080430022C3F810214FF08043002299
:10F34000C3F8382500F08AF90346002B02D05C4B45
:10F3500003221A6000F09EF90346002B0BD0594B94
:10F3600005221A60584B01221A60584B00221A607D
:10F37000574B3F221A6000F0A9F90346002B76D0C4
:10F380004FF08053534AD3F80434C2F820354FF07D
:10F390008053504AD3F80834C2F824354FF08053D4
:10F3A0004C4AD3F80C34C2F828354FF08053494A00
:10F3B000D3F81034C2F82C354FF08053454AD3F8B7
:10F3C0001434C2F830354FF08053424AD3F8183421
:10F3D000C2F834354FF080533E4AD3F81C34C2F89B
:10F3E00040354FF080533B4AD3F82034C2F84435BF
:10F3F0004FF08053374AD3F82434C2F848354FF0E1
:10F400008053344AD3F82834C2F84C354FF0805337
:10F41000304AD3F82C34C2F850354FF080532D4A7F
:10F42000D3F83034C2F854354FF08053294AD3F81A
:10F430003434C2F860354FF08053264AD3F838345C
:10F44000C2F864354FF08053224AD3F83C34C2F8F6
:10F4500068354FF080531F4AD3F84034C2F86C35FA
:10F460004FF080531B4AD3F84434C2F8703500F093
:10F4700049F90346002B05D0174B1B68174A03F0C8
:10F480004F031360164BD3F88830154A43F47003CA
:10F49000C2F88830BFF34F8FBFF36F8FFFF708FFBD
:10F4A00000BF08BD240300104035014074C0074070
:10F4B0000DF0ADBA440200103C050040F0ED00E054
:10F4C000A0050040105600408856004018560040E5
:10F4D0001456004000C0004058020010E40E0040E6
:10F4E00000ED00E0124B1B68DBB2062B1DD1114B67
:10F4F0001B6803F00F03002B17D10F4B1B6803F0A1
:10F50000F003302B01D1012310E00B4B1B6803F0FB
:10F51000F003402B01D1012308E0074B1B6803F0E7
:10F52000F003502B01D1012300E00023184670475F
:10F53000E00F00F0E40F00F0E80F00F00A4B1B684A
:10F54000DBB2062B0DD1094B1B6803F00F03002B18
:10F5500007D1074B1B6803F0F003302B01D10123C7
:10F5600000E0002318467047E00F00F0E40F00F0C1
:10F57000E80F00F0124B1B68DBB2062B1DD1114BBC
:10F580001B6803F00F03002B17D10F4B1B6803F010
:10F59000F003302B01D1012310E00B4B1B6803F06B
:10F5A000F003402B01D1012308E0074B1B6803F057
:10F5B000F003502B01D1012300E0002318467047CF
:10F5C000E00F00F0E40F00F0E80F00F00A4B1B68BA
:10F5D000DBB2062B0DD1094B1B6803F00F03002B88
:10F5E00007D1074B1B6803F0F003302B01D1012337
:10F5F00000E0002318467047E00F00F0E40F00F031
:10F60000E80F00F0124B1B68DBB2062B1DD1114B2B
:10F610001B6803F00F03002B17D10F4B1B6803F07F
:10F62000F003302B01D1012310E00B4B1B6803F0DA
:10F63000F003402B01D1012308E0074B1B6803F0C6
:10F64000F003502B01D1012300E00023184670473E
:10F65000E00F00F0E40F00F0E80F00F00A4B1B6829
:10F66000DBB2062B0DD1094B1B6803F00F03002BF7
:10F6700007D1074B1B6803F0F003302B01D10123A6
:10F6800000E0002318467047E00F00F0E40F00F0A0
:10F69000E80F00F00A4B1B68DBB2062B0DD1094BBB
:10F6A0001B6803F00F03002B07D1074B1B6803F007
:10F6B000F003302B01D1012300E0002318467047EE
:10F6C000E00F00F0E40F00F0E80F00F00A4B1B68B9
:10F6D000DBB2062B0DD1094B1B6803F00F03002B87
:10F6E00007D1074B1B6803F0F003502B01D1012316
:10F6F00000E0002318467047E00F00F0E40F00F030
:10F70000E80F00F0124B1B68DBB2062B1DD1114B2A
:10F710001B6803F00F03002B17D10F4B1B6803F07E
:10F72000F003302B01D1012310E00B4B1B6803F0D9
:10F73000F003402B01D1012308E0074B1B6803F0C5
:10F74000F003502B01D1012300E00023184670473D
:10F75000E00F00F0E40F00F0E80F00F00048704701
:10F7600038A1002082B003468DF807309DF807309D
:10F7700003F01F0206499DF907305B09012000FADA
:10F7800002F2603341F8232000BF02B0704700BF8F
:10F7900000E100E0BFF34F8F054BDB6803F4E0624C
:10F7A0000349044B1343CB60BFF34F8F00BFFDE70A
:10F7B00000ED00E00400FA0532DF704700BF184694
:10F7C0003EDF704700BF184682B001904FF0A04363
:10F7D000184602B0704700B585B001900846114642
:10F7E0001A4603468DF803300B468DF80230134657
:10F7F0008DF8013001AB1846FFF7E6FF03909DF846
:10F8000003209DF802305B001A439DF801309B00F5
:10F810001A439DF818301B0242EA03019DF81C3080
:10F820001B04019A1943039B02F5E07243F822106E
:10F8300000BF05B05DF804FB00B585B003900B4632
:10F840008DF80B3013468DF80A309DF80B209DF88B
:10F850000A300193002300931346002200210398ED
:10F86000FFF7B9FF00BF05B05DF804FB84B001905D
:10F87000244B0393019B002B40D0234B1A68039920
:10F88000019B00BF00BF00BF00BF00BF00BF00BFA3
:10F8900000BF8A422FD000BF00BF00BF00BF00BF23
:10F8A00000BF00BF00BF00BF00BF00BF00BF00BF60
:10F8B00000BF00BF00BF00BF00BF00BF00BF00BF50
:10F8C00000BF00BF00BF00BF00BF00BF00BF00BF40
:10F8D00000BF00BF00BF00BF00BF00BF00BF00BF30
:10F8E00000BF00BF00BF00BF00BF00BF00BF00BF20
:10F8F00000BF00BF00BF013BC3D1019300BF04B0F4
:10F90000704700BF0024F4005845002000B583B0C4
:10F910000190019B4FF47A7202FB03F31846FFF744
:10F92000A5FF00BF03B05DF804FB000070B58AB00E
:10F93000079006910592059B0993099B5B68184601
:10F9400031F02EFE0546099B1B881E46099B9C68CC
:10F95000099B9B68184632F007FA0346184631F0B7
:10F960001FFE03460393029401960095069B079A97
:10F970000849012031F08AFE022005F053FE0520DF
:10F98000FFF7C4FF059A069907982DF037FC00BFD2
:10F990000AB070BDC871050000B587B0F1EE103A2D
:10F9A0000193019B23F09F030293029BE1EE103A27
:10F9B000F1EE103A03932620FFF7D4FEFFF700FF85
:10F9C0000590059B0493049B002B04D0044AB921A5
:10F9D00004982DF0FBFB00BF07B05DF804FB00BFEF
:10F9E0005C72050000B589B00390039B5B881A46E2
:10F9F000039B1B791946039B1B7800930B462049F8
:10FA0000032031F00FFE039B002B34D0039B1B78A7
:10FA1000012B30D108F000F80790079B0693069B56
:10FA2000002B04D0174ACB2106982DF0CFFB0222E1
:10FA300000210D20FFF700FF1349022031F0B6FD31
:10FA4000FFF7BAFE079007F0C5FD034683F00103F8
:10FA5000DBB2002B0AD0079B0593059B002B0AD035
:10FA6000084AD82105982DF0B1FB04E0074902208F
:10FA700031F09CFDFEE700BF09B05DF804FB00BF5C
:10FA8000747305005C720500BC73050038730500D3
:10FA900000B583B00190019B1B78012B08D0022B8D
:10FAA00010D0002B15D10D49032031F07FFD10E05F
:10FAB0000B49032031F07AFD0520FFF727FFFFF700
:10FAC00069FE06E00749032031F070FDFFF762FE92
:10FAD00000BF00BF03B05DF804FB00BF2074050049
:10FAE0005C7405009C74050000B59BB001AB24223A
:10FAF0000021184636F025FB1C238DF80A3005231B
:10FB00008DF80B300D238DF80C3011238DF80D304E
:10FB100001238DF80E3004238DF80F3040F61C437E
:10FB2000ADF8103041F25E03ADF81230594B059339
:10FB3000594B06936F23ADF81C3040F61C43ADF8CB
:10FB40001E300A238DF82030544B09930F2006F005
:10FB5000B3FD1990199B1893189B002B05D0504AA0
:10FB60004FF4897118982DF031FB4E4B0F930FAB6A
:10FB700019464D4805F0F8FD1990199B1793179BEE
:10FB8000002B05D0464A4FF48C7117982DF01EFBC0
:10FB9000444B0E930EAB1946444803F0EFFA19900C
:10FBA000199B1693169B002B05D03D4A4FF48F717D
:10FBB00016982DF00BFB3B4B0D930DAB19463C48B3
:10FBC00004F0B4FF1990199B1593159B002B05D0D9
:10FBD000334A40F2251115982DF0F8FA354806F011
:10FBE000AFF91990199B1493149B002B05D02C4A44
:10FBF0004FF4947114982DF0E9FA2F4B019301AB57
:10FC000019462E4807F0C4FA1990199B1393139BB9
:10FC1000002B05D0224A40F22D1113982DF0D6FA70
:10FC200041F2883007F034FA1990199B1293129B15
:10FC3000002B05D01A4A4FF4987112982DF0C6FA8D
:10FC40001F4B0A93194B0B9305230C930AAB1846D1
:10FC500001F094FC1990199B1193119B002B05D076
:10FC60000F4A4FF49C7111982DF0B0FA012005F065
:10FC7000D9FC1990199B1093109B002B05D0084AB2
:10FC800040F23B1110982DF0A1FA00BF1BB05DF8B7
:10FC900004FB00BF60E3160020BF020050710500A6
:10FCA0005C720500C071050098460020884600205F
:10FCB00090460020A0460020E5F90100A84600205B
:10FCC00091FA010000B585B00C4B019301AB1846C9
:10FCD00007F050FE0390039B0293029B002B05D07C
:10FCE000074A4FF4AF7102982DF070FA6420FFF7C5
:10FCF0000DFE00BF05B05DF804FB00BF18750500E0
:10FD00005C72050000B589B01E4B02931E4B039335
:10FD100002AB18460BF074F80790079B0693069BFE
:10FD2000002B05D0194A40F2751106982DF04EFAB5
:10FD3000144B0093144B01936B4618460BF030F9AB
:10FD40000790079B0593059B002B05D00F4A40F2B7
:10FD50007B1105982DF03AFA0BF03EFB0790079BBC
:10FD60000493049B002B05D0084A4FF4BF710498FC
:10FD70002DF02CFA6420FFF7C9FD00BF09B05DF833
:10FD800004FB00BFC0710500347505005C720500FE
:10FD900000B587B0002031F0B3FB0590059B0493BC
:10FDA000049B002B05D01B4A4FF4D77104982DF00B
:10FDB0000DFA1949032031F0F9FB184A3C210820BB
:10FDC0002DF0C0FA0390039B0293029B002B05D0F9
:10FDD000104A4FF4DA7102982DF0F8F92EF05EF91E
:10FDE0000590059B0193019B002B05D0094A4FF418
:10FDF000DB7101982DF0EAF9FFF764FFFFF774FE5D
:10FE0000FFF780FF07F030FE2DF062FBFFF7C4FD27
:10FE1000FAE700BF5C720500D8740500B046002008
:10FE20006DDF704700BF184676DF704700BF184689
:10FE30007ADF704700BF18467CDF704700BF184666
:10FE40007FDF704700BF18468FDF704700BF18463E
:10FE50009EDF704700BF1846A9DF704700BF1846F5
:10FE6000ADDF704700BF184669DF704700BF184616
:10FE700066DF704700BF184631DF704700BF184685
:10FE80003DDF704700BF184684B00190244B0393B8
:10FE9000019B002B40D0234B1A680399019B00BFA4
:10FEA00000BF00BF00BF00BF00BF00BF00BF8A424D
:10FEB0002FD000BF00BF00BF00BF00BF00BF00BF0A
:10FEC00000BF00BF00BF00BF00BF00BF00BF00BF3A
:10FED00000BF00BF00BF00BF00BF00BF00BF00BF2A
:10FEE00000BF00BF00BF00BF00BF00BF00BF00BF1A
:10FEF00000BF00BF00BF00BF00BF00BF00BF00BF0A
:10FF000000BF00BF00BF00BF00BF00BF00BF00BFF9
:10FF100000BF013BC3D1019300BF04B0704700BFD5
:10FF20000024F4005845002000B583B00190019BE7
:10FF30004FF47A7202FB03F31846FFF7A5FF00BFE8
:10FF400003B05DF804FB000000B583B001900091A0
:10FF5000009B1B78012B09D0022B02D0002B0AD06A
:10FF60000EE00C49032031F021FB0EE00A4903208A
:10FF700031F01CFB09E00949032031F017FB04E0D4
:10FF80000749022031F012FB00BF00BF03B05DF84B
:10FF900004FB00BF68770500A8770500E47705003B
:10FFA0002478050000B585B00023019301AB184605
:10FFB0002EF088FC03468DF80F309DF80F30029329
:10FFC000029B002B04D0074A842102982DF0FEF8F2
:10FFD000019B002B14BF01230023DBB2184605B0A0
:10FFE0005DF804FB6078050000B589B003900B460E
:10FFF0008DF80B3000238DF817300DF117031846DC
:020000022000DC
:100000002CF0B4FC00238DF81F3016E09DF81F3053
:1000100001338DF81F302E49022031F0C7FA0DF15F
:10002000170318462CF0A2FC0520FFF77DFF9DF872
:100030001F30052B01D90D2345E09DF817309DF8A1
:100040000B209A42E2D89DF817301A462149032026
:1000500031F0BDFA9DF80B30194603982CF0A2FC44
:100060000690069B002B0CD01B4831F099FA0246F3
:10007000069B0093A3231949022031F0D3FA069B73
:1000800021E01749032031F091FA00238DF81E304A
:100090000EE09DF81E30039A13441B781A4611494E
:1000A000132031F094FA9DF81E3001338DF81E3084
:1000B0009DF81E209DF80B309A42EAD30A4913207E
:1000C00031F074FA0023184609B05DF804FB00BF54
:1000D000A4780500F4780500607805002C79050007
:1000E00080790500B0790500B879050010B586B0B3
:1000F0009DF804306FF303038DF804309DF804304D
:100100006FF307138DF80430474B1B681C46464BB2
:100110001B68184636F091F803469AB201AB2146A7
:100120001846FFF789FE0590059B0493049B002B5E
:1001300004D03E4AC22104982DF048F802AB0822B0
:100140000021184635F0FDFF374B1B68B3F80F3020
:100150009BB2ADF80830344B1B68B3F811309BB23A
:10016000ADF80A30304B1B68B3F813309BB2ADF8D2
:100170000C302D4B1B68B3F815309BB2ADF80E3028
:1001800002AB1846FFF754FE0590059B072B41D1A3
:10019000254B1B68002242F00602DA7300221A7413
:1001A000214B1B68002242F00C025A7400229A7400
:1001B0001D4B1B680022DA7400221A751A4B1B684B
:1001C000002242F040025A75002242F001029A7564
:1001D000154B1B68184601F05FFB0590059B002B33
:1001E00001D0059B1CE00623ADF808300C23ADF8C8
:1001F0000A300023ADF80C304FF4A073ADF80E3088
:1002000002AB1846FFF714FE0590059B002B06D0A5
:10021000059B05E0059B002B01D0059B00E000231A
:10022000184606B010BD00BFD84A0020607805000F
:1002300000B585B00190019B1B78002B16D11149A8
:10024000012031F0B3F9104B1B883B211846FFF712
:10025000EBFD0390039B0293029B002B0ED00B4AF5
:1002600040F2011102982CF0B1FF07E0019B1B78CE
:10027000012B03D10649032031F098F900BF05B0E6
:100280005DF804FBBC7905005C4500206078050042
:100290000C7A050000B583B00190019A064901204F
:1002A00031F095F9054A40F2151101982CF08EFFB6
:1002B00000BF03B05DF804FB587A050060780500C4
:1002C00000B58BB002AB1C220021184635F039FF77
:1002D0006B4608220021184635F033FF1F4B1B6880
:1002E000B3F80F309BB2ADF800301C4B1B68B3F86D
:1002F00011309BB2ADF80230184B1B68B3F81330C5
:100300009BB2ADF80430154B1B68B3F815309BB2A7
:10031000ADF806306B4602934FF4004303934FF45D
:100320007023049303238DF814300023ADF81630A6
:1003300000238DF818300A4B07930A4B089302AB41
:10034000184623F019F80990099B002B01D0099B4E
:1003500000E0002318460BB05DF804FBD84A0020EB
:10036000310202009502020000B589B003468DF803
:1003700007309DF80730002B06D0032B20D11449FD
:10038000032031F013F91EE01249032031F00EF979
:1003900002238DF80C30104B1B6803AA10469847B7
:1003A000032022F035FE0790079B0693069B002B47
:1003B00008D00A4A40F2531106982CF007FF01E0DA
:1003C00000BF00E000BF00BF09B05DF804FB00BF44
:1003D000947A0500CC7A0500804A002060780500F8
:1003E00000B58DB00190019B1B88013B542B00F29E
:1003F0006F8101A252F823F001060200D10602002B
:10040000D1060200D1060200D1060200D106020088
:10041000D1060200D1060200D1060200D106020078
:10042000D1060200D1060200D1060200D106020068
:10043000D10602004D0502006F050200D106020040
:10044000AF050200D1060200D1060200D10602006B
:10045000D1060200D1060200D1060200D106020038
:10046000D1060200D1060200D1060200D106020028
:10047000D1060200D106020097060200C70602005C
:10048000D1060200D1060200D1060200D106020008
:10049000D1060200D1060200D1060200D1060200F8
:1004A000D1060200D1060200D1060200D1060200E8
:1004B000D1060200D1060200D1060200D1060200D8
:1004C000D1060200D1060200D1060200D1060200C8
:1004D000D1060200D1060200D10602008706020002
:1004E000D1060200D1060200D1060200D1060200A8
:1004F000D1060200D1060200D1060200D106020098
:10050000D1060200D1060200D1060200D106020087
:10051000D1060200D1060200D1060200D106020077
:10052000D1060200D1060200D1060200D106020067
:10053000D1060200D1060200D1060200D905020050
:10054000D1060200D10602002706020068490320F6
:1005500031F02CF8019B9A88664B1A8000238DF8A5
:100560000830654B1B6802AA10469847BBE0019B08
:100570001B7A1A466149032031F029F85D4B4FF68A
:10058000FF721A80FFF70EFD0346002B03D05C4B71
:1005900001221A70A7E05A4B00221A7001238DF82D
:1005A0000830554B1B6802AA104698479BE0514BF8
:1005B0001888002300228521FFF742FC0B900B9B3B
:1005C0000A930A9B002B00F085804E4A40F283116B
:1005D0000A982CF0FBFD7DE0464B18880023002292
:1005E0000021FFF739FC0B900B9B0993099B002B13
:1005F00072D0444A40F2891109982CF0E7FD6BE073
:100600003C4B1B8800211846FFF732FC0B900B9BDC
:100610000893089B002B61D03A4A4FF4C7710898A1
:100620002CF0D4FD5AE0019BDB881A4636490320A2
:1006300030F0CDFF019B9B884FF48A711846FFF77D
:100640000FFC0B900B9B0793079B002B05D02D4AAB
:100650004FF4CB7107982CF0B9FD019BDA882B4B36
:10066000A3F8012029492A4824F0BCFF0B900B9BDA
:100670000693069B002B33D0224A4FF4CD71069887
:100680002CF0A4FD2CE0019B5B891A462149032034
:1006900030F09DFF27E02049032030F087FF019BC9
:1006A0009B88002200211846FFF7CEFB0B900B9B86
:1006B0000593059B002B15D0124A40F2A71105980F
:1006C0002CF084FD0EE01549032030F06FFF0AE0A6
:1006D00000BF08E000BF06E000BF04E000BF02E08A
:1006E00000BF00E000BF00BF0DB05DF804FB00BF1D
:1006F000047B05005C450020804A0020407B05000B
:10070000DF4A002060780500907B0500DC4A00206D
:100710008C4A0020E07B05002C7C05007C7C0500D9
:1007200000B585B00190019823F058F8019822F0A7
:1007300055FF0023039312E0144B1A68039BDB0060
:1007400013445B68002B07D0104B1A68039BDB0037
:1007500013445B6801989847039B013303930C4B48
:100760001B68039A9A42E7D301990A4824F07FFE56
:100770000199094830F069FB0198FFF731FE0198B3
:1007800022F030FD00BF05B05DF804FB844A002074
:10079000884A00208C4A0020FC4A002000B587B01F
:1007A000019001982EF0A0F8019805F079FE0198CB
:1007B00022F034FD019B022B02D0019B032B13D1AD
:1007C000FFF7F0FB034683F00103DBB2002B0BD0F5
:1007D000074B1B78002B07D001238DF80C30054BFD
:1007E0001B6803AA1046984700BF07B05DF804FBDA
:1007F000DF4A0020804A002000B593B0A54B1B685B
:10080000049304A8A44B4FF4A672A44930F018FD39
:100810001190119B1093109B002B05D0A04A4FF410
:10082000FE7110982CF0D2FC0023039303AB184602
:1008300030F0CAFD0F900F9B0E930E9B002B05D03E
:10084000974A4FF400710E982CF0C0FC6B460C22B6
:100850000021184635F075FC01238DF800304FF467
:100860008A73ADF80230039A6B4619462320FFF7CE
:10087000FBFA0F900F9B0D930D9B002B05D0884A20
:1008800040F209210D982CF0A1FC6B460C220021AE
:10089000184635F056FC01238DF8003001238DF801
:1008A00002300623ADF80430039A6B461946202027
:1008B000FFF7DAFA0F900F9B0C930C9B002B05D0DF
:1008C000774A40F211210C982CF080FC6B460C22E8
:1008D0000021184635F035FC01238DF80030102337
:1008E0008DF80230039A6B4619462220FFF7BCFAB6
:1008F0000F900F9B0B930B9B002B05D0684A4FF476
:1009000006710B982CF062FC6B460C2200211846F5
:1009100035F017FC01238DF8003002238DF80230EA
:10092000039A6B4619462120FFF79EFA0F900F9B02
:100930000A930A9B002B05D0594A40F21F210A98BE
:100940002CF044FC6B460C220021184635F0F9FBD4
:1009500002238DF80030039A6B4619460120FFF7F9
:1009600083FA0F900F9B0993099B002B05D04C4AEB
:100970004FF4097109982CF029FC6B460C220021D8
:10098000184635F0DEFB01238DF80030039A6B46E4
:1009900019464020FFF768FA0F900F9B0893089BB9
:1009A000002B05D03E4A40F2292108982CF00EFC7D
:1009B0006B460C220021184635F0C3FB4FF47A63D6
:1009C0000093039A6B461946A120FFF74DFA0F904A
:1009D0000F9B0793079B002B05D0314A40F22E2135
:1009E00007982CF0F3FB6B460C220021184635F0DB
:1009F000A8FB9DF8003043F001038DF80030039A06
:100A00006B461946A020FFF72FFA0F900F9B069315
:100A1000069B002B05D0224A40F2332106982CF089
:100A2000D5FB03AB184630F0DFFC0F900F9B05930E
:100A3000059B002B05D01A4A40F2362105982CF070
:100A4000C5FB184830F068FC0F900F9B002B01D0BD
:100A50000F9B1BE0144830F06FFC0F900F9B002B96
:100A600001D00F9B12E00120FFF706FA0F900F9BB9
:100A7000002B01D00F9B09E00120FFF701FA0F9036
:100A80000F9B002B01D00F9B00E00023184613B0F2
:100A90005DF804FBC47C0500BD140500144B002068
:100AA00060780500210702009D07020000B5B1B083
:100AB0004FF48073ADF878303B4B1B788DF87A306B
:100AC0001FAB3C220021184635F03BFB02238DF87A
:100AD0007C3000238DF87E3006238DF87F30012393
:100AE000ADF884301EAB229316AB202200211846AD
:100AF00035F027FB01238DF85B302C4B1B689B895D
:100B00009BB21A93294B1B689B7B1B9307AB3C2220
:100B10000021184635F015FB00238DF8BF3010E09A
:100B20009DF8BF30C3F103029DF8BF3020498A5CB5
:100B300030A90B4403F8B42C9DF8BF3001338DF875
:100B4000BF309DF8BF30032BEAD95923ADF81030E0
:100B500003AB06930423ADF8143000238DF81C304A
:100B600004AB109316AA07A91FA800230093114BEA
:100B700022F04AF92E902E9B002B0DD00E4830F01B
:100B80000FFD02462E9B009340F282230B49022068
:100B900030F048FD2E9B03E0012022F027F90023CE
:100BA000184631B05DF804FB8C4A0020D84A00207A
:100BB000F84A002069030200607805002C790500DE
:100BC00000B583B00190054A40F28F2101982CF0C6
:100BD000FDFA00BF03B05DF804FB00BF60780500BC
:100BE00000B583B01A4B1B6893F82830022B03D84A
:100BF00005F014FD002327E0164B4FF43E721A60F7
:100C0000134B1B681733134A5360114B1B6893F83F
:100C100028309AB20F4B1A810E4B0F4A5A610F4877
:100C2000FFF7FEF80190019B002B01D0019B0BE028
:100C3000084BDB7A0233DAB2064BDA72054805F06C
:100C400081FC05F0ADFC0023184603B05DF804FB01
:100C5000D84A0020604C0020C10B02006A4C0020E2
:100C600000B595B0039001921A460B468DF80B30F3
:100C70001346ADF8083000238DF84F309DF80B3047
:100C8000062B00F2598101A252F823F0A90C0200B0
:100C9000E50C0200090D0200910D0200E10D0200B9
:100CA000130E0200AB0E0200BDF808300A2B00F252
:100CB0003681AE4B1B681846BDF808301A460199BC
:100CC00035F016FAA94B1A68BDF808300021D15446
:100CD000A64B1B68BDF80820D2B2DA7201238DF84A
:100CE0004F301CE1BDF80830032B40F01A819F4BB8
:100CF0001B680C33BDF808200199184635F0F8F947
:100D000001238DF84F300CE1BDF80830082B40F07E
:100D10000A81964B1B680F33BDF8082001991846CD
:100D200035F0E6F905AB08220021184635F009FA3E
:100D30008E4B1B68B3F80F309BB2ADF814308B4B61
:100D40001B68B3F811309BB2ADF81630874B1B68A7
:100D5000B3F813309BB2ADF81830844B1B68B3F86E
:100D600015309BB2ADF81A3005AB184622F05CFC8A
:100D70001290129B1193119B002B05D07C4A40F2DC
:100D8000E12111982CF022FA01238DF84F30CAE0AE
:100D9000BDF80830112B00F2C880744B1B68173364
:100DA000BDF808200199184635F0A2F96F4B1B6871
:100DB000BDF80820D2B283F8282001238DF84F30E7
:100DC000FFF70EFF1090109B0F930F9B002B00F06E
:100DD000AC80674A4FF43C710F982CF0F7F9A4E00F
:100DE000BDF80830FA2B00F2A280604B1B68293353
:100DF000BDF808200199184635F07AF95B4B1B685D
:100E0000BDF80820D2B283F8232101238DF84F309A
:100E10008DE0BDF80830032B40F08B80019B0E93D2
:100E20000E9B1B78012B2FD10E9BB3F801309BB288
:100E30001A465049032030F0CAFB4F4B1A880E9BCC
:100E4000B3F801309BB219461046FFF701F80D9038
:100E50000D9B002B07D1BDF808301A460199474871
:100E600035F046F965E04549454824F0BBFB0D9057
:100E70000D9B0C930C9B002B5BD03D4A40F20D3137
:100E80000C982CF0A3F954E03C493D4824F0AAFB0F
:100E90000D900D9B0B930B9B002B4AD0344A40F2D4
:100EA00013310B982CF092F943E0BDF80830F72B82
:100EB00041D82E4B1B6803F59573BDF808200199A6
:100EC000184635F015F9294B1B68BDF80820D2B239
:100ED00083F8212214F02CFC0A900A9B002B05D0E9
:100EE000234A40F21E310A982CF070F91F4B1B6800
:100EF00003F59573BDF80820D2B21146184614F0D8
:100F00002BFA0990099B002B05D0194A40F21F319A
:100F100009982CF05BF901238DF84F300BE000BFEE
:100F20000AE000BF08E000BF06E000BF04E000BF29
:100F300002E000BF00E000BF9DF84F30002B10D052
:100F40000A4B1B68184600F0A7FC0890089B079303
:100F5000079B002B05D0064A40F22B3107982CF056
:100F600035F900BF15B05DF804FB00BFD84A00207A
:100F700060780500C87C05005C450020DC4A002044
:100F80008C4A002000B589B000238DF81F30724BC9
:100F90001B6893F82431FF22934214BF01230023DE
:100FA0008DF81E306C4B1B6893F82531FF2293425D
:100FB00014BF012300238DF81D30674B1B6893F885
:100FC0002631FF22934214BF012300238DF81C30E9
:100FD000614B1A6803AB02F59272118892781980FE
:100FE0009A709DF81E30002B07D19DF81D30002B04
:100FF00003D19DF81C30002B2ED0574B1B68FF22CD
:1010000083F82421544B1B68FF2283F82521524B7F
:101010001B68FF2283F8262101238DF81F309DF8DD
:101020001E30002B03D19DF81D30002B14D000235F
:101030008DF81F30494B01221A70494800F02CFCF2
:101040000690069B0593059B002B05D0454A40F270
:101050004E3105982CF0BAF8FF231A46FF231946A3
:10106000FF2300930B464049032030F0DBFA3B4B53
:101070001B78002B0DD09DF80C301A469DF80D30D2
:1010800019469DF80E3000930B463849032030F086
:10109000C9FA314B1B6893F82830112B0FD92E4B0E
:1010A0001B6817330E223249184635F021F82A4BB7
:1010B0001B680E2283F8282001238DF81F30264B51
:1010C0001B6893F82331FA2B0FD9234B1B68293364
:1010D00000222849184635F00BF81F4B1B680022E8
:1010E00083F8232101238DF81F301B4B1B6893F8D5
:1010F0002132F72B05D8184B1B6893F82132002BAF
:1011000010D1154B1B6803F5957316221A49184622
:1011100034F0EEFF104B1B68162283F821220123C6
:101120008DF81F309DF81F30002B10D00A4B1B6824
:10113000184600F0B1FB0690069B0493049B002B1D
:1011400005D0084A40F2763104982CF03FF800238D
:10115000184609B05DF804FBD84A0020E04A002098
:101160004475050060780500107D0500507D050080
:101170005B7505006D7505006E76050000B585B0E0
:101180000A4B1B6801930A4B029301AB19460948AD
:1011900024F094F90390039B002B01D0039B00E003
:1011A0000023184605B05DF804FB00BFD84A0020B4
:1011B000610C02008C4A002000B589B001900091BA
:1011C000FFF7DCFF0690069B0593059B002B05D0DF
:1011D000244A4FF4667105982BF0F8FF002307931B
:1011E00018E0079BDB00019A13441B68002B0ED00C
:1011F000079BDB00019A13441B681B4A12781046B8
:1012000098470690069B002B01D0069B26E0079B83
:1012100001330793079A009B9A42E2D302AB08225C
:101220000021184634F08DFF104B029301238DF8F6
:101230000C3001238DF80D3002AB19460C482FF00D
:1012400073FC0690069B0493049B002B05D0054A73
:1012500040F2B13104982BF0B9FF0023184609B0D1
:101260005DF804FB60780500E04A002049FF0100BA
:10127000FC4A0020B0B5C6B002AF14F087FAC7F838
:101280000801D7F80831002B0FD0B04830F088F9AA
:101290000246D7F80831009340F2BE33AC49022031
:1012A00030F0C0F9D7F808314BE1AA4B1B6803F5C1
:1012B00095731622A849184634F0E2FC0346002B29
:1012C00040F01C816B461D462021A44814F06EF9A5
:1012D000C7F80801D7F80831002B0FD09B4830F031
:1012E0005FF90246D7F80831009340F2C3339849BA
:1012F000022030F097F9D7F80831FDE01B2387F87A
:10130000073197F807010346013BC7F80031C1B226
:101310004FF000024FF000034FF00004D40044EA05
:101320005174CB00C1B24FF000024FF000034FF0F8
:101330000004D40044EA5174CB0003460733DB08B1
:10134000DB00ADEB030D02AB0033C7F8FC30D7F880
:10135000FC3000221A70D7F8FC308149184634F06E
:1013600010FDD7F8FC307F49184634F00AFD002301
:1013700087F80F311EE007F1F80300210A461A80B2
:101380000A469A7097F80F31774AD35C1A4607F1EC
:10139000F8037649184634F0DFFCD7F8FC3007F143
:1013A000F8021146184634F0ECFC97F80F3101337F
:1013B00087F80F3197F80F31032BDCD9D7F8FC30C1
:1013C000184630F0EDF803461A466949032030F01C
:1013D000FEF8D7F8FC3097F807211146184614F0AC
:1013E0003DF8C7F80801D7F80831002B0FD057484F
:1013F00030F0D6F80246D7F80831009340F2D733E0
:101400005349022030F00EF9D7F8083174E0162263
:101410005849012014F07EF8C7F80801D7F80831C0
:10142000002B0FD0494830F0BBF80246D7F80831FE
:10143000009340F2DA334649022030F0F3F8D7F84F
:10144000083159E014F0FAF8C7F80801D7F8083164
:10145000002B0FD03D4830F0A3F80246D7F80831F2
:10146000009340F2DD333A49022030F0DBF8D7F840
:10147000083141E0F72387F8FB3007F1FB023B46D8
:101480001146184613F0C0FFC7F80801D7F8083115
:10149000002B0FD02D4830F083F80246D7F80831E2
:1014A000009340F2E1332A49022030F0BBF8D7F82C
:1014B000083121E097F8FB203B4683F8F7203B46B4
:1014C00019462D4824F0BAF8C7F80801D7F80831B2
:1014D000002B0FD01D4830F063F80246D7F80831D2
:1014E000009340F2E5331A49022030F09BF8D7F818
:1014F000083101E0AD4623E0AD4622E0154B1B6804
:1015000003F59572134B1B6893F821321946104668
:1015100013F022FFC7F80801D7F80831002B0FD0CD
:101520000A4830F03DF80246D7F80831009340F2FF
:10153000EA330749022030F075F8D7F8083100E0A7
:101540000023184607F58877BD46B0BD60780500D2
:101550002C790500D84A00206E760500C07D050074
:10156000E44A0020E07D0500F84A0020B07905003B
:10157000E47D0500107E05008C4A002000B585B092
:101580000190019B1B686A4A1360019B5B68694A72
:101590001360019B9B68684A1360FFF72DF9039065
:1015A000039B002B06D0039A6449012030F00FF80A
:1015B000039BB8E0624BD3F88830614A43F4700370
:1015C000C2F88830BFF34F8FBFF36F8F04215D489F
:1015D000FEF70AFD0390039B002B06D0039A5A499D
:1015E00001202FF0F4FF039B9DE05849584800F07C
:1015F0000DFA0390039B002B06D0039A5549012056
:101600002FF0E5FF039B8EE0504B1B680C22A3F8E4
:101610001120FFF7B7FC0390039B002B06D0039A21
:101620004D4901202FF0D3FF039B7CE0FEF75EFDC8
:101630000390039B002B06D0039A484901202FF00A
:10164000C6FF039B6FE03B4B1A683B4B1B68194678
:101650001046FFF7B1FD0390039B002B06D0039AC1
:101660003F4901202FF0B3FF039B5CE0FFF71EFA18
:101670000390039B002B06D0039A3A4901202FF0D8
:10168000A6FF039B4FE0FEF71BFE0390039B002B7E
:1016900006D0039A344901202FF099FF039B42E0C2
:1016A000032021F0B5FC0390039B002B06D0039A86
:1016B0002E4901202FF08BFF039B34E02C4805F0CE
:1016C0000DFF0390039B002B06D0039A29490120AC
:1016D0002FF07DFF039B26E025482FF061FF034696
:1016E0001A46254913202FF072FFFFF7C3FD039020
:1016F000039B002B06D0039A204901202FF067FF9F
:10170000039B10E00A20FEF70FFCFFF769FA039035
:10171000039B002B06D0039A194901202FF057FF95
:10172000039B00E00023184605B05DF804FB00BFF2
:10173000804A0020844A0020884A0020287E050034
:1017400000ED00E0F84A0020647E0500D84A002041
:1017500044750500A87E0500E47E0500247F050091
:10176000607F0500AC7F0500E87F05002480050050
:10177000E44A002064800500A0800500B4800500D4
:10178000E880050000B589B00390039B1B78012B0E
:101790001AD0052B42D0002B4CD1039B5B68002B49
:1017A00003D1344B01221A7059E0334901202FF044
:1017B000FDFE00230793079B002B50D12F4A5D218C
:1017C00000202BF003FD4AE0039B5B68002B16D141
:1017D000039B9B89B3F5005F43D1039B1B7C1A4697
:1017E000039B9B891946039BDB8900930B46244985
:1017F00003202FF017FF234B01221A7031E02249FA
:1018000001202FF0D3FE00230693069B002B28D146
:101810001A4A6F2100202BF0D9FC22E0039B5B6861
:10182000002B20D1194903202FF0C0FE184B0122B4
:101830001A7018E0039B1B781A46039B5B681549D6
:1018400003202FF0D8FE039B5B680593059B002BBC
:101850000BD00A4A7B2105982BF0B8FC05E000BFAD
:1018600004E000BF02E000BF00E000BF00BF09B01D
:101870005DF804FBAC4E002020810500508105007E
:1018800098810500AD4E0020E4810500148205001A
:10189000AE4E00204882050000B58BB003901F4972
:1018A00003202FF083FE039B002B01D10E2331E098
:1018B00040F2222203991A4834F01AFC194B4222B2
:1018C0001A60184B04938A23ADF814304FF4005378
:1018D000ADF8183042F20103ADF81A3004AB0793AB
:1018E0000123ADF8203006AB19460F482EF01BFE41
:1018F0000990099B002B0CD00C482FF051FE02469A
:10190000099B009398230A4902202FF08BFE099B24
:1019100000E0002318460BB05DF804FB7882050058
:10192000884C0020844C0020784C00205081050019
:10193000AC82050000B58BB0039005AB08220021F6
:10194000184634F0FEFB2B4903202FF02FFE05AB89
:10195000294A42F201014FF400502EF053FE099043
:10196000099B002B0CD025482FF01AFE0246099B3C
:101970000093A923224902202FF054FE099B34E052
:1019800007AB19461C482EF043FD0990099B002B1C
:101990000CD01A482FF004FE0246099B0093AC239A
:1019A000174902202FF03EFE099B1EE0089B4FF4D2
:1019B0000A721946134834F09BFB0F482EF064FD61
:1019C0000990099B002B0CD00C482FF0E9FD024632
:1019D000099B0093B1230A4902202FF023FE099BA3
:1019E00003E0039B084A1A60002318460BB05DF819
:1019F00004FB00BF00830500784C002050810500E7
:101A0000AC820500844C0020884C002000B58BB0CF
:101A1000039002915B4903202FF0C8FD039B002B2C
:101A200001D10E23A9E058482EF05CFC0990099BD7
:101A3000002B0CD055482FF0B3FD0246099B0093B4
:101A4000C223534902202FF0EDFD099B95E02EF0B3
:101A500069FC0990099B002B0ED04C482FF0A0FD8B
:101A60000246099B0093C523494902202FF0DAFD65
:101A7000099B82E02BF02CFD464B1B7883F0010381
:101A8000DBB2002BF6D12EF091FD0990099B002BC3
:101A90000ED03E482FF084FD0246099B0093CD23D3
:101AA0003B4902202FF0BEFD099B66E02BF010FDA4
:101AB000394B1B7883F00103DBB2002BF6D102987F
:101AC000FFF738FF0990099B0A2B45D133490320C2
:101AD0002FF06CFD40F222220399314834F008FBCC
:101AE000304B42221A602F4B04938A23ADF81430F6
:101AF0004FF40053ADF8183042F20103ADF81A303C
:101B000004AB07930123ADF82030274B00221A7055
:101B100006AB194625482EF0F7FC0990099B002BCF
:101B20000CD01A482FF03CFD0246099B0093EB2392
:101B3000174902202FF076FD099B1EE0029B184AF0
:101B40001A6001E02BF0C4FC174B1B7883F00103F3
:101B5000DBB2002BF6D10FE0099B002B0CD00B4819
:101B60002FF01EFD0246099B0093F6230849022030
:101B70002FF058FD099B00E0002318460BB05DF8DC
:101B800004FB00BF3083050085170200508105006B
:101B9000AC820500AC4E0020AE4E00205C830500F8
:101BA000884C0020844C0020AD4E0020784C002052
:101BB00000B587B08DED030A0290DDED037AFDEEEE
:101BC000E77ACDED017A9DF804305AB2029B1A7083
:101BD000029B93F9003007EE903AF8EEE77A9DED1C
:101BE000037A77EE677ACDED057ADDED057A9FED24
:101BF0000D7A67EE877AFCEEE77ACDED017A9DF8F3
:101C00000430DAB2029B5A70029B93F900301A46F4
:101C1000029B5B78044904202FF0EDFC00BF07B065
:101C20005DF804FB0000C842B883050000B583B02E
:101C3000034600918DF80730009B9DF807201A702D
:101C40009DF807301A46044904202FF0C0FC00BF5D
:101C500003B05DF804FB00BF0084050000B587B049
:101C60008DED030A0290DDED037AFDEEE77A17EEC3
:101C7000902A029B1A60029B1B6807EE903AF8EECE
:101C8000E77A9DED037A77EE677ACDED057ADDEDA3
:101C9000057A9FED0D7A67EE877AFCEEE77ACDED57
:101CA000017A9DF80430DAB2029B1A71029B1B681C
:101CB0001A46029B1B79054904202FF09CFC00BFAB
:101CC00007B05DF804FB00BF0000C842488405006F
:101CD00000B587B00190019B1B78002B02D0012B2F
:101CE00014D021E0019B5B78012B1AD110F082FB0C
:101CF000F0EE407A03AB1846B0EE670AFFF7AEFF8E
:101D000003AB19460A4822F0C9FC0AE000230593F8
:101D1000059B002B07D1074A942100202BF056FA8F
:101D200001E000BF00E000BF00BF07B05DF804FBAA
:101D3000B04E00209884050000B58DB003468DF8A4
:101D400007309DF80730002B60D112F0FDFB8DEDC0
:101D50000B0A12F047FB0346ADF82A3004AB1846D5
:101D60009DED0B0AFFF724FFBDF82A30DBB20DF121
:101D70000F0211461846FFF759FF2B4B1B78002B1B
:101D800014D0BDF82A309DED0B0A184600F05CFA1D
:101D90000990099B0893089B002B04D0234AB1218A
:101DA00008982BF013FA204B00221A70204B1B7856
:101DB000002B12D004AB19461E4822F02FFC0990CC
:101DC000099B0793079B002B04D0184AB82107985A
:101DD0002BF0FCF9164B00221A70174B1B78002BC6
:101DE0001ED00DF10F031946124822F097FC0990FE
:101DF000099B0693069B002B04D00C4ABF21069832
:101E00002BF0E4F90C4B00221A7009E00023059333
:101E1000059B002B04D1054AC52100202BF0D6F9E3
:101E200000BF0DB05DF804FBFA4E00209884050059
:101E3000F94E0020B04E0020F84E002000B585B0CD
:101E40000190019B002B15D0019B1B88ADF80C3035
:101E5000019B5B88ADF80E30019B1B881A46019BE5
:101E60005B88064904202FF0C6FB03AB19460448E3
:101E700022F094FC00BF05B05DF804FBE48405008B
:101E8000B04E002000B587B0039000200AF032FD6C
:101E9000039B002B27D0039B1B881946039B5B8861
:101EA0001846039B9B881A46039BDB88019300928C
:101EB00003460A460E4904202FF0CDFB039B1B88E6
:101EC000ADF81030039B5B88ADF81230039B9B8804
:101ED000ADF81430039BDB88ADF8163004AB19461F
:101EE000044822F09BFC00BF07B05DF804FB00BF74
:101EF00028850500B04E002000B585B001900A4B42
:101F000001221A7012F0BEFB0390039B0293029B06
:101F1000002B05D0054A4FF4847102982BF056F936
:101F200000BF05B05DF804FBF94E00209884050061
:101F3000F0B585B0334B01221A70334B01221A7071
:101F400012F08AF90390039B002B0DD02F482FF03D
:101F500027FB0246039B00934FF48B732C4902200E
:101F60002FF060FB039B49E012F08CFB0390039B76
:101F7000002B0DD025482FF013FB0246039B009346
:101F800040F21913224902202FF04CFB039B35E04D
:101F9000204F214B1B681B889BB299B24FF0000267
:101FA0004FF000034FF00004D40344EA5144CB0344
:101FB00013F5FA7544F100064FF47A724FF00003FE
:101FC0002846314633F058FC03460C460022194699
:101FD00038462CF0C7F80390039B002B0DD00B481C
:101FE0002FF0DEFA0246039B00934FF48F730849EB
:101FF00002202FF017FB039B00E00023184605B0DA
:10200000F0BD00BFF94E0020FD4E00209884050071
:1020100074850500004F0020F04E002000B587B009
:1020200003468DF80F30194B00221A70184B1846D2
:102030002CF0CAF80590059B002B0DD015482FF009
:10204000AFFA0246059B00934FF4967312490220A3
:102050002FF0E8FA059B14E09DF80F30002B0FD00D
:102060000E4B00221A700E4B1B7883F00103DBB27B
:10207000002B03D012F05AF9034602E0002300E0DF
:102080000023184607B05DF804FB00BFF94E00209E
:10209000004F00209884050074850500FD4E002047
:1020A000FC4E002000B585B0019010F0F3F90390CC
:1020B000039B0293029B002B05D0054A40F24B1173
:1020C00002982BF083F800BF05B05DF804FB00BF59
:1020D00098840500F0B585B010F07CF80390039B60
:1020E0000293029B002B05D01D4A4FF4AB7102985E
:1020F0002BF06CF810F0CEF90390039B0193019B39
:10210000002B05D0164A40F2591101982BF05EF8C9
:10211000144F154B1B685B889BB299B24FF00002BD
:102120004FF000034FF00004D40344EA5144CB03C2
:1021300013F5FA7544F100064FF47A724FF000037C
:102140002846314633F098FB03460C4600221946D8
:1021500038462CF007F80346184605B0F0BD00BF1E
:1021600098840500204F0020F04E002000B585B077
:102170000E4B18462CF028F80390039B002B0DD033
:102180000B482FF00DFA0246039B009340F26913AF
:10219000084902202FF046FA039B02E010F0D0F825
:1021A0000346184605B05DF804FB00BF204F002031
:1021B000988405007485050000B587B00190002360
:1021C000ADF80A301C4B1B78012B31D10DF10A03FD
:1021D000184600F07BF90590059B0493049B002BA7
:1021E00005D0164A4FF4BD7104982AF0EFFFBDF8F0
:1021F0000A30002B04D1124902202FF0D7F910E049
:10220000BDF80A3018460BF0B1FF0590059B03930B
:10221000039B002B05D0094A40F2831103982AF052
:10222000D5FF054B02221A70064B18462BF0CCFF47
:1022300000BF07B05DF804FBFB4E0020988405004A
:10224000C8850500804F002000B589B003468DED9C
:10225000020AADF80E301E4B1B78002B33D0BDF8B0
:102260000E301A46920013445B00ADF81E30DDEDCF
:10227000027A9FED187A67EE877AFDEEE77A17EE1D
:10228000903A0693BDF81E20069B134904202FF0B8
:10229000B2F9BDF81E30069918460BF087FE05907E
:1022A000059B002B0DD00D482FF07AF90246059BB7
:1022B00000934FF4D3730A4902202FF0B3F9059B22
:1022C00002E0002300E00023184609B05DF804FB9B
:1022D000FC4E002000007A443086050098840500FA
:1022E0007485050000B585B0114B00221A70114BA2
:1022F0001B78002B13D112F019F80390039B002BCD
:102300000DD00D482FF04CF90246039B00934FF47B
:10231000E1730A4902202FF085F9039B04E0084B82
:1023200018462BF051FF0346184605B05DF804FB34
:10233000FC4E0020FD4E00209884050074850500A9
:10234000804F002000B585B001900A4B01221A7021
:1023500012F098F90390039B0293029B002B05D087
:10236000054A4FF4EA7102982AF030FF00BF05B029
:102370005DF804FBF84E002098840500F0B585B0A8
:102380002A4B01221A702A4B01221A7011F064FFA5
:102390000390039B002B0DD026482FF001F9024635
:1023A000039B009340F2E113234902202FF03AF9F6
:1023B000039B37E012F066F90390039B002B0DD0CE
:1023C0001C482FF0EDF80246039B00934FF4F27384
:1023D000194902202FF026F9039B23E0174F184BD1
:1023E0001B689B889BB299B24FF000024FF000032C
:1023F0004FF00004D40344EA5144CB0313F5FA75BB
:1024000044F100064FF47A724FF00003284631463B
:1024100033F032FA03460C460022194638462BF0B8
:10242000A1FE0346184605B0F0BD00BFF84E0020DF
:10243000FD4E00209884050074850500404F002063
:10244000F04E002000B587B003468DF80F30194BD1
:1024500000221A70184B18462BF0B6FE0590059B0B
:10246000002B0DD015482FF09BF80246059B0093DA
:1024700040F2F513124902202FF0D4F8059B14E026
:102480009DF80F30002B0FD00E4B00221A700E4B10
:102490001B7883F00103DBB2002B03D011F046FF61
:1024A000034602E0002300E00023184607B05DF871
:1024B00004FB00BFF84E0020404F00209884050028
:1024C00074850500FD4E0020FC4E002000B583B051
:1024D0000190284B1B681B7A032B43D801A252F8AA
:1024E00023F000BFF5240200112502002D25020073
:1024F00049250200204B1B681B889AB2019B1A8059
:10250000019B1B881A461D4904202FF060F82BE020
:10251000194B1B685B889AB2019B1A80019B1B8830
:102520001A46174904202FF052F81DE0124B1B6881
:102530009B889AB2019B1A80019B1B881A461149FD
:1025400004202FF044F80FE00B4B1B68DB889AB295
:10255000019B1A80019B1B881A460B4904202FF00F
:1025600036F801E0082300E00023184603B05DF8C8
:1025700004FB00BFF04E0020F44E002090860500C2
:10258000F88605005C870500C087050000B587B0A8
:102590000346ADF80E30314B1B681B7A032B3FD836
:1025A00001A252F823F000BFB9250200D325020092
:1025B000ED25020007260200294B1B68BDF80E20FE
:1025C0001A80BDF80E301A46264904202EF0FFFF6F
:1025D00028E0234B1B68BDF80E205A80BDF80E3052
:1025E0001A46214904202EF0F2FF1BE01C4B1B6809
:1025F000BDF80E209A80BDF80E301A461B49042003
:102600002EF0E5FF0EE0164B1B68BDF80E20DA80B9
:10261000BDF80E301A46164904202EF0D8FF01E00E
:10262000082317E00E4B1B68184600F0DDFF0590ED
:10263000059B002B0DD00F482EF0B2FF0246059BE4
:10264000009340F24E230C4902202EF0EBFF059B35
:1026500000E00023184607B05DF804FBF04E0020B0
:10266000F44E00202488050088880500E8880500CD
:102670004C890500988405007485050000B585B077
:10268000284B1B681B7A1A46274904202EF09FFF0F
:10269000244B1B681B7A032B1AD801A252F823F093
:1026A000B1260200B9260200C1260200C926020096
:1026B00000238DF80F300FE001238DF80F300BE071
:1026C00002238DF80F3007E003238DF80F3003E06D
:1026D00002238DF80F3000BF9DF80F3018460BF025
:1026E000BBFD0290029B002B0DD010482EF058FF2E
:1026F0000246029B009340F26F230D4902202EF008
:1027000091FF029B0AE00B4B01221A700A4B002238
:102710004FF0617118462BF025FD0346184605B0B1
:102720005DF804FBF04E0020B08905009884050098
:1027300074850500FB4E0020804F002000B585B059
:10274000274B1B78022B41D1FFF7CCFD0390039B55
:10275000002B0DD023482EF023FF0246039B00934D
:1027600040F28123204902202EF05CFF039B33E0DE
:102770000DF10A0318460BF087FC0390039B002B16
:102780000DD018482EF00CFF0246039B00934FF427
:102790002173154902202EF045FF039B1CE0BDF874
:1027A0000A301846FFF7F2FE0390039B002B0DD072
:1027B0000C482EF0F5FE0246039B009340F287235F
:1027C000094902202EF02EFF039B05E0044B002256
:1027D0001A700BF0E9FE0346184605B05DF804FBDD
:1027E000FB4E0020988405007485050000B587B075
:1027F0000190134B1B685B7A8DF80C30104B1B68F3
:102800009B7A8DF80D300E4B1B68DB7A8DF80E30FD
:1028100003AB194600200AF0BFF80CF0E1FD05906B
:10282000059B0493049B002B05D0064A40F29F2190
:1028300004982AF0CBFC00BF07B05DF804FB00BF92
:10284000F04E002098840500F0B585B02B4B1B6836
:102850005B7A8DF80030294B1B689B7A8DF801302C
:10286000264B1B68DB7A8DF802306B461946002038
:102870000AF092F80CF016FE0390039B0293029B61
:10288000002B05D01E4A40F2AF2102982AF09EFC90
:102890000CF0A6FD0390039B0193019B002B05D038
:1028A000174A40F2B22101982AF090FC154F134BC1
:1028B0001B68DB889BB299B24FF000024FF0000317
:1028C0004FF00004D40344EA5144CB0313F5FA75E6
:1028D00044F100064FF47A724FF000032846314667
:1028E00032F0CAFF03460C460022194638462BF048
:1028F00039FC0346184605B0F0BD00BFF04E00207D
:1029000098840500604F002000B585B0124B184632
:102910002BF05AFC0390039B0293029B002B05D0E3
:102920000E4A40F2BF2102982AF050FC002009F024
:10293000E1FF0CF08DFE0390039B0193019B002BA4
:1029400005D0064A4FF4317101982AF03FFC00236C
:10295000184605B05DF804FB604F00209884050020
:1029600000B585B00190019B1B889BB2632B32D9C7
:10297000019B1B889BB24EF6602293422BD8019B91
:102980005B889BB2312B26D9019B5B889BB24EF6AC
:10299000602293421FD8019B9B889BB2632B1AD95C
:1029A000019B9B889BB24EF66022934213D8019BF9
:1029B000DB889BB2C72B0ED9019BDB889BB24EF6FE
:1029C0006022934207D8019B1B7A002B03D0019B06
:1029D0001B7A032B0ED90A4800F04EFD0390039B8F
:1029E0000293029B002B05D0064A40F2DA2102989E
:1029F0002AF0ECFB0023184605B05DF804FB00BF8D
:102A0000908305009884050000B589B00190019B72
:102A1000002B01D10E236AE00020FFF7FFFAFFF739
:102A2000A5FB0120FFF70EFDFFF76EFF019B1B8842
:102A30009BB2002B12D0304B93F83630002B0DD0C8
:102A4000FFF776FA0790079B0693069B002B05D0AD
:102A50002A4A40F2F32106982AF0B8FB019B5B88D2
:102A60009BB2002B12D0244B93F83730002B0DD0A3
:102A7000FFF730FB0790079B0593059B002B05D0C4
:102A80001E4A40F2FA2105982AF0A0FB019B9B8880
:102A90009BB2002B12D0184B93F83830002B0DD07E
:102AA000FFF76CFC0790079B0493049B002B05D059
:102AB000124A40F2013104982AF088FB019BDB881E
:102AC0009BB2002B12D00C4B93F83A30002B0DD058
:102AD000FFF7BAFE0790079B0393039B002B05D0DB
:102AE000064A4FF4427103982AF070FB00231846FF
:102AF00009B05DF804FB00BFB04E002098840500CB
:102B000000B593B0039001921A460B468DF80B3036
:102B10001346ADF808309DF80B30052B00F24281CA
:102B200001A252F823F000BF412B0200B92B020092
:102B3000132C02008B2C0200E12C0200372D020026
:102B4000039B93F836301A469F4904202EF03FFD30
:102B5000039B93F83630002B0FD0FFF7E9F9119063
:102B6000119B1093109B002B00F01E81974A40F29E
:102B7000273110982AF02AFB16E1039B93F838308E
:102B8000002B14BF01230023DBB283F00103DBB26F
:102B900003F00103DBB21846FFF740FA1190119BD6
:102BA0000F930F9B002B00F0FF80884A4FF44B716E
:102BB0000F982AF00BFBF7E0039B93F837301A4687
:102BC000834904202EF003FD039B93F83730002B3C
:102BD0000FD0FFF77FFA1190119B0E930E9B002BE5
:102BE00000F0E480794A40F235310E982AF0EEFA8E
:102BF000DCE0FFF7BBFA1190119B0D930D9B002BAE
:102C000000F0D480714A40F23A310D982AF0DEFA91
:102C1000CCE0039B93F838301A466E4904202EF01E
:102C2000D6FC039B93F83830002B0FD0FFF7A6FBA0
:102C30001190119B0C930C9B002B00F0B980634A00
:102C400040F243310C982AF0C1FAB1E0039B93F8AB
:102C50003630002B14BF01230023DBB283F00103C5
:102C6000DBB203F00103DBB21846FFF7EBFB119078
:102C7000119B0B930B9B002B00F09A80534A4FF44F
:102C800052710B982AF0A2FA92E0039B93F8393024
:102C90001A46514904202EF09AFC039B93F83930D0
:102CA000002B0ED0FFF7EAFC1190119B0A930A9BB0
:102CB000002B7FD0454A40F251310A982AF086FA1B
:102CC00078E0FFF73BFD1190119B0993099B002BC6
:102CD00070D03E4A40F2563109982AF077FA69E0FE
:102CE000039B93F83A301A463C4904202EF06FFCBF
:102CF000039B93F83A30002B0ED0FFF7A5FD1190FF
:102D0000119B0893089B002B56D0304A40F25F314C
:102D100008982AF05BFA4FE0FFF7F6FD1190119B3F
:102D20000793079B002B47D0284A4FF45971079807
:102D30002AF04CFA40E0BDF808301A462849042031
:102D40002EF045FCBDF808300C2B0CBF01230023EE
:102D5000DBB20693069B002B05D11C4A40F26B3177
:102D600000202AF033FA019800F086FB1190119BA5
:102D70000593059B002B05D0144A40F26E3105984F
:102D80002AF024FA0198FFF73FFE1190119B04935B
:102D9000049B002B12D00D4A40F2713104982AF0A6
:102DA00015FA0BE000BF0AE000BF08E000BF06E034
:102DB00000BF04E000BF02E000BF00E000BF00BFB2
:102DC00013B05DF804FB00BFE4890500988405009A
:102DD000348A0500808A0500CC8A0500148B050022
:102DE0005C8B050000B597B003468DF80F300023CB
:102DF0008DF8483000238DF84930002310930023CC
:102E00008DF8443000238DF83F300DAB00221A605E
:102E10005A600023ADF830300023ADF83230464B15
:102E2000464A4749474800F097FC1590159B002BF0
:102E30000DD045482EF0B4FB0246159B009340F29E
:102E40008E33424902202EF0EDFB159B6FE09DF87A
:102E50000F30002B1DD03B4800F00EFB1590159B4A
:102E60001493149B002B05D0374A40F293311498E9
:102E70002AF0ACF9314800F0B7FB1590159B13937D
:102E8000139B002B05D0304A40F2963113982AF05C
:102E90009DF92B4B1B681846FFF762FD1590159B9B
:102EA000002B0DD028482EF07BFB0246159B00938B
:102EB00040F29A33254902202EF0B4FB159B36E0F0
:102EC00005AB1C220021184633F03BF912AB0593E9
:102ED00010AB06930DF13F0307930DAB09930CABB9
:102EE0000893174B1B680A93194B0B93194903203E
:102EF0002EF05CFB05AB1946174821F005FB159039
:102F0000159B002B0DD010482EF04AFB0246159B56
:102F100000934FF46A730D4902202EF083FB159B3A
:102F200005E0074B1B681846FFF76EFD00231846A7
:102F300017B05DF804FB00BFF44E00209C83050031
:102F4000F04E0020908305009884050074850500EC
:102F5000012B0200A88B0500B04E002000B585B003
:102F6000019001990C4821F09EFA019B1B88112BBE
:102F70000DD100F0B1F80390039B0293029B002B4C
:102F800005D0064A40F2BE3102982AF01FF900BF70
:102F900005B05DF804FB00BFB04E0020988405002A
:102FA00000B589B00190002307935F238DF80830A6
:102FB00018230393019B0493064B0593064B06933A
:102FC00002AB184611F058F80790079B184609B055
:102FD0005DF804FBFC8B0500391D020000B589B0CB
:102FE00001905C238DF8083017230393019B049311
:102FF000074B0593074B069301238DF81C3002AB5A
:1030000018460FF04FF80346184609B05DF804FB68
:103010000C8C0500D11C020000B58BB00390039B03
:103020000593114B06935A238DF81C300F4B0893D0
:1030300005AB18460BF0BCFB0990099B002B0DD08B
:103040000B482EF0ADFA0246099B009340F20A436A
:10305000084902202EF0E6FA099B00E000231846FA
:103060000BB05DF804FB00BF1C8C05003D1E020088
:10307000988405007485050000B58BB00390039B10
:103080000593114B069338238DF81C300F4B089392
:1030900005AB18460CF00AF90990099B002B0DD0DE
:1030A0000B482EF07DFA0246099B009340F2234321
:1030B000084902202EF0B6FA099B00E000231846CA
:1030C0000BB05DF804FB00BF2C8C0500851E0200D0
:1030D000988405007485050000B587B00020FEF7D0
:1030E0009DFF0590059B0493049B002B05D0224A6D
:1030F00040F2344104982AF069F8FFF737F8059058
:10310000059B0393039B002B05D01B4A40F23741DC
:1031100003982AF05BF80120FFF794F90590059BCE
:103120000293029B002B05D0134A40F23A410298C9
:103130002AF04CF8FFF7E8FB0590059B0193019BF3
:10314000002B05D00C4A40F23D4101982AF03EF890
:10315000FFF7F4FA0590059B0093009B002B05D028
:10316000054A4FF4886100982AF030F80023184689
:1031700007B05DF804FB00BF9884050000B58DB072
:1031800003900291039B002B01D10E23BAE0029B16
:10319000002B01D10E23B5E05C4903202EF006FA86
:1031A000039B5B4A5A60039B5A4A1A60029B1B6846
:1031B0001846FFF713FF0B900B9B0A930A9B002BFB
:1031C00005D0554A40F254410A9829F0FFFF029B6E
:1031D0001B681846FFF7E4FE0B900B9B0993099BB5
:1031E000002B05D04C4A40F25741099829F0EEFFD8
:1031F000029B1B681846FFF70FFF0B900B9B089371
:10320000089B002B05D0444A40F25A41089829F007
:10321000DDFF029B1B681846FFF72EFF0B900B9BF0
:103220000793079B002B05D03B4A40F25D4107986E
:1032300029F0CCFF394A012139482AF063FF0B906D
:103240000B9B0693069B002B05D0334A40F261414D
:10325000069829F0BBFF334A012133482AF052FF78
:103260000B900B9B0593059B002B05D02A4A40F23F
:103270006441059829F0AAFF2C4A01212C482AF024
:1032800041FF0B900B9B002B0DD023482EF088F9AB
:1032900002460B9B009340F26743264902202EF022
:1032A000C1F90B9B2EE0244A012124482AF02AFF71
:1032B0000B900B9B002B0DD017482EF071F9024696
:1032C0000B9B009340F26A431A4902202EF0AAF9A0
:1032D0000B9B17E01A4A01211A482AF013FF0B90A2
:1032E0000B9B002B0DD00C482EF05AF902460B9B7D
:1032F000009340F26D430F4902202EF093F90B9B8F
:1033000000E0002318460DB05DF804FBD88B0500E3
:103310005D2F0200E52D020098840500F91E0200D1
:10332000A4830500A5200200A88305004523020010
:10333000AC83050074850500ED270200B08305000D
:10334000B9210200B483050000B589B00390039B46
:103350001B78002B02D0012B1AD05BE0039B5B682B
:10336000002B06D13A4B01221A703A4B01221A70F7
:1033700065E0394901202EF019F900230793079BD6
:10338000002B5CD1354A7221002029F01FFF56E046
:10339000039B5B68002B2ED1039B9B8941F20102AA
:1033A000934210D1039B1B7C1A46039B9B891946B1
:1033B000039BDB8900930B46294903202EF032F949
:1033C000284B01221A70039B9B8941F2030293420E
:1033D00037D1039B1B7C1A46039B9B891946039B91
:1033E000DB8900930B46204903202EF01BF91F4B6D
:1033F00001221A7025E01E4901202EF0D7F8002383
:103400000693069B002B1CD1144A8C21002029F026
:10341000DDFE16E0039B1B781A46039B5B6815498B
:1034200003202EF0E8F8039B5B680593059B002BB7
:1034300009D00A4A9121059829F0C8FE03E000BF8F
:1034400002E000BF00E000BF00BF09B05DF804FB70
:10345000D54F0020D74F00203C8C05006C8C050018
:10346000BC8C0500D44F00200C8D0500D64F0020E9
:10347000608D0500908D050000B58BB003901F494D
:1034800003202EF093F8039B002B01D10E2330E094
:103490000C2203991A4832F02BFE1A4B42221A6072
:1034A000184B04930423ADF8143041F20103ADF836
:1034B000183041F20203ADF81A3004AB0793012330
:1034C000ADF8203006AB19460F482DF02CF80990C6
:1034D000099B002B0CD00D482EF062F80246099B88
:1034E0000093AE230A4902202EF09CF8099B00E0CD
:1034F000002318460BB05DF804FB00BFC08D05002B
:10350000BC4F0020B84F0020A04F00206C8C05005D
:10351000F08D050000B58BB0039005AB08220021AB
:10352000184632F00EFE2A4903202EF03FF805AB74
:10353000284A41F2020141F201002DF063F809909E
:10354000099B002B0CD024482EF02AF80246099B38
:103550000093BF23214902202EF064F8099B33E039
:1035600007AB19461B482CF053FF0990099B002B11
:103570000CD019482EF014F80246099B0093C22380
:10358000164902202EF04EF8099B1DE0089B1022E0
:103590001946134832F0ACFD0E482CF075FF099027
:1035A000099B002B0CD00C482DF0FAFF0246099B1A
:1035B0000093C723094902202EF034F8099B03E049
:1035C000039B084A1A60002318460BB05DF804FB01
:1035D000448E0500A04F00206C8C0500F08D050086
:1035E000B84F0020BC4F002000B58BB003901F499E
:1035F00004202DF0DBFF039B002B01D10E2330E0D4
:10360000082203991A4832F073FD1A4B42221A60BD
:10361000184B04930323ADF8143041F20303ADF8C3
:10362000183041F20403ADF81A3004AB07930123BC
:10363000ADF8203006AB19460F482CF074FF099006
:10364000099B002B0CD00D482DF0AAFF0246099BC8
:103650000093E6230A4902202DF0E4FF099B00E0D5
:10366000002318460BB05DF804FB00BF748E050004
:10367000CC4F0020C84F0020AC4F00206C8C0500C0
:10368000F08D050000B58BB0039005AB082200213A
:10369000184632F056FD2A4904202DF087FF05AB6D
:1036A000284A41F2040141F203002CF0ABFF0990DB
:1036B000099B002B0CD024482DF072FF0246099B79
:1036C0000093F723214902202DF0ACFF099B33E042
:1036D00007AB19461B482CF09BFE0990099B002B59
:1036E0000CD019482DF05CFF0246099B0093FA2389
:1036F000164902202DF096FF099B1DE0089B0C2225
:103700001946134832F0F4FC0E482CF0BDFE099027
:10371000099B002B0CD00C482DF042FF0246099B60
:103720000093FF23094902202DF07CFF099B03E051
:10373000039B084A1A60002318460BB05DF804FB8F
:10374000A48E0500AC4F00206C8C0500F08D0500A8
:10375000C84F0020CC4F002000B593B005900491D5
:10376000039202938D4903202DF020FF059B002B2F
:1037700001D10E230DE1039B002B01D10E2308E1A3
:1037800087482CF0AFFD1190119B002B0DD0854880
:103790002DF006FF0246119B00934FF48A73824975
:1037A00002202DF03FFF119BF3E02CF0BBFD1190A8
:1037B000119B002B0FD07B482DF0F2FE0246119B8F
:1037C000009340F21713784902202DF02BFF119B34
:1037D000DFE029F07DFE754B1B7883F00103DBB23F
:1037E000002BF6D1724B1B7883F00103DBB2002B68
:1037F000EFD10498FFF78EFE1190119B0A2B45D153
:103800006C4903202DF0D2FE0C2205996A4832F053
:103810006FFC6A4B42221A60684B0C930423ADF88C
:10382000343041F20103ADF8383041F20203ADF813
:103830003A300CAB0F930123ADF84030604B0022BF
:103840001A700EAB19465F482CF05EFE1190119B6A
:10385000002B0DD053482DF0A3FE0246119B009380
:1038600040F23513504902202DF0DCFE119B90E010
:10387000049B514A1A6001E029F02AFE504B1B7844
:1038800083F00103DBB2002BF6D110E0119B002B7B
:103890000DD044482DF084FE0246119B00934FF456
:1038A000A073414902202DF0BDFE119B71E00298EA
:1038B000FFF7E8FE1190119B0A2B58D1039B1B8840
:1038C0009BB21946039B5B889BB21846039B9B885F
:1038D0009BB21A46039BDB889BB20193009203467E
:1038E0000A46394903202DF0B6FE082203993748CD
:1038F00032F0FEFB364B42221A60354B079303230E
:10390000ADF8203041F20303ADF8243041F2040356
:10391000ADF8263007AB0A930123ADF82C302D4BC0
:1039200000221A7009AB19462B482CF0EDFD1190BE
:10393000119B002B0DD01B482DF032FE0246119B2F
:1039400000934FF4AD73184902202DF06BFE119BCC
:103950001FE0029B1D4A1A6001E029F0B9FD1D4BD2
:103960001B7883F00103DBB2002BF6D110E0119B32
:10397000002B0DD00B482DF013FE0246119B009337
:1039800040F26513084902202DF04CFE119B00E027
:103990000023184613B05DF804FB00BFD08E05006D
:1039A000493302006C8C0500F08D0500D54F0020D6
:1039B000D74F0020FC8E0500BC4F0020B84F0020E0
:1039C000D44F0020A04F0020308F0500CC4F0020A6
:1039D000C84F0020D64F0020AC4F002000B589B062
:1039E0000190019B002B01D10E2327E0019B1B8836
:1039F0009BB2ADF80C30019B5B889BB2ADF80E30EA
:103A0000019B9B889BB2ADF81030019BDB889BB279
:103A1000ADF81230019B1B7A8DF8143003AB1846B9
:103A20000DF090FE0790079B0693069B002B04D099
:103A3000044A4C21069829F0C9FB0023184609B016
:103A40005DF804FB988F050000B59BB003900192D0
:103A50001A460B468DF80B301346ADF808309DF82A
:103A60000B300B2B00F2138201A252F823F000BF9F
:103A7000273E0200A13A0200FF3A02005D3B02002D
:103A8000B73B0200153C02006F3C0200C93C02003B
:103A9000233D0200A13D0200F73D0200093E020065
:103AA000039B93F866301A46B44903202DF08FFD2E
:103AB000039B93F86630002B10D04FF480700DF00C
:103AC00091FC1990199B1893189B002B00F0E18131
:103AD000AB4A6021189829F079FBDAE14FF4807045
:103AE0000DF0A8FD1990199B1793179B002B00F060
:103AF000D081A34A6521179829F068FBC9E1039B8F
:103B000093F867301A469F4903202DF060FD039B10
:103B100093F86730002B10D04FF400700DF062FC6A
:103B20001990199B1693169B002B00F0B481944AB0
:103B30006E21169829F04AFBADE14FF400700DF0AC
:103B400079FD1990199B1593159B002B00F0A3810B
:103B50008B4A7321159829F039FB9CE1039B93F85C
:103B600068301A46884903202DF031FD039B93F8F5
:103B70006830002B0FD008200DF034FC1990199BF1
:103B80001493149B002B00F088817D4A7C211498AB
:103B900029F01CFB81E108200DF04CFD1990199BC8
:103BA0001393139B002B00F07881754A81211398A1
:103BB00029F00CFB71E1039B93F869301A467349B5
:103BC00003202DF004FD039B93F86930002B10D0E7
:103BD0004FF480600DF006FC1990199B1293129B14
:103BE000002B00F05C81664A8A21129829F0EEFAD7
:103BF00055E14FF480600DF01DFD1990199B119354
:103C0000119B002B00F04B815D4A8F21119829F008
:103C1000DDFA44E1039B93F86A301A465C490320BD
:103C20002DF0D5FC039B93F86A30002B0FD00720B2
:103C30000DF0D8FB1990199B1093109B002B00F0EE
:103C400030814F4A9821109829F0C0FA29E10720C5
:103C50000DF0F0FC1990199B0F930F9B002B00F0B7
:103C60002081474A9D210F9829F0B0FA19E1039B62
:103C700093F86B301A46474903202DF0A8FC039BAC
:103C800093F86B30002B0FD010200DF0ABFB199088
:103C9000199B0E930E9B002B00F00581384AA6213C
:103CA0000E9829F093FAFEE010200DF0C3FC199055
:103CB000199B0D930D9B002B00F0F580304AAB2132
:103CC0000D9829F083FAEEE0039B93F86C301A46C6
:103CD000314903202DF07BFC039B93F86C30002BC3
:103CE0000FD020200DF07EFB1990199B0C930C9B9C
:103CF000002B00F0DA80224AB4210C9829F066FAF1
:103D0000D3E020200DF096FC1990199B0B930B9B90
:103D1000002B00F0CA801A4AB9210B9829F056FAF4
:103D2000C3E0039B93F86D301A461C4903202DF025
:103D30004EFC039B93F86D30002B0FD040200DF00C
:103D400051FB1990199B0A930A9B002B00F0AF803E
:103D50000B4AC2210A9829F039FAA8E040200DF058
:103D600069FC1990199B0993099B002B00F09F8017
:103D7000034AC721099829F029FA98E0E08F050045
:103D8000988F05002C90050080900500CC900500D0
:103D90001C91050068910500B4910500049205008E
:103DA000039B93F86E301A46454903202DF00FFC13
:103DB000039B93F86E30002B0ED080200DF012FB89
:103DC0001990199B0893089B002B72D03D4AD02173
:103DD000089829F0FBF96CE080200DF02BFC19907D
:103DE000199B0793079B002B63D0364AD521079870
:103DF00029F0ECF95DE0039B93F86F301A463249E5
:103E000003202DF0E4FB57E0BDF80830039A019938
:103E1000184603F0B9FEBDF808301A460021019893
:103E200032F08FF948E0BDF808301A4627490320E0
:103E30002DF0CDFBBDF80830092B0CBF012300236A
:103E4000DBB20693069B002B04D11E4AF021002012
:103E500029F0BCF9019800F031FF1990199B0593E6
:103E6000059B002B04D0174AF321059829F0AEF9E1
:103E70000198FFF7B3FD1990199B0493049B002B45
:103E800019D0104AF621049829F0A0F913E000BFD8
:103E900012E000BF10E000BF0EE000BF0CE000BF6A
:103EA0000AE000BF08E000BF06E000BF04E000BF7A
:103EB00002E000BF00E000BF00BF1BB05DF804FBE4
:103EC00054920500988F0500A4920500F492050015
:103ED00000B589B003468DF80F303249324800F002
:103EE000A5FF0790079B002B0DD030482DF058FB05
:103EF0000246079B009340F20D132D4902202DF03E
:103F000091FB079B49E09DF80F30002B0ED026480F
:103F100000F0D4FE0790079B0693069B002B05D06C
:103F2000224A4FF48971069829F050F91D4B1B68FD
:103F30001846FFF753FD0790079B002B0DD01B4839
:103F40002DF02EFB0246079B00934FF48B7318490C
:103F500002202DF067FB079B1FE004AB0822002125
:103F6000184632F0EEF80F4B1B680493114B059383
:103F7000114903202DF01AFB04AB19460F4823F01A
:103F8000B1FA0790079B002B06D0079A0C49012035
:103F90002DF01DFB079B00E00023184609B05DF8DB
:103FA00004FB00BF545000208C8F0500988F050043
:103FB00044930500493A020098930500D84F002029
:103FC000D893050000B585B0019001990D4823F004
:103FD00059FA019B1B88112B0FD140F6FF700DF091
:103FE00029FB0390039B0293029B002B05D0064AFA
:103FF00040F23711029829F0E9F800BF05B05DF8EA
:1040000004FB00BFD84F0020988F05002DE9F04732
:10401000BAB002AFF860B9607A60FB681B78082B11
:1040200000F2718501A252F823F000BF5140020056
:10403000054502005D450200E745020073480200A5
:10404000C3480200EF490200454A0200B54A020097
:104050007B68242B0CBF01230023DBB2C7F8D830C8
:10406000D7F8D830002B05D11F4A4FF4A17100209A
:1040700029F0ACF8BB68C7F8D430002387F8DD30EE
:1040800064E097F8DD309B00D7F8D42013441B6818
:104090001B14A7F8D23097F8DD30144A32F91330E8
:1040A000B7F9D2209A4225DB97F8DD10B7F9D20094
:1040B00097F8DD300D4A32F91330009303460A4673
:1040C0000B4902202DF0AEFA97F8DD30074A32F99D
:1040D0001330194697F8DD309B00D7F8D4201344ED
:1040E0000A041A602DE000BF988F05000C990500A6
:1040F0000494050097F8DD30C54A32F91330B7F95A
:10410000D2209A421DDA97F8DD10B7F9D20097F85D
:10411000DD30BF4A32F91330009303460A46BD49E9
:1041200002202DF07FFA97F8DD30B94A32F91330CA
:10413000194697F8DD309B00D7F8D42013440A04C1
:104140001A6097F8DD30013387F8DD3097F8DD30FD
:10415000082B96D9D7F8D4301B689B111BB2A7F84F
:104160006430D7F8D43004331B689B111BB2A7F816
:104170006630D7F8D43008331B689B111BB2A7F800
:104180006830D7F8D4300C331B68DB121BB2A7F8A9
:104190006A30D7F8D43010331B68DB121BB2A7F893
:1041A0006C30D7F8D43014331B68DB121BB2A7F87D
:1041B0006E30D7F8D43018331B681B139BB25B42A8
:1041C0009BB21BB2A7F87230D7F8D4301C331B68EF
:1041D0001B131BB2A7F87030D7F8D43020331B68FC
:1041E0001B131BB2A7F874308B4904202DF0DEF9A5
:1041F000D7F8D4301B6818462FF04EF903460C460A
:10420000C7E932344FF00002844BD7E932012FF076
:10421000D3FC03460C46C7E9323407F15C00D7E90A
:1042200032237F4931F098FD07F15C0318462DF0E9
:10423000B7F903461A467B4904202DF0C8F9D7F890
:10424000D43004331B6818462FF026F903460C4679
:10425000C7E932344FF00002704BD7E932012FF03A
:10426000ABFC03460C46C7E9323407F15C00D7E9E2
:1042700032236B4931F070FD07F15C0318462DF0D5
:104280008FF903461A46684904202DF0A0F9D7F8A3
:10429000D43008331B6818462FF0FEF803460C464E
:1042A000C7E932344FF000025C4BD7E932012FF0FE
:1042B00083FC03460C46C7E9323407F15C00D7E9BA
:1042C0003223574931F048FD07F15C0318462DF0C1
:1042D00067F903461A46554904202DF078F9D7F8B6
:1042E000D4300C331B6818462FF0D6F803460C4622
:1042F000C7E932344FF00002484BD7E932012FF0C2
:104300005BFC03460C46C7E9323407F15C00D7E991
:104310003223434931F020FD07F15C0318462DF0AC
:104320003FF903461A46424904202DF050F9D7F8C8
:10433000D43010331B6818462FF0AEF803460C46F5
:10434000C7E932344FF00002344BD7E932012FF085
:1043500033FC03460C46C7E9323407F15C00D7E969
:1043600032232F4931F0F8FC07F15C0318462DF099
:1043700017F903461A462F4904202DF028F9D7F8DB
:10438000D43014331B6818462FF086F803460C46C9
:10439000C7E932344FF00002204BD7E932012FF049
:1043A0000BFC03460C46C7E9323407F15C00D7E941
:1043B00032231B4931F0D0FC07F15C0318462DF085
:1043C000EFF803461A461C4904202DF000F9D7F8EF
:1043D000D4301C331B6818462FF05EF803460C4699
:1043E000C7E932344FF000020C4BD7E932012FF00D
:1043F000E3FB03460C46C7E9323407F15C00D7E91A
:104400003223074931F0A8FC07F15C03184615E098
:1044100020990500509405009C9405000000F04090
:10442000CC940500D494050004950500349505004E
:104430006495050098950500CC9505002DF0B0F821
:1044400003461A46BC4904202DF0C1F8D7F8D430F1
:1044500018331B6818462FF01FF803460C461A46FF
:10446000C7F8C82084F00043C7F8CC304FF00002F2
:10447000B24BD7E932012FF09FFB03460C46C7E948
:10448000323407F15C00D7E93223AD4931F064FCE6
:1044900007F15C0318462DF083F803461A46A94934
:1044A00004202DF094F8D7F8D43020331B68184638
:1044B0002EF0F2FF03460C46C7E932344FF00002FB
:1044C0009E4BD7E932012FF077FB03460C46C7E934
:1044D000323407F15C00D7E93223994931F03CFCD2
:1044E00007F15C0318462DF05BF803461A4696491F
:1044F00004202DF06CF807F164031946934823F06B
:10450000DDF905E37B68102B0CBF01230023DBB230
:10451000C7F8C430D7F8C430002B05D18C4A40F21C
:10452000BF11002028F052FEBB68C7F8C030D7F892
:10453000C0301B68FB64D7F8C0305B683B65D7F8B8
:10454000C0309B687B65D7F8C030DB68BB6507F17E
:104550004C0319467D4823F02BF9D9E27B680C2BDC
:104560000CBF01230023DBB2C7F8BC30D7F8BC3046
:10457000002B05D1764A40F2E111002028F026FEFA
:10458000BB68C7F8B830D7F8B8301B683B64D7F8B9
:10459000B8305B687B64D7F8B8309B68BB643B6C11
:1045A000002B02DA03F57F43FF331B141A467B6CA2
:1045B000002B02DA03F57F43FF331B141946BB6C53
:1045C000002B02DA03F57F43FF331B1400930B46E5
:1045D000604904202DF026F807F1400319465B4896
:1045E00023F0AFF994E26B469A467B68242B0CBF0C
:1045F00001230023DBB2C7F8B430D7F8B430002B66
:1046000005D1534A4FF4F971002028F0DFFDBB6853
:10461000C7F8B030D7F8B0301B681B141BB2BB858D
:10462000D7F8B03004331B681B141BB2FB85D7F8D6
:10463000B03008331B681B141BB23B86D7F8B03070
:104640000C331B681B141BB27B86D7F8B0301033B9
:104650001B681B141BB2BB86D7F8B03014331B6821
:104660001B141BB2FB86D7F8B03018331B681B1421
:104670001BB23B87D7F8B0301C331B681B141BB22E
:104680007B87D7F8B03020331B681B141BB2BB8765
:10469000314B1B78013BC7F8AC302F4B1B78D9B29C
:1046A0004FF000020B46144613EB030844EB0409D9
:1046B00043464C465B1842EB04044FF000014FF0B8
:1046C0000002220142EA137219010B461446224BE2
:1046D0001B781A4613465B0013445B001E4B1B7885
:1046E000D9B24FF000020B461446DD1844EB040625
:1046F0002B4634465B1842EB04044FF000014FF0A8
:104700000002220142EA137219010B461446124BB1
:104710001B781A4613465B0013445B000733DB0823
:10472000DB00ADEB030D02AB0033C7F8A83000236C
:1047300087F8DE3038E000BF009605000000F0404A
:10474000CC9405003096050060960500D84F0020F7
:10475000988F0500909605003299050097F8DE3095
:104760009B00D7F8B02013441B6818462EF094FE27
:104770004FF00002C24B2FF01FFA03460C46C7E968
:10478000283497F8DE2013465B0013445B00D7F80B
:10479000A820D018D7E92823BA4931F0DDFA97F8D4
:1047A000DE30013387F8DE30B74B1B7897F8DE2018
:1047B0009A42D3D3B54904202CF0F8FED7F8A8309C
:1047C00018462CF0EDFE0446D7F8A83006331846FC
:1047D0002CF0E6FE0546D7F8A8300C3318462CF02E
:1047E000DFFE034600932B462246A94904202CF005
:1047F00019FFD7F8A830123318462CF0D1FE044622
:10480000D7F8A830183318462CF0CAFE0546D7F85A
:10481000A8301E3318462CF0C3FE034600932B46E7
:1048200022469B4904202CF0FDFED7F8A830243303
:1048300018462CF0B5FE0446D7F8A8302A3318469F
:104840002CF0AEFE0546D7F8A830303318462CF0D1
:10485000A7FE034600932B4622468D4904202CF0E8
:10486000E1FE07F12C0319468A4823F0ADF8D5463E
:104870004EE17B68042B0CBF01230023DBB2C7F899
:104880009C30D7F89C30002B05D1834A40F2172189
:10489000002028F09BFCBB681B68BB62BB6A002B36
:1048A00002DA03F57F43FF331B141A467B490420C9
:1048B0002CF08DFE07F128031946764823F0C7F83F
:1048C00026E16B461D467B680C2B0CBF01230023A1
:1048D000DBB2C7F89830D7F89830002B05D16E4A74
:1048E00040F22221002028F071FCBB68C7F8943008
:1048F000D7F894301B68FB61D7F894305B683B6253
:10490000D7F894309B687B62654B1B78013BC7F8F6
:104910009030634B1B78D9B24FF000024FF0000388
:104920004FF00004940144EA91648B015C4B1B78C6
:10493000D9B24FF000024FF000034FF00004940191
:1049400044EA91648B01564B1B78DB000733DB088C
:10495000DB00ADEB030D02AB0033C7F88C30002356
:1049600087F8DF301AE097F8DF30DB00D7F88C20CB
:10497000D41897F8DF309B00D7F8942013441B68B5
:1049800018462EF0C5FE02460B464649204631F039
:10499000E3F997F8DF30013387F8DF30404B1B78BD
:1049A00097F8DF209A42DED3D7F88C3018462CF0E7
:1049B000F7FD0446D7F88C30083318462CF0F0FD8C
:1049C0000646D7F88C30103318462CF0E9FD034624
:1049D000009333462246344904202CF023FE07F18D
:1049E0001C0319462B4823F076F8AD4690E07B680F
:1049F000022B0CBF01230023DBB2C7F88830D7F8A5
:104A00008830002B05D1244A40F23F21002028F0B5
:104A1000DDFBBB68C7F88430D7F884301B783B7661
:104A2000D7F884305B787B767B7E1A463B7E1F49C5
:104A300004202CF0E0FD07F118031946154822F078
:104A400031FE65E07B68012B0CBF01230023DBB244
:104A5000C7F88030D7F88030002B05D10E4A4FF4CC
:104A60001471002028F0B2FBBB681B781A4610496D
:104A700004202CF0ACFDB968064822F056FE47E051
:104A80000000D041F496050032990500FC9605001F
:104A900030970500D84F0020988F050058970500E3
:104AA0003399050098970500A0970500EC9705003D
:104AB000249805007B68082B0CBF01230023DBB280
:104AC000FB67FB6F002B05D1144A40F25A210020EE
