:020000021000EC
:10F000000000012033F10100D9F00100DBF0010024
:10F01000DDF00100DFF00100E1F001000000000080
:10F02000000000000000000000000000E3F001000C
:10F03000E5F0010000000000E7F00100E9F0010048
:10F0400009B90400EDF00100EFF0010069AC040023
:10F05000F3F0010069280500719B0400E9BB04007E
:10F06000FBF00100FDF00100FFF0010001F10100E3
:10F0700003F10100CDCA040007F1010009F101000C
:10F080000BF10100E9E004000FF1010011F10100B2
:10F0900029E1040015F10100F113050019F1010047
:10F0A0001BF101001DF1010075CC0400D125050004
:10F0B00081B5040085C604000000000000000000C7
:10F0C00027F1010029F101002BF101002DF10100D0
:08F0D0002FF1010031F10100F4
:10F0D800FEE7FEE7FEE7FEE7FEE7FEE7FEE7FEE700
:10F0E800FEE7FEE7FEE7FEE7FEE7FEE7FEE7FEE7F0
:10F0F800FEE7FEE7FEE7FEE7FEE7FEE7FEE7FEE7E0
:10F10800FEE7FEE7FEE7FEE7FEE7FEE7FEE7FEE7CF
:10F11800FEE7FEE7FEE7FEE7FEE7FEE7FEE7FEE7BF
:10F12800FEE7FEE7FEE7FEE7FEE70348854600F058
:10F13800C5F800F003B87047000001203749384887
:10F148000A1A02D0072291438D46364936480A1AD0
:10F1580006D00722914381F30988022282F314889A
:10F1680032483349334A00F048F833483349344A7F
:10F1780000F043F833483449344A00F03EF8344844
:10F188003449354A00F039F834483549354A00F0F1
:10F1980034F835483549364A00F02FF835483649AD
:10F1A800364A00F02AF836483649374A00F025F83A
:10F1B80036483749002200F02BF8364836490022F5
:10F1C80000F026F835483649091A082903DB0022D9
:10F1D8000260043001601F481F49884205D0026858
:10F1E800043003B4904703BCF7E700208646EC469A
:10F1F800002000212B4A9047FEE7884207D0521A88
:10F2080005D0037801300B700131013AF9D170470C
:10F21800884202D002700130FAE7704700000120EE
:10F2280000FC00200000012000000120C847060063
:10F238005845002078460020B0F20100B0F20100E5
:10F24800E8710500C84706005845002058450020C9
:10F25800E8710500E8710500E8710500E87105002E
:10F26800E8710500E8710500E8710500E87105001E
:10F27800C8470600E848060078460020784600207F
:10F28800E848060078460020884600208846002086
:10F2980040A1002040A1002048A1002048A1002052
:08F2A80048A5002091FD0100C2
:10F2B000024B034A1A6000BF704700BF5845002048
:10F2C0000090D00308B500F00DF90346002B06D0DE
:10F2D000744B1B681B0A744A03F01F03136000F091
:10F2E0002DF90346002B02D0704B714A1A6000F0D2
:10F2F00041F90346002B06D06E4B1B685B0B6E4A30
:10F3000003F00703136000F061F90346002B05D0FA
:10F310006A4BDB68694A23F08073D36000F072F9AE
:10F320000346002B0ED04FF080430022C3F80C217F
:10F330004FF080430022C3F810214FF08043002299
:10F34000C3F8382500F08AF90346002B02D05C4B45
:10F3500003221A6000F09EF90346002B0BD0594B94
:10F3600005221A60584B01221A60584B00221A607D
:10F37000574B3F221A6000F0A9F90346002B76D0C4
:10F380004FF08053534AD3F80434C2F820354FF07D
:10F390008053504AD3F80834C2F824354FF08053D4
:10F3A0004C4AD3F80C34C2F828354FF08053494A00
:10F3B000D3F81034C2F82C354FF08053454AD3F8B7
:10F3C0001434C2F830354FF08053424AD3F8183421
:10F3D000C2F834354FF080533E4AD3F81C34C2F89B
:10F3E00040354FF080533B4AD3F82034C2F84435BF
:10F3F0004FF08053374AD3F82434C2F848354FF0E1
:10F400008053344AD3F82834C2F84C354FF0805337
:10F41000304AD3F82C34C2F850354FF080532D4A7F
:10F42000D3F83034C2F854354FF08053294AD3F81A
:10F430003434C2F860354FF08053264AD3F838345C
:10F44000C2F864354FF08053224AD3F83C34C2F8F6
:10F4500068354FF080531F4AD3F84034C2F86C35FA
:10F460004FF080531B4AD3F84434C2F8703500F093
:10F4700049F90346002B05D0174B1B68174A03F0C8
:10F480004F031360164BD3F88830154A43F47003CA
:10F49000C2F88830BFF34F8FBFF36F8FFFF708FFBD
:10F4A00000BF08BD240300104035014074C0074070
:10F4B0000DF0ADBA440200103C050040F0ED00E054
:10F4C000A0050040105600408856004018560040E5
:10F4D0001456004000C0004058020010E40E0040E6
:10F4E00000ED00E0124B1B68DBB2062B1DD1114B67
:10F4F0001B6803F00F03002B17D10F4B1B6803F0A1
:10F50000F003302B01D1012310E00B4B1B6803F0FB
:10F51000F003402B01D1012308E0074B1B6803F0E7
:10F52000F003502B01D1012300E00023184670475F
:10F53000E00F00F0E40F00F0E80F00F00A4B1B684A
:10F54000DBB2062B0DD1094B1B6803F00F03002B18
:10F5500007D1074B1B6803F0F003302B01D10123C7
:10F5600000E0002318467047E00F00F0E40F00F0C1
:10F57000E80F00F0124B1B68DBB2062B1DD1114BBC
:10F580001B6803F00F03002B17D10F4B1B6803F010
:10F59000F003302B01D1012310E00B4B1B6803F06B
:10F5A000F003402B01D1012308E0074B1B6803F057
:10F5B000F003502B01D1012300E0002318467047CF
:10F5C000E00F00F0E40F00F0E80F00F00A4B1B68BA
:10F5D000DBB2062B0DD1094B1B6803F00F03002B88
:10F5E00007D1074B1B6803F0F003302B01D1012337
:10F5F00000E0002318467047E00F00F0E40F00F031
:10F60000E80F00F0124B1B68DBB2062B1DD1114B2B
:10F610001B6803F00F03002B17D10F4B1B6803F07F
:10F62000F003302B01D1012310E00B4B1B6803F0DA
:10F63000F003402B01D1012308E0074B1B6803F0C6
:10F64000F003502B01D1012300E00023184670473E
:10F65000E00F00F0E40F00F0E80F00F00A4B1B6829
:10F66000DBB2062B0DD1094B1B6803F00F03002BF7
:10F6700007D1074B1B6803F0F003302B01D10123A6
:10F6800000E0002318467047E00F00F0E40F00F0A0
:10F69000E80F00F00A4B1B68DBB2062B0DD1094BBB
:10F6A0001B6803F00F03002B07D1074B1B6803F007
:10F6B000F003302B01D1012300E0002318467047EE
:10F6C000E00F00F0E40F00F0E80F00F00A4B1B68B9
:10F6D000DBB2062B0DD1094B1B6803F00F03002B87
:10F6E00007D1074B1B6803F0F003502B01D1012316
:10F6F00000E0002318467047E00F00F0E40F00F030
:10F70000E80F00F0124B1B68DBB2062B1DD1114B2A
:10F710001B6803F00F03002B17D10F4B1B6803F07E
:10F72000F003302B01D1012310E00B4B1B6803F0D9
:10F73000F003402B01D1012308E0074B1B6803F0C5
:10F74000F003502B01D1012300E00023184670473D
:10F75000E00F00F0E40F00F0E80F00F00048704701
:10F7600038A1002082B003468DF807309DF807309D
:10F7700003F01F0206499DF907305B09012000FADA
:10F7800002F2603341F8232000BF02B0704700BF8F
:10F7900000E100E0BFF34F8F054BDB6803F4E0624C
:10F7A0000349044B1343CB60BFF34F8F00BFFDE70A
:10F7B00000ED00E00400FA0532DF704700BF184694
:10F7C0003EDF704700BF184682B001904FF0A04363
:10F7D000184602B0704700B585B001900846114642
:10F7E0001A4603468DF803300B468DF80230134657
:10F7F0008DF8013001AB1846FFF7E6FF03909DF846
:10F8000003209DF802305B001A439DF801309B00F5
:10F810001A439DF818301B0242EA03019DF81C3080
:10F820001B04019A1943039B02F5E07243F822106E
:10F8300000BF05B05DF804FB00B585B003900B4632
:10F840008DF80B3013468DF80A309DF80B209DF88B
:10F850000A300193002300931346002200210398ED
:10F86000FFF7B9FF00BF05B05DF804FB84B001905D
:10F87000244B0393019B002B40D0234B1A68039920
:10F88000019B00BF00BF00BF00BF00BF00BF00BFA3
:10F8900000BF8A422FD000BF00BF00BF00BF00BF23
:10F8A00000BF00BF00BF00BF00BF00BF00BF00BF60
:10F8B00000BF00BF00BF00BF00BF00BF00BF00BF50
:10F8C00000BF00BF00BF00BF00BF00BF00BF00BF40
:10F8D00000BF00BF00BF00BF00BF00BF00BF00BF30
:10F8E00000BF00BF00BF00BF00BF00BF00BF00BF20
:10F8F00000BF00BF00BF013BC3D1019300BF04B0F4
:10F90000704700BF0024F4005845002000B583B0C4
:10F910000190019B4FF47A7202FB03F31846FFF744
:10F92000A5FF00BF03B05DF804FB000070B58AB00E
:10F93000079006910592059B0993099B5B68184601
:10F9400031F07AFE0546099B1B881E46099B9C6880
:10F95000099B9B68184632F053FA0346184631F06B
:10F960006BFE03460393029401960095069B079A4B
:10F970000849012031F0D6FE022005F053FE052093
:10F98000FFF7C4FF059A069907982DF083FC00BF86
:10F990000AB070BD6072050000B587B0F1EE103A94
:10F9A0000193019B23F09F030293029BE1EE103A27
:10F9B000F1EE103A03932620FFF7D4FEFFF700FF85
:10F9C0000590059B0493049B002B04D0044AB921A5
:10F9D00004982DF047FC00BF07B05DF804FB00BFA2
:10F9E000F472050000B589B00390039B5B881A464A
:10F9F000039B1B791946039B1B7800930B462049F8
:10FA0000032031F05BFE039B002B34D0039B1B785B
:10FA1000012B30D108F000F80790079B0693069B56
:10FA2000002B04D0174ACB2106982DF01BFC022294
:10FA300000210D20FFF700FF1349022031F002FEE4
:10FA4000FFF7BAFE079007F0C5FD034683F00103F8
:10FA5000DBB2002B0AD0079B0593059B002B0AD035
:10FA6000084AD82105982DF0FDFB04E00749022043
:10FA700031F0E8FDFEE700BF09B05DF804FB00BF10
:10FA80000C740500F472050054740500D073050071
:10FA900000B583B00190019B1B78012B08D0022B8D
:10FAA00010D0002B15D10D49032031F0CBFD10E013
:10FAB0000B49032031F0C6FD0520FFF727FFFFF7B4
:10FAC00069FE06E00749032031F0BCFDFFF762FE46
:10FAD00000BF00BF03B05DF804FB00BFB8740500B1
:10FAE000F47405003475050000B59BB001AB242209
:10FAF0000021184636F071FB1C238DF80A300523CF
:10FB00008DF80B300D238DF80C3011238DF80D304E
:10FB100001238DF80E3004238DF80F3040F61C437E
:10FB2000ADF8103041F25E03ADF81230594B059339
:10FB3000594B06936F23ADF81C3040F61C43ADF8CB
:10FB40001E300A238DF82030544B09930F2006F005
:10FB5000B3FD1990199B1893189B002B05D0504AA0
:10FB60004FF4897118982DF07DFB4E4B0F930FAB1E
:10FB700019464D4805F0F8FD1990199B1793179BEE
:10FB8000002B05D0464A4FF48C7117982DF06AFB74
:10FB9000444B0E930EAB1946444803F0EFFA19900C
:10FBA000199B1693169B002B05D03D4A4FF48F717D
:10FBB00016982DF057FB3B4B0D930DAB19463C4867
:10FBC00004F0B4FF1990199B1593159B002B05D0D9
:10FBD000334A40F2251115982DF044FB354806F0C4
:10FBE000AFF91990199B1493149B002B05D02C4A44
:10FBF0004FF4947114982DF035FB2F4B019301AB0A
:10FC000019462E4807F0C4FA1990199B1393139BB9
:10FC1000002B05D0224A40F22D1113982DF022FB23
:10FC200041F2883007F034FA1990199B1293129B15
:10FC3000002B05D01A4A4FF4987112982DF012FB40
:10FC40001F4B0A93194B0B9305230C930AAB1846D1
:10FC500001F094FC1990199B1193119B002B05D076
:10FC60000F4A4FF49C7111982DF0FCFA012005F019
:10FC7000D9FC1990199B1093109B002B05D0084AB2
:10FC800040F23B1110982DF0EDFA00BF1BB05DF86B
:10FC900004FB00BF60E3160020BF0200E87105000E
:10FCA000F47205005872050098460020884600202E
:10FCB00090460020A0460020E5F90100A84600205B
:10FCC00091FA010000B585B00C4B019301AB1846C9
:10FCD00007F050FE0390039B0293029B002B05D07C
:10FCE000074A4FF4AF7102982DF0BCFA6420FFF779
:10FCF0000DFE00BF05B05DF804FB00BFB075050048
:10FD0000F472050000B589B01E4B02931E4B03939D
:10FD100002AB18460BF084F80790079B0693069BEE
:10FD2000002B05D0194A40F2751106982DF09AFA69
:10FD3000144B0093144B01936B4618460BF040F99B
:10FD40000790079B0593059B002B05D00F4A40F2B7
:10FD50007B1105982DF086FA0BF04EFB0790079B60
:10FD60000493049B002B05D0084A4FF4BF710498FC
:10FD70002DF078FA6420FFF7C9FD00BF09B05DF8E7
:10FD800004FB00BF58720500CC750500F472050035
:10FD900000B587B0002031F0FFFB0590059B049370
:10FDA000049B002B05D01B4A4FF4D77104982DF00B
:10FDB00059FA1949032031F045FC184A3C21082022
:10FDC0002DF00CFB0390039B0293029B002B05D0AC
:10FDD000104A4FF4DA7102982DF044FA2EF0AAF985
:10FDE0000590059B0193019B002B05D0094A4FF418
:10FDF000DB7101982DF036FAFFF764FFFFF774FE10
:10FE0000FFF780FF07F030FE2DF0AEFBFFF7C4FDDB
:10FE1000FAE700BFF472050070750500B0460020D7
:10FE20006DDF704700BF184676DF704700BF184689
:10FE30007ADF704700BF18467CDF704700BF184666
:10FE40007FDF704700BF18468FDF704700BF18463E
:10FE50009EDF704700BF1846A9DF704700BF1846F5
:10FE6000ADDF704700BF184669DF704700BF184616
:10FE700066DF704700BF184631DF704700BF184685
:10FE80003DDF704700BF184684B00190244B0393B8
:10FE9000019B002B40D0234B1A680399019B00BFA4
:10FEA00000BF00BF00BF00BF00BF00BF00BF8A424D
:10FEB0002FD000BF00BF00BF00BF00BF00BF00BF0A
:10FEC00000BF00BF00BF00BF00BF00BF00BF00BF3A
:10FED00000BF00BF00BF00BF00BF00BF00BF00BF2A
:10FEE00000BF00BF00BF00BF00BF00BF00BF00BF1A
:10FEF00000BF00BF00BF00BF00BF00BF00BF00BF0A
:10FF000000BF00BF00BF00BF00BF00BF00BF00BFF9
:10FF100000BF013BC3D1019300BF04B0704700BFD5
:10FF20000024F4005845002000B583B00190019BE7
:10FF30004FF47A7202FB03F31846FFF7A5FF00BFE8
:10FF400003B05DF804FB000000B583B001900091A0
:10FF5000009B1B78012B09D0022B02D0002B0AD06A
:10FF60000EE00C49032031F06DFB0EE00A4903203E
:10FF700031F068FB09E00949032031F063FB04E03C
:10FF80000749022031F05EFB00BF00BF03B05DF8FF
:10FF900004FB00BF00780500407805007C78050070
:10FFA000BC78050000B585B00023019301AB18466D
:10FFB0002EF0D4FC03468DF80F309DF80F300293DD
:10FFC000029B002B04D0074A842102982DF04AF9A5
:10FFD000019B002B14BF01230023DBB2184605B0A0
:10FFE0005DF804FBF878050000B589B003900B4676
:10FFF0008DF80B3000238DF817300DF117031846DC
:020000022000DC
:100000002CF000FD00238DF81F3016E09DF81F3006
:1000100001338DF81F302E49022031F013FB0DF112
:10002000170318462CF0EEFC0520FFF77DFF9DF826
:100030001F30052B01D90D2345E09DF817309DF8A1
:100040000B209A42E2D89DF817301A462149032026
:1000500031F009FB9DF80B30194603982CF0EEFCAB
:100060000690069B002B0CD01B4831F0E5FA0246A7
:10007000069B0093A3231949022031F01FFB069B26
:1000800021E01749032031F0DDFA00238DF81E30FE
:100090000EE09DF81E30039A13441B781A4611494E
:1000A000132031F0E0FA9DF81E3001338DF81E3038
:1000B0009DF81E209DF80B309A42EAD30A4913207E
:1000C00031F0C0FA0023184609B05DF804FB00BF08
:1000D0003C7905008C790500F8780500C4790500A5
:1000E000187A0500487A0500507A050010B586B0E8
:1000F0009DF804306FF303038DF804309DF804304D
:100100006FF307138DF80430474B1B681C46464BB2
:100110001B68184636F0DDF803469AB201AB21465B
:100120001846FFF789FE0590059B0493049B002B5E
:1001300004D03E4AC22104982DF094F802AB082264
:100140000021184636F049F8374B1B68B3F80F30DA
:100150009BB2ADF80830344B1B68B3F811309BB23A
:10016000ADF80A30304B1B68B3F813309BB2ADF8D2
:100170000C302D4B1B68B3F815309BB2ADF80E3028
:1001800002AB1846FFF754FE0590059B072B41D1A3
:10019000254B1B68002242F00602DA7300221A7413
:1001A000214B1B68002242F00C025A7400229A7400
:1001B0001D4B1B680022DA7400221A751A4B1B684B
:1001C000002242F040025A75002242F001029A7564
:1001D000154B1B68184601F05FFB0590059B002B33
:1001E00001D0059B1CE00623ADF808300C23ADF8C8
:1001F0000A300023ADF80C304FF4A073ADF80E3088
:1002000002AB1846FFF714FE0590059B002B06D0A5
:10021000059B05E0059B002B01D0059B00E000231A
:10022000184606B010BD00BFD84A0020F878050077
:1002300000B585B00190019B1B78002B16D11149A8
:10024000012031F0FFF9104B1B883B211846FFF7C6
:10025000EBFD0390039B0293029B002B0ED00B4AF5
:1002600040F2011102982CF0FDFF07E0019B1B7882
:10027000012B03D10649032031F0E4F900BF05B09A
:100280005DF804FB547A05005C450020F878050011
:10029000A47A050000B583B00190019A06490120B7
:1002A00031F0E1F9054A40F2151101982CF0DAFF1E
:1002B00000BF03B05DF804FBF07A0500F878050094
:1002C00000B58BB002AB1C220021184635F085FF2B
:1002D0006B4608220021184635F07FFF1F4B1B6834
:1002E000B3F80F309BB2ADF800301C4B1B68B3F86D
:1002F00011309BB2ADF80230184B1B68B3F81330C5
:100300009BB2ADF80430154B1B68B3F815309BB2A7
:10031000ADF806306B4602934FF4004303934FF45D
:100320007023049303238DF814300023ADF81630A6
:1003300000238DF818300A4B07930A4B089302AB41
:10034000184623F029F80990099B002B01D0099B3E
:1003500000E0002318460BB05DF804FBD84A0020EB
:10036000310202009502020000B589B003468DF803
:1003700007309DF80730002B06D0032B20D11449FD
:10038000032031F05FF91EE01249032031F05AF9E1
:1003900002238DF80C30104B1B6803AA10469847B7
:1003A000032022F045FE0790079B0693069B002B37
:1003B00008D00A4A40F2531106982CF053FF01E08E
:1003C00000BF00E000BF00BF09B05DF804FB00BF44
:1003D0002C7B0500647B0500804A0020F87805002E
:1003E00000B58DB00190019B1B88013B542B00F29E
:1003F0006F8101A252F823F001060200D10602002B
:10040000D1060200D1060200D1060200D106020088
:10041000D1060200D1060200D1060200D106020078
:10042000D1060200D1060200D1060200D106020068
:10043000D10602004D0502006F050200D106020040
:10044000AF050200D1060200D1060200D10602006B
:10045000D1060200D1060200D1060200D106020038
:10046000D1060200D1060200D1060200D106020028
:10047000D1060200D106020097060200C70602005C
:10048000D1060200D1060200D1060200D106020008
:10049000D1060200D1060200D1060200D1060200F8
:1004A000D1060200D1060200D1060200D1060200E8
:1004B000D1060200D1060200D1060200D1060200D8
:1004C000D1060200D1060200D1060200D1060200C8
:1004D000D1060200D1060200D10602008706020002
:1004E000D1060200D1060200D1060200D1060200A8
:1004F000D1060200D1060200D1060200D106020098
:10050000D1060200D1060200D1060200D106020087
:10051000D1060200D1060200D1060200D106020077
:10052000D1060200D1060200D1060200D106020067
:10053000D1060200D1060200D1060200D905020050
:10054000D1060200D10602002706020068490320F6
:1005500031F078F8019B9A88664B1A8000238DF859
:100560000830654B1B6802AA10469847BBE0019B08
:100570001B7A1A466149032031F075F85D4B4FF63E
:10058000FF721A80FFF70EFD0346002B03D05C4B71
:1005900001221A70A7E05A4B00221A7001238DF82D
:1005A0000830554B1B6802AA104698479BE0514BF8
:1005B0001888002300228521FFF742FC0B900B9B3B
:1005C0000A930A9B002B00F085804E4A40F283116B
:1005D0000A982CF047FE7DE0464B18880023002245
:1005E0000021FFF739FC0B900B9B0993099B002B13
:1005F00072D0444A40F2891109982CF033FE6BE026
:100600003C4B1B8800211846FFF732FC0B900B9BDC
:100610000893089B002B61D03A4A4FF4C7710898A1
:100620002CF020FE5AE0019BDB881A463649032055
:1006300031F019F8019B9B884FF48A711846FFF737
:100640000FFC0B900B9B0793079B002B05D02D4AAB
:100650004FF4CB7107982CF005FE019BDA882B4BE9
:10066000A3F8012029492A4824F0CCFF0B900B9BCA
:100670000693069B002B33D0224A4FF4CD71069887
:100680002CF0F0FD2CE0019B5B891A4621490320E8
:1006900030F0E9FF27E02049032030F0D3FF019B31
:1006A0009B88002200211846FFF7CEFB0B900B9B86
:1006B0000593059B002B15D0124A40F2A71105980F
:1006C0002CF0D0FD0EE01549032030F0BBFF0AE00E
:1006D00000BF08E000BF06E000BF04E000BF02E08A
:1006E00000BF00E000BF00BF0DB05DF804FB00BF1D
:1006F0009C7B05005C450020804A0020D87B0500DB
:10070000DF4A0020F8780500287C0500DC4A00203C
:100710008C4A0020787C0500C47C0500147D05000F
:1007200000B585B00190019823F068F8019822F097
:1007300065FF0023039312E0144B1A68039BDB0050
:1007400013445B68002B07D0104B1A68039BDB0037
:1007500013445B6801989847039B013303930C4B48
:100760001B68039A9A42E7D301990A4824F08FFE46
:100770000199094830F0B5FB0198FFF731FE019867
:1007800022F040FD00BF05B05DF804FB844A002064
:10079000884A00208C4A0020FC4A002000B587B01F
:1007A000019001982EF0ECF8019805F079FE01987F
:1007B00022F044FD019B022B02D0019B032B13D19D
:1007C000FFF7F0FB034683F00103DBB2002B0BD0F5
:1007D000074B1B78002B07D001238DF80C30054BFD
:1007E0001B6803AA1046984700BF07B05DF804FBDA
:1007F000DF4A0020804A002000B593B0A54B1B685B
:10080000049304A8A44B4FF4A672A44930F064FDED
:100810001190119B1093109B002B05D0A04A4FF410
:10082000FE7110982CF01EFD0023039303AB1846B5
:1008300030F016FE0F900F9B0E930E9B002B05D0F1
:10084000974A4FF400710E982CF00CFD6B460C2269
:100850000021184635F0C1FC01238DF800304FF41B
:100860008A73ADF80230039A6B4619462320FFF7CE
:10087000FBFA0F900F9B0D930D9B002B05D0884A20
:1008800040F209210D982CF0EDFC6B460C22002162
:10089000184635F0A2FC01238DF8003001238DF8B5
:1008A00002300623ADF80430039A6B461946202027
:1008B000FFF7DAFA0F900F9B0C930C9B002B05D0DF
:1008C000774A40F211210C982CF0CCFC6B460C229C
:1008D0000021184635F081FC01238DF800301023EB
:1008E0008DF80230039A6B4619462220FFF7BCFAB6
:1008F0000F900F9B0B930B9B002B05D0684A4FF476
:1009000006710B982CF0AEFC6B460C2200211846A9
:1009100035F063FC01238DF8003002238DF802309E
:10092000039A6B4619462120FFF79EFA0F900F9B02
:100930000A930A9B002B05D0594A40F21F210A98BE
:100940002CF090FC6B460C220021184635F045FC3B
:1009500002238DF80030039A6B4619460120FFF7F9
:1009600083FA0F900F9B0993099B002B05D04C4AEB
:100970004FF4097109982CF075FC6B460C2200218C
:10098000184635F02AFC01238DF80030039A6B4697
:1009900019464020FFF768FA0F900F9B0893089BB9
:1009A000002B05D03E4A40F2292108982CF05AFC31
:1009B0006B460C220021184635F00FFC4FF47A6389
:1009C0000093039A6B461946A120FFF74DFA0F904A
:1009D0000F9B0793079B002B05D0314A40F22E2135
:1009E00007982CF03FFC6B460C220021184635F08E
:1009F000F4FB9DF8003043F001038DF80030039ABA
:100A00006B461946A020FFF72FFA0F900F9B069315
:100A1000069B002B05D0224A40F2332106982CF089
:100A200021FC03AB184630F02BFD0F900F9B059374
:100A3000059B002B05D01A4A40F2362105982CF070
:100A400011FC184830F0B4FC0F900F9B002B01D024
:100A50000F9B1BE0144830F0BBFC0F900F9B002B4A
:100A600001D00F9B12E00120FFF706FA0F900F9BB9
:100A7000002B01D00F9B09E00120FFF701FA0F9036
:100A80000F9B002B01D00F9B00E00023184613B0F2
:100A90005DF804FB5C7D050055150500144B002036
:100AA000F8780500210702009D07020000B5B1B0EB
:100AB0004FF48073ADF878303B4B1B788DF87A306B
:100AC0001FAB3C220021184635F087FB02238DF82E
:100AD0007C3000238DF87E3006238DF87F30012393
:100AE000ADF884301EAB229316AB202200211846AD
:100AF00035F073FB01238DF85B302C4B1B689B8911
:100B00009BB21A93294B1B689B7B1B9307AB3C2220
:100B10000021184635F061FB00238DF8BF3010E04E
:100B20009DF8BF30C3F103029DF8BF3020498A5CB5
:100B300030A90B4403F8B42C9DF8BF3001338DF875
:100B4000BF309DF8BF30032BEAD95923ADF81030E0
:100B500003AB06930423ADF8143000238DF81C304A
:100B600004AB109316AA07A91FA800230093114BEA
:100B700022F05AF92E902E9B002B0DD00E4830F00B
:100B80005BFD02462E9B009340F282230B4902201C
:100B900030F094FD2E9B03E0012022F037F9002372
:100BA000184631B05DF804FB8C4A0020D84A00207A
:100BB000F84A002069030200F8780500C4790500AE
:100BC00000B583B00190054A40F28F2101982CF0C6
:100BD00049FB00BF03B05DF804FB00BFF8780500D7
:100BE00000B583B01A4B1B6893F82830022B03D84A
:100BF00005F014FD002327E0164B4FF43E721A60F7
:100C0000134B1B681733134A5360114B1B6893F83F
:100C100028309AB20F4B1A810E4B0F4A5A610F4877
:100C2000FFF7FEF80190019B002B01D0019B0BE028
:100C3000084BDB7A0233DAB2064BDA72054805F06C
:100C400081FC05F0ADFC0023184603B05DF804FB01
:100C5000D84A0020604C0020C10B02006A4C0020E2
:100C600000B595B0039001921A460B468DF80B30F3
:100C70001346ADF8083000238DF84F309DF80B3047
:100C8000062B00F2598101A252F823F0A90C0200B0
:100C9000E50C0200090D0200910D0200E10D0200B9
:100CA000130E0200AB0E0200BDF808300A2B00F252
:100CB0003681AE4B1B681846BDF808301A460199BC
:100CC00035F062FAA94B1A68BDF808300021D154FA
:100CD000A64B1B68BDF80820D2B2DA7201238DF84A
:100CE0004F301CE1BDF80830032B40F01A819F4BB8
:100CF0001B680C33BDF808200199184635F044FAFA
:100D000001238DF84F300CE1BDF80830082B40F07E
:100D10000A81964B1B680F33BDF8082001991846CD
:100D200035F032FA05AB08220021184635F055FAA5
:100D30008E4B1B68B3F80F309BB2ADF814308B4B61
:100D40001B68B3F811309BB2ADF81630874B1B68A7
:100D5000B3F813309BB2ADF81830844B1B68B3F86E
:100D600015309BB2ADF81A3005AB184622F06CFC7A
:100D70001290129B1193119B002B05D07C4A40F2DC
:100D8000E12111982CF06EFA01238DF84F30CAE062
:100D9000BDF80830112B00F2C880744B1B68173364
:100DA000BDF808200199184635F0EEF96F4B1B6825
:100DB000BDF80820D2B283F8282001238DF84F30E7
:100DC000FFF70EFF1090109B0F930F9B002B00F06E
:100DD000AC80674A4FF43C710F982CF043FAA4E0C2
:100DE000BDF80830FA2B00F2A280604B1B68293353
:100DF000BDF808200199184635F0C6F95B4B1B6811
:100E0000BDF80820D2B283F8232101238DF84F309A
:100E10008DE0BDF80830032B40F08B80019B0E93D2
:100E20000E9B1B78012B2FD10E9BB3F801309BB288
:100E30001A465049032030F016FC4F4B1A880E9B7F
:100E4000B3F801309BB219461046FFF701F80D9038
:100E50000D9B002B07D1BDF808301A460199474871
:100E600035F092F965E04549454824F0CBFB0D90FB
:100E70000D9B0C930C9B002B5BD03D4A40F20D3137
:100E80000C982CF0EFF954E03C493D4824F0BAFBB3
:100E90000D900D9B0B930B9B002B4AD0344A40F2D4
:100EA00013310B982CF0DEF943E0BDF80830F72B36
:100EB00041D82E4B1B6803F59573BDF808200199A6
:100EC000184635F061F9294B1B68BDF80820D2B2ED
:100ED00083F8212214F03CFC0A900A9B002B05D0D9
:100EE000234A40F21E310A982CF0BCF91F4B1B68B4
:100EF00003F59573BDF80820D2B21146184614F0D8
:100F00003BFA0990099B002B05D0194A40F21F318A
:100F100009982CF0A7F901238DF84F300BE000BFA2
:100F20000AE000BF08E000BF06E000BF04E000BF29
:100F300002E000BF00E000BF9DF84F30002B10D052
:100F40000A4B1B68184600F0A7FC0890089B079303
:100F5000079B002B05D0064A40F22B3107982CF056
:100F600081F900BF15B05DF804FB00BFD84A00202E
:100F7000F8780500607D05005C450020DC4A002013
:100F80008C4A002000B589B000238DF81F30724BC9
:100F90001B6893F82431FF22934214BF01230023DE
:100FA0008DF81E306C4B1B6893F82531FF2293425D
:100FB00014BF012300238DF81D30674B1B6893F885
:100FC0002631FF22934214BF012300238DF81C30E9
:100FD000614B1A6803AB02F59272118892781980FE
:100FE0009A709DF81E30002B07D19DF81D30002B04
:100FF00003D19DF81C30002B2ED0574B1B68FF22CD
:1010000083F82421544B1B68FF2283F82521524B7F
:101010001B68FF2283F8262101238DF81F309DF8DD
:101020001E30002B03D19DF81D30002B14D000235F
:101030008DF81F30494B01221A70494800F02CFCF2
:101040000690069B0593059B002B05D0454A40F270
:101050004E3105982CF006F9FF231A46FF23194656
:10106000FF2300930B464049032030F027FB3B4B06
:101070001B78002B0DD09DF80C301A469DF80D30D2
:1010800019469DF80E3000930B463849032030F086
:1010900015FB314B1B6893F82830112B0FD92E4BC1
:1010A0001B6817330E223249184635F06DF82A4B6B
:1010B0001B680E2283F8282001238DF81F30264B51
:1010C0001B6893F82331FA2B0FD9234B1B68293364
:1010D00000222849184635F057F81F4B1B6800229C
:1010E00083F8232101238DF81F301B4B1B6893F8D5
:1010F0002132F72B05D8184B1B6893F82132002BAF
:1011000010D1154B1B6803F5957316221A49184622
:1011100035F03AF8104B1B68162283F82122012380
:101120008DF81F309DF81F30002B10D00A4B1B6824
:10113000184600F0B1FB0690069B0493049B002B1D
:1011400005D0084A40F2763104982CF08BF8002341
:10115000184609B05DF804FBD84A0020E04A002098
:10116000DC750500F8780500A87D0500E87D050020
:10117000F3750500057605000677050000B585B016
:101180000A4B1B6801930A4B029301AB19460948AD
:1011900024F0A4F90390039B002B01D0039B00E0F3
:1011A0000023184605B05DF804FB00BFD84A0020B4
:1011B000610C02008C4A002000B589B001900091BA
:1011C000FFF7DCFF0690069B0593059B002B05D0DF
:1011D000244A4FF4667105982CF044F800230793D5
:1011E00018E0079BDB00019A13441B68002B0ED00C
:1011F000079BDB00019A13441B681B4A12781046B8
:1012000098470690069B002B01D0069B26E0079B83
:1012100001330793079A009B9A42E2D302AB08225C
:101220000021184634F0D9FF104B029301238DF8AA
:101230000C3001238DF80D3002AB19460C482FF00D
:10124000BFFC0690069B0493049B002B05D0054A27
:1012500040F2B13104982CF005F80023184609B08B
:101260005DF804FBF8780500E04A002049FF010022
:10127000FC4A0020B0B5C6B002AF14F097FAC7F828
:101280000801D7F80831002B0FD0B04830F0D4F95E
:101290000246D7F80831009340F2BE33AC49022031
:1012A00030F00CFAD7F808314BE1AA4B1B6803F574
:1012B00095731622A849184634F02EFD0346002BDC
:1012C00040F01C816B461D462021A44814F07EF995
:1012D000C7F80801D7F80831002B0FD09B4830F031
:1012E000ABF90246D7F80831009340F2C33398496E
:1012F000022030F0E3F9D7F80831FDE01B2387F82E
:10130000073197F807010346013BC7F80031C1B226
:101310004FF000024FF000034FF00004D40044EA05
:101320005174CB00C1B24FF000024FF000034FF0F8
:101330000004D40044EA5174CB0003460733DB08B1
:10134000DB00ADEB030D02AB0033C7F8FC30D7F880
:10135000FC3000221A70D7F8FC308149184634F06E
:101360005CFDD7F8FC307F49184634F056FD002369
:1013700087F80F311EE007F1F80300210A461A80B2
:101380000A469A7097F80F31774AD35C1A4607F1EC
:10139000F8037649184634F02BFDD7F8FC3007F1F6
:1013A000F8021146184634F038FD97F80F31013332
:1013B00087F80F3197F80F31032BDCD9D7F8FC30C1
:1013C000184630F039F903461A466949032030F0CF
:1013D0004AF9D7F8FC3097F807211146184614F05F
:1013E0004DF8C7F80801D7F80831002B0FD057483F
:1013F00030F022F90246D7F80831009340F2D73393
:101400005349022030F05AF9D7F8083174E0162217
:101410005849012014F08EF8C7F80801D7F80831B0
:10142000002B0FD0494830F007F90246D7F80831B1
:10143000009340F2DA334649022030F03FF9D7F802
:10144000083159E014F00AF9C7F80801D7F8083153
:10145000002B0FD03D4830F0EFF80246D7F80831A6
:10146000009340F2DD333A49022030F027F9D7F8F3
:10147000083141E0F72387F8FB3007F1FB023B46D8
:101480001146184613F0D0FFC7F80801D7F8083105
:10149000002B0FD02D4830F0CFF80246D7F8083196
:1014A000009340F2E1332A49022030F007F9D7F8DF
:1014B000083121E097F8FB203B4683F8F7203B46B4
:1014C00019462D4824F0CAF8C7F80801D7F80831A2
:1014D000002B0FD01D4830F0AFF80246D7F8083186
:1014E000009340F2E5331A49022030F0E7F8D7F8CC
:1014F000083101E0AD4623E0AD4622E0154B1B6804
:1015000003F59572134B1B6893F821321946104668
:1015100013F032FFC7F80801D7F80831002B0FD0BD
:101520000A4830F089F80246D7F80831009340F2B3
:10153000EA330749022030F0C1F8D7F8083100E05B
:101540000023184607F58877BD46B0BDF87805003A
:10155000C4790500D84A002006770500587E0500AA
:10156000E44A0020787E0500F84A0020487A050009
:101570007C7E0500A87E05008C4A002000B585B061
:101580000190019B1B686A4A1360019B5B68694A72
:101590001360019B9B68684A1360FFF72DF9039065
:1015A000039B002B06D0039A6449012030F05BF8BE
:1015B000039BB8E0624BD3F88830614A43F4700370
:1015C000C2F88830BFF34F8FBFF36F8F04215D489F
:1015D000FEF70AFD0390039B002B06D0039A5A499D
:1015E000012030F040F8039B9DE05849584800F036
:1015F0000DFA0390039B002B06D0039A5549012056
:1016000030F031F8039B8EE0504B1B680C22A3F89E
:101610001120FFF7B7FC0390039B002B06D0039A21
:101620004D49012030F01FF8039B7CE0FEF75EFD82
:101630000390039B002B06D0039A4849012030F009
:1016400012F8039B6FE03B4B1A683B4B1B68194633
:101650001046FFF7B1FD0390039B002B06D0039AC1
:101660003F4901202FF0FFFF039B5CE0FFF71EFACC
:101670000390039B002B06D0039A3A4901202FF0D8
:10168000F2FF039B4FE0FEF71BFE0390039B002B32
:1016900006D0039A344901202FF0E5FF039B42E076
:1016A000032021F0C5FC0390039B002B06D0039A76
:1016B0002E4901202FF0D7FF039B34E02C4805F082
:1016C0000DFF0390039B002B06D0039A29490120AC
:1016D0002FF0C9FF039B26E025482FF0ADFF0346FE
:1016E0001A46254913202FF0BEFFFFF7C3FD0390D4
:1016F000039B002B06D0039A204901202FF0B3FF53
:10170000039B10E00A20FEF70FFCFFF769FA039035
:10171000039B002B06D0039A194901202FF0A3FF49
:10172000039B00E00023184605B05DF804FB00BFF2
:10173000804A0020844A0020884A0020C07E05009C
:1017400000ED00E0F84A0020FC7E0500D84A0020A9
:10175000DC750500407F05007C7F0500BC7F05002F
:10176000F87F05004480050080800500BC800500EE
:10177000E44A0020FC800500388105004C8105000A
:101780008081050000B589B00390039B1B78012B75
:101790001AD0052B42D0002B4CD1039B5B68002B49
:1017A00003D1344B01221A7059E0334901202FF044
:1017B00049FF00230793079B002B50D12F4A5D213F
:1017C00000202BF04FFD4AE0039B5B68002B16D1F5
:1017D000039B9B89B3F5005F43D1039B1B7C1A4697
:1017E000039B9B891946039BDB8900930B46244985
:1017F00003202FF063FF234B01221A7031E02249AE
:1018000001202FF01FFF00230693069B002B28D1F9
:101810001A4A6F2100202BF025FD22E0039B5B6814
:10182000002B20D1194903202FF00CFF184B012267
:101830001A7018E0039B1B781A46039B5B681549D6
:1018400003202FF024FF039B5B680593059B002B6F
:101850000BD00A4A7B2105982BF004FD05E000BF60
:1018600004E000BF02E000BF00E000BF00BF09B01D
:101870005DF804FBAC4E0020B8810500E88105004E
:1018800030820500AD4E00207C820500AC82050050
:10189000AE4E0020E082050000B58BB003901F49DA
:1018A00003202FF0CFFE039B002B01D10E2331E04C
:1018B00040F2222203991A4834F066FC194B422266
:1018C0001A60184B04938A23ADF814304FF4005378
:1018D000ADF8183042F20103ADF81A3004AB0793AB
:1018E0000123ADF8203006AB19460F482EF067FEF5
:1018F0000990099B002B0CD00C482FF09DFE02464E
:10190000099B009398230A4902202FF0D7FE099BD8
:1019100000E0002318460BB05DF804FB10830500BF
:10192000884C0020844C0020784C0020E881050081
:101930004483050000B58BB0039005AB082200215D
:10194000184634F04AFC2B4903202FF07BFE05ABF0
:10195000294A42F201014FF400502EF09FFE0990F7
:10196000099B002B0CD025482FF066FE0246099BF0
:101970000093A923224902202FF0A0FE099B34E006
:1019800007AB19461C482EF08FFD0990099B002BD0
:101990000CD01A482FF050FE0246099B0093AC234E
:1019A000174902202FF08AFE099B1EE0089B4FF486
:1019B0000A721946134834F0E7FB0F482EF0B0FDC9
:1019C0000990099B002B0CD00C482FF035FE0246E5
:1019D000099B0093B1230A4902202FF06FFE099B57
:1019E00003E0039B084A1A60002318460BB05DF819
:1019F00004FB00BF98830500784C0020E8810500B7
:101A000044830500844C0020884C002000B58BB036
:101A1000039002915B4903202FF014FE039B002BDF
:101A200001D10E23A9E058482EF0A8FC0990099B8B
:101A3000002B0CD055482FF0FFFD0246099B009368
:101A4000C223534902202FF039FE099B95E02EF066
:101A5000B5FC0990099B002B0ED04C482FF0ECFDF3
:101A60000246099B0093C523494902202FF026FE18
:101A7000099B82E02BF078FD464B1B7883F0010335
:101A8000DBB2002BF6D12EF0DDFD0990099B002B77
:101A90000ED03E482FF0D0FD0246099B0093CD2387
:101AA0003B4902202FF00AFE099B66E02BF05CFD0B
:101AB000394B1B7883F00103DBB2002BF6D102987F
:101AC000FFF738FF0990099B0A2B45D133490320C2
:101AD0002FF0B8FD40F222220399314834F054FB34
:101AE000304B42221A602F4B04938A23ADF81430F6
:101AF0004FF40053ADF8183042F20103ADF81A303C
:101B000004AB07930123ADF82030274B00221A7055
:101B100006AB194625482EF043FD0990099B002B82
:101B20000CD01A482FF088FD0246099B0093EB2346
:101B3000174902202FF0C2FD099B1EE0029B184AA4
:101B40001A6001E02BF010FD174B1B7883F00103A6
:101B5000DBB2002BF6D10FE0099B002B0CD00B4819
:101B60002FF06AFD0246099B0093F62308490220E4
:101B70002FF0A4FD099B00E0002318460BB05DF890
:101B800004FB00BFC883050085170200E88105003B
:101B900044830500AC4E0020AE4E0020F4830500C7
:101BA000884C0020844C0020AD4E0020784C002052
:101BB00000B587B08DED030A0290DDED037AFDEEEE
:101BC000E77ACDED017A9DF804305AB2029B1A7083
:101BD000029B93F9003007EE903AF8EEE77A9DED1C
:101BE000037A77EE677ACDED057ADDED057A9FED24
:101BF0000D7A67EE877AFCEEE77ACDED017A9DF8F3
:101C00000430DAB2029B5A70029B93F900301A46F4
:101C1000029B5B78044904202FF039FD00BF07B018
:101C20005DF804FB0000C8425084050000B583B095
:101C3000034600918DF80730009B9DF807201A702D
:101C40009DF807301A46044904202FF00CFD00BF10
:101C500003B05DF804FB00BF9884050000B587B0B1
:101C60008DED030A0290DDED037AFDEEE77A17EEC3
:101C7000902A029B1A60029B1B6807EE903AF8EECE
:101C8000E77A9DED037A77EE677ACDED057ADDEDA3
:101C9000057A9FED0D7A67EE877AFCEEE77ACDED57
:101CA000017A9DF80430DAB2029B1A71029B1B681C
:101CB0001A46029B1B79054904202FF0E8FC00BF5F
:101CC00007B05DF804FB00BF0000C842E0840500D7
:101CD00000B587B00190019B1B78002B02D0012B2F
:101CE00014D021E0019B5B78012B1AD110F092FBFC
:101CF000F0EE407A03AB1846B0EE670AFFF7AEFF8E
:101D000003AB19460A4822F0D9FC0AE000230593E8
:101D1000059B002B07D1074A942100202BF0A2FA43
:101D200001E000BF00E000BF00BF07B05DF804FBAA
:101D3000B04E00203085050000B58DB003468DF80B
:101D400007309DF80730002B60D112F00DFC8DEDAF
:101D50000B0A12F057FB0346ADF82A3004AB1846C5
:101D60009DED0B0AFFF724FFBDF82A30DBB20DF121
:101D70000F0211461846FFF759FF2B4B1B78002B1B
:101D800014D0BDF82A309DED0B0A184600F05CFA1D
:101D90000990099B0893089B002B04D0234AB1218A
:101DA00008982BF05FFA204B00221A70204B1B780A
:101DB000002B12D004AB19461E4822F03FFC0990BC
:101DC000099B0793079B002B04D0184AB82107985A
:101DD0002BF048FA164B00221A70174B1B78002B79
:101DE0001ED00DF10F031946124822F0A7FC0990EE
:101DF000099B0693069B002B04D00C4ABF21069832
:101E00002BF030FA0C4B00221A7009E000230593E6
:101E1000059B002B04D1054AC52100202BF022FA96
:101E200000BF0DB05DF804FBFA4E002030850500C0
:101E3000F94E0020B04E0020F84E002000B585B0CD
:101E40000190019B002B15D0019B1B88ADF80C3035
:101E5000019B5B88ADF80E30019B1B881A46019BE5
:101E60005B88064904202FF012FC03AB1946044896
:101E700022F0A4FC00BF05B05DF804FB7C850500E2
:101E8000B04E002000B587B0039000200AF042FD5C
:101E9000039B002B27D0039B1B881946039B5B8861
:101EA0001846039B9B881A46039BDB88019300928C
:101EB00003460A460E4904202FF019FC039B1B8899
:101EC000ADF81030039B5B88ADF81230039B9B8804
:101ED000ADF81430039BDB88ADF8163004AB19461F
:101EE000044822F0ABFC00BF07B05DF804FB00BF64
:101EF000C0850500B04E002000B585B001900A4BAA
:101F000001221A7012F0CEFB0390039B0293029BF6
:101F1000002B05D0054A4FF4847102982BF0A2F9EA
:101F200000BF05B05DF804FBF94E002030850500C8
:101F3000F0B585B0334B01221A70334B01221A7071
:101F400012F09AF90390039B002B0DD02F482FF02D
:101F500073FB0246039B00934FF48B732C490220C2
:101F60002FF0ACFB039B49E012F09CFB0390039B1A
:101F7000002B0DD025482FF05FFB0246039B0093FA
:101F800040F21913224902202FF098FB039B35E001
:101F9000204F214B1B681B889BB299B24FF0000267
:101FA0004FF000034FF00004D40344EA5144CB0344
:101FB00013F5FA7544F100064FF47A724FF00003FE
:101FC0002846314633F0A4FC03460C46002219464D
:101FD00038462CF013F90390039B002B0DD00B48CF
:101FE0002FF02AFB0246039B00934FF48F7308499E
:101FF00002202FF063FB039B00E00023184605B08E
:10200000F0BD00BFF94E0020FD4E002030850500D8
:102010000C860500004F0020F04E002000B587B070
:1020200003468DF80F30194B00221A70184B1846D2
:102030002CF016F90590059B002B0DD015482FF0BC
:10204000FBFA0246059B00934FF496731249022057
:102050002FF034FB059B14E09DF80F30002B0FD0C0
:102060000E4B00221A700E4B1B7883F00103DBB27B
:10207000002B03D012F06AF9034602E0002300E0CF
:102080000023184607B05DF804FB00BFF94E00209E
:10209000004F0020308505000C860500FD4E002015
:1020A000FC4E002000B585B0019010F003FA0390BB
:1020B000039B0293029B002B05D0054A40F24B1173
:1020C00002982BF0CFF800BF05B05DF804FB00BF0D
:1020D00030850500F0B585B010F08CF80390039BB7
:1020E0000293029B002B05D01D4A4FF4AB7102985E
:1020F0002BF0B8F810F0DEF90390039B0193019BDD
:10210000002B05D0164A40F2591101982BF0AAF87D
:10211000144F154B1B685B889BB299B24FF00002BD
:102120004FF000034FF00004D40344EA5144CB03C2
:1021300013F5FA7544F100064FF47A724FF000037C
:102140002846314633F0E4FB03460C46002219468C
:1021500038462CF053F80346184605B0F0BD00BFD2
:1021600030850500204F0020F04E002000B585B0DE
:102170000E4B18462CF074F80390039B002B0DD0E7
:102180000B482FF059FA0246039B009340F2691363
:10219000084902202FF092FA039B02E010F0E0F8C9
:1021A0000346184605B05DF804FB00BF204F002031
:1021B000308505000C86050000B587B0019000232E
:1021C000ADF80A301C4B1B78012B31D10DF10A03FD
:1021D000184600F07BF90590059B0493049B002BA7
:1021E00005D0164A4FF4BD7104982BF03BF8BDF8AA
:1021F0000A30002B04D1124902202FF023FA10E0FC
:10220000BDF80A3018460BF0C1FF0590059B0393FB
:10221000039B002B05D0094A40F2831103982BF051
:1022200021F8054B02221A70064B18462CF018F8BC
:1022300000BF07B05DF804FBFB4E002030850500B1
:1022400060860500804F002000B589B003468DED03
:10225000020AADF80E301E4B1B78002B33D0BDF8B0
:102260000E301A46920013445B00ADF81E30DDEDCF
:10227000027A9FED187A67EE877AFDEEE77A17EE1D
:10228000903A0693BDF81E20069B134904202FF0B8
:10229000FEF9BDF81E30069918460BF097FE059022
:1022A000059B002B0DD00D482FF0C6F90246059B6B
:1022B00000934FF4D3730A4902202FF0FFF9059BD6
:1022C00002E0002300E00023184609B05DF804FB9B
:1022D000FC4E002000007A44C886050030850500C9
:1022E0000C86050000B585B0114B00221A70114B09
:1022F0001B78002B13D112F029F80390039B002BBD
:102300000DD00D482FF098F90246039B00934FF42F
:10231000E1730A4902202FF0D1F9039B04E0084B36
:1023200018462BF09DFF0346184605B05DF804FBE8
:10233000FC4E0020FD4E0020308505000C86050077
:10234000804F002000B585B001900A4B01221A7021
:1023500012F0A8F90390039B0293029B002B05D077
:10236000054A4FF4EA7102982AF07CFF00BF05B0DD
:102370005DF804FBF84E002030850500F0B585B00F
:102380002A4B01221A702A4B01221A7011F074FF95
:102390000390039B002B0DD026482FF04DF90246E9
:1023A000039B009340F2E113234902202FF086F9AA
:1023B000039B37E012F076F90390039B002B0DD0BE
:1023C0001C482FF039F90246039B00934FF4F27337
:1023D000194902202FF072F9039B23E0174F184B85
:1023E0001B689B889BB299B24FF000024FF000032C
:1023F0004FF00004D40344EA5144CB0313F5FA75BB
:1024000044F100064FF47A724FF00003284631463B
:1024100033F07EFA03460C460022194638462BF06C
:10242000EDFE0346184605B0F0BD00BFF84E002093
:10243000FD4E0020308505000C860500404F002031
:10244000F04E002000B587B003468DF80F30194BD1
:1024500000221A70184B18462BF002FF0590059BBE
:10246000002B0DD015482FF0E7F80246059B00938E
:1024700040F2F513124902202FF020F9059B14E0D9
:102480009DF80F30002B0FD00E4B00221A700E4B10
:102490001B7883F00103DBB2002B03D011F056FF51
:1024A000034602E0002300E00023184607B05DF871
:1024B00004FB00BFF84E0020404F0020308505008F
:1024C0000C860500FD4E0020FC4E002000B583B0B8
:1024D0000190284B1B681B7A032B43D801A252F8AA
:1024E00023F000BFF5240200112502002D25020073
:1024F00049250200204B1B681B889AB2019B1A8059
:10250000019B1B881A461D4904202FF0ACF82BE0D4
:10251000194B1B685B889AB2019B1A80019B1B8830
:102520001A46174904202FF09EF81DE0124B1B6835
:102530009B889AB2019B1A80019B1B881A461149FD
:1025400004202FF090F80FE00B4B1B68DB889AB249
:10255000019B1A80019B1B881A460B4904202FF00F
:1025600082F801E0082300E00023184603B05DF87C
:1025700004FB00BFF04E0020F44E00202887050029
:1025800090870500F48705005888050000B587B0DE
:102590000346ADF80E30314B1B681B7A032B3FD836
:1025A00001A252F823F000BFB9250200D325020092
:1025B000ED25020007260200294B1B68BDF80E20FE
:1025C0001A80BDF80E301A46264904202FF04BF829
:1025D00028E0234B1B68BDF80E205A80BDF80E3052
:1025E0001A46214904202FF03EF81BE01C4B1B68C3
:1025F000BDF80E209A80BDF80E301A461B49042003
:102600002FF031F80EE0164B1B68BDF80E20DA8073
:10261000BDF80E301A46164904202FF024F801E0C8
:10262000082317E00E4B1B68184600F0DDFF0590ED
:10263000059B002B0DD00F482EF0FEFF0246059B98
:10264000009340F24E230C4902202FF037F8059BEF
:1026500000E00023184607B05DF804FBF04E0020B0
:10266000F44E0020BC880500208905008089050003
:10267000E4890500308505000C86050000B585B0AD
:10268000284B1B681B7A1A46274904202EF0EBFFC3
:10269000244B1B681B7A032B1AD801A252F823F093
:1026A000B1260200B9260200C1260200C926020096
:1026B00000238DF80F300FE001238DF80F300BE071
:1026C00002238DF80F3007E003238DF80F3003E06D
:1026D00002238DF80F3000BF9DF80F3018460BF025
:1026E000CBFD0290029B002B0DD010482EF0A4FFD2
:1026F0000246029B009340F26F230D4902202EF008
:10270000DDFF029B0AE00B4B01221A700A4B0022EC
:102710004FF0617118462BF071FD0346184605B065
:102720005DF804FBF04E0020488A05003085050066
:102730000C860500FB4E0020804F002000B585B0C0
:10274000274B1B78022B41D1FFF7CCFD0390039B55
:10275000002B0DD023482EF06FFF0246039B009301
:1027600040F28123204902202EF0A8FF039B33E092
:102770000DF10A0318460BF097FC0390039B002B06
:102780000DD018482EF058FF0246039B00934FF4DB
:102790002173154902202EF091FF039B1CE0BDF828
:1027A0000A301846FFF7F2FE0390039B002B0DD072
:1027B0000C482EF041FF0246039B009340F2872312
:1027C000094902202EF07AFF039B05E0044B00220A
:1027D0001A700BF0F9FE0346184605B05DF804FBCD
:1027E000FB4E0020308505000C86050000B587B043
:1027F0000190134B1B685B7A8DF80C30104B1B68F3
:102800009B7A8DF80D300E4B1B68DB7A8DF80E30FD
:1028100003AB194600200AF0CFF80CF0F1FD05904B
:10282000059B0493049B002B05D0064A40F29F2190
:1028300004982AF017FD00BF07B05DF804FB00BF45
:10284000F04E002030850500F0B585B02B4B1B689D
:102850005B7A8DF80030294B1B689B7A8DF801302C
:10286000264B1B68DB7A8DF802306B461946002038
:102870000AF0A2F80CF026FE0390039B0293029B41
:10288000002B05D01E4A40F2AF2102982AF0EAFC44
:102890000CF0B6FD0390039B0193019B002B05D028
:1028A000174A40F2B22101982AF0DCFC154F134B75
:1028B0001B68DB889BB299B24FF000024FF0000317
:1028C0004FF00004D40344EA5144CB0313F5FA75E6
:1028D00044F100064FF47A724FF000032846314667
:1028E00033F016F803460C460022194638462BF002
:1028F00085FC0346184605B0F0BD00BFF04E002031
:1029000030850500604F002000B585B0124B184699
:102910002BF0A6FC0390039B0293029B002B05D097
:102920000E4A40F2BF2102982AF09CFC002009F0D8
:10293000F1FF0CF09DFE0390039B0193019B002B84
:1029400005D0064A4FF4317101982AF08BFC002320
:10295000184605B05DF804FB604F00203085050087
:1029600000B585B00190019B1B889BB2632B32D9C7
:10297000019B1B889BB24EF6602293422BD8019B91
:102980005B889BB2312B26D9019B5B889BB24EF6AC
:10299000602293421FD8019B9B889BB2632B1AD95C
:1029A000019B9B889BB24EF66022934213D8019BF9
:1029B000DB889BB2C72B0ED9019BDB889BB24EF6FE
:1029C0006022934207D8019B1B7A002B03D0019B06
:1029D0001B7A032B0ED90A4800F04EFD0390039B8F
:1029E0000293029B002B05D0064A40F2DA2102989E
:1029F0002AF038FC0023184605B05DF804FB00BF40
:102A0000288405003085050000B589B00190019B40
:102A1000002B01D10E236AE00020FFF7FFFAFFF739
:102A2000A5FB0120FFF70EFDFFF76EFF019B1B8842
:102A30009BB2002B12D0304B93F83630002B0DD0C8
:102A4000FFF776FA0790079B0693069B002B05D0AD
:102A50002A4A40F2F32106982AF004FC019B5B8885
:102A60009BB2002B12D0244B93F83730002B0DD0A3
:102A7000FFF730FB0790079B0593059B002B05D0C4
:102A80001E4A40F2FA2105982AF0ECFB019B9B8834
:102A90009BB2002B12D0184B93F83830002B0DD07E
:102AA000FFF76CFC0790079B0493049B002B05D059
:102AB000124A40F2013104982AF0D4FB019BDB88D2
:102AC0009BB2002B12D00C4B93F83A30002B0DD058
:102AD000FFF7BAFE0790079B0393039B002B05D0DB
:102AE000064A4FF4427103982AF0BCFB00231846B3
:102AF00009B05DF804FB00BFB04E00203085050032
:102B000000B593B0039001921A460B468DF80B3036
:102B10001346ADF808309DF80B30052B00F24281CA
:102B200001A252F823F000BF412B0200B92B020092
:102B3000132C02008B2C0200E12C0200372D020026
:102B4000039B93F836301A469F4904202EF08BFDE4
:102B5000039B93F83630002B0FD0FFF7E9F9119063
:102B6000119B1093109B002B00F01E81974A40F29E
:102B7000273110982AF076FB16E1039B93F8383042
:102B8000002B14BF01230023DBB283F00103DBB26F
:102B900003F00103DBB21846FFF740FA1190119BD6
:102BA0000F930F9B002B00F0FF80884A4FF44B716E
:102BB0000F982AF057FBF7E0039B93F837301A463B
:102BC000834904202EF04FFD039B93F83730002BF0
:102BD0000FD0FFF77FFA1190119B0E930E9B002BE5
:102BE00000F0E480794A40F235310E982AF03AFB41
:102BF000DCE0FFF7BBFA1190119B0D930D9B002BAE
:102C000000F0D480714A40F23A310D982AF02AFB44
:102C1000CCE0039B93F838301A466E4904202EF01E
:102C200022FD039B93F83830002B0FD0FFF7A6FB53
:102C30001190119B0C930C9B002B00F0B980634A00
:102C400040F243310C982AF00DFBB1E0039B93F85E
:102C50003630002B14BF01230023DBB283F00103C5
:102C6000DBB203F00103DBB21846FFF7EBFB119078
:102C7000119B0B930B9B002B00F09A80534A4FF44F
:102C800052710B982AF0EEFA92E0039B93F83930D8
:102C90001A46514904202EF0E6FC039B93F8393084
:102CA000002B0ED0FFF7EAFC1190119B0A930A9BB0
:102CB000002B7FD0454A40F251310A982AF0D2FACF
:102CC00078E0FFF73BFD1190119B0993099B002BC6
:102CD00070D03E4A40F2563109982AF0C3FA69E0B2
:102CE000039B93F83A301A463C4904202EF0BBFC73
:102CF000039B93F83A30002B0ED0FFF7A5FD1190FF
:102D0000119B0893089B002B56D0304A40F25F314C
:102D100008982AF0A7FA4FE0FFF7F6FD1190119BF3
:102D20000793079B002B47D0284A4FF45971079807
:102D30002AF098FA40E0BDF808301A4628490420E5
:102D40002EF091FCBDF808300C2B0CBF01230023A2
:102D5000DBB20693069B002B05D11C4A40F26B3177
:102D600000202AF07FFA019800F086FB1190119B59
:102D70000593059B002B05D0144A40F26E3105984F
:102D80002AF070FA0198FFF73FFE1190119B04930F
:102D9000049B002B12D00D4A40F2713104982AF0A6
:102DA00061FA0BE000BF0AE000BF08E000BF06E0E8
:102DB00000BF04E000BF02E000BF00E000BF00BFB2
:102DC00013B05DF804FB00BF7C8A05003085050068
:102DD000CC8A0500188B0500648B0500AC8B0500C0
:102DE000F48B050000B597B003468DF80F30002333
:102DF0008DF8483000238DF84930002310930023CC
:102E00008DF8443000238DF83F300DAB00221A605E
:102E10005A600023ADF830300023ADF83230464B15
:102E2000464A4749474800F097FC1590159B002BF0
:102E30000DD045482EF000FC0246159B009340F251
:102E40008E33424902202EF039FC159B6FE09DF82D
:102E50000F30002B1DD03B4800F00EFB1590159B4A
:102E60001493149B002B05D0374A40F293311498E9
:102E70002AF0F8F9314800F0B7FB1590159B139331
:102E8000139B002B05D0304A40F2963113982AF05C
:102E9000E9F92B4B1B681846FFF762FD1590159B4F
:102EA000002B0DD028482EF0C7FB0246159B00933F
:102EB00040F29A33254902202EF000FC159B36E0A3
:102EC00005AB1C220021184633F087F912AB05939D
:102ED00010AB06930DF13F0307930DAB09930CABB9
:102EE0000893174B1B680A93194B0B93194903203E
:102EF0002EF0A8FB05AB1946174821F015FB1590DD
:102F0000159B002B0DD010482EF096FB0246159B0A
:102F100000934FF46A730D4902202EF0CFFB159BEE
:102F200005E0074B1B681846FFF76EFD00231846A7
:102F300017B05DF804FB00BFF44E00203484050098
:102F4000F04E002028840500308505000C86050021
:102F5000012B0200408C0500B04E002000B585B06A
:102F6000019001990C4821F0AEFA019B1B88112BAE
:102F70000DD100F0B1F80390039B0293029B002B4C
:102F800005D0064A40F2BE3102982AF06BF900BF24
:102F900005B05DF804FB00BFB04E00203085050091
:102FA00000B589B00190002307935F238DF80830A6
:102FB00018230393019B0493064B0593064B06933A
:102FC00002AB184611F068F80790079B184609B045
:102FD0005DF804FB948C0500391D020000B589B032
:102FE00001905C238DF8083017230393019B049311
:102FF000074B0593074B069301238DF81C3002AB5A
:1030000018460FF05FF80346184609B05DF804FB58
:10301000A48C0500D11C020000B58BB00390039B6B
:103020000593114B06935A238DF81C300F4B0893D0
:1030300005AB18460BF0CCFB0990099B002B0DD07B
:103040000B482EF0F9FA0246099B009340F20A431E
:10305000084902202EF032FB099B00E000231846AD
:103060000BB05DF804FB00BFB48C05003D1E0200F0
:10307000308505000C86050000B58BB00390039BDE
:103080000593114B069338238DF81C300F4B089392
:1030900005AB18460CF01AF90990099B002B0DD0CE
:1030A0000B482EF0C9FA0246099B009340F22343D5
:1030B000084902202EF002FB099B00E0002318467D
:1030C0000BB05DF804FB00BFC48C0500851E020038
:1030D000308505000C86050000B587B00020FEF79E
:1030E0009DFF0590059B0493049B002B05D0224A6D
:1030F00040F2344104982AF0B5F8FFF737F805900C
:10310000059B0393039B002B05D01B4A40F23741DC
:1031100003982AF0A7F80120FFF794F90590059B82
:103120000293029B002B05D0134A40F23A410298C9
:103130002AF098F8FFF7E8FB0590059B0193019BA7
:10314000002B05D00C4A40F23D4101982AF08AF844
:10315000FFF7F4FA0590059B0093009B002B05D028
:10316000054A4FF4886100982AF07CF8002318463D
:1031700007B05DF804FB00BF3085050000B58DB0D9
:1031800003900291039B002B01D10E23BAE0029B16
:10319000002B01D10E23B5E05C4903202EF052FA3A
:1031A000039B5B4A5A60039B5A4A1A60029B1B6846
:1031B0001846FFF713FF0B900B9B0A930A9B002BFB
:1031C00005D0554A40F254410A982AF04BF8029B28
:1031D0001B681846FFF7E4FE0B900B9B0993099BB5
:1031E000002B05D04C4A40F2574109982AF03AF892
:1031F000029B1B681846FFF70FFF0B900B9B089371
:10320000089B002B05D0444A40F25A4108982AF006
:1032100029F8029B1B681846FFF72EFF0B900B9BAB
:103220000793079B002B05D03B4A40F25D4107986E
:103230002AF018F8394A012139482AF0AFFF0B90DB
:103240000B9B0693069B002B05D0334A40F261414D
:1032500006982AF007F8334A012133482AF09EFFE6
:103260000B900B9B0593059B002B05D02A4A40F23F
:103270006441059829F0F6FF2C4A01212C482AF0D8
:103280008DFF0B900B9B002B0DD023482EF0D4F913
:1032900002460B9B009340F26743264902202EF022
:1032A0000DFA0B9B2EE0244A012124482AF076FFD8
:1032B0000B900B9B002B0DD017482EF0BDF902464A
:1032C0000B9B009340F26A431A4902202EF0F6F954
:1032D0000B9B17E01A4A01211A482AF05FFF0B9056
:1032E0000B9B002B0DD00C482EF0A6F902460B9B31
:1032F000009340F26D430F4902202EF0DFF90B9B43
:1033000000E0002318460DB05DF804FB708C05004A
:103310005D2F0200E52D020030850500F91E020038
:103320003C840500A52002004084050045230200DE
:10333000448405000C860500ED2702004884050042
:10334000B92102004C84050000B589B00390039BAD
:103350001B78002B02D0012B1AD05BE0039B5B682B
:10336000002B06D13A4B01221A703A4B01221A70F7
:1033700065E0394901202EF065F900230793079B8A
:10338000002B5CD1354A7221002029F06BFF56E0FA
:10339000039B5B68002B2ED1039B9B8941F20102AA
:1033A000934210D1039B1B7C1A46039B9B891946B1
:1033B000039BDB8900930B46294903202EF07EF9FD
:1033C000284B01221A70039B9B8941F2030293420E
:1033D00037D1039B1B7C1A46039B9B891946039B91
:1033E000DB8900930B46204903202EF067F91F4B21
:1033F00001221A7025E01E4901202EF023F9002336
:103400000693069B002B1CD1144A8C21002029F026
:1034100029FF16E0039B1B781A46039B5B6815493E
:1034200003202EF034F9039B5B680593059B002B6A
:1034300009D00A4A9121059829F014FF03E000BF42
:1034400002E000BF00E000BF00BF09B05DF804FB70
:10345000D54F0020D74F0020D48C0500048D0500E7
:10346000548D0500D44F0020A48D0500D64F0020B8
:10347000F88D0500288E050000B58BB003901F491C
:1034800003202EF0DFF8039B002B01D10E2330E048
:103490000C2203991A4832F077FE1A4B42221A6026
:1034A000184B04930423ADF8143041F20103ADF836
:1034B000183041F20203ADF81A3004AB0793012330
:1034C000ADF8203006AB19460F482DF078F809907A
:1034D000099B002B0CD00D482EF0AEF80246099B3C
:1034E0000093AE230A4902202EF0E8F8099B00E081
:1034F000002318460BB05DF804FB00BF588E050092
:10350000BC4F0020B84F0020A04F0020048D0500C4
:10351000888E050000B58BB0039005AB0822002112
:10352000184632F05AFE2A4903202EF08BF805ABDC
:10353000284A41F2020141F201002DF0AFF8099052
:10354000099B002B0CD024482EF076F80246099BEC
:103550000093BF23214902202EF0B0F8099B33E0ED
:1035600007AB19461B482CF09FFF0990099B002BC5
:103570000CD019482EF060F80246099B0093C22334
:10358000164902202EF09AF8099B1DE0089B102294
:103590001946134832F0F8FD0E482CF0C1FF09908F
:1035A000099B002B0CD00C482EF046F80246099BD4
:1035B0000093C723094902202EF080F8099B03E0FD
:1035C000039B084A1A60002318460BB05DF804FB01
:1035D000DC8E0500A04F0020048D0500888E0500BC
:1035E000B84F0020BC4F002000B58BB003901F499E
:1035F00004202EF027F8039B002B01D10E2330E08E
:10360000082203991A4832F0BFFD1A4B42221A6071
:10361000184B04930323ADF8143041F20303ADF8C3
:10362000183041F20403ADF81A3004AB07930123BC
:10363000ADF8203006AB19460F482CF0C0FF0990BA
:10364000099B002B0CD00D482DF0F6FF0246099B7C
:103650000093E6230A4902202EF030F8099B00E08F
:10366000002318460BB05DF804FB00BF0C8F05006B
:10367000CC4F0020C84F0020AC4F0020048D050027
:10368000888E050000B58BB0039005AB08220021A1
:10369000184632F0A2FD2A4904202DF0D3FF05ABD5
:1036A000284A41F2040141F203002CF0F7FF09908F
:1036B000099B002B0CD024482DF0BEFF0246099B2D
:1036C0000093F723214902202DF0F8FF099B33E0F6
:1036D00007AB19461B482CF0E7FE0990099B002B0D
:1036E0000CD019482DF0A8FF0246099B0093FA233D
:1036F000164902202DF0E2FF099B1DE0089B0C22D9
:103700001946134832F040FD0E482CF009FF09908D
:10371000099B002B0CD00C482DF08EFF0246099B14
:103720000093FF23094902202DF0C8FF099B03E005
:10373000039B084A1A60002318460BB05DF804FB8F
:103740003C8F0500AC4F0020048D0500888E0500DD
:10375000C84F0020CC4F002000B593B005900491D5
:10376000039202938D4903202DF06CFF059B002BE3
:1037700001D10E230DE1039B002B01D10E2308E1A3
:1037800087482CF0FBFD1190119B002B0DD0854834
:103790002DF052FF0246119B00934FF48A73824929
:1037A00002202DF08BFF119BF3E02CF007FE11900F
:1037B000119B002B0FD07B482DF03EFF0246119B42
:1037C000009340F21713784902202DF077FF119BE8
:1037D000DFE029F0C9FE754B1B7883F00103DBB2F3
:1037E000002BF6D1724B1B7883F00103DBB2002B68
:1037F000EFD10498FFF78EFE1190119B0A2B45D153
:103800006C4903202DF01EFF0C2205996A4832F006
:10381000BBFC6A4B42221A60684B0C930423ADF840
:10382000343041F20103ADF8383041F20203ADF813
:103830003A300CAB0F930123ADF84030604B0022BF
:103840001A700EAB19465F482CF0AAFE1190119B1E
:10385000002B0DD053482DF0EFFE0246119B009334
:1038600040F23513504902202DF028FF119B90E0C3
:10387000049B514A1A6001E029F076FE504B1B78F8
:1038800083F00103DBB2002BF6D110E0119B002B7B
:103890000DD044482DF0D0FE0246119B00934FF40A
:1038A000A073414902202DF009FF119B71E002989D
:1038B000FFF7E8FE1190119B0A2B58D1039B1B8840
:1038C0009BB21946039B5B889BB21846039B9B885F
:1038D0009BB21A46039BDB889BB20193009203467E
:1038E0000A46394903202DF002FF08220399374880
:1038F00032F04AFC364B42221A60354B07930323C1
:10390000ADF8203041F20303ADF8243041F2040356
:10391000ADF8263007AB0A930123ADF82C302D4BC0
:1039200000221A7009AB19462B482CF039FE119071
:10393000119B002B0DD01B482DF07EFE0246119BE3
:1039400000934FF4AD73184902202DF0B7FE119B80
:103950001FE0029B1D4A1A6001E029F005FE1D4B85
:103960001B7883F00103DBB2002BF6D110E0119B32
:10397000002B0DD00B482DF05FFE0246119B0093EB
:1039800040F26513084902202DF098FE119B00E0DB
:103990000023184613B05DF804FB00BF688F0500D4
:1039A00049330200048D0500888E0500D54F0020A4
:1039B000D74F0020948F0500BC4F0020B84F002047
:1039C000D44F0020A04F0020C88F0500CC4F00200E
:1039D000C84F0020D64F0020AC4F002000B589B062
:1039E0000190019B002B01D10E2327E0019B1B8836
:1039F0009BB2ADF80C30019B5B889BB2ADF80E30EA
:103A0000019B9B889BB2ADF81030019BDB889BB279
:103A1000ADF81230019B1B7A8DF8143003AB1846B9
:103A20000DF0A0FE0790079B0693069B002B04D089
:103A3000044A4C21069829F015FC0023184609B0C9
:103A40005DF804FB3090050000B59BB00390019237
:103A50001A460B468DF80B301346ADF808309DF82A
:103A60000B300B2B00F2138201A252F823F000BF9F
:103A7000273E0200A13A0200FF3A02005D3B02002D
:103A8000B73B0200153C02006F3C0200C93C02003B
:103A9000233D0200A13D0200F73D0200093E020065
:103AA000039B93F866301A46B44903202DF0DBFDE2
:103AB000039B93F86630002B10D04FF480700DF00C
:103AC000A1FC1990199B1893189B002B00F0E18121
:103AD000AB4A6021189829F0C5FBDAE14FF48070F9
:103AE0000DF0B8FD1990199B1793179B002B00F050
:103AF000D081A34A6521179829F0B4FBC9E1039B43
:103B000093F867301A469F4903202DF0ACFD039BC4
:103B100093F86730002B10D04FF400700DF072FC5A
:103B20001990199B1693169B002B00F0B481944AB0
:103B30006E21169829F096FBADE14FF400700DF060
:103B400089FD1990199B1593159B002B00F0A381FB
:103B50008B4A7321159829F085FB9CE1039B93F810
:103B600068301A46884903202DF07DFD039B93F8A9
:103B70006830002B0FD008200DF044FC1990199BE1
:103B80001493149B002B00F088817D4A7C211498AB
:103B900029F068FB81E108200DF05CFD1990199B6C
:103BA0001393139B002B00F07881754A81211398A1
:103BB00029F058FB71E1039B93F869301A46734969
:103BC00003202DF050FD039B93F86930002B10D09B
:103BD0004FF480600DF016FC1990199B1293129B04
:103BE000002B00F05C81664A8A21129829F03AFB8A
:103BF00055E14FF480600DF02DFD1990199B119344
:103C0000119B002B00F04B815D4A8F21119829F008
:103C100029FB44E1039B93F86A301A465C49032070
:103C20002DF021FD039B93F86A30002B0FD0072065
:103C30000DF0E8FB1990199B1093109B002B00F0DE
:103C400030814F4A9821109829F00CFB29E1072078
:103C50000DF000FD1990199B0F930F9B002B00F0A6
:103C60002081474A9D210F9829F0FCFA19E1039B16
:103C700093F86B301A46474903202DF0F4FC039B60
:103C800093F86B30002B0FD010200DF0BBFB199078
:103C9000199B0E930E9B002B00F00581384AA6213C
:103CA0000E9829F0DFFAFEE010200DF0D3FC1990F9
:103CB000199B0D930D9B002B00F0F580304AAB2132
:103CC0000D9829F0CFFAEEE0039B93F86C301A467A
:103CD000314903202DF0C7FC039B93F86C30002B77
:103CE0000FD020200DF08EFB1990199B0C930C9B8C
:103CF000002B00F0DA80224AB4210C9829F0B2FAA5
:103D0000D3E020200DF0A6FC1990199B0B930B9B80
:103D1000002B00F0CA801A4AB9210B9829F0A2FAA8
:103D2000C3E0039B93F86D301A461C4903202DF025
:103D30009AFC039B93F86D30002B0FD040200DF0C0
:103D400061FB1990199B0A930A9B002B00F0AF802E
:103D50000B4AC2210A9829F085FAA8E040200DF00C
:103D600079FC1990199B0993099B002B00F09F8007
:103D7000034AC721099829F075FA98E07890050060
:103D800030900500C490050018910500649105006D
:103D9000B4910500009205004C9205009C9205002C
:103DA000039B93F86E301A46454903202DF05BFCC7
:103DB000039B93F86E30002B0ED080200DF022FB79
:103DC0001990199B0893089B002B72D03D4AD02173
:103DD000089829F047FA6CE080200DF03BFC199020
:103DE000199B0793079B002B63D0364AD521079870
:103DF00029F038FA5DE0039B93F86F301A46324998
:103E000003202DF030FC57E0BDF80830039A0199EB
:103E1000184603F0B9FEBDF808301A460021019893
:103E200032F0DBF948E0BDF808301A462749032094
:103E30002DF019FCBDF80830092B0CBF012300231D
:103E4000DBB20693069B002B04D11E4AF021002012
:103E500029F008FA019800F031FF1990199B059399
:103E6000059B002B04D0174AF321059829F0FAF995
:103E70000198FFF7B3FD1990199B0493049B002B45
:103E800019D0104AF621049829F0ECF913E000BF8C
:103E900012E000BF10E000BF0EE000BF0CE000BF6A
:103EA0000AE000BF08E000BF06E000BF04E000BF7A
:103EB00002E000BF00E000BF00BF1BB05DF804FBE4
:103EC000EC920500309005003C9305008C930500B2
:103ED00000B589B003468DF80F303249324800F002
:103EE000A5FF0790079B002B0DD030482DF0A4FBB9
:103EF0000246079B009340F20D132D4902202DF03E
:103F0000DDFB079B49E09DF80F30002B0ED02648C3
:103F100000F0D4FE0790079B0693069B002B05D06C
:103F2000224A4FF48971069829F09CF91D4B1B68B1
:103F30001846FFF753FD0790079B002B0DD01B4839
:103F40002DF07AFB0246079B00934FF48B731849C0
:103F500002202DF0B3FB079B1FE004AB08220021D9
:103F6000184632F03AF90F4B1B680493114B059336
:103F7000114903202DF066FB04AB19460F4823F0CE
:103F8000C1FA0790079B002B06D0079A0C49012025
:103F90002DF069FB079B00E00023184609B05DF88F
:103FA00004FB00BF54500020249005003090050011
:103FB000DC930500493A020030940500D84F0020F8
:103FC0007094050000B585B0019001990D4823F06B
:103FD00069FA019B1B88112B0FD140F6FF700DF081
:103FE00039FB0390039B0293029B002B05D0064AEA
:103FF00040F23711029829F035F900BF05B05DF89D
:1040000004FB00BFD84F0020309005002DE9F04799
:10401000BAB002AFF860B9607A60FB681B78082B11
:1040200000F2718501A252F823F000BF5140020056
:10403000054502005D450200E745020073480200A5
:10404000C3480200EF490200454A0200B54A020097
:104050007B68242B0CBF01230023DBB2C7F8D830C8
:10406000D7F8D830002B05D11F4A4FF4A17100209A
:1040700029F0F8F8BB68C7F8D430002387F8DD30A2
:1040800064E097F8DD309B00D7F8D42013441B6818
:104090001B14A7F8D23097F8DD30144A32F91330E8
:1040A000B7F9D2209A4225DB97F8DD10B7F9D20094
:1040B00097F8DD300D4A32F91330009303460A4673
:1040C0000B4902202DF0FAFA97F8DD30074A32F951
:1040D0001330194697F8DD309B00D7F8D4201344ED
:1040E0000A041A602DE000BF30900500A499050075
:1040F0009C94050097F8DD30C54A32F91330B7F9C2
:10410000D2209A421DDA97F8DD10B7F9D20097F85D
:10411000DD30BF4A32F91330009303460A46BD49E9
:1041200002202DF0CBFA97F8DD30B94A32F913307E
:10413000194697F8DD309B00D7F8D42013440A04C1
:104140001A6097F8DD30013387F8DD3097F8DD30FD
:10415000082B96D9D7F8D4301B689B111BB2A7F84F
:104160006430D7F8D43004331B689B111BB2A7F816
:104170006630D7F8D43008331B689B111BB2A7F800
:104180006830D7F8D4300C331B68DB121BB2A7F8A9
:104190006A30D7F8D43010331B68DB121BB2A7F893
:1041A0006C30D7F8D43014331B68DB121BB2A7F87D
:1041B0006E30D7F8D43018331B681B139BB25B42A8
:1041C0009BB21BB2A7F87230D7F8D4301C331B68EF
:1041D0001B131BB2A7F87030D7F8D43020331B68FC
:1041E0001B131BB2A7F874308B4904202DF02AFA58
:1041F000D7F8D4301B6818462FF09AF903460C46BE
:10420000C7E932344FF00002844BD7E932012FF076
:104210001FFD03460C46C7E9323407F15C00D7E9BD
:1042200032237F4931F0E4FD07F15C0318462DF09D
:1042300003FA03461A467B4904202DF014FAD7F8F6
:10424000D43004331B6818462FF072F903460C462D
:10425000C7E932344FF00002704BD7E932012FF03A
:10426000F7FC03460C46C7E9323407F15C00D7E996
:1042700032236B4931F0BCFD07F15C0318462DF089
:10428000DBF903461A46684904202DF0ECF9D7F80B
:10429000D43008331B6818462FF04AF903460C4601
:1042A000C7E932344FF000025C4BD7E932012FF0FE
:1042B000CFFC03460C46C7E9323407F15C00D7E96E
:1042C0003223574931F094FD07F15C0318462DF075
:1042D000B3F903461A46554904202DF0C4F9D7F81E
:1042E000D4300C331B6818462FF022F903460C46D5
:1042F000C7E932344FF00002484BD7E932012FF0C2
:10430000A7FC03460C46C7E9323407F15C00D7E945
:104310003223434931F06CFD07F15C0318462DF060
:104320008BF903461A46424904202DF09CF9D7F830
:10433000D43010331B6818462FF0FAF803460C46A9
:10434000C7E932344FF00002344BD7E932012FF085
:104350007FFC03460C46C7E9323407F15C00D7E91D
:1043600032232F4931F044FD07F15C0318462DF04C
:1043700063F903461A462F4904202DF074F9D7F843
:10438000D43014331B6818462FF0D2F803460C467D
:10439000C7E932344FF00002204BD7E932012FF049
:1043A00057FC03460C46C7E9323407F15C00D7E9F5
:1043B00032231B4931F01CFD07F15C0318462DF038
:1043C0003BF903461A461C4904202DF04CF9D7F856
:1043D000D4301C331B6818462FF0AAF803460C464D
:1043E000C7E932344FF000020C4BD7E932012FF00D
:1043F0002FFC03460C46C7E9323407F15C00D7E9CD
:104400003223074931F0F4FC07F15C03184615E04C
:10441000B8990500E8940500349505000000F040C7
:10442000649505006C9505009C950500CC950500EC
:10443000FC95050030960500649605002DF0FCF80B
:1044400003461A46BC4904202DF00DF9D7F8D430A4
:1044500018331B6818462FF06BF803460C461A46B3
:10446000C7F8C82084F00043C7F8CC304FF00002F2
:10447000B24BD7E932012FF0EBFB03460C46C7E9FC
:10448000323407F15C00D7E93223AD4931F0B0FC9A
:1044900007F15C0318462DF0CFF803461A46A949E8
:1044A00004202DF0E0F8D7F8D43020331B681846EC
:1044B0002FF03EF803460C46C7E932344FF00002B5
:1044C0009E4BD7E932012FF0C3FB03460C46C7E9E8
:1044D000323407F15C00D7E93223994931F088FC86
:1044E00007F15C0318462DF0A7F803461A469649D3
:1044F00004202DF0B8F807F164031946934823F01F
:10450000EDF905E37B68102B0CBF01230023DBB220
:10451000C7F8C430D7F8C430002B05D18C4A40F21C
:10452000BF11002028F09EFEBB68C7F8C030D7F846
:10453000C0301B68FB64D7F8C0305B683B65D7F8B8
:10454000C0309B687B65D7F8C030DB68BB6507F17E
:104550004C0319467D4823F03BF9D9E27B680C2BCC
:104560000CBF01230023DBB2C7F8BC30D7F8BC3046
:10457000002B05D1764A40F2E111002028F072FEAE
:10458000BB68C7F8B830D7F8B8301B683B64D7F8B9
:10459000B8305B687B64D7F8B8309B68BB643B6C11
:1045A000002B02DA03F57F43FF331B141A467B6CA2
:1045B000002B02DA03F57F43FF331B141946BB6C53
:1045C000002B02DA03F57F43FF331B1400930B46E5
:1045D000604904202DF072F807F1400319465B484A
:1045E00023F0BFF994E26B469A467B68242B0CBFFC
:1045F00001230023DBB2C7F8B430D7F8B430002B66
:1046000005D1534A4FF4F971002028F02BFEBB6806
:10461000C7F8B030D7F8B0301B681B141BB2BB858D
:10462000D7F8B03004331B681B141BB2FB85D7F8D6
:10463000B03008331B681B141BB23B86D7F8B03070
:104640000C331B681B141BB27B86D7F8B0301033B9
:104650001B681B141BB2BB86D7F8B03014331B6821
:104660001B141BB2FB86D7F8B03018331B681B1421
:104670001BB23B87D7F8B0301C331B681B141BB22E
:104680007B87D7F8B03020331B681B141BB2BB8765
:10469000314B1B78013BC7F8AC302F4B1B78D9B29C
:1046A0004FF000020B46144613EB030844EB0409D9
:1046B00043464C465B1842EB04044FF000014FF0B8
:1046C0000002220142EA137219010B461446224BE2
:1046D0001B781A4613465B0013445B001E4B1B7885
:1046E000D9B24FF000020B461446DD1844EB040625
:1046F0002B4634465B1842EB04044FF000014FF0A8
:104700000002220142EA137219010B461446124BB1
:104710001B781A4613465B0013445B000733DB0823
:10472000DB00ADEB030D02AB0033C7F8A83000236C
:1047300087F8DE3038E000BF989605000000F040B2
:1047400064950500C8960500F8960500D84F00202E
:104750003090050028970500CA99050097F8DE30CB
:104760009B00D7F8B02013441B6818462EF0E0FEDB
:104770004FF00002C24B2FF06BFA03460C46C7E91C
:10478000283497F8DE2013465B0013445B00D7F80B
:10479000A820D018D7E92823BA4931F029FB97F887
:1047A000DE30013387F8DE30B74B1B7897F8DE2018
:1047B0009A42D3D3B54904202CF044FFD7F8A8304F
:1047C00018462CF039FF0446D7F8A83006331846AF
:1047D0002CF032FF0546D7F8A8300C3318462CF0E1
:1047E0002BFF034600932B462246A94904202CF0B8
:1047F00065FFD7F8A830123318462CF01DFF044689
:10480000D7F8A830183318462CF016FF0546D7F80D
:10481000A8301E3318462CF00FFF034600932B469A
:1048200022469B4904202CF049FFD7F8A8302433B6
:1048300018462CF001FF0446D7F8A8302A33184652
:104840002CF0FAFE0546D7F8A830303318462CF085
:10485000F3FE034600932B4622468D4904202CF09C
:104860002DFF07F12C0319468A4823F0BDF8D546E1
:104870004EE17B68042B0CBF01230023DBB2C7F899
:104880009C30D7F89C30002B05D1834A40F2172189
:10489000002028F0E7FCBB681B68BB62BB6A002BEA
:1048A00002DA03F57F43FF331B141A467B490420C9
:1048B0002CF0D9FE07F128031946764823F0D7F8E3
:1048C00026E16B461D467B680C2B0CBF01230023A1
:1048D000DBB2C7F89830D7F89830002B05D16E4A74
:1048E00040F22221002028F0BDFCBB68C7F89430BC
:1048F000D7F894301B68FB61D7F894305B683B6253
:10490000D7F894309B687B62654B1B78013BC7F8F6
:104910009030634B1B78D9B24FF000024FF0000388
:104920004FF00004940144EA91648B015C4B1B78C6
:10493000D9B24FF000024FF000034FF00004940191
:1049400044EA91648B01564B1B78DB000733DB088C
:10495000DB00ADEB030D02AB0033C7F88C30002356
:1049600087F8DF301AE097F8DF30DB00D7F88C20CB
:10497000D41897F8DF309B00D7F8942013441B68B5
:1049800018462EF011FF02460B464649204631F0EC
:104990002FFA97F8DF30013387F8DF30404B1B7870
:1049A00097F8DF209A42DED3D7F88C3018462CF0E7
:1049B00043FE0446D7F88C30083318462CF03CFEF2
:1049C0000646D7F88C30103318462CF035FE0346D7
:1049D000009333462246344904202CF06FFE07F141
:1049E0001C0319462B4823F086F8AD4690E07B68FF
:1049F000022B0CBF01230023DBB2C7F88830D7F8A5
:104A00008830002B05D1244A40F23F21002028F0B5
:104A100029FCBB68C7F88430D7F884301B783B7614
:104A2000D7F884305B787B767B7E1A463B7E1F49C5
:104A300004202CF02CFE07F118031946154822F02B
:104A400041FE65E07B68012B0CBF01230023DBB234
:104A5000C7F88030D7F88030002B05D10E4A4FF4CC
:104A60001471002028F0FEFBBB681B781A46104921
:104A700004202CF0F8FDB968064822F066FE47E0F5
:104A80000000D0418C970500CA9905009497050055
:104A9000C8970500D84F002030900500F09705001A
:104AA000CB990500309805003898050084980500DA
:104AB000BC9805007B68082B0CBF01230023DBB2E8
:104AC000FB67FB6F002B05D1144A40F25A210020EE
