:020000021000EC
:10F000000000012033F10100D9F00100DBF0010024
:10F01000DDF00100DFF00100E1F001000000000080
:10F02000000000000000000000000000E3F001000C
:10F03000E5F0010000000000E7F00100E9F0010048
:10F04000C5B20400EDF00100EFF0010025A60400B8
:10F05000F3F001002D2205002D950400A5B5040054
:10F06000FBF00100FDF00100FFF0010001F10100E3
:10F0700003F1010089C4040007F1010009F1010056
:10F080000BF10100A5DA04000FF1010011F10100FC
:10F09000E5DA040015F10100B50D050019F10100D4
:10F0A0001BF101001DF1010031C60400951F050090
:10F0B0003DAF040041C0040000000000000000005B
:10F0C00027F1010029F101002BF101002DF10100D0
:08F0D0002FF1010031F10100F4
:10F0D800FEE7FEE7FEE7FEE7FEE7FEE7FEE7FEE700
:10F0E800FEE7FEE7FEE7FEE7FEE7FEE7FEE7FEE7F0
:10F0F800FEE7FEE7FEE7FEE7FEE7FEE7FEE7FEE7E0
:10F10800FEE7FEE7FEE7FEE7FEE7FEE7FEE7FEE7CF
:10F11800FEE7FEE7FEE7FEE7FEE7FEE7FEE7FEE7BF
:10F12800FEE7FEE7FEE7FEE7FEE70348854600F058
:10F13800C5F800F003B87047000001203749384887
:10F148000A1A02D0072291438D46364936480A1AD0
:10F1580006D00722914381F30988022282F314889A
:10F1680032483349334A00F048F833483349344A7F
:10F1780000F043F833483449344A00F03EF8344844
:10F188003449354A00F039F834483549354A00F0F1
:10F1980034F835483549364A00F02FF835483649AD
:10F1A800364A00F02AF836483649374A00F025F83A
:10F1B80036483749002200F02BF8364836490022F5
:10F1C80000F026F835483649091A082903DB0022D9
:10F1D8000260043001601F481F49884205D0026858
:10F1E800043003B4904703BCF7E700208646EC469A
:10F1F800002000212B4A9047FEE7884207D0521A88
:10F2080005D0037801300B700131013AF9D170470C
:10F21800884202D002700130FAE7704700000120EE
:10F2280000FC00200000012000000120F83D06003D
:10F238005845002078460020B0F20100B0F20100E5
:10F24800A86B0500F83D06005845002058450020E9
:10F25800A86B0500A86B0500A86B0500A86B050046
:10F26800A86B0500A86B0500A86B0500A86B050036
:10F27800F83D0600183F0600784600207846002032
:10F28800183F06007846002088460020884600205F
:10F29800909700209097002098970020989700203A
:08F2A800989B002089FD010084
:10F2B000024B034A1A6000BF704700BF5845002048
:10F2C0000090D00308B500F00DF90346002B06D0DE
:10F2D000744B1B681B0A744A03F01F03136000F091
:10F2E0002DF90346002B02D0704B714A1A6000F0D2
:10F2F00041F90346002B06D06E4B1B685B0B6E4A30
:10F3000003F00703136000F061F90346002B05D0FA
:10F310006A4BDB68694A23F08073D36000F072F9AE
:10F320000346002B0ED04FF080430022C3F80C217F
:10F330004FF080430022C3F810214FF08043002299
:10F34000C3F8382500F08AF90346002B02D05C4B45
:10F3500003221A6000F09EF90346002B0BD0594B94
:10F3600005221A60584B01221A60584B00221A607D
:10F37000574B3F221A6000F0A9F90346002B76D0C4
:10F380004FF08053534AD3F80434C2F820354FF07D
:10F390008053504AD3F80834C2F824354FF08053D4
:10F3A0004C4AD3F80C34C2F828354FF08053494A00
:10F3B000D3F81034C2F82C354FF08053454AD3F8B7
:10F3C0001434C2F830354FF08053424AD3F8183421
:10F3D000C2F834354FF080533E4AD3F81C34C2F89B
:10F3E00040354FF080533B4AD3F82034C2F84435BF
:10F3F0004FF08053374AD3F82434C2F848354FF0E1
:10F400008053344AD3F82834C2F84C354FF0805337
:10F41000304AD3F82C34C2F850354FF080532D4A7F
:10F42000D3F83034C2F854354FF08053294AD3F81A
:10F430003434C2F860354FF08053264AD3F838345C
:10F44000C2F864354FF08053224AD3F83C34C2F8F6
:10F4500068354FF080531F4AD3F84034C2F86C35FA
:10F460004FF080531B4AD3F84434C2F8703500F093
:10F4700049F90346002B05D0174B1B68174A03F0C8
:10F480004F031360164BD3F88830154A43F47003CA
:10F49000C2F88830BFF34F8FBFF36F8FFFF708FFBD
:10F4A00000BF08BD240300104035014074C0074070
:10F4B0000DF0ADBA440200103C050040F0ED00E054
:10F4C000A0050040105600408856004018560040E5
:10F4D0001456004000C0004058020010E40E0040E6
:10F4E00000ED00E0124B1B68DBB2062B1DD1114B67
:10F4F0001B6803F00F03002B17D10F4B1B6803F0A1
:10F50000F003302B01D1012310E00B4B1B6803F0FB
:10F51000F003402B01D1012308E0074B1B6803F0E7
:10F52000F003502B01D1012300E00023184670475F
:10F53000E00F00F0E40F00F0E80F00F00A4B1B684A
:10F54000DBB2062B0DD1094B1B6803F00F03002B18
:10F5500007D1074B1B6803F0F003302B01D10123C7
:10F5600000E0002318467047E00F00F0E40F00F0C1
:10F57000E80F00F0124B1B68DBB2062B1DD1114BBC
:10F580001B6803F00F03002B17D10F4B1B6803F010
:10F59000F003302B01D1012310E00B4B1B6803F06B
:10F5A000F003402B01D1012308E0074B1B6803F057
:10F5B000F003502B01D1012300E0002318467047CF
:10F5C000E00F00F0E40F00F0E80F00F00A4B1B68BA
:10F5D000DBB2062B0DD1094B1B6803F00F03002B88
:10F5E00007D1074B1B6803F0F003302B01D1012337
:10F5F00000E0002318467047E00F00F0E40F00F031
:10F60000E80F00F0124B1B68DBB2062B1DD1114B2B
:10F610001B6803F00F03002B17D10F4B1B6803F07F
:10F62000F003302B01D1012310E00B4B1B6803F0DA
:10F63000F003402B01D1012308E0074B1B6803F0C6
:10F64000F003502B01D1012300E00023184670473E
:10F65000E00F00F0E40F00F0E80F00F00A4B1B6829
:10F66000DBB2062B0DD1094B1B6803F00F03002BF7
:10F6700007D1074B1B6803F0F003302B01D10123A6
:10F6800000E0002318467047E00F00F0E40F00F0A0
:10F69000E80F00F00A4B1B68DBB2062B0DD1094BBB
:10F6A0001B6803F00F03002B07D1074B1B6803F007
:10F6B000F003302B01D1012300E0002318467047EE
:10F6C000E00F00F0E40F00F0E80F00F00A4B1B68B9
:10F6D000DBB2062B0DD1094B1B6803F00F03002B87
:10F6E00007D1074B1B6803F0F003502B01D1012316
:10F6F00000E0002318467047E00F00F0E40F00F030
:10F70000E80F00F0124B1B68DBB2062B1DD1114B2A
:10F710001B6803F00F03002B17D10F4B1B6803F07E
:10F72000F003302B01D1012310E00B4B1B6803F0D9
:10F73000F003402B01D1012308E0074B1B6803F0C5
:10F74000F003502B01D1012300E00023184670473D
:10F75000E00F00F0E40F00F0E80F00F00048704701
:10F760008897002082B003468DF807309DF8073057
:10F7700003F01F0206499DF907305B09012000FADA
:10F7800002F2603341F8232000BF02B0704700BF8F
:10F7900000E100E0BFF34F8F054BDB6803F4E0624C
:10F7A0000349044B1343CB60BFF34F8F00BFFDE70A
:10F7B00000ED00E00400FA0532DF704700BF184694
:10F7C0003EDF704700BF184682B001904FF0A04363
:10F7D000184602B0704700B585B001900846114642
:10F7E0001A4603468DF803300B468DF80230134657
:10F7F0008DF8013001AB1846FFF7E6FF03909DF846
:10F8000003209DF802305B001A439DF801309B00F5
:10F810001A439DF818301B0242EA03019DF81C3080
:10F820001B04019A1943039B02F5E07243F822106E
:10F8300000BF05B05DF804FB00B585B003900B4632
:10F840008DF80B3013468DF80A309DF80B209DF88B
:10F850000A300193002300931346002200210398ED
:10F86000FFF7B9FF00BF05B05DF804FB84B001905D
:10F87000244B0393019B002B40D0234B1A68039920
:10F88000019B00BF00BF00BF00BF00BF00BF00BFA3
:10F8900000BF8A422FD000BF00BF00BF00BF00BF23
:10F8A00000BF00BF00BF00BF00BF00BF00BF00BF60
:10F8B00000BF00BF00BF00BF00BF00BF00BF00BF50
:10F8C00000BF00BF00BF00BF00BF00BF00BF00BF40
:10F8D00000BF00BF00BF00BF00BF00BF00BF00BF30
:10F8E00000BF00BF00BF00BF00BF00BF00BF00BF20
:10F8F00000BF00BF00BF013BC3D1019300BF04B0F4
:10F90000704700BF0024F4005845002000B583B0C4
:10F910000190019B4FF47A7202FB03F31846FFF744
:10F92000A5FF00BF03B05DF804FB000070B58AB00E
:10F93000079006910592059B0993099B5B68184601
:10F9400031F05CFB0546099B1B881E46099B9C68A1
:10F95000099B9B68184631F035FF0346184631F085
:10F960004DFB03460393029401960095069B079A6C
:10F970000849012031F0B8FB022005F04FFE0520B8
:10F98000FFF7C4FF059A069907982DF061F900BFAB
:10F990000AB070BD206C050000B587B0F1EE103ADA
:10F9A0000193019B23F09F030293029BE1EE103A27
:10F9B000F1EE103A03932620FFF7D4FEFFF700FF85
:10F9C0000590059B0493049B002B04D0044AB921A5
:10F9D00004982DF025F900BF07B05DF804FB00BFC7
:10F9E000B46C050000B589B00390039B5B881A4690
:10F9F000039B1B791946039B1B7800930B462049F8
:10FA0000032031F03DFB039B002B34D0039B1B787C
:10FA1000012B30D107F0E6FF0790079B0693069B6A
:10FA2000002B04D0174ACB2106982DF0F9F80222BA
:10FA300000210D20FFF700FF1349022031F0E4FA06
:10FA4000FFF7BAFE079007F0ABFD034683F0010312
:10FA5000DBB2002B0AD0079B0593059B002B0AD035
:10FA6000084AD82105982DF0DBF804E00749022068
:10FA700031F0CAFAFEE700BF09B05DF804FB00BF31
:10FA8000CC6D0500B46C0500146E0500906D05008A
:10FA900000B583B00190019B1B78012B08D0022B8D
:10FAA00010D0002B15D10D49032031F0ADFA10E034
:10FAB0000B49032031F0A8FA0520FFF727FFFFF7D5
:10FAC00069FE06E00749032031F09EFAFFF762FE67
:10FAD00000BF00BF03B05DF804FB00BF786E0500F7
:10FAE000B46E0500F46E050000B59BB001AB242296
:10FAF0000021184636F051F81C238DF80A300523F2
:10FB00008DF80B300D238DF80C3011238DF80D304E
:10FB100001238DF80E3004238DF80F3040F61C437E
:10FB2000ADF8103041F25E03ADF81230594B059339
:10FB3000594B06936F23ADF81C3040F61C43ADF8CB
:10FB40001E300A238DF82030544B09930F2006F005
:10FB5000AFFD1990199B1893189B002B05D0504AA4
:10FB60004FF4897118982DF05BF84E4B0F930FAB43
:10FB700019464D4805F0F4FD1990199B1793179BF2
:10FB8000002B05D0464A4FF48C7117982DF048F899
:10FB9000444B0E930EAB1946444803F0EBFA199010
:10FBA000199B1693169B002B05D03D4A4FF48F717D
:10FBB00016982DF035F83B4B0D930DAB19463C488C
:10FBC00004F0B0FF1990199B1593159B002B05D0DD
:10FBD000334A40F2251115982DF022F8354806F0E9
:10FBE000ABF91990199B1493149B002B05D02C4A48
:10FBF0004FF4947114982DF013F82F4B019301AB2F
:10FC000019462E4807F0AAFA1990199B1393139BD3
:10FC1000002B05D0224A40F22D1113982DF000F848
:10FC200041F2883007F01AFA1990199B1293129B2F
:10FC3000002B05D01A4A4FF4987112982CF0F0FF5F
:10FC40001F4B0A93194B0B9305230C930AAB1846D1
:10FC500001F090FC1990199B1193119B002B05D07A
:10FC60000F4A4FF49C7111982CF0DAFF012005F037
:10FC7000D5FC1990199B1093109B002B05D0084AB6
:10FC800040F23B1110982CF0CBFF00BF1BB05DF889
:10FC900004FB00BF60E3160020BF0200A86B050054
:10FCA000B46C0500186C05009846002088460020BA
:10FCB00090460020A0460020E5F90100A84600205B
:10FCC00091FA010000B585B00C4B019301AB1846C9
:10FCD00007F036FE0390039B0293029B002B05D096
:10FCE000074A4FF4AF7102982CF09AFF6420FFF797
:10FCF0000DFE00BF05B05DF804FB00BF706F05008E
:10FD0000B46C050000B589B01C4B02931C4B0393E7
:10FD100002AB18460AF0DEFD0790079B0693069B90
:10FD2000002B05D0174A40F2751106982CF078FF89
:10FD3000124B0093124B01936B4618460AF09AFE41
:10FD40000790079B0593059B002B05D00D4A40F2B9
:10FD50007B1105982CF064FF0BF068F80790079B67
:10FD60000493049B002B05D0064A4FF4BF710498FE
:10FD70002CF056FF00BF09B05DF804FB186C0500BD
:10FD80008C6F0500B46C050000B587B0002031F021
:10FD9000E5F80590059B0493049B002B05D01B4AB6
:10FDA00040F2AD1104982CF03BFF1949032031F0CB
:10FDB0002BF9184A3C2108202CF0EEFF0390039BFE
:10FDC0000293029B002B05D0104A40F2B311029817
:10FDD0002CF026FF2DF08CFE0590059B0193019BD6
:10FDE000002B05D0094A40F2B51101982CF018FFFC
:10FDF000FFF768FFFFF778FEFFF784FF07F01AFEB2
:10FE00002DF090F8FFF7C8FDFAE700BFB46C0500CD
:10FE1000306F0500B04600206DDF704700BF184608
:10FE200076DF704700BF18467ADF704700BF18467C
:10FE30007CDF704700BF18467FDF704700BF184661
:10FE40008FDF704700BF18469EDF704700BF18461F
:10FE5000A9DF704700BF1846ADDF704700BF1846E6
:10FE600069DF704700BF184666DF704700BF18465D
:10FE700031DF704700BF18463DDF704700BF1846AE
:10FE800084B00190244B0393019B002B40D0234B63
:10FE90001A680399019B00BF00BF00BF00BF00BFED
:10FEA00000BF00BF00BF8A422FD000BF00BF00BF0D
:10FEB00000BF00BF00BF00BF00BF00BF00BF00BF4A
:10FEC00000BF00BF00BF00BF00BF00BF00BF00BF3A
:10FED00000BF00BF00BF00BF00BF00BF00BF00BF2A
:10FEE00000BF00BF00BF00BF00BF00BF00BF00BF1A
:10FEF00000BF00BF00BF00BF00BF00BF00BF00BF0A
:10FF000000BF00BF00BF00BF00BF013BC3D10193D2
:10FF100000BF04B0704700BF0024F4005845002023
:10FF200000B583B00190019B4FF47A7202FB03F39A
:10FF30001846FFF7A5FF00BF03B05DF804FB000003
:10FF400000B583B001900091009B1B78012B09D074
:10FF5000022B02D0002B0AD00EE00C49032031F016
:10FF600053F80EE00A49032031F04EF809E0094940
:10FF7000032031F049F804E00749022031F044F849
:10FF800000BF00BF03B05DF804FB00BFC0710500F7
:10FF9000007205003C7205007C72050000B585B05A
:10FFA0000023019301AB18462EF0B6F903468DF8F5
:10FFB0000F309DF80F300293029B002B04D0074AAC
:10FFC000842102982CF02CFE019B002B14BF0123EE
:10FFD0000023DBB2184605B05DF804FBB8720500DB
:10FFE00000B589B003900B468DF80B3000238DF8D7
:10FFF00017300DF1170318462CF0E2F900238DF8A5
:020000022000DC
:100000001F3016E09DF81F3001338DF81F302E4948
:10001000022030F0F9FF0DF1170318462CF0D0F94B
:100020000520FFF77DFF9DF81F30052B01D90D231B
:1000300045E09DF817309DF80B209A42E2D89DF8D4
:1000400017301A462149032030F0EFFF9DF80B309E
:10005000194603982CF0D0F90690069B002B0CD083
:100060001B4830F0CBFF0246069B0093A32319499F
:10007000022031F005F8069B21E01749032030F0FB
:10008000C3FF00238DF81E300EE09DF81E30039A4A
:1000900013441B781A461149132030F0C6FF9DF80F
:1000A0001E3001338DF81E309DF81E209DF80B3058
:1000B0009A42EAD30A49132030F0A6FF00231846DB
:1000C00009B05DF804FB00BFFC7205004C7305002D
:1000D000B872050084730500D87305000874050024
:1000E0001074050010B586B09DF804306FF303035B
:1000F0008DF804309DF804306FF307138DF8043049
:10010000474B1B681C46464B1B68184635F0C1FD23
:1001100003469AB201AB21461846FFF789FE0590C7
:10012000059B0493049B002B04D03E4AC2210498F3
:100130002CF076FD02AB08220021184635F02DFD8B
:10014000374B1B68B3F80F309BB2ADF80830344B17
:100150001B68B3F811309BB2ADF80A30304B1B6806
:10016000B3F813309BB2ADF80C302D4B1B68B3F8CD
:1001700015309BB2ADF80E3002AB1846FFF754FEB7
:100180000590059B072B41D1254B1B68002242F0AF
:100190000602DA7300221A74214B1B68002242F017
:1001A0000C025A7400229A741D4B1B680022DA74E8
:1001B00000221A751A4B1B68002242F040025A7541
:1001C000002242F001029A75154B1B68184601F097
:1001D0005FFB0590059B002B01D0059B1CE00623CF
:1001E000ADF808300C23ADF80A300023ADF80C3020
:1001F0004FF4A073ADF80E3002AB1846FFF714FEB3
:100200000590059B002B06D0059B05E0059B002B68
:1002100001D0059B00E00023184606B010BD00BFCA
:10022000D84A0020B872050000B585B00190019B46
:100230001B78002B16D11149012030F0E5FE104B40
:100240001B883B211846FFF7EBFD0390039B0293AD
:10025000029B002B0ED00B4A40F2011102982CF0A9
:10026000DFFC07E0019B1B78012B03D1064903202B
:1002700030F0CAFE00BF05B05DF804FB1474050041
:100280005C450020B87205006474050000B583B0B9
:100290000190019A0649012030F0C7FE054A40F25C
:1002A000151101982CF0BCFC00BF03B05DF804FBF5
:1002B000B0740500B872050000B58BB002AB1C220B
:1002C0000021184635F069FC6B46082200211846CB
:1002D00035F063FC1F4B1B68B3F80F309BB2ADF8D1
:1002E00000301C4B1B68B3F811309BB2ADF80230E4
:1002F000184B1B68B3F813309BB2ADF80430154BA4
:100300001B68B3F815309BB2ADF806306B4602930C
:100310004FF4004303934FF47023049303238DF8A9
:1003200014300023ADF8163000238DF818300A4B36
:1003300007930A4B089302AB184622F049FD099037
:10034000099B002B01D0099B00E0002318460BB04D
:100350005DF804FBD84A0020290202008D02020049
:1003600000B589B003468DF807309DF80730002BA3
:1003700006D0032B20D11449032030F045FE1EE0A7
:100380001249032030F040FE02238DF80C30104B50
:100390001B6803AA10469847032022F065FB0790CC
:1003A000079B0693069B002B08D00A4A40F2531184
:1003B00006982CF035FC01E000BF00E000BF00BF54
:1003C00009B05DF804FB00BFEC740500247505005E
:1003D000804A0020B872050000B58DB00190019BE5
:1003E0001B88013B542B00F26F8101A252F823F0CD
:1003F000F9050200C9060200C9060200C90602008A
:10040000C9060200C9060200C9060200C9060200A8
:10041000C9060200C9060200C9060200C906020098
:10042000C9060200C9060200C9060200450502000D
:1004300067050200C9060200A7050200C9060200FE
:10044000C9060200C9060200C9060200C906020068
:10045000C9060200C9060200C9060200C906020058
:10046000C9060200C9060200C9060200C906020048
:100470008F060200BF060200C9060200C90602007C
:10048000C9060200C9060200C9060200C906020028
:10049000C9060200C9060200C9060200C906020018
:1004A000C9060200C9060200C9060200C906020008
:1004B000C9060200C9060200C9060200C9060200F8
:1004C000C9060200C9060200C9060200C9060200E8
:1004D000C90602007F060200C9060200C906020022
:1004E000C9060200C9060200C9060200C9060200C8
:1004F000C9060200C9060200C9060200C9060200B8
:10050000C9060200C9060200C9060200C9060200A7
:10051000C9060200C9060200C9060200C906020097
:10052000C9060200C9060200C9060200C906020087
:10053000C9060200D1050200C9060200C906020070
:100540001F0602006849032030F05EFD019B9A8877
:10055000664B1A8000238DF80830654B1B6802AA91
:1005600010469847BBE0019B1B7A1A46614903205D
:1005700030F05BFD5D4B4FF6FF721A80FFF70EFD0A
:100580000346002B03D05C4B01221A70A7E05A4BA4
:1005900000221A7001238DF80830554B1B6802AAFF
:1005A000104698479BE0514B188800230022852174
:1005B000FFF742FC0B900B9B0A930A9B002B00F069
:1005C00085804E4A40F283110A982CF029FB7DE089
:1005D000464B1888002300220021FFF739FC0B90BE
:1005E0000B9B0993099B002B72D0444A40F289115E
:1005F00009982CF015FB6BE03C4B1B88002118463A
:10060000FFF732FC0B900B9B0893089B002B61D0EB
:100610003A4A4FF4C77108982CF002FB5AE0019B4C
:10062000DB881A463649032030F0FFFC019B9B888B
:100630004FF48A711846FFF70FFC0B900B9B079342
:10064000079B002B05D02D4A4FF4CB7107982CF057
:10065000E7FA019BDA882B4BA3F8012029492A48A5
:1006600024F0ECFC0B900B9B0693069B002B33D0E5
:10067000224A4FF4CD7106982CF0D2FA2CE0019B5F
:100680005B891A462149032030F0CFFC27E020493E
:10069000032030F0B9FC019B9B8800220021184602
:1006A000FFF7CEFB0B900B9B0593059B002B15D002
:1006B000124A40F2A71105982CF0B2FA0EE0154943
:1006C000032030F0A1FC0AE000BF08E000BF06E014
:1006D00000BF04E000BF02E000BF00E000BF00BFB9
:1006E0000DB05DF804FB00BF5C7505005C450020A3
:1006F000804A002098750500DF4A0020B872050086
:10070000E8750500DC4A00208C4A00203876050098
:1007100084760500D476050000B585B00190019877
:1007200022F088FD019822F085FC0023039312E05B
:10073000144B1A68039BDB0013445B68002B07D043
:10074000104B1A68039BDB0013445B6801989847C1
:10075000039B013303930C4B1B68039A9A42E7D324
:1007600001990A4824F0AFFB0199094830F09BF841
:100770000198FFF731FE019822F060FA00BF05B042
:100780005DF804FB844A0020884A00208C4A00203F
:10079000FC4A002000B587B0019001982DF0CEFDF5
:1007A000019805F079FE019822F064FA019B022B72
:1007B00002D0019B032B13D1FFF7F0FB034683F01C
:1007C0000103DBB2002B0BD0074B1B78002B07D0AB
:1007D00001238DF80C30054B1B6803AA104698477F
:1007E00000BF07B05DF804FBDF4A0020804A00200C
:1007F00000B593B0A54B1B68049304A8A44B4FF419
:10080000A672A44930F04AFA1190119B1093109BE4
:10081000002B05D0A04A4FF4FE7110982CF000FA7E
:100820000023039303AB184630F0FCFA0F900F9BA4
:100830000E930E9B002B05D0974A4FF400710E9833
:100840002CF0EEF96B460C220021184635F0A5F984
:1008500001238DF800304FF48A73ADF80230039A0B
:100860006B4619462320FFF7FBFA0F900F9B0D9361
:100870000D9B002B05D0884A40F209210D982CF0E1
:10088000CFF96B460C220021184635F086F901237A
:100890008DF8003001238DF802300623ADF80430C6
:1008A000039A6B4619462020FFF7DAFA0F900F9B48
:1008B0000C930C9B002B05D0774A40F211210C9829
:1008C0002CF0AEF96B460C220021184635F065F984
:1008D00001238DF8003010238DF80230039A6B4607
:1008E00019462220FFF7BCFA0F900F9B0B930B9B2E
:1008F000002B05D0684A4FF406710B982CF090F944
:100900006B460C220021184635F047F901238DF87B
:10091000003002238DF80230039A6B4619462120DD
:10092000FFF79EFA0F900F9B0A930A9B002B05D0AE
:10093000594A40F21F210A982CF072F96B460C229A
:100940000021184635F029F902238DF80030039A6A
:100950006B4619460120FFF783FA0F900F9B09930E
:10096000099B002B05D04C4A4FF4097109982CF0D3
:1009700057F96B460C220021184635F00EF9012379
:100980008DF80030039A6B4619464020FFF768FA4D
:100990000F900F9B0893089B002B05D03E4A40F216
:1009A000292108982CF03CF96B460C2200211846AE
:1009B00035F0F3F84FF47A630093039A6B461946C7
:1009C000A120FFF74DFA0F900F9B0793079B002B79
:1009D00005D0314A40F22E2107982CF021F96B46C0
:1009E0000C220021184635F0D8F89DF8003043F06D
:1009F00001038DF80030039A6B461946A020FFF7DB
:100A00002FFA0F900F9B0693069B002B05D0224ACE
:100A100040F2332106982CF003F903AB184630F06E
:100A200011FA0F900F9B0593059B002B05D01A4AD6
:100A300040F2362105982CF0F3F8184830F09AF976
:100A40000F900F9B002B01D00F9B1BE0144830F040
:100A5000A1F90F900F9B002B01D00F9B12E00120FA
:100A6000FFF706FA0F900F9B002B01D00F9B09E0B8
:100A70000120FFF701FA0F900F9B002B01D00F9B75
:100A800000E00023184613B05DF804FB1C77050056
:100A9000190F0500144B0020B87205001907020059
:100AA0009507020000B5B1B04FF48073ADF878300F
:100AB0003B4B1B788DF87A301FAB3C220021184647
:100AC00035F06BF802238DF87C3000238DF87E30F2
:100AD00006238DF87F300123ADF884301EAB2293BE
:100AE00016AB20220021184635F057F801238DF867
:100AF0005B302C4B1B689B899BB21A93294B1B685C
:100B00009B7B1B9307AB3C220021184635F045F830
:100B100000238DF8BF3010E09DF8BF30C3F1030211
:100B20009DF8BF3020498A5C30A90B4403F8B42CEF
:100B30009DF8BF3001338DF8BF309DF8BF30032BD7
:100B4000EAD95923ADF8103003AB06930423ADF86E
:100B5000143000238DF81C3004AB109316AA07A99B
:100B60001FA800230093114B21F07AFE2E902E9B9C
:100B7000002B0DD00E4830F041FA02462E9B009318
:100B800040F282230B49022030F07AFA2E9B03E0D8
:100B9000012021F057FE0023184631B05DF804FB18
:100BA0008C4A0020D84A0020F84A00206103020045
:100BB000B87205008473050000B583B00190054A42
:100BC00040F28F2101982CF02BF800BF03B05DF8A4
:100BD00004FB00BFB872050000B583B01A4B1B6858
:100BE00093F82830022B03D805F014FD002327E0EA
:100BF000164B4FF43E721A60134B1B681733134A9F
:100C00005360114B1B6893F828309AB20F4B1A812E
:100C10000E4B0F4A5A610F48FFF7FEF80190019BF7
:100C2000002B01D0019B0BE0084BDB7A0233DAB2D8
:100C3000064BDA72054805F081FC05F0ADFC002397
:100C4000184603B05DF804FBD84A0020604C002031
:100C5000B90B02006A4C002000B595B003900192D8
:100C60001A460B468DF80B301346ADF808300023BA
:100C70008DF84F309DF80B30062B00F2598101A200
:100C800052F823F0A10C0200DD0C0200010D02005D
:100C9000890D0200D90D02000B0E0200A30E020006
:100CA000BDF808300A2B00F23681AE4B1B6818469F
:100CB000BDF808301A46019934F046FFA94B1A686E
:100CC000BDF808300021D154A64B1B68BDF80820A0
:100CD000D2B2DA7201238DF84F301CE1BDF8083032
:100CE000032B40F01A819F4B1B680C33BDF8082082
:100CF0000199184634F028FF01238DF84F300CE19C
:100D0000BDF80830082B40F00A81964B1B680F3362
:100D1000BDF808200199184634F016FF05AB0822EB
:100D20000021184634F039FF8E4B1B68B3F80F30A2
:100D30009BB2ADF814308B4B1B68B3F811309BB2EB
:100D4000ADF81630874B1B68B3F813309BB2ADF883
:100D50001830844B1B68B3F815309BB2ADF81A30CD
:100D600005AB184622F08CF91290129B1193119B3F
:100D7000002B05D07C4A40F2E12111982BF050FF66
:100D800001238DF84F30CAE0BDF80830112B00F276
:100D9000C880744B1B681733BDF8082001991846AA
:100DA00034F0D2FE6F4B1B68BDF80820D2B283F836
:100DB000282001238DF84F30FFF70EFF1090109B75
:100DC0000F930F9B002B00F0AC80674A4FF43C71EF
:100DD0000F982BF025FFA4E0BDF80830FA2B00F2A5
:100DE000A280604B1B682933BDF808200199184682
:100DF00034F0AAFE5B4B1B68BDF80820D2B283F822
:100E0000232101238DF84F308DE0BDF80830032BEE
:100E100040F08B80019B0E930E9B1B78012B2FD1F2
:100E20000E9BB3F801309BB21A465049032030F0B4
:100E3000FCF84F4B1A880E9BB3F801309BB2194651
:100E40001046FFF701F80D900D9B002B07D1BDF860
:100E500008301A460199474834F076FE65E0454966
:100E6000454824F0EBF80D900D9B0C930C9B002B48
:100E70005BD03D4A40F20D310C982BF0D1FE54E08E
:100E80003C493D4824F0DAF80D900D9B0B930B9BE9
:100E9000002B4AD0344A40F213310B982BF0C0FE9D
:100EA00043E0BDF80830F72B41D82E4B1B6803F503
:100EB0009573BDF808200199184634F045FE294B7A
:100EC0001B68BDF80820D2B283F8212214F05AF929
:100ED0000A900A9B002B05D0234A40F21E310A9843
:100EE0002BF09EFE1F4B1B6803F59573BDF8082081
:100EF000D2B21146184613F059FF0990099B002BF6
:100F000005D0194A40F21F3109982BF089FE0123C0
:100F10008DF84F300BE000BF0AE000BF08E000BFD3
:100F200006E000BF04E000BF02E000BF00E000BF39
:100F30009DF84F30002B10D00A4B1B68184600F06C
:100F4000A7FC0890089B0793079B002B05D0064A37
:100F500040F22B3107982BF063FE00BF15B05DF80F
:100F600004FB00BFD84A0020B872050020770500B6
:100F70005C450020DC4A00208C4A002000B589B086
:100F800000238DF81F30724B1B6893F82431FF2229
:100F9000934214BF012300238DF81E306C4B1B6855
:100FA00093F82531FF22934214BF012300238DF8CB
:100FB0001D30674B1B6893F82631FF22934214BF04
:100FC000012300238DF81C30614B1A6803AB02F536
:100FD00092721188927819809A709DF81E30002BB9
:100FE00007D19DF81D30002B03D19DF81C30002B3C
:100FF0002ED0574B1B68FF2283F82421544B1B68CB
:10100000FF2283F82521524B1B68FF2283F82621FB
:1010100001238DF81F309DF81E30002B03D19DF861
:101020001D30002B14D000238DF81F30494B0122B6
:101030001A70494800F02CFC0690069B0593059B0E
:10104000002B05D0454A40F24E3105982BF0E8FDC3
:10105000FF231A46FF231946FF2300930B464049FE
:10106000032030F00DF83B4B1B78002B0DD09DF882
:101070000C301A469DF80D3019469DF80E3000933D
:101080000B46384903202FF0FBFF314B1B6893F8C8
:101090002830112B0FD92E4B1B6817330E223249E3
:1010A000184634F051FD2A4B1B680E2283F8282085
:1010B00001238DF81F30264B1B6893F82331FA2B40
:1010C0000FD9234B1B68293300222849184634F0D6
:1010D0003BFD1F4B1B68002283F8232101238DF861
:1010E0001F301B4B1B6893F82132F72B05D8184B88
:1010F0001B6893F82132002B10D1154B1B6803F5A8
:10110000957316221A49184634F01EFD104B1B68C1
:10111000162283F8212201238DF81F309DF81F30FD
:10112000002B10D00A4B1B68184600F0B1FB06904C
:10113000069B0493049B002B05D0084A40F27631AD
:1011400004982BF06DFD0023184609B05DF804FBF0
:10115000D84A0020E04A00209C6F0500B8720500C4
:1011600068770500A8770500B36F0500C56F050017
:10117000C670050000B585B00A4B1B6801930A4B89
:10118000029301AB1946094823F0C4FE0390039B68
:10119000002B01D0039B00E00023184605B05DF84A
:1011A00004FB00BFD84A0020590C02008C4A0020E2
:1011B00000B589B001900091FFF7DCFF0690069B17
:1011C0000593059B002B05D0244A4FF466710598C2
:1011D0002BF026FD0023079318E0079BDB00019A04
:1011E00013441B68002B0ED0079BDB00019A1344AD
:1011F0001B681B4A1278104698470690069B002BE6
:1012000001D0069B26E0079B01330793079A009BBA
:101210009A42E2D302AB08220021184634F0BDFC0A
:10122000104B029301238DF80C3001238DF80D3003
:1012300002AB19460C482FF0A5F90690069B0493C3
:10124000049B002B05D0054A40F2B13104982BF0E5
:10125000E7FC0023184609B05DF804FBB8720500EE
:10126000E04A002041FF0100FC4A0020B0B5C6B0B2
:1012700002AF13F0B5FFC7F80801D7F80831002B0B
:101280000FD0B0482FF0BAFE0246D7F808310093CD
:1012900040F2BE33AC4902202FF0F2FED7F80831FD
:1012A0004BE1AA4B1B6803F595731622A849184613
:1012B00034F012FA0346002B40F01C816B461D46A9
:1012C0002021A44813F09CFEC7F80801D7F8083184
:1012D000002B0FD09B482FF091FE0246D7F8083123
:1012E000009340F2C333984902202FF0C9FED7F88B
:1012F0000831FDE01B2387F8073197F80701034603
:10130000013BC7F80031C1B24FF000024FF00003BB
:101310004FF00004D40044EA5174CB00C1B24FF046
:1013200000024FF000034FF00004D40044EA51746F
:10133000CB0003460733DB08DB00ADEB030D02AB4C
:101340000033C7F8FC30D7F8FC3000221A70D7F809
:10135000FC308149184634F040FAD7F8FC307F4918
:10136000184634F03AFA002387F80F311EE007F1EF
:10137000F80300210A461A800A469A7097F80F313E
:10138000774AD35C1A4607F1F8037649184634F0D9
:101390000FFAD7F8FC3007F1F8021146184634F07E
:1013A0001CFA97F80F31013387F80F3197F80F3196
:1013B000032BDCD9D7F8FC3018462FF01FFE03466C
:1013C0001A46694903202FF030FED7F8FC3097F811
:1013D00007211146184613F06BFDC7F80801D7F82E
:1013E0000831002B0FD057482FF008FE0246D7F8DF
:1013F0000831009340F2D733534902202FF040FECA
:10140000D7F8083174E016225849012013F0ACFDDA
:10141000C7F80801D7F80831002B0FD049482FF042
:10142000EDFD0246D7F80831009340F2DA33464921
:1014300002202FF025FED7F8083159E013F028FEDE
:10144000C7F80801D7F80831002B0FD03D482FF01E
:10145000D5FD0246D7F80831009340F2DD333A4912
:1014600002202FF00DFED7F8083141E0F72387F86E
:10147000FB3007F1FB023B461146184613F0EEFC29
:10148000C7F80801D7F80831002B0FD02D482FF0EE
:10149000B5FD0246D7F80831009340F2E1332A49FE
:1014A00002202FF0EDFDD7F8083121E097F8FB205E
:1014B0003B4683F8F7203B4619462D4823F0EAFDCA
:1014C000C7F80801D7F80831002B0FD01D482FF0BE
:1014D00095FD0246D7F80831009340F2E5331A49EA
:1014E00002202FF0CDFDD7F8083101E0AD4623E012
:1014F000AD4622E0154B1B6803F59572134B1B6834
:1015000093F821321946104613F050FCC7F8080131
:10151000D7F80831002B0FD00A482FF06FFD024694
:10152000D7F80831009340F2EA33074902202FF040
:10153000A7FDD7F8083100E00023184607F58877A3
:10154000BD46B0BDB872050084730500D84A0020BE
:10155000C670050018780500E44A002038780500B8
:10156000F84A0020087405003C78050068780500FA
:101570008C4A002000B585B00190019B1B686A4A27
:101580001360019B5B68694A1360019B9B68684A12
:101590001360FFF72DF90390039B002B06D0039AED
:1015A000644901202FF041FD039BB8E0624BD3F862
:1015B0008830614A43F47003C2F88830BFF34F8F1C
:1015C000BFF36F8F04215D48FEF70AFD0390039B74
:1015D000002B06D0039A5A4901202FF026FD039BC9
:1015E0009DE05849584800F00DFA0390039B002BEA
:1015F00006D0039A554901202FF017FD039B8EE07A
:10160000504B1B680C22A3F81120FFF7B7FC039086
:10161000039B002B06D0039A4D4901202FF005FDB6
:10162000039B7CE0FEF75EFD0390039B002B06D03E
:10163000039A484901202FF0F8FC039B6FE03B4BD5
:101640001A683B4B1B6819461046FFF7B1FD039023
:10165000039B002B06D0039A3F4901202FF0E5FCA5
:10166000039B5CE0FFF71EFA0390039B002B06D060
:10167000039A3A4901202FF0D8FC039B4FE0FEF774
:101680001BFE0390039B002B06D0039A34490120D4
:101690002FF0CBFC039B42E0032021F0E5F90390FF
:1016A000039B002B06D0039A2E4901202FF0BDFC8E
:1016B000039B34E02C4805F0F7FE0390039B002BBE
:1016C00006D0039A294901202FF0AFFC039B26E0A6
:1016D00025482FF093FC03461A46254913202FF086
:1016E000A4FCFFF7C3FD0390039B002B06D0039AD5
:1016F000204901202FF099FC039B10E00A20FEF7FF
:101700000FFCFFF769FA0390039B002B06D0039AA6
:10171000194901202FF089FC039B00E000231846A3
:1017200005B05DF804FB00BF804A0020844A002019
:10173000884A00208078050000ED00E0F84A00208B
:10174000BC780500D84A00209C6F05000079050090
:101750003C7905007C790500B8790500047A05001C
:10176000407A05007C7A0500E44A0020BC7A050036
:10177000F87A05000C7B0500407B050000B589B0B8
:101780000390039B1B78012B1AD0052B42D0002B12
:101790004CD1039B5B68002B03D1344B01221A70A0
:1017A00059E0334901202FF02FFC00230793079BBA
:1017B000002B50D12F4A5D2100202BF031FA4AE056
:1017C000039B5B68002B16D1039B9B89B3F5005FDD
:1017D00043D1039B1B7C1A46039B9B891946039BA1
:1017E000DB8900930B46244903202FF049FC234B4F
:1017F00001221A7031E0224901202FF005FC00235C
:101800000693069B002B28D11A4A6F2100202BF04B
:1018100007FA22E0039B5B68002B20D119490320C3
:101820002FF0F2FB184B01221A7018E0039B1B7873
:101830001A46039B5B68154903202FF00AFC039BA3
:101840005B680593059B002B0BD00A4A7B2105980A
:101850002BF0E6F905E000BF04E000BF02E000BFA6
:1018600000E000BF00BF09B05DF804FBAC4E0020F3
:10187000787B0500A87B0500F07B0500AD4E0020BD
:101880003C7C05006C7C0500AE4E0020A07C050071
:1018900000B58BB003901F4903202FF0B5FB039BCD
:1018A000002B01D10E2331E040F2222203991A4885
:1018B00034F04AF9194B42221A60184B04938A23D8
:1018C000ADF814304FF40053ADF8183042F2010374
:1018D000ADF81A3004AB07930123ADF8203006AB06
:1018E00019460F482EF04DFB0990099B002B0CD098
:1018F0000C482FF083FB0246099B009398230A496A
:1019000002202FF0BDFB099B00E0002318460BB01E
:101910005DF804FBD07C0500884C0020844C00203E
:10192000784C0020A87B0500047D050000B58BB035
:10193000039005AB08220021184634F02EF92B49FC
:1019400003202FF061FB05AB294A42F201014FF45D
:1019500000502EF085FB0990099B002B0CD02548E8
:101960002FF04CFB0246099B0093A9232249022039
:101970002FF086FB099B34E007AB19461C482EF07C
:1019800075FA0990099B002B0CD01A482FF036FBF2
:101990000246099B0093AC23174902202FF070FBED
:1019A000099B1EE0089B4FF40A721946134834F055
:1019B000CBF80F482EF096FA0990099B002B0CD01B
:1019C0000C482FF01BFB0246099B0093B1230A49E8
:1019D00002202FF055FB099B03E0039B084A1A6085
:1019E000002318460BB05DF804FB00BF587D0500CE
:1019F000784C0020A87B0500047D0500844C002065
:101A0000884C002000B58BB0039002915B49032005
:101A10002FF0FAFA039B002B01D10E23A9E05848BE
:101A20002EF08EF90990099B002B0CD055482FF011
:101A3000E5FA0246099B0093C223534902202FF086
:101A40001FFB099B95E02EF09BF90990099B002B49
:101A50000ED04C482FF0D2FA0246099B0093C523C2
:101A6000494902202FF00CFB099B82E02BF05AFA27
:101A7000464B1B7883F00103DBB2002BF6D12EF02E
:101A8000C3FA0990099B002B0ED03E482FF0B6FAFE
:101A90000246099B0093CD233B4902202FF0F0FA28
:101AA000099B66E02BF03EFA394B1B7883F001036B
:101AB000DBB2002BF6D10298FFF738FF0990099BA3
:101AC0000A2B45D1334903202FF09EFA40F22222FF
:101AD0000399314834F038F8304B42221A602F4BCA
:101AE00004938A23ADF814304FF40053ADF8183046
:101AF00042F20103ADF81A3004AB07930123ADF8AD
:101B00002030274B00221A7006AB194625482EF0CC
:101B100029FA0990099B002B0CD01A482FF06EFA75
:101B20000246099B0093EB23174902202FF0A8FAE5
:101B3000099B1EE0029B184A1A6001E02BF0F2F9A3
:101B4000174B1B7883F00103DBB2002BF6D10FE0BB
:101B5000099B002B0CD00B482FF050FA0246099B32
:101B60000093F623084902202FF08AFA099B00E02F
:101B7000002318460BB05DF804FB00BF887D05000C
:101B80007D170200A87B0500047D0500AC4E0020F7
:101B9000AE4E0020B47D0500884C0020844C00200F
:101BA000AD4E0020784C002000B587B08DED030AC3
:101BB0000290DDED037AFDEEE77ACDED017A9DF836
:101BC00004305AB2029B1A70029B93F9003007EE60
:101BD000903AF8EEE77A9DED037A77EE677ACDEDED
:101BE000057ADDED057A9FED0D7A67EE877AFCEEDA
:101BF000E77ACDED017A9DF80430DAB2029B5A7093
:101C0000029B93F900301A46029B5B78044904203A
:101C10002FF01FFA00BF07B05DF804FB0000C842B8
:101C2000107E050000B583B0034600918DF80730A3
:101C3000009B9DF807201A709DF807301A4604494A
:101C400004202FF0F2F900BF03B05DF804FB00BFE1
:101C5000587E050000B587B08DED030A0290DDEDDA
:101C6000037AFDEEE77A17EE902A029B1A60029B38
:101C70001B6807EE903AF8EEE77A9DED037A77EE6F
:101C8000677ACDED057ADDED057A9FED0D7A67EE89
:101C9000877AFCEEE77ACDED017A9DF80430DAB26E
:101CA000029B1A71029B1B681A46029B1B7905490D
:101CB00004202FF0CEF900BF07B05DF804FB00BF91
:101CC0000000C842A07E050000B587B00190019BCE
:101CD0001B78002B02D0012B14D021E0019B5B78F4
:101CE000012B1AD110F0B0F8F0EE407A03AB184691
:101CF000B0EE670AFFF7AEFF03AB19460A4822F0C1
:101D0000F9F90AE000230593059B002B07D1074A48
:101D1000942100202AF084FF01E000BF00E000BF12
:101D200000BF07B05DF804FBB04E0020F07E050058
:101D300000B58DB003468DF807309DF80730002BB5
:101D400060D112F02BF98DED0B0A12F075F80346F5
:101D5000ADF82A3004AB18469DED0B0AFFF724FFBF
:101D6000BDF82A30DBB20DF10F0211461846FFF71D
:101D700059FF2B4B1B78002B14D0BDF82A309DED5A
:101D80000B0A184600F05CFA0990099B0893089B1F
:101D9000002B04D0234AB12108982AF041FF204BA0
:101DA00000221A70204B1B78002B12D004AB19466E
:101DB0001E4822F05FF90990099B0793079B002BAF
:101DC00004D0184AB82107982AF02AFF164B00229F
:101DD0001A70174B1B78002B1ED00DF10F031946FC
:101DE000124822F0C7F90990099B0693069B002B25
:101DF00004D00C4ABF2106982AF012FF0C4B002297
:101E00001A7009E000230593059B002B04D1054AB5
:101E1000C52100202AF004FF00BF0DB05DF804FBCF
:101E2000FA4E0020F07E0500F94E0020B04E002052
:101E3000F84E002000B585B00190019B002B15D015
:101E4000019B1B88ADF80C30019B5B88ADF80E3010
:101E5000019B1B881A46019B5B88064904202FF0D2
:101E6000F8F803AB1946044822F0C4F900BF05B0E6
:101E70005DF804FB3C7F0500B04E002000B587B044
:101E8000039000200AF060FA039B002B27D0039BED
:101E90001B881946039B5B881846039B9B881A4640
:101EA000039BDB880193009203460A460E490420F7
:101EB0002FF0FFF8039B1B88ADF81030039B5B8865
:101EC000ADF81230039B9B88ADF81430039BDB8880
:101ED000ADF8163004AB1946044822F0CBF900BF28
:101EE00007B05DF804FB00BF807F0500B04E002006
:101EF00000B585B001900A4B01221A7012F0ECF87F
:101F00000390039B0293029B002B05D0054A4FF4DC
:101F1000847102982AF084FE00BF05B05DF804FBCE
:101F2000F94E0020F07E0500F0B585B0334B01225C
:101F30001A70334B01221A7011F0B8FE0390039B04
:101F4000002B0DD02F482FF059F80246039B009329
:101F50004FF48B732C4902202FF092F8039B49E039
:101F600012F0BAF80390039B002B0DD025482FF0F8
:101F700045F80246039B009340F2191322490220C0
:101F80002FF07EF8039B35E0204F214B1B681B8808
:101F90009BB299B24FF000024FF000034FF00004E3
:101FA000D40344EA5144CB0313F5FA7544F1000617
:101FB0004FF47A724FF000032846314633F088F927
:101FC00003460C460022194638462BF0F5FD0390D7
:101FD000039B002B0DD00B482FF010F80246039BFB
:101FE00000934FF48F73084902202FF049F8039BA8
:101FF00000E00023184605B0F0BD00BFF94E0020F8
:10200000FD4E0020F07E0500CC7F0500004F002033
:10201000F04E002000B587B003468DF80F30194B05
:1020200000221A70184B18462BF0F8FD0590059BFE
:10203000002B0DD015482EF0E1FF0246059B0093C2
:102040004FF49673124902202FF01AF8059B14E002
:102050009DF80F30002B0FD00E4B00221A700E4B44
:102060001B7883F00103DBB2002B03D011F088FE54
:10207000034602E0002300E00023184607B05DF8A5
:1020800004FB00BFF94E0020004F0020F07E050049
:10209000CC7F0500FD4E0020FC4E002000B585B031
:1020A00001900FF021FF0390039B0293029B002BF2
:1020B00005D0054A40F24B1102982AF0B1FD00BF4D
:1020C00005B05DF804FB00BFF07E0500F0B585B0FB
:1020D0000FF0AAFD0390039B0293029B002B05D0F7
:1020E0001D4A4FF4AB7102982AF09AFD0FF0FCFEE6
:1020F0000390039B0193019B002B05D0164A40F2ED
:10210000591101982AF08CFD144F154B1B685B8800
:102110009BB299B24FF000024FF000034FF0000461
:10212000D40344EA5144CB0313F5FA7544F1000695
:102130004FF47A724FF000032846314633F0C8F866
:1021400003460C460022194638462BF035FD03465F
:10215000184605B0F0BD00BFF07E0500204F0020FE
:10216000F04E002000B585B00E4B18462BF056FD02
:102170000390039B002B0DD00B482EF03FFF02462F
:10218000039B009340F26913084902202EF078FF68
:10219000039B02E00FF0FEFD0346184605B05DF814
:1021A00004FB00BF204F0020F07E0500CC7F05001F
:1021B00000B587B001900023ADF80A301C4B1B78A6
:1021C000012B31D10DF10A03184600F07BF905907F
:1021D000059B0493049B002B05D0164A4FF4BD7158
:1021E00004982AF01DFDBDF80A30002B04D11249D5
:1021F00002202EF009FF10E0BDF80A3018460BF05F
:10220000DFFC0590059B0393039B002B05D0094A37
:1022100040F2831103982AF003FD054B02221A7045
:10222000064B18462BF0FAFC00BF07B05DF804FB24
:10223000FB4E0020F07E050020800500804F00202E
:1022400000B589B003468DED020AADF80E301E4B85
:102250001B78002B33D0BDF80E301A469200134481
:102260005B00ADF81E30DDED027A9FED187A67EE67
:10227000877AFDEEE77A17EE903A0693BDF81E20B6
:10228000069B134904202EF0E4FEBDF81E3006998B
:1022900018460BF0B5FB0590059B002B0DD00D48A3
:1022A0002EF0ACFE0246059B00934FF4D3730A490F
:1022B00002202EF0E5FE059B02E0002300E0002353
:1022C000184609B05DF804FBFC4E002000007A447B
:1022D00088800500F07E0500CC7F050000B585B044
:1022E000114B00221A70114B1B78002B13D111F0E7
:1022F00047FD0390039B002B0DD00D482EF07EFE72
:102300000246039B00934FF4E1730A4902202EF02A
:10231000B7FE039B04E0084B18462BF07FFC0346F6
:10232000184605B05DF804FBFC4E0020FD4E002071
:10233000F07E0500CC7F0500804F002000B585B001
:1023400001900A4B01221A7011F0C6FE0390039B04
:102350000293029B002B05D0054A4FF4EA710298C4
:102360002AF05EFC00BF05B05DF804FBF84E0020CB
:10237000F07E0500F0B585B02A4B01221A702A4B79
:1023800001221A7011F092FC0390039B002B0DD0D8
:1023900026482EF033FE0246039B009340F2E113E1
:1023A000234902202EF06CFE039B37E011F094FECF
:1023B0000390039B002B0DD01C482EF01FFE0246FD
:1023C000039B00934FF4F273194902202EF058FE3C
:1023D000039B23E0174F184B1B689B889BB299B255
:1023E0004FF000024FF000034FF00004D40344EA22
:1023F0005144CB0313F5FA7544F100064FF47A7299
:102400004FF000032846314632F062FF03460C4687
:102410000022194638462BF0CFFB0346184605B07C
:10242000F0BD00BFF84E0020FD4E0020F07E0500FC
:10243000CC7F0500404F0020F04E002000B587B053
:1024400003468DF80F30194B00221A70184B1846AE
:102450002BF0E4FB0590059B002B0DD015482EF0CA
:10246000CDFD0246059B009340F2F5131249022070
:102470002EF006FE059B14E09DF80F30002B0FD0C8
:102480000E4B00221A700E4B1B7883F00103DBB257
:10249000002B03D011F074FC034602E0002300E09F
:1024A0000023184607B05DF804FB00BFF84E00207B
:1024B000404F0020F07E0500CC7F0500FD4E00203F
:1024C000FC4E002000B583B00190284B1B681B7A9E
:1024D000032B43D801A252F823F000BFED240200E1
:1024E000092502002525020041250200204B1B681A
:1024F0001B889AB2019B1A80019B1B881A461D49B2
:1025000004202EF092FD2BE0194B1B685B889AB2D9
:10251000019B1A80019B1B881A46174904202EF044
:1025200084FD1DE0124B1B689B889AB2019B1A80A8
:10253000019B1B881A46114904202EF076FD0FE0FE
:102540000B4B1B68DB889AB2019B1A80019B1B888E
:102550001A460B4904202EF068FD01E0082300E034
:102560000023184603B05DF804FB00BFF04E0020C6
:10257000F44E0020E880050050810500B48105007C
:102580001882050000B587B00346ADF80E30314B18
:102590001B681B7A032B3FD801A252F823F000BF1F
:1025A000B1250200CB250200E5250200FF2502002F
:1025B000294B1B68BDF80E201A80BDF80E301A4654
:1025C000264904202EF031FD28E0234B1B68BDF87E
:1025D0000E205A80BDF80E301A46214904202EF0F4
:1025E00024FD1BE01C4B1B68BDF80E209A80BDF833
:1025F0000E301A461B4904202EF017FD0EE0164B34
:102600001B68BDF80E20DA80BDF80E301A46164958
:1026100004202EF00AFD01E0082317E00E4B1B6892
:10262000184600F0DDFF0590059B002B0DD00F48EC
:102630002EF0E4FC0246059B009340F24E230C4929
:1026400002202EF01DFD059B00E00023184607B078
:102650005DF804FBF04E0020F44E00207C82050063
:10266000E082050040830500A4830500F07E05009C
:10267000CC7F050000B585B0284B1B681B7A1A4635
:10268000274904202EF0D1FC244B1B681B7A032B16
:102690001AD801A252F823F0A9260200B12602009E
:1026A000B9260200C126020000238DF80F300FE08A
:1026B00001238DF80F300BE002238DF80F3007E077
:1026C00003238DF80F3003E002238DF80F3000BF95
:1026D0009DF80F3018460BF0E9FA0290029B002B90
:1026E0000DD010482EF08AFC0246029B009340F267
:1026F0006F230D4902202EF0C3FC029B0AE00B4B16
:1027000001221A700A4B00224FF0617118462BF01B
:1027100053FA0346184605B05DF804FBF04E00205E
:1027200008840500F07E0500CC7F0500FB4E0020EC
:10273000804F002000B585B0274B1B78022B41D17C
:10274000FFF7CCFD0390039B002B0DD023482EF008
:1027500055FC0246039B009340F28123204902204E
:102760002EF08EFC039B33E00DF10A0318460BF0AC
:10277000B5F90390039B002B0DD018482EF03EFCBA
:102780000246039B00934FF42173154902202EF05B
:1027900077FC039B1CE0BDF80A301846FFF7F2FEF9
:1027A0000390039B002B0DD00C482EF027FC024613
:1027B000039B009340F28723094902202EF060FC1E
:1027C000039B05E0044B00221A700BF017FC034634
:1027D000184605B05DF804FBFB4E0020F07E0500B6
:1027E000CC7F050000B587B00190134B1B685B7A66
:1027F0008DF80C30104B1B689B7A8DF80D300E4B0A
:102800001B68DB7A8DF80E3003AB1946002009F007
:10281000EDFD0CF00FFB0590059B0493049B002B32
:1028200005D0064A40F29F2104982AF0F9F900BF2A
:1028300007B05DF804FB00BFF04E0020F07E0500FD
:10284000F0B585B02B4B1B685B7A8DF80030294BB7
:102850001B689B7A8DF80130264B1B68DB7A8DF85C
:1028600002306B461946002009F0C0FD0CF044FB15
:102870000390039B0293029B002B05D01E4A40F25B
:10288000AF2102982AF0CCF90CF0D4FA0390039B04
:102890000193019B002B05D0174A40F2B221019809
:1028A0002AF0BEF9154F134B1B68DB889BB299B217
:1028B0004FF000024FF000034FF00004D40344EA4D
:1028C0005144CB0313F5FA7544F100064FF47A72C4
:1028D0004FF000032846314632F0FAFC03460C461E
:1028E0000022194638462BF067F90346184605B012
:1028F000F0BD00BFF04E0020F07E0500604F0020CC
:1029000000B585B0124B18462BF088F90390039B55
:102910000293029B002B05D00E4A40F2BF21029881
:102920002AF07EF9002009F00FFD0CF0BBFB0390AC
:10293000039B0193019B002B05D0064A4FF4317194
:1029400001982AF06DF90023184605B05DF804FBE4
:10295000604F0020F07E050000B585B00190019B1E
:102960001B889BB2632B32D9019B1B889BB24EF60E
:10297000602293422BD8019B5B889BB2312B26D9D6
:10298000019B5B889BB24EF6602293421FD8019B4D
:102990009B889BB2632B1AD9019B9B889BB24EF6F6
:1029A0006022934213D8019BDB889BB2C72B0ED9C0
:1029B000019BDB889BB24EF66022934207D8019BB5
:1029C0001B7A002B03D0019B1B7A032B0ED90A48DC
:1029D00000F04EFD0390039B0293029B002B05D059
:1029E000064A40F2DA2102982AF01AF90023184622
:1029F00005B05DF804FB00BFE87D0500F07E050032
:102A000000B589B00190019B002B01D10E236AE033
:102A10000020FFF7FFFAFFF7A5FB0120FFF70EFDEF
:102A2000FFF76EFF019B1B889BB2002B12D0304B2F
:102A300093F83630002B0DD0FFF776FA0790079BFE
:102A40000693069B002B05D02A4A40F2F3210698F4
:102A50002AF0E6F8019B5B889BB2002B12D0244B36
:102A600093F83730002B0DD0FFF730FB0790079B12
:102A70000593059B002B05D01E4A40F2FA210598CC
:102A80002AF0CEF8019B9B889BB2002B12D0184BEA
:102A900093F83830002B0DD0FFF76CFC0790079BA4
:102AA0000493049B002B05D0124A40F20131049894
:102AB0002AF0B6F8019BDB889BB2002B12D00C4B9E
:102AC00093F83A30002B0DD0FFF7BAFE0790079B22
:102AD0000393039B002B05D0064A4FF442710398E1
:102AE0002AF09EF80023184609B05DF804FB00BFE9
:102AF000B04E0020F07E050000B593B00390019227
:102B00001A460B468DF80B301346ADF808309DF889
:102B10000B30052B00F2428101A252F823F000BFD6
:102B2000392B0200B12B02000B2C0200832C020077
:102B3000D92C02002F2D0200039B93F836301A4641
:102B40009F4904202EF071FA039B93F83630002B36
:102B50000FD0FFF7E9F91190119B1093109B002BF8
:102B600000F01E81974A40F2273110982AF058F859
:102B700016E1039B93F83830002B14BF0123002388
:102B8000DBB283F00103DBB203F00103DBB21846D2
:102B9000FFF740FA1190119B0F930F9B002B00F051
:102BA000FF80884A4FF44B710F982AF039F8F7E00C
:102BB000039B93F837301A46834904202EF035FAE8
:102BC000039B93F83730002B0FD0FFF77FFA11905B
:102BD000119B0E930E9B002B00F0E480794A40F28B
:102BE00035310E982AF01CF8DCE0FFF7BBFA1190A3
:102BF000119B0D930D9B002B00F0D480714A40F285
:102C00003A310D982AF00CF8CCE0039B93F8383059
:102C10001A466E4904202EF008FA039B93F83830C8
:102C2000002B0FD0FFF7A6FB1190119B0C930C9B70
:102C3000002B00F0B980634A40F243310C9829F030
:102C4000EFFFB1E0039B93F83630002B14BF012354
:102C50000023DBB283F00103DBB203F00103DBB23C
:102C60001846FFF7EBFB1190119B0B930B9B002B6E
:102C700000F09A80534A4FF452710B9829F0D0FF1C
:102C800092E0039B93F839301A46514904202EF004
:102C9000CCF9039B93F83930002B0ED0FFF7EAFCF8
:102CA0001190119B0A930A9B002B7FD0454A40F25A
:102CB00051310A9829F0B4FF78E0FFF73BFD1190FD
:102CC000119B0993099B002B70D03E4A40F256316C
:102CD000099829F0A5FF69E0039B93F83A301A465A
:102CE0003C4904202EF0A1F9039B93F83A30002BC5
:102CF0000ED0FFF7A5FD1190119B0893089B002BA8
:102D000056D0304A40F25F31089829F089FF4FE0F1
:102D1000FFF7F6FD1190119B0793079B002B47D0FF
:102D2000284A4FF45971079829F07AFF40E0BDF81E
:102D300008301A46284904202EF077F9BDF80830EB
:102D40000C2B0CBF01230023DBB20693069B002B48
:102D500005D11C4A40F26B31002029F061FF019837
:102D600000F086FB1190119B0593059B002B05D06D
:102D7000144A40F26E31059829F052FF0198FFF78E
:102D80003FFE1190119B0493049B002B12D00D4A1F
:102D900040F27131049829F043FF0BE000BF0AE0D4
:102DA00000BF08E000BF06E000BF04E000BF02E093
:102DB00000BF00E000BF00BF13B05DF804FB00BF20
:102DC0003C840500F07E05008C840500D884050055
:102DD000248505006C850500B485050000B597B015
:102DE00003468DF80F3000238DF8483000238DF80E
:102DF00049300023109300238DF8443000238DF8D0
:102E00003F300DAB00221A605A600023ADF830301D
:102E10000023ADF83230464B464A4749474800F058
:102E200097FC1590159B002B0DD045482EF0E6F829
:102E30000246159B009340F28E33424902202EF049
:102E40001FF9159B6FE09DF80F30002B1DD03B48FC
:102E500000F00EFB1590159B1493149B002B05D0CE
:102E6000374A40F29331149829F0DAFE314800F0E5
:102E7000B7FB1590159B1393139B002B05D0304A7D
:102E800040F29631139829F0CBFE2B4B1B68184665
:102E9000FFF762FD1590159B002B0DD028482EF0F2
:102EA000ADF80246159B009340F29A332549022063
:102EB0002EF0E6F8159B36E005AB1C2200211846E3
:102EC00032F06BFE12AB059310AB06930DF13F038E
:102ED00007930DAB09930CAB0893174B1B680A9330
:102EE000194B0B93194903202EF08EF805AB1946A8
:102EF000174821F035F81590159B002B0DD0104880
:102F00002EF07CF80246159B00934FF46A730D492E
:102F100002202EF0B5F8159B05E0074B1B681846FC
:102F2000FFF76EFD0023184617B05DF804FB00BFE5
:102F3000F44E0020F47D0500F04E0020E87D0500F1
:102F4000F07E0500CC7F0500F92A0200008605000E
:102F5000B04E002000B585B0019001990C4820F0DA
:102F6000CEFF019B1B88112B0DD100F0B1F803900F
:102F7000039B0293029B002B05D0064A40F2BE3110
:102F8000029829F04DFE00BF05B05DF804FB00BFBC
:102F9000B04E0020F07E050000B589B001900023FE
:102FA00007935F238DF8083018230393019B049344
:102FB000064B0593064B069302AB184610F086FDB0
:102FC0000790079B184609B05DF804FB548605007E
:102FD000311D020000B589B001905C238DF80830E6
:102FE00017230393019B0493074B0593074B069309
:102FF00001238DF81C3002AB18460EF07DFD034610
:10300000184609B05DF804FB64860500C91C02007F
:1030100000B58BB00390039B0593114B06935A2385
:103020008DF81C300F4B089305AB18460BF0EAF8EF
:103030000990099B002B0DD00B482DF0DFFF0246B5
:10304000099B009340F20A43084902202EF018F829
:10305000099B00E0002318460BB05DF804FB00BF9D
:1030600074860500351E0200F07E0500CC7F050049
:1030700000B58BB00390039B0593114B0693382347
:103080008DF81C300F4B089305AB18460BF038FE3B
:103090000990099B002B0DD00B482DF0AFFF024685
:1030A000099B009340F22343084902202DF0E8FFDA
:1030B000099B00E0002318460BB05DF804FB00BF3D
:1030C000848605007D1E0200F07E0500CC7F050091
:1030D00000B587B00020FEF79DFF0590059B049387
:1030E000049B002B05D0224A40F23441049829F079
:1030F00097FDFFF737F80590059B0393039B002B83
:1031000005D01B4A40F23741039829F089FD012080
:10311000FFF794F90590059B0293029B002B05D0C5
:10312000134A40F23A41029829F07AFDFFF7E8FB92
:103130000590059B0193019B002B05D00C4A40F2A2
:103140003D41019829F06CFDFFF7F4FA0590059BCD
:103150000093009B002B05D0054A4FF4886100982E
:1031600029F05EFD0023184607B05DF804FB00BFA0
:10317000F07E050000B58DB003900291039B002BFB
:1031800001D10E23BAE0029B002B01D10E23B5E042
:103190005C4903202DF038FF039B5B4A5A60039B78
:1031A0005A4A1A60029B1B681846FFF713FF0B90E0
:1031B0000B9B0A930A9B002B05D0554A40F25441C1
:1031C0000A9829F02DFD029B1B681846FFF7E4FEC4
:1031D0000B900B9B0993099B002B05D04C4A40F2A6
:1031E0005741099829F01CFD029B1B681846FFF700
:1031F0000FFF0B900B9B0893089B002B05D0444AB4
:1032000040F25A41089829F00BFD029B1B681846B2
:10321000FFF72EFF0B900B9B0793079B002B05D00E
:103220003B4A40F25D41079829F0FAFC394A0121F6
:1032300039482AF091FC0B900B9B0693069B002BC0
:1032400005D0334A40F26141069829F0E9FC334A3F
:10325000012133482AF080FC0B900B9B0593059BC2
:10326000002B05D02A4A40F26441059829F0D8FC89
:103270002C4A01212C482AF06FFC0B900B9B002B51
:103280000DD023482DF0BAFE02460B9B009340F26E
:103290006743264902202DF0F3FE0B9B2EE0244AC3
:1032A000012124482AF058FC0B900B9B002B0DD0D9
:1032B00017482DF0A3FE02460B9B009340F26A4391
:1032C0001A4902202DF0DCFE0B9B17E01A4A01215F
:1032D0001A482AF041FC0B900B9B002B0DD00C4898
:1032E0002DF08CFE02460B9B009340F26D430F497C
:1032F00002202DF0C5FE0B9B00E0002318460DB008
:103300005DF804FB30860500552F0200DD2D02001C
:10331000F07E0500F11E0200FC7D05009D200200EC
:10332000007E05003D230200047E0500CC7F0500E1
:10333000E5270200087E0500B12102000C7E050091
:1033400000B589B00390039B1B78002B02D0012BA2
:103350001AD05BE0039B5B68002B06D13A4B01223D
:103360001A703A4B01221A7065E0394901202DF09C
:103370004BFE00230793079B002B5CD1354A72213B
:10338000002029F04DFC56E0039B5B68002B2ED1FA
:10339000039B9B8941F20102934210D1039B1B7C4A
:1033A0001A46039B9B891946039BDB8900930B46B6
:1033B000294903202DF064FE284B01221A70039B3B
:1033C0009B8941F20302934237D1039B1B7C1A462F
:1033D000039B9B891946039BDB8900930B4620497D
:1033E00003202DF04DFE1F4B01221A7025E01E49CF
:1033F00001202DF009FE00230693069B002B1CD113
:10340000144A8C21002029F00BFC16E0039B1B784A
:103410001A46039B5B68154903202DF01AFE039B97
:103420005B680593059B002B09D00A4A91210598FA
:1034300029F0F6FB03E000BF02E000BF00E000BFA0
:1034400000BF09B05DF804FBD54F0020D74F002026
:1034500094860500C486050014870500D44F00201B
:1034600064870500D64F0020B8870500E88705006F
:1034700000B58BB003901F4903202DF0C5FD039BC1
:10348000002B01D10E2330E00C2203991A4832F0B0
:103490005BFB1A4B42221A60184B04930423ADF8CD
:1034A000143041F20103ADF8183041F20203ADF8D7
:1034B0001A3004AB07930123ADF8203006AB194650
:1034C0000F482CF05EFD0990099B002B0CD00D4895
:1034D0002DF094FD0246099B0093AE230A49022079
:1034E0002DF0CEFD099B00E0002318460BB05DF8DF
:1034F00004FB00BF18880500BC4F0020B84F002017
:10350000A04F0020C48605004888050000B58BB098
:10351000039005AB08220021184632F03EFB2A49F1
:1035200003202DF071FD05AB284A41F2020141F262
:1035300001002CF095FD0990099B002B0CD024482C
:103540002DF05CFD0246099B0093BF232149022018
:103550002DF096FD099B33E007AB19461B482CF074
:1035600085FC0990099B002B0CD019482DF046FDD5
:103570000246099B0093C223164902202DF080FDCC
:10358000099B1DE0089B10221946134832F0DCFA13
:103590000E482CF0A7FC0990099B002B0CD00C487E
:1035A0002DF02CFD0246099B0093C72309490220F8
:1035B0002DF066FD099B03E0039B084A1A60002377
:1035C00018460BB05DF804FB9C880500A04F002056
:1035D000C486050048880500B84F0020BC4F002075
:1035E00000B58BB003901F4904202DF00DFD039B07
:1035F000002B01D10E2330E0082203991A4832F043
:10360000A3FA1A4B42221A60184B04930323ADF815
:10361000143041F20303ADF8183041F20403ADF861
:103620001A3004AB07930123ADF8203006AB1946DE
:103630000F482CF0A6FC0990099B002B0CD00D48DC
:103640002DF0DCFC0246099B0093E6230A49022088
:103650002DF016FD099B00E0002318460BB05DF825
:1036600004FB00BFCC880500CC4F0020C84F0020D1
:10367000AC4F0020C48605004888050000B58BB01B
:10368000039005AB08220021184632F086FA2A4939
:1036900004202DF0B9FC05AB284A41F2040141F2A7
:1036A00003002CF0DDFC0990099B002B0CD0244872
:1036B0002DF0A4FC0246099B0093F7232149022028
:1036C0002DF0DEFC099B33E007AB19461B482CF0BC
:1036D000CDFB0990099B002B0CD019482DF08EFCD6
:1036E0000246099B0093FA23164902202DF0C8FCDC
:1036F000099B1DE0089B0C221946134832F024FA5E
:103700000E482CF0EFFB0990099B002B0CD00C48C5
:103710002DF074FC0246099B0093FF230949022007
:103720002DF0AEFC099B03E0039B084A1A600023BE
:1037300018460BB05DF804FBFC880500AC4F002078
:10374000C486050048880500C84F0020CC4F0020E3
:1037500000B593B005900491039202938D49032024
:103760002DF052FC059B002B01D10E230DE1039B94
:10377000002B01D10E2308E187482CF0E1FA1190CB
:10378000119B002B0DD085482DF038FC0246119B73
:1037900000934FF48A73824902202DF071FC119B33
:1037A000F3E02CF0EDFA1190119B002B0FD07B4829
:1037B0002DF024FC0246119B009340F21713784928
:1037C00002202DF05DFC119BDFE029F0ABFB754B77
:1037D0001B7883F00103DBB2002BF6D1724B1B7810
:1037E00083F00103DBB2002BEFD10498FFF78EFECC
:1037F0001190119B0A2B45D16C4903202DF004FC3C
:103800000C2205996A4832F09FF96A4B42221A60ED
:10381000684B0C930423ADF8343041F20103ADF84A
:10382000383041F20203ADF83A300CAB0F9301236C
:10383000ADF84030604B00221A700EAB19465F485D
:103840002CF090FB1190119B002B0DD053482DF0C4
:10385000D5FB0246119B009340F2351350490220DC
:103860002DF00EFC119B90E0049B514A1A6001E080
:1038700029F058FB504B1B7883F00103DBB2002B7F
:10388000F6D110E0119B002B0DD044482DF0B6FB73
:103890000246119B00934FF4A073414902202DF082
:1038A000EFFB119B71E00298FFF7E8FE1190119B6E
:1038B0000A2B58D1039B1B889BB21946039B5B883C
:1038C0009BB21846039B9B889BB21A46039BDB88DE
:1038D0009BB20193009203460A46394903202DF01A
:1038E000E8FB08220399374832F02EF9364B422282
:1038F0001A60354B07930323ADF8203041F20303E0
:10390000ADF8243041F20403ADF8263007AB0A933A
:103910000123ADF82C302D4B00221A7009AB19464B
:103920002B482CF01FFB1190119B002B0DD01B4836
:103930002DF064FB0246119B00934FF4AD731849C0
:1039400002202DF09DFB119B1FE0029B1D4A1A6077
:1039500001E029F0E7FA1D4B1B7883F00103DBB28D
:10396000002BF6D110E0119B002B0DD00B482DF051
:1039700045FB0246119B009340F265130849022063
:103980002DF07EFB119B00E00023184613B05DF87C
:1039900004FB00BF2889050041330200C4860500EE
:1039A00048880500D54F0020D74F002054890500D6
:1039B000BC4F0020B84F0020D44F0020A04F002063
:1039C00088890500CC4F0020C84F0020D64F00202A
:1039D000AC4F002000B589B00190019B002B01D1B4
:1039E0000E2327E0019B1B889BB2ADF80C30019B96
:1039F0005B889BB2ADF80E30019B9B889BB2ADF803
:103A00001030019BDB889BB2ADF81230019B1B7A12
:103A10008DF8143003AB18460DF0BEFB0790079BE2
:103A20000693069B002B04D0044A4C21069829F0EB
:103A3000F7F80023184609B05DF804FBF08905008B
:103A400000B59BB0039001921A460B468DF80B30DF
:103A50001346ADF808309DF80B300B2B00F21382A3
:103A600001A252F823F000BF1F3E0200993A020063
:103A7000F73A0200553B0200AF3B02000D3C02004A
:103A8000673C0200C13C02001B3D0200993D020060
:103A9000EF3D0200013E0200039B93F866301A4698
:103AA000B44903202DF0C1FA039B93F86630002B34
:103AB00010D04FF480700DF0BFF91990199B189336
:103AC000189B002B00F0E181AB4A6021189829F087
:103AD000A7F8DAE14FF480700DF0D6FA1990199B2F
:103AE0001793179B002B00F0D081A34A65211798EC
:103AF00029F096F8C9E1039B93F867301A469F496D
:103B000003202DF092FA039B93F86730002B10D01E
:103B10004FF400700DF090F91990199B1693169BB5
:103B2000002B00F0B481944A6E21169829F078F8A1
:103B3000ADE14FF400700DF0A7FA1990199B1593A1
:103B4000159B002B00F0A3818B4A7321159829F057
:103B500067F89CE1039B93F868301A468849032074
:103B60002DF063FA039B93F86830002B0FD00820E8
:103B70000DF062F91990199B1493149B002B00F01F
:103B800088817D4A7C21149829F04AF881E1082037
:103B90000DF07AFA1990199B1393139B002B00F0E8
:103BA0007881754A8121139829F03AF871E1039BD5
:103BB00093F869301A46734903202DF036FA039BB7
:103BC00093F86930002B10D04FF480600DF034F979
:103BD0001990199B1293129B002B00F05C81664A8E
:103BE0008A21129829F01CF855E14FF480600DF0FD
:103BF0004BFA1990199B1193119B002B00F04B81EC
:103C00005D4A8F21119829F00BF844E1039B93F84A
:103C10006A301A465C4903202DF007FA039B93F89B
:103C20006A30002B0FD007200DF006F91990199B70
:103C30001093109B002B00F030814F4A9821109870
:103C400028F0EEFF29E107200DF01EFA1990199BCC
:103C50000F930F9B002B00F02081474A9D210F9866
:103C600028F0DEFF19E1039B93F86B301A464749B1
:103C700003202DF0DAF9039B93F86B30002B0FD063
:103C800010200DF0D9F81990199B0E930E9B002B64
:103C900000F00581384AA6210E9828F0C1FFFEE009
:103CA00010200DF0F1F91990199B0D930D9B002B2D
:103CB00000F0F580304AAB210D9828F0B1FFEEE01E
:103CC000039B93F86C301A46314903202DF0ADF96F
:103CD000039B93F86C30002B0FD020200DF0ACF834
:103CE0001990199B0C930C9B002B00F0DA80224A50
:103CF000B4210C9828F094FFD3E020200DF0C4F9F3
:103D00001990199B0B930B9B002B00F0CA801A4A49
:103D1000B9210B9828F084FFC3E0039B93F86D3022
:103D20001A461C4903202DF080F9039B93F86D304F
:103D3000002B0FD040200DF07FF81990199B0A93AB
:103D40000A9B002B00F0AF800B4AC2210A9828F092
:103D500067FFA8E040200DF097F91990199B09938F
:103D6000099B002B00F09F80034AC721099828F087
:103D700057FF98E0388A0500F0890500848A05001D
:103D8000D88A0500248B0500748B0500C08B0500C4
:103D90000C8C05005C8C0500039B93F86E301A4672
:103DA000454903202DF041F9039B93F86E30002B19
:103DB0000ED080200DF040F81990199B0893089BB5
:103DC000002B72D03D4AD021089828F029FF6CE0E2
:103DD00080200DF059F91990199B0793079B002B30
:103DE00063D0364AD521079828F01AFF5DE0039B7F
:103DF00093F86F301A46324903202DF016F957E038
:103E0000BDF80830039A0199184603F065FFBDF824
:103E100008301A460021019831F0BFFE48E0BDF895
:103E200008301A46274903202DF0FFF8BDF8083066
:103E3000092B0CBF01230023DBB20693069B002B4A
:103E400004D11E4AF021002028F0EAFE019800F07B
:103E500031FF1990199B0593059B002B04D0174A3D
:103E6000F321059828F0DCFE0198FFF7B3FD1990C7
:103E7000199B0493049B002B19D0104AF621049837
:103E800028F0CEFE13E000BF12E000BF10E000BF3C
:103E90000EE000BF0CE000BF0AE000BF08E000BF7A
:103EA00006E000BF04E000BF02E000BF00E000BF8A
:103EB00000BF1BB05DF804FBAC8C0500F089050069
:103EC000FC8C05004C8D050000B589B003468DF8CB
:103ED0000F303249324800F0A5FF0790079B002BB6
:103EE0000DD030482DF08AF80246079B009340F22F
:103EF0000D132D4902202DF0C3F8079B49E09DF8D2
:103F00000F30002B0ED0264800F0D4FE0790079B00
:103F10000693069B002B05D0224A4FF48971069820
:103F200028F07EFE1D4B1B681846FFF753FD0790D7
:103F3000079B002B0DD01B482DF060F80246079B15
:103F400000934FF48B73184902202DF099F8079BCA
:103F50001FE004AB08220021184631F01EFE0F4B73
:103F60001B680493114B0593114903202DF04CF865
:103F700004AB19460F4822F0DFFF0790079B002B88
:103F800006D0079A0C4901202DF04FF8079B00E05E
:103F90000023184609B05DF804FB00BF5450002010
:103FA000E4890500F08905009C8D0500413A020076
:103FB000F08D0500D84F0020308E050000B585B08B
:103FC000019001990D4822F087FF019B1B88112B5E
:103FD0000FD140F6FF700DF057F80390039B02934A
:103FE000029B002B05D0064A40F23711029828F0B8
:103FF00017FE00BF05B05DF804FB00BFD84F0020DE
:10400000F08905002DE9F047BAB002AFF860B96059
:104010007A60FB681B78082B00F2718501A252F8C8
:1040200023F000BF49400200FD4402005545020054
:10403000DF4502006B480200BB480200E74902006E
:104040003D4A0200AD4A02007B68242B0CBF0123CD
:104050000023DBB2C7F8D830D7F8D830002B05D111
:104060001F4A4FF4A171002028F0DAFDBB68C7F8A1
:10407000D430002387F8DD3064E097F8DD309B0012
:10408000D7F8D42013441B681B14A7F8D23097F834
:10409000DD30144A32F91330B7F9D2209A4225DBC9
:1040A00097F8DD10B7F9D20097F8DD300D4A32F9F4
:1040B0001330009303460A460B4902202CF0E0FF20
:1040C00097F8DD30074A32F91330194697F8DD309A
:1040D0009B00D7F8D42013440A041A602DE000BFD7
:1040E000F0890500649305005C8E050097F8DD30CB
:1040F000C54A32F91330B7F9D2209A421DDA97F83F
:10410000DD10B7F9D20097F8DD30BF4A32F913302D
:10411000009303460A46BD4902202CF0B1FF97F8F0
:10412000DD30B94A32F91330194697F8DD309B007B
:10413000D7F8D42013440A041A6097F8DD3001330D
:1041400087F8DD3097F8DD30082B96D9D7F8D430D2
:104150001B689B111BB2A7F86430D7F8D430043326
:104160001B689B111BB2A7F86630D7F8D430083310
:104170001B689B111BB2A7F86830D7F8D4300C33FA
:104180001B68DB121BB2A7F86A30D7F8D4301033A3
:104190001B68DB121BB2A7F86C30D7F8D43014338D
:1041A0001B68DB121BB2A7F86E30D7F8D430183377
:1041B0001B681B139BB25B429BB21BB2A7F8723009
:1041C000D7F8D4301C331B681B131BB2A7F8703010
:1041D000D7F8D43020331B681B131BB2A7F87430F8
:1041E0008B4904202CF010FFD7F8D4301B681846F8
:1041F0002EF080FE03460C46C7E932344FF0000231
:10420000844BD7E932012FF005FA03460C46C7E983
:10421000323407F15C00D7E932237F4931F0C8FA24
:1042200007F15C0318462CF0E9FE03461A467B4969
:1042300004202CF0FAFED7F8D43004331B6818465B
:104240002EF058FE03460C46C7E932344FF0000208
:10425000704BD7E932012FF0DDF903460C46C7E970
:10426000323407F15C00D7E932236B4931F0A0FA10
:1042700007F15C0318462CF0C1FE03461A46684954
:1042800004202CF0D2FED7F8D43008331B6818462F
:104290002EF030FE03460C46C7E932344FF00002E0
:1042A0005C4BD7E932012FF0B5F903460C46C7E95C
:1042B000323407F15C00D7E93223574931F078FAFC
:1042C00007F15C0318462CF099FE03461A4655493F
:1042D00004202CF0AAFED7F8D4300C331B68184603
:1042E0002EF008FE03460C46C7E932344FF00002B8
:1042F000484BD7E932012FF08DF903460C46C7E948
:10430000323407F15C00D7E93223434931F050FAE7
:1043100007F15C0318462CF071FE03461A46424929
:1043200004202CF082FED7F8D43010331B681846D6
:104330002EF0E0FD03460C46C7E932344FF0000290
:10434000344BD7E932012FF065F903460C46C7E933
:10435000323407F15C00D7E932232F4931F028FAD3
:1043600007F15C0318462CF049FE03461A462F4914
:1043700004202CF05AFED7F8D43014331B681846AA
:104380002EF0B8FD03460C46C7E932344FF0000268
:10439000204BD7E932012FF03DF903460C46C7E91F
:1043A000323407F15C00D7E932231B4931F000FABF
:1043B00007F15C0318462CF021FE03461A461C49FF
:1043C00004202CF032FED7F8D4301C331B6818467A
:1043D0002EF090FD03460C46C7E932344FF0000240
:1043E0000C4BD7E932012FF015F903460C46C7E90B
:1043F000323407F15C00D7E93223074931F0D8F9AC
:1044000007F15C03184615E078930500A88E0500B7
:10441000F48E05000000F040248F05002C8F05006D
:104420005C8F05008C8F0500BC8F0500F08F0500A8
:10443000249005002CF0E2FD03461A46BC490420F6
:104440002CF0F3FDD7F8D43018331B6818462EF043
:1044500051FD03460C461A46C7F8C82084F00043B5
:10446000C7F8CC304FF00002B24BD7E932012FF041
:10447000D1F803460C46C7E9323407F15C00D7E9AE
:104480003223AD4931F094F907F15C0318462CF062
:10449000B5FD03461A46A94904202CF0C6FDD7F8FD
:1044A000D43020331B6818462EF024FD03460C46FA
:1044B000C7E932344FF000029E4BD7E932012FF0AA
:1044C000A9F803460C46C7E9323407F15C00D7E986
:1044D0003223994931F06CF907F15C0318462CF04E
:1044E0008DFD03461A46964904202CF09EFD07F1E7
:1044F00064031946934822F00BFF05E37B68102BF9
:104500000CBF01230023DBB2C7F8C430D7F8C43096
:10451000002B05D18C4A40F2BF11002028F080FB0F
:10452000BB68C7F8C030D7F8C0301B68FB64D7F849
:10453000C0305B683B65D7F8C0309B687B65D7F8B7
:10454000C030DB68BB6507F14C0319467D4822F09B
:1045500059FED9E27B680C2B0CBF01230023DBB290
:10456000C7F8BC30D7F8BC30002B05D1764A40F2F2
:10457000E111002028F054FBBB68C7F8B830D7F829
:10458000B8301B683B64D7F8B8305B687B64D7F8F9
:10459000B8309B68BB643B6C002B02DA03F57F43A9
:1045A000FF331B141A467B6C002B02DA03F57F43A2
:1045B000FF331B141946BB6C002B02DA03F57F4353
:1045C000FF331B1400930B46604904202CF058FD68
:1045D00007F1400319465B4822F0DDFE94E26B468A
:1045E0009A467B68242B0CBF01230023DBB2C7F85B
:1045F000B430D7F8B430002B05D1534A4FF4F971D9
:10460000002028F00DFBBB68C7F8B030D7F8B030F9
:104610001B681B141BB2BB85D7F8B03004331B6872
:104620001B141BB2FB85D7F8B03008331B681B1472
:104630001BB23B86D7F8B0300C331B681B141BB27F
:104640007B86D7F8B03010331B681B141BB2BB86B7
:10465000D7F8B03014331B681B141BB2FB86D7F895
:10466000B03018331B681B141BB23B87D7F8B0302F
:104670001C331B681B141BB27B87D7F8B030203368
:104680001B681B141BB2BB87314B1B78013BC7F85F
:10469000AC302F4B1B78D9B24FF000020B461446BA
:1046A00013EB030844EB040943464C465B1842EB0A
:1046B00004044FF000014FF00002220142EA13729D
:1046C00019010B461446224B1B781A4613465B0011
:1046D00013445B001E4B1B78D9B24FF000020B460F
:1046E0001446DD1844EB04062B4634465B1842EBB7
:1046F00004044FF000014FF00002220142EA13725D
:1047000019010B461446124B1B781A4613465B00E0
:1047100013445B000733DB08DB00ADEB030D02AB9A
:104720000033C7F8A830002387F8DE3038E000BF38
:10473000589005000000F040248F05008890050087
:10474000B8900500D84F0020F0890500E8900500DA
:104750008A93050097F8DE309B00D7F8B020134409
:104760001B6818462EF0C6FB4FF00002C24B2EF01D
:1047700051FF03460C46C7E9283497F8DE2013465C
:104780005B0013445B00D7F8A820D018D7E9282392
:10479000BA4931F00DF897F8DE30013387F8DE3092
:1047A000B74B1B7897F8DE209A42D3D3B549042043
:1047B0002CF02AFCD7F8A83018462CF01FFC044631
:1047C000D7F8A830063318462CF018FC0546D7F861
:1047D000A8300C3318462CF011FC034600932B46EE
:1047E0002246A94904202CF04BFCD7F8A8301233FC
:1047F00018462CF003FC0446D7F8A83018331846A6
:104800002CF0FCFB0546D7F8A8301E3318462CF0D8
:10481000F5FB034600932B4622469B4904202CF0CF
:104820002FFCD7F8A830243318462CF0E7FB0446B9
:10483000D7F8A8302A3318462CF0E0FB0546D7F805
:10484000A830303318462CF0D9FB034600932B4692
:1048500022468D4904202CF013FC07F12C03194645
:104860008A4822F0DBFDD5464EE17B68042B0CBF65
:1048700001230023DBB2C7F89C30D7F89C30002B13
:1048800005D1834A40F21721002028F0C9F9BB68FE
:104890001B68BB62BB6A002B02DA03F57F43FF3360
:1048A0001B141A467B4904202CF0BFFB07F1280398
:1048B0001946764822F0F5FD26E16B461D467B68D9
:1048C0000C2B0CBF01230023DBB2C7F89830D7F8BC
:1048D0009830002B05D16E4A40F22221002028F0AA
:1048E0009FF9BB68C7F89430D7F894301B68FB6118
:1048F000D7F894305B683B62D7F894309B687B6252
:10490000654B1B78013BC7F89030634B1B78D9B2DD
:104910004FF000024FF000034FF00004940144EA0E
:1049200091648B015C4B1B78D9B24FF000024FF0C1
:1049300000034FF00004940144EA91648B01564B4C
:104940001B78DB000733DB08DB00ADEB030D02ABAC
:104950000033C7F88C30002387F8DF301AE097F86F
:10496000DF30DB00D7F88C20D41897F8DF309B00BD
:10497000D7F8942013441B6818462EF0F7FB024624
:104980000B464649204630F013FF97F8DF300133DD
:1049900087F8DF30404B1B7897F8DF209A42DED350
:1049A000D7F88C3018462CF029FB0446D7F88C3009
:1049B000083318462CF022FB0646D7F88C3010330B
:1049C00018462CF01BFB034600933346224634491D
:1049D00004202CF055FB07F11C0319462B4822F04C
:1049E000A4FDAD4690E07B68022B0CBF01230023A1
:1049F000DBB2C7F88830D7F88830002B05D1244ABD
:104A000040F23F21002028F00BF9BB68C7F8843042
:104A1000D7F884301B783B76D7F884305B787B7688
:104A20007B7E1A463B7E1F4904202CF012FB07F1C7
:104A300018031946154822F05FFB65E07B68012BDF
:104A40000CBF01230023DBB2C7F88030D7F88030D9
:104A5000002B05D10E4A4FF41471002028F0E0F825
:104A6000BB681B781A46104904202CF0DEFAB9689E
:104A7000064822F084FB47E00000D0414C9105003D
:104A80008A9305005491050088910500D84F0020B5
:104A9000F0890500B09105008B930500F0910500A9
:104AA000F8910500449205007C9205007B68082B74
:104AB0000CBF01230023DBB2FB67FB6F002B05D18A
:104AC000144A40F25A21002028F0AAF8BB68BB67BC
