:020000021000EC
:10F000000000012033F10100D9F00100DBF0010024
:10F01000DDF00100DFF00100E1F001000000000080
:10F02000000000000000000000000000E3F001000C
:10F03000E5F0010000000000E7F00100E9F0010048
:10F0400049B10400EDF00100EFF00100A9A40400B3
:10F05000F3F00100A9200500B193040029B40400D5
:10F06000FBF00100FDF00100FFF0010001F10100E3
:10F0700003F101000DC3040007F1010009F10100D3
:10F080000BF1010029D904000FF1010011F1010079
:10F0900069D9040015F10100310C050019F10100D6
:10F0A0001BF101001DF10100B5C40400111E050093
:10F0B000C1AD0400C5BE0400000000000000000057
:10F0C00027F1010029F101002BF101002DF10100D0
:08F0D0002FF1010031F10100F4
:10F0D800FEE7FEE7FEE7FEE7FEE7FEE7FEE7FEE700
:10F0E800FEE7FEE7FEE7FEE7FEE7FEE7FEE7FEE7F0
:10F0F800FEE7FEE7FEE7FEE7FEE7FEE7FEE7FEE7E0
:10F10800FEE7FEE7FEE7FEE7FEE7FEE7FEE7FEE7CF
:10F11800FEE7FEE7FEE7FEE7FEE7FEE7FEE7FEE7BF
:10F12800FEE7FEE7FEE7FEE7FEE70348854600F058
:10F13800C5F800F003B87047000001203749384887
:10F148000A1A02D0072291438D46364936480A1AD0
:10F1580006D00722914381F30988022282F314889A
:10F1680032483349334A00F048F833483349344A7F
:10F1780000F043F833483449344A00F03EF8344844
:10F188003449354A00F039F834483549354A00F0F1
:10F1980034F835483549364A00F02FF835483649AD
:10F1A800364A00F02AF836483649374A00F025F83A
:10F1B80036483749002200F02BF8364836490022F5
:10F1C80000F026F835483649091A082903DB0022D9
:10F1D8000260043001601F481F49884205D0026858
:10F1E800043003B4904703BCF7E700208646EC469A
:10F1F800002000212B4A9047FEE7884207D0521A88
:10F2080005D0037801300B700131013AF9D170470C
:10F21800884202D002700130FAE7704700000120EE
:10F2280000FC00200000012000000120503D0600E5
:10F238005845002078460020B0F20100B0F20100E5
:10F24800286A0500503D0600584500205845002012
:10F25800286A0500286A0500286A0500286A05004A
:10F26800286A0500286A0500286A0500286A05003A
:10F27800503D0600703E0600784600207846002083
:10F28800703E060078460020884600208846002008
:10F2980038A1002038A1002040A1002040A1002072
:08F2A80040A5002091FD0100CA
:10F2B000024B034A1A6000BF704700BF5845002048
:10F2C0000090D00308B500F00DF90346002B06D0DE
:10F2D000744B1B681B0A744A03F01F03136000F091
:10F2E0002DF90346002B02D0704B714A1A6000F0D2
:10F2F00041F90346002B06D06E4B1B685B0B6E4A30
:10F3000003F00703136000F061F90346002B05D0FA
:10F310006A4BDB68694A23F08073D36000F072F9AE
:10F320000346002B0ED04FF080430022C3F80C217F
:10F330004FF080430022C3F810214FF08043002299
:10F34000C3F8382500F08AF90346002B02D05C4B45
:10F3500003221A6000F09EF90346002B0BD0594B94
:10F3600005221A60584B01221A60584B00221A607D
:10F37000574B3F221A6000F0A9F90346002B76D0C4
:10F380004FF08053534AD3F80434C2F820354FF07D
:10F390008053504AD3F80834C2F824354FF08053D4
:10F3A0004C4AD3F80C34C2F828354FF08053494A00
:10F3B000D3F81034C2F82C354FF08053454AD3F8B7
:10F3C0001434C2F830354FF08053424AD3F8183421
:10F3D000C2F834354FF080533E4AD3F81C34C2F89B
:10F3E00040354FF080533B4AD3F82034C2F84435BF
:10F3F0004FF08053374AD3F82434C2F848354FF0E1
:10F400008053344AD3F82834C2F84C354FF0805337
:10F41000304AD3F82C34C2F850354FF080532D4A7F
:10F42000D3F83034C2F854354FF08053294AD3F81A
:10F430003434C2F860354FF08053264AD3F838345C
:10F44000C2F864354FF08053224AD3F83C34C2F8F6
:10F4500068354FF080531F4AD3F84034C2F86C35FA
:10F460004FF080531B4AD3F84434C2F8703500F093
:10F4700049F90346002B05D0174B1B68174A03F0C8
:10F480004F031360164BD3F88830154A43F47003CA
:10F49000C2F88830BFF34F8FBFF36F8FFFF708FFBD
:10F4A00000BF08BD240300104035014074C0074070
:10F4B0000DF0ADBA440200103C050040F0ED00E054
:10F4C000A0050040105600408856004018560040E5
:10F4D0001456004000C0004058020010E40E0040E6
:10F4E00000ED00E0124B1B68DBB2062B1DD1114B67
:10F4F0001B6803F00F03002B17D10F4B1B6803F0A1
:10F50000F003302B01D1012310E00B4B1B6803F0FB
:10F51000F003402B01D1012308E0074B1B6803F0E7
:10F52000F003502B01D1012300E00023184670475F
:10F53000E00F00F0E40F00F0E80F00F00A4B1B684A
:10F54000DBB2062B0DD1094B1B6803F00F03002B18
:10F5500007D1074B1B6803F0F003302B01D10123C7
:10F5600000E0002318467047E00F00F0E40F00F0C1
:10F57000E80F00F0124B1B68DBB2062B1DD1114BBC
:10F580001B6803F00F03002B17D10F4B1B6803F010
:10F59000F003302B01D1012310E00B4B1B6803F06B
:10F5A000F003402B01D1012308E0074B1B6803F057
:10F5B000F003502B01D1012300E0002318467047CF
:10F5C000E00F00F0E40F00F0E80F00F00A4B1B68BA
:10F5D000DBB2062B0DD1094B1B6803F00F03002B88
:10F5E00007D1074B1B6803F0F003302B01D1012337
:10F5F00000E0002318467047E00F00F0E40F00F031
:10F60000E80F00F0124B1B68DBB2062B1DD1114B2B
:10F610001B6803F00F03002B17D10F4B1B6803F07F
:10F62000F003302B01D1012310E00B4B1B6803F0DA
:10F63000F003402B01D1012308E0074B1B6803F0C6
:10F64000F003502B01D1012300E00023184670473E
:10F65000E00F00F0E40F00F0E80F00F00A4B1B6829
:10F66000DBB2062B0DD1094B1B6803F00F03002BF7
:10F6700007D1074B1B6803F0F003302B01D10123A6
:10F6800000E0002318467047E00F00F0E40F00F0A0
:10F69000E80F00F00A4B1B68DBB2062B0DD1094BBB
:10F6A0001B6803F00F03002B07D1074B1B6803F007
:10F6B000F003302B01D1012300E0002318467047EE
:10F6C000E00F00F0E40F00F0E80F00F00A4B1B68B9
:10F6D000DBB2062B0DD1094B1B6803F00F03002B87
:10F6E00007D1074B1B6803F0F003502B01D1012316
:10F6F00000E0002318467047E00F00F0E40F00F030
:10F70000E80F00F0124B1B68DBB2062B1DD1114B2A
:10F710001B6803F00F03002B17D10F4B1B6803F07E
:10F72000F003302B01D1012310E00B4B1B6803F0D9
:10F73000F003402B01D1012308E0074B1B6803F0C5
:10F74000F003502B01D1012300E00023184670473D
:10F75000E00F00F0E40F00F0E80F00F00048704701
:10F7600030A1002082B003468DF807309DF80730A5
:10F7700003F01F0206499DF907305B09012000FADA
:10F7800002F2603341F8232000BF02B0704700BF8F
:10F7900000E100E0BFF34F8F054BDB6803F4E0624C
:10F7A0000349044B1343CB60BFF34F8F00BFFDE70A
:10F7B00000ED00E00400FA0532DF704700BF184694
:10F7C0003EDF704700BF184682B001904FF0A04363
:10F7D000184602B0704700B585B001900846114642
:10F7E0001A4603468DF803300B468DF80230134657
:10F7F0008DF8013001AB1846FFF7E6FF03909DF846
:10F8000003209DF802305B001A439DF801309B00F5
:10F810001A439DF818301B0242EA03019DF81C3080
:10F820001B04019A1943039B02F5E07243F822106E
:10F8300000BF05B05DF804FB00B585B003900B4632
:10F840008DF80B3013468DF80A309DF80B209DF88B
:10F850000A300193002300931346002200210398ED
:10F86000FFF7B9FF00BF05B05DF804FB84B001905D
:10F87000244B0393019B002B40D0234B1A68039920
:10F88000019B00BF00BF00BF00BF00BF00BF00BFA3
:10F8900000BF8A422FD000BF00BF00BF00BF00BF23
:10F8A00000BF00BF00BF00BF00BF00BF00BF00BF60
:10F8B00000BF00BF00BF00BF00BF00BF00BF00BF50
:10F8C00000BF00BF00BF00BF00BF00BF00BF00BF40
:10F8D00000BF00BF00BF00BF00BF00BF00BF00BF30
:10F8E00000BF00BF00BF00BF00BF00BF00BF00BF20
:10F8F00000BF00BF00BF013BC3D1019300BF04B0F4
:10F90000704700BF0024F4005845002000B583B0C4
:10F910000190019B4FF47A7202FB03F31846FFF744
:10F92000A5FF00BF03B05DF804FB000070B58AB00E
:10F93000079006910592059B0993099B5B68184601
:10F9400031F09AFA0546099B1B881E46099B9C6864
:10F95000099B9B68184631F073FE0346184631F048
:10F960008BFA03460393029401960095069B079A2F
:10F970000849012031F0F6FA022005F053FE052077
:10F98000FFF7C4FF059A069907982DF0A3F800BF6A
:10F990000AB070BDA06A050000B587B0F1EE103A5C
:10F9A0000193019B23F09F030293029BE1EE103A27
:10F9B000F1EE103A03932620FFF7D4FEFFF700FF85
:10F9C0000590059B0493049B002B04D0044AB921A5
:10F9D00004982DF067F800BF07B05DF804FB00BF86
:10F9E000346B050000B589B00390039B5B881A4611
:10F9F000039B1B791946039B1B7800930B462049F8
:10FA0000032031F07BFA039B002B34D0039B1B783F
:10FA1000012B30D107F0EAFF0790079B0693069B66
:10FA2000002B04D0174ACB2106982DF03BF8022278
:10FA300000210D20FFF700FF1349022031F022FAC8
:10FA4000FFF7BAFE079007F0AFFD034683F001030E
:10FA5000DBB2002B0AD0079B0593059B002B0AD035
:10FA6000084AD82105982DF01DF804E00749022026
:10FA700031F008FAFEE700BF09B05DF804FB00BFF3
:10FA80004C6C0500346B0500946C0500106C05008F
:10FA900000B583B00190019B1B78012B08D0022B8D
:10FAA00010D0002B15D10D49032031F0EBF910E0F7
:10FAB0000B49032031F0E6F90520FFF727FFFFF798
:10FAC00069FE06E00749032031F0DCF9FFF762FE2A
:10FAD00000BF00BF03B05DF804FB00BFF86C050079
:10FAE000346D0500746D050000B59BB001AB242298
:10FAF0000021184635F091FF1C238DF80A300523AC
:10FB00008DF80B300D238DF80C3011238DF80D304E
:10FB100001238DF80E3004238DF80F3040F61C437E
:10FB2000ADF8103041F25E03ADF81230594B059339
:10FB3000594B06936F23ADF81C3040F61C43ADF8CB
:10FB40001E300A238DF82030544B09930F2006F005
:10FB5000B3FD1990199B1893189B002B05D0504AA0
:10FB60004FF4897118982CF09DFF4E4B0F930FABFB
:10FB700019464D4805F0F8FD1990199B1793179BEE
:10FB8000002B05D0464A4FF48C7117982CF08AFF51
:10FB9000444B0E930EAB1946444803F0EFFA19900C
:10FBA000199B1693169B002B05D03D4A4FF48F717D
:10FBB00016982CF077FF3B4B0D930DAB19463C4844
:10FBC00004F0B4FF1990199B1593159B002B05D0D9
:10FBD000334A40F2251115982CF064FF354806F0A1
:10FBE000AFF91990199B1493149B002B05D02C4A44
:10FBF0004FF4947114982CF055FF2F4B019301ABE7
:10FC000019462E4807F0AEFA1990199B1393139BCF
:10FC1000002B05D0224A40F22D1113982CF042FF00
:10FC200041F2883007F01EFA1990199B1293129B2B
:10FC3000002B05D01A4A4FF4987112982CF032FF1D
:10FC40001F4B0A93194B0B9305230C930AAB1846D1
:10FC500001F094FC1990199B1193119B002B05D076
:10FC60000F4A4FF49C7111982CF01CFF012005F0F5
:10FC7000D9FC1990199B1093109B002B05D0084AB2
:10FC800040F23B1110982CF00DFF00BF1BB05DF847
:10FC900004FB00BF60E3160020BF0200286A0500D5
:10FCA000346B0500986A05009846002088460020BD
:10FCB00090460020A0460020E5F90100A84600205B
:10FCC00091FA010000B585B00C4B019301AB1846C9
:10FCD00007F03AFE0390039B0293029B002B05D092
:10FCE000074A4FF4AF7102982CF0DCFE6420FFF756
:10FCF0000DFE00BF05B05DF804FB00BFF06D050010
:10FD0000346B050000B589B01E4B02931E4B039364
:10FD100002AB18460AF0C2FD0790079B0693069BAC
:10FD2000002B05D0194A40F2751106982CF0BAFE46
:10FD3000144B0093144B01936B4618460AF042FE95
:10FD40000790079B0593059B002B05D00F4A40F2B7
:10FD50007B1105982CF0A6FE0AF0A8FF0790079BE0
:10FD60000493049B002B05D0084A4FF4BF710498FC
:10FD70002CF098FE6420FFF7C9FD00BF09B05DF8C4
:10FD800004FB00BF986A05000C6E0500346B05008B
:10FD900000B587B0002031F01FF80590059B049353
:10FDA000049B002B05D01B4A4FF4D77104982CF00C
:10FDB00079FE1949032031F065F8184A3C210820E2
:10FDC0002CF02CFF0390039B0293029B002B05D089
:10FDD000104A4FF4DA7102982CF064FE2DF0CAFD3F
:10FDE0000590059B0193019B002B05D0094A4FF418
:10FDF000DB7101982CF056FEFFF764FFFFF774FEED
:10FE0000FFF780FF07F01AFE2CF0CEFFFFF7C4FDCE
:10FE1000FAE700BF346B0500B06D0500B046002066
:10FE20006DDF704700BF184676DF704700BF184689
:10FE30007ADF704700BF18467CDF704700BF184666
:10FE40007FDF704700BF18468FDF704700BF18463E
:10FE50009EDF704700BF1846A9DF704700BF1846F5
:10FE6000ADDF704700BF184669DF704700BF184616
:10FE700066DF704700BF184631DF704700BF184685
:10FE80003DDF704700BF184684B00190244B0393B8
:10FE9000019B002B40D0234B1A680399019B00BFA4
:10FEA00000BF00BF00BF00BF00BF00BF00BF8A424D
:10FEB0002FD000BF00BF00BF00BF00BF00BF00BF0A
:10FEC00000BF00BF00BF00BF00BF00BF00BF00BF3A
:10FED00000BF00BF00BF00BF00BF00BF00BF00BF2A
:10FEE00000BF00BF00BF00BF00BF00BF00BF00BF1A
:10FEF00000BF00BF00BF00BF00BF00BF00BF00BF0A
:10FF000000BF00BF00BF00BF00BF00BF00BF00BFF9
:10FF100000BF013BC3D1019300BF04B0704700BFD5
:10FF20000024F4005845002000B583B00190019BE7
:10FF30004FF47A7202FB03F31846FFF7A5FF00BFE8
:10FF400003B05DF804FB000000B583B001900091A0
:10FF5000009B1B78012B09D0022B02D0002B0AD06A
:10FF60000EE00C49032030F08DFF0EE00A4903201B
:10FF700030F088FF09E00949032030F083FF04E0F6
:10FF80000749022030F07EFF00BF00BF03B05DF8DC
:10FF900004FB00BF4070050080700500BC700500C8
:10FFA000FC70050000B585B00023019301AB184635
:10FFB0002EF0F4F803468DF80F309DF80F300293C1
:10FFC000029B002B04D0074A842102982CF06AFD82
:10FFD000019B002B14BF01230023DBB2184605B0A0
:10FFE0005DF804FB3871050000B589B003900B463D
:10FFF0008DF80B3000238DF817300DF117031846DC
:020000022000DC
:100000002CF020F900238DF81F3016E09DF81F30EA
:1000100001338DF81F302E49022030F033FF0DF1EF
:10002000170318462CF00EF90520FFF77DFF9DF809
:100030001F30052B01D90D2345E09DF817309DF8A1
:100040000B209A42E2D89DF817301A462149032026
:1000500030F029FF9DF80B30194603982CF00EF96B
:100060000690069B002B0CD01B4830F005FF024683
:10007000069B0093A3231949022030F03FFF069B03
:1000800021E01749032030F0FDFE00238DF81E30DB
:100090000EE09DF81E30039A13441B781A4611494E
:1000A000132030F000FF9DF81E3001338DF81E3014
:1000B0009DF81E209DF80B309A42EAD30A4913207E
:1000C00030F0E0FE0023184609B05DF804FB00BFE5
:1000D0007C710500CC7105003871050004720500C3
:1000E00058720500887205009072050010B586B040
:1000F0009DF804306FF303038DF804309DF804304D
:100100006FF307138DF80430474B1B681C46464BB2
:100110001B68184635F0FDFC03469AB201AB214638
:100120001846FFF789FE0590059B0493049B002B5E
:1001300004D03E4AC22104982CF0B4FC02AB082241
:100140000021184635F069FC374B1B68B3F80F30B7
:100150009BB2ADF80830344B1B68B3F811309BB23A
:10016000ADF80A30304B1B68B3F813309BB2ADF8D2
:100170000C302D4B1B68B3F815309BB2ADF80E3028
:1001800002AB1846FFF754FE0590059B072B41D1A3
:10019000254B1B68002242F00602DA7300221A7413
:1001A000214B1B68002242F00C025A7400229A7400
:1001B0001D4B1B680022DA7400221A751A4B1B684B
:1001C000002242F040025A75002242F001029A7564
:1001D000154B1B68184601F05FFB0590059B002B33
:1001E00001D0059B1CE00623ADF808300C23ADF8C8
:1001F0000A300023ADF80C304FF4A073ADF80E3088
:1002000002AB1846FFF714FE0590059B002B06D0A5
:10021000059B05E0059B002B01D0059B00E000231A
:10022000184606B010BD00BFD84A0020387105003E
:1002300000B585B00190019B1B78002B16D11149A8
:10024000012030F01FFE104B1B883B211846FFF7A2
:10025000EBFD0390039B0293029B002B0ED00B4AF5
:1002600040F2011102982CF01DFC07E0019B1B7865
:10027000012B03D10649032030F004FE00BF05B076
:100280005DF804FB947205005C45002038710500A0
:10029000E472050000B583B00190019A064901207F
:1002A00030F001FE054A40F2151101982CF0FAFBDE
:1002B00000BF03B05DF804FB307305003871050022
:1002C00000B58BB002AB1C220021184635F0A5FB0F
:1002D0006B4608220021184635F09FFB1F4B1B6818
:1002E000B3F80F309BB2ADF800301C4B1B68B3F86D
:1002F00011309BB2ADF80230184B1B68B3F81330C5
:100300009BB2ADF80430154B1B68B3F815309BB2A7
:10031000ADF806306B4602934FF4004303934FF45D
:100320007023049303238DF814300023ADF81630A6
:1003300000238DF818300A4B07930A4B089302AB41
:10034000184622F085FC0990099B002B01D0099BDF
:1003500000E0002318460BB05DF804FBD84A0020EB
:10036000310202009502020000B589B003468DF803
:1003700007309DF80730002B06D0032B20D11449FD
:10038000032030F07FFD1EE01249032030F07AFD9B
:1003900002238DF80C30104B1B6803AA10469847B7
:1003A000032022F0A1FA0790079B0693069B002BDF
:1003B00008D00A4A40F2531106982CF073FB01E072
:1003C00000BF00E000BF00BF09B05DF804FB00BF44
:1003D0006C730500A4730500804A00203871050085
:1003E00000B58DB00190019B1B88013B542B00F29E
:1003F0006F8101A252F823F001060200D10602002B
:10040000D1060200D1060200D1060200D106020088
:10041000D1060200D1060200D1060200D106020078
:10042000D1060200D1060200D1060200D106020068
:10043000D10602004D0502006F050200D106020040
:10044000AF050200D1060200D1060200D10602006B
:10045000D1060200D1060200D1060200D106020038
:10046000D1060200D1060200D1060200D106020028
:10047000D1060200D106020097060200C70602005C
:10048000D1060200D1060200D1060200D106020008
:10049000D1060200D1060200D1060200D1060200F8
:1004A000D1060200D1060200D1060200D1060200E8
:1004B000D1060200D1060200D1060200D1060200D8
:1004C000D1060200D1060200D1060200D1060200C8
:1004D000D1060200D1060200D10602008706020002
:1004E000D1060200D1060200D1060200D1060200A8
:1004F000D1060200D1060200D1060200D106020098
:10050000D1060200D1060200D1060200D106020087
:10051000D1060200D1060200D1060200D106020077
:10052000D1060200D1060200D1060200D106020067
:10053000D1060200D1060200D1060200D905020050
:10054000D1060200D10602002706020068490320F6
:1005500030F098FC019B9A88664B1A8000238DF836
:100560000830654B1B6802AA10469847BBE0019B08
:100570001B7A1A466149032030F095FC5D4B4FF61B
:10058000FF721A80FFF70EFD0346002B03D05C4B71
:1005900001221A70A7E05A4B00221A7001238DF82D
:1005A0000830554B1B6802AA104698479BE0514BF8
:1005B0001888002300228521FFF742FC0B900B9B3B
:1005C0000A930A9B002B00F085804E4A40F283116B
:1005D0000A982CF067FA7DE0464B18880023002229
:1005E0000021FFF739FC0B900B9B0993099B002B13
:1005F00072D0444A40F2891109982CF053FA6BE00A
:100600003C4B1B8800211846FFF732FC0B900B9BDC
:100610000893089B002B61D03A4A4FF4C7710898A1
:100620002CF040FA5AE0019BDB881A463649032039
:1006300030F039FC019B9B884FF48A711846FFF714
:100640000FFC0B900B9B0793079B002B05D02D4AAB
:100650004FF4CB7107982CF025FA019BDA882B4BCD
:10066000A3F8012029492A4824F028FC0B900B9B71
:100670000693069B002B33D0224A4FF4CD71069887
:100680002CF010FA2CE0019B5B891A4621490320CB
:1006900030F009FC27E02049032030F0F3FB019BF8
:1006A0009B88002200211846FFF7CEFB0B900B9B86
:1006B0000593059B002B15D0124A40F2A71105980F
:1006C0002CF0F0F90EE01549032030F0DBFB0AE0D6
:1006D00000BF08E000BF06E000BF04E000BF02E08A
:1006E00000BF00E000BF00BF0DB05DF804FB00BF1D
:1006F000DC7305005C450020804A0020187405006A
:10070000DF4A00203871050068740500DC4A0020CB
:100710008C4A0020B8740500047505005475050066
:1007200000B585B00190019822F0C4FC019822F038
:10073000C1FB0023039312E0144B1A68039BDB00F8
:1007400013445B68002B07D0104B1A68039BDB0037
:1007500013445B6801989847039B013303930C4B48
:100760001B68039A9A42E7D301990A4824F0EBFAEE
:10077000019909482FF0D5FF0198FFF731FE019844
:1007800022F09CF900BF05B05DF804FB844A00200C
:10079000884A00208C4A0020FC4A002000B587B01F
:1007A000019001982DF00CFD019805F079FE01985B
:1007B00022F0A0F9019B022B02D0019B032B13D145
:1007C000FFF7F0FB034683F00103DBB2002B0BD0F5
:1007D000074B1B78002B07D001238DF80C30054BFD
:1007E0001B6803AA1046984700BF07B05DF804FBDA
:1007F000DF4A0020804A002000B593B0A54B1B685B
:10080000049304A8A44B4FF4A672A44930F084F9D1
:100810001190119B1093109B002B05D0A04A4FF410
:10082000FE7110982CF03EF90023039303AB184699
:1008300030F036FA0F900F9B0E930E9B002B05D0D5
:10084000974A4FF400710E982CF02CF96B460C224D
:100850000021184635F0E1F801238DF800304FF4FF
:100860008A73ADF80230039A6B4619462320FFF7CE
:10087000FBFA0F900F9B0D930D9B002B05D0884A20
:1008800040F209210D982CF00DF96B460C22002145
:10089000184635F0C2F801238DF8003001238DF899
:1008A00002300623ADF80430039A6B461946202027
:1008B000FFF7DAFA0F900F9B0C930C9B002B05D0DF
:1008C000774A40F211210C982CF0ECF86B460C2280
:1008D0000021184635F0A1F801238DF800301023CF
:1008E0008DF80230039A6B4619462220FFF7BCFAB6
:1008F0000F900F9B0B930B9B002B05D0684A4FF476
:1009000006710B982CF0CEF86B460C22002118468D
:1009100035F083F801238DF8003002238DF8023082
:10092000039A6B4619462120FFF79EFA0F900F9B02
:100930000A930A9B002B05D0594A40F21F210A98BE
:100940002CF0B0F86B460C220021184635F065F803
:1009500002238DF80030039A6B4619460120FFF7F9
:1009600083FA0F900F9B0993099B002B05D04C4AEB
:100970004FF4097109982CF095F86B460C22002170
:10098000184635F04AF801238DF80030039A6B467B
:1009900019464020FFF768FA0F900F9B0893089BB9
:1009A000002B05D03E4A40F2292108982CF07AF815
:1009B0006B460C220021184635F02FF84FF47A636D
:1009C0000093039A6B461946A120FFF74DFA0F904A
:1009D0000F9B0793079B002B05D0314A40F22E2135
:1009E00007982CF05FF86B460C220021184635F072
:1009F00014F89DF8003043F001038DF80030039A9D
:100A00006B461946A020FFF72FFA0F900F9B069315
:100A1000069B002B05D0224A40F2332106982CF089
:100A200041F803AB184630F04BF90F900F9B05933C
:100A3000059B002B05D01A4A40F2362105982CF070
:100A400031F8184830F0D4F80F900F9B002B01D0EC
:100A50000F9B1BE0144830F0DBF80F900F9B002B2E
:100A600001D00F9B12E00120FFF706FA0F900F9BB9
:100A7000002B01D00F9B09E00120FFF701FA0F9036
:100A80000F9B002B01D00F9B00E00023184613B0F2
:100A90005DF804FB9C750500950D0500144B0020C6
:100AA00038710500210702009D07020000B5B1B0B2
:100AB0004FF48073ADF878303B4B1B788DF87A306B
:100AC0001FAB3C220021184634F0A7FF02238DF80B
:100AD0007C3000238DF87E3006238DF87F30012393
:100AE000ADF884301EAB229316AB202200211846AD
:100AF00034F093FF01238DF85B302C4B1B689B89EE
:100B00009BB21A93294B1B689B7B1B9307AB3C2220
:100B10000021184634F081FF00238DF8BF3010E02B
:100B20009DF8BF30C3F103029DF8BF3020498A5CB5
:100B300030A90B4403F8B42C9DF8BF3001338DF875
:100B4000BF309DF8BF30032BEAD95923ADF81030E0
:100B500003AB06930423ADF8143000238DF81C304A
:100B600004AB109316AA07A91FA800230093114BEA
:100B700021F0B6FD2E902E9B002B0DD00E4830F0AC
:100B80007BF902462E9B009340F282230B49022000
:100B900030F0B4F92E9B03E0012021F093FD0023F7
:100BA000184631B05DF804FB8C4A0020D84A00207A
:100BB000F84A00206903020038710500047205003C
:100BC00000B583B00190054A40F28F2101982BF0C7
:100BD00069FF00BF03B05DF804FB00BF387105007A
:100BE00000B583B01A4B1B6893F82830022B03D84A
:100BF00005F014FD002327E0164B4FF43E721A60F7
:100C0000134B1B681733134A5360114B1B6893F83F
:100C100028309AB20F4B1A810E4B0F4A5A610F4877
:100C2000FFF7FEF80190019B002B01D0019B0BE028
:100C3000084BDB7A0233DAB2064BDA72054805F06C
:100C400081FC05F0ADFC0023184603B05DF804FB01
:100C5000D84A0020604C0020C10B02006A4C0020E2
:100C600000B595B0039001921A460B468DF80B30F3
:100C70001346ADF8083000238DF84F309DF80B3047
:100C8000062B00F2598101A252F823F0A90C0200B0
:100C9000E50C0200090D0200910D0200E10D0200B9
:100CA000130E0200AB0E0200BDF808300A2B00F252
:100CB0003681AE4B1B681846BDF808301A460199BC
:100CC00034F082FEA94B1A68BDF808300021D154D7
:100CD000A64B1B68BDF80820D2B2DA7201238DF84A
:100CE0004F301CE1BDF80830032B40F01A819F4BB8
:100CF0001B680C33BDF808200199184634F064FED7
:100D000001238DF84F300CE1BDF80830082B40F07E
:100D10000A81964B1B680F33BDF8082001991846CD
:100D200034F052FE05AB08220021184634F075FE5F
:100D30008E4B1B68B3F80F309BB2ADF814308B4B61
:100D40001B68B3F811309BB2ADF81630874B1B68A7
:100D5000B3F813309BB2ADF81830844B1B68B3F86E
:100D600015309BB2ADF81A3005AB184622F0C8F822
:100D70001290129B1193119B002B05D07C4A40F2DC
:100D8000E12111982BF08EFE01238DF84F30CAE03F
:100D9000BDF80830112B00F2C880744B1B68173364
:100DA000BDF808200199184634F00EFE6F4B1B6801
:100DB000BDF80820D2B283F8282001238DF84F30E7
:100DC000FFF70EFF1090109B0F930F9B002B00F06E
:100DD000AC80674A4FF43C710F982BF063FEA4E09F
:100DE000BDF80830FA2B00F2A280604B1B68293353
:100DF000BDF808200199184634F0E6FD5B4B1B68EE
:100E0000BDF80820D2B283F8232101238DF84F309A
:100E10008DE0BDF80830032B40F08B80019B0E93D2
:100E20000E9B1B78012B2FD10E9BB3F801309BB288
:100E30001A465049032030F036F84F4B1A880E9B63
:100E4000B3F801309BB219461046FFF701F80D9038
:100E50000D9B002B07D1BDF808301A460199474871
:100E600034F0B2FD65E04549454824F027F80D907F
:100E70000D9B0C930C9B002B5BD03D4A40F20D3137
:100E80000C982BF00FFE54E03C493D4824F016F836
:100E90000D900D9B0B930B9B002B4AD0344A40F2D4
:100EA00013310B982BF0FEFD43E0BDF80830F72B13
:100EB00041D82E4B1B6803F59573BDF808200199A6
:100EC000184634F081FD294B1B68BDF80820D2B2CA
:100ED00083F8212214F096F80A900A9B002B05D083
:100EE000234A40F21E310A982BF0DCFD1F4B1B6891
:100EF00003F59573BDF80820D2B21146184613F0D9
:100F000095FE0990099B002B05D0194A40F21F312C
:100F100009982BF0C7FD01238DF84F300BE000BF7F
:100F20000AE000BF08E000BF06E000BF04E000BF29
:100F300002E000BF00E000BF9DF84F30002B10D052
:100F40000A4B1B68184600F0A7FC0890089B079303
:100F5000079B002B05D0064A40F22B3107982BF057
:100F6000A1FD00BF15B05DF804FB00BFD84A00200A
:100F700038710500A07505005C450020DC4A0020A2
:100F80008C4A002000B589B000238DF81F30724BC9
:100F90001B6893F82431FF22934214BF01230023DE
:100FA0008DF81E306C4B1B6893F82531FF2293425D
:100FB00014BF012300238DF81D30674B1B6893F885
:100FC0002631FF22934214BF012300238DF81C30E9
:100FD000614B1A6803AB02F59272118892781980FE
:100FE0009A709DF81E30002B07D19DF81D30002B04
:100FF00003D19DF81C30002B2ED0574B1B68FF22CD
:1010000083F82421544B1B68FF2283F82521524B7F
:101010001B68FF2283F8262101238DF81F309DF8DD
:101020001E30002B03D19DF81D30002B14D000235F
:101030008DF81F30494B01221A70494800F02CFCF2
:101040000690069B0593059B002B05D0454A40F270
:101050004E3105982BF026FDFF231A46FF23194633
:10106000FF2300930B46404903202FF047FF3B4BE3
:101070001B78002B0DD09DF80C301A469DF80D30D2
:1010800019469DF80E3000930B46384903202FF087
:1010900035FF314B1B6893F82830112B0FD92E4B9D
:1010A0001B6817330E223249184634F08DFC2A4B48
:1010B0001B680E2283F8282001238DF81F30264B51
:1010C0001B6893F82331FA2B0FD9234B1B68293364
:1010D00000222849184634F077FC1F4B1B68002279
:1010E00083F8232101238DF81F301B4B1B6893F8D5
:1010F0002132F72B05D8184B1B6893F82132002BAF
:1011000010D1154B1B6803F5957316221A49184622
:1011100034F05AFC104B1B68162283F8212201235D
:101120008DF81F309DF81F30002B10D00A4B1B6824
:10113000184600F0B1FB0690069B0493049B002B1D
:1011400005D0084A40F2763104982BF0ABFC00231E
:10115000184609B05DF804FBD84A0020E04A002098
:101160001C6E050038710500E8750500287605003D
:10117000336E0500456E0500466F050000B585B06D
:101180000A4B1B6801930A4B029301AB19460948AD
:1011900023F000FE0390039B002B01D0039B00E093
:1011A0000023184605B05DF804FB00BFD84A0020B4
:1011B000610C02008C4A002000B589B001900091BA
:1011C000FFF7DCFF0690069B0593059B002B05D0DF
:1011D000244A4FF4667105982BF064FC00230793B2
:1011E00018E0079BDB00019A13441B68002B0ED00C
:1011F000079BDB00019A13441B681B4A12781046B8
:1012000098470690069B002B01D0069B26E0079B83
:1012100001330793079A009B9A42E2D302AB08225C
:101220000021184634F0F9FB104B029301238DF88E
:101230000C3001238DF80D3002AB19460C482FF00D
:10124000DFF80690069B0493049B002B05D0054A0B
:1012500040F2B13104982BF025FC0023184609B068
:101260005DF804FB38710500E04A002049FF0100E9
:10127000FC4A0020B0B5C6B002AF13F0F1FEC7F8CB
:101280000801D7F80831002B0FD0B0482FF0F4FD3B
:101290000246D7F80831009340F2BE33AC49022031
:1012A0002FF02CFED7F808314BE1AA4B1B6803F551
:1012B00095731622A849184634F04EF90346002BC0
:1012C00040F01C816B461D462021A44813F0D8FD38
:1012D000C7F80801D7F80831002B0FD09B482FF032
:1012E000CBFD0246D7F80831009340F2C33398494A
:1012F00002202FF003FED7F80831FDE01B2387F80A
:10130000073197F807010346013BC7F80031C1B226
:101310004FF000024FF000034FF00004D40044EA05
:101320005174CB00C1B24FF000024FF000034FF0F8
:101330000004D40044EA5174CB0003460733DB08B1
:10134000DB00ADEB030D02AB0033C7F8FC30D7F880
:10135000FC3000221A70D7F8FC308149184634F06E
:101360007CF9D7F8FC307F49184634F076F9002331
:1013700087F80F311EE007F1F80300210A461A80B2
:101380000A469A7097F80F31774AD35C1A4607F1EC
:10139000F8037649184634F04BF9D7F8FC3007F1DA
:1013A000F8021146184634F058F997F80F31013316
:1013B00087F80F3197F80F31032BDCD9D7F8FC30C1
:1013C00018462FF059FD03461A46694903202FF0AD
:1013D0006AFDD7F8FC3097F807211146184613F03C
:1013E000A7FCC7F80801D7F80831002B0FD05748E1
:1013F0002FF042FD0246D7F80831009340F2D73370
:10140000534902202FF07AFDD7F8083174E01622F4
:101410005849012013F0E8FCC7F80801D7F8083153
:10142000002B0FD049482FF027FD0246D7F808318E
:10143000009340F2DA33464902202FF05FFDD7F8DF
:10144000083159E013F064FDC7F80801D7F80831F6
:10145000002B0FD03D482FF00FFD0246D7F8083182
:10146000009340F2DD333A4902202FF047FDD7F8D0
:10147000083141E0F72387F8FB3007F1FB023B46D8
:101480001146184613F02AFCC7F80801D7F80831AE
:10149000002B0FD02D482FF0EFFC0246D7F8083173
:1014A000009340F2E1332A4902202FF027FDD7F8BC
:1014B000083121E097F8FB203B4683F8F7203B46B4
:1014C00019462D4823F026FDC7F80801D7F8083142
:1014D000002B0FD01D482FF0CFFC0246D7F8083163
:1014E000009340F2E5331A4902202FF007FDD7F8A8
:1014F000083101E0AD4623E0AD4622E0154B1B6804
:1015000003F59572134B1B6893F821321946104668
:1015100013F08CFBC7F80801D7F80831002B0FD067
:101520000A482FF0A9FC0246D7F80831009340F290
:10153000EA33074902202FF0E1FCD7F8083100E038
:101540000023184607F58877BD46B0BD3871050001
:1015500004720500D84A0020466F05009876050001
:10156000E44A0020B8760500F84A00208872050099
:10157000BC760500E87605008C4A002000B585B0F1
:101580000190019B1B686A4A1360019B5B68694A72
:101590001360019B9B68684A1360FFF72DF9039065
:1015A000039B002B06D0039A644901202FF07BFC9B
:1015B000039BB8E0624BD3F88830614A43F4700370
:1015C000C2F88830BFF34F8FBFF36F8F04215D489F
:1015D000FEF70AFD0390039B002B06D0039A5A499D
:1015E00001202FF060FC039B9DE05849584800F013
:1015F0000DFA0390039B002B06D0039A5549012056
:101600002FF051FC039B8EE0504B1B680C22A3F87B
:101610001120FFF7B7FC0390039B002B06D0039A21
:101620004D4901202FF03FFC039B7CE0FEF75EFD5F
:101630000390039B002B06D0039A484901202FF00A
:1016400032FC039B6FE03B4B1A683B4B1B6819460F
:101650001046FFF7B1FD0390039B002B06D0039AC1
:101660003F4901202FF01FFC039B5CE0FFF71EFAAF
:101670000390039B002B06D0039A3A4901202FF0D8
:1016800012FC039B4FE0FEF71BFE0390039B002B15
:1016900006D0039A344901202FF005FC039B42E059
:1016A000032021F021F90390039B002B06D0039A1D
:1016B0002E4901202FF0F7FB039B34E02C4805F066
:1016C000F7FE0390039B002B06D0039A29490120C3
:1016D0002FF0E9FB039B26E025482FF0CDFB0346C6
:1016E0001A46254913202FF0DEFBFFF7C3FD0390B8
:1016F000039B002B06D0039A204901202FF0D3FB37
:10170000039B10E00A20FEF70FFCFFF769FA039035
:10171000039B002B06D0039A194901202FF0C3FB2D
:10172000039B00E00023184605B05DF804FB00BFF2
:10173000804A0020844A0020884A00200077050063
:1017400000ED00E0F84A00203C770500D84A002070
:101750001C6E050080770500BC770500FC7705004E
:101760003878050084780500C0780500FC7805000D
:10177000E44A00203C790500787905008C79050061
:10178000C079050000B589B00390039B1B78012B3D
:101790001AD0052B42D0002B4CD1039B5B68002B49
:1017A00003D1344B01221A7059E0334901202FF044
:1017B00069FB00230793079B002B50D12F4A5D2123
:1017C00000202BF06FF94AE0039B5B68002B16D1D9
:1017D000039B9B89B3F5005F43D1039B1B7C1A4697
:1017E000039B9B891946039BDB8900930B46244985
:1017F00003202FF083FB234B01221A7031E0224992
:1018000001202FF03FFB00230693069B002B28D1DD
:101810001A4A6F2100202BF045F922E0039B5B68F8
:10182000002B20D1194903202FF02CFB184B01224B
:101830001A7018E0039B1B781A46039B5B681549D6
:1018400003202FF044FB039B5B680593059B002B53
:101850000BD00A4A7B2105982BF024F905E000BF44
:1018600004E000BF02E000BF00E000BF00BF09B01D
:101870005DF804FBAC4E0020F8790500287A0500DD
:10188000707A0500AD4E0020BC7A0500EC7A0500A8
:10189000AE4E0020207B050000B58BB003901F49A1
:1018A00003202FF0EFFA039B002B01D10E2331E030
:1018B00040F2222203991A4834F086F8194B42224A
:1018C0001A60184B04938A23ADF814304FF4005378
:1018D000ADF8183042F20103ADF81A3004AB0793AB
:1018E0000123ADF8203006AB19460F482EF087FAD9
:1018F0000990099B002B0CD00C482FF0BDFA024632
:10190000099B009398230A4902202FF0F7FA099BBC
:1019100000E0002318460BB05DF804FB507B050087
:10192000884C0020844C0020784C0020287A050048
:10193000847B050000B58BB0039005AB0822002125
:10194000184634F06AF82B4903202FF09BFA05ABB8
:10195000294A42F201014FF400502EF0BFFA0990DB
:10196000099B002B0CD025482FF086FA0246099BD4
:101970000093A923224902202FF0C0FA099B34E0EA
:1019800007AB19461C482EF0AFF90990099B002BB4
:101990000CD01A482FF070FA0246099B0093AC2332
:1019A000174902202FF0AAFA099B1EE0089B4FF46A
:1019B0000A721946134834F007F80F482EF0D0F990
:1019C0000990099B002B0CD00C482FF055FA0246C9
:1019D000099B0093B1230A4902202FF08FFA099B3B
:1019E00003E0039B084A1A60002318460BB05DF819
:1019F00004FB00BFD87B0500784C0020287A050046
:101A0000847B0500844C0020884C002000B58BB0FE
:101A1000039002915B4903202FF034FA039B002BC3
:101A200001D10E23A9E058482EF0C8F80990099B6F
:101A3000002B0CD055482FF01FFA0246099B00934B
:101A4000C223534902202FF059FA099B95E02EF04A
:101A5000D5F80990099B002B0ED04C482FF00CFABA
:101A60000246099B0093C523494902202FF046FAFC
:101A7000099B82E02BF098F9464B1B7883F0010319
:101A8000DBB2002BF6D12EF0FDF90990099B002B5B
:101A90000ED03E482FF0F0F90246099B0093CD236B
:101AA0003B4902202FF02AFA099B66E02BF07CF9D3
:101AB000394B1B7883F00103DBB2002BF6D102987F
:101AC000FFF738FF0990099B0A2B45D133490320C2
:101AD0002FF0D8F940F222220399314833F074FFF5
:101AE000304B42221A602F4B04938A23ADF81430F6
:101AF0004FF40053ADF8183042F20103ADF81A303C
:101B000004AB07930123ADF82030274B00221A7055
:101B100006AB194625482EF063F90990099B002B66
:101B20000CD01A482FF0A8F90246099B0093EB232A
:101B3000174902202FF0E2F9099B1EE0029B184A88
:101B40001A6001E02BF030F9174B1B7883F001038A
:101B5000DBB2002BF6D10FE0099B002B0CD00B4819
:101B60002FF08AF90246099B0093F62308490220C8
:101B70002FF0C4F9099B00E0002318460BB05DF874
:101B800004FB00BF087C050085170200287A0500C9
:101B9000847B0500AC4E0020AE4E0020347C050056
:101BA000884C0020844C0020AD4E0020784C002052
:101BB00000B587B08DED030A0290DDED037AFDEEEE
:101BC000E77ACDED017A9DF804305AB2029B1A7083
:101BD000029B93F9003007EE903AF8EEE77A9DED1C
:101BE000037A77EE677ACDED057ADDED057A9FED24
:101BF0000D7A67EE877AFCEEE77ACDED017A9DF8F3
:101C00000430DAB2029B5A70029B93F900301A46F4
:101C1000029B5B78044904202FF059F900BF07B0FC
:101C20005DF804FB0000C842907C050000B583B05D
:101C3000034600918DF80730009B9DF807201A702D
:101C40009DF807301A46044904202FF02CF900BFF4
:101C500003B05DF804FB00BFD87C050000B587B079
:101C60008DED030A0290DDED037AFDEEE77A17EEC3
:101C7000902A029B1A60029B1B6807EE903AF8EECE
:101C8000E77A9DED037A77EE677ACDED057ADDEDA3
:101C9000057A9FED0D7A67EE877AFCEEE77ACDED57
:101CA000017A9DF80430DAB2029B1A71029B1B681C
:101CB0001A46029B1B79054904202FF008F900BF42
:101CC00007B05DF804FB00BF0000C842207D05009E
:101CD00000B587B00190019B1B78002B02D0012B2F
:101CE00014D021E0019B5B78012B1AD10FF0ECFF9F
:101CF000F0EE407A03AB1846B0EE670AFFF7AEFF8E
:101D000003AB19460A4822F035F90AE0002305938F
:101D1000059B002B07D1074A942100202AF0C2FE20
:101D200001E000BF00E000BF00BF07B05DF804FBAA
:101D3000B04E0020707D050000B58DB003468DF8D3
:101D400007309DF80730002B60D112F067F88DED59
:101D50000B0A11F0B1FF0346ADF82A3004AB184668
:101D60009DED0B0AFFF724FFBDF82A30DBB20DF121
:101D70000F0211461846FFF759FF2B4B1B78002B1B
:101D800014D0BDF82A309DED0B0A184600F05CFA1D
:101D90000990099B0893089B002B04D0234AB1218A
:101DA00008982AF07FFE204B00221A70204B1B78E7
:101DB000002B12D004AB19461E4822F09BF8099064
:101DC000099B0793079B002B04D0184AB82107985A
:101DD0002AF068FE164B00221A70174B1B78002B56
:101DE0001ED00DF10F031946124822F003F9099095
:101DF000099B0693069B002B04D00C4ABF21069832
:101E00002AF050FE0C4B00221A7009E000230593C3
:101E1000059B002B04D1054AC52100202AF042FE73
:101E200000BF0DB05DF804FBFA4E0020707D050088
:101E3000F94E0020B04E0020F84E002000B585B0CD
:101E40000190019B002B15D0019B1B88ADF80C3035
:101E5000019B5B88ADF80E30019B1B881A46019BE5
:101E60005B88064904202FF032F803AB194604487A
:101E700022F000F900BF05B05DF804FBBC7D050051
:101E8000B04E002000B587B0039000200AF09CF906
:101E9000039B002B27D0039B1B881946039B5B8861
:101EA0001846039B9B881A46039BDB88019300928C
:101EB00003460A460E4904202FF039F8039B1B887D
:101EC000ADF81030039B5B88ADF81230039B9B8804
:101ED000ADF81430039BDB88ADF8163004AB19461F
:101EE000044822F007F900BF07B05DF804FB00BF0B
:101EF000007E0500B04E002000B585B001900A4B71
:101F000001221A7012F028F80390039B0293029B9F
:101F1000002B05D0054A4FF4847102982AF0C2FDC7
:101F200000BF05B05DF804FBF94E0020707D050090
:101F3000F0B585B0334B01221A70334B01221A7071
:101F400011F0F4FD0390039B002B0DD02F482EF0D1
:101F500093FF0246039B00934FF48B732C4902209E
:101F60002EF0CCFF039B49E011F0F6FF0390039B9A
:101F7000002B0DD025482EF07FFF0246039B0093D7
:101F800040F21913224902202EF0B8FF039B35E0DE
:101F9000204F214B1B681B889BB299B24FF0000267
:101FA0004FF000034FF00004D40344EA5144CB0344
:101FB00013F5FA7544F100064FF47A724FF00003FE
:101FC0002846314633F0C4F803460C460022194631
:101FD00038462BF033FD0390039B002B0DD00B48AC
:101FE0002EF04AFF0246039B00934FF48F7308497B
:101FF00002202EF083FF039B00E00023184605B06B
:10200000F0BD00BFF94E0020FD4E0020707D0500A0
:102010004C7E0500004F0020F04E002000B587B038
:1020200003468DF80F30194B00221A70184B1846D2
:102030002BF036FD0590059B002B0DD015482EF09A
:102040001BFF0246059B00934FF496731249022032
:102050002EF054FF059B14E09DF80F30002B0FD09D
:102060000E4B00221A700E4B1B7883F00103DBB27B
:10207000002B03D011F0C4FD034602E0002300E072
:102080000023184607B05DF804FB00BFF94E00209E
:10209000004F0020707D05004C7E0500FD4E0020A5
:1020A000FC4E002000B585B001900FF05DFE03905E
:1020B000039B0293029B002B05D0054A40F24B1173
:1020C00002982AF0EFFC00BF05B05DF804FB00BFEA
:1020D000707D0500F0B585B00FF0E6FC0390039B22
:1020E0000293029B002B05D01D4A4FF4AB7102985E
:1020F0002AF0D8FC0FF038FE0390039B0193019B5C
:10210000002B05D0164A40F2591101982AF0CAFC5A
:10211000144F154B1B685B889BB299B24FF00002BD
:102120004FF000034FF00004D40344EA5144CB03C2
:1021300013F5FA7544F100064FF47A724FF000037C
:102140002846314633F004F803460C46002219466F
:1021500038462BF073FC0346184605B0F0BD00BFAF
:10216000707D0500204F0020F04E002000B585B0A6
:102170000E4B18462BF094FC0390039B002B0DD0C4
:102180000B482EF079FE0246039B009340F2691340
:10219000084902202EF0B2FE039B02E00FF03AFD48
:1021A0000346184605B05DF804FB00BF204F002031
:1021B000707D05004C7E050000B587B001900023BE
:1021C000ADF80A301C4B1B78012B31D10DF10A03FD
:1021D000184600F07BF90590059B0493049B002BA7
:1021E00005D0164A4FF4BD7104982AF05BFCBDF887
:1021F0000A30002B04D1124902202EF043FE10E0D9
:10220000BDF80A3018460BF01BFC0590059B0393A4
:10221000039B002B05D0094A40F2831103982AF052
:1022200041FC054B02221A70064B18462BF038FC75
:1022300000BF07B05DF804FBFB4E0020707D050079
:10224000A07E0500804F002000B589B003468DEDCB
:10225000020AADF80E301E4B1B78002B33D0BDF8B0
:102260000E301A46920013445B00ADF81E30DDEDCF
:10227000027A9FED187A67EE877AFDEEE77A17EE1D
:10228000903A0693BDF81E20069B134904202EF0B9
:102290001EFEBDF81E30069918460BF0F1FA0590A7
:1022A000059B002B0DD00D482EF0E6FD0246059B48
:1022B00000934FF4D3730A4902202EF01FFE059BB2
:1022C00002E0002300E00023184609B05DF804FB9B
:1022D000FC4E002000007A44087F0500707D050058
:1022E0004C7E050000B585B0114B00221A70114BD1
:1022F0001B78002B13D111F083FC0390039B002B60
:102300000DD00D482EF0B8FD0246039B00934FF40C
:10231000E1730A4902202EF0F1FD039B04E0084B13
:1023200018462BF0BDFB0346184605B05DF804FBCC
:10233000FC4E0020FD4E0020707D05004C7E050007
:10234000804F002000B585B001900A4B01221A7021
:1023500011F002FE0390039B0293029B002B05D019
:10236000054A4FF4EA7102982AF09CFB00BF05B0C1
:102370005DF804FBF84E0020707D0500F0B585B0D7
:102380002A4B01221A702A4B01221A7011F0CEFB3F
:102390000390039B002B0DD026482EF06DFD0246C6
:1023A000039B009340F2E113234902202EF0A6FD87
:1023B000039B37E011F0D0FD0390039B002B0DD061
:1023C0001C482EF059FD0246039B00934FF4F27314
:1023D000194902202EF092FD039B23E0174F184B62
:1023E0001B689B889BB299B24FF000024FF000032C
:1023F0004FF00004D40344EA5144CB0313F5FA75BB
:1024000044F100064FF47A724FF00003284631463B
:1024100032F09EFE03460C460022194638462BF049
:102420000DFB0346184605B0F0BD00BFF84E002076
:10243000FD4E0020707D05004C7E0500404F0020C1
:10244000F04E002000B587B003468DF80F30194BD1
:1024500000221A70184B18462BF022FB0590059BA2
:10246000002B0DD015482EF007FD0246059B00936A
:1024700040F2F513124902202EF040FD059B14E0B6
:102480009DF80F30002B0FD00E4B00221A700E4B10
:102490001B7883F00103DBB2002B03D011F0B0FBFB
:1024A000034602E0002300E00023184607B05DF871
:1024B00004FB00BFF84E0020404F0020707D050057
:1024C0004C7E0500FD4E0020FC4E002000B583B080
:1024D0000190284B1B681B7A032B43D801A252F8AA
:1024E00023F000BFF5240200112502002D25020073
:1024F00049250200204B1B681B889AB2019B1A8059
:10250000019B1B881A461D4904202EF0CCFC2BE0B1
:10251000194B1B685B889AB2019B1A80019B1B8830
:102520001A46174904202EF0BEFC1DE0124B1B6812
:102530009B889AB2019B1A80019B1B881A461149FD
:1025400004202EF0B0FC0FE00B4B1B68DB889AB226
:10255000019B1A80019B1B881A460B4904202EF010
:10256000A2FC01E0082300E00023184603B05DF858
:1025700004FB00BFF04E0020F44E0020687F0500F1
:10258000D07F0500348005009880050000B587B035
:102590000346ADF80E30314B1B681B7A032B3FD836
:1025A00001A252F823F000BFB9250200D325020092
:1025B000ED25020007260200294B1B68BDF80E20FE
:1025C0001A80BDF80E301A46264904202EF06BFC06
:1025D00028E0234B1B68BDF80E205A80BDF80E3052
:1025E0001A46214904202EF05EFC1BE01C4B1B68A0
:1025F000BDF80E209A80BDF80E301A461B49042003
:102600002EF051FC0EE0164B1B68BDF80E20DA8050
:10261000BDF80E301A46164904202EF044FC01E0A5
:10262000082317E00E4B1B68184600F0DDFF0590ED
:10263000059B002B0DD00F482EF01EFC0246059B7B
:10264000009340F24E230C4902202EF057FC059BCC
:1026500000E00023184607B05DF804FBF04E0020B0
:10266000F44E0020FC80050060810500C08105005B
:1026700024820500707D05004C7E050000B585B004
:10268000284B1B681B7A1A46274904202EF00BFCA6
:10269000244B1B681B7A032B1AD801A252F823F093
:1026A000B1260200B9260200C1260200C926020096
:1026B00000238DF80F300FE001238DF80F300BE071
:1026C00002238DF80F3007E003238DF80F3003E06D
:1026D00002238DF80F3000BF9DF80F3018460BF025
:1026E00025FA0290029B002B0DD010482EF0C4FB5F
:1026F0000246029B009340F26F230D4902202EF008
:10270000FDFB029B0AE00B4B01221A700A4B0022D0
:102710004FF0617118462BF091F90346184605B049
:102720005DF804FBF04E002088820500707D0500F6
:102730004C7E0500FB4E0020804F002000B585B088
:10274000274B1B78022B41D1FFF7CCFD0390039B55
:10275000002B0DD023482EF08FFB0246039B0093E5
:1027600040F28123204902202EF0C8FB039B33E076
:102770000DF10A0318460BF0F1F80390039B002BB0
:102780000DD018482EF078FB0246039B00934FF4BF
:102790002173154902202EF0B1FB039B1CE0BDF80C
:1027A0000A301846FFF7F2FE0390039B002B0DD072
:1027B0000C482EF061FB0246039B009340F28723F6
:1027C000094902202EF09AFB039B05E0044B0022EE
:1027D0001A700BF053FB0346184605B05DF804FB76
:1027E000FB4E0020707D05004C7E050000B587B0D3
:1027F0000190134B1B685B7A8DF80C30104B1B68F3
:102800009B7A8DF80D300E4B1B68DB7A8DF80E30FD
:1028100003AB1946002009F029FD0CF04BFA059096
:10282000059B0493049B002B05D0064A40F29F2190
:1028300004982AF037F900BF07B05DF804FB00BF29
:10284000F04E0020707D0500F0B585B02B4B1B6865
:102850005B7A8DF80030294B1B689B7A8DF801302C
:10286000264B1B68DB7A8DF802306B461946002038
:1028700009F0FCFC0CF080FA0390039B0293029B8E
:10288000002B05D01E4A40F2AF2102982AF00AF927
:102890000CF010FA0390039B0193019B002B05D0D1
:1028A000174A40F2B22101982AF0FCF8154F134B59
:1028B0001B68DB889BB299B24FF000024FF0000317
:1028C0004FF00004D40344EA5144CB0313F5FA75E6
:1028D00044F100064FF47A724FF000032846314667
:1028E00032F036FC03460C460022194638462BF0DF
:1028F000A5F80346184605B0F0BD00BFF04E002015
:10290000707D0500604F002000B585B0124B184661
:102910002BF0C6F80390039B0293029B002B05D07B
:102920000E4A40F2BF2102982AF0BCF8002009F0BC
:102930004BFC0CF0F7FA0390039B0193019B002BD7
:1029400005D0064A4FF4317101982AF0ABF8002304
:10295000184605B05DF804FB604F0020707D05004F
:1029600000B585B00190019B1B889BB2632B32D9C7
:10297000019B1B889BB24EF6602293422BD8019B91
:102980005B889BB2312B26D9019B5B889BB24EF6AC
:10299000602293421FD8019B9B889BB2632B1AD95C
:1029A000019B9B889BB24EF66022934213D8019BF9
:1029B000DB889BB2C72B0ED9019BDB889BB24EF6FE
:1029C0006022934207D8019B1B7A002B03D0019B06
:1029D0001B7A032B0ED90A4800F04EFD0390039B8F
:1029E0000293029B002B05D0064A40F2DA2102989E
:1029F0002AF058F80023184605B05DF804FB00BF24
:102A0000687C0500707D050000B589B00190019BD0
:102A1000002B01D10E236AE00020FFF7FFFAFFF739
:102A2000A5FB0120FFF70EFDFFF76EFF019B1B8842
:102A30009BB2002B12D0304B93F83630002B0DD0C8
:102A4000FFF776FA0790079B0693069B002B05D0AD
:102A50002A4A40F2F32106982AF024F8019B5B8869
:102A60009BB2002B12D0244B93F83730002B0DD0A3
:102A7000FFF730FB0790079B0593059B002B05D0C4
:102A80001E4A40F2FA2105982AF00CF8019B9B8817
:102A90009BB2002B12D0184B93F83830002B0DD07E
:102AA000FFF76CFC0790079B0493049B002B05D059
:102AB000124A40F20131049829F0F4FF019BDB88AF
:102AC0009BB2002B12D00C4B93F83A30002B0DD058
:102AD000FFF7BAFE0790079B0393039B002B05D0DB
:102AE000064A4FF44271039829F0DCFF0023184690
:102AF00009B05DF804FB00BFB04E0020707D0500FA
:102B000000B593B0039001921A460B468DF80B3036
:102B10001346ADF808309DF80B30052B00F24281CA
:102B200001A252F823F000BF412B0200B92B020092
:102B3000132C02008B2C0200E12C0200372D020026
:102B4000039B93F836301A469F4904202EF0ABF9C8
:102B5000039B93F83630002B0FD0FFF7E9F9119063
:102B6000119B1093109B002B00F01E81974A40F29E
:102B70002731109829F096FF16E1039B93F838301F
:102B8000002B14BF01230023DBB283F00103DBB26F
:102B900003F00103DBB21846FFF740FA1190119BD6
:102BA0000F930F9B002B00F0FF80884A4FF44B716E
:102BB0000F9829F077FFF7E0039B93F837301A4618
:102BC000834904202EF06FF9039B93F83730002BD4
:102BD0000FD0FFF77FFA1190119B0E930E9B002BE5
:102BE00000F0E480794A40F235310E9829F05AFF1E
:102BF000DCE0FFF7BBFA1190119B0D930D9B002BAE
:102C000000F0D480714A40F23A310D9829F04AFF21
:102C1000CCE0039B93F838301A466E4904202EF01E
:102C200042F9039B93F83830002B0FD0FFF7A6FB37
:102C30001190119B0C930C9B002B00F0B980634A00
:102C400040F243310C9829F02DFFB1E0039B93F83B
:102C50003630002B14BF01230023DBB283F00103C5
:102C6000DBB203F00103DBB21846FFF7EBFB119078
:102C7000119B0B930B9B002B00F09A80534A4FF44F
:102C800052710B9829F00EFF92E0039B93F83930B4
:102C90001A46514904202EF006F9039B93F8393067
:102CA000002B0ED0FFF7EAFC1190119B0A930A9BB0
:102CB000002B7FD0454A40F251310A9829F0F2FEAC
:102CC00078E0FFF73BFD1190119B0993099B002BC6
:102CD00070D03E4A40F25631099829F0E3FE69E08F
:102CE000039B93F83A301A463C4904202EF0DBF857
:102CF000039B93F83A30002B0ED0FFF7A5FD1190FF
:102D0000119B0893089B002B56D0304A40F25F314C
:102D1000089829F0C7FE4FE0FFF7F6FD1190119BD0
:102D20000793079B002B47D0284A4FF45971079807
:102D300029F0B8FE40E0BDF808301A4628490420C2
:102D40002EF0B1F8BDF808300C2B0CBF0123002386
:102D5000DBB20693069B002B05D11C4A40F26B3177
:102D6000002029F09FFE019800F086FB1190119B36
:102D70000593059B002B05D0144A40F26E3105984F
:102D800029F090FE0198FFF73FFE1190119B0493EC
:102D9000049B002B12D00D4A40F27131049829F0A7
:102DA00081FE0BE000BF0AE000BF08E000BF06E0C4
:102DB00000BF04E000BF02E000BF00E000BF00BFB2
:102DC00013B05DF804FB00BFBC820500707D0500F8
:102DD0000C83050058830500A4830500EC830500DF
:102DE0003484050000B597B003468DF80F300023FA
:102DF0008DF8483000238DF84930002310930023CC
:102E00008DF8443000238DF83F300DAB00221A605E
:102E10005A600023ADF830300023ADF83230464B15
:102E2000464A4749474800F097FC1590159B002BF0
:102E30000DD045482EF020F80246159B009340F235
:102E40008E33424902202EF059F8159B6FE09DF811
:102E50000F30002B1DD03B4800F00EFB1590159B4A
:102E60001493149B002B05D0374A40F293311498E9
:102E700029F018FE314800F0B7FB1590159B13930D
:102E8000139B002B05D0304A40F29631139829F05D
:102E900009FE2B4B1B681846FFF762FD1590159B2A
:102EA000002B0DD028482DF0E7FF0246159B00931C
:102EB00040F29A33254902202EF020F8159B36E087
:102EC00005AB1C220021184632F0A7FD12AB05937A
:102ED00010AB06930DF13F0307930DAB09930CABB9
:102EE0000893174B1B680A93194B0B93194903203E
:102EF0002DF0C8FF05AB1946174820F071FF15905B
:102F0000159B002B0DD010482DF0B6FF0246159BE7
:102F100000934FF46A730D4902202DF0EFFF159BCB
:102F200005E0074B1B681846FFF76EFD00231846A7
:102F300017B05DF804FB00BFF44E0020747C050060
:102F4000F04E0020687C0500707D05004C7E050079
:102F5000012B020080840500B04E002000B585B032
:102F6000019001990C4820F00AFF019B1B88112B4E
:102F70000DD100F0B1F80390039B0293029B002B4C
:102F800005D0064A40F2BE31029829F08BFD00BF01
:102F900005B05DF804FB00BFB04E0020707D050059
:102FA00000B589B00190002307935F238DF80830A6
:102FB00018230393019B0493064B0593064B06933A
:102FC00002AB184610F0C2FC0790079B184609B0E8
:102FD0005DF804FBD4840500391D020000B589B0FA
:102FE00001905C238DF8083017230393019B049311
:102FF000074B0593074B069301238DF81C3002AB5A
:1030000018460EF0B9FC0346184609B05DF804FBFB
:10301000E4840500D11C020000B58BB00390039B33
:103020000593114B06935A238DF81C300F4B0893D0
:1030300005AB18460BF026F80990099B002B0DD024
:103040000B482DF019FF0246099B009340F20A43FA
:10305000084902202DF052FF099B00E0002318468A
:103060000BB05DF804FB00BFF48405003D1E0200B8
:10307000707D05004C7E050000B58BB00390039B6E
:103080000593114B069338238DF81C300F4B089392
:1030900005AB18460BF074FD0990099B002B0DD071
:1030A0000B482DF0E9FE0246099B009340F22343B2
:1030B000084902202DF022FF099B00E0002318465A
:1030C0000BB05DF804FB00BF04850500851E0200FF
:1030D000707D05004C7E050000B587B00020FEF72E
:1030E0009DFF0590059B0493049B002B05D0224A6D
:1030F00040F23441049829F0D5FCFFF737F80590E9
:10310000059B0393039B002B05D01B4A40F23741DC
:10311000039829F0C7FC0120FFF794F90590059B5F
:103120000293029B002B05D0134A40F23A410298C9
:1031300029F0B8FCFFF7E8FB0590059B0193019B84
:10314000002B05D00C4A40F23D41019829F0AAFC21
:10315000FFF7F4FA0590059B0093009B002B05D028
:10316000054A4FF48861009829F09CFC002318461A
:1031700007B05DF804FB00BF707D050000B58DB0A1
:1031800003900291039B002B01D10E23BAE0029B16
:10319000002B01D10E23B5E05C4903202DF072FE17
:1031A000039B5B4A5A60039B5A4A1A60029B1B6846
:1031B0001846FFF713FF0B900B9B0A930A9B002BFB
:1031C00005D0554A40F254410A9829F06BFC029B05
:1031D0001B681846FFF7E4FE0B900B9B0993099BB5
:1031E000002B05D04C4A40F25741099829F05AFC6F
:1031F000029B1B681846FFF70FFF0B900B9B089371
:10320000089B002B05D0444A40F25A41089829F007
:1032100049FC029B1B681846FFF72EFF0B900B9B87
:103220000793079B002B05D03B4A40F25D4107986E
:1032300029F038FC394A012139482AF0CFFB0B909C
:103240000B9B0693069B002B05D0334A40F261414D
:10325000069829F027FC334A012133482AF0BEFBA7
:103260000B900B9B0593059B002B05D02A4A40F23F
:103270006441059829F016FC2C4A01212C482AF0BB
:10328000ADFB0B900B9B002B0DD023482DF0F4FDD4
:1032900002460B9B009340F26743264902202DF023
:1032A0002DFE0B9B2EE0244A012124482AF096FB98
:1032B0000B900B9B002B0DD017482DF0DDFD024627
:1032C0000B9B009340F26A431A4902202DF016FE30
:1032D0000B9B17E01A4A01211A482AF07FFB0B903A
:1032E0000B9B002B0DD00C482DF0C6FD02460B9B0E
:1032F000009340F26D430F4902202DF0FFFD0B9B20
:1033000000E0002318460DB05DF804FBB084050012
:103310005D2F0200E52D0200707D0500F91E020000
:103320007C7C0500A5200200807C0500452302006E
:10333000847C05004C7E0500ED270200887C05009A
:10334000B92102008C7C050000B589B00390039B75
:103350001B78002B02D0012B1AD05BE0039B5B682B
:10336000002B06D13A4B01221A703A4B01221A70F7
:1033700065E0394901202DF085FD00230793079B67
:10338000002B5CD1354A7221002029F08BFB56E0DE
:10339000039B5B68002B2ED1039B9B8941F20102AA
:1033A000934210D1039B1B7C1A46039B9B891946B1
:1033B000039BDB8900930B46294903202DF09EFDDA
:1033C000284B01221A70039B9B8941F2030293420E
:1033D00037D1039B1B7C1A46039B9B891946039B91
:1033E000DB8900930B46204903202DF087FD1F4BFE
:1033F00001221A7025E01E4901202DF043FD002313
:103400000693069B002B1CD1144A8C21002029F026
:1034100049FB16E0039B1B781A46039B5B68154922
:1034200003202DF054FD039B5B680593059B002B47
:1034300009D00A4A9121059829F034FB03E000BF26
:1034400002E000BF00E000BF00BF09B05DF804FB70
:10345000D54F0020D74F0020148505004485050076
:1034600094850500D44F0020E4850500D64F002048
:10347000388605006886050000B58BB003901F49AB
:1034800003202DF0FFFC039B002B01D10E2330E025
:103490000C2203991A4832F097FA1A4B42221A600A
:1034A000184B04930423ADF8143041F20103ADF836
:1034B000183041F20203ADF81A3004AB0793012330
:1034C000ADF8203006AB19460F482CF098FC099057
:1034D000099B002B0CD00D482DF0CEFC0246099B19
:1034E0000093AE230A4902202DF008FD099B00E05D
:1034F000002318460BB05DF804FB00BF988605005A
:10350000BC4F0020B84F0020A04F0020448505008C
:10351000C886050000B58BB0039005AB08220021DA
:10352000184632F07AFA2A4903202DF0ABFC05AB9D
:10353000284A41F2020141F201002CF0CFFC09902F
:10354000099B002B0CD024482DF096FC0246099BC9
:103550000093BF23214902202DF0D0FC099B33E0CA
:1035600007AB19461B482CF0BFFB0990099B002BA9
:103570000CD019482DF080FC0246099B0093C22311
:10358000164902202DF0BAFC099B1DE0089B102271
:103590001946134832F018FA0E482CF0E1FB099056
:1035A000099B002B0CD00C482DF066FC0246099BB1
:1035B0000093C723094902202DF0A0FC099B03E0DA
:1035C000039B084A1A60002318460BB05DF804FB01
:1035D0001C870500A04F002044850500C886050013
:1035E000B84F0020BC4F002000B58BB003901F499E
:1035F00004202DF047FC039B002B01D10E2330E06B
:10360000082203991A4832F0DFF91A4B42221A6055
:10361000184B04930323ADF8143041F20303ADF8C3
:10362000183041F20403ADF81A3004AB07930123BC
:10363000ADF8203006AB19460F482CF0E0FB09909E
:10364000099B002B0CD00D482DF016FC0246099B5F
:103650000093E6230A4902202DF050FC099B00E06C
:10366000002318460BB05DF804FB00BF4C87050033
:10367000CC4F0020C84F0020AC4F002044850500EF
:10368000C886050000B58BB0039005AB0822002169
:10369000184632F0C2F92A4904202DF0F3FB05AB9D
:1036A000284A41F2040141F203002CF017FC099072
:1036B000099B002B0CD024482DF0DEFB0246099B11
:1036C0000093F723214902202DF018FC099B33E0D9
:1036D00007AB19461B482CF007FB0990099B002BF0
:1036E0000CD019482DF0C8FB0246099B0093FA2321
:1036F000164902202DF002FC099B1DE0089B0C22BC
:103700001946134832F060F90E482CF029FB099055
:10371000099B002B0CD00C482DF0AEFB0246099BF8
:103720000093FF23094902202DF0E8FB099B03E0E9
:10373000039B084A1A60002318460BB05DF804FB8F
:103740007C870500AC4F002044850500C886050035
:10375000C84F0020CC4F002000B593B005900491D5
:10376000039202938D4903202DF08CFB059B002BC7
:1037700001D10E230DE1039B002B01D10E2308E1A3
:1037800087482CF01BFA1190119B002B0DD0854817
:103790002DF072FB0246119B00934FF48A7382490D
:1037A00002202DF0ABFB119BF3E02CF027FA1190D7
:1037B000119B002B0FD07B482DF05EFB0246119B26
:1037C000009340F21713784902202DF097FB119BCC
:1037D000DFE029F0E9FA754B1B7883F00103DBB2D7
:1037E000002BF6D1724B1B7883F00103DBB2002B68
:1037F000EFD10498FFF78EFE1190119B0A2B45D153
:103800006C4903202DF03EFB0C2205996A4832F0EA
:10381000DBF86A4B42221A60684B0C930423ADF824
:10382000343041F20103ADF8383041F20203ADF813
:103830003A300CAB0F930123ADF84030604B0022BF
:103840001A700EAB19465F482CF0CAFA1190119B02
:10385000002B0DD053482DF00FFB0246119B009317
:1038600040F23513504902202DF048FB119B90E0A7
:10387000049B514A1A6001E029F096FA504B1B78DC
:1038800083F00103DBB2002BF6D110E0119B002B7B
:103890000DD044482DF0F0FA0246119B00934FF4EE
:1038A000A073414902202DF029FB119B71E0029881
:1038B000FFF7E8FE1190119B0A2B58D1039B1B8840
:1038C0009BB21946039B5B889BB21846039B9B885F
:1038D0009BB21A46039BDB889BB20193009203467E
:1038E0000A46394903202DF022FB08220399374864
:1038F00032F06AF8364B42221A60354B07930323A5
:10390000ADF8203041F20303ADF8243041F2040356
:10391000ADF8263007AB0A930123ADF82C302D4BC0
:1039200000221A7009AB19462B482CF059FA119055
:10393000119B002B0DD01B482DF09EFA0246119BC7
:1039400000934FF4AD73184902202DF0D7FA119B64
:103950001FE0029B1D4A1A6001E029F025FA1D4B69
:103960001B7883F00103DBB2002BF6D110E0119B32
:10397000002B0DD00B482DF07FFA0246119B0093CF
:1039800040F26513084902202DF0B8FA119B00E0BF
:103990000023184613B05DF804FB00BFA88705009C
:1039A0004933020044850500C8860500D54F002034
:1039B000D74F0020D4870500BC4F0020B84F00200F
:1039C000D44F0020A04F002008880500CC4F0020D5
:1039D000C84F0020D64F0020AC4F002000B589B062
:1039E0000190019B002B01D10E2327E0019B1B8836
:1039F0009BB2ADF80C30019B5B889BB2ADF80E30EA
:103A0000019B9B889BB2ADF81030019BDB889BB279
:103A1000ADF81230019B1B7A8DF8143003AB1846B9
:103A20000DF0FAFA0790079B0693069B002B04D033
:103A3000044A4C21069829F035F80023184609B0AD
:103A40005DF804FB7088050000B59BB003900192FF
:103A50001A460B468DF80B301346ADF808309DF82A
:103A60000B300B2B00F2138201A252F823F000BF9F
:103A7000273E0200A13A0200FF3A02005D3B02002D
:103A8000B73B0200153C02006F3C0200C93C02003B
:103A9000233D0200A13D0200F73D0200093E020065
:103AA000039B93F866301A46B44903202DF0FBF9C6
:103AB000039B93F86630002B10D04FF480700DF00C
:103AC000FBF81990199B1893189B002B00F0E181CB
:103AD000AB4A6021189828F0E5FFDAE14FF48070D6
:103AE0000DF012FA1990199B1793179B002B00F0F9
:103AF000D081A34A6521179828F0D4FFC9E1039B20
:103B000093F867301A469F4903202DF0CCF9039BA8
:103B100093F86730002B10D04FF400700DF0CCF804
:103B20001990199B1693169B002B00F0B481944AB0
:103B30006E21169828F0B6FFADE14FF400700DF03D
:103B4000E3F91990199B1593159B002B00F0A381A5
:103B50008B4A7321159828F0A5FF9CE1039B93F8ED
:103B600068301A46884903202DF09DF9039B93F88D
:103B70006830002B0FD008200DF09EF81990199B8B
:103B80001493149B002B00F088817D4A7C211498AB
:103B900028F088FF81E108200DF0B6F91990199BF3
:103BA0001393139B002B00F07881754A81211398A1
:103BB00028F078FF71E1039B93F869301A46734946
:103BC00003202DF070F9039B93F86930002B10D07F
:103BD0004FF480600DF070F81990199B1293129BAE
:103BE000002B00F05C81664A8A21129828F05AFF67
:103BF00055E14FF480600DF087F91990199B1193EE
:103C0000119B002B00F04B815D4A8F21119828F009
:103C100049FF44E1039B93F86A301A465C4903204C
:103C20002DF041F9039B93F86A30002B0FD0072049
:103C30000DF042F81990199B1093109B002B00F087
:103C400030814F4A9821109828F02CFF29E1072055
:103C50000DF05AF91990199B0F930F9B002B00F050
:103C60002081474A9D210F9828F01CFF19E1039BF2
:103C700093F86B301A46474903202DF014F9039B43
:103C800093F86B30002B0FD010200DF015F8199021
:103C9000199B0E930E9B002B00F00581384AA6213C
:103CA0000E9828F0FFFEFEE010200DF02DF919907F
:103CB000199B0D930D9B002B00F0F580304AAB2132
:103CC0000D9828F0EFFEEEE0039B93F86C301A4657
:103CD000314903202DF0E7F8039B93F86C30002B5B
:103CE0000FD020200CF0E8FF1990199B0C930C9B2F
:103CF000002B00F0DA80224AB4210C9828F0D2FE82
:103D0000D3E020200DF000F91990199B0B930B9B29
:103D1000002B00F0CA801A4AB9210B9828F0C2FE85
:103D2000C3E0039B93F86D301A461C4903202DF025
:103D3000BAF8039B93F86D30002B0FD040200CF0A5
:103D4000BBFF1990199B0A930A9B002B00F0AF80D0
:103D50000B4AC2210A9828F0A5FEA8E040200DF0E9
:103D6000D3F81990199B0993099B002B00F09F80B1
:103D7000034AC721099828F095FE98E0B888050005
:103D8000708805000489050058890500A48905008C
:103D9000F4890500408A05008C8A0500DC8A05004C
:103DA000039B93F86E301A46454903202DF07BF8AB
:103DB000039B93F86E30002B0ED080200CF07CFF1C
:103DC0001990199B0893089B002B72D03D4AD02173
:103DD000089828F067FE6CE080200DF095F81990A7
:103DE000199B0793079B002B63D0364AD521079870
:103DF00028F058FE5DE0039B93F86F301A46324975
:103E000003202DF050F857E0BDF80830039A0199CF
:103E1000184603F0A3FEBDF808301A4600210198A9
:103E200031F0FBFD48E0BDF808301A462749032071
:103E30002DF039F8BDF80830092B0CBF0123002301
:103E4000DBB20693069B002B04D11E4AF021002012
:103E500028F028FE019800F031FF1990199B059376
:103E6000059B002B04D0174AF321059828F01AFE71
:103E70000198FFF7B3FD1990199B0493049B002B45
:103E800019D0104AF621049828F00CFE13E000BF68
:103E900012E000BF10E000BF0EE000BF0CE000BF6A
:103EA0000AE000BF08E000BF06E000BF04E000BF7A
:103EB00002E000BF00E000BF00BF1BB05DF804FBE4
:103EC0002C8B0500708805007C8B0500CC8B0500D1
:103ED00000B589B003468DF80F303249324800F002
:103EE000A5FF0790079B002B0DD030482CF0C4FF96
:103EF0000246079B009340F20D132D4902202CF03F
:103F0000FDFF079B49E09DF80F30002B0ED026489F
:103F100000F0D4FE0790079B0693069B002B05D06C
:103F2000224A4FF48971069828F0BCFD1D4B1B688E
:103F30001846FFF753FD0790079B002B0DD01B4839
:103F40002CF09AFF0246079B00934FF48B7318499D
:103F500002202CF0D3FF079B1FE004AB08220021B6
:103F6000184631F05AFD0F4B1B680493114B059313
:103F7000114903202CF086FF04AB19460F4822F0AC
:103F80001DFF0790079B002B06D0079A0C490120C4
:103F90002CF089FF079B00E00023184609B05DF86C
:103FA00004FB00BF545000206488050070880500A1
:103FB0001C8C0500493A0200708C0500D84F002087
:103FC000B08C050000B585B0019001990D4822F034
:103FD000C5FE019B1B88112B0FD140F6FF700CF022
:103FE00093FF0390039B0293029B002B05D0064A8C
:103FF00040F23711029828F055FD00BF05B05DF87A
:1040000004FB00BFD84F0020708805002DE9F04761
:10401000BAB002AFF860B9607A60FB681B78082B11
:1040200000F2718501A252F823F000BF5140020056
:10403000054502005D450200E745020073480200A5
:10404000C3480200EF490200454A0200B54A020097
:104050007B68242B0CBF01230023DBB2C7F8D830C8
:10406000D7F8D830002B05D11F4A4FF4A17100209A
:1040700028F018FDBB68C7F8D430002387F8DD307E
:1040800064E097F8DD309B00D7F8D42013441B6818
:104090001B14A7F8D23097F8DD30144A32F91330E8
:1040A000B7F9D2209A4225DB97F8DD10B7F9D20094
:1040B00097F8DD300D4A32F91330009303460A4673
:1040C0000B4902202CF01AFF97F8DD30074A32F92D
:1040D0001330194697F8DD309B00D7F8D4201344ED
:1040E0000A041A602DE000BF70880500E491050005
:1040F000DC8C050097F8DD30C54A32F91330B7F98A
:10410000D2209A421DDA97F8DD10B7F9D20097F85D
:10411000DD30BF4A32F91330009303460A46BD49E9
:1041200002202CF0EBFE97F8DD30B94A32F913305B
:10413000194697F8DD309B00D7F8D42013440A04C1
:104140001A6097F8DD30013387F8DD3097F8DD30FD
:10415000082B96D9D7F8D4301B689B111BB2A7F84F
:104160006430D7F8D43004331B689B111BB2A7F816
:104170006630D7F8D43008331B689B111BB2A7F800
:104180006830D7F8D4300C331B68DB121BB2A7F8A9
:104190006A30D7F8D43010331B68DB121BB2A7F893
:1041A0006C30D7F8D43014331B68DB121BB2A7F87D
:1041B0006E30D7F8D43018331B681B139BB25B42A8
:1041C0009BB21BB2A7F87230D7F8D4301C331B68EF
:1041D0001B131BB2A7F87030D7F8D43020331B68FC
:1041E0001B131BB2A7F874308B4904202CF04AFE35
:1041F000D7F8D4301B6818462EF0BAFD03460C469B
:10420000C7E932344FF00002844BD7E932012FF076
:104210003FF903460C46C7E9323407F15C00D7E9A1
:1042200032237F4931F004FA07F15C0318462CF081
:1042300023FE03461A467B4904202CF034FED7F8AF
:10424000D43004331B6818462EF092FD03460C460A
:10425000C7E932344FF00002704BD7E932012FF03A
:1042600017F903460C46C7E9323407F15C00D7E979
:1042700032236B4931F0DCF907F15C0318462CF06E
:10428000FBFD03461A46684904202CF00CFED7F8C3
:10429000D43008331B6818462EF06AFD03460C46DE
:1042A000C7E932344FF000025C4BD7E932012FF0FE
:1042B000EFF803460C46C7E9323407F15C00D7E952
:1042C0003223574931F0B4F907F15C0318462CF05A
:1042D000D3FD03461A46554904202CF0E4FDD7F8D7
:1042E000D4300C331B6818462EF042FD03460C46B2
:1042F000C7E932344FF00002484BD7E932012FF0C2
:10430000C7F803460C46C7E9323407F15C00D7E929
:104310003223434931F08CF907F15C0318462CF045
:10432000ABFD03461A46424904202CF0BCFDD7F8E9
:10433000D43010331B6818462EF01AFD03460C4685
:10434000C7E932344FF00002344BD7E932012FF085
:104350009FF803460C46C7E9323407F15C00D7E901
:1043600032232F4931F064F907F15C0318462CF031
:1043700083FD03461A462F4904202CF094FDD7F8FC
:10438000D43014331B6818462EF0F2FC03460C465A
:10439000C7E932344FF00002204BD7E932012FF049
:1043A00077F803460C46C7E9323407F15C00D7E9D9
:1043B00032231B4931F03CF907F15C0318462CF01D
:1043C0005BFD03461A461C4904202CF06CFDD7F80F
:1043D000D4301C331B6818462EF0CAFC03460C462A
:1043E000C7E932344FF000020C4BD7E932012FF00D
:1043F0004FF803460C46C7E9323407F15C00D7E9B1
:104400003223074931F014F907F15C03184615E02F
:10441000F8910500288D0500748D05000000F0401E
:10442000A48D0500AC8D0500DC8D05000C8E05000B
:104430003C8E0500708E0500A48E05002CF01CFD3E
:1044400003461A46BC4904202CF02DFDD7F8D43081
:1044500018331B6818462EF08BFC03460C461A4690
:10446000C7F8C82084F00043C7F8CC304FF00002F2
:10447000B24BD7E932012FF00BF803460C46C7E9DF
:10448000323407F15C00D7E93223AD4931F0D0F87E
:1044900007F15C0318462CF0EFFC03461A46A949C5
:1044A00004202CF000FDD7F8D43020331B681846C8
:1044B0002EF05EFC03460C46C7E932344FF0000292
:1044C0009E4BD7E932012EF0E3FF03460C46C7E9C5
:1044D000323407F15C00D7E93223994931F0A8F86A
:1044E00007F15C0318462CF0C7FC03461A469649B0
:1044F00004202CF0D8FC07F164031946934822F0FD
:1045000049FE05E37B68102B0CBF01230023DBB2BF
:10451000C7F8C430D7F8C430002B05D18C4A40F21C
:10452000BF11002028F0BEFABB68C7F8C030D7F82A
:10453000C0301B68FB64D7F8C0305B683B65D7F8B8
:10454000C0309B687B65D7F8C030DB68BB6507F17E
:104550004C0319467D4822F097FDD9E27B680C2B6D
:104560000CBF01230023DBB2C7F8BC30D7F8BC3046
:10457000002B05D1764A40F2E111002028F092FA92
:10458000BB68C7F8B830D7F8B8301B683B64D7F8B9
:10459000B8305B687B64D7F8B8309B68BB643B6C11
:1045A000002B02DA03F57F43FF331B141A467B6CA2
:1045B000002B02DA03F57F43FF331B141946BB6C53
:1045C000002B02DA03F57F43FF331B1400930B46E5
:1045D000604904202CF092FC07F1400319465B4827
:1045E00022F01BFE94E26B469A467B68242B0CBF9C
:1045F00001230023DBB2C7F8B430D7F8B430002B66
:1046000005D1534A4FF4F971002028F04BFABB68EA
:10461000C7F8B030D7F8B0301B681B141BB2BB858D
:10462000D7F8B03004331B681B141BB2FB85D7F8D6
:10463000B03008331B681B141BB23B86D7F8B03070
:104640000C331B681B141BB27B86D7F8B0301033B9
:104650001B681B141BB2BB86D7F8B03014331B6821
:104660001B141BB2FB86D7F8B03018331B681B1421
:104670001BB23B87D7F8B0301C331B681B141BB22E
:104680007B87D7F8B03020331B681B141BB2BB8765
:10469000314B1B78013BC7F8AC302F4B1B78D9B29C
:1046A0004FF000020B46144613EB030844EB0409D9
:1046B00043464C465B1842EB04044FF000014FF0B8
:1046C0000002220142EA137219010B461446224BE2
:1046D0001B781A4613465B0013445B001E4B1B7885
:1046E000D9B24FF000020B461446DD1844EB040625
:1046F0002B4634465B1842EB04044FF000014FF0A8
:104700000002220142EA137219010B461446124BB1
:104710001B781A4613465B0013445B000733DB0823
:10472000DB00ADEB030D02AB0033C7F8A83000236C
:1047300087F8DE3038E000BFD88E05000000F0407A
:10474000A48D0500088F0500388F0500D84F002084
:1047500070880500688F05000A92050097F8DE3022
:104760009B00D7F8B02013441B6818462EF000FBBE
:104770004FF00002C24B2EF08BFE03460C46C7E9F9
:10478000283497F8DE2013465B0013445B00D7F80B
:10479000A820D018D7E92823BA4930F049FF97F864
:1047A000DE30013387F8DE30B74B1B7897F8DE2018
:1047B0009A42D3D3B54904202CF064FBD7F8A83033
:1047C00018462CF059FB0446D7F8A8300633184693
:1047D0002CF052FB0546D7F8A8300C3318462CF0C5
:1047E0004BFB034600932B462246A94904202CF09C
:1047F00085FBD7F8A830123318462CF03DFB044651
:10480000D7F8A830183318462CF036FB0546D7F8F1
:10481000A8301E3318462CF02FFB034600932B467E
:1048200022469B4904202CF069FBD7F8A83024339A
:1048300018462CF021FB0446D7F8A8302A33184636
:104840002CF01AFB0546D7F8A830303318462CF068
:1048500013FB034600932B4622468D4904202CF07F
:104860004DFB07F12C0319468A4822F019FDD54665
:104870004EE17B68042B0CBF01230023DBB2C7F899
:104880009C30D7F89C30002B05D1834A40F2172189
:10489000002028F007F9BB681B68BB62BB6A002BCD
:1048A00002DA03F57F43FF331B141A467B490420C9
:1048B0002CF0F9FA07F128031946764822F033FD67
:1048C00026E16B461D467B680C2B0CBF01230023A1
:1048D000DBB2C7F89830D7F89830002B05D16E4A74
:1048E00040F22221002028F0DDF8BB68C7F89430A0
:1048F000D7F894301B68FB61D7F894305B683B6253
:10490000D7F894309B687B62654B1B78013BC7F8F6
:104910009030634B1B78D9B24FF000024FF0000388
:104920004FF00004940144EA91648B015C4B1B78C6
:10493000D9B24FF000024FF000034FF00004940191
:1049400044EA91648B01564B1B78DB000733DB088C
:10495000DB00ADEB030D02AB0033C7F88C30002356
:1049600087F8DF301AE097F8DF30DB00D7F88C20CB
:10497000D41897F8DF309B00D7F8942013441B68B5
:1049800018462EF031FB02460B464649204630F0D1
:104990004FFE97F8DF30013387F8DF30404B1B784C
:1049A00097F8DF209A42DED3D7F88C3018462CF0E7
:1049B00063FA0446D7F88C30083318462CF05CFABA
:1049C0000646D7F88C30103318462CF055FA0346BB
:1049D000009333462246344904202CF08FFA07F125
:1049E0001C0319462B4822F0E2FCAD4690E07B68A0
:1049F000022B0CBF01230023DBB2C7F88830D7F8A5
:104A00008830002B05D1244A40F23F21002028F0B5
:104A100049F8BB68C7F88430D7F884301B783B76F8
:104A2000D7F884305B787B767B7E1A463B7E1F49C5
:104A300004202CF04CFA07F118031946154822F00F
:104A40009DFA65E07B68012B0CBF01230023DBB2DC
:104A5000C7F88030D7F88030002B05D10E4A4FF4CC
:104A60001471002028F01EF8BB681B781A46104904
:104A700004202CF018FAB968064822F0C2FA47E080
:104A80000000D041CC8F05000A920500D48F0500AC
:104A900008900500D84F0020708805003090050070
:104AA0000B9205007090050078900500C4900500F9
:104AB000FC9005007B68082B0CBF01230023DBB2B0
:104AC000FB67FB6F002B05D1144A40F25A210020EE
