:020000021000EC
:10F000000000012033F10100D9F00100DBF0010024
:10F01000DDF00100DFF00100E1F001000000000080
:10F02000000000000000000000000000E3F001000C
:10F03000E5F0010000000000E7F00100E9F0010048
:10F0400079B00400EDF00100EFF00100D9A3040055
:10F05000F3F00100D91F0500E192040059B3040048
:10F06000FBF00100FDF00100FFF0010001F10100E3
:10F0700003F101003DC2040007F1010009F10100A4
:10F080000BF1010059D804000FF1010011F101004A
:10F0900099D8040015F10100610B050019F1010078
:10F0A0001BF101001DF10100E5C30400411D050035
:10F0B000F1AC0400F5BD04000000000000000000F9
:10F0C00027F1010029F101002BF101002DF10100D0
:08F0D0002FF1010031F10100F4
:10F0D800FEE7FEE7FEE7FEE7FEE7FEE7FEE7FEE700
:10F0E800FEE7FEE7FEE7FEE7FEE7FEE7FEE7FEE7F0
:10F0F800FEE7FEE7FEE7FEE7FEE7FEE7FEE7FEE7E0
:10F10800FEE7FEE7FEE7FEE7FEE7FEE7FEE7FEE7CF
:10F11800FEE7FEE7FEE7FEE7FEE7FEE7FEE7FEE7BF
:10F12800FEE7FEE7FEE7FEE7FEE70348854600F058
:10F13800C5F800F003B87047000001203749384887
:10F148000A1A02D0072291438D46364936480A1AD0
:10F1580006D00722914381F30988022282F314889A
:10F1680032483349334A00F048F833483349344A7F
:10F1780000F043F833483449344A00F03EF8344844
:10F188003449354A00F039F834483549354A00F0F1
:10F1980034F835483549364A00F02FF835483649AD
:10F1A800364A00F02AF836483649374A00F025F83A
:10F1B80036483749002200F02BF8364836490022F5
:10F1C80000F026F835483649091A082903DB0022D9
:10F1D8000260043001601F481F49884205D0026858
:10F1E800043003B4904703BCF7E700208646EC469A
:10F1F800002000212B4A9047FEE7884207D0521A88
:10F2080005D0037801300B700131013AF9D170470C
:10F21800884202D002700130FAE7704700000120EE
:10F2280000FC00200000012000000120E83C06004E
:10F238005845002078460020B0F20100B0F20100E5
:10F2480058690500E83C060058450020584500204C
:10F25800586905005869050058690500586905008E
:10F26800586905005869050058690500586905007E
:10F27800E83C0600083E0600784600207846002054
:10F28800083E060078460020884600208846002070
:10F2980038A1002038A1002040A1002040A1002072
:08F2A80040A5002089FD0100D2
:10F2B000024B034A1A6000BF704700BF5845002048
:10F2C0000090D00308B500F00DF90346002B06D0DE
:10F2D000744B1B681B0A744A03F01F03136000F091
:10F2E0002DF90346002B02D0704B714A1A6000F0D2
:10F2F00041F90346002B06D06E4B1B685B0B6E4A30
:10F3000003F00703136000F061F90346002B05D0FA
:10F310006A4BDB68694A23F08073D36000F072F9AE
:10F320000346002B0ED04FF080430022C3F80C217F
:10F330004FF080430022C3F810214FF08043002299
:10F34000C3F8382500F08AF90346002B02D05C4B45
:10F3500003221A6000F09EF90346002B0BD0594B94
:10F3600005221A60584B01221A60584B00221A607D
:10F37000574B3F221A6000F0A9F90346002B76D0C4
:10F380004FF08053534AD3F80434C2F820354FF07D
:10F390008053504AD3F80834C2F824354FF08053D4
:10F3A0004C4AD3F80C34C2F828354FF08053494A00
:10F3B000D3F81034C2F82C354FF08053454AD3F8B7
:10F3C0001434C2F830354FF08053424AD3F8183421
:10F3D000C2F834354FF080533E4AD3F81C34C2F89B
:10F3E00040354FF080533B4AD3F82034C2F84435BF
:10F3F0004FF08053374AD3F82434C2F848354FF0E1
:10F400008053344AD3F82834C2F84C354FF0805337
:10F41000304AD3F82C34C2F850354FF080532D4A7F
:10F42000D3F83034C2F854354FF08053294AD3F81A
:10F430003434C2F860354FF08053264AD3F838345C
:10F44000C2F864354FF08053224AD3F83C34C2F8F6
:10F4500068354FF080531F4AD3F84034C2F86C35FA
:10F460004FF080531B4AD3F84434C2F8703500F093
:10F4700049F90346002B05D0174B1B68174A03F0C8
:10F480004F031360164BD3F88830154A43F47003CA
:10F49000C2F88830BFF34F8FBFF36F8FFFF708FFBD
:10F4A00000BF08BD240300104035014074C0074070
:10F4B0000DF0ADBA440200103C050040F0ED00E054
:10F4C000A0050040105600408856004018560040E5
:10F4D0001456004000C0004058020010E40E0040E6
:10F4E00000ED00E0124B1B68DBB2062B1DD1114B67
:10F4F0001B6803F00F03002B17D10F4B1B6803F0A1
:10F50000F003302B01D1012310E00B4B1B6803F0FB
:10F51000F003402B01D1012308E0074B1B6803F0E7
:10F52000F003502B01D1012300E00023184670475F
:10F53000E00F00F0E40F00F0E80F00F00A4B1B684A
:10F54000DBB2062B0DD1094B1B6803F00F03002B18
:10F5500007D1074B1B6803F0F003302B01D10123C7
:10F5600000E0002318467047E00F00F0E40F00F0C1
:10F57000E80F00F0124B1B68DBB2062B1DD1114BBC
:10F580001B6803F00F03002B17D10F4B1B6803F010
:10F59000F003302B01D1012310E00B4B1B6803F06B
:10F5A000F003402B01D1012308E0074B1B6803F057
:10F5B000F003502B01D1012300E0002318467047CF
:10F5C000E00F00F0E40F00F0E80F00F00A4B1B68BA
:10F5D000DBB2062B0DD1094B1B6803F00F03002B88
:10F5E00007D1074B1B6803F0F003302B01D1012337
:10F5F00000E0002318467047E00F00F0E40F00F031
:10F60000E80F00F0124B1B68DBB2062B1DD1114B2B
:10F610001B6803F00F03002B17D10F4B1B6803F07F
:10F62000F003302B01D1012310E00B4B1B6803F0DA
:10F63000F003402B01D1012308E0074B1B6803F0C6
:10F64000F003502B01D1012300E00023184670473E
:10F65000E00F00F0E40F00F0E80F00F00A4B1B6829
:10F66000DBB2062B0DD1094B1B6803F00F03002BF7
:10F6700007D1074B1B6803F0F003302B01D10123A6
:10F6800000E0002318467047E00F00F0E40F00F0A0
:10F69000E80F00F00A4B1B68DBB2062B0DD1094BBB
:10F6A0001B6803F00F03002B07D1074B1B6803F007
:10F6B000F003302B01D1012300E0002318467047EE
:10F6C000E00F00F0E40F00F0E80F00F00A4B1B68B9
:10F6D000DBB2062B0DD1094B1B6803F00F03002B87
:10F6E00007D1074B1B6803F0F003502B01D1012316
:10F6F00000E0002318467047E00F00F0E40F00F030
:10F70000E80F00F0124B1B68DBB2062B1DD1114B2A
:10F710001B6803F00F03002B17D10F4B1B6803F07E
:10F72000F003302B01D1012310E00B4B1B6803F0D9
:10F73000F003402B01D1012308E0074B1B6803F0C5
:10F74000F003502B01D1012300E00023184670473D
:10F75000E00F00F0E40F00F0E80F00F00048704701
:10F7600030A1002082B003468DF807309DF80730A5
:10F7700003F01F0206499DF907305B09012000FADA
:10F7800002F2603341F8232000BF02B0704700BF8F
:10F7900000E100E0BFF34F8F054BDB6803F4E0624C
:10F7A0000349044B1343CB60BFF34F8F00BFFDE70A
:10F7B00000ED00E00400FA0532DF704700BF184694
:10F7C0003EDF704700BF184682B001904FF0A04363
:10F7D000184602B0704700B585B001900846114642
:10F7E0001A4603468DF803300B468DF80230134657
:10F7F0008DF8013001AB1846FFF7E6FF03909DF846
:10F8000003209DF802305B001A439DF801309B00F5
:10F810001A439DF818301B0242EA03019DF81C3080
:10F820001B04019A1943039B02F5E07243F822106E
:10F8300000BF05B05DF804FB00B585B003900B4632
:10F840008DF80B3013468DF80A309DF80B209DF88B
:10F850000A300193002300931346002200210398ED
:10F86000FFF7B9FF00BF05B05DF804FB84B001905D
:10F87000244B0393019B002B40D0234B1A68039920
:10F88000019B00BF00BF00BF00BF00BF00BF00BFA3
:10F8900000BF8A422FD000BF00BF00BF00BF00BF23
:10F8A00000BF00BF00BF00BF00BF00BF00BF00BF60
:10F8B00000BF00BF00BF00BF00BF00BF00BF00BF50
:10F8C00000BF00BF00BF00BF00BF00BF00BF00BF40
:10F8D00000BF00BF00BF00BF00BF00BF00BF00BF30
:10F8E00000BF00BF00BF00BF00BF00BF00BF00BF20
:10F8F00000BF00BF00BF013BC3D1019300BF04B0F4
:10F90000704700BF0024F4005845002000B583B0C4
:10F910000190019B4FF47A7202FB03F31846FFF744
:10F92000A5FF00BF03B05DF804FB000070B58AB00E
:10F93000079006910592059B0993099B5B68184601
:10F9400031F032FA0546099B1B881E46099B9C68CC
:10F95000099B9B68184631F00BFE0346184631F0B0
:10F9600023FA03460393029401960095069B079A97
:10F970000849012031F08EFA022005F04FFE0520E3
:10F98000FFF7C4FF059A069907982DF03BF800BFD2
:10F990000AB070BDD069050000B587B0F1EE103A2D
:10F9A0000193019B23F09F030293029BE1EE103A27
:10F9B000F1EE103A03932620FFF7D4FEFFF700FF85
:10F9C0000590059B0493049B002B04D0044AB921A5
:10F9D00004982CF0FFFF00BF07B05DF804FB00BFE8
:10F9E000646A050000B589B00390039B5B881A46E2
:10F9F000039B1B791946039B1B7800930B462049F8
:10FA0000032031F013FA039B002B34D0039B1B78A7
:10FA1000012B30D107F0E6FF0790079B0693069B6A
:10FA2000002B04D0174ACB2106982CF0D3FF0222DA
:10FA300000210D20FFF700FF1349022031F0BAF931
:10FA4000FFF7BAFE079007F0ABFD034683F0010312
:10FA5000DBB2002B0AD0079B0593059B002B0AD035
:10FA6000084AD82105982CF0B5FF04E00749022088
:10FA700031F0A0F9FEE700BF09B05DF804FB00BF5C
:10FA80007C6B0500646A0500C46B0500406B0500D3
:10FA900000B583B00190019B1B78012B08D0022B8D
:10FAA00010D0002B15D10D49032031F083F910E05F
:10FAB0000B49032031F07EF90520FFF727FFFFF700
:10FAC00069FE06E00749032031F074F9FFF762FE92
:10FAD00000BF00BF03B05DF804FB00BF286C050049
:10FAE000646C0500A46C050000B59BB001AB24223A
:10FAF0000021184635F029FF1C238DF80A30052314
:10FB00008DF80B300D238DF80C3011238DF80D304E
:10FB100001238DF80E3004238DF80F3040F61C437E
:10FB2000ADF8103041F25E03ADF81230594B059339
:10FB3000594B06936F23ADF81C3040F61C43ADF8CB
:10FB40001E300A238DF82030544B09930F2006F005
:10FB5000AFFD1990199B1893189B002B05D0504AA4
:10FB60004FF4897118982CF035FF4E4B0F930FAB63
:10FB700019464D4805F0F4FD1990199B1793179BF2
:10FB8000002B05D0464A4FF48C7117982CF022FFB9
:10FB9000444B0E930EAB1946444803F0EBFA199010
:10FBA000199B1693169B002B05D03D4A4FF48F717D
:10FBB00016982CF00FFF3B4B0D930DAB19463C48AC
:10FBC00004F0B0FF1990199B1593159B002B05D0DD
:10FBD000334A40F2251115982CF0FCFE354806F00A
:10FBE000ABF91990199B1493149B002B05D02C4A48
:10FBF0004FF4947114982CF0EDFE2F4B019301AB50
:10FC000019462E4807F0AAFA1990199B1393139BD3
:10FC1000002B05D0224A40F22D1113982CF0DAFE69
:10FC200041F2883007F01AFA1990199B1293129B2F
:10FC3000002B05D01A4A4FF4987112982CF0CAFE86
:10FC40001F4B0A93194B0B9305230C930AAB1846D1
:10FC500001F090FC1990199B1193119B002B05D07A
:10FC60000F4A4FF49C7111982CF0B4FE012005F05E
:10FC7000D5FC1990199B1093109B002B05D0084AB6
:10FC800040F23B1110982CF0A5FE00BF1BB05DF8B0
:10FC900004FB00BF60E3160020BF020058690500A6
:10FCA000646A0500C869050098460020884600205F
:10FCB00090460020A0460020E5F90100A84600205B
:10FCC00091FA010000B585B00C4B019301AB1846C9
:10FCD00007F036FE0390039B0293029B002B05D096
:10FCE000074A4FF4AF7102982CF074FE6420FFF7BE
:10FCF0000DFE00BF05B05DF804FB00BF206D0500E0
:10FD0000646A050000B589B01C4B02931C4B039339
:10FD100002AB18460AF05CFD0790079B0693069B12
:10FD2000002B05D0174A40F2751106982CF052FEB0
:10FD3000124B0093124B01936B4618460AF0DCFD00
:10FD40000790079B0593059B002B05D00D4A40F2B9
:10FD50007B1105982CF03EFE0AF040FF0790079BB0
:10FD60000493049B002B05D0064A4FF4BF710498FE
:10FD70002CF030FE00BF09B05DF804FBC869050037
:10FD80003C6D0500646A050000B587B0002030F0C6
:10FD9000BBFF0590059B0493049B002B05D01B4AD9
:10FDA0004FF4D67104982CF015FE1949032031F058
:10FDB00001F8184A3C2108202CF0C8FE0390039B50
:10FDC0000293029B002B05D0104A4FF4D971029880
:10FDD0002CF000FE2DF066FD0590059B0193019B24
:10FDE000002B05D0094A4FF4DA7101982CF0F2FD8E
:10FDF000FFF768FFFFF778FEFFF784FF07F01AFEB2
:10FE00002CF06AFFFFF7C8FDFAE700BF646A05003F
:10FE1000E06C0500B04600206DDF704700BF18465B
:10FE200076DF704700BF18467ADF704700BF18467C
:10FE30007CDF704700BF18467FDF704700BF184661
:10FE40008FDF704700BF18469EDF704700BF18461F
:10FE5000A9DF704700BF1846ADDF704700BF1846E6
:10FE600069DF704700BF184666DF704700BF18465D
:10FE700031DF704700BF18463DDF704700BF1846AE
:10FE800084B00190244B0393019B002B40D0234B63
:10FE90001A680399019B00BF00BF00BF00BF00BFED
:10FEA00000BF00BF00BF8A422FD000BF00BF00BF0D
:10FEB00000BF00BF00BF00BF00BF00BF00BF00BF4A
:10FEC00000BF00BF00BF00BF00BF00BF00BF00BF3A
:10FED00000BF00BF00BF00BF00BF00BF00BF00BF2A
:10FEE00000BF00BF00BF00BF00BF00BF00BF00BF1A
:10FEF00000BF00BF00BF00BF00BF00BF00BF00BF0A
:10FF000000BF00BF00BF00BF00BF013BC3D10193D2
:10FF100000BF04B0704700BF0024F4005845002023
:10FF200000B583B00190019B4FF47A7202FB03F39A
:10FF30001846FFF7A5FF00BF03B05DF804FB000003
:10FF400000B583B001900091009B1B78012B09D074
:10FF5000022B02D0002B0AD00EE00C49032030F017
:10FF600029FF0EE00A49032030F024FF09E0094987
:10FF7000032030F01FFF04E00749022030F01AFF91
:10FF800000BF00BF03B05DF804FB00BF706F050049
:10FF9000B06F0500EC6F05002C70050000B585B052
:10FFA0000023019301AB18462EF090F803468DF81C
:10FFB0000F309DF80F300293029B002B04D0074AAC
:10FFC000842102982CF006FD019B002B14BF012315
:10FFD0000023DBB2184605B05DF804FB687005002D
:10FFE00000B589B003900B468DF80B3000238DF8D7
:10FFF00017300DF1170318462CF0BCF800238DF8CC
:020000022000DC
:100000001F3016E09DF81F3001338DF81F302E4948
:10001000022030F0CFFE0DF1170318462CF0AAF89D
:100020000520FFF77DFF9DF81F30052B01D90D231B
:1000300045E09DF817309DF80B209A42E2D89DF8D4
:1000400017301A462149032030F0C5FE9DF80B30C9
:10005000194603982CF0AAF80690069B002B0CD0AA
:100060001B4830F0A1FE0246069B0093A3231949CA
:10007000022030F0DBFE069B21E01749032030F020
:1000800099FE00238DF81E300EE09DF81E30039A75
:1000900013441B781A461149132030F09CFE9DF83A
:1000A0001E3001338DF81E309DF81E209DF80B3058
:1000B0009A42EAD30A49132030F07CFE0023184606
:1000C00009B05DF804FB00BFAC700500FC700500D2
:1000D000687005003471050088710500B87105006D
:1000E000C071050010B586B09DF804306FF30303AE
:1000F0008DF804309DF804306FF307138DF8043049
:10010000474B1B681C46464B1B68184635F099FC4C
:1001100003469AB201AB21461846FFF789FE0590C7
:10012000059B0493049B002B04D03E4AC2210498F3
:100130002CF050FC02AB08220021184635F005FCDB
:10014000374B1B68B3F80F309BB2ADF80830344B17
:100150001B68B3F811309BB2ADF80A30304B1B6806
:10016000B3F813309BB2ADF80C302D4B1B68B3F8CD
:1001700015309BB2ADF80E3002AB1846FFF754FEB7
:100180000590059B072B41D1254B1B68002242F0AF
:100190000602DA7300221A74214B1B68002242F017
:1001A0000C025A7400229A741D4B1B680022DA74E8
:1001B00000221A751A4B1B68002242F040025A7541
:1001C000002242F001029A75154B1B68184601F097
:1001D0005FFB0590059B002B01D0059B1CE00623CF
:1001E000ADF808300C23ADF80A300023ADF80C3020
:1001F0004FF4A073ADF80E3002AB1846FFF714FEB3
:100200000590059B002B06D0059B05E0059B002B68
:1002100001D0059B00E00023184606B010BD00BFCA
:10022000D84A00206870050000B585B00190019B98
:100230001B78002B16D11149012030F0BBFD104B6B
:100240001B883B211846FFF7EBFD0390039B0293AD
:10025000029B002B0ED00B4A40F2011102982CF0A9
:10026000B9FB07E0019B1B78012B03D10649032052
:1002700030F0A0FD00BF05B05DF804FBC4710500BF
:100280005C450020687005001472050000B583B05D
:100290000190019A0649012030F09DFD054A40F287
:1002A000151101982CF096FB00BF03B05DF804FB1C
:1002B000607205006870050000B58BB002AB1C22AF
:1002C0000021184635F041FB6B46082200211846F4
:1002D00035F03BFB1F4B1B68B3F80F309BB2ADF8FA
:1002E00000301C4B1B68B3F811309BB2ADF80230E4
:1002F000184B1B68B3F813309BB2ADF80430154BA4
:100300001B68B3F815309BB2ADF806306B4602930C
:100310004FF4004303934FF47023049303238DF8A9
:1003200014300023ADF8163000238DF818300A4B36
:1003300007930A4B089302AB184622F021FC099060
:10034000099B002B01D0099B00E0002318460BB04D
:100350005DF804FBD84A0020290202008D02020049
:1003600000B589B003468DF807309DF80730002BA3
:1003700006D0032B20D11449032030F01BFD1EE0D2
:100380001249032030F016FD02238DF80C30104B7B
:100390001B6803AA10469847032022F03DFA0790F5
:1003A000079B0693069B002B08D00A4A40F2531184
:1003B00006982CF00FFB01E000BF00E000BF00BF7B
:1003C00009B05DF804FB00BF9C720500D472050003
:1003D000804A00206870050000B58DB00190019B37
:1003E0001B88013B542B00F26F8101A252F823F0CD
:1003F000F9050200C9060200C9060200C90602008A
:10040000C9060200C9060200C9060200C9060200A8
:10041000C9060200C9060200C9060200C906020098
:10042000C9060200C9060200C9060200450502000D
:1004300067050200C9060200A7050200C9060200FE
:10044000C9060200C9060200C9060200C906020068
:10045000C9060200C9060200C9060200C906020058
:10046000C9060200C9060200C9060200C906020048
:100470008F060200BF060200C9060200C90602007C
:10048000C9060200C9060200C9060200C906020028
:10049000C9060200C9060200C9060200C906020018
:1004A000C9060200C9060200C9060200C906020008
:1004B000C9060200C9060200C9060200C9060200F8
:1004C000C9060200C9060200C9060200C9060200E8
:1004D000C90602007F060200C9060200C906020022
:1004E000C9060200C9060200C9060200C9060200C8
:1004F000C9060200C9060200C9060200C9060200B8
:10050000C9060200C9060200C9060200C9060200A7
:10051000C9060200C9060200C9060200C906020097
:10052000C9060200C9060200C9060200C906020087
:10053000C9060200D1050200C9060200C906020070
:100540001F0602006849032030F034FC019B9A88A2
:10055000664B1A8000238DF80830654B1B6802AA91
:1005600010469847BBE0019B1B7A1A46614903205D
:1005700030F031FC5D4B4FF6FF721A80FFF70EFD35
:100580000346002B03D05C4B01221A70A7E05A4BA4
:1005900000221A7001238DF80830554B1B6802AAFF
:1005A000104698479BE0514B188800230022852174
:1005B000FFF742FC0B900B9B0A930A9B002B00F069
:1005C00085804E4A40F283110A982CF003FA7DE0B0
:1005D000464B1888002300220021FFF739FC0B90BE
:1005E0000B9B0993099B002B72D0444A40F289115E
:1005F00009982CF0EFF96BE03C4B1B880021184662
:10060000FFF732FC0B900B9B0893089B002B61D0EB
:100610003A4A4FF4C77108982CF0DCF95AE0019B74
:10062000DB881A463649032030F0D5FB019B9B88B6
:100630004FF48A711846FFF70FFC0B900B9B079342
:10064000079B002B05D02D4A4FF4CB7107982CF057
:10065000C1F9019BDA882B4BA3F8012029492A48CC
:1006600024F0C4FB0B900B9B0693069B002B33D00E
:10067000224A4FF4CD7106982CF0ACF92CE0019B86
:100680005B891A462149032030F0A5FB27E0204969
:10069000032030F08FFB019B9B880022002118462D
:1006A000FFF7CEFB0B900B9B0593059B002B15D002
:1006B000124A40F2A71105982CF08CF90EE015496A
:1006C000032030F077FB0AE000BF08E000BF06E03F
:1006D00000BF04E000BF02E000BF00E000BF00BFB9
:1006E0000DB05DF804FB00BF0C7305005C450020F5
:1006F000804A002048730500DF4A0020687005002A
:1007000098730500DC4A00208C4A0020E87305003D
:10071000347405008474050000B585B0019001981B
:1007200022F060FC019822F05DFB0023039312E0AD
:10073000144B1A68039BDB0013445B68002B07D043
:10074000104B1A68039BDB0013445B6801989847C1
:10075000039B013303930C4B1B68039A9A42E7D324
:1007600001990A4824F087FA019909482FF071FF8E
:100770000198FFF731FE019822F038F900BF05B06B
:100780005DF804FB844A0020884A00208C4A00203F
:10079000FC4A002000B587B0019001982DF0A8FC1C
:1007A000019805F079FE019822F03CF9019B022B9B
:1007B00002D0019B032B13D1FFF7F0FB034683F01C
:1007C0000103DBB2002B0BD0074B1B78002B07D0AB
:1007D00001238DF80C30054B1B6803AA104698477F
:1007E00000BF07B05DF804FBDF4A0020804A00200C
:1007F00000B593B0A54B1B68049304A8A44B4FF419
:10080000A672A44930F020F91190119B1093109B0F
:10081000002B05D0A04A4FF4FE7110982CF0DAF8A6
:100820000023039303AB184630F0D2F90F900F9BCF
:100830000E930E9B002B05D0974A4FF400710E9833
:100840002CF0C8F86B460C220021184635F07DF8D4
:1008500001238DF800304FF48A73ADF80230039A0B
:100860006B4619462320FFF7FBFA0F900F9B0D9361
:100870000D9B002B05D0884A40F209210D982CF0E1
:10088000A9F86B460C220021184635F05EF80123CA
:100890008DF8003001238DF802300623ADF80430C6
:1008A000039A6B4619462020FFF7DAFA0F900F9B48
:1008B0000C930C9B002B05D0774A40F211210C9829
:1008C0002CF088F86B460C220021184635F03DF8D4
:1008D00001238DF8003010238DF80230039A6B4607
:1008E00019462220FFF7BCFA0F900F9B0B930B9B2E
:1008F000002B05D0684A4FF406710B982CF06AF86B
:100900006B460C220021184635F01FF801238DF8A4
:10091000003002238DF80230039A6B4619462120DD
:10092000FFF79EFA0F900F9B0A930A9B002B05D0AE
:10093000594A40F21F210A982CF04CF86B460C22C1
:100940000021184635F001F802238DF80030039A93
:100950006B4619460120FFF783FA0F900F9B09930E
:10096000099B002B05D04C4A4FF4097109982CF0D3
:1009700031F86B460C220021184634F0E6FF0123C3
:100980008DF80030039A6B4619464020FFF768FA4D
:100990000F900F9B0893089B002B05D03E4A40F216
:1009A000292108982CF016F86B460C2200211846D5
:1009B00034F0CBFF4FF47A630093039A6B461946E9
:1009C000A120FFF74DFA0F900F9B0793079B002B79
:1009D00005D0314A40F22E2107982BF0FBFF6B46E1
:1009E0000C220021184634F0B0FF9DF8003043F08F
:1009F00001038DF80030039A6B461946A020FFF7DB
:100A00002FFA0F900F9B0693069B002B05D0224ACE
:100A100040F2332106982BF0DDFF03AB184630F08F
:100A2000E7F80F900F9B0593059B002B05D01A4A02
:100A300040F2362105982BF0CDFF184830F070F8C1
:100A40000F900F9B002B01D00F9B1BE0144830F040
:100A500077F80F900F9B002B01D00F9B12E0012025
:100A6000FFF706FA0F900F9B002B01D00F9B09E0B8
:100A70000120FFF701FA0F900F9B002B01D00F9B75
:100A800000E00023184613B05DF804FBCC740500A9
:100A9000C50C0500144B0020687005001907020002
:100AA0009507020000B5B1B04FF48073ADF878300F
:100AB0003B4B1B788DF87A301FAB3C220021184647
:100AC00034F043FF02238DF87C3000238DF87E3014
:100AD00006238DF87F300123ADF884301EAB2293BE
:100AE00016AB20220021184634F02FFF01238DF889
:100AF0005B302C4B1B689B899BB21A93294B1B685C
:100B00009B7B1B9307AB3C220021184634F01DFF52
:100B100000238DF8BF3010E09DF8BF30C3F1030211
:100B20009DF8BF3020498A5C30A90B4403F8B42CEF
:100B30009DF8BF3001338DF8BF309DF8BF30032BD7
:100B4000EAD95923ADF8103003AB06930423ADF86E
:100B5000143000238DF81C3004AB109316AA07A99B
:100B60001FA800230093114B21F052FD2E902E9BC5
:100B7000002B0DD00E4830F017F902462E9B009343
:100B800040F282230B49022030F050F92E9B03E003
:100B9000012021F02FFD0023184631B05DF804FB41
:100BA0008C4A0020D84A0020F84A00206103020045
:100BB000687005003471050000B583B00190054AE6
:100BC00040F28F2101982BF005FF00BF03B05DF8C4
:100BD00004FB00BF6870050000B583B01A4B1B68AA
:100BE00093F82830022B03D805F014FD002327E0EA
:100BF000164B4FF43E721A60134B1B681733134A9F
:100C00005360114B1B6893F828309AB20F4B1A812E
:100C10000E4B0F4A5A610F48FFF7FEF80190019BF7
:100C2000002B01D0019B0BE0084BDB7A0233DAB2D8
:100C3000064BDA72054805F081FC05F0ADFC002397
:100C4000184603B05DF804FBD84A0020604C002031
:100C5000B90B02006A4C002000B595B003900192D8
:100C60001A460B468DF80B301346ADF808300023BA
:100C70008DF84F309DF80B30062B00F2598101A200
:100C800052F823F0A10C0200DD0C0200010D02005D
:100C9000890D0200D90D02000B0E0200A30E020006
:100CA000BDF808300A2B00F23681AE4B1B6818469F
:100CB000BDF808301A46019934F01EFEA94B1A6897
:100CC000BDF808300021D154A64B1B68BDF80820A0
:100CD000D2B2DA7201238DF84F301CE1BDF8083032
:100CE000032B40F01A819F4B1B680C33BDF8082082
:100CF0000199184634F000FE01238DF84F300CE1C5
:100D0000BDF80830082B40F00A81964B1B680F3362
:100D1000BDF808200199184634F0EEFD05AB082215
:100D20000021184634F011FE8E4B1B68B3F80F30CB
:100D30009BB2ADF814308B4B1B68B3F811309BB2EB
:100D4000ADF81630874B1B68B3F813309BB2ADF883
:100D50001830844B1B68B3F815309BB2ADF81A30CD
:100D600005AB184622F064F81290129B1193119B68
:100D7000002B05D07C4A40F2E12111982BF02AFE8D
:100D800001238DF84F30CAE0BDF80830112B00F276
:100D9000C880744B1B681733BDF8082001991846AA
:100DA00034F0AAFD6F4B1B68BDF80820D2B283F85F
:100DB000282001238DF84F30FFF70EFF1090109B75
:100DC0000F930F9B002B00F0AC80674A4FF43C71EF
:100DD0000F982BF0FFFDA4E0BDF80830FA2B00F2CD
:100DE000A280604B1B682933BDF808200199184682
:100DF00034F082FD5B4B1B68BDF80820D2B283F84B
:100E0000232101238DF84F308DE0BDF80830032BEE
:100E100040F08B80019B0E930E9B1B78012B2FD1F2
:100E20000E9BB3F801309BB21A46504903202FF0B5
:100E3000D2FF4F4B1A880E9BB3F801309BB2194674
:100E40001046FFF701F80D900D9B002B07D1BDF860
:100E500008301A460199474834F04EFD65E045498F
:100E6000454823F0C3FF0D900D9B0C930C9B002B6A
:100E70005BD03D4A40F20D310C982BF0ABFD54E0B5
:100E80003C493D4823F0B2FF0D900D9B0B930B9B0B
:100E9000002B4AD0344A40F213310B982BF09AFDC4
:100EA00043E0BDF80830F72B41D82E4B1B6803F503
:100EB0009573BDF808200199184634F01DFD294BA3
:100EC0001B68BDF80820D2B283F8212214F032F852
:100ED0000A900A9B002B05D0234A40F21E310A9843
:100EE0002BF078FD1F4B1B6803F59573BDF80820A8
:100EF000D2B21146184613F031FE0990099B002B1F
:100F000005D0194A40F21F3109982BF063FD0123E7
:100F10008DF84F300BE000BF0AE000BF08E000BFD3
:100F200006E000BF04E000BF02E000BF00E000BF39
:100F30009DF84F30002B10D00A4B1B68184600F06C
:100F4000A7FC0890089B0793079B002B05D0064A37
:100F500040F22B3107982BF03DFD00BF15B05DF836
:100F600004FB00BFD84A002068700500D07405005B
:100F70005C450020DC4A00208C4A002000B589B086
:100F800000238DF81F30724B1B6893F82431FF2229
:100F9000934214BF012300238DF81E306C4B1B6855
:100FA00093F82531FF22934214BF012300238DF8CB
:100FB0001D30674B1B6893F82631FF22934214BF04
:100FC000012300238DF81C30614B1A6803AB02F536
:100FD00092721188927819809A709DF81E30002BB9
:100FE00007D19DF81D30002B03D19DF81C30002B3C
:100FF0002ED0574B1B68FF2283F82421544B1B68CB
:10100000FF2283F82521524B1B68FF2283F82621FB
:1010100001238DF81F309DF81E30002B03D19DF861
:101020001D30002B14D000238DF81F30494B0122B6
:101030001A70494800F02CFC0690069B0593059B0E
:10104000002B05D0454A40F24E3105982BF0C2FCEA
:10105000FF231A46FF231946FF2300930B464049FE
:1010600003202FF0E3FE3B4B1B78002B0DD09DF8A7
:101070000C301A469DF80D3019469DF80E3000933D
:101080000B46384903202FF0D1FE314B1B6893F8F3
:101090002830112B0FD92E4B1B6817330E223249E3
:1010A000184634F029FC2A4B1B680E2283F82820AE
:1010B00001238DF81F30264B1B6893F82331FA2B40
:1010C0000FD9234B1B68293300222849184634F0D6
:1010D00013FC1F4B1B68002283F8232101238DF88A
:1010E0001F301B4B1B6893F82132F72B05D8184B88
:1010F0001B6893F82132002B10D1154B1B6803F5A8
:10110000957316221A49184634F0F6FB104B1B68EB
:10111000162283F8212201238DF81F309DF81F30FD
:10112000002B10D00A4B1B68184600F0B1FB06904C
:10113000069B0493049B002B05D0084A40F27631AD
:1011400004982BF047FC0023184609B05DF804FB17
:10115000D84A0020E04A00204C6D05006870050068
:101160001875050058750500636D0500756D05005F
:10117000766E050000B585B00A4B1B6801930A4BDB
:10118000029301AB1946094823F09CFD0390039B91
:10119000002B01D0039B00E00023184605B05DF84A
:1011A00004FB00BFD84A0020590C02008C4A0020E2
:1011B00000B589B001900091FFF7DCFF0690069B17
:1011C0000593059B002B05D0244A4FF466710598C2
:1011D0002BF000FC0023079318E0079BDB00019A2B
:1011E00013441B68002B0ED0079BDB00019A1344AD
:1011F0001B681B4A1278104698470690069B002BE6
:1012000001D0069B26E0079B01330793079A009BBA
:101210009A42E2D302AB08220021184634F095FB33
:10122000104B029301238DF80C3001238DF80D3003
:1012300002AB19460C482FF07BF80690069B0493EE
:10124000049B002B05D0054A40F2B13104982BF0E5
:10125000C1FB0023184609B05DF804FB6870050067
:10126000E04A002041FF0100FC4A0020B0B5C6B0B2
:1012700002AF13F08DFEC7F80801D7F80831002B34
:101280000FD0B0482FF090FD0246D7F808310093F8
:1012900040F2BE33AC4902202FF0C8FDD7F8083128
:1012A0004BE1AA4B1B6803F595731622A849184613
:1012B00034F0EAF80346002B40F01C816B461D46D3
:1012C0002021A44813F074FDC7F80801D7F80831AD
:1012D000002B0FD09B482FF067FD0246D7F808314E
:1012E000009340F2C333984902202FF09FFDD7F8B6
:1012F0000831FDE01B2387F8073197F80701034603
:10130000013BC7F80031C1B24FF000024FF00003BB
:101310004FF00004D40044EA5174CB00C1B24FF046
:1013200000024FF000034FF00004D40044EA51746F
:10133000CB0003460733DB08DB00ADEB030D02AB4C
:101340000033C7F8FC30D7F8FC3000221A70D7F809
:10135000FC308149184634F018F9D7F8FC307F4941
:10136000184634F012F9002387F80F311EE007F118
:10137000F80300210A461A800A469A7097F80F313E
:10138000774AD35C1A4607F1F8037649184634F0D9
:10139000E7F8D7F8FC3007F1F8021146184634F0A8
:1013A000F4F897F80F31013387F80F3197F80F31C0
:1013B000032BDCD9D7F8FC3018462FF0F5FC034698
:1013C0001A46694903202FF006FDD7F8FC3097F83C
:1013D00007211146184613F043FCC7F80801D7F857
:1013E0000831002B0FD057482FF0DEFC0246D7F80B
:1013F0000831009340F2D733534902202FF016FDF5
:10140000D7F8083174E016225849012013F084FC03
:10141000C7F80801D7F80831002B0FD049482FF042
:10142000C3FC0246D7F80831009340F2DA3346494C
:1014300002202FF0FBFCD7F8083159E013F000FD33
:10144000C7F80801D7F80831002B0FD03D482FF01E
:10145000ABFC0246D7F80831009340F2DD333A493D
:1014600002202FF0E3FCD7F8083141E0F72387F89A
:10147000FB3007F1FB023B461146184613F0C6FB52
:10148000C7F80801D7F80831002B0FD02D482FF0EE
:101490008BFC0246D7F80831009340F2E1332A4929
:1014A00002202FF0C3FCD7F8083121E097F8FB2089
:1014B0003B4683F8F7203B4619462D4823F0C2FCF3
:1014C000C7F80801D7F80831002B0FD01D482FF0BE
:1014D0006BFC0246D7F80831009340F2E5331A4915
:1014E00002202FF0A3FCD7F8083101E0AD4623E03D
:1014F000AD4622E0154B1B6803F59572134B1B6834
:1015000093F821321946104613F028FBC7F808015A
:10151000D7F80831002B0FD00A482FF045FC0246BF
:10152000D7F80831009340F2EA33074902202FF040
:101530007DFCD7F8083100E00023184607F58877CE
:10154000BD46B0BD6870050034710500D84A002062
:10155000766E0500C8750500E44A0020E8750500B0
:10156000F84A0020B8710500EC75050018760500F2
:101570008C4A002000B585B00190019B1B686A4A27
:101580001360019B5B68694A1360019B9B68684A12
:101590001360FFF72DF90390039B002B06D0039AED
:1015A000644901202FF017FC039BB8E0624BD3F88D
:1015B0008830614A43F47003C2F88830BFF34F8F1C
:1015C000BFF36F8F04215D48FEF70AFD0390039B74
:1015D000002B06D0039A5A4901202FF0FCFB039BF5
:1015E0009DE05849584800F00DFA0390039B002BEA
:1015F00006D0039A554901202FF0EDFB039B8EE0A6
:10160000504B1B680C22A3F81120FFF7B7FC039086
:10161000039B002B06D0039A4D4901202FF0DBFBE2
:10162000039B7CE0FEF75EFD0390039B002B06D03E
:10163000039A484901202FF0CEFB039B6FE03B4B00
:101640001A683B4B1B6819461046FFF7B1FD039023
:10165000039B002B06D0039A3F4901202FF0BBFBD0
:10166000039B5CE0FFF71EFA0390039B002B06D060
:10167000039A3A4901202FF0AEFB039B4FE0FEF79F
:101680001BFE0390039B002B06D0039A34490120D4
:101690002FF0A1FB039B42E0032021F0BDF8039053
:1016A000039B002B06D0039A2E4901202FF093FBB9
:1016B000039B34E02C4805F0F7FE0390039B002BBE
:1016C00006D0039A294901202FF085FB039B26E0D1
:1016D00025482FF069FB03461A46254913202FF0B1
:1016E0007AFBFFF7C3FD0390039B002B06D0039A00
:1016F000204901202FF06FFB039B10E00A20FEF72A
:101700000FFCFFF769FA0390039B002B06D0039AA6
:10171000194901202FF05FFB039B00E000231846CE
:1017200005B05DF804FB00BF804A0020844A002019
:10173000884A00203076050000ED00E0F84A0020DD
:101740006C760500D84A00204C6D0500B076050087
:10175000EC7605002C77050068770500B477050066
:10176000F07705002C780500E44A00206C7805002D
:10177000A8780500BC780500F078050000B589B0B0
:101780000390039B1B78012B1AD0052B42D0002B12
:101790004CD1039B5B68002B03D1344B01221A70A0
:1017A00059E0334901202FF005FB00230793079BE5
:1017B000002B50D12F4A5D2100202BF00BF94AE07D
:1017C000039B5B68002B16D1039B9B89B3F5005FDD
:1017D00043D1039B1B7C1A46039B9B891946039BA1
:1017E000DB8900930B46244903202FF01FFB234B7A
:1017F00001221A7031E0224901202FF0DBFA002388
:101800000693069B002B28D11A4A6F2100202BF04B
:10181000E1F822E0039B5B68002B20D119490320EB
:101820002FF0C8FA184B01221A7018E0039B1B789E
:101830001A46039B5B68154903202FF0E0FA039BCF
:101840005B680593059B002B0BD00A4A7B2105980A
:101850002BF0C0F805E000BF04E000BF02E000BFCD
:1018600000E000BF00BF09B05DF804FBAC4E0020F3
:101870002879050058790500A0790500AD4E0020B3
:10188000EC7905001C7A0500AE4E0020507A050068
:1018900000B58BB003901F4903202FF08BFA039BF8
:1018A000002B01D10E2331E040F2222203991A4885
:1018B00034F022F8194B42221A60184B04938A2301
:1018C000ADF814304FF40053ADF8183042F2010374
:1018D000ADF81A3004AB07930123ADF8203006AB06
:1018E00019460F482EF023FA0990099B002B0CD0C3
:1018F0000C482FF059FA0246099B009398230A4995
:1019000002202FF093FA099B00E0002318460BB049
:101910005DF804FB807A0500884C0020844C002090
:10192000784C002058790500B47A050000B58BB0DA
:10193000039005AB08220021184634F006F82B4925
:1019400003202FF037FA05AB294A42F201014FF488
:1019500000502EF05BFA0990099B002B0CD0254813
:101960002FF022FA0246099B0093A9232249022064
:101970002FF05CFA099B34E007AB19461C482EF0A7
:101980004BF90990099B002B0CD01A482FF00CFA48
:101990000246099B0093AC23174902202FF046FA18
:1019A000099B1EE0089B4FF40A721946134833F056
:1019B000A3FF0F482EF06CF90990099B002B0CD067
:1019C0000C482FF0F1F90246099B0093B1230A4914
:1019D00002202FF02BFA099B03E0039B084A1A60B0
:1019E000002318460BB05DF804FB00BF087B050020
:1019F000784C002058790500B47A0500844C00200A
:101A0000884C002000B58BB0039002915B49032005
:101A10002FF0D0F9039B002B01D10E23A9E05848E9
:101A20002EF064F80990099B002B0CD055482FF03C
:101A3000BBF90246099B0093C223534902202FF0B1
:101A4000F5F9099B95E02EF071F80990099B002BA0
:101A50000ED04C482FF0A8F90246099B0093C523ED
:101A6000494902202FF0E2F9099B82E02BF034F97A
:101A7000464B1B7883F00103DBB2002BF6D12EF02E
:101A800099F90990099B002B0ED03E482FF08CF954
:101A90000246099B0093CD233B4902202FF0C6F953
:101AA000099B66E02BF018F9394B1B7883F0010392
:101AB000DBB2002BF6D10298FFF738FF0990099BA3
:101AC0000A2B45D1334903202FF074F940F222222A
:101AD0000399314833F010FF304B42221A602F4BEC
:101AE00004938A23ADF814304FF40053ADF8183046
:101AF00042F20103ADF81A3004AB07930123ADF8AD
:101B00002030274B00221A7006AB194625482EF0CC
:101B1000FFF80990099B002B0CD01A482FF044F9CC
:101B20000246099B0093EB23174902202FF07EF910
:101B3000099B1EE0029B184A1A6001E02BF0CCF8CA
:101B4000174B1B7883F00103DBB2002BF6D10FE0BB
:101B5000099B002B0CD00B482FF026F90246099B5D
:101B60000093F623084902202FF060F9099B00E05A
:101B7000002318460BB05DF804FB00BF387B05005E
:101B80007D17020058790500B47A0500AC4E00209C
:101B9000AE4E0020647B0500884C0020844C002061
:101BA000AD4E0020784C002000B587B08DED030AC3
:101BB0000290DDED037AFDEEE77ACDED017A9DF836
:101BC00004305AB2029B1A70029B93F9003007EE60
:101BD000903AF8EEE77A9DED037A77EE677ACDEDED
:101BE000057ADDED057A9FED0D7A67EE877AFCEEDA
:101BF000E77ACDED017A9DF80430DAB2029B5A7093
:101C0000029B93F900301A46029B5B78044904203A
:101C10002FF0F5F800BF07B05DF804FB0000C842E4
:101C2000C07B050000B583B0034600918DF80730F6
:101C3000009B9DF807201A709DF807301A4604494A
:101C400004202FF0C8F800BF03B05DF804FB00BF0C
:101C5000087C050000B587B08DED030A0290DDED2C
:101C6000037AFDEEE77A17EE902A029B1A60029B38
:101C70001B6807EE903AF8EEE77A9DED037A77EE6F
:101C8000677ACDED057ADDED057A9FED0D7A67EE89
:101C9000877AFCEEE77ACDED017A9DF80430DAB26E
:101CA000029B1A71029B1B681A46029B1B7905490D
:101CB00004202FF0A4F800BF07B05DF804FB00BFBC
:101CC0000000C842507C050000B587B00190019B20
:101CD0001B78002B02D0012B14D021E0019B5B78F4
:101CE000012B1AD10FF088FFF0EE407A03AB1846B3
:101CF000B0EE670AFFF7AEFF03AB19460A4822F0C1
:101D0000D1F80AE000230593059B002B07D1074A71
:101D1000942100202AF05EFE01E000BF00E000BF39
:101D200000BF07B05DF804FBB04E0020A07C0500AA
:101D300000B58DB003468DF807309DF80730002BB5
:101D400060D112F003F88DED0B0A11F04DFF034640
:101D5000ADF82A3004AB18469DED0B0AFFF724FFBF
:101D6000BDF82A30DBB20DF10F0211461846FFF71D
:101D700059FF2B4B1B78002B14D0BDF82A309DED5A
:101D80000B0A184600F05CFA0990099B0893089B1F
:101D9000002B04D0234AB12108982AF01BFE204BC7
:101DA00000221A70204B1B78002B12D004AB19466E
:101DB0001E4822F037F80990099B0793079B002BD8
:101DC00004D0184AB82107982AF004FE164B0022C6
:101DD0001A70174B1B78002B1ED00DF10F031946FC
:101DE000124822F09FF80990099B0693069B002B4E
:101DF00004D00C4ABF2106982AF0ECFD0C4B0022BF
:101E00001A7009E000230593059B002B04D1054AB5
:101E1000C52100202AF0DEFD00BF0DB05DF804FBF7
:101E2000FA4E0020A07C0500F94E0020B04E0020A4
:101E3000F84E002000B585B00190019B002B15D015
:101E4000019B1B88ADF80C30019B5B88ADF80E3010
:101E5000019B1B881A46019B5B88064904202EF0D3
:101E6000CEFF03AB1946044822F09CF800BF05B032
:101E70005DF804FBEC7C0500B04E002000B587B097
:101E8000039000200AF038F9039B002B27D0039B16
:101E90001B881946039B5B881846039B9B881A4640
:101EA000039BDB880193009203460A460E490420F7
:101EB0002EF0D5FF039B1B88ADF81030039B5B8889
:101EC000ADF81230039B9B88ADF81430039BDB8880
:101ED000ADF8163004AB1946044822F0A3F800BF51
:101EE00007B05DF804FB00BF307D0500B04E002058
:101EF00000B585B001900A4B01221A7011F0C4FFA1
:101F00000390039B0293029B002B05D0054A4FF4DC
:101F1000847102982AF05EFD00BF05B05DF804FBF5
:101F2000F94E0020A07C0500F0B585B0334B0122AE
:101F30001A70334B01221A7011F090FD0390039B2D
:101F4000002B0DD02F482EF02FFF0246039B00934D
:101F50004FF48B732C4902202EF068FF039B49E05D
:101F600011F092FF0390039B002B0DD025482EF01B
:101F70001BFF0246039B009340F2191322490220E3
:101F80002EF054FF039B35E0204F214B1B681B882C
:101F90009BB299B24FF000024FF000034FF00004E3
:101FA000D40344EA5144CB0313F5FA7544F1000617
:101FB0004FF47A724FF000032846314633F060F850
:101FC00003460C460022194638462BF0CFFC0390FE
:101FD000039B002B0DD00B482EF0E6FE0246039B20
:101FE00000934FF48F73084902202EF01FFF039BCC
:101FF00000E00023184605B0F0BD00BFF94E0020F8
:10200000FD4E0020A07C05007C7D0500004F0020D7
:10201000F04E002000B587B003468DF80F30194B05
:1020200000221A70184B18462BF0D2FC0590059B25
:10203000002B0DD015482EF0B7FE0246059B0093ED
:102040004FF49673124902202EF0F0FE059B14E027
:102050009DF80F30002B0FD00E4B00221A700E4B44
:102060001B7883F00103DBB2002B03D011F060FD7D
:10207000034602E0002300E00023184607B05DF8A5
:1020800004FB00BFF94E0020004F0020A07C05009B
:102090007C7D0500FD4E0020FC4E002000B585B083
:1020A00001900FF0F9FD0390039B0293029B002B1C
:1020B00005D0054A40F24B1102982AF08BFC00BF74
:1020C00005B05DF804FB00BFA07C0500F0B585B04D
:1020D0000FF082FC0390039B0293029B002B05D020
:1020E0001D4A4FF4AB7102982AF074FC0FF0D4FD36
:1020F0000390039B0193019B002B05D0164A40F2ED
:10210000591101982AF066FC144F154B1B685B8827
:102110009BB299B24FF000024FF000034FF0000461
:10212000D40344EA5144CB0313F5FA7544F1000695
:102130004FF47A724FF000032846314632F0A0FF88
:1021400003460C460022194638462BF00FFC034686
:10215000184605B0F0BD00BFA07C0500204F002050
:10216000F04E002000B585B00E4B18462BF030FC29
:102170000390039B002B0DD00B482EF015FE02465A
:10218000039B009340F26913084902202EF04EFE93
:10219000039B02E00FF0D6FC0346184605B05DF83D
:1021A00004FB00BF204F0020A07C05007C7D0500C3
:1021B00000B587B001900023ADF80A301C4B1B78A6
:1021C000012B31D10DF10A03184600F07BF905907F
:1021D000059B0493049B002B05D0164A4FF4BD7158
:1021E00004982AF0F7FBBDF80A30002B04D11249FD
:1021F00002202EF0DFFD10E0BDF80A3018460BF08B
:10220000B7FB0590059B0393039B002B05D0094A60
:1022100040F2831103982AF0DDFB054B02221A706D
:10222000064B18462BF0D4FB00BF07B05DF804FB4B
:10223000FB4E0020A07C0500D07D0500804F0020D3
:1022400000B589B003468DED020AADF80E301E4B85
:102250001B78002B33D0BDF80E301A469200134481
:102260005B00ADF81E30DDED027A9FED187A67EE67
:10227000877AFDEEE77A17EE903A0693BDF81E20B6
:10228000069B134904202EF0BAFDBDF81E300699B6
:1022900018460BF08DFA0590059B002B0DD00D48CC
:1022A0002EF082FD0246059B00934FF4D3730A493A
:1022B00002202EF0BBFD059B02E0002300E000237E
:1022C000184609B05DF804FBFC4E002000007A447B
:1022D000387E0500A07C05007C7D050000B585B03A
:1022E000114B00221A70114B1B78002B13D111F0E7
:1022F0001FFC0390039B002B0DD00D482EF054FDC6
:102300000246039B00934FF4E1730A4902202EF02A
:102310008DFD039B04E0084B18462BF059FB034648
:10232000184605B05DF804FBFC4E0020FD4E002071
:10233000A07C05007C7D0500804F002000B585B0A5
:1023400001900A4B01221A7011F09EFD0390039B2D
:102350000293029B002B05D0054A4FF4EA710298C4
:102360002AF038FB00BF05B05DF804FBF84E0020F2
:10237000A07C0500F0B585B02A4B01221A702A4BCB
:1023800001221A7011F06AFB0390039B002B0DD001
:1023900026482EF009FD0246039B009340F2E1130C
:1023A000234902202EF042FD039B37E011F06CFD23
:1023B0000390039B002B0DD01C482EF0F5FC024629
:1023C000039B00934FF4F273194902202EF02EFD67
:1023D000039B23E0174F184B1B689B889BB299B255
:1023E0004FF000024FF000034FF00004D40344EA22
:1023F0005144CB0313F5FA7544F100064FF47A7299
:102400004FF000032846314632F03AFE03460C46B0
:102410000022194638462BF0A9FA0346184605B0A3
:10242000F0BD00BFF84E0020FD4E0020A07C05004E
:102430007C7D0500404F0020F04E002000B587B0A5
:1024400003468DF80F30194B00221A70184B1846AE
:102450002BF0BEFA0590059B002B0DD015482EF0F1
:10246000A3FC0246059B009340F2F513124902209B
:102470002EF0DCFC059B14E09DF80F30002B0FD0F4
:102480000E4B00221A700E4B1B7883F00103DBB257
:10249000002B03D011F04CFB034602E0002300E0C8
:1024A0000023184607B05DF804FB00BFF84E00207B
:1024B000404F0020A07C05007C7D0500FD4E0020E3
:1024C000FC4E002000B583B00190284B1B681B7A9E
:1024D000032B43D801A252F823F000BFED240200E1
:1024E000092502002525020041250200204B1B681A
:1024F0001B889AB2019B1A80019B1B881A461D49B2
:1025000004202EF068FC2BE0194B1B685B889AB204
:10251000019B1A80019B1B881A46174904202EF044
:102520005AFC1DE0124B1B689B889AB2019B1A80D3
:10253000019B1B881A46114904202EF04CFC0FE029
:102540000B4B1B68DB889AB2019B1A80019B1B888E
:102550001A460B4904202EF03EFC01E0082300E05F
:102560000023184603B05DF804FB00BFF04E0020C6
:10257000F44E0020987E0500007F0500647F050072
:10258000C87F050000B587B00346ADF80E30314B6B
:102590001B681B7A032B3FD801A252F823F000BF1F
:1025A000B1250200CB250200E5250200FF2502002F
:1025B000294B1B68BDF80E201A80BDF80E301A4654
:1025C000264904202EF007FC28E0234B1B68BDF8A9
:1025D0000E205A80BDF80E301A46214904202EF0F4
:1025E000FAFB1BE01C4B1B68BDF80E209A80BDF85F
:1025F0000E301A461B4904202EF0EDFB0EE0164B60
:102600001B68BDF80E20DA80BDF80E301A46164958
:1026100004202EF0E0FB01E0082317E00E4B1B68BE
:10262000184600F0DDFF0590059B002B0DD00F48EC
:102630002EF0BAFB0246059B009340F24E230C4954
:1026400002202EF0F3FB059B00E00023184607B0A4
:102650005DF804FBF04E0020F44E00202C800500B5
:1026600090800500F080050054810500A07C0500E5
:102670007C7D050000B585B0284B1B681B7A1A4687
:10268000274904202EF0A7FB244B1B681B7A032B41
:102690001AD801A252F823F0A9260200B12602009E
:1026A000B9260200C126020000238DF80F300FE08A
:1026B00001238DF80F300BE002238DF80F3007E077
:1026C00003238DF80F3003E002238DF80F3000BF95
:1026D0009DF80F3018460BF0C1F90290029B002BB9
:1026E0000DD010482EF060FB0246029B009340F292
:1026F0006F230D4902202EF099FB029B0AE00B4B41
:1027000001221A700A4B00224FF0617118462BF01B
:102710002DF90346184605B05DF804FBF04E002085
:10272000B8810500A07C05007C7D0500FB4E0020E3
:10273000804F002000B585B0274B1B78022B41D17C
:10274000FFF7CCFD0390039B002B0DD023482EF008
:102750002BFB0246039B009340F281232049022079
:102760002EF064FB039B33E00DF10A0318460BF0D7
:102770008DF80390039B002B0DD018482EF014FB0E
:102780000246039B00934FF42173154902202EF05B
:102790004DFB039B1CE0BDF80A301846FFF7F2FE24
:1027A0000390039B002B0DD00C482EF0FDFA02463F
:1027B000039B009340F28723094902202EF036FB49
:1027C000039B05E0044B00221A700BF0EFFA03465E
:1027D000184605B05DF804FBFB4E0020A07C050008
:1027E0007C7D050000B587B00190134B1B685B7AB8
:1027F0008DF80C30104B1B689B7A8DF80D300E4B0A
:102800001B68DB7A8DF80E3003AB1946002009F007
:10281000C5FC0CF0E7F90590059B0493049B002B85
:1028200005D0064A40F29F2104982AF0D3F800BF51
:1028300007B05DF804FB00BFF04E0020A07C05004F
:10284000F0B585B02B4B1B685B7A8DF80030294BB7
:102850001B689B7A8DF80130264B1B68DB7A8DF85C
:1028600002306B461946002009F098FC0CF01CFA67
:102870000390039B0293029B002B05D01E4A40F25B
:10288000AF2102982AF0A6F80CF0ACF90390039B54
:102890000193019B002B05D0174A40F2B221019809
:1028A0002AF098F8154F134B1B68DB889BB299B23E
:1028B0004FF000024FF000034FF00004D40344EA4D
:1028C0005144CB0313F5FA7544F100064FF47A72C4
:1028D0004FF000032846314632F0D2FB03460C4647
:1028E0000022194638462BF041F80346184605B039
:1028F000F0BD00BFF04E0020A07C0500604F00201E
:1029000000B585B0124B18462BF062F80390039B7C
:102910000293029B002B05D00E4A40F2BF21029881
:102920002AF058F8002009F0E7FB0CF093FA039026
:10293000039B0193019B002B05D0064A4FF4317194
:1029400001982AF047F80023184605B05DF804FB0B
:10295000604F0020A07C050000B585B00190019B70
:102960001B889BB2632B32D9019B1B889BB24EF60E
:10297000602293422BD8019B5B889BB2312B26D9D6
:10298000019B5B889BB24EF6602293421FD8019B4D
:102990009B889BB2632B1AD9019B9B889BB24EF6F6
:1029A0006022934213D8019BDB889BB2C72B0ED9C0
:1029B000019BDB889BB24EF66022934207D8019BB5
:1029C0001B7A002B03D0019B1B7A032B0ED90A48DC
:1029D00000F04EFD0390039B0293029B002B05D059
:1029E000064A40F2DA21029829F0F4FF0023184643
:1029F00005B05DF804FB00BF987B0500A07C0500D6
:102A000000B589B00190019B002B01D10E236AE033
:102A10000020FFF7FFFAFFF7A5FB0120FFF70EFDEF
:102A2000FFF76EFF019B1B889BB2002B12D0304B2F
:102A300093F83630002B0DD0FFF776FA0790079BFE
:102A40000693069B002B05D02A4A40F2F3210698F4
:102A500029F0C0FF019B5B889BB2002B12D0244B56
:102A600093F83730002B0DD0FFF730FB0790079B12
:102A70000593059B002B05D01E4A40F2FA210598CC
:102A800029F0A8FF019B9B889BB2002B12D0184B0A
:102A900093F83830002B0DD0FFF76CFC0790079BA4
:102AA0000493049B002B05D0124A40F20131049894
:102AB00029F090FF019BDB889BB2002B12D00C4BBE
:102AC00093F83A30002B0DD0FFF7BAFE0790079B22
:102AD0000393039B002B05D0064A4FF442710398E1
:102AE00029F078FF0023184609B05DF804FB00BF09
:102AF000B04E0020A07C050000B593B00390019279
:102B00001A460B468DF80B301346ADF808309DF889
:102B10000B30052B00F2428101A252F823F000BFD6
:102B2000392B0200B12B02000B2C0200832C020077
:102B3000D92C02002F2D0200039B93F836301A4641
:102B40009F4904202EF047F9039B93F83630002B61
:102B50000FD0FFF7E9F91190119B1093109B002BF8
:102B600000F01E81974A40F22731109829F032FF79
:102B700016E1039B93F83830002B14BF0123002388
:102B8000DBB283F00103DBB203F00103DBB21846D2
:102B9000FFF740FA1190119B0F930F9B002B00F051
:102BA000FF80884A4FF44B710F9829F013FFF7E02C
:102BB000039B93F837301A46834904202EF00BF913
:102BC000039B93F83730002B0FD0FFF77FFA11905B
:102BD000119B0E930E9B002B00F0E480794A40F28B
:102BE00035310E9829F0F6FEDCE0FFF7BBFA1190C4
:102BF000119B0D930D9B002B00F0D480714A40F285
:102C00003A310D9829F0E6FECCE0039B93F838307A
:102C10001A466E4904202EF0DEF8039B93F83830F4
:102C2000002B0FD0FFF7A6FB1190119B0C930C9B70
:102C3000002B00F0B980634A40F243310C9829F030
:102C4000C9FEB1E0039B93F83630002B14BF01237B
:102C50000023DBB283F00103DBB203F00103DBB23C
:102C60001846FFF7EBFB1190119B0B930B9B002B6E
:102C700000F09A80534A4FF452710B9829F0AAFE43
:102C800092E0039B93F839301A46514904202EF004
:102C9000A2F8039B93F83930002B0ED0FFF7EAFC23
:102CA0001190119B0A930A9B002B7FD0454A40F25A
:102CB00051310A9829F08EFE78E0FFF73BFD119024
:102CC000119B0993099B002B70D03E4A40F256316C
:102CD000099829F07FFE69E0039B93F83A301A4681
:102CE0003C4904202EF077F8039B93F83A30002BF0
:102CF0000ED0FFF7A5FD1190119B0893089B002BA8
:102D000056D0304A40F25F31089829F063FE4FE018
:102D1000FFF7F6FD1190119B0793079B002B47D0FF
:102D2000284A4FF45971079829F054FE40E0BDF845
:102D300008301A46284904202EF04DF8BDF8083016
:102D40000C2B0CBF01230023DBB20693069B002B48
:102D500005D11C4A40F26B31002029F03BFE01985E
:102D600000F086FB1190119B0593059B002B05D06D
:102D7000144A40F26E31059829F02CFE0198FFF7B5
:102D80003FFE1190119B0493049B002B12D00D4A1F
:102D900040F27131049829F01DFE0BE000BF0AE0FB
:102DA00000BF08E000BF06E000BF04E000BF02E093
:102DB00000BF00E000BF00BF13B05DF804FB00BF20
:102DC000EC810500A07C05003C820500888205009E
:102DD000D48205001C8305006483050000B597B00C
:102DE00003468DF80F3000238DF8483000238DF80E
:102DF00049300023109300238DF8443000238DF8D0
:102E00003F300DAB00221A605A600023ADF830301D
:102E10000023ADF83230464B464A4749474800F058
:102E200097FC1590159B002B0DD045482DF0BCFF4D
:102E30000246159B009340F28E33424902202DF04A
:102E4000F5FF159B6FE09DF80F30002B1DD03B4820
:102E500000F00EFB1590159B1493149B002B05D0CE
:102E6000374A40F29331149829F0B4FD314800F00C
:102E7000B7FB1590159B1393139B002B05D0304A7D
:102E800040F29631139829F0A5FD2B4B1B6818468C
:102E9000FFF762FD1590159B002B0DD028482DF0F3
:102EA00083FF0246159B009340F29A332549022086
:102EB0002DF0BCFF159B36E005AB1C220021184607
:102EC00032F043FD12AB059310AB06930DF13F03B7
:102ED00007930DAB09930CAB0893174B1B680A9330
:102EE000194B0B93194903202DF064FF05AB1946CC
:102EF000174820F00DFF1590159B002B0DD01048A2
:102F00002DF052FF0246159B00934FF46A730D4952
:102F100002202DF08BFF159B05E0074B1B68184620
:102F2000FFF76EFD0023184617B05DF804FB00BFE5
:102F3000F44E0020A47B0500F04E0020987B050095
:102F4000A07C05007C7D0500F92A0200B083050005
:102F5000B04E002000B585B0019001990C4820F0DA
:102F6000A6FE019B1B88112B0DD100F0B1F8039038
:102F7000039B0293029B002B05D0064A40F2BE3110
:102F8000029829F027FD00BF05B05DF804FB00BFE3
:102F9000B04E0020A07C050000B589B00190002350
:102FA00007935F238DF8083018230393019B049344
:102FB000064B0593064B069302AB184610F05EFCD9
:102FC0000790079B184609B05DF804FB04840500D0
:102FD000311D020000B589B001905C238DF80830E6
:102FE00017230393019B0493074B0593074B069309
:102FF00001238DF81C3002AB18460EF055FC034639
:10300000184609B05DF804FB14840500C91C0200D1
:1030100000B58BB00390039B0593114B06935A2385
:103020008DF81C300F4B089305AB18460AF0C2FF11
:103030000990099B002B0DD00B482DF0B5FE0246E0
:10304000099B009340F20A43084902202DF0EEFE4E
:10305000099B00E0002318460BB05DF804FB00BF9D
:1030600024840500351E0200A07C05007C7D05003F
:1030700000B58BB00390039B0593114B0693382347
:103080008DF81C300F4B089305AB18460BF010FD64
:103090000990099B002B0DD00B482DF085FE0246B0
:1030A000099B009340F22343084902202DF0BEFE05
:1030B000099B00E0002318460BB05DF804FB00BF3D
:1030C000348405007D1E0200A07C05007C7D050087
:1030D00000B587B00020FEF79DFF0590059B049387
:1030E000049B002B05D0224A40F23441049829F079
:1030F00071FCFFF737F80590059B0393039B002BAA
:1031000005D01B4A40F23741039829F063FC0120A7
:10311000FFF794F90590059B0293029B002B05D0C5
:10312000134A40F23A41029829F054FCFFF7E8FBB9
:103130000590059B0193019B002B05D00C4A40F2A2
:103140003D41019829F046FCFFF7F4FA0590059BF4
:103150000093009B002B05D0054A4FF4886100982E
:1031600029F038FC0023184607B05DF804FB00BFC7
:10317000A07C050000B58DB003900291039B002B4D
:1031800001D10E23BAE0029B002B01D10E23B5E042
:103190005C4903202DF00EFE039B5B4A5A60039BA3
:1031A0005A4A1A60029B1B681846FFF713FF0B90E0
:1031B0000B9B0A930A9B002B05D0554A40F25441C1
:1031C0000A9829F007FC029B1B681846FFF7E4FEEB
:1031D0000B900B9B0993099B002B05D04C4A40F2A6
:1031E0005741099829F0F6FB029B1B681846FFF728
:1031F0000FFF0B900B9B0893089B002B05D0444AB4
:1032000040F25A41089829F0E5FB029B1B681846DA
:10321000FFF72EFF0B900B9B0793079B002B05D00E
:103220003B4A40F25D41079829F0D4FB394A01211D
:1032300039482AF06BFB0B900B9B0693069B002BE7
:1032400005D0334A40F26141069829F0C3FB334A66
:10325000012133482AF05AFB0B900B9B0593059BE9
:10326000002B05D02A4A40F26441059829F0B2FBB0
:103270002C4A01212C482AF049FB0B900B9B002B78
:103280000DD023482DF090FD02460B9B009340F299
:103290006743264902202DF0C9FD0B9B2EE0244AEE
:1032A000012124482AF032FB0B900B9B002B0DD000
:1032B00017482DF079FD02460B9B009340F26A43BC
:1032C0001A4902202DF0B2FD0B9B17E01A4A01218A
:1032D0001A482AF01BFB0B900B9B002B0DD00C48BF
:1032E0002DF062FD02460B9B009340F26D430F49A7
:1032F00002202DF09BFD0B9B00E0002318460DB033
:103300005DF804FBE0830500552F0200DD2D02006F
:10331000A07C0500F11E0200AC7B05009D20020090
:10332000B07B05003D230200B47B05007C7D0500D9
:10333000E5270200B87B0500B1210200BC7B050037
:1033400000B589B00390039B1B78002B02D0012BA2
:103350001AD05BE0039B5B68002B06D13A4B01223D
:103360001A703A4B01221A7065E0394901202DF09C
:1033700021FD00230793079B002B5CD1354A722166
:10338000002029F027FB56E0039B5B68002B2ED121
:10339000039B9B8941F20102934210D1039B1B7C4A
:1033A0001A46039B9B891946039BDB8900930B46B6
:1033B000294903202DF03AFD284B01221A70039B66
:1033C0009B8941F20302934237D1039B1B7C1A462F
:1033D000039B9B891946039BDB8900930B4620497D
:1033E00003202DF023FD1F4B01221A7025E01E49FA
:1033F00001202DF0DFFC00230693069B002B1CD13F
:10340000144A8C21002029F0E5FA16E0039B1B7872
:103410001A46039B5B68154903202DF0F0FC039BC3
:103420005B680593059B002B09D00A4A91210598FA
:1034300029F0D0FA03E000BF02E000BF00E000BFC7
:1034400000BF09B05DF804FBD54F0020D74F002026
:103450004484050074840500C4840500D44F002012
:1034600014850500D64F0020688505009885050065
:1034700000B58BB003901F4903202DF09BFC039BEC
:10348000002B01D10E2330E00C2203991A4832F0B0
:1034900033FA1A4B42221A60184B04930423ADF8F6
:1034A000143041F20103ADF8183041F20203ADF8D7
:1034B0001A3004AB07930123ADF8203006AB194650
:1034C0000F482CF034FC0990099B002B0CD00D48C0
:1034D0002DF06AFC0246099B0093AE230A490220A4
:1034E0002DF0A4FC099B00E0002318460BB05DF80A
:1034F00004FB00BFC8850500BC4F0020B84F00206A
:10350000A04F002074840500F885050000B58BB03D
:10351000039005AB08220021184632F016FA2A491A
:1035200003202DF047FC05AB284A41F2020141F28D
:1035300001002CF06BFC0990099B002B0CD0244857
:103540002DF032FC0246099B0093BF232149022043
:103550002DF06CFC099B33E007AB19461B482CF09F
:103560005BFB0990099B002B0CD019482DF01CFC2B
:103570000246099B0093C223164902202DF056FCF7
:10358000099B1DE0089B10221946134832F0B4F93C
:103590000E482CF07DFB0990099B002B0CD00C48A9
:1035A0002DF002FC0246099B0093C7230949022023
:1035B0002DF03CFC099B03E0039B084A1A600023A2
:1035C00018460BB05DF804FB4C860500A04F0020A8
:1035D00074840500F8850500B84F0020BC4F00201A
:1035E00000B58BB003901F4904202DF0E3FB039B33
:1035F000002B01D10E2330E0082203991A4832F043
:103600007BF91A4B42221A60184B04930323ADF83E
:10361000143041F20303ADF8183041F20403ADF861
:103620001A3004AB07930123ADF8203006AB1946DE
:103630000F482CF07CFB0990099B002B0CD00D4807
:103640002DF0B2FB0246099B0093E6230A490220B3
:103650002DF0ECFB099B00E0002318460BB05DF851
:1036600004FB00BF7C860500CC4F0020C84F002023
:10367000AC4F002074840500F885050000B58BB0C0
:10368000039005AB08220021184632F05EF92A4962
:1036900004202DF08FFB05AB284A41F2040141F2D2
:1036A00003002CF0B3FB0990099B002B0CD024489D
:1036B0002DF07AFB0246099B0093F7232149022053
:1036C0002DF0B4FB099B33E007AB19461B482CF0E7
:1036D000A3FA0990099B002B0CD019482DF064FB2C
:1036E0000246099B0093FA23164902202DF09EFB07
:1036F000099B1DE0089B0C221946134832F0FCF888
:103700000E482CF0C5FA0990099B002B0CD00C48F0
:103710002DF04AFB0246099B0093FF230949022032
:103720002DF084FB099B03E0039B084A1A600023E9
:1037300018460BB05DF804FBAC860500AC4F0020CA
:1037400074840500F8850500C84F0020CC4F002088
:1037500000B593B005900491039202938D49032024
:103760002DF028FB059B002B01D10E230DE1039BBF
:10377000002B01D10E2308E187482CF0B7F91190F6
:10378000119B002B0DD085482DF00EFB0246119B9E
:1037900000934FF48A73824902202DF047FB119B5E
:1037A000F3E02CF0C3F91190119B002B0FD07B4854
:1037B0002DF0FAFA0246119B009340F21713784954
:1037C00002202DF033FB119BDFE029F085FA754BC9
:1037D0001B7883F00103DBB2002BF6D1724B1B7810
:1037E00083F00103DBB2002BEFD10498FFF78EFECC
:1037F0001190119B0A2B45D16C4903202DF0DAFA68
:103800000C2205996A4832F077F86A4B42221A6016
:10381000684B0C930423ADF8343041F20103ADF84A
:10382000383041F20203ADF83A300CAB0F9301236C
:10383000ADF84030604B00221A700EAB19465F485D
:103840002CF066FA1190119B002B0DD053482DF0EF
:10385000ABFA0246119B009340F235135049022007
:103860002DF0E4FA119B90E0049B514A1A6001E0AC
:1038700029F032FA504B1B7883F00103DBB2002BA6
:10388000F6D110E0119B002B0DD044482DF08CFA9E
:103890000246119B00934FF4A073414902202DF082
:1038A000C5FA119B71E00298FFF7E8FE1190119B99
:1038B0000A2B58D1039B1B889BB21946039B5B883C
:1038C0009BB21846039B9B889BB21A46039BDB88DE
:1038D0009BB20193009203460A46394903202DF01A
:1038E000BEFA08220399374832F006F8364B4222D6
:1038F0001A60354B07930323ADF8203041F20303E0
:10390000ADF8243041F20403ADF8263007AB0A933A
:103910000123ADF82C302D4B00221A7009AB19464B
:103920002B482CF0F5F91190119B002B0DD01B4862
:103930002DF03AFA0246119B00934FF4AD731849EB
:1039400002202DF073FA119B1FE0029B1D4A1A60A2
:1039500001E029F0C1F91D4B1B7883F00103DBB2B4
:10396000002BF6D110E0119B002B0DD00B482DF051
:103970001BFA0246119B009340F26513084902208E
:103980002DF054FA119B00E00023184613B05DF8A7
:1039900004FB00BFD8860500413302007484050093
:1039A000F8850500D54F0020D74F0020048705007B
:1039B000BC4F0020B84F0020D44F0020A04F002063
:1039C00038870500CC4F0020C84F0020D64F00207C
:1039D000AC4F002000B589B00190019B002B01D1B4
:1039E0000E2327E0019B1B889BB2ADF80C30019B96
:1039F0005B889BB2ADF80E30019B9B889BB2ADF803
:103A00001030019BDB889BB2ADF81230019B1B7A12
:103A10008DF8143003AB18460DF096FA0790079B0B
:103A20000693069B002B04D0044A4C21069828F0EC
:103A3000D1FF0023184609B05DF804FBA0870500FC
:103A400000B59BB0039001921A460B468DF80B30DF
:103A50001346ADF808309DF80B300B2B00F21382A3
:103A600001A252F823F000BF1F3E0200993A020063
:103A7000F73A0200553B0200AF3B02000D3C02004A
:103A8000673C0200C13C02001B3D0200993D020060
:103A9000EF3D0200013E0200039B93F866301A4698
:103AA000B44903202DF097F9039B93F86630002B5F
:103AB00010D04FF480700DF097F81990199B18935F
:103AC000189B002B00F0E181AB4A6021189828F088
:103AD00081FFDAE14FF480700DF0AEF91990199B77
:103AE0001793179B002B00F0D081A34A65211798EC
:103AF00028F070FFC9E1039B93F867301A469F498D
:103B000003202DF068F9039B93F86730002B10D049
:103B10004FF400700DF068F81990199B1693169BDE
:103B2000002B00F0B481944A6E21169828F052FFC1
:103B3000ADE14FF400700DF07FF91990199B1593CA
:103B4000159B002B00F0A3818B4A7321159828F058
:103B500041FF9CE1039B93F868301A468849032093
:103B60002DF039F9039B93F86830002B0FD0082013
:103B70000DF03AF81990199B1493149B002B00F048
:103B800088817D4A7C21149828F024FF81E1082057
:103B90000DF052F91990199B1393139B002B00F011
:103BA0007881754A8121139828F014FF71E1039BF5
:103BB00093F869301A46734903202DF00CF9039BE2
:103BC00093F86930002B10D04FF480600DF00CF8A2
:103BD0001990199B1293129B002B00F05C81664A8E
:103BE0008A21129828F0F6FE55E14FF480600DF01E
:103BF00023F91990199B1193119B002B00F04B8115
:103C00005D4A8F21119828F0E5FE44E1039B93F86B
:103C10006A301A465C4903202DF0DDF8039B93F8C7
:103C20006A30002B0FD007200CF0DEFF1990199B93
:103C30001093109B002B00F030814F4A9821109870
:103C400028F0C8FE29E107200DF0F6F81990199B1D
:103C50000F930F9B002B00F02081474A9D210F9866
:103C600028F0B8FE19E1039B93F86B301A464749D8
:103C700003202DF0B0F8039B93F86B30002B0FD08E
:103C800010200CF0B1FF1990199B0E930E9B002B86
:103C900000F00581384AA6210E9828F09BFEFEE030
:103CA00010200DF0C9F81990199B0D930D9B002B56
:103CB00000F0F580304AAB210D9828F08BFEEEE045
:103CC000039B93F86C301A46314903202DF083F89A
:103CD000039B93F86C30002B0FD020200CF084FF56
:103CE0001990199B0C930C9B002B00F0DA80224A50
:103CF000B4210C9828F06EFED3E020200DF09CF843
:103D00001990199B0B930B9B002B00F0CA801A4A49
:103D1000B9210B9828F05EFEC3E0039B93F86D3049
:103D20001A461C4903202DF056F8039B93F86D307A
:103D3000002B0FD040200CF057FF1990199B0A93CD
:103D40000A9B002B00F0AF800B4AC2210A9828F092
:103D500041FEA8E040200DF06FF81990199B0993DF
:103D6000099B002B00F09F80034AC721099828F087
:103D700031FE98E0E8870500A0870500348805003B
:103D800088880500D488050024890500708905000D
:103D9000BC8905000C8A0500039B93F86E301A4617
:103DA000454903202DF017F8039B93F86E30002B44
:103DB0000ED080200CF018FF1990199B0893089BD7
:103DC000002B72D03D4AD021089828F003FE6CE009
:103DD00080200DF031F81990199B0793079B002B59
:103DE00063D0364AD521079828F0F4FD5DE0039BA7
:103DF00093F86F301A46324903202CF0ECFF57E05D
:103E0000BDF80830039A0199184603F0A3FEBDF8E7
:103E100008301A460021019831F097FD48E0BDF8BE
:103E200008301A46274903202CF0D5FFBDF808308A
:103E3000092B0CBF01230023DBB20693069B002B4A
:103E400004D11E4AF021002028F0C4FD019800F0A2
:103E500031FF1990199B0593059B002B04D0174A3D
:103E6000F321059828F0B6FD0198FFF7B3FD1990EE
:103E7000199B0493049B002B19D0104AF621049837
:103E800028F0A8FD13E000BF12E000BF10E000BF63
:103E90000EE000BF0CE000BF0AE000BF08E000BF7A
:103EA00006E000BF04E000BF02E000BF00E000BF8A
:103EB00000BF1BB05DF804FB5C8A0500A08705000D
:103EC000AC8A0500FC8A050000B589B003468DF870
:103ED0000F303249324800F0A5FF0790079B002BB6
:103EE0000DD030482CF060FF0246079B009340F253
:103EF0000D132D4902202CF099FF079B49E09DF8F6
:103F00000F30002B0ED0264800F0D4FE0790079B00
:103F10000693069B002B05D0224A4FF48971069820
:103F200028F058FD1D4B1B681846FFF753FD0790FE
:103F3000079B002B0DD01B482CF036FF0246079B39
:103F400000934FF48B73184902202CF06FFF079BEE
:103F50001FE004AB08220021184631F0F6FC0F4B9D
:103F60001B680493114B0593114903202CF022FF89
:103F700004AB19460F4822F0B9FE0790079B002BAF
:103F800006D0079A0C4901202CF025FF079B00E082
:103F90000023184609B05DF804FB00BF5450002010
:103FA00094870500A08705004C8B0500413A02006C
:103FB000A08B0500D84F0020E08B050000B585B030
:103FC000019001990D4822F061FE019B1B88112B85
:103FD0000FD140F6FF700CF02FFF0390039B02936C
:103FE000029B002B05D0064A40F23711029828F0B8
:103FF000F1FC00BF05B05DF804FB00BFD84F002006
:10400000A08705002DE9F047BAB002AFF860B960AB
:104010007A60FB681B78082B00F2718501A252F8C8
:1040200023F000BF49400200FD4402005545020054
:10403000DF4502006B480200BB480200E74902006E
:104040003D4A0200AD4A02007B68242B0CBF0123CD
:104050000023DBB2C7F8D830D7F8D830002B05D111
:104060001F4A4FF4A171002028F0B4FCBB68C7F8C8
:10407000D430002387F8DD3064E097F8DD309B0012
:10408000D7F8D42013441B681B14A7F8D23097F834
:10409000DD30144A32F91330B7F9D2209A4225DBC9
:1040A00097F8DD10B7F9D20097F8DD300D4A32F9F4
:1040B0001330009303460A460B4902202CF0B6FE4B
:1040C00097F8DD30074A32F91330194697F8DD309A
:1040D0009B00D7F8D42013440A041A602DE000BFD7
:1040E000A0870500149105000C8C050097F8DD30C1
:1040F000C54A32F91330B7F9D2209A421DDA97F83F
:10410000DD10B7F9D20097F8DD30BF4A32F913302D
:10411000009303460A46BD4902202CF087FE97F81B
:10412000DD30B94A32F91330194697F8DD309B007B
:10413000D7F8D42013440A041A6097F8DD3001330D
:1041400087F8DD3097F8DD30082B96D9D7F8D430D2
:104150001B689B111BB2A7F86430D7F8D430043326
:104160001B689B111BB2A7F86630D7F8D430083310
:104170001B689B111BB2A7F86830D7F8D4300C33FA
:104180001B68DB121BB2A7F86A30D7F8D4301033A3
:104190001B68DB121BB2A7F86C30D7F8D43014338D
:1041A0001B68DB121BB2A7F86E30D7F8D430183377
:1041B0001B681B139BB25B429BB21BB2A7F8723009
:1041C000D7F8D4301C331B681B131BB2A7F8703010
:1041D000D7F8D43020331B681B131BB2A7F87430F8
:1041E0008B4904202CF0E6FDD7F8D4301B68184624
:1041F0002EF056FD03460C46C7E932344FF000025C
:10420000844BD7E932012FF0DBF803460C46C7E9AF
:10421000323407F15C00D7E932237F4931F0A0F94D
:1042200007F15C0318462CF0BFFD03461A467B4994
:1042300004202CF0D0FDD7F8D43004331B68184686
:104240002EF02EFD03460C46C7E932344FF0000233
:10425000704BD7E932012FF0B3F803460C46C7E99B
:10426000323407F15C00D7E932236B4931F078F939
:1042700007F15C0318462CF097FD03461A4668497F
:1042800004202CF0A8FDD7F8D43008331B6818465A
:104290002EF006FD03460C46C7E932344FF000020B
:1042A0005C4BD7E932012FF08BF803460C46C7E987
:1042B000323407F15C00D7E93223574931F050F925
:1042C00007F15C0318462CF06FFD03461A4655496A
:1042D00004202CF080FDD7F8D4300C331B6818462E
:1042E0002EF0DEFC03460C46C7E932344FF00002E4
:1042F000484BD7E932012FF063F803460C46C7E973
:10430000323407F15C00D7E93223434931F028F910
:1043100007F15C0318462CF047FD03461A46424954
:1043200004202CF058FDD7F8D43010331B68184601
:104330002EF0B6FC03460C46C7E932344FF00002BB
:10434000344BD7E932012FF03BF803460C46C7E95E
:10435000323407F15C00D7E932232F4931F000F9FC
:1043600007F15C0318462CF01FFD03461A462F493F
:1043700004202CF030FDD7F8D43014331B681846D5
:104380002EF08EFC03460C46C7E932344FF0000293
:10439000204BD7E932012FF013F803460C46C7E94A
:1043A000323407F15C00D7E932231B4931F0D8F8E9
:1043B00007F15C0318462CF0F7FC03461A461C492B
:1043C00004202CF008FDD7F8D4301C331B681846A5
:1043D0002EF066FC03460C46C7E932344FF000026B
:1043E0000C4BD7E932012EF0EBFF03460C46C7E930
:1043F000323407F15C00D7E93223074931F0B0F8D5
:1044000007F15C03184615E028910500588C05005B
:10441000A48C05000000F040D48C0500DC8C050065
:104420000C8D05003C8D05006C8D0500A08D0500F0
:10443000D48D05002CF0B8FC03461A46BC49042074
:104440002CF0C9FCD7F8D43018331B6818462EF06E
:1044500027FC03460C461A46C7F8C82084F00043E0
:10446000C7F8CC304FF00002B24BD7E932012EF042
:10447000A7FF03460C46C7E9323407F15C00D7E9D1
:104480003223AD4931F06CF807F15C0318462CF08B
:104490008BFC03461A46A94904202CF09CFCD7F853
:1044A000D43020331B6818462EF0FAFB03460C4626
:1044B000C7E932344FF000029E4BD7E932012EF0AB
:1044C0007FFF03460C46C7E9323407F15C00D7E9A9
:1044D0003223994931F044F807F15C0318462CF077
:1044E00063FC03461A46964904202CF074FC07F13D
:1044F00064031946934822F0E5FD05E37B68102B21
:104500000CBF01230023DBB2C7F8C430D7F8C43096
:10451000002B05D18C4A40F2BF11002028F05AFA36
:10452000BB68C7F8C030D7F8C0301B68FB64D7F849
:10453000C0305B683B65D7F8C0309B687B65D7F8B7
:10454000C030DB68BB6507F14C0319467D4822F09B
:1045500033FDD9E27B680C2B0CBF01230023DBB2B7
:10456000C7F8BC30D7F8BC30002B05D1764A40F2F2
:10457000E111002028F02EFABB68C7F8B830D7F850
:10458000B8301B683B64D7F8B8305B687B64D7F8F9
:10459000B8309B68BB643B6C002B02DA03F57F43A9
:1045A000FF331B141A467B6C002B02DA03F57F43A2
:1045B000FF331B141946BB6C002B02DA03F57F4353
:1045C000FF331B1400930B46604904202CF02EFC93
:1045D00007F1400319465B4822F0B7FD94E26B46B1
:1045E0009A467B68242B0CBF01230023DBB2C7F85B
:1045F000B430D7F8B430002B05D1534A4FF4F971D9
:10460000002028F0E7F9BB68C7F8B030D7F8B03021
:104610001B681B141BB2BB85D7F8B03004331B6872
:104620001B141BB2FB85D7F8B03008331B681B1472
:104630001BB23B86D7F8B0300C331B681B141BB27F
:104640007B86D7F8B03010331B681B141BB2BB86B7
:10465000D7F8B03014331B681B141BB2FB86D7F895
:10466000B03018331B681B141BB23B87D7F8B0302F
:104670001C331B681B141BB27B87D7F8B030203368
:104680001B681B141BB2BB87314B1B78013BC7F85F
:10469000AC302F4B1B78D9B24FF000020B461446BA
:1046A00013EB030844EB040943464C465B1842EB0A
:1046B00004044FF000014FF00002220142EA13729D
:1046C00019010B461446224B1B781A4613465B0011
:1046D00013445B001E4B1B78D9B24FF000020B460F
:1046E0001446DD1844EB04062B4634465B1842EBB7
:1046F00004044FF000014FF00002220142EA13725D
:1047000019010B461446124B1B781A4613465B00E0
:1047100013445B000733DB08DB00ADEB030D02AB9A
:104720000033C7F8A830002387F8DE3038E000BF38
:10473000088E05000000F040D48C0500388E05007E
:10474000688E0500D84F0020A0870500988E0500D0
:104750003A91050097F8DE309B00D7F8B02013445B
:104760001B6818462EF09CFA4FF00002C24B2EF048
:1047700027FE03460C46C7E9283497F8DE20134687
:104780005B0013445B00D7F8A820D018D7E9282392
:10479000BA4930F0E5FE97F8DE30013387F8DE30B5
:1047A000B74B1B7897F8DE209A42D3D3B549042043
:1047B0002CF000FBD7F8A83018462CF0F5FA044688
:1047C000D7F8A830063318462CF0EEFA0546D7F88D
:1047D000A8300C3318462CF0E7FA034600932B461A
:1047E0002246A94904202CF021FBD7F8A830123327
:1047F00018462CF0D9FA0446D7F8A83018331846D2
:104800002CF0D2FA0546D7F8A8301E3318462CF003
:10481000CBFA034600932B4622469B4904202CF0FA
:1048200005FBD7F8A830243318462CF0BDFA04460F
:10483000D7F8A8302A3318462CF0B6FA0546D7F830
:10484000A830303318462CF0AFFA034600932B46BD
:1048500022468D4904202CF0E9FA07F12C03194671
:104860008A4822F0B5FCD5464EE17B68042B0CBF8C
:1048700001230023DBB2C7F89C30D7F89C30002B13
:1048800005D1834A40F21721002028F0A3F8BB6825
:104890001B68BB62BB6A002B02DA03F57F43FF3360
:1048A0001B141A467B4904202CF095FA07F12803C3
:1048B0001946764822F0CFFC26E16B461D467B6800
:1048C0000C2B0CBF01230023DBB2C7F89830D7F8BC
:1048D0009830002B05D16E4A40F22221002028F0AA
:1048E00079F8BB68C7F89430D7F894301B68FB613F
:1048F000D7F894305B683B62D7F894309B687B6252
:10490000654B1B78013BC7F89030634B1B78D9B2DD
:104910004FF000024FF000034FF00004940144EA0E
:1049200091648B015C4B1B78D9B24FF000024FF0C1
:1049300000034FF00004940144EA91648B01564B4C
:104940001B78DB000733DB08DB00ADEB030D02ABAC
:104950000033C7F88C30002387F8DF301AE097F86F
:10496000DF30DB00D7F88C20D41897F8DF309B00BD
:10497000D7F8942013441B6818462EF0CDFA02464F
:104980000B464649204630F0EBFD97F8DF30013307
:1049900087F8DF30404B1B7897F8DF209A42DED350
:1049A000D7F88C3018462CF0FFF90446D7F88C3035
:1049B000083318462CF0F8F90646D7F88C30103337
:1049C00018462CF0F1F90346009333462246344949
:1049D00004202CF02BFA07F11C0319462B4822F077
:1049E0007EFCAD4690E07B68022B0CBF01230023C8
:1049F000DBB2C7F88830D7F88830002B05D1244ABD
:104A000040F23F21002027F0E5FFBB68C7F8843063
:104A1000D7F884301B783B76D7F884305B787B7688
:104A20007B7E1A463B7E1F4904202CF0E8F907F1F3
:104A300018031946154822F039FA65E07B68012B06
:104A40000CBF01230023DBB2C7F88030D7F88030D9
:104A5000002B05D10E4A4FF41471002027F0BAFF45
:104A6000BB681B781A46104904202CF0B4F9B968C9
:104A7000064822F05EFA47E00000D041FC8E0500B7
:104A80003A910500048F0500388F0500D84F0020AB
:104A9000A0870500608F05003B910500A08F0500F1
:104AA000A88F0500F48F05002C9005007B68082B6B
:104AB0000CBF01230023DBB2FB67FB6F002B05D18A
:104AC000144A40F25A21002027F084FFBB68BB67DC
