:020000021000EC
:10F000000000012033F10100D9F00100DBF0010024
:10F01000DDF00100DFF00100E1F001000000000080
:10F02000000000000000000000000000E3F001000C
:10F03000E5F0010000000000E7F00100E9F0010048
:10F0400099BE0400EDF00100EFF00100F9B10400F9
:10F05000F3F00100F92D050001A1040079C10400BD
:10F06000FBF00100FDF00100FFF0010001F10100E3
:10F0700003F101005DD0040007F1010009F1010076
:10F080000BF1010079E604000FF1010011F101001C
:10F09000B9E6040015F101008119050019F101001C
:10F0A0001BF101001DF1010005D20400612B0500D8
:10F0B00011BB040015CC040000000000000000009B
:10F0C00027F1010029F101002BF101002DF10100D0
:08F0D0002FF1010031F10100F4
:10F0D800FEE7FEE7FEE7FEE7FEE7FEE7FEE7FEE700
:10F0E800FEE7FEE7FEE7FEE7FEE7FEE7FEE7FEE7F0
:10F0F800FEE7FEE7FEE7FEE7FEE7FEE7FEE7FEE7E0
:10F10800FEE7FEE7FEE7FEE7FEE7FEE7FEE7FEE7CF
:10F11800FEE7FEE7FEE7FEE7FEE7FEE7FEE7FEE7BF
:10F12800FEE7FEE7FEE7FEE7FEE70348854600F058
:10F13800C5F800F003B87047000001203749384887
:10F148000A1A02D0072291438D46364936480A1AD0
:10F1580006D00722914381F30988022282F314889A
:10F1680032483349334A00F048F833483349344A7F
:10F1780000F043F833483449344A00F03EF8344844
:10F188003449354A00F039F834483549354A00F0F1
:10F1980034F835483549364A00F02FF835483649AD
:10F1A800364A00F02AF836483649374A00F025F83A
:10F1B80036483749002200F02BF8364836490022F5
:10F1C80000F026F835483649091A082903DB0022D9
:10F1D8000260043001601F481F49884205D0026858
:10F1E800043003B4904703BCF7E700208646EC469A
:10F1F800002000212B4A9047FEE7884207D0521A88
:10F2080005D0037801300B700131013AF9D170470C
:10F21800884202D002700130FAE7704700000120EE
:10F2280000FC00200000012000000120984D06008D
:10F238005845002078460020B0F20100B0F20100E5
:10F2480078770500984D060058450020584500205D
:10F2580078770500787705007877050078770500D6
:10F2680078770500787705007877050078770500C6
:10F27800984D0600B84E06007846002078460020D3
:10F28800B84E0600784600208846002088460020B0
:10F2980058A1002058A1002060A1002060A10020F2
:08F2A80060A50020B5FD010086
:10F2B000024B034A1A6000BF704700BF5845002048
:10F2C0000090D00308B500F00DF90346002B06D0DE
:10F2D000744B1B681B0A744A03F01F03136000F091
:10F2E0002DF90346002B02D0704B714A1A6000F0D2
:10F2F00041F90346002B06D06E4B1B685B0B6E4A30
:10F3000003F00703136000F061F90346002B05D0FA
:10F310006A4BDB68694A23F08073D36000F072F9AE
:10F320000346002B0ED04FF080430022C3F80C217F
:10F330004FF080430022C3F810214FF08043002299
:10F34000C3F8382500F08AF90346002B02D05C4B45
:10F3500003221A6000F09EF90346002B0BD0594B94
:10F3600005221A60584B01221A60584B00221A607D
:10F37000574B3F221A6000F0A9F90346002B76D0C4
:10F380004FF08053534AD3F80434C2F820354FF07D
:10F390008053504AD3F80834C2F824354FF08053D4
:10F3A0004C4AD3F80C34C2F828354FF08053494A00
:10F3B000D3F81034C2F82C354FF08053454AD3F8B7
:10F3C0001434C2F830354FF08053424AD3F8183421
:10F3D000C2F834354FF080533E4AD3F81C34C2F89B
:10F3E00040354FF080533B4AD3F82034C2F84435BF
:10F3F0004FF08053374AD3F82434C2F848354FF0E1
:10F400008053344AD3F82834C2F84C354FF0805337
:10F41000304AD3F82C34C2F850354FF080532D4A7F
:10F42000D3F83034C2F854354FF08053294AD3F81A
:10F430003434C2F860354FF08053264AD3F838345C
:10F44000C2F864354FF08053224AD3F83C34C2F8F6
:10F4500068354FF080531F4AD3F84034C2F86C35FA
:10F460004FF080531B4AD3F84434C2F8703500F093
:10F4700049F90346002B05D0174B1B68174A03F0C8
:10F480004F031360164BD3F88830154A43F47003CA
:10F49000C2F88830BFF34F8FBFF36F8FFFF708FFBD
:10F4A00000BF08BD240300104035014074C0074070
:10F4B0000DF0ADBA440200103C050040F0ED00E054
:10F4C000A0050040105600408856004018560040E5
:10F4D0001456004000C0004058020010E40E0040E6
:10F4E00000ED00E0124B1B68DBB2062B1DD1114B67
:10F4F0001B6803F00F03002B17D10F4B1B6803F0A1
:10F50000F003302B01D1012310E00B4B1B6803F0FB
:10F51000F003402B01D1012308E0074B1B6803F0E7
:10F52000F003502B01D1012300E00023184670475F
:10F53000E00F00F0E40F00F0E80F00F00A4B1B684A
:10F54000DBB2062B0DD1094B1B6803F00F03002B18
:10F5500007D1074B1B6803F0F003302B01D10123C7
:10F5600000E0002318467047E00F00F0E40F00F0C1
:10F57000E80F00F0124B1B68DBB2062B1DD1114BBC
:10F580001B6803F00F03002B17D10F4B1B6803F010
:10F59000F003302B01D1012310E00B4B1B6803F06B
:10F5A000F003402B01D1012308E0074B1B6803F057
:10F5B000F003502B01D1012300E0002318467047CF
:10F5C000E00F00F0E40F00F0E80F00F00A4B1B68BA
:10F5D000DBB2062B0DD1094B1B6803F00F03002B88
:10F5E00007D1074B1B6803F0F003302B01D1012337
:10F5F00000E0002318467047E00F00F0E40F00F031
:10F60000E80F00F0124B1B68DBB2062B1DD1114B2B
:10F610001B6803F00F03002B17D10F4B1B6803F07F
:10F62000F003302B01D1012310E00B4B1B6803F0DA
:10F63000F003402B01D1012308E0074B1B6803F0C6
:10F64000F003502B01D1012300E00023184670473E
:10F65000E00F00F0E40F00F0E80F00F00A4B1B6829
:10F66000DBB2062B0DD1094B1B6803F00F03002BF7
:10F6700007D1074B1B6803F0F003302B01D10123A6
:10F6800000E0002318467047E00F00F0E40F00F0A0
:10F69000E80F00F00A4B1B68DBB2062B0DD1094BBB
:10F6A0001B6803F00F03002B07D1074B1B6803F007
:10F6B000F003302B01D1012300E0002318467047EE
:10F6C000E00F00F0E40F00F0E80F00F00A4B1B68B9
:10F6D000DBB2062B0DD1094B1B6803F00F03002B87
:10F6E00007D1074B1B6803F0F003502B01D1012316
:10F6F00000E0002318467047E00F00F0E40F00F030
:10F70000E80F00F0124B1B68DBB2062B1DD1114B2A
:10F710001B6803F00F03002B17D10F4B1B6803F07E
:10F72000F003302B01D1012310E00B4B1B6803F0D9
:10F73000F003402B01D1012308E0074B1B6803F0C5
:10F74000F003502B01D1012300E00023184670473D
:10F75000E00F00F0E40F00F0E80F00F00048704701
:10F7600050A1002082B003468DF807309DF8073085
:10F7700003F01F0206499DF907305B09012000FADA
:10F7800002F2603341F8232000BF02B0704700BF8F
:10F7900000E100E0BFF34F8F054BDB6803F4E0624C
:10F7A0000349044B1343CB60BFF34F8F00BFFDE70A
:10F7B00000ED00E00400FA0532DF704700BF184694
:10F7C0003EDF704700BF184682B001904FF0A04363
:10F7D000184602B0704700B585B001900846114642
:10F7E0001A4603468DF803300B468DF80230134657
:10F7F0008DF8013001AB1846FFF7E6FF03909DF846
:10F8000003209DF802305B001A439DF801309B00F5
:10F810001A439DF818301B0242EA03019DF81C3080
:10F820001B04019A1943039B02F5E07243F822106E
:10F8300000BF05B05DF804FB00B585B00390002360
:10F840000193002300930023012201210398FFF775
:10F85000C2FF00BF05B05DF804FB00B585B00390A2
:10F860000B468DF80B3013468DF80A309DF80B20AF
:10F870009DF80A30019300230093134600220021D3
:10F880000398FFF7A8FF00BF05B05DF804FB000078
:10F8900084B00190244B0393019B002B40D0234B59
:10F8A0001A680399019B00BF00BF00BF00BF00BFE3
:10F8B00000BF00BF00BF8A422FD000BF00BF00BF03
:10F8C00000BF00BF00BF00BF00BF00BF00BF00BF40
:10F8D00000BF00BF00BF00BF00BF00BF00BF00BF30
:10F8E00000BF00BF00BF00BF00BF00BF00BF00BF20
:10F8F00000BF00BF00BF00BF00BF00BF00BF00BF10
:10F9000000BF00BF00BF00BF00BF00BF00BF00BFFF
:10F9100000BF00BF00BF00BF00BF013BC3D10193C8
:10F9200000BF04B0704700BF0024F4005845002019
:10F9300000B583B00190019B4FF47A7202FB03F390
:10F940001846FFF7A5FF00BF03B05DF804FB0000F9
:10F9500070B58AB0079006910592059B0993099BA3
:10F960005B68184632F030F90546099B1B881E4635
:10F97000099B9C68099B9B68184632F009FD034669
:10F98000184632F021F9034603930294019600953C
:10F99000069B079A0849012032F08CF9022005F0F5
:10F9A00055FE0520FFF7C4FF059A069907982DF02C
:10F9B00039FF00BF0AB070BDF077050000B587B011
:10F9C000F1EE103A0193019B23F09F030293029BF7
:10F9D000E1EE103AF1EE103A03932620FFF7C2FE53
:10F9E000FFF7EEFE0590059B0493049B002B04D0CB
:10F9F000044AB92104982DF0FDFE00BF07B05DF860
:10FA000004FB00BF8478050000B589B00390039B18
:10FA10005B881A46039B1B791946039B1B7800934E
:10FA20000B462049032032F011F9039B002B34D000
:10FA3000039B1B78012B30D107F0F4FF0790079B45
:10FA40000693069B002B04D0174ACB2106982DF075
:10FA5000D1FE022200210D20FFF7FFFE13490220F4
:10FA600032F0B8F8FFF7A8FE079007F0B9FD03469B
:10FA700083F00103DBB2002B0AD0079B0593059BA3
:10FA8000002B0AD0084AD82105982DF0B3FE04E0D7
:10FA90000749022032F09EF8FEE700BF09B05DF88A
:10FAA00004FB00BF9C79050084780500E47905001B
:10FAB0006079050000B583B00190019B1B78012B94
:10FAC00008D0022B10D0002B15D10D49032032F0A5
:10FAD00081F810E00B49032032F07CF80520FFF795
:10FAE00027FFFFF757FE06E00749032032F072F8C0
:10FAF000FFF750FE00BF00BF03B05DF804FB00BF7E
:10FB0000487A0500847A0500C47A050000B59BB0E8
:10FB100001AB24220021184636F027FE1C238DF865
:10FB20000A3005238DF80B300D238DF80C3011238E
:10FB30008DF80D3001238DF80E3004238DF80F3031
:10FB400040F61C43ADF8103041F25E03ADF81230C0
:10FB5000594B0593594B06936F23ADF81C3040F673
:10FB60001C43ADF81E300A238DF82030544B099306
:10FB70000F2006F0B5FD1990199B1893189B002BC8
:10FB800005D0504A4FF4897118982DF033FE4E4B32
:10FB90000F930FAB19464D4805F0FAFD1990199BCC
:10FBA0001793179B002B05D0464A4FF48C7117987A
:10FBB0002DF020FE444B0E930EAB1946444803F043
:10FBC000F1FA1990199B1693169B002B05D03D4A0C
:10FBD0004FF48F7116982DF00DFE3B4B0D930DAB2E
:10FBE00019463C4804F0B6FF1990199B1593159BD4
:10FBF000002B05D0334A40F2251115982DF0FAFD5F
:10FC0000354806F0B1F91990199B1493149B002BF9
:10FC100005D02C4A4FF4947114982DF0EBFD2F4B26
:10FC2000019301AB19462E4807F0B8FA1990199BB9
:10FC30001393139B002B05D0224A40F22D111398E9
:10FC40002DF0D8FD41F2883007F028FA1990199B61
:10FC50001293129B002B05D01A4A4FF498711298F8
:10FC60002DF0C8FD1F4B0A93194B0B9305230C93E2
:10FC70000AAB184601F096FC1990199B1193119B41
:10FC8000002B05D00F4A4FF49C7111982DF0B2FD56
:10FC9000012005F0DBFC1990199B1093109B002BA1
:10FCA00005D0084A40F23B1110982DF0A3FD00BF8B
:10FCB0001BB05DF804FB00BF60E3160020BF02002C
:10FCC0007877050084780500E877050098460020DD
:10FCD0008846002090460020A046002009FA010036
:10FCE000A8460020B5FA010000B585B00C4B019381
:10FCF00001AB184607F044FE0390039B0293029B5E
:10FD0000002B05D0074A4FF4AF7102982DF072FD19
:10FD10006420FFF70DFE00BF05B05DF804FB00BFD7
:10FD2000407B05008478050000B589B01E4B029326
:10FD30001E4B039302AB18460BF0A6FA0790079BE5
:10FD40000693069B002B05D0194A40F275110698C0
:10FD50002DF050FD144B0093144B01936B46184645
:10FD60000BF026FB0790079B0593059B002B05D006
:10FD70000F4A40F27B1105982DF03CFD0BF014FD6D
:10FD80000790079B0493049B002B05D0084A4FF46F
:10FD9000BF7104982DF02EFD6420FFF7C9FD00BF50
:10FDA00009B05DF804FB00BFE87705005C7B050047
:10FDB0008478050000B587B0002031F0B5FE0590CD
:10FDC000059B0493049B002B05D01C4A4FF4D7716C
:10FDD00004982DF00FFD1A49032031F0FBFE194A5B
:10FDE0003C2108202DF0C2FD0390039B0293029B4F
:10FDF000002B05D0114A4FF4DA7102982DF0FAFC6D
:10FE00002EF060FC0590059B0193019B002B05D013
:10FE10000A4A4FF4DB7101982DF0ECFCFFF764FF08
:10FE2000FFF774FEFFF780FF07F024FE0320FFF7C3
:10FE300003FD2DF061FEFFF7C1FDFAE784780500B0
:10FE4000007B0500B04600206DDF704700BF1846FC
:10FE500076DF704700BF18467ADF704700BF18464C
:10FE60007CDF704700BF18467FDF704700BF184631
:10FE70008FDF704700BF18469EDF704700BF1846EF
:10FE8000A9DF704700BF1846ADDF704700BF1846B6
:10FE900069DF704700BF184666DF704700BF18462D
:10FEA00031DF704700BF18463DDF704700BF18467E
:10FEB00084B00190244B0393019B002B40D0234B33
:10FEC0001A680399019B00BF00BF00BF00BF00BFBD
:10FED00000BF00BF00BF8A422FD000BF00BF00BFDD
:10FEE00000BF00BF00BF00BF00BF00BF00BF00BF1A
:10FEF00000BF00BF00BF00BF00BF00BF00BF00BF0A
:10FF000000BF00BF00BF00BF00BF00BF00BF00BFF9
:10FF100000BF00BF00BF00BF00BF00BF00BF00BFE9
:10FF200000BF00BF00BF00BF00BF00BF00BF00BFD9
:10FF300000BF00BF00BF00BF00BF013BC3D10193A2
:10FF400000BF04B0704700BF0024F40058450020F3
:10FF500000B583B00190019B4FF47A7202FB03F36A
:10FF60001846FFF7A5FF00BF03B05DF804FB0000D3
:10FF700000B583B001900091009B1B78012B09D044
:10FF8000022B02D0002B0AD00EE00C49032031F0E6
:10FF900021FE0EE00A49032031F01CFE09E0094968
:10FFA000032031F017FE04E00749022031F012FE71
:10FFB00000BF00BF03B05DF804FB00BF907D0500EB
:10FFC000D07D05000C7E05004C7E050000B585B097
:10FFD0000023019301AB18462EF088FF03468DF8ED
:10FFE0000F309DF80F300293029B002B04D0074A7C
:10FFF000842102982DF0FEFB019B002B14BF0123EE
:020000022000DC
:100000000023DBB2184605B05DF804FB887E0500CE
:1000100000B589B003900B468DF80B3000238DF8A6
:1000200017300DF1170318462CF0B4FF00238DF89C
:100030001F3016E09DF81F3001338DF81F302E4918
:10004000022031F0C7FD0DF1170318462CF0A2FF76
:100050000520FFF77DFF9DF81F30052B01D90D23EB
:1000600045E09DF817309DF80B209A42E2D89DF8A4
:1000700017301A462149032031F0BDFD9DF80B30A1
:10008000194603982CF0A2FF0690069B002B0CD07B
:100090001B4831F099FD0246069B0093A3231949A2
:1000A000022031F0D3FD069B21E01749032031F0F7
:1000B00091FD00238DF81E300EE09DF81E30039A4E
:1000C00013441B781A461149132031F094FD9DF812
:1000D0001E3001338DF81E309DF81E209DF80B3028
:1000E0009A42EAD30A49132031F074FD00231846DE
:1000F00009B05DF804FB00BFCC7E05001C7F050045
:10010000887E0500547F0500A87F0500D87F050084
:10011000E07F050010B586B09DF804306FF303034F
:100120008DF804309DF804306FF307138DF8043018
:10013000474B1B681C46464B1B68184636F091FB24
:1001400003469AB201AB21461846FFF789FE059097
:10015000059B0493049B002B04D03E4AC2210498C3
:100160002DF048FB02AB08220021184636F0FDFABC
:10017000374B1B68B3F80F309BB2ADF80830344BE7
:100180001B68B3F811309BB2ADF80A30304B1B68D6
:10019000B3F813309BB2ADF80C302D4B1B68B3F89D
:1001A00015309BB2ADF80E3002AB1846FFF754FE87
:1001B0000590059B072B41D1254B1B68002242F07F
:1001C0000C02DA7300221A74214B1B68002242F0E1
:1001D00010025A7400229A741D4B1B680022DA74B4
:1001E00000221A751A4B1B68002242F040025A7511
:1001F000002242F001029A75154B1B68184601F067
:100200005FFB0590059B002B01D0059B1CE00C2398
:10021000ADF808301023ADF80A300023ADF80C30EB
:100220004FF4A073ADF80E3002AB1846FFF714FE82
:100230000590059B002B06D0059B05E0059B002B38
:1002400001D0059B00E00023184606B010BD00BF9A
:10025000D84A0020887E050000B585B00190019B3A
:100260001B78002B16D11149012031F0B3FC104B43
:100270001B883B211846FFF7EBFD0390039B02937D
:10028000029B002B0ED00B4A40F2011102982DF078
:10029000B1FA07E0019B1B78012B03D1064903202B
:1002A00031F098FC00BF05B05DF804FBE47F050069
:1002B0005C450020887E05003480050000B583B0D1
:1002C0000190019A0649012031F095FC054A40F25F
:1002D000151101982DF08EFA00BF03B05DF804FBF4
:1002E00080800500887E050000B58BB002AB1C2223
:1002F0000021184636F039FA6B46082200211846CC
:1003000036F033FA1F4B1B68B3F80F309BB2ADF8D1
:1003100000301C4B1B68B3F811309BB2ADF80230B3
:10032000184B1B68B3F813309BB2ADF80430154B73
:100330001B68B3F815309BB2ADF806306B460293DC
:100340004FF4004303934FF47023049303238DF879
:1003500014300023ADF8163000238DF818300A4B06
:1003600007930A4B089302AB184623F0EDF9099066
:10037000099B002B01D0099B00E0002318460BB01D
:100380005DF804FBD84A002059020200BD020200B9
:1003900000B589B003468DF807309DF80730002B73
:1003A00006D0032B20D11449032031F013FC1EE0AA
:1003B0001249032031F00EFC02238DF80C30104B53
:1003C0001B6803AA10469847032023F009F80790FA
:1003D000079B0693069B002B08D00A4A40F2531154
:1003E00006982DF007FA01E000BF00E000BF00BF53
:1003F00009B05DF804FB00BFBC800500F480050077
:10040000804A0020887E050000B58DB00190019BD8
:100410001B88013B542B00F26F8101A252F823F09C
:1004200029060200F9060200F9060200F906020098
:10043000F9060200F9060200F9060200F9060200B8
:10044000F9060200F9060200F9060200F9060200A8
:10045000F9060200F9060200F9060200750502001D
:1004600097050200F9060200D7050200F90602000E
:10047000F9060200F9060200F9060200F906020078
:10048000F9060200F9060200F9060200F906020068
:10049000F9060200F9060200F9060200F906020058
:1004A000BF060200EF060200F9060200F90602008C
:1004B000F9060200F9060200F9060200F906020038
:1004C000F9060200F9060200F9060200F906020028
:1004D000F9060200F9060200F9060200F906020018
:1004E000F9060200F9060200F9060200F906020008
:1004F000F9060200F9060200F9060200F9060200F8
:10050000F9060200AF060200F9060200F906020031
:10051000F9060200F9060200F9060200F9060200D7
:10052000F9060200F9060200F9060200F9060200C7
:10053000F9060200F9060200F9060200F9060200B7
:10054000F9060200F9060200F9060200F9060200A7
:10055000F9060200F9060200F9060200F906020097
:10056000F906020001060200F9060200F90602007F
:100570004F0602006849032031F02CFB019B9A884A
:10058000664B1A8000238DF80830654B1B6802AA61
:1005900010469847BBE0019B1B7A1A46614903202D
:1005A00031F029FB5D4B4FF6FF721A80FFF70EFD0D
:1005B0000346002B03D05C4B01221A70A7E05A4B74
:1005C00000221A7001238DF80830554B1B6802AACF
:1005D000104698479BE0514B188800230022852144
:1005E000FFF742FC0B900B9B0A930A9B002B00F039
:1005F00085804E4A40F283110A982DF0FBF87DE089
:10060000464B1888002300220021FFF739FC0B908D
:100610000B9B0993099B002B72D0444A40F289112D
:1006200009982DF0E7F86BE03C4B1B880021184639
:10063000FFF732FC0B900B9B0893089B002B61D0BB
:100640003A4A4FF4C77108982DF0D4F85AE0019B4C
:10065000DB881A463649032031F0CDFA019B9B888E
:100660004FF48A711846FFF70FFC0B900B9B079312
:10067000079B002B05D02D4A4FF4CB7107982DF026
:10068000B9F8019BDA882B4BA3F8012029492A48A5
:1006900025F090F90B900B9B0693069B002B33D013
:1006A000224A4FF4CD7106982DF0A4F82CE0019B5E
:1006B0005B891A462149032031F09DFA27E0204941
:1006C000032031F087FA019B9B8800220021184605
:1006D000FFF7CEFB0B900B9B0593059B002B15D0D2
:1006E000124A40F2A71105982DF084F80EE0154942
:1006F000032031F06FFA0AE000BF08E000BF06E017
:1007000000BF04E000BF02E000BF00E000BF00BF88
:100710000DB05DF804FB00BF2C8105005C45002096
:10072000804A002068810500DF4A0020887E05009D
:10073000B8810500DC4A00208C4A002008820500B0
:1007400054820500A482050000B585B0019001988F
:1007500023F02CFA019823F029F90023039312E0E7
:10076000144B1A68039BDB0013445B68002B07D013
:10077000104B1A68039BDB0013445B680198984791
:10078000039B013303930C4B1B68039A9A42E7D3F4
:1007900001990A4825F053F80199094830F069FE9B
:1007A0000198FFF731FE019822F004FF00BF05B069
:1007B0005DF804FB844A0020884A00208C4A00200F
:1007C000FC4A002000B587B0019001982EF0A0FBF4
:1007D000019805F079FE019822F008FF019B022B99
:1007E00002D0019B032B13D1FFF7F0FB034683F0EC
:1007F0000103DBB2002B0BD0074B1B78002B07D07B
:1008000001238DF80C30054B1B6803AA104698474E
:1008100000BF07B05DF804FBDF4A0020804A0020DB
:1008200000B593B0A54B1B68049304A8A44B4FF4E8
:10083000A672A44931F018F81190119B1093109BE7
:10084000002B05D0A04A4FF4FE7110982CF0D2FF77
:100850000023039303AB184631F0CAF80F900F9BA7
:100860000E930E9B002B05D0974A4FF400710E9803
:100870002CF0C0FF6B460C220021184635F075FFA6
:1008800001238DF800304FF48A73ADF80230039ADB
:100890006B4619462320FFF7FBFA0F900F9B0D9331
:1008A0000D9B002B05D0884A40F209210D982CF0B1
:1008B000A1FF6B460C220021184635F056FF01239C
:1008C0008DF8003001238DF802300623ADF8043096
:1008D000039A6B4619462020FFF7DAFA0F900F9B18
:1008E0000C930C9B002B05D0774A40F211210C98F9
:1008F0002CF080FF6B460C220021184635F035FFA6
:1009000001238DF8003010238DF80230039A6B46D6
:1009100019462220FFF7BCFA0F900F9B0B930B9BFD
:10092000002B05D0684A4FF406710B982CF062FF3B
:100930006B460C220021184635F017FF01238DF875
:10094000003002238DF80230039A6B4619462120AD
:10095000FFF79EFA0F900F9B0A930A9B002B05D07E
:10096000594A40F21F210A982CF044FF6B460C2292
:100970000021184635F0F9FE02238DF80030039A65
:100980006B4619460120FFF783FA0F900F9B0993DE
:10099000099B002B05D04C4A4FF4097109982CF0A3
:1009A00029FF6B460C220021184635F0DEFE01239C
:1009B0008DF80030039A6B4619464020FFF768FA1D
:1009C0000F900F9B0893089B002B05D03E4A40F2E6
:1009D000292108982CF00EFF6B460C2200211846A6
:1009E00035F0C3FE4FF47A630093039A6B461946C1
:1009F000A120FFF74DFA0F900F9B0793079B002B49
:100A000005D0314A40F22E2107982CF0F3FE6B46B8
:100A10000C220021184635F0A8FE9DF8003043F066
:100A200001038DF80030039A6B461946A020FFF7AA
:100A30002FFA0F900F9B0693069B002B05D0224A9E
:100A400040F2332106982CF0D5FE03AB184630F067
:100A5000DFFF0F900F9B0593059B002B05D01A4AD3
:100A600040F2362105982CF0C5FE184830F068FF9A
:100A70000F900F9B002B01D00F9B1BE0144830F010
:100A80006FFF0F900F9B002B01D00F9B12E00120F6
:100A9000FFF706FA0F900F9B002B01D00F9B09E088
:100AA0000120FFF701FA0F900F9B002B01D00F9B45
:100AB00000E00023184613B05DF804FBEC8205004B
:100AC000E51A0500144B0020887E05004907020046
:100AD000C507020000B5B1B04FF48073ADF87830AF
:100AE0003B4B1B788DF87A301FAB3C220021184617
:100AF00035F03BFE02238DF87C3000238DF87E30EC
:100B000006238DF87F300123ADF884301EAB22938D
:100B100016AB20220021184635F027FE01238DF860
:100B20005B302C4B1B689B899BB21A93294B1B682B
:100B30009B7B1B9307AB3C220021184635F015FE2A
:100B400000238DF8BF3010E09DF8BF30C3F10302E1
:100B50009DF8BF3020498A5C30A90B4403F8B42CBF
:100B60009DF8BF3001338DF8BF309DF8BF30032BA7
:100B7000EAD95923ADF8103003AB06930423ADF83E
:100B8000143000238DF81C3004AB109316AA07A96B
:100B90001FA800230093114B22F01EFB2E902E9BCA
:100BA000002B0DD00E4831F00FF802462E9B00931B
:100BB00040F282230B49022031F048F82E9B03E0DB
:100BC000012022F0FBFA0023184631B05DF804FB47
:100BD0008C4A0020D84A0020F84A002091030200E5
:100BE000887E0500547F050000B583B00190054A5A
:100BF00040F28F2101982CF0FDFD00BF03B05DF89D
:100C000004FB00BF887E050000B583B01A4B1B684B
:100C100093F82830022B03D805F014FD002327E0B9
:100C2000164B4FF43E721A60134B1B681733134A6E
:100C30005360114B1B6893F828309AB20F4B1A81FE
:100C40000E4B0F4A5A610F48FFF7FEF80190019BC7
:100C5000002B01D0019B0BE0084BDB7A0233DAB2A8
:100C6000064BDA72054805F081FC05F0ADFC002367
:100C7000184603B05DF804FBD84A0020604C002001
:100C8000E90B02006A4C002000B595B00390019278
:100C90001A460B468DF80B301346ADF8083000238A
:100CA0008DF84F309DF80B30062B00F2598101A2D0
:100CB00052F823F0D10C02000D0D0200310D02009C
:100CC000B90D0200090E02003B0E0200D30E020015
:100CD000BDF808300A2B00F23681AE4B1B6818466F
:100CE000BDF808301A46019935F016FDA94B1A686F
:100CF000BDF808300021D154A64B1B68BDF8082070
:100D0000D2B2DA7201238DF84F301CE1BDF8083001
:100D1000032B40F01A819F4B1B680C33BDF8082051
:100D20000199184635F0F8FC01238DF84F300CE19D
:100D3000BDF80830082B40F00A81964B1B680F3332
:100D4000BDF808200199184635F0E6FC05AB0822ED
:100D50000021184635F009FD8E4B1B68B3F80F30A3
:100D60009BB2ADF814308B4B1B68B3F811309BB2BB
:100D7000ADF81630874B1B68B3F813309BB2ADF853
:100D80001830844B1B68B3F815309BB2ADF81A309D
:100D900005AB184622F030FE1290129B1193119B66
:100DA000002B05D07C4A40F2E12111982CF022FD65
:100DB00001238DF84F30CAE0BDF80830112B00F246
:100DC000C880744B1B681733BDF80820019918467A
:100DD00035F0A2FC6F4B1B68BDF80820D2B283F837
:100DE000282001238DF84F30FFF70EFF1090109B45
:100DF0000F930F9B002B00F0AC80674A4FF43C71BF
:100E00000F982CF0F7FCA4E0BDF80830FA2B00F2A4
:100E1000A280604B1B682933BDF808200199184651
:100E200035F07AFC5B4B1B68BDF80820D2B283F822
:100E3000232101238DF84F308DE0BDF80830032BBE
:100E400040F08B80019B0E930E9B1B78012B2FD1C2
:100E50000E9BB3F801309BB21A465049032030F084
:100E6000CAFE4F4B1A880E9BB3F801309BB219464D
:100E70001046FFF701F80D900D9B002B07D1BDF830
:100E800008301A460199474835F046FC65E0454967
:100E9000454824F08FFD0D900D9B0C930C9B002B6F
:100EA0005BD03D4A40F20D310C982CF0A3FC54E08D
:100EB0003C493D4824F07EFD0D900D9B0B930B9B10
:100EC000002B4AD0344A40F213310B982CF092FC9C
:100ED00043E0BDF80830F72B41D82E4B1B6803F5D3
:100EE0009573BDF808200199184635F015FC294B7B
:100EF0001B68BDF80820D2B283F8212214F000FE4E
:100F00000A900A9B002B05D0234A40F21E310A9812
:100F10002CF070FC1F4B1B6803F59573BDF808207F
:100F2000D2B21146184614F0FFFB0990099B002B22
:100F300005D0194A40F21F3109982CF05BFC0123BF
:100F40008DF84F300BE000BF0AE000BF08E000BFA3
:100F500006E000BF04E000BF02E000BF00E000BF09
:100F60009DF84F30002B10D00A4B1B68184600F03C
:100F7000A7FC0890089B0793079B002B05D0064A07
:100F800040F22B3107982CF035FC00BF15B05DF80E
:100F900004FB00BFD84A0020887E0500F0820500CF
:100FA0005C450020DC4A00208C4A002000B589B056
:100FB00000238DF81F30724B1B6893F82431FF22F9
:100FC000934214BF012300238DF81E306C4B1B6825
:100FD00093F82531FF22934214BF012300238DF89B
:100FE0001D30674B1B6893F82631FF22934214BFD4
:100FF000012300238DF81C30614B1A6803AB02F506
:1010000092721188927819809A709DF81E30002B88
:1010100007D19DF81D30002B03D19DF81C30002B0B
:101020002ED0574B1B68FF2283F82421544B1B689A
:10103000FF2283F82521524B1B68FF2283F82621CB
:1010400001238DF81F309DF81E30002B03D19DF831
:101050001D30002B14D000238DF81F30494B012286
:101060001A70494800F02CFC0690069B0593059BDE
:10107000002B05D0454A40F24E3105982CF0BAFBC2
:10108000FF231A46FF231946FF2300930B464049CE
:10109000032030F0DBFD3B4B1B78002B0DD09DF87F
:1010A0000C301A469DF80D3019469DF80E3000930D
:1010B0000B463849032030F0C9FD314B1B6893F8CB
:1010C0002830112B0FD92E4B1B6817330E223249B3
:1010D000184635F021FB2A4B1B680E2283F8282086
:1010E00001238DF81F30264B1B6893F82331FA2B10
:1010F0000FD9234B1B68293300222849184635F0A5
:101100000BFB1F4B1B68002283F8232101238DF862
:101110001F301B4B1B6893F82132F72B05D8184B57
:101120001B6893F82132002B10D1154B1B6803F577
:10113000957316221A49184635F0EEFA104B1B68C3
:10114000162283F8212201238DF81F309DF81F30CD
:10115000002B10D00A4B1B68184600F0B1FB06901C
:10116000069B0493049B002B05D0084A40F276317D
:1011700004982CF03FFB0023184609B05DF804FBEF
:10118000D84A0020E04A00206C7B0500887E0500DC
:101190003883050078830500837B0500957B050077
:1011A000967C050000B585B00A4B1B6801930A4B7D
:1011B000029301AB1946094824F068FB0390039B96
:1011C000002B01D0039B00E00023184605B05DF81A
:1011D00004FB00BFD84A0020890C02008C4A002082
:1011E00000B589B001900091FFF7DCFF0690069BE7
:1011F0000593059B002B05D0244A4FF46671059892
:101200002CF0F8FA0023079318E0079BDB00019A03
:1012100013441B68002B0ED0079BDB00019A13447C
:101220001B681B4A1278104698470690069B002BB5
:1012300001D0069B26E0079B01330793079A009B8A
:101240009A42E2D302AB08220021184635F08DFA0B
:10125000104B029301238DF80C3001238DF80D30D3
:1012600002AB19460C482FF073FF0690069B0493BF
:10127000049B002B05D0054A40F2B13104982CF0B4
:10128000B9FA0023184609B05DF804FB887E050012
:10129000E04A002071FF0100FC4A0020B0B5C6B052
:1012A00002AF14F05BFCC7F80801D7F80831002B37
:1012B0000FD0B04830F088FC0246D7F808310093D0
:1012C00040F2BE33AC49022030F0C0FCD7F8083100
:1012D0004BE1AA4B1B6803F595731622A8491846E3
:1012E00034F0E2FF0346002B40F01C816B461D46A4
:1012F0002021A44814F042FBC7F80801D7F80831B0
:10130000002B0FD09B4830F05FFC0246D7F8083125
:10131000009340F2C3339849022030F097FCD7F88D
:101320000831FDE01B2387F8073197F807010346D2
:10133000013BC7F80031C1B24FF000024FF000038B
:101340004FF00004D40044EA5174CB00C1B24FF016
:1013500000024FF000034FF00004D40044EA51743F
:10136000CB0003460733DB08DB00ADEB030D02AB1C
:101370000033C7F8FC30D7F8FC3000221A70D7F8D9
:10138000FC308149184635F010F8D7F8FC307F4919
:10139000184635F00AF8002387F80F311EE007F1F0
:1013A000F80300210A461A800A469A7097F80F310E
:1013B000774AD35C1A4607F1F8037649184634F0A9
:1013C000DFFFD7F8FC3007F1F8021146184634F079
:1013D000ECFF97F80F31013387F80F3197F80F3191
:1013E000032BDCD9D7F8FC30184630F0EDFB034670
:1013F0001A466949032030F0FEFBD7F8FC3097F815
:1014000007211146184614F011FAC7F80801D7F859
:101410000831002B0FD0574830F0D6FB0246D7F8E2
:101420000831009340F2D7335349022030F00EFCCC
:10143000D7F8083174E016225849012014F052FA06
:10144000C7F80801D7F80831002B0FD0494830F011
:10145000BBFB0246D7F80831009340F2DA33464925
:10146000022030F0F3FBD7F8083159E014F0CEFA3F
:10147000C7F80801D7F80831002B0FD03D4830F0ED
:10148000A3FB0246D7F80831009340F2DD333A4916
:10149000022030F0DBFBD7F8083141E0F72387F872
:1014A000FB3007F1FB023B461146184614F094F955
:1014B000C7F80801D7F80831002B0FD02D4830F0BD
:1014C00083FB0246D7F80831009340F2E1332A4902
:1014D000022030F0BBFBD7F8083121E097F8FB2061
:1014E0003B4683F8F7203B4619462D4824F08EFAF8
:1014F000C7F80801D7F80831002B0FD01D4830F08D
:1015000063FB0246D7F80831009340F2E5331A49ED
:10151000022030F09BFBD7F8083101E0AD4623E014
:10152000AD4622E0154B1B6803F59572134B1B6803
:1015300093F821321946104614F0F6F8C7F808015E
:10154000D7F80831002B0FD00A4830F03DFB024697
:10155000D7F80831009340F2EA330749022030F00F
:1015600075FBD7F8083100E00023184607F58877A7
:10157000BD46B0BD887E0500547F0500D84A0020D6
:10158000967C0500E8830500E44A002008840500F5
:10159000F84A0020D87F05000C8405003884050037
:1015A0008C4A002000B585B00190019B1B686A4AF7
:1015B0001360019B5B68694A1360019B9B68684AE2
:1015C0001360FFF72DF90390039B002B06D0039ABD
:1015D0006449012030F00FFB039BB8E0624BD3F865
:1015E0008830614A43F47003C2F88830BFF34F8FEC
:1015F000BFF36F8F04215D48FEF70AFD0390039B44
:10160000002B06D0039A5A49012030F0F4FA039BCC
:101610009DE05849584800F00DFA0390039B002BB9
:1016200006D0039A5549012030F0E5FA039B8EE07D
:10163000504B1B681022A3F81120FFF7B7FC039052
:10164000039B002B06D0039A4D49012030F0D3FABA
:10165000039B7CE0FEF75EFD0390039B002B06D00E
:10166000039A4849012030F0C6FA039B6FE03B4BD8
:101670001A683B4B1B6819461046FFF7B1FD0390F3
:10168000039B002B06D0039A3F49012030F0B3FAA8
:10169000039B5CE0FFF71EFA0390039B002B06D030
:1016A000039A3A49012030F0A6FA039B4FE0FEF777
:1016B0001BFE0390039B002B06D0039A34490120A4
:1016C00030F099FA039B42E0032021F089FE039059
:1016D000039B002B06D0039A2E49012030F08BFA91
:1016E000039B34E02C4805F0FFFE0390039B002B86
:1016F00006D0039A2949012030F07DFA039B26E0A9
:10170000254830F061FA03461A462549132030F087
:1017100072FAFFF7C3FD0390039B002B06D0039AD8
:101720002049012030F067FA039B10E00A20FEF701
:101730000FFCFFF769FA0390039B002B06D0039A76
:101740001949012030F057FA039B00E000231846A6
:1017500005B05DF804FB00BF804A0020844A0020E9
:10176000884A00205084050000ED00E0F84A00207F
:101770008C840500D84A00206C7B0500D0840500CD
:101780000C8505004C85050088850500D48505007D
:10179000108605004C860500E44A00208C86050072
:1017A000C8860500DC8605001087050000B589B0F5
:1017B0000390039B1B78012B1AD0052B42D0002BE2
:1017C0004CD1039B5B68002B03D1344B01221A7070
:1017D00059E03349012030F0FDF900230793079BBE
:1017E000002B50D12F4A5D2100202CF003F84AE055
:1017F000039B5B68002B16D1039B9B89B3F5005FAD
:1018000043D1039B1B7C1A46039B9B891946039B70
:10181000DB8900930B462449032030F017FA234B51
:1018200001221A7031E02249012030F0D3F900235F
:101830000693069B002B28D11A4A6F2100202BF01B
:10184000D9FF22E0039B5B68002B20D119490320BC
:1018500030F0C0F9184B01221A7018E0039B1B7876
:101860001A46039B5B681549032030F0D8F9039BA7
:101870005B680593059B002B0BD00A4A7B210598DA
:101880002BF0B8FF05E000BF04E000BF02E000BF9E
:1018900000E000BF00BF09B05DF804FBAC4E0020C3
:1018A0004887050078870500C0870500AD4E0020F9
:1018B0000C8805003C880500AE4E002070880500AD
:1018C00000B58BB003901F49032030F083F9039BD0
:1018D000002B01D10E2331E040F2222203991A4855
:1018E00034F01AFF194B42221A60184B04938A23D2
:1018F000ADF814304FF40053ADF8183042F2010344
:10190000ADF81A3004AB07930123ADF8203006ABD5
:1019100019460F482FF01BF90990099B002B0CD09A
:101920000C4830F051F90246099B009398230A496C
:10193000022030F08BF9099B00E0002318460BB021
:101940005DF804FBA0880500884C0020844C002032
:10195000784C002078870500D488050000B58BB04E
:10196000039005AB08220021184634F0FEFE2B49F7
:10197000032030F02FF905AB294A42F201014FF460
:1019800000502FF053F90990099B002B0CD02548EB
:1019900030F01AF90246099B0093A923224902203C
:1019A00030F054F9099B34E007AB19461C482FF07E
:1019B00043F80990099B002B0CD01A4830F004F929
:1019C0000246099B0093AC231749022030F03EF9F0
:1019D000099B1EE0089B4FF40A721946134834F025
:1019E0009BFE0F482FF064F80990099B002B0CD048
:1019F0000C4830F0E9F80246099B0093B1230A49EC
:101A0000022030F023F9099B03E0039B084A1A6087
:101A1000002318460BB05DF804FB00BF28890500C1
:101A2000784C002078870500D4880500844C00207D
:101A3000884C002000B58BB0039002915B490320D5
:101A400030F0C8F8039B002B01D10E23A9E05848C1
:101A50002EF05CFF0990099B002B0CD0554830F00C
:101A6000B3F80246099B0093C2235349022030F089
:101A7000EDF8099B95E02EF069FF0990099B002B7A
:101A80000ED04C4830F0A0F80246099B0093C523C5
:101A90004949022030F0DAF8099B82E02CF02CF85A
:101AA000464B1B7883F00103DBB2002BF6D12FF0FD
:101AB00091F80990099B002B0ED03E4830F084F835
:101AC0000246099B0093CD233B49022030F0BEF82B
:101AD000099B66E02CF010F8394B1B7883F001036A
:101AE000DBB2002BF6D10298FFF738FF0990099B73
:101AF0000A2B45D13349032030F06CF840F2222202
:101B00000399314834F008FE304B42221A602F4BC3
:101B100004938A23ADF814304FF40053ADF8183015
:101B200042F20103ADF81A3004AB07930123ADF87C
:101B30002030274B00221A7006AB194625482EF09C
:101B4000F7FF0990099B002B0CD01A4830F03CF8A5
:101B50000246099B0093EB231749022030F076F8E8
:101B6000099B1EE0029B184A1A6001E02BF0C4FF9B
:101B7000174B1B7883F00103DBB2002BF6D10FE08B
:101B8000099B002B0CD00B4830F01EF80246099B35
:101B90000093F6230849022030F058F8099B00E032
:101BA000002318460BB05DF804FB00BF5889050000
:101BB000AD17020078870500D4880500AC4E0020E0
:101BC000AE4E002084890500884C0020844C002003
:101BD000AD4E0020784C002000B587B08DED030A93
:101BE0000290DDED037AFDEEE77ACDED017A9DF806
:101BF00004305AB2029B1A70029B93F9003007EE30
:101C0000903AF8EEE77A9DED037A77EE677ACDEDBC
:101C1000057ADDED057A9FED0D7A67EE877AFCEEA9
:101C2000E77ACDED017A9DF80430DAB2029B5A7062
:101C3000029B93F900301A46029B5B78044904200A
:101C40002FF0EDFF00BF07B05DF804FB0000C842B5
:101C5000E089050000B583B0034600918DF8073098
:101C6000009B9DF807201A709DF807301A4604491A
:101C700004202FF0C0FF00BF03B05DF804FB00BFDD
:101C8000288A050000B587B08DED030A0290DDEDCE
:101C9000037AFDEEE77A17EE902A029B1A60029B08
:101CA0001B6807EE903AF8EEE77A9DED037A77EE3F
:101CB000677ACDED057ADDED057A9FED0D7A67EE59
:101CC000877AFCEEE77ACDED017A9DF80430DAB23E
:101CD000029B1A71029B1B681A46029B1B790549DD
:101CE00004202FF09CFF00BF07B05DF804FB00BF8D
:101CF0000000C842708A050000B587B00190019BC2
:101D00001B78002B02D0012B14D021E0019B5B78C3
:101D1000012B1AD110F056FDF0EE407A03AB1846B5
:101D2000B0EE670AFFF7AEFF03AB19460A4822F090
:101D30009DFE0AE000230593059B002B07D1074A6F
:101D4000942100202BF056FD01E000BF00E000BF11
:101D500000BF07B05DF804FBB04E0020C08A05004C
:101D600000B58DB003468DF807309DF80730002B85
:101D700060D112F0D1FD8DED0B0A12F01BFD034670
:101D8000ADF82A3004AB18469DED0B0AFFF724FF8F
:101D9000BDF82A30DBB20DF10F0211461846FFF7ED
:101DA00059FF2B4B1B78002B14D0BDF82A309DED2A
:101DB0000B0A184600F05CFA0990099B0893089BEF
:101DC000002B04D0234AB12108982BF013FD204B9F
:101DD00000221A70204B1B78002B12D004AB19463E
:101DE0001E4822F003FE0990099B0793079B002BD6
:101DF00004D0184AB82107982BF0FCFC164B00229F
:101E00001A70174B1B78002B1ED00DF10F031946CB
:101E1000124822F06BFE0990099B0693069B002B4B
:101E200004D00C4ABF2106982BF0E4FC0C4B002296
:101E30001A7009E000230593059B002B04D1054A85
:101E4000C52100202BF0D6FC00BF0DB05DF804FBCF
:101E5000FA4E0020C08A0500F94E0020B04E002046
:101E6000F84E002000B585B00190019B002B15D0E5
:101E7000019B1B88ADF80C30019B5B88ADF80E30E0
:101E8000019B1B881A46019B5B88064904202FF0A2
:101E9000C6FE03AB1946044822F068FE00BF05B039
:101EA0005DF804FB0C8B0500B04E002000B587B038
:101EB000039000200AF006FF039B002B27D0039B12
:101EC0001B881946039B5B881846039B9B881A4610
:101ED000039BDB880193009203460A460E490420C7
:101EE0002FF0CDFE039B1B88ADF81030039B5B8861
:101EF000ADF81230039B9B88ADF81430039BDB8850
:101F0000ADF8163004AB1946044822F06FFE00BF4E
:101F100007B05DF804FB00BF508B0500B04E0020F9
:101F200000B585B001900A4B01221A7012F092FDA3
:101F30000390039B0293029B002B05D0054A4FF4AC
:101F4000847102982BF056FC00BF05B05DF804FBCD
:101F5000F94E0020C08A0500F0B585B0334B012250
:101F60001A70334B01221A7012F05EFB0390039B30
:101F7000002B0DD02F482FF027FE0246039B009325
:101F80004FF48B732C4902202FF060FE039B49E035
:101F900012F060FD0390039B002B0DD025482FF01D
:101FA00013FE0246039B009340F2191322490220BC
:101FB0002FF04CFE039B35E0204F214B1B681B8804
:101FC0009BB299B24FF000024FF000034FF00004B3
:101FD000D40344EA5144CB0313F5FA7544F10006E7
:101FE0004FF47A724FF000032846314633F058FF21
:101FF00003460C460022194638462CF0C7FB0390D6
:10200000039B002B0DD00B482FF0DEFD0246039BF7
:1020100000934FF48F73084902202FF017FE039BA3
:1020200000E00023184605B0F0BD00BFF94E0020C7
:10203000FD4E0020C08A05009C8B0500004F00204B
:10204000F04E002000B587B003468DF80F30194BD5
:1020500000221A70184B18462CF0CAFB0590059BFD
:10206000002B0DD015482FF0AFFD0246059B0093C5
:102070004FF49673124902202FF0E8FD059B14E0FF
:102080009DF80F30002B0FD00E4B00221A700E4B14
:102090001B7883F00103DBB2002B03D012F02EFB80
:1020A000034602E0002300E00023184607B05DF875
:1020B00004FB00BFF94E0020004F0020C08A05003D
:1020C0009C8B0500FD4E0020FC4E002000B585B025
:1020D000019010F0C7FB0390039B0293029B002B1F
:1020E00005D0054A40F24B1102982BF083FB00BF4C
:1020F00005B05DF804FB00BFC08A0500F0B585B0EF
:1021000010F050FA0390039B0293029B002B05D022
:102110001D4A4FF4AB7102982BF06CFB10F0A2FB40
:102120000390039B0193019B002B05D0164A40F2BC
:10213000591101982BF05EFB144F154B1B685B88FF
:102140009BB299B24FF000024FF000034FF0000431
:10215000D40344EA5144CB0313F5FA7544F1000665
:102160004FF47A724FF000032846314633F098FE60
:1021700003460C460022194638462CF007FB03465E
:10218000184605B0F0BD00BFC08A0500204F0020F2
:10219000F04E002000B585B00E4B18462CF028FB01
:1021A0000390039B002B0DD00B482FF00DFD024632
:1021B000039B009340F26913084902202FF046FD6B
:1021C000039B02E010F0A4FA0346184605B05DF840
:1021D00004FB00BF204F0020C08A05009C8B050037
:1021E00000B587B001900023ADF80A301C4B1B7876
:1021F000012B31D10DF10A03184600F07BF905904F
:10220000059B0493049B002B05D0164A4FF4BD7127
:1022100004982BF0EFFABDF80A30002B04D11249D4
:1022200002202FF0D7FC10E0BDF80A3018460CF061
:1022300085F90590059B0393039B002B05D0094A64
:1022400040F2831103982BF0D5FA054B02221A7045
:10225000064B18462CF0CCFA00BF07B05DF804FB23
:10226000FB4E0020C08A0500F08B0500804F002047
:1022700000B589B003468DED020AADF80E301E4B55
:102280001B78002B33D0BDF80E301A469200134451
:102290005B00ADF81E30DDED027A9FED187A67EE37
:1022A000877AFDEEE77A17EE903A0693BDF81E2086
:1022B000069B134904202FF0B2FCBDF81E3006998E
:1022C00018460CF05BF80590059B002B0DD00D48CF
:1022D0002FF07AFC0246059B00934FF4D3730A4912
:1022E00002202FF0B3FC059B02E0002300E0002356
:1022F000184609B05DF804FBFC4E002000007A444B
:10230000588C0500C08A05009C8B050000B585B07F
:10231000114B00221A70114B1B78002B13D112F0B5
:10232000EDF90390039B002B0DD00D482FF04CFCD2
:102330000246039B00934FF4E1730A4902202FF0F9
:1023400085FC039B04E0084B18462CF051FA034629
:10235000184605B05DF804FBFC4E0020FD4E002041
:10236000C08A05009C8B0500804F002000B585B019
:1023700001900A4B01221A7012F06CFB0390039B30
:102380000293029B002B05D0054A4FF4EA71029894
:102390002BF030FA00BF05B05DF804FBF84E0020CA
:1023A000C08A0500F0B585B02A4B01221A702A4B6D
:1023B00001221A7012F038F90390039B002B0DD004
:1023C00026482FF001FC0246039B009340F2E113E4
:1023D000234902202FF03AFC039B37E012F03AFB2E
:1023E0000390039B002B0DD01C482FF0EDFB024601
:1023F000039B00934FF4F273194902202FF026FC3F
:10240000039B23E0174F184B1B689B889BB299B224
:102410004FF000024FF000034FF00004D40344EAF1
:102420005144CB0313F5FA7544F100064FF47A7268
:102430004FF000032846314633F032FD03460C4688
:102440000022194638462CF0A1F90346184605B07B
:10245000F0BD00BFF84E0020FD4E0020C08A0500F0
:102460009C8B0500404F0020F04E002000B587B047
:1024700003468DF80F30194B00221A70184B18467E
:102480002CF0B6F90590059B002B0DD015482FF0C8
:102490009BFB0246059B009340F2F5131249022074
:1024A0002FF0D4FB059B14E09DF80F30002B0FD0CC
:1024B0000E4B00221A700E4B1B7883F00103DBB227
:1024C000002B03D012F01AF9034602E0002300E0CB
:1024D0000023184607B05DF804FB00BFF84E00204B
:1024E000404F0020C08A05009C8B0500FD4E002057
:1024F000FC4E002000B583B00190284B1B681B7A6E
:10250000032B43D801A252F823F000BF1D2502007F
:10251000392502005525020071250200204B1B6859
:102520001B889AB2019B1A80019B1B881A461D4981
:1025300004202FF060FB2BE0194B1B685B889AB2DC
:10254000019B1A80019B1B881A46174904202FF013
:1025500052FB1DE0124B1B689B889AB2019B1A80AC
:10256000019B1B881A46114904202FF044FB0FE001
:102570000B4B1B68DB889AB2019B1A80019B1B885E
:102580001A460B4904202FF036FB01E0082300E037
:102590000023184603B05DF804FB00BFF04E002096
:1025A000F44E0020B88C0500208D0500848D0500B8
:1025B000E88D050000B587B00346ADF80E30314B0D
:1025C0001B681B7A032B3FD801A252F823F000BFEF
:1025D000E1250200FB250200152602002F2602003D
:1025E000294B1B68BDF80E201A80BDF80E301A4624
:1025F000264904202FF0FFFA28E0234B1B68BDF882
:102600000E205A80BDF80E301A46214904202FF0C2
:10261000F2FA1BE01C4B1B68BDF80E209A80BDF837
:102620000E301A461B4904202FF0E5FA0EE0164B37
:102630001B68BDF80E20DA80BDF80E301A46164928
:1026400004202FF0D8FA01E0082317E00E4B1B6896
:10265000184600F0DDFF0590059B002B0DD00F48BC
:102660002FF0B2FA0246059B009340F24E230C492C
:1026700002202FF0EBFA059B00E00023184607B07C
:102680005DF804FBF04E0020F44E00204C8E050057
:10269000B08E0500108F0500748F0500C08A0500FC
:1026A0009C8B050000B585B0284B1B681B7A1A4629
:1026B000274904202FF09FFA244B1B681B7A032B19
:1026C0001AD801A252F823F0D9260200E12602000E
:1026D000E9260200F126020000238DF80F300FE0FA
:1026E00001238DF80F300BE002238DF80F3007E047
:1026F00003238DF80F3003E002238DF80F3000BF65
:102700009DF80F3018460BF08FFF0290029B002BB4
:102710000DD010482FF058FA0246029B009340F269
:102720006F230D4902202FF091FA029B0AE00B4B18
:1027300001221A700A4B00224FF0617118462CF0EA
:1027400025F80346184605B05DF804FBF04E00205E
:10275000D88F0500C08A05009C8B0500FB4E002029
:10276000804F002000B585B0274B1B78022B41D14C
:10277000FFF7CCFD0390039B002B0DD023482FF0D7
:1027800023FA0246039B009340F281232049022052
:102790002FF05CFA039B33E00DF10A0318460BF0AF
:1027A0005BFE0390039B002B0DD018482FF00CFA12
:1027B0000246039B00934FF42173154902202FF02A
:1027C00045FA039B1CE0BDF80A301846FFF7F2FEFD
:1027D0000390039B002B0DD00C482FF0F5F9024617
:1027E000039B009340F28723094902202FF02EFA21
:1027F000039B05E0044B00221A700CF0BDF8034661
:10280000184605B05DF804FBFB4E0020C08A0500A9
:102810009C8B050000B587B00190134B1B685B7A59
:102820008DF80C30104B1B689B7A8DF80D300E4BD9
:102830001B68DB7A8DF80E3003AB194600200AF0D6
:1028400093FA0CF0B5FF0590059B0493049B002BB5
:1028500005D0064A40F29F2104982AF0CBFF00BF22
:1028600007B05DF804FB00BFF04E0020C08A0500F1
:10287000F0B585B02B4B1B685B7A8DF80030294B87
:102880001B689B7A8DF80130264B1B68DB7A8DF82C
:1028900002306B46194600200AF066FA0CF0EAFF97
:1028A0000390039B0293029B002B05D01E4A40F22B
:1028B000AF2102982AF09EFF0CF07AFF0390039B51
:1028C0000193019B002B05D0174A40F2B2210198D9
:1028D0002AF090FF154F134B1B68DB889BB299B20F
:1028E0004FF000024FF000034FF00004D40344EA1D
:1028F0005144CB0313F5FA7544F100064FF47A7294
:102900004FF000032846314633F0CAFA03460C461E
:102910000022194638462BF039FF0346184605B009
:10292000F0BD00BFF04E0020C08A0500604F0020BF
:1029300000B585B0124B18462BF05AFF0390039B4D
:102940000293029B002B05D00E4A40F2BF21029851
:102950002AF050FF00200AF0B5F90DF061F803905D
:10296000039B0193019B002B05D0064A4FF4317164
:1029700001982AF03FFF0023184605B05DF804FBDC
:10298000604F0020C08A050000B585B00190019B12
:102990001B889BB2632B32D9019B1B889BB24EF6DE
:1029A000602293422BD8019B5B889BB2312B26D9A6
:1029B000019B5B889BB24EF6602293421FD8019B1D
:1029C0009B889BB2632B1AD9019B9B889BB24EF6C6
:1029D0006022934213D8019BDB889BB2C72B0ED990
:1029E000019BDB889BB24EF66022934207D8019B85
:1029F0001B7A002B03D0019B1B7A032B0ED90A48AC
:102A000000F04EFD0390039B0293029B002B05D028
:102A1000064A40F2DA2102982AF0ECFE002318461A
:102A200005B05DF804FB00BFB8890500C08A050049
:102A300000B589B00190019B002B01D10E236AE003
:102A40000020FFF7FFFAFFF7A5FB0120FFF70EFDBF
:102A5000FFF76EFF019B1B889BB2002B12D0304BFF
:102A600093F83630002B0DD0FFF776FA0790079BCE
:102A70000693069B002B05D02A4A40F2F3210698C4
:102A80002AF0B8FE019B5B889BB2002B12D0244B2E
:102A900093F83730002B0DD0FFF730FB0790079BE2
:102AA0000593059B002B05D01E4A40F2FA2105989C
:102AB0002AF0A0FE019B9B889BB2002B12D0184BE2
:102AC00093F83830002B0DD0FFF76CFC0790079B74
:102AD0000493049B002B05D0124A40F20131049864
:102AE0002AF088FE019BDB889BB2002B12D00C4B96
:102AF00093F83A30002B0DD0FFF7BAFE0790079BF2
:102B00000393039B002B05D0064A4FF442710398B0
:102B10002AF070FE0023184609B05DF804FB00BFE0
:102B2000B04E0020C08A050000B593B0039001921A
:102B30001A460B468DF80B301346ADF808309DF859
:102B40000B30052B00F2428101A252F823F000BFA6
:102B5000692B0200E12B02003B2C0200B32C020087
:102B6000092D02005F2D0200039B93F836301A46B0
:102B70009F4904202FF03FF8039B93F83630002B39
:102B80000FD0FFF7E9F91190119B1093109B002BC8
:102B900000F01E81974A40F2273110982AF02AFE51
:102BA00016E1039B93F83830002B14BF0123002358
:102BB000DBB283F00103DBB203F00103DBB21846A2
:102BC000FFF740FA1190119B0F930F9B002B00F021
:102BD000FF80884A4FF44B710F982AF00BFEF7E004
:102BE000039B93F837301A46834904202FF003F8EB
:102BF000039B93F83730002B0FD0FFF77FFA11902B
:102C0000119B0E930E9B002B00F0E480794A40F25A
:102C100035310E982AF0EEFDDCE0FFF7BBFA11909B
:102C2000119B0D930D9B002B00F0D480714A40F254
:102C30003A310D982AF0DEFDCCE0039B93F8383052
:102C40001A466E4904202EF0D6FF039B93F83830C5
:102C5000002B0FD0FFF7A6FB1190119B0C930C9B40
:102C6000002B00F0B980634A40F243310C982AF0FF
:102C7000C1FDB1E0039B93F83630002B14BF012354
:102C80000023DBB283F00103DBB203F00103DBB20C
:102C90001846FFF7EBFB1190119B0B930B9B002B3E
:102CA00000F09A80534A4FF452710B982AF0A2FD1B
:102CB00092E0039B93F839301A46514904202EF0D4
:102CC0009AFF039B93F83930002B0ED0FFF7EAFCF4
:102CD0001190119B0A930A9B002B7FD0454A40F22A
:102CE00051310A982AF086FD78E0FFF73BFD1190FC
:102CF000119B0993099B002B70D03E4A40F256313C
:102D000009982AF077FD69E0039B93F83A301A4658
:102D10003C4904202EF06FFF039B93F83A30002BC0
:102D20000ED0FFF7A5FD1190119B0893089B002B77
:102D300056D0304A40F25F3108982AF05BFD4FE0F0
:102D4000FFF7F6FD1190119B0793079B002B47D0CF
:102D5000284A4FF4597107982AF04CFD40E0BDF81D
:102D600008301A46284904202EF045FFBDF80830E7
:102D70000C2B0CBF01230023DBB20693069B002B18
:102D800005D11C4A40F26B3100202AF033FD019836
:102D900000F086FB1190119B0593059B002B05D03D
:102DA000144A40F26E3105982AF024FD0198FFF78D
:102DB0003FFE1190119B0493049B002B12D00D4AEF
:102DC00040F2713104982AF015FD0BE000BF0AE0D3
:102DD00000BF08E000BF06E000BF04E000BF02E063
:102DE00000BF00E000BF00BF13B05DF804FB00BFF0
:102DF0000C900500C08A05005C900500A8900500B5
:102E0000F49005003C9105008491050000B597B051
:102E100003468DF80F3000238DF8483000238DF8DD
:102E200049300023109300238DF8443000238DF89F
:102E30003F300DAB00221A605A600023ADF83030ED
:102E40000023ADF83230464B464A4749474800F028
:102E500097FC1590159B002B0DD045482EF0B4FE25
:102E60000246159B009340F28E33424902202EF019
:102E7000EDFE159B6FE09DF80F30002B1DD03B48F9
:102E800000F00EFB1590159B1493149B002B05D09E
:102E9000374A40F2933114982AF0ACFC314800F0E4
:102EA000B7FB1590159B1393139B002B05D0304A4D
:102EB00040F2963113982AF09DFC2B4B1B68184664
:102EC000FFF762FD1590159B002B0DD028482EF0C2
:102ED0007BFE0246159B009340F29A33254902205F
:102EE0002EF0B4FE159B36E005AB1C2200211846DF
:102EF00033F03BFC12AB059310AB06930DF13F038F
:102F000007930DAB09930CAB0893174B1B680A93FF
:102F1000194B0B93194903202EF05CFE05AB1946A3
:102F2000174821F0D9FC1590159B002B0DD01048A7
:102F30002EF04AFE0246159B00934FF46A730D492A
:102F400002202EF083FE159B05E0074B1B681846F8
:102F5000FFF76EFD0023184617B05DF804FB00BFB5
:102F6000F44E0020C4890500F04E0020B889050009
:102F7000C08A05009C8B0500292B0200D09105001A
:102F8000B04E002000B585B0019001990C4821F0A9
:102F900072FC019B1B88112B0DD100F0B1F803903E
:102FA000039B0293029B002B05D0064A40F2BE31E0
:102FB00002982AF01FFC00BF05B05DF804FB00BFBB
:102FC000B04E0020C08A050000B589B001900023F2
:102FD00007935F238DF8083018230393019B049314
:102FE000064B0593064B069302AB184611F02CFADC
:102FF0000790079B184609B05DF804FB2492050072
:10300000611D020000B589B001905C238DF8083085
:1030100017230393019B0493074B0593074B0693D8
:1030200001238DF81C3002AB18460FF023FA03463B
:10303000184609B05DF804FB34920500F91C020043
:1030400000B58BB00390039B0593114B06935A2355
:103050008DF81C300F4B089305AB18460BF090FD14
:103060000990099B002B0DD00B482EF0ADFD0246B8
:10307000099B009340F20A43084902202EF0E6FD26
:10308000099B00E0002318460BB05DF804FB00BF6D
:1030900044920500651E0200C08A05009C8B050055
:1030A00000B58BB00390039B0593114B0693382317
:1030B0008DF81C300F4B089305AB18460CF0DEFA68
:1030C0000990099B002B0DD00B482EF07DFD024688
:1030D000099B009340F22343084902202EF0B6FDDD
:1030E000099B00E0002318460BB05DF804FB00BF0D
:1030F00054920500AD1E0200C08A05009C8B05009D
:1031000000B587B00020FEF79DFF0590059B049356
:10311000049B002B05D0224A40F2344104982AF047
:1031200069FBFFF737F80590059B0393039B002B82
:1031300005D01B4A40F2374103982AF05BFB01207F
:10314000FFF794F90590059B0293029B002B05D095
:10315000134A40F23A4102982AF04CFBFFF7E8FB91
:103160000590059B0193019B002B05D00C4A40F272
:103170003D4101982AF03EFBFFF7F4FA0590059BCC
:103180000093009B002B05D0054A4FF488610098FE
:103190002AF030FB0023184607B05DF804FB00BF9F
:1031A000C08A050000B58DB003900291039B002BEF
:1031B00001D10E23BAE0029B002B01D10E23B5E012
:1031C0005C4903202EF006FD039B5B4A5A60039B7B
:1031D0005A4A1A60029B1B681846FFF713FF0B90B0
:1031E0000B9B0A930A9B002B05D0554A40F2544191
:1031F0000A982AF0FFFA029B1B681846FFF7E4FEC4
:103200000B900B9B0993099B002B05D04C4A40F275
:10321000574109982AF0EEFA029B1B681846FFF7FF
:103220000FFF0B900B9B0893089B002B05D0444A83
:1032300040F25A4108982AF0DDFA029B1B681846B2
:10324000FFF72EFF0B900B9B0793079B002B05D0DE
:103250003B4A40F25D4107982AF0CCFA394A0121F5
:1032600039482BF063FA0B900B9B0693069B002BBF
:1032700005D0334A40F2614106982AF0BBFA334A3E
:10328000012133482BF052FA0B900B9B0593059BC1
:10329000002B05D02A4A40F2644105982AF0AAFA88
:1032A0002C4A01212C482BF041FA0B900B9B002B50
:1032B0000DD023482EF088FC02460B9B009340F271
:1032C0006743264902202EF0C1FC0B9B2EE0244AC6
:1032D000012124482BF02AFA0B900B9B002B0DD0D8
:1032E00017482EF071FC02460B9B009340F26A4394
:1032F0001A4902202EF0AAFC0B9B17E01A4A012162
:103300001A482BF013FA0B900B9B002B0DD00C4896
:103310002EF05AFC02460B9B009340F26D430F497E
:1033200002202EF093FC0B9B00E0002318460DB00A
:103330005DF804FB00920500852F02000D2E0200AF
:10334000C08A0500211F0200CC890500CD200200A3
:10335000D08905006D230200D48905009C8B0500EF
:1033600015280200D8890500E1210200DC8905004A
:1033700000B589B00390039B1B78002B02D0012B72
:103380001AD05BE0039B5B68002B06D13A4B01220D
:103390001A703A4B01221A7065E0394901202EF06B
:1033A00019FC00230793079B002B5CD1354A72213F
:1033B00000202AF01FFA56E0039B5B68002B2ED1F9
:1033C000039B9B8941F20102934210D1039B1B7C1A
:1033D0001A46039B9B891946039BDB8900930B4686
:1033E000294903202EF032FC284B01221A70039B3E
:1033F0009B8941F20302934237D1039B1B7C1A46FF
:10340000039B9B891946039BDB8900930B4620494C
:1034100003202EF01BFC1F4B01221A7025E01E49D1
:1034200001202EF0D7FB00230693069B002B1CD116
:10343000144A8C2100202AF0DDF916E0039B1B784A
:103440001A46039B5B68154903202EF0E8FB039B9B
:103450005B680593059B002B09D00A4A91210598CA
:103460002AF0C8F903E000BF02E000BF00E000BF9F
:1034700000BF09B05DF804FBD54F0020D74F0020F6
:103480006492050094920500E4920500D44F002058
:1034900034930500D64F002088930500B8930500AB
:1034A00000B58BB003901F4903202EF093FB039BC4
:1034B000002B01D10E2330E00C2203991A4833F07F
:1034C0002BF91A4B42221A60184B04930423ADF8CF
:1034D000143041F20103ADF8183041F20203ADF8A7
:1034E0001A3004AB07930123ADF8203006AB194620
:1034F0000F482DF02CFB0990099B002B0CD00D4898
:103500002EF062FB0246099B0093AE230A4902207B
:103510002EF09CFB099B00E0002318460BB05DF8E1
:1035200004FB00BFE8930500BC4F0020B84F00200B
:10353000A04F0020949205001894050000B58BB0B0
:10354000039005AB08220021184633F00EF92A49F2
:1035500003202EF03FFB05AB284A41F2020141F265
:1035600001002DF063FB0990099B002B0CD024482F
:103570002EF02AFB0246099B0093BF23214902201B
:103580002EF064FB099B33E007AB19461B482DF076
:1035900053FA0990099B002B0CD019482EF014FB0C
:1035A0000246099B0093C223164902202EF04EFBCF
:1035B000099B1DE0089B10221946134833F0ACF814
:1035C0000E482DF075FA0990099B002B0CD00C4881
:1035D0002EF0FAFA0246099B0093C72309490220FC
:1035E0002EF034FB099B03E0039B084A1A6000237A
:1035F00018460BB05DF804FB6C940500A04F00204A
:103600009492050018940500B84F0020BC4F00208C
:1036100000B58BB003901F4904202EF0DBFA039B0A
:10362000002B01D10E2330E0082203991A4833F011
:1036300073F81A4B42221A60184B04930323ADF817
:10364000143041F20303ADF8183041F20403ADF831
:103650001A3004AB07930123ADF8203006AB1946AE
:103660000F482DF074FA0990099B002B0CD00D48DF
:103670002EF0AAFA0246099B0093E6230A4902208B
:103680002EF0E4FA099B00E0002318460BB05DF829
:1036900004FB00BF9C940500CC4F0020C84F0020C5
:1036A000AC4F0020949205001894050000B58BB033
:1036B000039005AB08220021184633F056F82A493A
:1036C00004202EF087FA05AB284A41F2040141F2AA
:1036D00003002DF0ABFA0990099B002B0CD0244875
:1036E0002EF072FA0246099B0093F723214902202B
:1036F0002EF0ACFA099B33E007AB19461B482DF0BE
:103700009BF90990099B002B0CD019482EF05CFA0C
:103710000246099B0093FA23164902202EF096FADE
:10372000099B1DE0089B0C221946134832F0F4FF58
:103730000E482DF0BDF90990099B002B0CD00C48C8
:103740002EF042FA0246099B0093FF23094902200A
:103750002EF07CFA099B03E0039B084A1A600023C1
:1037600018460BB05DF804FBCC940500AC4F00206C
:103770009492050018940500C84F0020CC4F0020FB
:1037800000B593B005900491039202938D490320F4
:103790002EF020FA059B002B01D10E230DE1039B97
:1037A000002B01D10E2308E187482DF0AFF81190CE
:1037B000119B002B0DD085482EF006FA0246119B76
:1037C00000934FF48A73824902202EF03FFA119B36
:1037D000F3E02DF0BBF81190119B002B0FD07B482C
:1037E0002EF0F2F90246119B009340F2171378492C
:1037F00002202EF02BFA119BDFE02AF07DF9754BA9
:103800001B7883F00103DBB2002BF6D1724B1B78DF
:1038100083F00103DBB2002BEFD10498FFF78EFE9B
:103820001190119B0A2B45D16C4903202EF0D2F93F
:103830000C2205996A4832F06FFF6A4B42221A60E7
:10384000684B0C930423ADF8343041F20103ADF81A
:10385000383041F20203ADF83A300CAB0F9301233C
:10386000ADF84030604B00221A700EAB19465F482D
:103870002DF05EF91190119B002B0DD053482EF0C6
:10388000A3F90246119B009340F2351350490220E0
:103890002EF0DCF9119B90E0049B514A1A6001E084
:1038A0002AF02AF9504B1B7883F00103DBB2002B7E
:1038B000F6D110E0119B002B0DD044482EF084F976
:1038C0000246119B00934FF4A073414902202EF051
:1038D000BDF9119B71E00298FFF7E8FE1190119B72
:1038E0000A2B58D1039B1B889BB21946039B5B880C
:1038F0009BB21846039B9B889BB21A46039BDB88AE
:103900009BB20193009203460A46394903202EF0E8
:10391000B6F908220399374832F0FEFE364B4222B0
:103920001A60354B07930323ADF8203041F20303AF
:10393000ADF8243041F20403ADF8263007AB0A930A
:103940000123ADF82C302D4B00221A7009AB19461B
:103950002B482DF0EDF81190119B002B0DD01B483A
:103960002EF032F90246119B00934FF4AD731849C3
:1039700002202EF06BF9119B1FE0029B1D4A1A607A
:1039800001E02AF0B9F81D4B1B7883F00103DBB28C
:10399000002BF6D110E0119B002B0DD00B482EF020
:1039A00013F90246119B009340F265130849022067
:1039B0002EF04CF9119B00E00023184613B05DF87F
:1039C00004FB00BFF89405007133020094920500D7
:1039D00018940500D54F0020D74F002024950500EE
:1039E000BC4F0020B84F0020D44F0020A04F002033
:1039F00058950500CC4F0020C84F0020D64F00201E
:103A0000AC4F002000B589B00190019B002B01D183
:103A10000E2327E0019B1B889BB2ADF80C30019B65
:103A20005B889BB2ADF80E30019B9B889BB2ADF8D2
:103A30001030019BDB889BB2ADF81230019B1B7AE2
:103A40008DF8143003AB18460EF064F80790079B0E
:103A50000693069B002B04D0044A4C21069829F0BB
:103A6000C9FE0023184609B05DF804FBC0950500A7
:103A700000B59BB0039001921A460B468DF80B30AF
:103A80001346ADF808309DF80B300B2B00F2138273
:103A900001A252F823F000BF4F3E0200C93A0200D3
:103AA000273B0200853B0200DF3B02003D3C020059
:103AB000973C0200F13C02004B3D0200C93D020070
:103AC0001F3E0200313E0200039B93F866301A4607
:103AD000B44903202EF08FF8039B93F86630002B37
:103AE00010D04FF480700DF065FE1990199B18935B
:103AF000189B002B00F0E181AB4A6021189829F057
:103B000079FEDAE14FF480700DF07CFF1990199B7B
:103B10001793179B002B00F0D081A34A65211798BB
:103B200029F068FEC9E1039B93F867301A469F4964
:103B300003202EF060F8039B93F86730002B10D021
:103B40004FF400700DF036FE1990199B1693169BDA
:103B5000002B00F0B481944A6E21169829F04AFE99
:103B6000ADE14FF400700DF04DFF1990199B1593C6
:103B7000159B002B00F0A3818B4A7321159829F027
:103B800039FE9CE1039B93F868301A46884903206C
:103B90002EF031F8039B93F86830002B0FD00820EB
:103BA0000DF008FE1990199B1493149B002B00F044
:103BB00088817D4A7C21149829F01CFE81E108202F
:103BC0000DF020FF1990199B1393139B002B00F00D
:103BD0007881754A8121139829F00CFE71E1039BCD
:103BE00093F869301A46734903202EF004F8039BBA
:103BF00093F86930002B10D04FF480600DF0DAFD9F
:103C00001990199B1293129B002B00F05C81664A5D
:103C10008A21129829F0EEFD55E14FF480600DF0F5
:103C2000F1FE1990199B1193119B002B00F04B8111
:103C30005D4A8F21119829F0DDFD44E1039B93F843
:103C40006A301A465C4903202DF0D5FF039B93F898
:103C50006A30002B0FD007200DF0ACFD1990199B96
:103C60001093109B002B00F030814F4A9821109840
:103C700029F0C0FD29E107200DF0C4FE1990199B21
:103C80000F930F9B002B00F02081474A9D210F9836
:103C900029F0B0FD19E1039B93F86B301A464749B0
:103CA00003202DF0A8FF039B93F86B30002B0FD05F
:103CB00010200DF07FFD1990199B0E930E9B002B89
:103CC00000F00581384AA6210E9829F093FDFEE008
:103CD00010200DF097FE1990199B0D930D9B002B52
:103CE00000F0F580304AAB210D9829F083FDEEE01D
:103CF000039B93F86C301A46314903202DF07BFF6B
:103D0000039B93F86C30002B0FD020200DF052FD58
:103D10001990199B0C930C9B002B00F0DA80224A1F
:103D2000B4210C9829F066FDD3E020200DF06AFE46
:103D30001990199B0B930B9B002B00F0CA801A4A19
:103D4000B9210B9829F056FDC3E0039B93F86D3021
:103D50001A461C4903202DF04EFF039B93F86D304B
:103D6000002B0FD040200DF025FD1990199B0A93D0
:103D70000A9B002B00F0AF800B4AC2210A9829F061
:103D800039FDA8E040200DF03DFE1990199B0993E4
:103D9000099B002B00F09F80034AC721099829F056
:103DA00029FD98E008960500C09505005496050089
:103DB000A8960500F4960500449705009097050025
:103DC000DC9705002C980500039B93F86E301A468B
:103DD000454903202DF00FFF039B93F86E30002B15
:103DE0000ED080200DF0E6FC1990199B0893089BDB
:103DF000002B72D03D4AD021089829F0FBFC6CE0E2
:103E000080200DF0FFFD1990199B0793079B002B55
:103E100063D0364AD521079829F0ECFC5DE0039B7E
:103E200093F86F301A46324903202DF0E4FE57E034
:103E3000BDF80830039A0199184603F0ABFEBDF8AF
:103E400008301A460021019832F08FFC48E0BDF896
:103E500008301A46274903202DF0CDFEBDF8083062
:103E6000092B0CBF01230023DBB20693069B002B1A
:103E700004D11E4AF021002029F0BCFC019800F07A
:103E800031FF1990199B0593059B002B04D0174A0D
:103E9000F321059829F0AEFC0198FFF7B3FD1990C6
:103EA000199B0493049B002B19D0104AF621049807
:103EB00029F0A0FC13E000BF12E000BF10E000BF3B
:103EC0000EE000BF0CE000BF0AE000BF08E000BF4A
:103ED00006E000BF04E000BF02E000BF00E000BF5A
:103EE00000BF1BB05DF804FB7C980500C095050081
:103EF000CC9805001C99050000B589B003468DF8E3
:103F00000F303249324800F0A5FF0790079B002B85
:103F10000DD030482DF058FE0246079B009340F22A
:103F20000D132D4902202DF091FE079B49E09DF8CD
:103F30000F30002B0ED0264800F0D4FE0790079BD0
:103F40000693069B002B05D0224A4FF489710698F0
:103F500029F050FC1D4B1B681846FFF753FD0790D6
:103F6000079B002B0DD01B482DF02EFE0246079B11
:103F700000934FF48B73184902202DF067FE079BC6
:103F80001FE004AB08220021184632F0EEFB0F4B75
:103F90001B680493114B0593114903202DF01AFE61
:103FA00004AB19460F4823F085FC0790079B002BB4
:103FB00006D0079A0C4901202DF01DFE079B00E05A
:103FC0000023184609B05DF804FB00BF54500020E0
:103FD000B4950500C09505006C990500713A020082
:103FE000C0990500D84F0020009A050000B585B0A3
:103FF000019001990D4823F02DFC019B1B88112B8A
:104000000FD140F6FF700DF0FDFC0390039B02936F
:10401000029B002B05D0064A40F23711029829F086
:10402000E9FB00BF05B05DF804FB00BFD84F0020DE
:10403000C09505002DE9F047BAB002AFF860B9604D
:104040007A60FB681B78082B00F2718501A252F898
:1040500023F000BF794002002D4502008545020093
:104060000F4602009B480200EB480200174A02007C
:104070006D4A0200DD4A02007B68242B0CBF01233D
:104080000023DBB2C7F8D830D7F8D830002B05D1E1
:104090001F4A4FF4A171002029F0ACFBBB68C7F8A0
:1040A000D430002387F8DD3064E097F8DD309B00E2
:1040B000D7F8D42013441B681B14A7F8D23097F804
:1040C000DD30144A32F91330B7F9D2209A4225DB99
:1040D00097F8DD10B7F9D20097F8DD300D4A32F9C4
:1040E0001330009303460A460B4902202DF0AEFD23
:1040F00097F8DD30074A32F91330194697F8DD306A
:104100009B00D7F8D42013440A041A602DE000BFA6
:10411000C0950500349F05002C9A050097F8DD3006
:10412000C54A32F91330B7F9D2209A421DDA97F80E
:10413000DD10B7F9D20097F8DD30BF4A32F91330FD
:10414000009303460A46BD4902202DF07FFD97F8F3
:10415000DD30B94A32F91330194697F8DD309B004B
:10416000D7F8D42013440A041A6097F8DD300133DD
:1041700087F8DD3097F8DD30082B96D9D7F8D430A2
:104180001B689B111BB2A7F86430D7F8D4300433F6
:104190001B689B111BB2A7F86630D7F8D4300833E0
:1041A0001B689B111BB2A7F86830D7F8D4300C33CA
:1041B0001B68DB121BB2A7F86A30D7F8D430103373
:1041C0001B68DB121BB2A7F86C30D7F8D43014335D
:1041D0001B68DB121BB2A7F86E30D7F8D430183347
:1041E0001B681B139BB25B429BB21BB2A7F87230D9
:1041F000D7F8D4301C331B681B131BB2A7F87030E0
:10420000D7F8D43020331B681B131BB2A7F87430C7
:104210008B4904202DF0DEFCD7F8D4301B681846FB
:104220002FF04EFC03460C46C7E932344FF0000233
:10423000844BD7E932012FF0D3FF03460C46C7E980
:10424000323407F15C00D7E932237F4932F098F825
:1042500007F15C0318462DF0B7FC03461A467B496C
:1042600004202DF0C8FCD7F8D43004331B6818465E
:104270002FF026FC03460C46C7E932344FF000020B
:10428000704BD7E932012FF0ABFF03460C46C7E96C
:10429000323407F15C00D7E932236B4932F070F811
:1042A00007F15C0318462DF08FFC03461A46684957
:1042B00004202DF0A0FCD7F8D43008331B68184632
:1042C0002FF0FEFB03460C46C7E932344FF00002E4
:1042D0005C4BD7E932012FF083FF03460C46C7E958
:1042E000323407F15C00D7E93223574932F048F8FD
:1042F00007F15C0318462DF067FC03461A46554942
:1043000004202DF078FCD7F8D4300C331B68184605
:104310002FF0D6FB03460C46C7E932344FF00002BB
:10432000484BD7E932012FF05BFF03460C46C7E943
:10433000323407F15C00D7E93223434932F020F8E8
:1043400007F15C0318462DF03FFC03461A4642492C
:1043500004202DF050FCD7F8D43010331B681846D9
:104360002FF0AEFB03460C46C7E932344FF0000293
:10437000344BD7E932012FF033FF03460C46C7E92F
:10438000323407F15C00D7E932232F4931F0F8FFCE
:1043900007F15C0318462DF017FC03461A462F4917
:1043A00004202DF028FCD7F8D43014331B681846AD
:1043B0002FF086FB03460C46C7E932344FF000026B
:1043C000204BD7E932012FF00BFF03460C46C7E91B
:1043D000323407F15C00D7E932231B4931F0D0FFBA
:1043E00007F15C0318462DF0EFFB03461A461C4903
:1043F00004202DF000FCD7F8D4301C331B6818467D
:104400002FF05EFB03460C46C7E932344FF0000242
:104410000C4BD7E932012FF0E3FE03460C46C7E907
:10442000323407F15C00D7E93223074931F0A8FFA5
:1044300007F15C03184615E0489F0500789A0500CF
:10444000C49A05000000F040F49A0500FC9A0500AB
:104450002C9B05005C9B05008C9B0500C09B050008
:10446000F49B05002DF0B0FB03461A46BC4904201E
:104470002DF0C1FBD7F8D43018331B6818462FF045
:104480001FFB03460C461A46C7F8C82084F00043B9
:10449000C7F8CC304FF00002B24BD7E932012FF011
:1044A0009FFE03460C46C7E9323407F15C00D7E9AA
:1044B0003223AD4931F064FF07F15C0318462DF05B
:1044C00083FB03461A46A94904202DF094FBD7F834
:1044D000D43020331B6818462FF0F2FA03460C46FE
:1044E000C7E932344FF000029E4BD7E932012FF07A
:1044F00077FE03460C46C7E9323407F15C00D7E982
:104500003223994931F03CFF07F15C0318462DF046
:104510005BFB03461A46964904202DF06CFB07F11D
:1045200064031946934823F0B1FB05E37B68102B25
:104530000CBF01230023DBB2C7F8C430D7F8C43066
:10454000002B05D18C4A40F2BF11002029F052F90E
:10455000BB68C7F8C030D7F8C0301B68FB64D7F819
:10456000C0305B683B65D7F8C0309B687B65D7F887
:10457000C030DB68BB6507F14C0319467D4823F06A
:10458000FFFAD9E27B680C2B0CBF01230023DBB2BE
:10459000C7F8BC30D7F8BC30002B05D1764A40F2C2
:1045A000E111002029F026F9BB68C7F8B830D7F828
:1045B000B8301B683B64D7F8B8305B687B64D7F8C9
:1045C000B8309B68BB643B6C002B02DA03F57F4379
:1045D000FF331B141A467B6C002B02DA03F57F4372
:1045E000FF331B141946BB6C002B02DA03F57F4323
:1045F000FF331B1400930B46604904202DF026FB6B
:1046000007F1400319465B4823F083FB94E26B46B5
:104610009A467B68242B0CBF01230023DBB2C7F82A
:10462000B430D7F8B430002B05D1534A4FF4F971A8
:10463000002029F0DFF8BB68C7F8B030D7F8B030F9
:104640001B681B141BB2BB85D7F8B03004331B6842
:104650001B141BB2FB85D7F8B03008331B681B1442
:104660001BB23B86D7F8B0300C331B681B141BB24F
:104670007B86D7F8B03010331B681B141BB2BB8687
:10468000D7F8B03014331B681B141BB2FB86D7F865
:10469000B03018331B681B141BB23B87D7F8B030FF
:1046A0001C331B681B141BB27B87D7F8B030203338
:1046B0001B681B141BB2BB87314B1B78013BC7F82F
:1046C000AC302F4B1B78D9B24FF000020B4614468A
:1046D00013EB030844EB040943464C465B1842EBDA
:1046E00004044FF000014FF00002220142EA13726D
:1046F00019010B461446224B1B781A4613465B00E1
:1047000013445B001E4B1B78D9B24FF000020B46DE
:104710001446DD1844EB04062B4634465B1842EB86
:1047200004044FF000014FF00002220142EA13722C
:1047300019010B461446124B1B781A4613465B00B0
:1047400013445B000733DB08DB00ADEB030D02AB6A
:104750000033C7F8A830002387F8DE3038E000BF08
:10476000289C05000000F040F49A0500589C0500C4
:10477000889C0500D84F0020C0950500B89C050016
:104780005A9F050097F8DE309B00D7F8B0201344FD
:104790001B6818462FF094F94FF00002C24B2FF01F
:1047A0001FFD03460C46C7E9283497F8DE20134660
:1047B0005B0013445B00D7F8A820D018D7E9282362
:1047C000BA4931F0DDFD97F8DE30013387F8DE308D
:1047D000B74B1B7897F8DE209A42D3D3B549042013
:1047E0002DF0F8F9D7F8A83018462DF0EDF9044669
:1047F000D7F8A830063318462DF0E6F90546D7F865
:10480000A8300C3318462DF0DFF9034600932B46F1
:104810002246A94904202DF019FAD7F8A8301233FE
:1048200018462DF0D1F90446D7F8A83018331846A9
:104830002DF0CAF90546D7F8A8301E3318462DF0DA
:10484000C3F9034600932B4622469B4904202DF0D2
:10485000FDF9D7F8A830243318462DF0B5F90446F1
:10486000D7F8A8302A3318462DF0AEF90546D7F808
:10487000A830303318462DF0A7F9034600932B4695
:1048800022468D4904202DF0E1F907F12C03194649
:104890008A4823F081FAD5464EE17B68042B0CBF91
:1048A00001230023DBB2C7F89C30D7F89C30002BE3
:1048B00005D1834A40F21721002028F09BFFBB68F6
:1048C0001B68BB62BB6A002B02DA03F57F43FF3330
:1048D0001B141A467B4904202DF08DF907F128039B
:1048E0001946764823F09BFA26E16B461D467B6805
:1048F0000C2B0CBF01230023DBB2C7F89830D7F88C
:104900009830002B05D16E4A40F22221002028F079
:1049100071FFBB68C7F89430D7F894301B68FB610F
:10492000D7F894305B683B62D7F894309B687B6221
:10493000654B1B78013BC7F89030634B1B78D9B2AD
:104940004FF000024FF000034FF00004940144EADE
:1049500091648B015C4B1B78D9B24FF000024FF091
:1049600000034FF00004940144EA91648B01564B1C
:104970001B78DB000733DB08DB00ADEB030D02AB7C
:104980000033C7F88C30002387F8DF301AE097F83F
:10499000DF30DB00D7F88C20D41897F8DF309B008D
:1049A000D7F8942013441B6818462FF0C5F9024627
:1049B0000B464649204631F0E3FC97F8DF300133DF
:1049C00087F8DF30404B1B7897F8DF209A42DED320
:1049D000D7F88C3018462DF0F7F80446D7F88C300D
:1049E000083318462DF0F0F80646D7F88C3010330F
:1049F00018462DF0E9F80346009333462246344921
:104A000004202DF023F907F11C0319462B4823F04D
:104A10004AFAAD4690E07B68022B0CBF01230023CD
:104A2000DBB2C7F88830D7F88830002B05D1244A8C
:104A300040F23F21002028F0DDFEBB68C7F884303B
:104A4000D7F884301B783B76D7F884305B787B7658
:104A50007B7E1A463B7E1F4904202DF0E0F807F1CB
:104A600018031946154823F005F865E07B68012B0B
:104A70000CBF01230023DBB2C7F88030D7F88030A9
:104A8000002B05D10E4A4FF41471002028F0B2FE1D
:104A9000BB681B781A46104904202DF0ACF8B968A1
:104AA000064823F02AF847E00000D0411C9D05008D
:104AB0005A9F0500249D0500589D0500D84F0020F1
:104AC000C0950500809D05005B9F0500C09D050009
