:020000021000EC
:10F000000000012033F10100D9F00100DBF0010024
:10F01000DDF00100DFF00100E1F001000000000080
:10F02000000000000000000000000000E3F001000C
:10F03000E5F0010000000000E7F00100E9F0010048
:10F0400079B10400EDF00100EFF00100D9A4040053
:10F05000F3F00100D9200500E193040059B4040045
:10F06000FBF00100FDF00100FFF0010001F10100E3
:10F0700003F101003DC3040007F1010009F10100A3
:10F080000BF1010059D904000FF1010011F1010049
:10F0900099D9040015F10100610C050019F1010076
:10F0A0001BF101001DF10100E5C40400411E050033
:10F0B000F1AD0400F5BE04000000000000000000F7
:10F0C00027F1010029F101002BF101002DF10100D0
:08F0D0002FF1010031F10100F4
:10F0D800FEE7FEE7FEE7FEE7FEE7FEE7FEE7FEE700
:10F0E800FEE7FEE7FEE7FEE7FEE7FEE7FEE7FEE7F0
:10F0F800FEE7FEE7FEE7FEE7FEE7FEE7FEE7FEE7E0
:10F10800FEE7FEE7FEE7FEE7FEE7FEE7FEE7FEE7CF
:10F11800FEE7FEE7FEE7FEE7FEE7FEE7FEE7FEE7BF
:10F12800FEE7FEE7FEE7FEE7FEE70348854600F058
:10F13800C5F800F003B87047000001203749384887
:10F148000A1A02D0072291438D46364936480A1AD0
:10F1580006D00722914381F30988022282F314889A
:10F1680032483349334A00F048F833483349344A7F
:10F1780000F043F833483449344A00F03EF8344844
:10F188003449354A00F039F834483549354A00F0F1
:10F1980034F835483549364A00F02FF835483649AD
:10F1A800364A00F02AF836483649374A00F025F83A
:10F1B80036483749002200F02BF8364836490022F5
:10F1C80000F026F835483649091A082903DB0022D9
:10F1D8000260043001601F481F49884205D0026858
:10F1E800043003B4904703BCF7E700208646EC469A
:10F1F800002000212B4A9047FEE7884207D0521A88
:10F2080005D0037801300B700131013AF9D170470C
:10F21800884202D002700130FAE7704700000120EE
:10F2280000FC00200000012000000120D83D06005D
:10F238005845002078460020B0F20100B0F20100E5
:10F24800586A0500D83D060058450020584500205A
:10F25800586A0500586A0500586A0500586A05008A
:10F26800586A0500586A0500586A0500586A05007A
:10F27800D83D0600F83E0600784600207846002073
:10F28800F83E060078460020884600208846002080
:10F2980038A1002038A1002040A1002040A1002072
:08F2A80040A5002091FD0100CA
:10F2B000024B034A1A6000BF704700BF5845002048
:10F2C0000090D00308B500F00DF90346002B06D0DE
:10F2D000744B1B681B0A744A03F01F03136000F091
:10F2E0002DF90346002B02D0704B714A1A6000F0D2
:10F2F00041F90346002B06D06E4B1B685B0B6E4A30
:10F3000003F00703136000F061F90346002B05D0FA
:10F310006A4BDB68694A23F08073D36000F072F9AE
:10F320000346002B0ED04FF080430022C3F80C217F
:10F330004FF080430022C3F810214FF08043002299
:10F34000C3F8382500F08AF90346002B02D05C4B45
:10F3500003221A6000F09EF90346002B0BD0594B94
:10F3600005221A60584B01221A60584B00221A607D
:10F37000574B3F221A6000F0A9F90346002B76D0C4
:10F380004FF08053534AD3F80434C2F820354FF07D
:10F390008053504AD3F80834C2F824354FF08053D4
:10F3A0004C4AD3F80C34C2F828354FF08053494A00
:10F3B000D3F81034C2F82C354FF08053454AD3F8B7
:10F3C0001434C2F830354FF08053424AD3F8183421
:10F3D000C2F834354FF080533E4AD3F81C34C2F89B
:10F3E00040354FF080533B4AD3F82034C2F84435BF
:10F3F0004FF08053374AD3F82434C2F848354FF0E1
:10F400008053344AD3F82834C2F84C354FF0805337
:10F41000304AD3F82C34C2F850354FF080532D4A7F
:10F42000D3F83034C2F854354FF08053294AD3F81A
:10F430003434C2F860354FF08053264AD3F838345C
:10F44000C2F864354FF08053224AD3F83C34C2F8F6
:10F4500068354FF080531F4AD3F84034C2F86C35FA
:10F460004FF080531B4AD3F84434C2F8703500F093
:10F4700049F90346002B05D0174B1B68174A03F0C8
:10F480004F031360164BD3F88830154A43F47003CA
:10F49000C2F88830BFF34F8FBFF36F8FFFF708FFBD
:10F4A00000BF08BD240300104035014074C0074070
:10F4B0000DF0ADBA440200103C050040F0ED00E054
:10F4C000A0050040105600408856004018560040E5
:10F4D0001456004000C0004058020010E40E0040E6
:10F4E00000ED00E0124B1B68DBB2062B1DD1114B67
:10F4F0001B6803F00F03002B17D10F4B1B6803F0A1
:10F50000F003302B01D1012310E00B4B1B6803F0FB
:10F51000F003402B01D1012308E0074B1B6803F0E7
:10F52000F003502B01D1012300E00023184670475F
:10F53000E00F00F0E40F00F0E80F00F00A4B1B684A
:10F54000DBB2062B0DD1094B1B6803F00F03002B18
:10F5500007D1074B1B6803F0F003302B01D10123C7
:10F5600000E0002318467047E00F00F0E40F00F0C1
:10F57000E80F00F0124B1B68DBB2062B1DD1114BBC
:10F580001B6803F00F03002B17D10F4B1B6803F010
:10F59000F003302B01D1012310E00B4B1B6803F06B
:10F5A000F003402B01D1012308E0074B1B6803F057
:10F5B000F003502B01D1012300E0002318467047CF
:10F5C000E00F00F0E40F00F0E80F00F00A4B1B68BA
:10F5D000DBB2062B0DD1094B1B6803F00F03002B88
:10F5E00007D1074B1B6803F0F003302B01D1012337
:10F5F00000E0002318467047E00F00F0E40F00F031
:10F60000E80F00F0124B1B68DBB2062B1DD1114B2B
:10F610001B6803F00F03002B17D10F4B1B6803F07F
:10F62000F003302B01D1012310E00B4B1B6803F0DA
:10F63000F003402B01D1012308E0074B1B6803F0C6
:10F64000F003502B01D1012300E00023184670473E
:10F65000E00F00F0E40F00F0E80F00F00A4B1B6829
:10F66000DBB2062B0DD1094B1B6803F00F03002BF7
:10F6700007D1074B1B6803F0F003302B01D10123A6
:10F6800000E0002318467047E00F00F0E40F00F0A0
:10F69000E80F00F00A4B1B68DBB2062B0DD1094BBB
:10F6A0001B6803F00F03002B07D1074B1B6803F007
:10F6B000F003302B01D1012300E0002318467047EE
:10F6C000E00F00F0E40F00F0E80F00F00A4B1B68B9
:10F6D000DBB2062B0DD1094B1B6803F00F03002B87
:10F6E00007D1074B1B6803F0F003502B01D1012316
:10F6F00000E0002318467047E00F00F0E40F00F030
:10F70000E80F00F0124B1B68DBB2062B1DD1114B2A
:10F710001B6803F00F03002B17D10F4B1B6803F07E
:10F72000F003302B01D1012310E00B4B1B6803F0D9
:10F73000F003402B01D1012308E0074B1B6803F0C5
:10F74000F003502B01D1012300E00023184670473D
:10F75000E00F00F0E40F00F0E80F00F00048704701
:10F7600030A1002082B003468DF807309DF80730A5
:10F7700003F01F0206499DF907305B09012000FADA
:10F7800002F2603341F8232000BF02B0704700BF8F
:10F7900000E100E0BFF34F8F054BDB6803F4E0624C
:10F7A0000349044B1343CB60BFF34F8F00BFFDE70A
:10F7B00000ED00E00400FA0532DF704700BF184694
:10F7C0003EDF704700BF184682B001904FF0A04363
:10F7D000184602B0704700B585B001900846114642
:10F7E0001A4603468DF803300B468DF80230134657
:10F7F0008DF8013001AB1846FFF7E6FF03909DF846
:10F8000003209DF802305B001A439DF801309B00F5
:10F810001A439DF818301B0242EA03019DF81C3080
:10F820001B04019A1943039B02F5E07243F822106E
:10F8300000BF05B05DF804FB00B585B003900B4632
:10F840008DF80B3013468DF80A309DF80B209DF88B
:10F850000A300193002300931346002200210398ED
:10F86000FFF7B9FF00BF05B05DF804FB84B001905D
:10F87000244B0393019B002B40D0234B1A68039920
:10F88000019B00BF00BF00BF00BF00BF00BF00BFA3
:10F8900000BF8A422FD000BF00BF00BF00BF00BF23
:10F8A00000BF00BF00BF00BF00BF00BF00BF00BF60
:10F8B00000BF00BF00BF00BF00BF00BF00BF00BF50
:10F8C00000BF00BF00BF00BF00BF00BF00BF00BF40
:10F8D00000BF00BF00BF00BF00BF00BF00BF00BF30
:10F8E00000BF00BF00BF00BF00BF00BF00BF00BF20
:10F8F00000BF00BF00BF013BC3D1019300BF04B0F4
:10F90000704700BF0024F4005845002000B583B0C4
:10F910000190019B4FF47A7202FB03F31846FFF744
:10F92000A5FF00BF03B05DF804FB000070B58AB00E
:10F93000079006910592059B0993099B5B68184601
:10F9400031F0B2FA0546099B1B881E46099B9C684C
:10F95000099B9B68184631F08BFE0346184631F030
:10F96000A3FA03460393029401960095069B079A17
:10F970000849012031F00EFB022005F053FE05205E
:10F98000FFF7C4FF059A069907982DF0BBF800BF52
:10F990000AB070BDD06A050000B587B0F1EE103A2C
:10F9A0000193019B23F09F030293029BE1EE103A27
:10F9B000F1EE103A03932620FFF7D4FEFFF700FF85
:10F9C0000590059B0493049B002B04D0044AB921A5
:10F9D00004982DF07FF800BF07B05DF804FB00BF6E
:10F9E000646B050000B589B00390039B5B881A46E1
:10F9F000039B1B791946039B1B7800930B462049F8
:10FA0000032031F093FA039B002B34D0039B1B7827
:10FA1000012B30D107F0EAFF0790079B0693069B66
:10FA2000002B04D0174ACB2106982DF053F8022260
:10FA300000210D20FFF700FF1349022031F03AFAB0
:10FA4000FFF7BAFE079007F0AFFD034683F001030E
:10FA5000DBB2002B0AD0079B0593059B002B0AD035
:10FA6000084AD82105982DF035F804E0074902200E
:10FA700031F020FAFEE700BF09B05DF804FB00BFDB
:10FA80007C6C0500646B0500C46C0500406C0500CF
:10FA900000B583B00190019B1B78012B08D0022B8D
:10FAA00010D0002B15D10D49032031F003FA10E0DE
:10FAB0000B49032031F0FEF90520FFF727FFFFF780
:10FAC00069FE06E00749032031F0F4F9FFF762FE12
:10FAD00000BF00BF03B05DF804FB00BF286D050048
:10FAE000646D0500A46D050000B59BB001AB242238
:10FAF0000021184635F0A9FF1C238DF80A30052394
:10FB00008DF80B300D238DF80C3011238DF80D304E
:10FB100001238DF80E3004238DF80F3040F61C437E
:10FB2000ADF8103041F25E03ADF81230594B059339
:10FB3000594B06936F23ADF81C3040F61C43ADF8CB
:10FB40001E300A238DF82030544B09930F2006F005
:10FB5000B3FD1990199B1893189B002B05D0504AA0
:10FB60004FF4897118982CF0B5FF4E4B0F930FABE3
:10FB700019464D4805F0F8FD1990199B1793179BEE
:10FB8000002B05D0464A4FF48C7117982CF0A2FF39
:10FB9000444B0E930EAB1946444803F0EFFA19900C
:10FBA000199B1693169B002B05D03D4A4FF48F717D
:10FBB00016982CF08FFF3B4B0D930DAB19463C482C
:10FBC00004F0B4FF1990199B1593159B002B05D0D9
:10FBD000334A40F2251115982CF07CFF354806F089
:10FBE000AFF91990199B1493149B002B05D02C4A44
:10FBF0004FF4947114982CF06DFF2F4B019301ABCF
:10FC000019462E4807F0AEFA1990199B1393139BCF
:10FC1000002B05D0224A40F22D1113982CF05AFFE8
:10FC200041F2883007F01EFA1990199B1293129B2B
:10FC3000002B05D01A4A4FF4987112982CF04AFF05
:10FC40001F4B0A93194B0B9305230C930AAB1846D1
:10FC500001F094FC1990199B1193119B002B05D076
:10FC60000F4A4FF49C7111982CF034FF012005F0DD
:10FC7000D9FC1990199B1093109B002B05D0084AB2
:10FC800040F23B1110982CF025FF00BF1BB05DF82F
:10FC900004FB00BF60E3160020BF0200586A0500A5
:10FCA000646B0500C86A050098460020884600205D
:10FCB00090460020A0460020E5F90100A84600205B
:10FCC00091FA010000B585B00C4B019301AB1846C9
:10FCD00007F03AFE0390039B0293029B002B05D092
:10FCE000074A4FF4AF7102982CF0F4FE6420FFF73E
:10FCF0000DFE00BF05B05DF804FB00BF206E0500DF
:10FD0000646B050000B589B01E4B02931E4B039334
:10FD100002AB18460AF0DCFD0790079B0693069B92
:10FD2000002B05D0194A40F2751106982CF0D2FE2E
:10FD3000144B0093144B01936B4618460AF05CFE7B
:10FD40000790079B0593059B002B05D00F4A40F2B7
:10FD50007B1105982CF0BEFE0AF0C0FF0790079BB0
:10FD60000493049B002B05D0084A4FF4BF710498FC
:10FD70002CF0B0FE6420FFF7C9FD00BF09B05DF8AC
:10FD800004FB00BFC86A05003C6E0500646B0500FB
:10FD900000B587B0002031F037F80590059B04933B
:10FDA000049B002B05D01B4A4FF4D77104982CF00C
:10FDB00091FE1949032031F07DF8184A3C210820B2
:10FDC0002CF044FF0390039B0293029B002B05D071
:10FDD000104A4FF4DA7102982CF07CFE2DF0E2FD0F
:10FDE0000590059B0193019B002B05D0094A4FF418
:10FDF000DB7101982CF06EFEFFF764FFFFF774FED5
:10FE0000FFF780FF07F01AFE2CF0E6FFFFF7C4FDB6
:10FE1000FAE700BF646B0500E06D0500B046002006
:10FE20006DDF704700BF184676DF704700BF184689
:10FE30007ADF704700BF18467CDF704700BF184666
:10FE40007FDF704700BF18468FDF704700BF18463E
:10FE50009EDF704700BF1846A9DF704700BF1846F5
:10FE6000ADDF704700BF184669DF704700BF184616
:10FE700066DF704700BF184631DF704700BF184685
:10FE80003DDF704700BF184684B00190244B0393B8
:10FE9000019B002B40D0234B1A680399019B00BFA4
:10FEA00000BF00BF00BF00BF00BF00BF00BF8A424D
:10FEB0002FD000BF00BF00BF00BF00BF00BF00BF0A
:10FEC00000BF00BF00BF00BF00BF00BF00BF00BF3A
:10FED00000BF00BF00BF00BF00BF00BF00BF00BF2A
:10FEE00000BF00BF00BF00BF00BF00BF00BF00BF1A
:10FEF00000BF00BF00BF00BF00BF00BF00BF00BF0A
:10FF000000BF00BF00BF00BF00BF00BF00BF00BFF9
:10FF100000BF013BC3D1019300BF04B0704700BFD5
:10FF20000024F4005845002000B583B00190019BE7
:10FF30004FF47A7202FB03F31846FFF7A5FF00BFE8
:10FF400003B05DF804FB000000B583B001900091A0
:10FF5000009B1B78012B09D0022B02D0002B0AD06A
:10FF60000EE00C49032030F0A5FF0EE00A49032003
:10FF700030F0A0FF09E00949032030F09BFF04E0C6
:10FF80000749022030F096FF00BF00BF03B05DF8C4
:10FF900004FB00BF70700500B0700500EC70050038
:10FFA0002C71050000B585B00023019301AB184604
:10FFB0002EF00CF903468DF80F309DF80F300293A8
:10FFC000029B002B04D0074A842102982CF082FD6A
:10FFD000019B002B14BF01230023DBB2184605B0A0
:10FFE0005DF804FB6871050000B589B003900B460D
:10FFF0008DF80B3000238DF817300DF117031846DC
:020000022000DC
:100000002CF038F900238DF81F3016E09DF81F30D2
:1000100001338DF81F302E49022030F04BFF0DF1D7
:10002000170318462CF026F90520FFF77DFF9DF8F1
:100030001F30052B01D90D2345E09DF817309DF8A1
:100040000B209A42E2D89DF817301A462149032026
:1000500030F041FF9DF80B30194603982CF026F93B
:100060000690069B002B0CD01B4830F01DFF02466B
:10007000069B0093A3231949022030F057FF069BEB
:1000800021E01749032030F015FF00238DF81E30C2
:100090000EE09DF81E30039A13441B781A4611494E
:1000A000132030F018FF9DF81E3001338DF81E30FC
:1000B0009DF81E209DF80B309A42EAD30A4913207E
:1000C00030F0F8FE0023184609B05DF804FB00BFCD
:1000D000AC710500FC710500687105003472050003
:1000E00088720500B8720500C072050010B586B0B0
:1000F0009DF804306FF303038DF804309DF804304D
:100100006FF307138DF80430474B1B681C46464BB2
:100110001B68184635F015FD03469AB201AB21461F
:100120001846FFF789FE0590059B0493049B002B5E
:1001300004D03E4AC22104982CF0CCFC02AB082229
:100140000021184635F081FC374B1B68B3F80F309F
:100150009BB2ADF80830344B1B68B3F811309BB23A
:10016000ADF80A30304B1B68B3F813309BB2ADF8D2
:100170000C302D4B1B68B3F815309BB2ADF80E3028
:1001800002AB1846FFF754FE0590059B072B41D1A3
:10019000254B1B68002242F00602DA7300221A7413
:1001A000214B1B68002242F00C025A7400229A7400
:1001B0001D4B1B680022DA7400221A751A4B1B684B
:1001C000002242F040025A75002242F001029A7564
:1001D000154B1B68184601F05FFB0590059B002B33
:1001E00001D0059B1CE00623ADF808300C23ADF8C8
:1001F0000A300023ADF80C304FF4A073ADF80E3088
:1002000002AB1846FFF714FE0590059B002B06D0A5
:10021000059B05E0059B002B01D0059B00E000231A
:10022000184606B010BD00BFD84A0020687105000E
:1002300000B585B00190019B1B78002B16D11149A8
:10024000012030F037FE104B1B883B211846FFF78A
:10025000EBFD0390039B0293029B002B0ED00B4AF5
:1002600040F2011102982CF035FC07E0019B1B784D
:10027000012B03D10649032030F01CFE00BF05B05E
:100280005DF804FBC47205005C4500206871050040
:100290001473050000B583B00190019A064901204E
:1002A00030F019FE054A40F2151101982CF012FCAD
:1002B00000BF03B05DF804FB6073050068710500C2
:1002C00000B58BB002AB1C220021184635F0BDFBF7
:1002D0006B4608220021184635F0B7FB1F4B1B6800
:1002E000B3F80F309BB2ADF800301C4B1B68B3F86D
:1002F00011309BB2ADF80230184B1B68B3F81330C5
:100300009BB2ADF80430154B1B68B3F815309BB2A7
:10031000ADF806306B4602934FF4004303934FF45D
:100320007023049303238DF814300023ADF81630A6
:1003300000238DF818300A4B07930A4B089302AB41
:10034000184622F09DFC0990099B002B01D0099BC7
:1003500000E0002318460BB05DF804FBD84A0020EB
:10036000310202009502020000B589B003468DF803
:1003700007309DF80730002B06D0032B20D11449FD
:10038000032030F097FD1EE01249032030F092FD6B
:1003900002238DF80C30104B1B6803AA10469847B7
:1003A000032022F0B9FA0790079B0693069B002BC7
:1003B00008D00A4A40F2531106982CF08BFB01E05A
:1003C00000BF00E000BF00BF09B05DF804FB00BF44
:1003D0009C730500D4730500804A002068710500F5
:1003E00000B58DB00190019B1B88013B542B00F29E
:1003F0006F8101A252F823F001060200D10602002B
:10040000D1060200D1060200D1060200D106020088
:10041000D1060200D1060200D1060200D106020078
:10042000D1060200D1060200D1060200D106020068
:10043000D10602004D0502006F050200D106020040
:10044000AF050200D1060200D1060200D10602006B
:10045000D1060200D1060200D1060200D106020038
:10046000D1060200D1060200D1060200D106020028
:10047000D1060200D106020097060200C70602005C
:10048000D1060200D1060200D1060200D106020008
:10049000D1060200D1060200D1060200D1060200F8
:1004A000D1060200D1060200D1060200D1060200E8
:1004B000D1060200D1060200D1060200D1060200D8
:1004C000D1060200D1060200D1060200D1060200C8
:1004D000D1060200D1060200D10602008706020002
:1004E000D1060200D1060200D1060200D1060200A8
:1004F000D1060200D1060200D1060200D106020098
:10050000D1060200D1060200D1060200D106020087
:10051000D1060200D1060200D1060200D106020077
:10052000D1060200D1060200D1060200D106020067
:10053000D1060200D1060200D1060200D905020050
:10054000D1060200D10602002706020068490320F6
:1005500030F0B0FC019B9A88664B1A8000238DF81E
:100560000830654B1B6802AA10469847BBE0019B08
:100570001B7A1A466149032030F0ADFC5D4B4FF603
:10058000FF721A80FFF70EFD0346002B03D05C4B71
:1005900001221A70A7E05A4B00221A7001238DF82D
:1005A0000830554B1B6802AA104698479BE0514BF8
:1005B0001888002300228521FFF742FC0B900B9B3B
:1005C0000A930A9B002B00F085804E4A40F283116B
:1005D0000A982CF07FFA7DE0464B18880023002211
:1005E0000021FFF739FC0B900B9B0993099B002B13
:1005F00072D0444A40F2891109982CF06BFA6BE0F2
:100600003C4B1B8800211846FFF732FC0B900B9BDC
:100610000893089B002B61D03A4A4FF4C7710898A1
:100620002CF058FA5AE0019BDB881A463649032021
:1006300030F051FC019B9B884FF48A711846FFF7FC
:100640000FFC0B900B9B0793079B002B05D02D4AAB
:100650004FF4CB7107982CF03DFA019BDA882B4BB5
:10066000A3F8012029492A4824F040FC0B900B9B59
:100670000693069B002B33D0224A4FF4CD71069887
:100680002CF028FA2CE0019B5B891A4621490320B3
:1006900030F021FC27E02049032030F00BFC019BC7
:1006A0009B88002200211846FFF7CEFB0B900B9B86
:1006B0000593059B002B15D0124A40F2A71105980F
:1006C0002CF008FA0EE01549032030F0F3FB0AE0A5
:1006D00000BF08E000BF06E000BF04E000BF02E08A
:1006E00000BF00E000BF00BF0DB05DF804FB00BF1D
:1006F0000C7405005C450020804A00204874050009
:10070000DF4A00206871050098740500DC4A00206B
:100710008C4A0020E87405003475050084750500D6
:1007200000B585B00190019822F0DCFC019822F020
:10073000D9FB0023039312E0144B1A68039BDB00E0
:1007400013445B68002B07D0104B1A68039BDB0037
:1007500013445B6801989847039B013303930C4B48
:100760001B68039A9A42E7D301990A4824F003FBD5
:10077000019909482FF0EDFF0198FFF731FE01982C
:1007800022F0B4F900BF05B05DF804FB844A0020F4
:10079000884A00208C4A0020FC4A002000B587B01F
:1007A000019001982DF024FD019805F079FE019843
:1007B00022F0B8F9019B022B02D0019B032B13D12D
:1007C000FFF7F0FB034683F00103DBB2002B0BD0F5
:1007D000074B1B78002B07D001238DF80C30054BFD
:1007E0001B6803AA1046984700BF07B05DF804FBDA
:1007F000DF4A0020804A002000B593B0A54B1B685B
:10080000049304A8A44B4FF4A672A44930F09CF9B9
:100810001190119B1093109B002B05D0A04A4FF410
:10082000FE7110982CF056F90023039303AB184681
:1008300030F04EFA0F900F9B0E930E9B002B05D0BD
:10084000974A4FF400710E982CF044F96B460C2235
:100850000021184635F0F9F801238DF800304FF4E7
:100860008A73ADF80230039A6B4619462320FFF7CE
:10087000FBFA0F900F9B0D930D9B002B05D0884A20
:1008800040F209210D982CF025F96B460C2200212D
:10089000184635F0DAF801238DF8003001238DF881
:1008A00002300623ADF80430039A6B461946202027
:1008B000FFF7DAFA0F900F9B0C930C9B002B05D0DF
:1008C000774A40F211210C982CF004F96B460C2267
:1008D0000021184635F0B9F801238DF800301023B7
:1008E0008DF80230039A6B4619462220FFF7BCFAB6
:1008F0000F900F9B0B930B9B002B05D0684A4FF476
:1009000006710B982CF0E6F86B460C220021184675
:1009100035F09BF801238DF8003002238DF802306A
:10092000039A6B4619462120FFF79EFA0F900F9B02
:100930000A930A9B002B05D0594A40F21F210A98BE
:100940002CF0C8F86B460C220021184635F07DF8D3
:1009500002238DF80030039A6B4619460120FFF7F9
:1009600083FA0F900F9B0993099B002B05D04C4AEB
:100970004FF4097109982CF0ADF86B460C22002158
:10098000184635F062F801238DF80030039A6B4663
:1009900019464020FFF768FA0F900F9B0893089BB9
:1009A000002B05D03E4A40F2292108982CF092F8FD
:1009B0006B460C220021184635F047F84FF47A6355
:1009C0000093039A6B461946A120FFF74DFA0F904A
:1009D0000F9B0793079B002B05D0314A40F22E2135
:1009E00007982CF077F86B460C220021184635F05A
:1009F0002CF89DF8003043F001038DF80030039A85
:100A00006B461946A020FFF72FFA0F900F9B069315
:100A1000069B002B05D0224A40F2332106982CF089
:100A200059F803AB184630F063F90F900F9B05930C
:100A3000059B002B05D01A4A40F2362105982CF070
:100A400049F8184830F0ECF80F900F9B002B01D0BC
:100A50000F9B1BE0144830F0F3F80F900F9B002B16
:100A600001D00F9B12E00120FFF706FA0F900F9BB9
:100A7000002B01D00F9B09E00120FFF701FA0F9036
:100A80000F9B002B01D00F9B00E00023184613B0F2
:100A90005DF804FBCC750500C50D0500144B002066
:100AA00068710500210702009D07020000B5B1B082
:100AB0004FF48073ADF878303B4B1B788DF87A306B
:100AC0001FAB3C220021184634F0BFFF02238DF8F3
:100AD0007C3000238DF87E3006238DF87F30012393
:100AE000ADF884301EAB229316AB202200211846AD
:100AF00034F0ABFF01238DF85B302C4B1B689B89D6
:100B00009BB21A93294B1B689B7B1B9307AB3C2220
:100B10000021184634F099FF00238DF8BF3010E013
:100B20009DF8BF30C3F103029DF8BF3020498A5CB5
:100B300030A90B4403F8B42C9DF8BF3001338DF875
:100B4000BF309DF8BF30032BEAD95923ADF81030E0
:100B500003AB06930423ADF8143000238DF81C304A
:100B600004AB109316AA07A91FA800230093114BEA
:100B700021F0CEFD2E902E9B002B0DD00E4830F094
:100B800093F902462E9B009340F282230B490220E8
:100B900030F0CCF92E9B03E0012021F0ABFD0023C7
:100BA000184631B05DF804FB8C4A0020D84A00207A
:100BB000F84A0020690302006871050034720500DC
:100BC00000B583B00190054A40F28F2101982BF0C7
:100BD00081FF00BF03B05DF804FB00BF6871050032
:100BE00000B583B01A4B1B6893F82830022B03D84A
:100BF00005F014FD002327E0164B4FF43E721A60F7
:100C0000134B1B681733134A5360114B1B6893F83F
:100C100028309AB20F4B1A810E4B0F4A5A610F4877
:100C2000FFF7FEF80190019B002B01D0019B0BE028
:100C3000084BDB7A0233DAB2064BDA72054805F06C
:100C400081FC05F0ADFC0023184603B05DF804FB01
:100C5000D84A0020604C0020C10B02006A4C0020E2
:100C600000B595B0039001921A460B468DF80B30F3
:100C70001346ADF8083000238DF84F309DF80B3047
:100C8000062B00F2598101A252F823F0A90C0200B0
:100C9000E50C0200090D0200910D0200E10D0200B9
:100CA000130E0200AB0E0200BDF808300A2B00F252
:100CB0003681AE4B1B681846BDF808301A460199BC
:100CC00034F09AFEA94B1A68BDF808300021D154BF
:100CD000A64B1B68BDF80820D2B2DA7201238DF84A
:100CE0004F301CE1BDF80830032B40F01A819F4BB8
:100CF0001B680C33BDF808200199184634F07CFEBF
:100D000001238DF84F300CE1BDF80830082B40F07E
:100D10000A81964B1B680F33BDF8082001991846CD
:100D200034F06AFE05AB08220021184634F08DFE2F
:100D30008E4B1B68B3F80F309BB2ADF814308B4B61
:100D40001B68B3F811309BB2ADF81630874B1B68A7
:100D5000B3F813309BB2ADF81830844B1B68B3F86E
:100D600015309BB2ADF81A3005AB184622F0E0F80A
:100D70001290129B1193119B002B05D07C4A40F2DC
:100D8000E12111982BF0A6FE01238DF84F30CAE027
:100D9000BDF80830112B00F2C880744B1B68173364
:100DA000BDF808200199184634F026FE6F4B1B68E9
:100DB000BDF80820D2B283F8282001238DF84F30E7
:100DC000FFF70EFF1090109B0F930F9B002B00F06E
:100DD000AC80674A4FF43C710F982BF07BFEA4E087
:100DE000BDF80830FA2B00F2A280604B1B68293353
:100DF000BDF808200199184634F0FEFD5B4B1B68D6
:100E0000BDF80820D2B283F8232101238DF84F309A
:100E10008DE0BDF80830032B40F08B80019B0E93D2
:100E20000E9B1B78012B2FD10E9BB3F801309BB288
:100E30001A465049032030F04EF84F4B1A880E9B4B
:100E4000B3F801309BB219461046FFF701F80D9038
:100E50000D9B002B07D1BDF808301A460199474871
:100E600034F0CAFD65E04549454824F03FF80D904F
:100E70000D9B0C930C9B002B5BD03D4A40F20D3137
:100E80000C982BF027FE54E03C493D4824F02EF806
:100E90000D900D9B0B930B9B002B4AD0344A40F2D4
:100EA00013310B982BF016FE43E0BDF80830F72BFA
:100EB00041D82E4B1B6803F59573BDF808200199A6
:100EC000184634F099FD294B1B68BDF80820D2B2B2
:100ED00083F8212214F0AEF80A900A9B002B05D06B
:100EE000234A40F21E310A982BF0F4FD1F4B1B6879
:100EF00003F59573BDF80820D2B21146184613F0D9
:100F0000ADFE0990099B002B05D0194A40F21F3114
:100F100009982BF0DFFD01238DF84F300BE000BF67
:100F20000AE000BF08E000BF06E000BF04E000BF29
:100F300002E000BF00E000BF9DF84F30002B10D052
:100F40000A4B1B68184600F0A7FC0890089B079303
:100F5000079B002B05D0064A40F22B3107982BF057
:100F6000B9FD00BF15B05DF804FB00BFD84A0020F2
:100F700068710500D07505005C450020DC4A002042
:100F80008C4A002000B589B000238DF81F30724BC9
:100F90001B6893F82431FF22934214BF01230023DE
:100FA0008DF81E306C4B1B6893F82531FF2293425D
:100FB00014BF012300238DF81D30674B1B6893F885
:100FC0002631FF22934214BF012300238DF81C30E9
:100FD000614B1A6803AB02F59272118892781980FE
:100FE0009A709DF81E30002B07D19DF81D30002B04
:100FF00003D19DF81C30002B2ED0574B1B68FF22CD
:1010000083F82421544B1B68FF2283F82521524B7F
:101010001B68FF2283F8262101238DF81F309DF8DD
:101020001E30002B03D19DF81D30002B14D000235F
:101030008DF81F30494B01221A70494800F02CFCF2
:101040000690069B0593059B002B05D0454A40F270
:101050004E3105982BF03EFDFF231A46FF2319461B
:10106000FF2300930B46404903202FF05FFF3B4BCB
:101070001B78002B0DD09DF80C301A469DF80D30D2
:1010800019469DF80E3000930B46384903202FF087
:101090004DFF314B1B6893F82830112B0FD92E4B85
:1010A0001B6817330E223249184634F0A5FC2A4B30
:1010B0001B680E2283F8282001238DF81F30264B51
:1010C0001B6893F82331FA2B0FD9234B1B68293364
:1010D00000222849184634F08FFC1F4B1B68002261
:1010E00083F8232101238DF81F301B4B1B6893F8D5
:1010F0002132F72B05D8184B1B6893F82132002BAF
:1011000010D1154B1B6803F5957316221A49184622
:1011100034F072FC104B1B68162283F82122012345
:101120008DF81F309DF81F30002B10D00A4B1B6824
:10113000184600F0B1FB0690069B0493049B002B1D
:1011400005D0084A40F2763104982BF0C3FC002306
:10115000184609B05DF804FBD84A0020E04A002098
:101160004C6E05006871050018760500587605007C
:10117000636E0500756E0500766F050000B585B0DD
:101180000A4B1B6801930A4B029301AB19460948AD
:1011900023F018FE0390039B002B01D0039B00E07B
:1011A0000023184605B05DF804FB00BFD84A0020B4
:1011B000610C02008C4A002000B589B001900091BA
:1011C000FFF7DCFF0690069B0593059B002B05D0DF
:1011D000244A4FF4667105982BF07CFC002307939A
:1011E00018E0079BDB00019A13441B68002B0ED00C
:1011F000079BDB00019A13441B681B4A12781046B8
:1012000098470690069B002B01D0069B26E0079B83
:1012100001330793079A009B9A42E2D302AB08225C
:101220000021184634F011FC104B029301238DF875
:101230000C3001238DF80D3002AB19460C482FF00D
:10124000F7F80690069B0493049B002B05D0054AF3
:1012500040F2B13104982BF03DFC0023184609B050
:101260005DF804FB68710500E04A002049FF0100B9
:10127000FC4A0020B0B5C6B002AF13F009FFC7F8B2
:101280000801D7F80831002B0FD0B0482FF00CFE22
:101290000246D7F80831009340F2BE33AC49022031
:1012A0002FF044FED7F808314BE1AA4B1B6803F539
:1012B00095731622A849184634F066F90346002BA8
:1012C00040F01C816B461D462021A44813F0F0FD20
:1012D000C7F80801D7F80831002B0FD09B482FF032
:1012E000E3FD0246D7F80831009340F2C333984932
:1012F00002202FF01BFED7F80831FDE01B2387F8F2
:10130000073197F807010346013BC7F80031C1B226
:101310004FF000024FF000034FF00004D40044EA05
:101320005174CB00C1B24FF000024FF000034FF0F8
:101330000004D40044EA5174CB0003460733DB08B1
:10134000DB00ADEB030D02AB0033C7F8FC30D7F880
:10135000FC3000221A70D7F8FC308149184634F06E
:1013600094F9D7F8FC307F49184634F08EF9002301
:1013700087F80F311EE007F1F80300210A461A80B2
:101380000A469A7097F80F31774AD35C1A4607F1EC
:10139000F8037649184634F063F9D7F8FC3007F1C2
:1013A000F8021146184634F070F997F80F310133FE
:1013B00087F80F3197F80F31032BDCD9D7F8FC30C1
:1013C00018462FF071FD03461A46694903202FF095
:1013D00082FDD7F8FC3097F807211146184613F024
:1013E000BFFCC7F80801D7F80831002B0FD05748C9
:1013F0002FF05AFD0246D7F80831009340F2D73358
:10140000534902202FF092FDD7F8083174E01622DC
:101410005849012013F000FDC7F80801D7F808313A
:10142000002B0FD049482FF03FFD0246D7F8083176
:10143000009340F2DA33464902202FF077FDD7F8C7
:10144000083159E013F07CFDC7F80801D7F80831DE
:10145000002B0FD03D482FF027FD0246D7F808316A
:10146000009340F2DD333A4902202FF05FFDD7F8B8
:10147000083141E0F72387F8FB3007F1FB023B46D8
:101480001146184613F042FCC7F80801D7F8083196
:10149000002B0FD02D482FF007FD0246D7F808315A
:1014A000009340F2E1332A4902202FF03FFDD7F8A4
:1014B000083121E097F8FB203B4683F8F7203B46B4
:1014C00019462D4823F03EFDC7F80801D7F808312A
:1014D000002B0FD01D482FF0E7FC0246D7F808314B
:1014E000009340F2E5331A4902202FF01FFDD7F890
:1014F000083101E0AD4623E0AD4622E0154B1B6804
:1015000003F59572134B1B6893F821321946104668
:1015100013F0A4FBC7F80801D7F80831002B0FD04F
:101520000A482FF0C1FC0246D7F80831009340F278
:10153000EA33074902202FF0F9FCD7F8083100E020
:101540000023184607F58877BD46B0BD68710500D1
:1015500034720500D84A0020766F0500C876050071
:10156000E44A0020E8760500F84A0020B872050039
:10157000EC760500187705008C4A002000B585B090
:101580000190019B1B686A4A1360019B5B68694A72
:101590001360019B9B68684A1360FFF72DF9039065
:1015A000039B002B06D0039A644901202FF093FC83
:1015B000039BB8E0624BD3F88830614A43F4700370
:1015C000C2F88830BFF34F8FBFF36F8F04215D489F
:1015D000FEF70AFD0390039B002B06D0039A5A499D
:1015E00001202FF078FC039B9DE05849584800F0FB
:1015F0000DFA0390039B002B06D0039A5549012056
:101600002FF069FC039B8EE0504B1B680C22A3F863
:101610001120FFF7B7FC0390039B002B06D0039A21
:101620004D4901202FF057FC039B7CE0FEF75EFD47
:101630000390039B002B06D0039A484901202FF00A
:101640004AFC039B6FE03B4B1A683B4B1B681946F7
:101650001046FFF7B1FD0390039B002B06D0039AC1
:101660003F4901202FF037FC039B5CE0FFF71EFA97
:101670000390039B002B06D0039A3A4901202FF0D8
:101680002AFC039B4FE0FEF71BFE0390039B002BFD
:1016900006D0039A344901202FF01DFC039B42E041
:1016A000032021F039F90390039B002B06D0039A05
:1016B0002E4901202FF00FFC039B34E02C4805F04D
:1016C000F7FE0390039B002B06D0039A29490120C3
:1016D0002FF001FC039B26E025482FF0E5FB034695
:1016E0001A46254913202FF0F6FBFFF7C3FD0390A0
:1016F000039B002B06D0039A204901202FF0EBFB1F
:10170000039B10E00A20FEF70FFCFFF769FA039035
:10171000039B002B06D0039A194901202FF0DBFB15
:10172000039B00E00023184605B05DF804FB00BFF2
:10173000804A0020844A0020884A00203077050033
:1017400000ED00E0F84A00206C770500D84A002040
:101750004C6E0500B0770500EC7705002C7805008D
:1017600068780500B4780500F07805002C7905004C
:10177000E44A00206C790500A8790500BC790500D1
:10178000F079050000B589B00390039B1B78012B0D
:101790001AD0052B42D0002B4CD1039B5B68002B49
:1017A00003D1344B01221A7059E0334901202FF044
:1017B00081FB00230793079B002B50D12F4A5D210B
:1017C00000202BF087F94AE0039B5B68002B16D1C1
:1017D000039B9B89B3F5005F43D1039B1B7C1A4697
:1017E000039B9B891946039BDB8900930B46244985
:1017F00003202FF09BFB234B01221A7031E022497A
:1018000001202FF057FB00230693069B002B28D1C5
:101810001A4A6F2100202BF05DF922E0039B5B68E0
:10182000002B20D1194903202FF044FB184B012233
:101830001A7018E0039B1B781A46039B5B681549D6
:1018400003202FF05CFB039B5B680593059B002B3B
:101850000BD00A4A7B2105982BF03CF905E000BF2C
:1018600004E000BF02E000BF00E000BF00BF09B01D
:101870005DF804FBAC4E0020287A0500587A05007C
:10188000A07A0500AD4E0020EC7A05001C7B050017
:10189000AE4E0020507B050000B58BB003901F4971
:1018A00003202FF007FB039B002B01D10E2331E017
:1018B00040F2222203991A4834F09EF8194B422232
:1018C0001A60184B04938A23ADF814304FF4005378
:1018D000ADF8183042F20103ADF81A3004AB0793AB
:1018E0000123ADF8203006AB19460F482EF09FFAC1
:1018F0000990099B002B0CD00C482FF0D5FA02461A
:10190000099B009398230A4902202FF00FFB099BA3
:1019100000E0002318460BB05DF804FB807B050057
:10192000884C0020844C0020784C0020587A050018
:10193000B47B050000B58BB0039005AB08220021F5
:10194000184634F082F82B4903202FF0B3FA05AB88
:10195000294A42F201014FF400502EF0D7FA0990C3
:10196000099B002B0CD025482FF09EFA0246099BBC
:101970000093A923224902202FF0D8FA099B34E0D2
:1019800007AB19461C482EF0C7F90990099B002B9C
:101990000CD01A482FF088FA0246099B0093AC231A
:1019A000174902202FF0C2FA099B1EE0089B4FF452
:1019B0000A721946134834F01FF80F482EF0E8F960
:1019C0000990099B002B0CD00C482FF06DFA0246B1
:1019D000099B0093B1230A4902202FF0A7FA099B23
:1019E00003E0039B084A1A60002318460BB05DF819
:1019F00004FB00BF087C0500784C0020587A0500E5
:101A0000B47B0500844C0020884C002000B58BB0CE
:101A1000039002915B4903202FF04CFA039B002BAB
:101A200001D10E23A9E058482EF0E0F80990099B57
:101A3000002B0CD055482FF037FA0246099B009333
:101A4000C223534902202FF071FA099B95E02EF032
:101A5000EDF80990099B002B0ED04C482FF024FA8A
:101A60000246099B0093C523494902202FF05EFAE4
:101A7000099B82E02BF0B0F9464B1B7883F0010301
:101A8000DBB2002BF6D12EF015FA0990099B002B42
:101A90000ED03E482FF008FA0246099B0093CD2352
:101AA0003B4902202FF042FA099B66E02BF094F9A3
:101AB000394B1B7883F00103DBB2002BF6D102987F
:101AC000FFF738FF0990099B0A2B45D133490320C2
:101AD0002FF0F0F940F222220399314833F08CFFC5
:101AE000304B42221A602F4B04938A23ADF81430F6
:101AF0004FF40053ADF8183042F20103ADF81A303C
:101B000004AB07930123ADF82030274B00221A7055
:101B100006AB194625482EF07BF90990099B002B4E
:101B20000CD01A482FF0C0F90246099B0093EB2312
:101B3000174902202FF0FAF9099B1EE0029B184A70
:101B40001A6001E02BF048F9174B1B7883F0010372
:101B5000DBB2002BF6D10FE0099B002B0CD00B4819
:101B60002FF0A2F90246099B0093F62308490220B0
:101B70002FF0DCF9099B00E0002318460BB05DF85C
:101B800004FB00BF387C050085170200587A050069
:101B9000B47B0500AC4E0020AE4E0020647C0500F6
:101BA000884C0020844C0020AD4E0020784C002052
:101BB00000B587B08DED030A0290DDED037AFDEEEE
:101BC000E77ACDED017A9DF804305AB2029B1A7083
:101BD000029B93F9003007EE903AF8EEE77A9DED1C
:101BE000037A77EE677ACDED057ADDED057A9FED24
:101BF0000D7A67EE877AFCEEE77ACDED017A9DF8F3
:101C00000430DAB2029B5A70029B93F900301A46F4
:101C1000029B5B78044904202FF071F900BF07B0E4
:101C20005DF804FB0000C842C07C050000B583B02D
:101C3000034600918DF80730009B9DF807201A702D
:101C40009DF807301A46044904202FF044F900BFDC
:101C500003B05DF804FB00BF087D050000B587B048
:101C60008DED030A0290DDED037AFDEEE77A17EEC3
:101C7000902A029B1A60029B1B6807EE903AF8EECE
:101C8000E77A9DED037A77EE677ACDED057ADDEDA3
:101C9000057A9FED0D7A67EE877AFCEEE77ACDED57
:101CA000017A9DF80430DAB2029B1A71029B1B681C
:101CB0001A46029B1B79054904202FF020F900BF2A
:101CC00007B05DF804FB00BF0000C842507D05006E
:101CD00000B587B00190019B1B78002B02D0012B2F
:101CE00014D021E0019B5B78012B1AD110F004F88D
:101CF000F0EE407A03AB1846B0EE670AFFF7AEFF8E
:101D000003AB19460A4822F04DF90AE00023059377
:101D1000059B002B07D1074A942100202AF0DAFE08
:101D200001E000BF00E000BF00BF07B05DF804FBAA
:101D3000B04E0020A07D050000B58DB003468DF8A3
:101D400007309DF80730002B60D112F07FF88DED41
:101D50000B0A11F0C9FF0346ADF82A3004AB184650
:101D60009DED0B0AFFF724FFBDF82A30DBB20DF121
:101D70000F0211461846FFF759FF2B4B1B78002B1B
:101D800014D0BDF82A309DED0B0A184600F05CFA1D
:101D90000990099B0893089B002B04D0234AB1218A
:101DA00008982AF097FE204B00221A70204B1B78CF
:101DB000002B12D004AB19461E4822F0B3F809904C
:101DC000099B0793079B002B04D0184AB82107985A
:101DD0002AF080FE164B00221A70174B1B78002B3E
:101DE0001ED00DF10F031946124822F01BF909907D
:101DF000099B0693069B002B04D00C4ABF21069832
:101E00002AF068FE0C4B00221A7009E000230593AB
:101E1000059B002B04D1054AC52100202AF05AFE5B
:101E200000BF0DB05DF804FBFA4E0020A07D050058
:101E3000F94E0020B04E0020F84E002000B585B0CD
:101E40000190019B002B15D0019B1B88ADF80C3035
:101E5000019B5B88ADF80E30019B1B881A46019BE5
:101E60005B88064904202FF04AF803AB1946044862
:101E700022F018F900BF05B05DF804FBEC7D050009
:101E8000B04E002000B587B0039000200AF0B4F9EE
:101E9000039B002B27D0039B1B881946039B5B8861
:101EA0001846039B9B881A46039BDB88019300928C
:101EB00003460A460E4904202FF051F8039B1B8865
:101EC000ADF81030039B5B88ADF81230039B9B8804
:101ED000ADF81430039BDB88ADF8163004AB19461F
:101EE000044822F01FF900BF07B05DF804FB00BFF3
:101EF000307E0500B04E002000B585B001900A4B41
:101F000001221A7012F040F80390039B0293029B87
:101F1000002B05D0054A4FF4847102982AF0DAFDAF
:101F200000BF05B05DF804FBF94E0020A07D050060
:101F3000F0B585B0334B01221A70334B01221A7071
:101F400011F00CFE0390039B002B0DD02F482EF0B8
:101F5000ABFF0246039B00934FF48B732C49022086
:101F60002EF0E4FF039B49E012F00EF80390039B70
:101F7000002B0DD025482EF097FF0246039B0093BF
:101F800040F21913224902202EF0D0FF039B35E0C6
:101F9000204F214B1B681B889BB299B24FF0000267
:101FA0004FF000034FF00004D40344EA5144CB0344
:101FB00013F5FA7544F100064FF47A724FF00003FE
:101FC0002846314633F0DCF803460C460022194619
:101FD00038462BF04BFD0390039B002B0DD00B4894
:101FE0002EF062FF0246039B00934FF48F73084963
:101FF00002202EF09BFF039B00E00023184605B053
:10200000F0BD00BFF94E0020FD4E0020A07D050070
:102010007C7E0500004F0020F04E002000B587B008
:1020200003468DF80F30194B00221A70184B1846D2
:102030002BF04EFD0590059B002B0DD015482EF082
:1020400033FF0246059B00934FF49673124902201A
:102050002EF06CFF059B14E09DF80F30002B0FD085
:102060000E4B00221A700E4B1B7883F00103DBB27B
:10207000002B03D011F0DCFD034602E0002300E05A
:102080000023184607B05DF804FB00BFF94E00209E
:10209000004F0020A07D05007C7E0500FD4E002045
:1020A000FC4E002000B585B001900FF075FE039046
:1020B000039B0293029B002B05D0054A40F24B1173
:1020C00002982AF007FD00BF05B05DF804FB00BFD1
:1020D000A07D0500F0B585B00FF0FEFC0390039BDA
:1020E0000293029B002B05D01D4A4FF4AB7102985E
:1020F0002AF0F0FC0FF050FE0390039B0193019B2C
:10210000002B05D0164A40F2591101982AF0E2FC42
:10211000144F154B1B685B889BB299B24FF00002BD
:102120004FF000034FF00004D40344EA5144CB03C2
:1021300013F5FA7544F100064FF47A724FF000037C
:102140002846314633F01CF803460C460022194657
:1021500038462BF08BFC0346184605B0F0BD00BF97
:10216000A07D0500204F0020F04E002000B585B076
:102170000E4B18462BF0ACFC0390039B002B0DD0AC
:102180000B482EF091FE0246039B009340F2691328
:10219000084902202EF0CAFE039B02E00FF052FD18
:1021A0000346184605B05DF804FB00BF204F002031
:1021B000A07D05007C7E050000B587B0019000235E
:1021C000ADF80A301C4B1B78012B31D10DF10A03FD
:1021D000184600F07BF90590059B0493049B002BA7
:1021E00005D0164A4FF4BD7104982AF073FCBDF86F
:1021F0000A30002B04D1124902202EF05BFE10E0C1
:10220000BDF80A3018460BF033FC0590059B03938C
:10221000039B002B05D0094A40F2831103982AF052
:1022200059FC054B02221A70064B18462BF050FC45
:1022300000BF07B05DF804FBFB4E0020A07D050049
:10224000D07E0500804F002000B589B003468DED9B
:10225000020AADF80E301E4B1B78002B33D0BDF8B0
:102260000E301A46920013445B00ADF81E30DDEDCF
:10227000027A9FED187A67EE877AFDEEE77A17EE1D
:10228000903A0693BDF81E20069B134904202EF0B9
:1022900036FEBDF81E30069918460BF009FB059076
:1022A000059B002B0DD00D482EF0FEFD0246059B30
:1022B00000934FF4D3730A4902202EF037FE059B9A
:1022C00002E0002300E00023184609B05DF804FB9B
:1022D000FC4E002000007A44387F0500A07D0500F8
:1022E0007C7E050000B585B0114B00221A70114BA1
:1022F0001B78002B13D111F09BFC0390039B002B48
:102300000DD00D482EF0D0FD0246039B00934FF4F4
:10231000E1730A4902202EF009FE039B04E0084BFA
:1023200018462BF0D5FB0346184605B05DF804FBB4
:10233000FC4E0020FD4E0020A07D05007C7E0500A7
:10234000804F002000B585B001900A4B01221A7021
:1023500011F01AFE0390039B0293029B002B05D001
:10236000054A4FF4EA7102982AF0B4FB00BF05B0A9
:102370005DF804FBF84E0020A07D0500F0B585B0A7
:102380002A4B01221A702A4B01221A7011F0E6FB27
:102390000390039B002B0DD026482EF085FD0246AE
:1023A000039B009340F2E113234902202EF0BEFD6F
:1023B000039B37E011F0E8FD0390039B002B0DD049
:1023C0001C482EF071FD0246039B00934FF4F273FC
:1023D000194902202EF0AAFD039B23E0174F184B4A
:1023E0001B689B889BB299B24FF000024FF000032C
:1023F0004FF00004D40344EA5144CB0313F5FA75BB
:1024000044F100064FF47A724FF00003284631463B
:1024100032F0B6FE03460C460022194638462BF031
:1024200025FB0346184605B0F0BD00BFF84E00205E
:10243000FD4E0020A07D05007C7E0500404F002061
:10244000F04E002000B587B003468DF80F30194BD1
:1024500000221A70184B18462BF03AFB0590059B8A
:10246000002B0DD015482EF01FFD0246059B009352
:1024700040F2F513124902202EF058FD059B14E09E
:102480009DF80F30002B0FD00E4B00221A700E4B10
:102490001B7883F00103DBB2002B03D011F0C8FBE3
:1024A000034602E0002300E00023184607B05DF871
:1024B00004FB00BFF84E0020404F0020A07D050027
:1024C0007C7E0500FD4E0020FC4E002000B583B050
:1024D0000190284B1B681B7A032B43D801A252F8AA
:1024E00023F000BFF5240200112502002D25020073
:1024F00049250200204B1B681B889AB2019B1A8059
:10250000019B1B881A461D4904202EF0E4FC2BE099
:10251000194B1B685B889AB2019B1A80019B1B8830
:102520001A46174904202EF0D6FC1DE0124B1B68FA
:102530009B889AB2019B1A80019B1B881A461149FD
:1025400004202EF0C8FC0FE00B4B1B68DB889AB20E
:10255000019B1A80019B1B881A460B4904202EF010
:10256000BAFC01E0082300E00023184603B05DF840
:1025700004FB00BFF04E0020F44E0020987F0500C1
:102580000080050064800500C880050000B587B0A4
:102590000346ADF80E30314B1B681B7A032B3FD836
:1025A00001A252F823F000BFB9250200D325020092
:1025B000ED25020007260200294B1B68BDF80E20FE
:1025C0001A80BDF80E301A46264904202EF083FCEE
:1025D00028E0234B1B68BDF80E205A80BDF80E3052
:1025E0001A46214904202EF076FC1BE01C4B1B6888
:1025F000BDF80E209A80BDF80E301A461B49042003
:102600002EF069FC0EE0164B1B68BDF80E20DA8038
:10261000BDF80E301A46164904202EF05CFC01E08D
:10262000082317E00E4B1B68184600F0DDFF0590ED
:10263000059B002B0DD00F482EF036FC0246059B63
:10264000009340F24E230C4902202EF06FFC059BB4
:1026500000E00023184607B05DF804FBF04E0020B0
:10266000F44E00202C81050090810500F0810500CA
:1026700054820500A07D05007C7E050000B585B074
:10268000284B1B681B7A1A46274904202EF023FC8E
:10269000244B1B681B7A032B1AD801A252F823F093
:1026A000B1260200B9260200C1260200C926020096
:1026B00000238DF80F300FE001238DF80F300BE071
:1026C00002238DF80F3007E003238DF80F3003E06D
:1026D00002238DF80F3000BF9DF80F3018460BF025
:1026E0003DFA0290029B002B0DD010482EF0DCFB2F
:1026F0000246029B009340F26F230D4902202EF008
:1027000015FC029B0AE00B4B01221A700A4B0022B7
:102710004FF0617118462BF0A9F90346184605B031
:102720005DF804FBF04E0020B8820500A07D050096
:102730007C7E0500FB4E0020804F002000B585B058
:10274000274B1B78022B41D1FFF7CCFD0390039B55
:10275000002B0DD023482EF0A7FB0246039B0093CD
:1027600040F28123204902202EF0E0FB039B33E05E
:102770000DF10A0318460BF009F90390039B002B97
:102780000DD018482EF090FB0246039B00934FF4A7
:102790002173154902202EF0C9FB039B1CE0BDF8F4
:1027A0000A301846FFF7F2FE0390039B002B0DD072
:1027B0000C482EF079FB0246039B009340F28723DE
:1027C000094902202EF0B2FB039B05E0044B0022D6
:1027D0001A700BF06BFB0346184605B05DF804FB5E
:1027E000FB4E0020A07D05007C7E050000B587B073
:1027F0000190134B1B685B7A8DF80C30104B1B68F3
:102800009B7A8DF80D300E4B1B68DB7A8DF80E30FD
:1028100003AB1946002009F041FD0CF063FA059066
:10282000059B0493049B002B05D0064A40F29F2190
:1028300004982AF04FF900BF07B05DF804FB00BF11
:10284000F04E0020A07D0500F0B585B02B4B1B6835
:102850005B7A8DF80030294B1B689B7A8DF801302C
:10286000264B1B68DB7A8DF802306B461946002038
:1028700009F014FD0CF098FA0390039B0293029B5D
:10288000002B05D01E4A40F2AF2102982AF022F90F
:102890000CF028FA0390039B0193019B002B05D0B9
:1028A000174A40F2B22101982AF014F9154F134B40
:1028B0001B68DB889BB299B24FF000024FF0000317
:1028C0004FF00004D40344EA5144CB0313F5FA75E6
:1028D00044F100064FF47A724FF000032846314667
:1028E00032F04EFC03460C460022194638462BF0C7
:1028F000BDF80346184605B0F0BD00BFF04E0020FD
:10290000A07D0500604F002000B585B0124B184631
:102910002BF0DEF80390039B0293029B002B05D063
:102920000E4A40F2BF2102982AF0D4F8002009F0A4
:1029300063FC0CF00FFB0390039B0193019B002BA6
:1029400005D0064A4FF4317101982AF0C3F80023EC
:10295000184605B05DF804FB604F0020A07D05001F
:1029600000B585B00190019B1B889BB2632B32D9C7
:10297000019B1B889BB24EF6602293422BD8019B91
:102980005B889BB2312B26D9019B5B889BB24EF6AC
:10299000602293421FD8019B9B889BB2632B1AD95C
:1029A000019B9B889BB24EF66022934213D8019BF9
:1029B000DB889BB2C72B0ED9019BDB889BB24EF6FE
:1029C0006022934207D8019B1B7A002B03D0019B06
:1029D0001B7A032B0ED90A4800F04EFD0390039B8F
:1029E0000293029B002B05D0064A40F2DA2102989E
:1029F0002AF070F80023184605B05DF804FB00BF0C
:102A0000987C0500A07D050000B589B00190019B70
:102A1000002B01D10E236AE00020FFF7FFFAFFF739
:102A2000A5FB0120FFF70EFDFFF76EFF019B1B8842
:102A30009BB2002B12D0304B93F83630002B0DD0C8
:102A4000FFF776FA0790079B0693069B002B05D0AD
:102A50002A4A40F2F32106982AF03CF8019B5B8851
:102A60009BB2002B12D0244B93F83730002B0DD0A3
:102A7000FFF730FB0790079B0593059B002B05D0C4
:102A80001E4A40F2FA2105982AF024F8019B9B88FF
:102A90009BB2002B12D0184B93F83830002B0DD07E
:102AA000FFF76CFC0790079B0493049B002B05D059
:102AB000124A40F2013104982AF00CF8019BDB889D
:102AC0009BB2002B12D00C4B93F83A30002B0DD058
:102AD000FFF7BAFE0790079B0393039B002B05D0DB
:102AE000064A4FF44271039829F0F4FF0023184678
:102AF00009B05DF804FB00BFB04E0020A07D0500CA
:102B000000B593B0039001921A460B468DF80B3036
:102B10001346ADF808309DF80B30052B00F24281CA
:102B200001A252F823F000BF412B0200B92B020092
:102B3000132C02008B2C0200E12C0200372D020026
:102B4000039B93F836301A469F4904202EF0C3F9B0
:102B5000039B93F83630002B0FD0FFF7E9F9119063
:102B6000119B1093109B002B00F01E81974A40F29E
:102B70002731109829F0AEFF16E1039B93F8383007
:102B8000002B14BF01230023DBB283F00103DBB26F
:102B900003F00103DBB21846FFF740FA1190119BD6
:102BA0000F930F9B002B00F0FF80884A4FF44B716E
:102BB0000F9829F08FFFF7E0039B93F837301A4600
:102BC000834904202EF087F9039B93F83730002BBC
:102BD0000FD0FFF77FFA1190119B0E930E9B002BE5
:102BE00000F0E480794A40F235310E9829F072FF06
:102BF000DCE0FFF7BBFA1190119B0D930D9B002BAE
:102C000000F0D480714A40F23A310D9829F062FF09
:102C1000CCE0039B93F838301A466E4904202EF01E
:102C20005AF9039B93F83830002B0FD0FFF7A6FB1F
:102C30001190119B0C930C9B002B00F0B980634A00
:102C400040F243310C9829F045FFB1E0039B93F823
:102C50003630002B14BF01230023DBB283F00103C5
:102C6000DBB203F00103DBB21846FFF7EBFB119078
:102C7000119B0B930B9B002B00F09A80534A4FF44F
:102C800052710B9829F026FF92E0039B93F839309C
:102C90001A46514904202EF01EF9039B93F839304F
:102CA000002B0ED0FFF7EAFC1190119B0A930A9BB0
:102CB000002B7FD0454A40F251310A9829F00AFF93
:102CC00078E0FFF73BFD1190119B0993099B002BC6
:102CD00070D03E4A40F25631099829F0FBFE69E077
:102CE000039B93F83A301A463C4904202EF0F3F83F
:102CF000039B93F83A30002B0ED0FFF7A5FD1190FF
:102D0000119B0893089B002B56D0304A40F25F314C
:102D1000089829F0DFFE4FE0FFF7F6FD1190119BB8
:102D20000793079B002B47D0284A4FF45971079807
:102D300029F0D0FE40E0BDF808301A4628490420AA
:102D40002EF0C9F8BDF808300C2B0CBF012300236E
:102D5000DBB20693069B002B05D11C4A40F26B3177
:102D6000002029F0B7FE019800F086FB1190119B1E
:102D70000593059B002B05D0144A40F26E3105984F
:102D800029F0A8FE0198FFF73FFE1190119B0493D4
:102D9000049B002B12D00D4A40F27131049829F0A7
:102DA00099FE0BE000BF0AE000BF08E000BF06E0AC
:102DB00000BF04E000BF02E000BF00E000BF00BFB2
:102DC00013B05DF804FB00BFEC820500A07D050098
:102DD0003C83050088830500D48305001C8405001E
:102DE0006484050000B597B003468DF80F300023CA
:102DF0008DF8483000238DF84930002310930023CC
:102E00008DF8443000238DF83F300DAB00221A605E
:102E10005A600023ADF830300023ADF83230464B15
:102E2000464A4749474800F097FC1590159B002BF0
:102E30000DD045482EF038F80246159B009340F21D
:102E40008E33424902202EF071F8159B6FE09DF8F9
:102E50000F30002B1DD03B4800F00EFB1590159B4A
:102E60001493149B002B05D0374A40F293311498E9
:102E700029F030FE314800F0B7FB1590159B1393F5
:102E8000139B002B05D0304A40F29631139829F05D
:102E900021FE2B4B1B681846FFF762FD1590159B12
:102EA000002B0DD028482DF0FFFF0246159B009304
:102EB00040F29A33254902202EF038F8159B36E06F
:102EC00005AB1C220021184632F0BFFD12AB059362
:102ED00010AB06930DF13F0307930DAB09930CABB9
:102EE0000893174B1B680A93194B0B93194903203E
:102EF0002DF0E0FF05AB1946174820F089FF15902B
:102F0000159B002B0DD010482DF0CEFF0246159BCF
:102F100000934FF46A730D4902202EF007F8159BB9
:102F200005E0074B1B681846FFF76EFD00231846A7
:102F300017B05DF804FB00BFF44E0020A47C050030
:102F4000F04E0020987C0500A07D05007C7E0500E9
:102F5000012B0200B0840500B04E002000B585B002
:102F6000019001990C4820F022FF019B1B88112B36
:102F70000DD100F0B1F80390039B0293029B002B4C
:102F800005D0064A40F2BE31029829F0A3FD00BFE9
:102F900005B05DF804FB00BFB04E0020A07D050029
:102FA00000B589B00190002307935F238DF80830A6
:102FB00018230393019B0493064B0593064B06933A
:102FC00002AB184610F0DAFC0790079B184609B0D0
:102FD0005DF804FB04850500391D020000B589B0C9
:102FE00001905C238DF8083017230393019B049311
:102FF000074B0593074B069301238DF81C3002AB5A
:1030000018460EF0D1FC0346184609B05DF804FBE3
:1030100014850500D11C020000B58BB00390039B02
:103020000593114B06935A238DF81C300F4B0893D0
:1030300005AB18460BF03EF80990099B002B0DD00C
:103040000B482DF031FF0246099B009340F20A43E2
:10305000084902202DF06AFF099B00E00023184672
:103060000BB05DF804FB00BF248505003D1E020087
:10307000A07D05007C7E050000B58BB00390039B0E
:103080000593114B069338238DF81C300F4B089392
:1030900005AB18460BF08CFD0990099B002B0DD059
:1030A0000B482DF001FF0246099B009340F2234399
:1030B000084902202DF03AFF099B00E00023184642
:1030C0000BB05DF804FB00BF34850500851E0200CF
:1030D000A07D05007C7E050000B587B00020FEF7CE
:1030E0009DFF0590059B0493049B002B05D0224A6D
:1030F00040F23441049829F0EDFCFFF737F80590D1
:10310000059B0393039B002B05D01B4A40F23741DC
:10311000039829F0DFFC0120FFF794F90590059B47
:103120000293029B002B05D0134A40F23A410298C9
:1031300029F0D0FCFFF7E8FB0590059B0193019B6C
:10314000002B05D00C4A40F23D41019829F0C2FC09
:10315000FFF7F4FA0590059B0093009B002B05D028
:10316000054A4FF48861009829F0B4FC0023184602
:1031700007B05DF804FB00BFA07D050000B58DB071
:1031800003900291039B002B01D10E23BAE0029B16
:10319000002B01D10E23B5E05C4903202DF08AFEFF
:1031A000039B5B4A5A60039B5A4A1A60029B1B6846
:1031B0001846FFF713FF0B900B9B0A930A9B002BFB
:1031C00005D0554A40F254410A9829F083FC029BED
:1031D0001B681846FFF7E4FE0B900B9B0993099BB5
:1031E000002B05D04C4A40F25741099829F072FC57
:1031F000029B1B681846FFF70FFF0B900B9B089371
:10320000089B002B05D0444A40F25A41089829F007
:1032100061FC029B1B681846FFF72EFF0B900B9B6F
:103220000793079B002B05D03B4A40F25D4107986E
:1032300029F050FC394A012139482AF0E7FB0B906C
:103240000B9B0693069B002B05D0334A40F261414D
:10325000069829F03FFC334A012133482AF0D6FB77
:103260000B900B9B0593059B002B05D02A4A40F23F
:103270006441059829F02EFC2C4A01212C482AF0A3
:10328000C5FB0B900B9B002B0DD023482DF00CFEA3
:1032900002460B9B009340F26743264902202DF023
:1032A00045FE0B9B2EE0244A012124482AF0AEFB68
:1032B0000B900B9B002B0DD017482DF0F5FD02460F
:1032C0000B9B009340F26A431A4902202DF02EFE18
:1032D0000B9B17E01A4A01211A482AF097FB0B9022
:1032E0000B9B002B0DD00C482DF0DEFD02460B9BF6
:1032F000009340F26D430F4902202DF017FE0B9B07
:1033000000E0002318460DB05DF804FBE0840500E2
:103310005D2F0200E52D0200A07D0500F91E0200D0
:10332000AC7C0500A5200200B07C0500452302000E
:10333000B47C05007C7E0500ED270200B87C05000A
:10334000B9210200BC7C050000B589B00390039B45
:103350001B78002B02D0012B1AD05BE0039B5B682B
:10336000002B06D13A4B01221A703A4B01221A70F7
:1033700065E0394901202DF09DFD00230793079B4F
:10338000002B5CD1354A7221002029F0A3FB56E0C6
:10339000039B5B68002B2ED1039B9B8941F20102AA
:1033A000934210D1039B1B7C1A46039B9B891946B1
:1033B000039BDB8900930B46294903202DF0B6FDC2
:1033C000284B01221A70039B9B8941F2030293420E
:1033D00037D1039B1B7C1A46039B9B891946039B91
:1033E000DB8900930B46204903202DF09FFD1F4BE6
:1033F00001221A7025E01E4901202DF05BFD0023FB
:103400000693069B002B1CD1144A8C21002029F026
:1034100061FB16E0039B1B781A46039B5B6815490A
:1034200003202DF06CFD039B5B680593059B002B2F
:1034300009D00A4A9121059829F04CFB03E000BF0E
:1034400002E000BF00E000BF00BF09B05DF804FB70
:10345000D54F0020D74F0020448505007485050016
:10346000C4850500D44F002014860500D64F0020E7
:10347000688605009886050000B58BB003901F494B
:1034800003202DF017FD039B002B01D10E2330E00C
:103490000C2203991A4832F0AFFA1A4B42221A60F2
:1034A000184B04930423ADF8143041F20103ADF836
:1034B000183041F20203ADF81A3004AB0793012330
:1034C000ADF8203006AB19460F482CF0B0FC09903F
:1034D000099B002B0CD00D482DF0E6FC0246099B01
:1034E0000093AE230A4902202DF020FD099B00E045
:1034F000002318460BB05DF804FB00BFC88605002A
:10350000BC4F0020B84F0020A04F0020748505005C
:10351000F886050000B58BB0039005AB08220021AA
:10352000184632F092FA2A4903202DF0C3FC05AB6D
:10353000284A41F2020141F201002CF0E7FC099017
:10354000099B002B0CD024482DF0AEFC0246099BB1
:103550000093BF23214902202DF0E8FC099B33E0B2
:1035600007AB19461B482CF0D7FB0990099B002B91
:103570000CD019482DF098FC0246099B0093C223F9
:10358000164902202DF0D2FC099B1DE0089B102259
:103590001946134832F030FA0E482CF0F9FB099026
:1035A000099B002B0CD00C482DF07EFC0246099B99
:1035B0000093C723094902202DF0B8FC099B03E0C2
:1035C000039B084A1A60002318460BB05DF804FB01
:1035D0004C870500A04F002074850500F886050083
:1035E000B84F0020BC4F002000B58BB003901F499E
:1035F00004202DF05FFC039B002B01D10E2330E053
:10360000082203991A4832F0F7F91A4B42221A603D
:10361000184B04930323ADF8143041F20303ADF8C3
:10362000183041F20403ADF81A3004AB07930123BC
:10363000ADF8203006AB19460F482CF0F8FB099086
:10364000099B002B0CD00D482DF02EFC0246099B47
:103650000093E6230A4902202DF068FC099B00E054
:10366000002318460BB05DF804FB00BF7C87050003
:10367000CC4F0020C84F0020AC4F002074850500BF
:10368000F886050000B58BB0039005AB0822002139
:10369000184632F0DAF92A4904202DF00BFC05AB6C
:1036A000284A41F2040141F203002CF02FFC09905A
:1036B000099B002B0CD024482DF0F6FB0246099BF9
:1036C0000093F723214902202DF030FC099B33E0C1
:1036D00007AB19461B482CF01FFB0990099B002BD8
:1036E0000CD019482DF0E0FB0246099B0093FA2309
:1036F000164902202DF01AFC099B1DE0089B0C22A4
:103700001946134832F078F90E482CF041FB099025
:10371000099B002B0CD00C482DF0C6FB0246099BE0
:103720000093FF23094902202DF000FC099B03E0D0
:10373000039B084A1A60002318460BB05DF804FB8F
:10374000AC870500AC4F002074850500F8860500A5
:10375000C84F0020CC4F002000B593B005900491D5
:10376000039202938D4903202DF0A4FB059B002BAF
:1037700001D10E230DE1039B002B01D10E2308E1A3
:1037800087482CF033FA1190119B002B0DD08548FF
:103790002DF08AFB0246119B00934FF48A738249F5
:1037A00002202DF0C3FB119BF3E02CF03FFA1190A7
:1037B000119B002B0FD07B482DF076FB0246119B0E
:1037C000009340F21713784902202DF0AFFB119BB4
:1037D000DFE029F001FB754B1B7883F00103DBB2BE
:1037E000002BF6D1724B1B7883F00103DBB2002B68
:1037F000EFD10498FFF78EFE1190119B0A2B45D153
:103800006C4903202DF056FB0C2205996A4832F0D2
:10381000F3F86A4B42221A60684B0C930423ADF80C
:10382000343041F20103ADF8383041F20203ADF813
:103830003A300CAB0F930123ADF84030604B0022BF
:103840001A700EAB19465F482CF0E2FA1190119BEA
:10385000002B0DD053482DF027FB0246119B0093FF
:1038600040F23513504902202DF060FB119B90E08F
:10387000049B514A1A6001E029F0AEFA504B1B78C4
:1038800083F00103DBB2002BF6D110E0119B002B7B
:103890000DD044482DF008FB0246119B00934FF4D5
:1038A000A073414902202DF041FB119B71E0029869
:1038B000FFF7E8FE1190119B0A2B58D1039B1B8840
:1038C0009BB21946039B5B889BB21846039B9B885F
:1038D0009BB21A46039BDB889BB20193009203467E
:1038E0000A46394903202DF03AFB0822039937484C
:1038F00032F082F8364B42221A60354B079303238D
:10390000ADF8203041F20303ADF8243041F2040356
:10391000ADF8263007AB0A930123ADF82C302D4BC0
:1039200000221A7009AB19462B482CF071FA11903D
:10393000119B002B0DD01B482DF0B6FA0246119BAF
:1039400000934FF4AD73184902202DF0EFFA119B4C
:103950001FE0029B1D4A1A6001E029F03DFA1D4B51
:103960001B7883F00103DBB2002BF6D110E0119B32
:10397000002B0DD00B482DF097FA0246119B0093B7
:1039800040F26513084902202DF0D0FA119B00E0A7
:103990000023184613B05DF804FB00BFD88705006C
:1039A0004933020074850500F8860500D54F0020D4
:1039B000D74F002004880500BC4F0020B84F0020DE
:1039C000D44F0020A04F002038880500CC4F0020A5
:1039D000C84F0020D64F0020AC4F002000B589B062
:1039E0000190019B002B01D10E2327E0019B1B8836
:1039F0009BB2ADF80C30019B5B889BB2ADF80E30EA
:103A0000019B9B889BB2ADF81030019BDB889BB279
:103A1000ADF81230019B1B7A8DF8143003AB1846B9
:103A20000DF012FB0790079B0693069B002B04D01A
:103A3000044A4C21069829F04DF80023184609B095
:103A40005DF804FBA088050000B59BB003900192CF
:103A50001A460B468DF80B301346ADF808309DF82A
:103A60000B300B2B00F2138201A252F823F000BF9F
:103A7000273E0200A13A0200FF3A02005D3B02002D
:103A8000B73B0200153C02006F3C0200C93C02003B
:103A9000233D0200A13D0200F73D0200093E020065
:103AA000039B93F866301A46B44903202DF013FAAD
:103AB000039B93F86630002B10D04FF480700DF00C
:103AC00013F91990199B1893189B002B00F0E181B2
:103AD000AB4A6021189828F0FDFFDAE14FF48070BE
:103AE0000DF02AFA1990199B1793179B002B00F0E1
:103AF000D081A34A6521179828F0ECFFC9E1039B08
:103B000093F867301A469F4903202DF0E4F9039B90
:103B100093F86730002B10D04FF400700DF0E4F8EC
:103B20001990199B1693169B002B00F0B481944AB0
:103B30006E21169828F0CEFFADE14FF400700DF025
:103B4000FBF91990199B1593159B002B00F0A3818D
:103B50008B4A7321159828F0BDFF9CE1039B93F8D5
:103B600068301A46884903202DF0B5F9039B93F875
:103B70006830002B0FD008200DF0B6F81990199B73
:103B80001493149B002B00F088817D4A7C211498AB
:103B900028F0A0FF81E108200DF0CEF91990199BC3
:103BA0001393139B002B00F07881754A81211398A1
:103BB00028F090FF71E1039B93F869301A4673492E
:103BC00003202DF088F9039B93F86930002B10D067
:103BD0004FF480600DF088F81990199B1293129B96
:103BE000002B00F05C81664A8A21129828F072FF4F
:103BF00055E14FF480600DF09FF91990199B1193D6
:103C0000119B002B00F04B815D4A8F21119828F009
:103C100061FF44E1039B93F86A301A465C49032034
:103C20002DF059F9039B93F86A30002B0FD0072031
:103C30000DF05AF81990199B1093109B002B00F06F
:103C400030814F4A9821109828F044FF29E107203D
:103C50000DF072F91990199B0F930F9B002B00F038
:103C60002081474A9D210F9828F034FF19E1039BDA
:103C700093F86B301A46474903202DF02CF9039B2B
:103C800093F86B30002B0FD010200DF02DF8199009
:103C9000199B0E930E9B002B00F00581384AA6213C
:103CA0000E9828F017FFFEE010200DF045F919904E
:103CB000199B0D930D9B002B00F0F580304AAB2132
:103CC0000D9828F007FFEEE0039B93F86C301A463E
:103CD000314903202DF0FFF8039B93F86C30002B43
:103CE0000FD020200DF000F81990199B0C930C9B1D
:103CF000002B00F0DA80224AB4210C9828F0EAFE6A
:103D0000D3E020200DF018F91990199B0B930B9B11
:103D1000002B00F0CA801A4AB9210B9828F0DAFE6D
:103D2000C3E0039B93F86D301A461C4903202DF025
:103D3000D2F8039B93F86D30002B0FD040200CF08D
:103D4000D3FF1990199B0A930A9B002B00F0AF80B8
:103D50000B4AC2210A9828F0BDFEA8E040200DF0D1
:103D6000EBF81990199B0993099B002B00F09F8099
:103D7000034AC721099828F0ADFE98E0E8880500BD
:103D8000A08805003489050088890500D4890500CC
:103D9000248A0500708A0500BC8A05000C8B05008A
:103DA000039B93F86E301A46454903202DF093F893
:103DB000039B93F86E30002B0ED080200CF094FF04
:103DC0001990199B0893089B002B72D03D4AD02173
:103DD000089828F07FFE6CE080200DF0ADF8199077
:103DE000199B0793079B002B63D0364AD521079870
:103DF00028F070FE5DE0039B93F86F301A4632495D
:103E000003202DF068F857E0BDF80830039A0199B7
:103E1000184603F0A3FEBDF808301A4600210198A9
:103E200031F013FE48E0BDF808301A462749032058
:103E30002DF051F8BDF80830092B0CBF01230023E9
:103E4000DBB20693069B002B04D11E4AF021002012
:103E500028F040FE019800F031FF1990199B05935E
:103E6000059B002B04D0174AF321059828F032FE59
:103E70000198FFF7B3FD1990199B0493049B002B45
:103E800019D0104AF621049828F024FE13E000BF50
:103E900012E000BF10E000BF0EE000BF0CE000BF6A
:103EA0000AE000BF08E000BF06E000BF04E000BF7A
:103EB00002E000BF00E000BF00BF1BB05DF804FBE4
:103EC0005C8B0500A0880500AC8B0500FC8B050011
:103ED00000B589B003468DF80F303249324800F002
:103EE000A5FF0790079B002B0DD030482CF0DCFF7E
:103EF0000246079B009340F20D132D4902202DF03E
:103F000015F8079B49E09DF80F30002B0ED026488E
:103F100000F0D4FE0790079B0693069B002B05D06C
:103F2000224A4FF48971069828F0D4FD1D4B1B6876
:103F30001846FFF753FD0790079B002B0DD01B4839
:103F40002CF0B2FF0246079B00934FF48B73184985
:103F500002202CF0EBFF079B1FE004AB082200219E
:103F6000184631F072FD0F4B1B680493114B0593FB
:103F7000114903202CF09EFF04AB19460F4822F094
:103F800035FF0790079B002B06D0079A0C490120AC
:103F90002CF0A1FF079B00E00023184609B05DF854
:103FA00004FB00BF5450002094880500A088050041
:103FB0004C8C0500493A0200A08C0500D84F002027
:103FC000E08C050000B585B0019001990D4822F004
:103FD000DDFE019B1B88112B0FD140F6FF700CF00A
:103FE000ABFF0390039B0293029B002B05D0064A74
:103FF00040F23711029828F06DFD00BF05B05DF862
:1040000004FB00BFD84F0020A08805002DE9F04731
:10401000BAB002AFF860B9607A60FB681B78082B11
:1040200000F2718501A252F823F000BF5140020056
:10403000054502005D450200E745020073480200A5
:10404000C3480200EF490200454A0200B54A020097
:104050007B68242B0CBF01230023DBB2C7F8D830C8
:10406000D7F8D830002B05D11F4A4FF4A17100209A
:1040700028F030FDBB68C7F8D430002387F8DD3066
:1040800064E097F8DD309B00D7F8D42013441B6818
:104090001B14A7F8D23097F8DD30144A32F91330E8
:1040A000B7F9D2209A4225DB97F8DD10B7F9D20094
:1040B00097F8DD300D4A32F91330009303460A4673
:1040C0000B4902202CF032FF97F8DD30074A32F915
:1040D0001330194697F8DD309B00D7F8D4201344ED
:1040E0000A041A602DE000BFA088050014920500A4
:1040F0000C8D050097F8DD30C54A32F91330B7F959
:10410000D2209A421DDA97F8DD10B7F9D20097F85D
:10411000DD30BF4A32F91330009303460A46BD49E9
:1041200002202CF003FF97F8DD30B94A32F9133042
:10413000194697F8DD309B00D7F8D42013440A04C1
:104140001A6097F8DD30013387F8DD3097F8DD30FD
:10415000082B96D9D7F8D4301B689B111BB2A7F84F
:104160006430D7F8D43004331B689B111BB2A7F816
:104170006630D7F8D43008331B689B111BB2A7F800
:104180006830D7F8D4300C331B68DB121BB2A7F8A9
:104190006A30D7F8D43010331B68DB121BB2A7F893
:1041A0006C30D7F8D43014331B68DB121BB2A7F87D
:1041B0006E30D7F8D43018331B681B139BB25B42A8
:1041C0009BB21BB2A7F87230D7F8D4301C331B68EF
:1041D0001B131BB2A7F87030D7F8D43020331B68FC
:1041E0001B131BB2A7F874308B4904202CF062FE1D
:1041F000D7F8D4301B6818462EF0D2FD03460C4683
:10420000C7E932344FF00002844BD7E932012FF076
:1042100057F903460C46C7E9323407F15C00D7E989
:1042200032237F4931F01CFA07F15C0318462CF069
:104230003BFE03461A467B4904202CF04CFED7F87F
:10424000D43004331B6818462EF0AAFD03460C46F2
:10425000C7E932344FF00002704BD7E932012FF03A
:104260002FF903460C46C7E9323407F15C00D7E961
:1042700032236B4931F0F4F907F15C0318462CF056
:1042800013FE03461A46684904202CF024FED7F892
:10429000D43008331B6818462EF082FD03460C46C6
:1042A000C7E932344FF000025C4BD7E932012FF0FE
:1042B00007F903460C46C7E9323407F15C00D7E939
:1042C0003223574931F0CCF907F15C0318462CF042
:1042D000EBFD03461A46554904202CF0FCFDD7F8A7
:1042E000D4300C331B6818462EF05AFD03460C469A
:1042F000C7E932344FF00002484BD7E932012FF0C2
:10430000DFF803460C46C7E9323407F15C00D7E911
:104310003223434931F0A4F907F15C0318462CF02D
:10432000C3FD03461A46424904202CF0D4FDD7F8B9
:10433000D43010331B6818462EF032FD03460C466D
:10434000C7E932344FF00002344BD7E932012FF085
:10435000B7F803460C46C7E9323407F15C00D7E9E9
:1043600032232F4931F07CF907F15C0318462CF019
:104370009BFD03461A462F4904202CF0ACFDD7F8CC
:10438000D43014331B6818462EF00AFD03460C4641
:10439000C7E932344FF00002204BD7E932012FF049
:1043A0008FF803460C46C7E9323407F15C00D7E9C1
:1043B00032231B4931F054F907F15C0318462CF005
:1043C00073FD03461A461C4904202CF084FDD7F8DF
:1043D000D4301C331B6818462EF0E2FC03460C4612
:1043E000C7E932344FF000020C4BD7E932012FF00D
:1043F00067F803460C46C7E9323407F15C00D7E999
:104400003223074931F02CF907F15C03184615E017
:1044100028920500588D0500A48D05000000F0408D
:10442000D48D0500DC8D05000C8E05003C8E05004A
:104430006C8E0500A08E0500D48E05002CF034FD96
:1044400003461A46BC4904202CF045FDD7F8D43069
:1044500018331B6818462EF0A3FC03460C461A4678
:10446000C7F8C82084F00043C7F8CC304FF00002F2
:10447000B24BD7E932012FF023F803460C46C7E9C7
:10448000323407F15C00D7E93223AD4931F0E8F866
:1044900007F15C0318462CF007FD03461A46A949AC
:1044A00004202CF018FDD7F8D43020331B681846B0
:1044B0002EF076FC03460C46C7E932344FF000027A
:1044C0009E4BD7E932012EF0FBFF03460C46C7E9AD
:1044D000323407F15C00D7E93223994931F0C0F852
:1044E00007F15C0318462CF0DFFC03461A46964998
:1044F00004202CF0F0FC07F164031946934822F0E5
:1045000061FE05E37B68102B0CBF01230023DBB2A7
:10451000C7F8C430D7F8C430002B05D18C4A40F21C
:10452000BF11002028F0D6FABB68C7F8C030D7F812
:10453000C0301B68FB64D7F8C0305B683B65D7F8B8
:10454000C0309B687B65D7F8C030DB68BB6507F17E
:104550004C0319467D4822F0AFFDD9E27B680C2B55
:104560000CBF01230023DBB2C7F8BC30D7F8BC3046
:10457000002B05D1764A40F2E111002028F0AAFA7A
:10458000BB68C7F8B830D7F8B8301B683B64D7F8B9
:10459000B8305B687B64D7F8B8309B68BB643B6C11
:1045A000002B02DA03F57F43FF331B141A467B6CA2
:1045B000002B02DA03F57F43FF331B141946BB6C53
:1045C000002B02DA03F57F43FF331B1400930B46E5
:1045D000604904202CF0AAFC07F1400319465B480F
:1045E00022F033FE94E26B469A467B68242B0CBF84
:1045F00001230023DBB2C7F8B430D7F8B430002B66
:1046000005D1534A4FF4F971002028F063FABB68D2
:10461000C7F8B030D7F8B0301B681B141BB2BB858D
:10462000D7F8B03004331B681B141BB2FB85D7F8D6
:10463000B03008331B681B141BB23B86D7F8B03070
:104640000C331B681B141BB27B86D7F8B0301033B9
:104650001B681B141BB2BB86D7F8B03014331B6821
:104660001B141BB2FB86D7F8B03018331B681B1421
:104670001BB23B87D7F8B0301C331B681B141BB22E
:104680007B87D7F8B03020331B681B141BB2BB8765
:10469000314B1B78013BC7F8AC302F4B1B78D9B29C
:1046A0004FF000020B46144613EB030844EB0409D9
:1046B00043464C465B1842EB04044FF000014FF0B8
:1046C0000002220142EA137219010B461446224BE2
:1046D0001B781A4613465B0013445B001E4B1B7885
:1046E000D9B24FF000020B461446DD1844EB040625
:1046F0002B4634465B1842EB04044FF000014FF0A8
:104700000002220142EA137219010B461446124BB1
:104710001B781A4613465B0013445B000733DB0823
:10472000DB00ADEB030D02AB0033C7F8A83000236C
:1047300087F8DE3038E000BF088F05000000F04049
:10474000D48D0500388F0500688F0500D84F0020F4
:10475000A0880500988F05003A92050097F8DE3092
:104760009B00D7F8B02013441B6818462EF018FBA6
:104770004FF00002C24B2EF0A3FE03460C46C7E9E1
:10478000283497F8DE2013465B0013445B00D7F80B
:10479000A820D018D7E92823BA4930F061FF97F84C
:1047A000DE30013387F8DE30B74B1B7897F8DE2018
:1047B0009A42D3D3B54904202CF07CFBD7F8A8301B
:1047C00018462CF071FB0446D7F8A830063318467B
:1047D0002CF06AFB0546D7F8A8300C3318462CF0AD
:1047E00063FB034600932B462246A94904202CF084
:1047F0009DFBD7F8A830123318462CF055FB044621
:10480000D7F8A830183318462CF04EFB0546D7F8D9
:10481000A8301E3318462CF047FB034600932B4666
:1048200022469B4904202CF081FBD7F8A830243382
:1048300018462CF039FB0446D7F8A8302A3318461E
:104840002CF032FB0546D7F8A830303318462CF050
:104850002BFB034600932B4622468D4904202CF067
:1048600065FB07F12C0319468A4822F031FDD54635
:104870004EE17B68042B0CBF01230023DBB2C7F899
:104880009C30D7F89C30002B05D1834A40F2172189
:10489000002028F01FF9BB681B68BB62BB6A002BB5
:1048A00002DA03F57F43FF331B141A467B490420C9
:1048B0002CF011FB07F128031946764822F04BFD36
:1048C00026E16B461D467B680C2B0CBF01230023A1
:1048D000DBB2C7F89830D7F89830002B05D16E4A74
:1048E00040F22221002028F0F5F8BB68C7F8943088
:1048F000D7F894301B68FB61D7F894305B683B6253
:10490000D7F894309B687B62654B1B78013BC7F8F6
:104910009030634B1B78D9B24FF000024FF0000388
:104920004FF00004940144EA91648B015C4B1B78C6
:10493000D9B24FF000024FF000034FF00004940191
:1049400044EA91648B01564B1B78DB000733DB088C
:10495000DB00ADEB030D02AB0033C7F88C30002356
:1049600087F8DF301AE097F8DF30DB00D7F88C20CB
:10497000D41897F8DF309B00D7F8942013441B68B5
:1049800018462EF049FB02460B464649204630F0B9
:1049900067FE97F8DF30013387F8DF30404B1B7834
:1049A00097F8DF209A42DED3D7F88C3018462CF0E7
:1049B0007BFA0446D7F88C30083318462CF074FA8A
:1049C0000646D7F88C30103318462CF06DFA0346A3
:1049D000009333462246344904202CF0A7FA07F10D
:1049E0001C0319462B4822F0FAFCAD4690E07B6888
:1049F000022B0CBF01230023DBB2C7F88830D7F8A5
:104A00008830002B05D1244A40F23F21002028F0B5
:104A100061F8BB68C7F88430D7F884301B783B76E0
:104A2000D7F884305B787B767B7E1A463B7E1F49C5
:104A300004202CF064FA07F118031946154822F0F7
:104A4000B5FA65E07B68012B0CBF01230023DBB2C4
:104A5000C7F88030D7F88030002B05D10E4A4FF4CC
:104A60001471002028F036F8BB681B781A461049EC
:104A700004202CF030FAB968064822F0DAFA47E050
:104A80000000D041FC8F05003A920500049005001B
:104A900038900500D84F0020A088050060900500E0
:104AA0003B920500A0900500A8900500F490050039
:104AB0002C9105007B68082B0CBF01230023DBB27F
:104AC000FB67FB6F002B05D1144A40F25A210020EE
