:020000021000EC
:10F000000000012033F10100D9F00100DBF0010024
:10F01000DDF00100DFF00100E1F001000000000080
:10F02000000000000000000000000000E3F001000C
:10F03000E5F0010000000000E7F00100E9F0010048
:10F04000D1C00400EDF00100EFF0010031B4040084
:10F05000F3F001003130050039A30400B1C304000E
:10F06000FBF00100FDF00100FFF0010001F10100E3
:10F0700003F1010095D2040007F1010009F101003C
:10F080000BF10100B1E804000FF1010011F10100E2
:10F09000F1E8040015F10100B91B050019F10100A8
:10F0A0001BF101001DF101003DD40400992D050064
:10F0B00049BD04004DCE0400000000000000000027
:10F0C00027F1010029F101002BF101002DF10100D0
:08F0D0002FF1010031F10100F4
:10F0D800FEE7FEE7FEE7FEE7FEE7FEE7FEE7FEE700
:10F0E800FEE7FEE7FEE7FEE7FEE7FEE7FEE7FEE7F0
:10F0F800FEE7FEE7FEE7FEE7FEE7FEE7FEE7FEE7E0
:10F10800FEE7FEE7FEE7FEE7FEE7FEE7FEE7FEE7CF
:10F11800FEE7FEE7FEE7FEE7FEE7FEE7FEE7FEE7BF
:10F12800FEE7FEE7FEE7FEE7FEE70348854600F058
:10F13800C5F800F003B87047000001203749384887
:10F148000A1A02D0072291438D46364936480A1AD0
:10F1580006D00722914381F30988022282F314889A
:10F1680032483349334A00F048F833483349344A7F
:10F1780000F043F833483449344A00F03EF8344844
:10F188003449354A00F039F834483549354A00F0F1
:10F1980034F835483549364A00F02FF835483649AD
:10F1A800364A00F02AF836483649374A00F025F83A
:10F1B80036483749002200F02BF8364836490022F5
:10F1C80000F026F835483649091A082903DB0022D9
:10F1D8000260043001601F481F49884205D0026858
:10F1E800043003B4904703BCF7E700208646EC469A
:10F1F800002000212B4A9047FEE7884207D0521A88
:10F2080005D0037801300B700131013AF9D170470C
:10F21800884202D002700130FAE7704700000120EE
:10F2280000FC00200000012000000120F84F06002B
:10F238005845002078460020B0F20100B0F20100E5
:10F24800B0790500F84F06005845002058450020C1
:10F25800B0790500B0790500B0790500B0790500EE
:10F26800B0790500B0790500B0790500B0790500DE
:10F27800F84F06001851060078460020784600200E
:10F28800185106007846002088460020884600204D
:10F2980068A1002068A1002070A1002070A10020B2
:08F2A80070A5002091FD01009A
:10F2B000024B034A1A6000BF704700BF5845002048
:10F2C0000090D00308B500F00DF90346002B06D0DE
:10F2D000744B1B681B0A744A03F01F03136000F091
:10F2E0002DF90346002B02D0704B714A1A6000F0D2
:10F2F00041F90346002B06D06E4B1B685B0B6E4A30
:10F3000003F00703136000F061F90346002B05D0FA
:10F310006A4BDB68694A23F08073D36000F072F9AE
:10F320000346002B0ED04FF080430022C3F80C217F
:10F330004FF080430022C3F810214FF08043002299
:10F34000C3F8382500F08AF90346002B02D05C4B45
:10F3500003221A6000F09EF90346002B0BD0594B94
:10F3600005221A60584B01221A60584B00221A607D
:10F37000574B3F221A6000F0A9F90346002B76D0C4
:10F380004FF08053534AD3F80434C2F820354FF07D
:10F390008053504AD3F80834C2F824354FF08053D4
:10F3A0004C4AD3F80C34C2F828354FF08053494A00
:10F3B000D3F81034C2F82C354FF08053454AD3F8B7
:10F3C0001434C2F830354FF08053424AD3F8183421
:10F3D000C2F834354FF080533E4AD3F81C34C2F89B
:10F3E00040354FF080533B4AD3F82034C2F84435BF
:10F3F0004FF08053374AD3F82434C2F848354FF0E1
:10F400008053344AD3F82834C2F84C354FF0805337
:10F41000304AD3F82C34C2F850354FF080532D4A7F
:10F42000D3F83034C2F854354FF08053294AD3F81A
:10F430003434C2F860354FF08053264AD3F838345C
:10F44000C2F864354FF08053224AD3F83C34C2F8F6
:10F4500068354FF080531F4AD3F84034C2F86C35FA
:10F460004FF080531B4AD3F84434C2F8703500F093
:10F4700049F90346002B05D0174B1B68174A03F0C8
:10F480004F031360164BD3F88830154A43F47003CA
:10F49000C2F88830BFF34F8FBFF36F8FFFF708FFBD
:10F4A00000BF08BD240300104035014074C0074070
:10F4B0000DF0ADBA440200103C050040F0ED00E054
:10F4C000A0050040105600408856004018560040E5
:10F4D0001456004000C0004058020010E40E0040E6
:10F4E00000ED00E0124B1B68DBB2062B1DD1114B67
:10F4F0001B6803F00F03002B17D10F4B1B6803F0A1
:10F50000F003302B01D1012310E00B4B1B6803F0FB
:10F51000F003402B01D1012308E0074B1B6803F0E7
:10F52000F003502B01D1012300E00023184670475F
:10F53000E00F00F0E40F00F0E80F00F00A4B1B684A
:10F54000DBB2062B0DD1094B1B6803F00F03002B18
:10F5500007D1074B1B6803F0F003302B01D10123C7
:10F5600000E0002318467047E00F00F0E40F00F0C1
:10F57000E80F00F0124B1B68DBB2062B1DD1114BBC
:10F580001B6803F00F03002B17D10F4B1B6803F010
:10F59000F003302B01D1012310E00B4B1B6803F06B
:10F5A000F003402B01D1012308E0074B1B6803F057
:10F5B000F003502B01D1012300E0002318467047CF
:10F5C000E00F00F0E40F00F0E80F00F00A4B1B68BA
:10F5D000DBB2062B0DD1094B1B6803F00F03002B88
:10F5E00007D1074B1B6803F0F003302B01D1012337
:10F5F00000E0002318467047E00F00F0E40F00F031
:10F60000E80F00F0124B1B68DBB2062B1DD1114B2B
:10F610001B6803F00F03002B17D10F4B1B6803F07F
:10F62000F003302B01D1012310E00B4B1B6803F0DA
:10F63000F003402B01D1012308E0074B1B6803F0C6
:10F64000F003502B01D1012300E00023184670473E
:10F65000E00F00F0E40F00F0E80F00F00A4B1B6829
:10F66000DBB2062B0DD1094B1B6803F00F03002BF7
:10F6700007D1074B1B6803F0F003302B01D10123A6
:10F6800000E0002318467047E00F00F0E40F00F0A0
:10F69000E80F00F00A4B1B68DBB2062B0DD1094BBB
:10F6A0001B6803F00F03002B07D1074B1B6803F007
:10F6B000F003302B01D1012300E0002318467047EE
:10F6C000E00F00F0E40F00F0E80F00F00A4B1B68B9
:10F6D000DBB2062B0DD1094B1B6803F00F03002B87
:10F6E00007D1074B1B6803F0F003502B01D1012316
:10F6F00000E0002318467047E00F00F0E40F00F030
:10F70000E80F00F0124B1B68DBB2062B1DD1114B2A
:10F710001B6803F00F03002B17D10F4B1B6803F07E
:10F72000F003302B01D1012310E00B4B1B6803F0D9
:10F73000F003402B01D1012308E0074B1B6803F0C5
:10F74000F003502B01D1012300E00023184670473D
:10F75000E00F00F0E40F00F0E80F00F00048704701
:10F7600060A1002082B003468DF807309DF8073075
:10F7700003F01F0206499DF907305B09012000FADA
:10F7800002F2603341F8232000BF02B0704700BF8F
:10F7900000E100E0BFF34F8F054BDB6803F4E0624C
:10F7A0000349044B1343CB60BFF34F8F00BFFDE70A
:10F7B00000ED00E00400FA0532DF704700BF184694
:10F7C0003EDF704700BF184682B001904FF0A04363
:10F7D000184602B0704700B585B001900846114642
:10F7E0001A4603468DF803300B468DF80230134657
:10F7F0008DF8013001AB1846FFF7E6FF03909DF846
:10F8000003209DF802305B001A439DF801309B00F5
:10F810001A439DF818301B0242EA03019DF81C3080
:10F820001B04019A1943039B02F5E07243F822106E
:10F8300000BF05B05DF804FB00B585B003900B4632
:10F840008DF80B3013468DF80A309DF80B209DF88B
:10F850000A300193002300931346002200210398ED
:10F86000FFF7B9FF00BF05B05DF804FB84B001905D
:10F87000244B0393019B002B40D0234B1A68039920
:10F88000019B00BF00BF00BF00BF00BF00BF00BFA3
:10F8900000BF8A422FD000BF00BF00BF00BF00BF23
:10F8A00000BF00BF00BF00BF00BF00BF00BF00BF60
:10F8B00000BF00BF00BF00BF00BF00BF00BF00BF50
:10F8C00000BF00BF00BF00BF00BF00BF00BF00BF40
:10F8D00000BF00BF00BF00BF00BF00BF00BF00BF30
:10F8E00000BF00BF00BF00BF00BF00BF00BF00BF20
:10F8F00000BF00BF00BF013BC3D1019300BF04B0F4
:10F90000704700BF0024F4005845002000B583B0C4
:10F910000190019B4FF47A7202FB03F31846FFF744
:10F92000A5FF00BF03B05DF804FB000070B58AB00E
:10F93000079006910592059B0993099B5B68184601
:10F9400032F05EFA0546099B1B881E46099B9C689F
:10F95000099B9B68184632F037FE0346184632F082
:10F960004FFA03460393029401960095069B079A6B
:10F970000849012032F0BAFA022005F053FE0520B2
:10F98000FFF7C4FF059A069907982EF067F800BFA5
:10F990000AB070BD287A050000B587B0F1EE103AC4
:10F9A0000193019B23F09F030293029BE1EE103A27
:10F9B000F1EE103A03932620FFF7D4FEFFF700FF85
:10F9C0000590059B0493049B002B04D0044AB921A5
:10F9D00004982EF02BF800BF07B05DF804FB00BFC1
:10F9E000BC7A050000B589B00390039B5B881A467A
:10F9F000039B1B791946039B1B7800930B462049F8
:10FA0000032032F03FFA039B002B34D0039B1B787A
:10FA1000012B30D107F0F2FF0790079B0693069B5E
:10FA2000002B04D0174ACB2106982DF0FFFF0222AD
:10FA300000210D20FFF700FF1349022032F0E6F904
:10FA4000FFF7BAFE079007F0B7FD034683F0010306
:10FA5000DBB2002B0AD0079B0593059B002B0AD035
:10FA6000084AD82105982DF0E1FF04E0074902205B
:10FA700032F0CCF9FEE700BF09B05DF804FB00BF2F
:10FA8000D47B0500BC7A05001C7C0500987B050032
:10FA900000B583B00190019B1B78012B08D0022B8D
:10FAA00010D0002B15D10D49032032F0AFF910E032
:10FAB0000B49032032F0AAF90520FFF727FFFFF7D3
:10FAC00069FE06E00749032032F0A0F9FFF762FE65
:10FAD00000BF00BF03B05DF804FB00BF807C0500E1
:10FAE000BC7C0500FC7C050000B59BB001AB24226A
:10FAF0000021184636F055FF1C238DF80A300523E7
:10FB00008DF80B300D238DF80C3011238DF80D304E
:10FB100001238DF80E3004238DF80F3040F61C437E
:10FB2000ADF8103041F25E03ADF81230594B059339
:10FB3000594B06936F23ADF81C3040F61C43ADF8CB
:10FB40001E300A238DF82030544B09930F2006F005
:10FB5000B3FD1990199B1893189B002B05D0504AA0
:10FB60004FF4897118982DF061FF4E4B0F930FAB36
:10FB700019464D4805F0F8FD1990199B1793179BEE
:10FB8000002B05D0464A4FF48C7117982DF04EFF8C
:10FB9000444B0E930EAB1946444803F0EFFA19900C
:10FBA000199B1693169B002B05D03D4A4FF48F717D
:10FBB00016982DF03BFF3B4B0D930DAB19463C487F
:10FBC00004F0B4FF1990199B1593159B002B05D0D9
:10FBD000334A40F2251115982DF028FF354806F0DC
:10FBE000AFF91990199B1493149B002B05D02C4A44
:10FBF0004FF4947114982DF019FF2F4B019301AB22
:10FC000019462E4807F0B6FA1990199B1393139BC7
:10FC1000002B05D0224A40F22D1113982DF006FF3B
:10FC200041F2883007F026FA1990199B1293129B23
:10FC3000002B05D01A4A4FF4987112982DF0F6FE59
:10FC40001F4B0A93194B0B9305230C930AAB1846D1
:10FC500001F094FC1990199B1193119B002B05D076
:10FC60000F4A4FF49C7111982DF0E0FE012005F031
:10FC7000D9FC1990199B1093109B002B05D0084AB2
:10FC800040F23B1110982DF0D1FE00BF1BB05DF883
:10FC900004FB00BF60E3160020BF0200B07905003E
:10FCA000BC7A0500207A050098460020884600208E
:10FCB00090460020A0460020E5F90100A84600205B
:10FCC00091FA010000B585B00C4B019301AB1846C9
:10FCD00007F042FE0390039B0293029B002B05D08A
:10FCE000074A4FF4AF7102982DF0A0FE6420FFF791
:10FCF0000DFE00BF05B05DF804FB00BF787D050078
:10FD0000BC7A050000B589B01E4B02931E4B0393CD
:10FD100002AB18460BF0D2FB0790079B0693069B9D
:10FD2000002B05D0194A40F2751106982DF07EFE81
:10FD3000144B0093144B01936B4618460BF052FC86
:10FD40000790079B0593059B002B05D00F4A40F2B7
:10FD50007B1105982DF06AFE0BF042FE0790079B81
:10FD60000493049B002B05D0084A4FF4BF710498FC
:10FD70002DF05CFE6420FFF7C9FD00BF09B05DF8FF
:10FD800004FB00BF207A0500947D0500BC7A0500C5
:10FD900000B587B0002031F0E3FF0590059B049388
:10FDA000049B002B05D01B4A4FF4D77104982DF00B
:10FDB0003DFE1949032032F029F8184A3C21082059
:10FDC0002DF0F0FE0390039B0293029B002B05D0C5
:10FDD000104A4FF4DA7102982DF028FE2EF08EFDB5
:10FDE0000590059B0193019B002B05D0094A4FF418
:10FDF000DB7101982DF01AFEFFF764FFFFF774FE28
:10FE0000FFF780FF07F022FE2DF092FFFFF7C4FD01
:10FE1000FAE700BFBC7A0500387D0500B046002037
:10FE20006DDF704700BF184676DF704700BF184689
:10FE30007ADF704700BF18467CDF704700BF184666
:10FE40007FDF704700BF18468FDF704700BF18463E
:10FE50009EDF704700BF1846A9DF704700BF1846F5
:10FE6000ADDF704700BF184669DF704700BF184616
:10FE700066DF704700BF184631DF704700BF184685
:10FE80003DDF704700BF184684B00190244B0393B8
:10FE9000019B002B40D0234B1A680399019B00BFA4
:10FEA00000BF00BF00BF00BF00BF00BF00BF8A424D
:10FEB0002FD000BF00BF00BF00BF00BF00BF00BF0A
:10FEC00000BF00BF00BF00BF00BF00BF00BF00BF3A
:10FED00000BF00BF00BF00BF00BF00BF00BF00BF2A
:10FEE00000BF00BF00BF00BF00BF00BF00BF00BF1A
:10FEF00000BF00BF00BF00BF00BF00BF00BF00BF0A
:10FF000000BF00BF00BF00BF00BF00BF00BF00BFF9
:10FF100000BF013BC3D1019300BF04B0704700BFD5
:10FF20000024F4005845002000B583B00190019BE7
:10FF30004FF47A7202FB03F31846FFF7A5FF00BFE8
:10FF400003B05DF804FB000000B583B001900091A0
:10FF5000009B1B78012B09D0022B02D0002B0AD06A
:10FF60000EE00C49032031F051FF0EE00A49032056
:10FF700031F04CFF09E00949032031F047FF04E06C
:10FF80000749022031F042FF00BF00BF03B05DF817
:10FF900004FB00BFC87F0500088005004480050001
:10FFA0008480050000B585B00023019301AB18469D
:10FFB0002FF0B8F803468DF80F309DF80F300293FC
:10FFC000029B002B04D0074A842102982DF02EFDBD
:10FFD000019B002B14BF01230023DBB2184605B0A0
:10FFE0005DF804FBC080050000B589B003900B46A6
:10FFF0008DF80B3000238DF817300DF117031846DC
:020000022000DC
:100000002DF0E4F800238DF81F3016E09DF81F3026
:1000100001338DF81F302E49022031F0F7FE0DF12B
:10002000170318462DF0D2F80520FFF77DFF9DF845
:100030001F30052B01D90D2345E09DF817309DF8A1
:100040000B209A42E2D89DF817301A462149032026
:1000500031F0EDFE9DF80B30194603982DF0D2F8E3
:100060000690069B002B0CD01B4831F0C9FE0246BF
:10007000069B0093A3231949022031F003FF069B3E
:1000800021E01749032031F0C1FE00238DF81E3016
:100090000EE09DF81E30039A13441B781A4611494E
:1000A000132031F0C4FE9DF81E3001338DF81E3050
:1000B0009DF81E209DF80B309A42EAD30A4913207E
:1000C00031F0A4FE0023184609B05DF804FB00BF20
:1000D0000481050054810500C08005008C81050065
:1000E000E0810500108205001882050010B586B079
:1000F0009DF804306FF303038DF804309DF804304D
:100100006FF307138DF80430474B1B681C46464BB2
:100110001B68184636F0C1FC03469AB201AB214673
:100120001846FFF789FE0590059B0493049B002B5E
:1001300004D03E4AC22104982DF078FC02AB08227C
:100140000021184636F02DFC374B1B68B3F80F30F2
:100150009BB2ADF80830344B1B68B3F811309BB23A
:10016000ADF80A30304B1B68B3F813309BB2ADF8D2
:100170000C302D4B1B68B3F815309BB2ADF80E3028
:1001800002AB1846FFF754FE0590059B072B41D1A3
:10019000254B1B68002242F00602DA7300221A7413
:1001A000214B1B68002242F00C025A7400229A7400
:1001B0001D4B1B680022DA7400221A751A4B1B684B
:1001C000002242F040025A75002242F001029A7564
:1001D000154B1B68184601F05FFB0590059B002B33
:1001E00001D0059B1CE00623ADF808300C23ADF8C8
:1001F0000A300023ADF80C304FF4A073ADF80E3088
:1002000002AB1846FFF714FE0590059B002B06D0A5
:10021000059B05E0059B002B01D0059B00E000231A
:10022000184606B010BD00BFD84A0020C0800500A7
:1002300000B585B00190019B1B78002B16D11149A8
:10024000012031F0E3FD104B1B883B211846FFF7DE
:10025000EBFD0390039B0293029B002B0ED00B4AF5
:1002600040F2011102982DF0E1FB07E0019B1B78A1
:10027000012B03D10649032031F0C8FD00BF05B0B2
:100280005DF804FB1C8205005C450020C080050071
:100290006C82050000B583B00190019A06490120E7
:1002A00031F0C5FD054A40F2151101982DF0BEFB55
:1002B00000BF03B05DF804FBB8820500C0800500F4
:1002C00000B58BB002AB1C220021184636F069FB4A
:1002D0006B4608220021184636F063FB1F4B1B6853
:1002E000B3F80F309BB2ADF800301C4B1B68B3F86D
:1002F00011309BB2ADF80230184B1B68B3F81330C5
:100300009BB2ADF80430154B1B68B3F815309BB2A7
:10031000ADF806306B4602934FF4004303934FF45D
:100320007023049303238DF814300023ADF81630A6
:1003300000238DF818300A4B07930A4B089302AB41
:10034000184623F01DFB0990099B002B01D0099B47
:1003500000E0002318460BB05DF804FBD84A0020EB
:10036000310202009502020000B589B003468DF803
:1003700007309DF80730002B06D0032B20D11449FD
:10038000032031F043FD1EE01249032031F03EFD11
:1003900002238DF80C30104B1B6803AA10469847B7
:1003A000032023F039F90790079B0693069B002B47
:1003B00008D00A4A40F2531106982DF037FB01E0AD
:1003C00000BF00E000BF00BF09B05DF804FB00BF44
:1003D000F48205002C830500804A0020C0800500BF
:1003E00000B58DB00190019B1B88013B542B00F29E
:1003F0006F8101A252F823F001060200D10602002B
:10040000D1060200D1060200D1060200D106020088
:10041000D1060200D1060200D1060200D106020078
:10042000D1060200D1060200D1060200D106020068
:10043000D10602004D0502006F050200D106020040
:10044000AF050200D1060200D1060200D10602006B
:10045000D1060200D1060200D1060200D106020038
:10046000D1060200D1060200D1060200D106020028
:10047000D1060200D106020097060200C70602005C
:10048000D1060200D1060200D1060200D106020008
:10049000D1060200D1060200D1060200D1060200F8
:1004A000D1060200D1060200D1060200D1060200E8
:1004B000D1060200D1060200D1060200D1060200D8
:1004C000D1060200D1060200D1060200D1060200C8
:1004D000D1060200D1060200D10602008706020002
:1004E000D1060200D1060200D1060200D1060200A8
:1004F000D1060200D1060200D1060200D106020098
:10050000D1060200D1060200D1060200D106020087
:10051000D1060200D1060200D1060200D106020077
:10052000D1060200D1060200D1060200D106020067
:10053000D1060200D1060200D1060200D905020050
:10054000D1060200D10602002706020068490320F6
:1005500031F05CFC019B9A88664B1A8000238DF871
:100560000830654B1B6802AA10469847BBE0019B08
:100570001B7A1A466149032031F059FC5D4B4FF656
:10058000FF721A80FFF70EFD0346002B03D05C4B71
:1005900001221A70A7E05A4B00221A7001238DF82D
:1005A0000830554B1B6802AA104698479BE0514BF8
:1005B0001888002300228521FFF742FC0B900B9B3B
:1005C0000A930A9B002B00F085804E4A40F283116B
:1005D0000A982DF02BFA7DE0464B18880023002264
:1005E0000021FFF739FC0B900B9B0993099B002B13
:1005F00072D0444A40F2891109982DF017FA6BE045
:100600003C4B1B8800211846FFF732FC0B900B9BDC
:100610000893089B002B61D03A4A4FF4C7710898A1
:100620002DF004FA5AE0019BDB881A463649032074
:1006300031F0FDFB019B9B884FF48A711846FFF750
:100640000FFC0B900B9B0793079B002B05D02D4AAB
:100650004FF4CB7107982DF0E9F9019BDA882B4B09
:10066000A3F8012029492A4825F0C0FA0B900B9BDA
:100670000693069B002B33D0224A4FF4CD71069887
:100680002DF0D4F92CE0019B5B891A462149032007
:1006900031F0CDFB27E02049032031F0B7FB019B6F
:1006A0009B88002200211846FFF7CEFB0B900B9B86
:1006B0000593059B002B15D0124A40F2A71105980F
:1006C0002DF0B4F90EE01549032031F09FFB0AE04C
:1006D00000BF08E000BF06E000BF04E000BF02E08A
:1006E00000BF00E000BF00BF0DB05DF804FB00BF1D
:1006F000648305005C450020804A0020A08305003B
:10070000DF4A0020C0800500F0830500DC4A00209D
:100710008C4A0020408405008C840500DC840500A0
:1007200000B585B00190019823F05CFB019823F09F
:1007300059FA0023039312E0144B1A68039BDB0061
:1007400013445B68002B07D0104B1A68039BDB0037
:1007500013445B6801989847039B013303930C4B48
:100760001B68039A9A42E7D301990A4825F083F956
:100770000199094830F099FF0198FFF731FE01987F
:1007800023F034F800BF05B05DF804FB844A002074
:10079000884A00208C4A0020FC4A002000B587B01F
:1007A000019001982EF0D0FC019805F079FE019897
:1007B00023F038F8019B022B02D0019B032B13D1AD
:1007C000FFF7F0FB034683F00103DBB2002B0BD0F5
:1007D000074B1B78002B07D001238DF80C30054BFD
:1007E0001B6803AA1046984700BF07B05DF804FBDA
:1007F000DF4A0020804A002000B593B0A54B1B685B
:10080000049304A8A44B4FF4A672A44931F048F90C
:100810001190119B1093109B002B05D0A04A4FF410
:10082000FE7110982DF002F90023039303AB1846D4
:1008300031F0FAF90F900F9B0E930E9B002B05D011
:10084000974A4FF400710E982DF0F0F86B460C2289
:100850000021184636F0A5F801238DF800304FF43A
:100860008A73ADF80230039A6B4619462320FFF7CE
:10087000FBFA0F900F9B0D930D9B002B05D0884A20
:1008800040F209210D982DF0D1F86B460C22002181
:10089000184636F086F801238DF8003001238DF8D4
:1008A00002300623ADF80430039A6B461946202027
:1008B000FFF7DAFA0F900F9B0C930C9B002B05D0DF
:1008C000774A40F211210C982DF0B0F86B460C22BB
:1008D0000021184636F065F801238DF8003010230A
:1008E0008DF80230039A6B4619462220FFF7BCFAB6
:1008F0000F900F9B0B930B9B002B05D0684A4FF476
:1009000006710B982DF092F86B460C2200211846C8
:1009100036F047F801238DF8003002238DF80230BD
:10092000039A6B4619462120FFF79EFA0F900F9B02
:100930000A930A9B002B05D0594A40F21F210A98BE
:100940002DF074F86B460C220021184636F029F879
:1009500002238DF80030039A6B4619460120FFF7F9
:1009600083FA0F900F9B0993099B002B05D04C4AEB
:100970004FF4097109982DF059F86B460C220021AB
:10098000184636F00EF801238DF80030039A6B46B6
:1009900019464020FFF768FA0F900F9B0893089BB9
:1009A000002B05D03E4A40F2292108982DF03EF850
:1009B0006B460C220021184635F0F3FF4FF47A63A2
:1009C0000093039A6B461946A120FFF74DFA0F904A
:1009D0000F9B0793079B002B05D0314A40F22E2135
:1009E00007982DF023F86B460C220021184635F0AD
:1009F000D8FF9DF8003043F001038DF80030039AD2
:100A00006B461946A020FFF72FFA0F900F9B069315
:100A1000069B002B05D0224A40F2332106982DF088
:100A200005F803AB184631F00FF90F900F9B0593B3
:100A3000059B002B05D01A4A40F2362105982CF070
:100A4000F5FF184831F098F80F900F9B002B01D05C
:100A50000F9B1BE0144831F09FF80F900F9B002B69
:100A600001D00F9B12E00120FFF706FA0F900F9BB9
:100A7000002B01D00F9B09E00120FFF701FA0F9036
:100A80000F9B002B01D00F9B00E00023184613B0F2
:100A90005DF804FB248505001D1D0500144B002096
:100AA000C0800500210702009D07020000B5B1B01B
:100AB0004FF48073ADF878303B4B1B788DF87A306B
:100AC0001FAB3C220021184635F06BFF02238DF846
:100AD0007C3000238DF87E3006238DF87F30012393
:100AE000ADF884301EAB229316AB202200211846AD
:100AF00035F057FF01238DF85B302C4B1B689B8929
:100B00009BB21A93294B1B689B7B1B9307AB3C2220
:100B10000021184635F045FF00238DF8BF3010E066
:100B20009DF8BF30C3F103029DF8BF3020498A5CB5
:100B300030A90B4403F8B42C9DF8BF3001338DF875
:100B4000BF309DF8BF30032BEAD95923ADF81030E0
:100B500003AB06930423ADF8143000238DF81C304A
:100B600004AB109316AA07A91FA800230093114BEA
:100B700022F04EFC2E902E9B002B0DD00E4831F013
:100B80003FF902462E9B009340F282230B4902203C
:100B900031F078F92E9B03E0012022F02BFC00239A
:100BA000184631B05DF804FB8C4A0020D84A00207A
:100BB000F84A002069030200C08005008C8105000E
:100BC00000B583B00190054A40F28F2101982CF0C6
:100BD0002DFF00BF03B05DF804FB00BFC08005001F
:100BE00000B583B01A4B1B6893F82830022B03D84A
:100BF00005F014FD002327E0164B4FF43E721A60F7
:100C0000134B1B681733134A5360114B1B6893F83F
:100C100028309AB20F4B1A810E4B0F4A5A610F4877
:100C2000FFF7FEF80190019B002B01D0019B0BE028
:100C3000084BDB7A0233DAB2064BDA72054805F06C
:100C400081FC05F0ADFC0023184603B05DF804FB01
:100C5000D84A0020604C0020C10B02006A4C0020E2
:100C600000B595B0039001921A460B468DF80B30F3
:100C70001346ADF8083000238DF84F309DF80B3047
:100C8000062B00F2598101A252F823F0A90C0200B0
:100C9000E50C0200090D0200910D0200E10D0200B9
:100CA000130E0200AB0E0200BDF808300A2B00F252
:100CB0003681AE4B1B681846BDF808301A460199BC
:100CC00035F046FEA94B1A68BDF808300021D15412
:100CD000A64B1B68BDF80820D2B2DA7201238DF84A
:100CE0004F301CE1BDF80830032B40F01A819F4BB8
:100CF0001B680C33BDF808200199184635F028FE12
:100D000001238DF84F300CE1BDF80830082B40F07E
:100D10000A81964B1B680F33BDF8082001991846CD
:100D200035F016FE05AB08220021184635F039FED5
:100D30008E4B1B68B3F80F309BB2ADF814308B4B61
:100D40001B68B3F811309BB2ADF81630874B1B68A7
:100D5000B3F813309BB2ADF81830844B1B68B3F86E
:100D600015309BB2ADF81A3005AB184622F060FF83
:100D70001290129B1193119B002B05D07C4A40F2DC
:100D8000E12111982CF052FE01238DF84F30CAE07A
:100D9000BDF80830112B00F2C880744B1B68173364
:100DA000BDF808200199184635F0D2FD6F4B1B683D
:100DB000BDF80820D2B283F8282001238DF84F30E7
:100DC000FFF70EFF1090109B0F930F9B002B00F06E
:100DD000AC80674A4FF43C710F982CF027FEA4E0DA
:100DE000BDF80830FA2B00F2A280604B1B68293353
:100DF000BDF808200199184635F0AAFD5B4B1B6829
:100E0000BDF80820D2B283F8232101238DF84F309A
:100E10008DE0BDF80830032B40F08B80019B0E93D2
:100E20000E9B1B78012B2FD10E9BB3F801309BB288
:100E30001A465049032030F0FAFF4F4B1A880E9B98
:100E4000B3F801309BB219461046FFF701F80D9038
:100E50000D9B002B07D1BDF808301A460199474871
:100E600035F076FD65E04549454824F0BFFE0D901C
:100E70000D9B0C930C9B002B5BD03D4A40F20D3137
:100E80000C982CF0D3FD54E03C493D4824F0AEFED4
:100E90000D900D9B0B930B9B002B4AD0344A40F2D4
:100EA00013310B982CF0C2FD43E0BDF80830F72B4E
:100EB00041D82E4B1B6803F59573BDF808200199A6
:100EC000184635F045FD294B1B68BDF80820D2B205
:100ED00083F8212214F030FF0A900A9B002B05D0E2
:100EE000234A40F21E310A982CF0A0FD1F4B1B68CC
:100EF00003F59573BDF80820D2B21146184614F0D8
:100F00002FFD0990099B002B05D0194A40F21F3193
:100F100009982CF08BFD01238DF84F300BE000BFBA
:100F20000AE000BF08E000BF06E000BF04E000BF29
:100F300002E000BF00E000BF9DF84F30002B10D052
:100F40000A4B1B68184600F0A7FC0890089B079303
:100F5000079B002B05D0064A40F22B3107982CF056
:100F600065FD00BF15B05DF804FB00BFD84A002046
:100F7000C0800500288505005C450020DC4A002073
:100F80008C4A002000B589B000238DF81F30724BC9
:100F90001B6893F82431FF22934214BF01230023DE
:100FA0008DF81E306C4B1B6893F82531FF2293425D
:100FB00014BF012300238DF81D30674B1B6893F885
:100FC0002631FF22934214BF012300238DF81C30E9
:100FD000614B1A6803AB02F59272118892781980FE
:100FE0009A709DF81E30002B07D19DF81D30002B04
:100FF00003D19DF81C30002B2ED0574B1B68FF22CD
:1010000083F82421544B1B68FF2283F82521524B7F
:101010001B68FF2283F8262101238DF81F309DF8DD
:101020001E30002B03D19DF81D30002B14D000235F
:101030008DF81F30494B01221A70494800F02CFCF2
:101040000690069B0593059B002B05D0454A40F270
:101050004E3105982CF0EAFCFF231A46FF2319466F
:10106000FF2300930B464049032030F00BFF3B4B1E
:101070001B78002B0DD09DF80C301A469DF80D30D2
:1010800019469DF80E3000930B463849032030F086
:10109000F9FE314B1B6893F82830112B0FD92E4BDA
:1010A0001B6817330E223249184635F051FC2A4B83
:1010B0001B680E2283F8282001238DF81F30264B51
:1010C0001B6893F82331FA2B0FD9234B1B68293364
:1010D00000222849184635F03BFC1F4B1B680022B4
:1010E00083F8232101238DF81F301B4B1B6893F8D5
:1010F0002132F72B05D8184B1B6893F82132002BAF
:1011000010D1154B1B6803F5957316221A49184622
:1011100035F01EFC104B1B68162283F82122012398
:101120008DF81F309DF81F30002B10D00A4B1B6824
:10113000184600F0B1FB0690069B0493049B002B1D
:1011400005D0084A40F2763104982CF06FFC002359
:10115000184609B05DF804FBD84A0020E04A002098
:10116000A47D0500C080050070850500B0850500E0
:10117000BB7D0500CD7D0500CE7E050000B585B0A8
:101180000A4B1B6801930A4B029301AB19460948AD
:1011900024F098FC0390039B002B01D0039B00E0FC
:1011A0000023184605B05DF804FB00BFD84A0020B4
:1011B000610C02008C4A002000B589B001900091BA
:1011C000FFF7DCFF0690069B0593059B002B05D0DF
:1011D000244A4FF4667105982CF028FC00230793ED
:1011E00018E0079BDB00019A13441B68002B0ED00C
:1011F000079BDB00019A13441B681B4A12781046B8
:1012000098470690069B002B01D0069B26E0079B83
:1012100001330793079A009B9A42E2D302AB08225C
:101220000021184635F0BDFB104B029301238DF8C9
:101230000C3001238DF80D3002AB19460C4830F00C
:10124000A3F80690069B0493049B002B05D0054A47
:1012500040F2B13104982CF0E9FB0023184609B0A4
:101260005DF804FBC0800500E04A002049FF010052
:10127000FC4A0020B0B5C6B002AF14F08BFDC7F831
:101280000801D7F80831002B0FD0B04830F0B8FD76
:101290000246D7F80831009340F2BE33AC49022031
:1012A00030F0F0FDD7F808314BE1AA4B1B6803F58D
:1012B00095731622A849184635F012F90346002BFB
:1012C00040F01C816B461D462021A44814F072FC9E
:1012D000C7F80801D7F80831002B0FD09B4830F031
:1012E0008FFD0246D7F80831009340F2C333984986
:1012F000022030F0C7FDD7F80831FDE01B2387F846
:10130000073197F807010346013BC7F80031C1B226
:101310004FF000024FF000034FF00004D40044EA05
:101320005174CB00C1B24FF000024FF000034FF0F8
:101330000004D40044EA5174CB0003460733DB08B1
:10134000DB00ADEB030D02AB0033C7F8FC30D7F880
:10135000FC3000221A70D7F8FC308149184635F06D
:1013600040F9D7F8FC307F49184635F03AF90023A8
:1013700087F80F311EE007F1F80300210A461A80B2
:101380000A469A7097F80F31774AD35C1A4607F1EC
:10139000F8037649184635F00FF9D7F8FC3007F115
:1013A000F8021146184635F01CF997F80F31013351
:1013B00087F80F3197F80F31032BDCD9D7F8FC30C1
:1013C000184630F01DFD03461A466949032030F0E7
:1013D0002EFDD7F8FC3097F807211146184614F077
:1013E00041FBC7F80801D7F80831002B0FD0574848
:1013F00030F006FD0246D7F80831009340F2D733AB
:101400005349022030F03EFDD7F8083174E016222F
:101410005849012014F082FBC7F80801D7F80831B9
:10142000002B0FD0494830F0EBFC0246D7F80831CA
:10143000009340F2DA334649022030F023FDD7F81A
:10144000083159E014F0FEFBC7F80801D7F808315D
:10145000002B0FD03D4830F0D3FC0246D7F80831BE
:10146000009340F2DD333A49022030F00BFDD7F80B
:10147000083141E0F72387F8FB3007F1FB023B46D8
:101480001146184614F0C4FAC7F80801D7F8083115
:10149000002B0FD02D4830F0B3FC0246D7F80831AE
:1014A000009340F2E1332A49022030F0EBFCD7F8F8
:1014B000083121E097F8FB203B4683F8F7203B46B4
:1014C00019462D4824F0BEFBC7F80801D7F80831AB
:1014D000002B0FD01D4830F093FC0246D7F808319E
:1014E000009340F2E5331A49022030F0CBFCD7F8E4
:1014F000083101E0AD4623E0AD4622E0154B1B6804
:1015000003F59572134B1B6893F821321946104668
:1015100014F026FAC7F80801D7F80831002B0FD0CD
:101520000A4830F06DFC0246D7F80831009340F2CB
:10153000EA330749022030F0A5FCD7F8083100E073
:101540000023184607F58877BD46B0BDC08005006A
:101550008C810500D84A0020CE7E0500208605003B
:10156000E44A002040860500F84A00201082050069
:1015700044860500708605008C4A002000B585B0C1
:101580000190019B1B686A4A1360019B5B68694A72
:101590001360019B9B68684A1360FFF72DF9039065
:1015A000039B002B06D0039A6449012030F03FFCD6
:1015B000039BB8E0624BD3F88830614A43F4700370
:1015C000C2F88830BFF34F8FBFF36F8F04215D489F
:1015D000FEF70AFD0390039B002B06D0039A5A499D
:1015E000012030F024FC039B9DE05849584800F04E
:1015F0000DFA0390039B002B06D0039A5549012056
:1016000030F015FC039B8EE0504B1B680C22A3F8B6
:101610001120FFF7B7FC0390039B002B06D0039A21
:101620004D49012030F003FC039B7CE0FEF75EFD9A
:101630000390039B002B06D0039A4849012030F009
:10164000F6FB039B6FE03B4B1A683B4B1B6819464C
:101650001046FFF7B1FD0390039B002B06D0039AC1
:101660003F49012030F0E3FB039B5CE0FFF71EFAEB
:101670000390039B002B06D0039A3A49012030F0D7
:10168000D6FB039B4FE0FEF71BFE0390039B002B52
:1016900006D0039A3449012030F0C9FB039B42E095
:1016A000032021F0B9FF0390039B002B06D0039A7F
:1016B0002E49012030F0BBFB039B34E02C4805F0A1
:1016C000FFFE0390039B002B06D0039A29490120BB
:1016D00030F0ADFB039B26E0254830F091FB03463C
:1016E0001A462549132030F0A2FBFFF7C3FD0390F3
:1016F000039B002B06D0039A2049012030F097FB72
:10170000039B10E00A20FEF70FFCFFF769FA039035
:10171000039B002B06D0039A1949012030F087FB68
:10172000039B00E00023184605B05DF804FB00BFF2
:10173000804A0020844A0020884A002088860500CC
:1017400000ED00E0F84A0020C4860500D84A0020D9
:10175000A47D0500088705004487050084870500EF
:10176000C08705000C8805004888050084880500AE
:10177000E44A0020C488050000890500148905009A
:101780004889050000B589B00390039B1B78012BA5
:101790001AD0052B42D0002B4CD1039B5B68002B49
:1017A00003D1344B01221A7059E03349012030F043
:1017B0002DFB00230793079B002B50D12F4A5D215F
:1017C00000202CF033F94AE0039B5B68002B16D114
:1017D000039B9B89B3F5005F43D1039B1B7C1A4697
:1017E000039B9B891946039BDB8900930B46244985
:1017F000032030F047FB234B01221A7031E02249CD
:10180000012030F003FB00230693069B002B28D118
:101810001A4A6F2100202CF009F922E0039B5B6833
:10182000002B20D11949032030F0F0FA184B012287
:101830001A7018E0039B1B781A46039B5B681549D6
:10184000032030F008FB039B5B680593059B002B8E
:101850000BD00A4A7B2105982CF0E8F805E000BF80
:1018600004E000BF02E000BF00E000BF00BF09B01D
:101870005DF804FBAC4E002080890500B0890500AE
:10188000F8890500AD4E0020448A0500748A0500E1
:10189000AE4E0020A88A050000B58BB003901F490A
:1018A000032030F0B3FA039B002B01D10E2331E06B
:1018B00040F2222203991A4835F04AF8194B422285
:1018C0001A60184B04938A23ADF814304FF4005378
:1018D000ADF8183042F20103ADF81A3004AB0793AB
:1018E0000123ADF8203006AB19460F482FF04BFA14
:1018F0000990099B002B0CD00C4830F081FA02466D
:10190000099B009398230A49022030F0BBFA099BF7
:1019100000E0002318460BB05DF804FBD88A0500F0
:10192000884C0020844C0020784C0020B0890500B1
:101930000C8B050000B58BB0039005AB082200218D
:10194000184635F02EF82B49032030F05FFA05AB2E
:10195000294A42F201014FF400502FF083FA099016
:10196000099B002B0CD0254830F04AFA0246099B0F
:101970000093A9232249022030F084FA099B34E025
:1019800007AB19461C482FF073F90990099B002BEF
:101990000CD01A4830F034FA0246099B0093AC236D
:1019A0001749022030F06EFA099B1EE0089B4FF4A5
:1019B0000A721946134834F0CBFF0F482FF094F900
:1019C0000990099B002B0CD00C4830F019FA024604
:1019D000099B0093B1230A49022030F053FA099B76
:1019E00003E0039B084A1A60002318460BB05DF819
:1019F00004FB00BF608B0500784C0020B089050017
:101A00000C8B0500844C0020884C002000B58BB066
:101A1000039002915B49032030F0F8F9039B002BFF
:101A200001D10E23A9E058482FF08CF80990099BAA
:101A3000002B0CD0554830F0E3F90246099B009387
:101A4000C2235349022030F01DFA099B95E02FF084
:101A500099F80990099B002B0ED04C4830F0D0F932
:101A60000246099B0093C5234949022030F00AFA37
:101A7000099B82E02CF05CF9464B1B7883F0010354
:101A8000DBB2002BF6D12FF0C1F90990099B002B96
:101A90000ED03E4830F0B4F90246099B0093CD23A6
:101AA0003B49022030F0EEF9099B66E02CF040F94A
:101AB000394B1B7883F00103DBB2002BF6D102987F
:101AC000FFF738FF0990099B0A2B45D133490320C2
:101AD00030F09CF940F222220399314834F038FF6B
:101AE000304B42221A602F4B04938A23ADF81430F6
:101AF0004FF40053ADF8183042F20103ADF81A303C
:101B000004AB07930123ADF82030274B00221A7055
:101B100006AB194625482FF027F90990099B002BA1
:101B20000CD01A4830F06CF90246099B0093EB2365
:101B30001749022030F0A6F9099B1EE0029B184AC3
:101B40001A6001E02CF0F4F8174B1B7883F00103C6
:101B5000DBB2002BF6D10FE0099B002B0CD00B4819
:101B600030F04EF90246099B0093F6230849022003
:101B700030F088F9099B00E0002318460BB05DF8AF
:101B800004FB00BF908B050085170200B08905009B
:101B90000C8B0500AC4E0020AE4E0020BC8B050027
:101BA000884C0020844C0020AD4E0020784C002052
:101BB00000B587B08DED030A0290DDED037AFDEEEE
:101BC000E77ACDED017A9DF804305AB2029B1A7083
:101BD000029B93F9003007EE903AF8EEE77A9DED1C
:101BE000037A77EE677ACDED057ADDED057A9FED24
:101BF0000D7A67EE877AFCEEE77ACDED017A9DF8F3
:101C00000430DAB2029B5A70029B93F900301A46F4
:101C1000029B5B780449042030F01DF900BF07B037
:101C20005DF804FB0000C842188C050000B583B0C5
:101C3000034600918DF80730009B9DF807201A702D
:101C40009DF807301A460449042030F0F0F800BF30
:101C500003B05DF804FB00BF608C050000B587B0E1
:101C60008DED030A0290DDED037AFDEEE77A17EEC3
:101C7000902A029B1A60029B1B6807EE903AF8EECE
:101C8000E77A9DED037A77EE677ACDED057ADDEDA3
:101C9000057A9FED0D7A67EE877AFCEEE77ACDED57
:101CA000017A9DF80430DAB2029B1A71029B1B681C
:101CB0001A46029B1B790549042030F0CCF800BF7E
:101CC00007B05DF804FB00BF0000C842A88C050007
:101CD00000B587B00190019B1B78002B02D0012B2F
:101CE00014D021E0019B5B78012B1AD110F086FE05
:101CF000F0EE407A03AB1846B0EE670AFFF7AEFF8E
:101D000003AB19460A4822F0CDFF0AE000230593F1
:101D1000059B002B07D1074A942100202BF086FE5B
:101D200001E000BF00E000BF00BF07B05DF804FBAA
:101D3000B04E0020F88C050000B58DB003468DF83C
:101D400007309DF80730002B60D112F001FF8DEDB8
:101D50000B0A12F04BFE0346ADF82A3004AB1846CE
:101D60009DED0B0AFFF724FFBDF82A30DBB20DF121
:101D70000F0211461846FFF759FF2B4B1B78002B1B
:101D800014D0BDF82A309DED0B0A184600F05CFA1D
:101D90000990099B0893089B002B04D0234AB1218A
:101DA00008982BF043FE204B00221A70204B1B7822
:101DB000002B12D004AB19461E4822F033FF0990C5
:101DC000099B0793079B002B04D0184AB82107985A
:101DD0002BF02CFE164B00221A70174B1B78002B91
:101DE0001ED00DF10F031946124822F09BFF0990F7
:101DF000099B0693069B002B04D00C4ABF21069832
:101E00002BF014FE0C4B00221A7009E000230593FE
:101E1000059B002B04D1054AC52100202BF006FEAE
:101E200000BF0DB05DF804FBFA4E0020F88C0500F1
:101E3000F94E0020B04E0020F84E002000B585B0CD
:101E40000190019B002B15D0019B1B88ADF80C3035
:101E5000019B5B88ADF80E30019B1B881A46019BE5
:101E60005B88064904202FF0F6FF03AB19460448AF
:101E700022F098FF00BF05B05DF804FB448D05001B
:101E8000B04E002000B587B0039000200BF036F86C
:101E9000039B002B27D0039B1B881946039B5B8861
:101EA0001846039B9B881A46039BDB88019300928C
:101EB00003460A460E4904202FF0FDFF039B1B88B2
:101EC000ADF81030039B5B88ADF81230039B9B8804
:101ED000ADF81430039BDB88ADF8163004AB19461F
:101EE000044822F09FFF00BF07B05DF804FB00BF6D
:101EF000888D0500B04E002000B585B001900A4BDA
:101F000001221A7012F0C2FE0390039B0293029BFF
:101F1000002B05D0054A4FF4847102982BF086FD02
:101F200000BF05B05DF804FBF94E0020F88C0500F9
:101F3000F0B585B0334B01221A70334B01221A7071
:101F400012F08EFC0390039B002B0DD02F482FF036
:101F500057FF0246039B00934FF48B732C490220DA
:101F60002FF090FF039B49E012F090FE0390039B3B
:101F7000002B0DD025482FF043FF0246039B009312
:101F800040F21913224902202FF07CFF039B35E019
:101F9000204F214B1B681B889BB299B24FF0000267
:101FA0004FF000034FF00004D40344EA5144CB0344
:101FB00013F5FA7544F100064FF47A724FF00003FE
:101FC0002846314634F088F803460C46002219466C
:101FD00038462CF0F7FC0390039B002B0DD00B48E8
:101FE0002FF00EFF0246039B00934FF48F730849B6
:101FF00002202FF047FF039B00E00023184605B0A6
:10200000F0BD00BFF94E0020FD4E0020F88C050009
:10201000D48D0500004F0020F04E002000B587B0A1
:1020200003468DF80F30194B00221A70184B1846D2
:102030002CF0FAFC0590059B002B0DD015482FF0D5
:10204000DFFE0246059B00934FF49673124902206F
:102050002FF018FF059B14E09DF80F30002B0FD0D8
:102060000E4B00221A700E4B1B7883F00103DBB27B
:10207000002B03D012F05EFC034602E0002300E0D8
:102080000023184607B05DF804FB00BFF94E00209E
:10209000004F0020F88C0500D48D0500FD4E002077
:1020A000FC4E002000B585B0019010F0F7FC0390C5
:1020B000039B0293029B002B05D0054A40F24B1173
:1020C00002982BF0B3FC00BF05B05DF804FB00BF25
:1020D000F88C0500F0B585B010F080FB0390039BF1
:1020E0000293029B002B05D01D4A4FF4AB7102985E
:1020F0002BF09CFC10F0D2FC0390039B0193019BFE
:10210000002B05D0164A40F2591101982BF08EFC95
:10211000144F154B1B685B889BB299B24FF00002BD
:102120004FF000034FF00004D40344EA5144CB03C2
:1021300013F5FA7544F100064FF47A724FF000037C
:102140002846314633F0C8FF03460C4600221946A4
:1021500038462CF037FC0346184605B0F0BD00BFEA
:10216000F88C0500204F0020F04E002000B585B00F
:102170000E4B18462CF058FC0390039B002B0DD0FF
:102180000B482FF03DFE0246039B009340F269137B
:10219000084902202FF076FE039B02E010F0D4FBEA
:1021A0000346184605B05DF804FB00BF204F002031
:1021B000F88C0500D48D050000B587B00190002390
:1021C000ADF80A301C4B1B78012B31D10DF10A03FD
:1021D000184600F07BF90590059B0493049B002BA7
:1021E00005D0164A4FF4BD7104982BF01FFCBDF8C2
:1021F0000A30002B04D1124902202FF007FE10E014
:10220000BDF80A3018460CF0B5FA0590059B03930B
:10221000039B002B05D0094A40F2831103982BF051
:1022200005FC054B02221A70064B18462CF0FCFBED
:1022300000BF07B05DF804FBFB4E0020F88C0500E2
:10224000288E0500804F002000B589B003468DED33
:10225000020AADF80E301E4B1B78002B33D0BDF8B0
:102260000E301A46920013445B00ADF81E30DDEDCF
:10227000027A9FED187A67EE877AFDEEE77A17EE1D
:10228000903A0693BDF81E20069B134904202FF0B8
:10229000E2FDBDF81E30069918460CF08BF905904A
:1022A000059B002B0DD00D482FF0AAFD0246059B83
:1022B00000934FF4D3730A4902202FF0E3FD059BEE
:1022C00002E0002300E00023184609B05DF804FB9B
:1022D000FC4E002000007A44908E0500F88C05002A
:1022E000D48D050000B585B0114B00221A70114B3A
:1022F0001B78002B13D112F01DFB0390039B002BC6
:102300000DD00D482FF07CFD0246039B00934FF447
:10231000E1730A4902202FF0B5FD039B04E0084B4E
:1023200018462CF081FB0346184605B05DF804FB07
:10233000FC4E0020FD4E0020F88C0500D48D0500D9
:10234000804F002000B585B001900A4B01221A7021
:1023500012F09CFC0390039B0293029B002B05D080
:10236000054A4FF4EA7102982BF060FB00BF05B0FC
:102370005DF804FBF84E0020F88C0500F0B585B040
:102380002A4B01221A702A4B01221A7012F068FAA5
:102390000390039B002B0DD026482FF031FD024601
:1023A000039B009340F2E113234902202FF06AFDC2
:1023B000039B37E012F06AFC0390039B002B0DD0C7
:1023C0001C482FF01DFD0246039B00934FF4F2734F
:1023D000194902202FF056FD039B23E0174F184B9D
:1023E0001B689B889BB299B24FF000024FF000032C
:1023F0004FF00004D40344EA5144CB0313F5FA75BB
:1024000044F100064FF47A724FF00003284631463B
:1024100033F062FE03460C460022194638462CF083
:10242000D1FA0346184605B0F0BD00BFF84E0020B3
:10243000FD4E0020F88C0500D48D0500404F002093
:10244000F04E002000B587B003468DF80F30194BD1
:1024500000221A70184B18462CF0E6FA0590059BDE
:10246000002B0DD015482FF0CBFC0246059B0093A6
:1024700040F2F513124902202FF004FD059B14E0F1
:102480009DF80F30002B0FD00E4B00221A700E4B10
:102490001B7883F00103DBB2002B03D012F04AFA61
:1024A000034602E0002300E00023184607B05DF871
:1024B00004FB00BFF84E0020404F0020F88C0500C0
:1024C000D48D0500FD4E0020FC4E002000B583B0E9
:1024D0000190284B1B681B7A032B43D801A252F8AA
:1024E00023F000BFF5240200112502002D25020073
:1024F00049250200204B1B681B889AB2019B1A8059
:10250000019B1B881A461D4904202FF090FC2BE0EC
:10251000194B1B685B889AB2019B1A80019B1B8830
:102520001A46174904202FF082FC1DE0124B1B684D
:102530009B889AB2019B1A80019B1B881A461149FD
:1025400004202FF074FC0FE00B4B1B68DB889AB261
:10255000019B1A80019B1B881A460B4904202FF00F
:1025600066FC01E0082300E00023184603B05DF894
:1025700004FB00BFF04E0020F44E0020F08E05005A
:10258000588F0500BC8F05002090050000B587B06E
:102590000346ADF80E30314B1B681B7A032B3FD836
:1025A00001A252F823F000BFB9250200D325020092
:1025B000ED25020007260200294B1B68BDF80E20FE
:1025C0001A80BDF80E301A46264904202FF02FFC41
:1025D00028E0234B1B68BDF80E205A80BDF80E3052
:1025E0001A46214904202FF022FC1BE01C4B1B68DB
:1025F000BDF80E209A80BDF80E301A461B49042003
:102600002FF015FC0EE0164B1B68BDF80E20DA808B
:10261000BDF80E301A46164904202FF008FC01E0E0
:10262000082317E00E4B1B68184600F0DDFF0590ED
:10263000059B002B0DD00F482FF0E2FB0246059BB7
:10264000009340F24E230C4902202FF01BFC059B07
:1026500000E00023184607B05DF804FBF04E0020B0
:10266000F44E002084900500E89005004891050094
:10267000AC910500F88C0500D48D050000B585B03F
:10268000284B1B681B7A1A46274904202FF0CFFBE2
:10269000244B1B681B7A032B1AD801A252F823F093
:1026A000B1260200B9260200C1260200C926020096
:1026B00000238DF80F300FE001238DF80F300BE071
:1026C00002238DF80F3007E003238DF80F3003E06D
:1026D00002238DF80F3000BF9DF80F3018460CF024
:1026E000BFF80290029B002B0DD010482FF088FB02
:1026F0000246029B009340F26F230D4902202FF007
:10270000C1FB029B0AE00B4B01221A700A4B00220C
:102710004FF0617118462CF055F90346184605B084
:102720005DF804FBF04E002010920500F88C0500C7
:10273000D48D0500FB4E0020804F002000B585B0F1
:10274000274B1B78022B41D1FFF7CCFD0390039B55
:10275000002B0DD023482FF053FB0246039B009320
:1027600040F28123204902202FF08CFB039B33E0B1
:102770000DF10A0318460BF08BFF0390039B002B0F
:102780000DD018482FF03CFB0246039B00934FF4FA
:102790002173154902202FF075FB039B1CE0BDF847
:1027A0000A301846FFF7F2FE0390039B002B0DD072
:1027B0000C482FF025FB0246039B009340F2872331
:1027C000094902202FF05EFB039B05E0044B002229
:1027D0001A700CF0EDF90346184605B05DF804FBDD
:1027E000FB4E0020F88C0500D48D050000B587B0A5
:1027F0000190134B1B685B7A8DF80C30104B1B68F3
:102800009B7A8DF80D300E4B1B68DB7A8DF80E30FD
:1028100003AB194600200AF0C3FB0DF0E5F8059064
:10282000059B0493049B002B05D0064A40F29F2190
:1028300004982BF0FBF800BF07B05DF804FB00BF65
:10284000F04E0020F88C0500F0B585B02B4B1B68CE
:102850005B7A8DF80030294B1B689B7A8DF801302C
:10286000264B1B68DB7A8DF802306B461946002038
:102870000AF096FB0DF01AF90390039B0293029B5A
:10288000002B05D01E4A40F2AF2102982BF0CEF863
:102890000DF0AAF80390039B0193019B002B05D038
:1028A000174A40F2B22101982BF0C0F8154F134B94
:1028B0001B68DB889BB299B24FF000024FF0000317
:1028C0004FF00004D40344EA5144CB0313F5FA75E6
:1028D00044F100064FF47A724FF000032846314667
:1028E00033F0FAFB03460C460022194638462CF01A
:1028F00069F80346184605B0F0BD00BFF04E002051
:10290000F88C0500604F002000B585B0124B1846CA
:102910002CF08AF80390039B0293029B002B05D0B6
:102920000E4A40F2BF2102982BF080F800200AF0F6
:10293000E5FA0DF091F90390039B0193019B002BA5
:1029400005D0064A4FF4317101982BF06FF800233F
:10295000184605B05DF804FB604F0020F88C0500B8
:1029600000B585B00190019B1B889BB2632B32D9C7
:10297000019B1B889BB24EF6602293422BD8019B91
:102980005B889BB2312B26D9019B5B889BB24EF6AC
:10299000602293421FD8019B9B889BB2632B1AD95C
:1029A000019B9B889BB24EF66022934213D8019BF9
:1029B000DB889BB2C72B0ED9019BDB889BB24EF6FE
:1029C0006022934207D8019B1B7A002B03D0019B06
:1029D0001B7A032B0ED90A4800F04EFD0390039B8F
:1029E0000293029B002B05D0064A40F2DA2102989E
:1029F0002BF01CF80023184605B05DF804FB00BF5F
:102A0000F08B0500F88C050000B589B00190019BA2
:102A1000002B01D10E236AE00020FFF7FFFAFFF739
:102A2000A5FB0120FFF70EFDFFF76EFF019B1B8842
:102A30009BB2002B12D0304B93F83630002B0DD0C8
:102A4000FFF776FA0790079B0693069B002B05D0AD
:102A50002A4A40F2F32106982AF0E8FF019B5B889E
:102A60009BB2002B12D0244B93F83730002B0DD0A3
:102A7000FFF730FB0790079B0593059B002B05D0C4
:102A80001E4A40F2FA2105982AF0D0FF019B9B884C
:102A90009BB2002B12D0184B93F83830002B0DD07E
:102AA000FFF76CFC0790079B0493049B002B05D059
:102AB000124A40F2013104982AF0B8FF019BDB88EA
:102AC0009BB2002B12D00C4B93F83A30002B0DD058
:102AD000FFF7BAFE0790079B0393039B002B05D0DB
:102AE000064A4FF4427103982AF0A0FF00231846CB
:102AF00009B05DF804FB00BFB04E0020F88C050063
:102B000000B593B0039001921A460B468DF80B3036
:102B10001346ADF808309DF80B30052B00F24281CA
:102B200001A252F823F000BF412B0200B92B020092
:102B3000132C02008B2C0200E12C0200372D020026
:102B4000039B93F836301A469F4904202FF06FF903
:102B5000039B93F83630002B0FD0FFF7E9F9119063
:102B6000119B1093109B002B00F01E81974A40F29E
:102B7000273110982AF05AFF16E1039B93F838305A
:102B8000002B14BF01230023DBB283F00103DBB26F
:102B900003F00103DBB21846FFF740FA1190119BD6
:102BA0000F930F9B002B00F0FF80884A4FF44B716E
:102BB0000F982AF03BFFF7E0039B93F837301A4653
:102BC000834904202FF033F9039B93F83730002B0F
:102BD0000FD0FFF77FFA1190119B0E930E9B002BE5
:102BE00000F0E480794A40F235310E982AF01EFF59
:102BF000DCE0FFF7BBFA1190119B0D930D9B002BAE
:102C000000F0D480714A40F23A310D982AF00EFF5C
:102C1000CCE0039B93F838301A466E4904202FF01D
:102C200006F9039B93F83830002B0FD0FFF7A6FB73
:102C30001190119B0C930C9B002B00F0B980634A00
:102C400040F243310C982AF0F1FEB1E0039B93F877
:102C50003630002B14BF01230023DBB283F00103C5
:102C6000DBB203F00103DBB21846FFF7EBFB119078
:102C7000119B0B930B9B002B00F09A80534A4FF44F
:102C800052710B982AF0D2FE92E0039B93F83930F0
:102C90001A46514904202FF0CAF8039B93F83930A3
:102CA000002B0ED0FFF7EAFC1190119B0A930A9BB0
:102CB000002B7FD0454A40F251310A982AF0B6FEE7
:102CC00078E0FFF73BFD1190119B0993099B002BC6
:102CD00070D03E4A40F2563109982AF0A7FE69E0CA
:102CE000039B93F83A301A463C4904202FF09FF892
:102CF000039B93F83A30002B0ED0FFF7A5FD1190FF
:102D0000119B0893089B002B56D0304A40F25F314C
:102D100008982AF08BFE4FE0FFF7F6FD1190119B0B
:102D20000793079B002B47D0284A4FF45971079807
:102D30002AF07CFE40E0BDF808301A4628490420FD
:102D40002FF075F8BDF808300C2B0CBF01230023C1
:102D5000DBB20693069B002B05D11C4A40F26B3177
:102D600000202AF063FE019800F086FB1190119B71
:102D70000593059B002B05D0144A40F26E3105984F
:102D80002AF054FE0198FFF73FFE1190119B049327
:102D9000049B002B12D00D4A40F2713104982AF0A6
:102DA00045FE0BE000BF0AE000BF08E000BF06E000
:102DB00000BF04E000BF02E000BF00E000BF00BFB2
:102DC00013B05DF804FB00BF44920500F88C0500C9
:102DD00094920500E09205002C9305007493050081
:102DE000BC93050000B597B003468DF80F30002363
:102DF0008DF8483000238DF84930002310930023CC
:102E00008DF8443000238DF83F300DAB00221A605E
:102E10005A600023ADF830300023ADF83230464B15
:102E2000464A4749474800F097FC1590159B002BF0
:102E30000DD045482EF0E4FF0246159B009340F26A
:102E40008E33424902202FF01DF8159B6FE09DF84C
:102E50000F30002B1DD03B4800F00EFB1590159B4A
:102E60001493149B002B05D0374A40F293311498E9
:102E70002AF0DCFD314800F0B7FB1590159B139349
:102E8000139B002B05D0304A40F2963113982AF05C
:102E9000CDFD2B4B1B681846FFF762FD1590159B67
:102EA000002B0DD028482EF0ABFF0246159B009357
:102EB00040F29A33254902202EF0E4FF159B36E0BC
:102EC00005AB1C220021184633F06BFD12AB0593B5
:102ED00010AB06930DF13F0307930DAB09930CABB9
:102EE0000893174B1B680A93194B0B93194903203E
:102EF0002EF08CFF05AB1946174821F009FE1590FE
:102F0000159B002B0DD010482EF07AFF0246159B22
:102F100000934FF46A730D4902202EF0B3FF159B06
:102F200005E0074B1B681846FFF76EFD00231846A7
:102F300017B05DF804FB00BFF44E0020FC8B0500C9
:102F4000F04E0020F08B0500F88C0500D48D0500B4
:102F5000012B020008940500B04E002000B585B09A
:102F6000019001990C4821F0A2FD019B1B88112BB7
:102F70000DD100F0B1F80390039B0293029B002B4C
:102F800005D0064A40F2BE3102982AF04FFD00BF3C
:102F900005B05DF804FB00BFB04E0020F88C0500C2
:102FA00000B589B00190002307935F238DF80830A6
:102FB00018230393019B0493064B0593064B06933A
:102FC00002AB184611F05CFB0790079B184609B04E
:102FD0005DF804FB5C940500391D020000B589B062
:102FE00001905C238DF8083017230393019B049311
:102FF000074B0593074B069301238DF81C3002AB5A
:1030000018460FF053FB0346184609B05DF804FB61
:103010006C940500D11C020000B58BB00390039B9B
:103020000593114B06935A238DF81C300F4B0893D0
:1030300005AB18460BF0C0FE0990099B002B0DD084
:103040000B482EF0DDFE0246099B009340F20A4336
:10305000084902202EF016FF099B00E000231846C5
:103060000BB05DF804FB00BF7C9405003D1E020020
:10307000F88C0500D48D050000B58BB00390039B40
:103080000593114B069338238DF81C300F4B089392
:1030900005AB18460CF00EFC0990099B002B0DD0D7
:1030A0000B482EF0ADFE0246099B009340F22343ED
:1030B000084902202EF0E6FE099B00E00023184696
:1030C0000BB05DF804FB00BF8C940500851E020068
:1030D000F88C0500D48D050000B587B00020FEF700
:1030E0009DFF0590059B0493049B002B05D0224A6D
:1030F00040F2344104982AF099FCFFF737F8059024
:10310000059B0393039B002B05D01B4A40F23741DC
:1031100003982AF08BFC0120FFF794F90590059B9A
:103120000293029B002B05D0134A40F23A410298C9
:103130002AF07CFCFFF7E8FB0590059B0193019BBF
:10314000002B05D00C4A40F23D4101982AF06EFC5C
:10315000FFF7F4FA0590059B0093009B002B05D028
:10316000054A4FF4886100982AF060FC0023184655
:1031700007B05DF804FB00BFF88C050000B58DB00A
:1031800003900291039B002B01D10E23BAE0029B16
:10319000002B01D10E23B5E05C4903202EF036FE52
:1031A000039B5B4A5A60039B5A4A1A60029B1B6846
:1031B0001846FFF713FF0B900B9B0A930A9B002BFB
:1031C00005D0554A40F254410A982AF02FFC029B40
:1031D0001B681846FFF7E4FE0B900B9B0993099BB5
:1031E000002B05D04C4A40F2574109982AF01EFCAA
:1031F000029B1B681846FFF70FFF0B900B9B089371
:10320000089B002B05D0444A40F25A4108982AF006
:103210000DFC029B1B681846FFF72EFF0B900B9BC3
:103220000793079B002B05D03B4A40F25D4107986E
:103230002AF0FCFB394A012139482BF093FB0B9013
:103240000B9B0693069B002B05D0334A40F261414D
:1032500006982AF0EBFB334A012133482BF082FB1E
:103260000B900B9B0593059B002B05D02A4A40F23F
:10327000644105982AF0DAFB2C4A01212C482BF0F6
:1032800071FB0B900B9B002B0DD023482EF0B8FD4B
:1032900002460B9B009340F26743264902202EF022
:1032A000F1FD0B9B2EE0244A012124482BF05AFB10
:1032B0000B900B9B002B0DD017482EF0A1FD024662
:1032C0000B9B009340F26A431A4902202EF0DAFD6C
:1032D0000B9B17E01A4A01211A482BF043FB0B9075
:1032E0000B9B002B0DD00C482EF08AFD02460B9B49
:1032F000009340F26D430F4902202EF0C3FD0B9B5B
:1033000000E0002318460DB05DF804FB389405007A
:103310005D2F0200E52D0200F88C0500F91E020069
:10332000048C0500A5200200088C0500452302003E
:103330000C8C0500D48D0500ED270200108C0500D3
:10334000B9210200148C050000B589B00390039BDD
:103350001B78002B02D0012B1AD05BE0039B5B682B
:10336000002B06D13A4B01221A703A4B01221A70F7
:1033700065E0394901202EF049FD00230793079BA2
:10338000002B5CD1354A722100202AF04FFB56E019
:10339000039B5B68002B2ED1039B9B8941F20102AA
:1033A000934210D1039B1B7C1A46039B9B891946B1
:1033B000039BDB8900930B46294903202EF062FD15
:1033C000284B01221A70039B9B8941F2030293420E
:1033D00037D1039B1B7C1A46039B9B891946039B91
:1033E000DB8900930B46204903202EF04BFD1F4B39
:1033F00001221A7025E01E4901202EF007FD00234E
:103400000693069B002B1CD1144A8C2100202AF025
:103410000DFB16E0039B1B781A46039B5B6815495E
:1034200003202EF018FD039B5B680593059B002B82
:1034300009D00A4A912105982AF0F8FA03E000BF62
:1034400002E000BF00E000BF00BF09B05DF804FB70
:10345000D54F0020D74F00209C940500CC94050048
:103460001C950500D44F00206C950500D64F002018
:10347000C0950500F095050000B58BB003901F497D
:1034800003202EF0C3FC039B002B01D10E2330E060
:103490000C2203991A4833F05BFA1A4B42221A6045
:1034A000184B04930423ADF8143041F20103ADF836
:1034B000183041F20203ADF81A3004AB0793012330
:1034C000ADF8203006AB19460F482DF05CFC099092
:1034D000099B002B0CD00D482EF092FC0246099B54
:1034E0000093AE230A4902202EF0CCFC099B00E099
:1034F000002318460BB05DF804FB00BF20960500C2
:10350000BC4F0020B84F0020A04F0020CC940500F5
:103510005096050000B58BB0039005AB0822002142
:10352000184633F03EFA2A4903202EF06FFC05AB13
:10353000284A41F2020141F201002DF093FC09906A
:10354000099B002B0CD024482EF05AFC0246099B04
:103550000093BF23214902202EF094FC099B33E005
:1035600007AB19461B482DF083FB0990099B002BE4
:103570000CD019482EF044FC0246099B0093C2234C
:10358000164902202EF07EFC099B1DE0089B1022AC
:103590001946134833F0DCF90E482DF0A5FB0990CD
:1035A000099B002B0CD00C482EF02AFC0246099BEC
:1035B0000093C723094902202EF064FC099B03E015
:1035C000039B084A1A60002318460BB05DF804FB01
:1035D000A4960500A04F0020CC940500509605004D
:1035E000B84F0020BC4F002000B58BB003901F499E
:1035F00004202EF00BFC039B002B01D10E2330E0A6
:10360000082203991A4833F0A3F91A4B42221A6090
:10361000184B04930323ADF8143041F20303ADF8C3
:10362000183041F20403ADF81A3004AB07930123BC
:10363000ADF8203006AB19460F482DF0A4FB0990D9
:10364000099B002B0CD00D482EF0DAFB0246099B9B
:103650000093E6230A4902202EF014FC099B00E0A7
:10366000002318460BB05DF804FB00BFD49605009C
:10367000CC4F0020C84F0020AC4F0020CC94050058
:103680005096050000B58BB0039005AB08220021D1
:10369000184633F086F92A4904202EF0B7FB05AB13
:1036A000284A41F2040141F203002DF0DBFB0990AE
:1036B000099B002B0CD024482EF0A2FB0246099B4C
:1036C0000093F723214902202EF0DCFB099B33E015
:1036D00007AB19461B482DF0CBFA0990099B002B2C
:1036E0000CD019482EF08CFB0246099B0093FA235C
:1036F000164902202EF0C6FB099B1DE0089B0C22F8
:103700001946134833F024F90E482DF0EDFA0990CC
:10371000099B002B0CD00C482EF072FB0246099B33
:103720000093FF23094902202EF0ACFB099B03E024
:10373000039B084A1A60002318460BB05DF804FB8F
:1037400004970500AC4F0020CC940500509605006E
:10375000C84F0020CC4F002000B593B005900491D5
:10376000039202938D4903202EF050FB059B002B02
:1037700001D10E230DE1039B002B01D10E2308E1A3
:1037800087482DF0DFF91190119B002B0DD0854853
:103790002EF036FB0246119B00934FF48A73824948
:1037A00002202EF06FFB119BF3E02DF0EBF911904E
:1037B000119B002B0FD07B482EF022FB0246119B61
:1037C000009340F21713784902202EF05BFB119B07
:1037D000DFE02AF0ADFA754B1B7883F00103DBB212
:1037E000002BF6D1724B1B7883F00103DBB2002B68
:1037F000EFD10498FFF78EFE1190119B0A2B45D153
:103800006C4903202EF002FB0C2205996A4833F024
:103810009FF86A4B42221A60684B0C930423ADF860
:10382000343041F20103ADF8383041F20203ADF813
:103830003A300CAB0F930123ADF84030604B0022BF
:103840001A700EAB19465F482DF08EFA1190119B3D
:10385000002B0DD053482EF0D3FA0246119B009353
:1038600040F23513504902202EF00CFB119B90E0E2
:10387000049B514A1A6001E02AF05AFA504B1B7817
:1038800083F00103DBB2002BF6D110E0119B002B7B
:103890000DD044482EF0B4FA0246119B00934FF429
:1038A000A073414902202EF0EDFA119B71E00298BD
:1038B000FFF7E8FE1190119B0A2B58D1039B1B8840
:1038C0009BB21946039B5B889BB21846039B9B885F
:1038D0009BB21A46039BDB889BB20193009203467E
:1038E0000A46394903202EF0E6FA082203993748A0
:1038F00033F02EF8364B42221A60354B07930323E0
:10390000ADF8203041F20303ADF8243041F2040356
:10391000ADF8263007AB0A930123ADF82C302D4BC0
:1039200000221A7009AB19462B482DF01DFA119090
:10393000119B002B0DD01B482EF062FA0246119B02
:1039400000934FF4AD73184902202EF09BFA119B9F
:103950001FE0029B1D4A1A6001E02AF0E9F91D4BA5
:103960001B7883F00103DBB2002BF6D110E0119B32
:10397000002B0DD00B482EF043FA0246119B00930A
:1039800040F26513084902202EF07CFA119B00E0FA
:103990000023184613B05DF804FB00BF3097050004
:1039A00049330200CC94050050960500D54F002005
:1039B000D74F00205C970500BC4F0020B84F002077
:1039C000D44F0020A04F002090970500CC4F00203E
:1039D000C84F0020D64F0020AC4F002000B589B062
:1039E0000190019B002B01D10E2327E0019B1B8836
:1039F0009BB2ADF80C30019B5B889BB2ADF80E30EA
:103A0000019B9B889BB2ADF81030019BDB889BB279
:103A1000ADF81230019B1B7A8DF8143003AB1846B9
:103A20000EF094F90790079B0693069B002B04D099
:103A3000044A4C21069829F0F9FF0023184609B0E2
:103A40005DF804FBF897050000B59BB00390019268
:103A50001A460B468DF80B301346ADF808309DF82A
:103A60000B300B2B00F2138201A252F823F000BF9F
:103A7000273E0200A13A0200FF3A02005D3B02002D
:103A8000B73B0200153C02006F3C0200C93C02003B
:103A9000233D0200A13D0200F73D0200093E020065
:103AA000039B93F866301A46B44903202EF0BFF901
:103AB000039B93F86630002B10D04FF480700DF00C
:103AC00095FF1990199B1893189B002B00F0E1812A
:103AD000AB4A6021189829F0A9FFDAE14FF4807011
:103AE0000EF0ACF81990199B1793179B002B00F060
:103AF000D081A34A6521179829F098FFC9E1039B5B
:103B000093F867301A469F4903202EF090F9039BE3
:103B100093F86730002B10D04FF400700DF066FF63
:103B20001990199B1693169B002B00F0B481944AB0
:103B30006E21169829F07AFFADE14FF400700EF077
:103B40007DF81990199B1593159B002B00F0A3810C
:103B50008B4A7321159829F069FF9CE1039B93F828
:103B600068301A46884903202EF061F9039B93F8C8
:103B70006830002B0FD008200DF038FF1990199BEA
:103B80001493149B002B00F088817D4A7C211498AB
:103B900029F04CFF81E108200EF050F81990199B94
:103BA0001393139B002B00F07881754A81211398A1
:103BB00029F03CFF71E1039B93F869301A46734981
:103BC00003202EF034F9039B93F86930002B10D0BA
:103BD0004FF480600DF00AFF1990199B1293129B0D
:103BE000002B00F05C81664A8A21129829F01EFFA2
:103BF00055E14FF480600EF021F81990199B119354
:103C0000119B002B00F04B815D4A8F21119829F008
:103C10000DFF44E1039B93F86A301A465C49032088
:103C20002EF005F9039B93F86A30002B0FD0072084
:103C30000DF0DCFE1990199B1093109B002B00F0E7
:103C400030814F4A9821109829F0F0FE29E1072091
:103C50000DF0F4FF1990199B0F930F9B002B00F0B0
:103C60002081474A9D210F9829F0E0FE19E1039B2E
:103C700093F86B301A46474903202EF0D8F8039B7F
:103C800093F86B30002B0FD010200DF0AFFE199081
:103C9000199B0E930E9B002B00F00581384AA6213C
:103CA0000E9829F0C3FEFEE010200DF0C7FF19901A
:103CB000199B0D930D9B002B00F0F580304AAB2132
:103CC0000D9829F0B3FEEEE0039B93F86C301A4692
:103CD000314903202EF0ABF8039B93F86C30002B96
:103CE0000FD020200DF082FE1990199B0C930C9B95
:103CF000002B00F0DA80224AB4210C9829F096FEBD
:103D0000D3E020200DF09AFF1990199B0B930B9B89
:103D1000002B00F0CA801A4AB9210B9829F086FEC0
:103D2000C3E0039B93F86D301A461C4903202EF024
:103D30007EF8039B93F86D30002B0FD040200DF0E0
:103D400055FE1990199B0A930A9B002B00F0AF8037
:103D50000B4AC2210A9829F069FEA8E040200DF024
:103D60006DFF1990199B0993099B002B00F09F8010
:103D7000034AC721099829F059FE98E040980500A8
:103D8000F89705008C980500E09805002C9905002F
:103D90007C990500C8990500149A0500649A0500ED
:103DA000039B93F86E301A46454903202EF03FF8E6
:103DB000039B93F86E30002B0ED080200DF016FE82
:103DC0001990199B0893089B002B72D03D4AD02173
:103DD000089829F02BFE6CE080200DF02FFF199041
:103DE000199B0793079B002B63D0364AD521079870
:103DF00029F01CFE5DE0039B93F86F301A463249B0
:103E000003202EF014F857E0BDF80830039A01990A
:103E1000184603F0ABFEBDF808301A4600210198A1
:103E200032F0BFFD48E0BDF808301A4627490320AC
:103E30002DF0FDFFBDF80830092B0CBF0123002336
:103E4000DBB20693069B002B04D11E4AF021002012
:103E500029F0ECFD019800F031FF1990199B0593B2
:103E6000059B002B04D0174AF321059829F0DEFDAD
:103E70000198FFF7B3FD1990199B0493049B002B45
:103E800019D0104AF621049829F0D0FD13E000BFA4
:103E900012E000BF10E000BF0EE000BF0CE000BF6A
:103EA0000AE000BF08E000BF06E000BF04E000BF7A
:103EB00002E000BF00E000BF00BF1BB05DF804FBE4
:103EC000B49A0500F8970500049B0500549B050073
:103ED00000B589B003468DF80F303249324800F002
:103EE000A5FF0790079B002B0DD030482DF088FFD1
:103EF0000246079B009340F20D132D4902202DF03E
:103F0000C1FF079B49E09DF80F30002B0ED02648DB
:103F100000F0D4FE0790079B0693069B002B05D06C
:103F2000224A4FF48971069829F080FD1D4B1B68C9
:103F30001846FFF753FD0790079B002B0DD01B4839
:103F40002DF05EFF0246079B00934FF48B731849D8
:103F500002202DF097FF079B1FE004AB08220021F1
:103F6000184632F01EFD0F4B1B680493114B05934E
:103F7000114903202DF04AFF04AB19460F4823F0E6
:103F8000B5FD0790079B002B06D0079A0C4901202E
:103F90002DF04DFF079B00E00023184609B05DF8A7
:103FA00004FB00BF54500020EC970500F897050073
:103FB000A49B0500493A0200F89B0500D84F002059
:103FC000389C050000B585B0019001990D4823F09B
:103FD0005DFD019B1B88112B0FD140F6FF700DF08A
:103FE0002DFE0390039B0293029B002B05D0064AF3
:103FF00040F23711029829F019FD00BF05B05DF8B5
:1040000004FB00BFD84F0020F89705002DE9F047CA
:10401000BAB002AFF860B9607A60FB681B78082B11
:1040200000F2718501A252F823F000BF5140020056
:10403000054502005D450200E745020073480200A5
:10404000C3480200EF490200454A0200B54A020097
:104050007B68242B0CBF01230023DBB2C7F8D830C8
:10406000D7F8D830002B05D11F4A4FF4A17100209A
:1040700029F0DCFCBB68C7F8D430002387F8DD30BA
:1040800064E097F8DD309B00D7F8D42013441B6818
:104090001B14A7F8D23097F8DD30144A32F91330E8
:1040A000B7F9D2209A4225DB97F8DD10B7F9D20094
:1040B00097F8DD300D4A32F91330009303460A4673
:1040C0000B4902202DF0DEFE97F8DD30074A32F969
:1040D0001330194697F8DD309B00D7F8D4201344ED
:1040E0000A041A602DE000BFF89705006CA10500D6
:1040F000649C050097F8DD30C54A32F91330B7F9F2
:10410000D2209A421DDA97F8DD10B7F9D20097F85D
:10411000DD30BF4A32F91330009303460A46BD49E9
:1041200002202DF0AFFE97F8DD30B94A32F9133096
:10413000194697F8DD309B00D7F8D42013440A04C1
:104140001A6097F8DD30013387F8DD3097F8DD30FD
:10415000082B96D9D7F8D4301B689B111BB2A7F84F
:104160006430D7F8D43004331B689B111BB2A7F816
:104170006630D7F8D43008331B689B111BB2A7F800
:104180006830D7F8D4300C331B68DB121BB2A7F8A9
:104190006A30D7F8D43010331B68DB121BB2A7F893
:1041A0006C30D7F8D43014331B68DB121BB2A7F87D
:1041B0006E30D7F8D43018331B681B139BB25B42A8
:1041C0009BB21BB2A7F87230D7F8D4301C331B68EF
:1041D0001B131BB2A7F87030D7F8D43020331B68FC
:1041E0001B131BB2A7F874308B4904202DF00EFE70
:1041F000D7F8D4301B6818462FF07EFD03460C46D6
:10420000C7E932344FF00002844BD7E9320130F075
:1042100003F903460C46C7E9323407F15C00D7E9DD
:1042200032237F4932F0C8F907F15C0318462DF0BC
:10423000E7FD03461A467B4904202DF0F8FDD7F828
:10424000D43004331B6818462FF056FD03460C4645
:10425000C7E932344FF00002704BD7E9320130F039
:10426000DBF803460C46C7E9323407F15C00D7E9B6
:1042700032236B4932F0A0F907F15C0318462DF0A8
:10428000BFFD03461A46684904202DF0D0FDD7F83B
:10429000D43008331B6818462FF02EFD03460C4619
:1042A000C7E932344FF000025C4BD7E9320130F0FD
:1042B000B3F803460C46C7E9323407F15C00D7E98E
:1042C0003223574932F078F907F15C0318462DF094
:1042D00097FD03461A46554904202DF0A8FDD7F84E
:1042E000D4300C331B6818462FF006FD03460C46ED
:1042F000C7E932344FF00002484BD7E9320130F0C1
:104300008BF803460C46C7E9323407F15C00D7E965
:104310003223434932F050F907F15C0318462DF07F
:104320006FFD03461A46424904202DF080FDD7F860
:10433000D43010331B6818462FF0DEFC03460C46C1
:10434000C7E932344FF00002344BD7E9320130F084
:1043500063F803460C46C7E9323407F15C00D7E93D
:1043600032232F4932F028F907F15C0318462DF06B
:1043700047FD03461A462F4904202DF058FDD7F873
:10438000D43014331B6818462FF0B6FC03460C4695
:10439000C7E932344FF00002204BD7E9320130F048
:1043A0003BF803460C46C7E9323407F15C00D7E915
:1043B00032231B4932F000F907F15C0318462DF057
:1043C0001FFD03461A461C4904202DF030FDD7F886
:1043D000D4301C331B6818462FF08EFC03460C4665
:1043E000C7E932344FF000020C4BD7E9320130F00C
:1043F00013F803460C46C7E9323407F15C00D7E9ED
:104400003223074932F0D8F807F15C03184615E06B
:1044100080A10500B09C0500FC9C05000000F04058
:104420002C9D0500349D0500649D0500949D0500AC
:10443000C49D0500F89D05002C9E05002DF0E0FCB4
:1044400003461A46BC4904202DF0F1FCD7F8D430BD
:1044500018331B6818462FF04FFC03460C461A46CB
:10446000C7F8C82084F00043C7F8CC304FF00002F2
:10447000B24BD7E932012FF0CFFF03460C46C7E914
:10448000323407F15C00D7E93223AD4932F094F8B9
:1044900007F15C0318462DF0B3FC03461A46A94900
:1044A00004202DF0C4FCD7F8D43020331B68184604
:1044B0002FF022FC03460C46C7E932344FF00002CD
:1044C0009E4BD7E932012FF0A7FF03460C46C7E900
:1044D000323407F15C00D7E93223994932F06CF8A5
:1044E00007F15C0318462DF08BFC03461A469649EB
:1044F00004202DF09CFC07F164031946934823F037
:10450000E1FC05E37B68102B0CBF01230023DBB229
:10451000C7F8C430D7F8C430002B05D18C4A40F21C
:10452000BF11002029F082FABB68C7F8C030D7F865
:10453000C0301B68FB64D7F8C0305B683B65D7F8B8
:10454000C0309B687B65D7F8C030DB68BB6507F17E
:104550004C0319467D4823F02FFCD9E27B680C2BD5
:104560000CBF01230023DBB2C7F8BC30D7F8BC3046
:10457000002B05D1764A40F2E111002029F056FACD
:10458000BB68C7F8B830D7F8B8301B683B64D7F8B9
:10459000B8305B687B64D7F8B8309B68BB643B6C11
:1045A000002B02DA03F57F43FF331B141A467B6CA2
:1045B000002B02DA03F57F43FF331B141946BB6C53
:1045C000002B02DA03F57F43FF331B1400930B46E5
:1045D000604904202DF056FC07F1400319465B4862
:1045E00023F0B3FC94E26B469A467B68242B0CBF05
:1045F00001230023DBB2C7F8B430D7F8B430002B66
:1046000005D1534A4FF4F971002029F00FFABB6825
:10461000C7F8B030D7F8B0301B681B141BB2BB858D
:10462000D7F8B03004331B681B141BB2FB85D7F8D6
:10463000B03008331B681B141BB23B86D7F8B03070
:104640000C331B681B141BB27B86D7F8B0301033B9
:104650001B681B141BB2BB86D7F8B03014331B6821
:104660001B141BB2FB86D7F8B03018331B681B1421
:104670001BB23B87D7F8B0301C331B681B141BB22E
:104680007B87D7F8B03020331B681B141BB2BB8765
:10469000314B1B78013BC7F8AC302F4B1B78D9B29C
:1046A0004FF000020B46144613EB030844EB0409D9
:1046B00043464C465B1842EB04044FF000014FF0B8
:1046C0000002220142EA137219010B461446224BE2
:1046D0001B781A4613465B0013445B001E4B1B7885
:1046E000D9B24FF000020B461446DD1844EB040625
:1046F0002B4634465B1842EB04044FF000014FF0A8
:104700000002220142EA137219010B461446124BB1
:104710001B781A4613465B0013445B000733DB0823
:10472000DB00ADEB030D02AB0033C7F8A83000236C
:1047300087F8DE3038E000BF609E05000000F040E2
:104740002C9D0500909E0500C09E0500D84F0020BE
:10475000F8970500F09E050092A1050097F8DE305D
:104760009B00D7F8B02013441B6818462FF0C4FAFA
:104770004FF00002C24B2FF04FFE03460C46C7E934
:10478000283497F8DE2013465B0013445B00D7F80B
:10479000A820D018D7E92823BA4931F00DFF97F89F
:1047A000DE30013387F8DE30B74B1B7897F8DE2018
:1047B0009A42D3D3B54904202DF028FBD7F8A8306E
:1047C00018462DF01DFB0446D7F8A83006331846CE
:1047D0002DF016FB0546D7F8A8300C3318462DF0FF
:1047E0000FFB034600932B462246A94904202DF0D7
:1047F00049FBD7F8A830123318462DF001FB0446C8
:10480000D7F8A830183318462DF0FAFA0546D7F82D
:10481000A8301E3318462DF0F3FA034600932B46BA
:1048200022469B4904202DF02DFBD7F8A8302433D5
:1048300018462DF0E5FA0446D7F8A8302A33184672
:104840002DF0DEFA0546D7F8A830303318462DF0A3
:10485000D7FA034600932B4622468D4904202DF0BB
:1048600011FB07F12C0319468A4823F0B1FBD5460A
:104870004EE17B68042B0CBF01230023DBB2C7F899
:104880009C30D7F89C30002B05D1834A40F2172189
:10489000002029F0CBF8BB681B68BB62BB6A002B09
:1048A00002DA03F57F43FF331B141A467B490420C9
:1048B0002DF0BDFA07F128031946764823F0CBFB0B
:1048C00026E16B461D467B680C2B0CBF01230023A1
:1048D000DBB2C7F89830D7F89830002B05D16E4A74
:1048E00040F22221002029F0A1F8BB68C7F89430DB
:1048F000D7F894301B68FB61D7F894305B683B6253
:10490000D7F894309B687B62654B1B78013BC7F8F6
:104910009030634B1B78D9B24FF000024FF0000388
:104920004FF00004940144EA91648B015C4B1B78C6
:10493000D9B24FF000024FF000034FF00004940191
:1049400044EA91648B01564B1B78DB000733DB088C
:10495000DB00ADEB030D02AB0033C7F88C30002356
:1049600087F8DF301AE097F8DF30DB00D7F88C20CB
:10497000D41897F8DF309B00D7F8942013441B68B5
:1049800018462FF0F5FA02460B464649204631F00C
:1049900013FE97F8DF30013387F8DF30404B1B7888
:1049A00097F8DF209A42DED3D7F88C3018462DF0E6
:1049B00027FA0446D7F88C30083318462DF020FA31
:1049C0000646D7F88C30103318462DF019FA0346F6
:1049D000009333462246344904202DF053FA07F160
:1049E0001C0319462B4823F07AFBAD4690E07B6808
:1049F000022B0CBF01230023DBB2C7F88830D7F8A5
:104A00008830002B05D1244A40F23F21002029F0B4
:104A10000DF8BB68C7F88430D7F884301B783B7634
:104A2000D7F884305B787B767B7E1A463B7E1F49C5
:104A300004202DF010FA07F118031946154823F049
:104A400035F965E07B68012B0CBF01230023DBB245
:104A5000C7F88030D7F88030002B05D10E4A4FF4CC
:104A60001471002028F0E2FFBB681B781A46104939
:104A700004202DF0DCF9B968064823F05AF947E024
:104A80000000D041549F050092A105005C9F0500E5
:104A9000909F0500D84F0020F8970500B89F0500AB
:104AA00093A10500F89F050000A005004CA005009B
:104AB00084A005007B68082B0CBF01230023DBB218
:104AC000FB67FB6F002B05D1144A40F25A210020EE
