:020000021000EC
:10F000000000012033F10100D9F00100DBF0010024
:10F01000DDF00100DFF00100E1F001000000000080
:10F02000000000000000000000000000E3F001000C
:10F03000E5F0010000000000E7F00100E9F0010048
:10F04000F9B50400EDF00100EFF0010059A904004A
:10F05000F3F001005925050061980400D9B80400B7
:10F06000FBF00100FDF00100FFF0010001F10100E3
:10F0700003F10100BDC7040007F1010009F101001F
:10F080000BF10100D9DD04000FF1010011F10100C5
:10F0900019DE040015F10100E110050019F101006D
:10F0A0001BF101001DF1010065C90400C12205002A
:10F0B00071B2040075C304000000000000000000ED
:10F0C00027F1010029F101002BF101002DF10100D0
:08F0D0002FF1010031F10100F4
:10F0D800FEE7FEE7FEE7FEE7FEE7FEE7FEE7FEE700
:10F0E800FEE7FEE7FEE7FEE7FEE7FEE7FEE7FEE7F0
:10F0F800FEE7FEE7FEE7FEE7FEE7FEE7FEE7FEE7E0
:10F10800FEE7FEE7FEE7FEE7FEE7FEE7FEE7FEE7CF
:10F11800FEE7FEE7FEE7FEE7FEE7FEE7FEE7FEE7BF
:10F12800FEE7FEE7FEE7FEE7FEE70348854600F058
:10F13800C5F800F003B87047000001203749384887
:10F148000A1A02D0072291438D46364936480A1AD0
:10F1580006D00722914381F30988022282F314889A
:10F1680032483349334A00F048F833483349344A7F
:10F1780000F043F833483449344A00F03EF8344844
:10F188003449354A00F039F834483549354A00F0F1
:10F1980034F835483549364A00F02FF835483649AD
:10F1A800364A00F02AF836483649374A00F025F83A
:10F1B80036483749002200F02BF8364836490022F5
:10F1C80000F026F835483649091A082903DB0022D9
:10F1D8000260043001601F481F49884205D0026858
:10F1E800043003B4904703BCF7E700208646EC469A
:10F1F800002000212B4A9047FEE7884207D0521A88
:10F2080005D0037801300B700131013AF9D170470C
:10F21800884202D002700130FAE7704700000120EE
:10F2280000FC00200000012000000120E04306004F
:10F238005845002078460020B0F20100B0F20100E5
:10F24800D86E0500E04306005845002058450020C8
:10F25800D86E0500D86E0500D86E0500D86E05007A
:10F26800D86E0500D86E0500D86E0500D86E05006A
:10F27800E043060000450600784600207846002056
:10F288000045060078460020884600208846002071
:10F2980038A1002038A1002040A1002040A1002072
:08F2A80040A5002091FD0100CA
:10F2B000024B034A1A6000BF704700BF5845002048
:10F2C0000090D00308B500F00DF90346002B06D0DE
:10F2D000744B1B681B0A744A03F01F03136000F091
:10F2E0002DF90346002B02D0704B714A1A6000F0D2
:10F2F00041F90346002B06D06E4B1B685B0B6E4A30
:10F3000003F00703136000F061F90346002B05D0FA
:10F310006A4BDB68694A23F08073D36000F072F9AE
:10F320000346002B0ED04FF080430022C3F80C217F
:10F330004FF080430022C3F810214FF08043002299
:10F34000C3F8382500F08AF90346002B02D05C4B45
:10F3500003221A6000F09EF90346002B0BD0594B94
:10F3600005221A60584B01221A60584B00221A607D
:10F37000574B3F221A6000F0A9F90346002B76D0C4
:10F380004FF08053534AD3F80434C2F820354FF07D
:10F390008053504AD3F80834C2F824354FF08053D4
:10F3A0004C4AD3F80C34C2F828354FF08053494A00
:10F3B000D3F81034C2F82C354FF08053454AD3F8B7
:10F3C0001434C2F830354FF08053424AD3F8183421
:10F3D000C2F834354FF080533E4AD3F81C34C2F89B
:10F3E00040354FF080533B4AD3F82034C2F84435BF
:10F3F0004FF08053374AD3F82434C2F848354FF0E1
:10F400008053344AD3F82834C2F84C354FF0805337
:10F41000304AD3F82C34C2F850354FF080532D4A7F
:10F42000D3F83034C2F854354FF08053294AD3F81A
:10F430003434C2F860354FF08053264AD3F838345C
:10F44000C2F864354FF08053224AD3F83C34C2F8F6
:10F4500068354FF080531F4AD3F84034C2F86C35FA
:10F460004FF080531B4AD3F84434C2F8703500F093
:10F4700049F90346002B05D0174B1B68174A03F0C8
:10F480004F031360164BD3F88830154A43F47003CA
:10F49000C2F88830BFF34F8FBFF36F8FFFF708FFBD
:10F4A00000BF08BD240300104035014074C0074070
:10F4B0000DF0ADBA440200103C050040F0ED00E054
:10F4C000A0050040105600408856004018560040E5
:10F4D0001456004000C0004058020010E40E0040E6
:10F4E00000ED00E0124B1B68DBB2062B1DD1114B67
:10F4F0001B6803F00F03002B17D10F4B1B6803F0A1
:10F50000F003302B01D1012310E00B4B1B6803F0FB
:10F51000F003402B01D1012308E0074B1B6803F0E7
:10F52000F003502B01D1012300E00023184670475F
:10F53000E00F00F0E40F00F0E80F00F00A4B1B684A
:10F54000DBB2062B0DD1094B1B6803F00F03002B18
:10F5500007D1074B1B6803F0F003302B01D10123C7
:10F5600000E0002318467047E00F00F0E40F00F0C1
:10F57000E80F00F0124B1B68DBB2062B1DD1114BBC
:10F580001B6803F00F03002B17D10F4B1B6803F010
:10F59000F003302B01D1012310E00B4B1B6803F06B
:10F5A000F003402B01D1012308E0074B1B6803F057
:10F5B000F003502B01D1012300E0002318467047CF
:10F5C000E00F00F0E40F00F0E80F00F00A4B1B68BA
:10F5D000DBB2062B0DD1094B1B6803F00F03002B88
:10F5E00007D1074B1B6803F0F003302B01D1012337
:10F5F00000E0002318467047E00F00F0E40F00F031
:10F60000E80F00F0124B1B68DBB2062B1DD1114B2B
:10F610001B6803F00F03002B17D10F4B1B6803F07F
:10F62000F003302B01D1012310E00B4B1B6803F0DA
:10F63000F003402B01D1012308E0074B1B6803F0C6
:10F64000F003502B01D1012300E00023184670473E
:10F65000E00F00F0E40F00F0E80F00F00A4B1B6829
:10F66000DBB2062B0DD1094B1B6803F00F03002BF7
:10F6700007D1074B1B6803F0F003302B01D10123A6
:10F6800000E0002318467047E00F00F0E40F00F0A0
:10F69000E80F00F00A4B1B68DBB2062B0DD1094BBB
:10F6A0001B6803F00F03002B07D1074B1B6803F007
:10F6B000F003302B01D1012300E0002318467047EE
:10F6C000E00F00F0E40F00F0E80F00F00A4B1B68B9
:10F6D000DBB2062B0DD1094B1B6803F00F03002B87
:10F6E00007D1074B1B6803F0F003502B01D1012316
:10F6F00000E0002318467047E00F00F0E40F00F030
:10F70000E80F00F0124B1B68DBB2062B1DD1114B2A
:10F710001B6803F00F03002B17D10F4B1B6803F07E
:10F72000F003302B01D1012310E00B4B1B6803F0D9
:10F73000F003402B01D1012308E0074B1B6803F0C5
:10F74000F003502B01D1012300E00023184670473D
:10F75000E00F00F0E40F00F0E80F00F00048704701
:10F7600030A1002082B003468DF807309DF80730A5
:10F7700003F01F0206499DF907305B09012000FADA
:10F7800002F2603341F8232000BF02B0704700BF8F
:10F7900000E100E0BFF34F8F054BDB6803F4E0624C
:10F7A0000349044B1343CB60BFF34F8F00BFFDE70A
:10F7B00000ED00E00400FA0532DF704700BF184694
:10F7C0003EDF704700BF184682B001904FF0A04363
:10F7D000184602B0704700B585B001900846114642
:10F7E0001A4603468DF803300B468DF80230134657
:10F7F0008DF8013001AB1846FFF7E6FF03909DF846
:10F8000003209DF802305B001A439DF801309B00F5
:10F810001A439DF818301B0242EA03019DF81C3080
:10F820001B04019A1943039B02F5E07243F822106E
:10F8300000BF05B05DF804FB00B585B003900B4632
:10F840008DF80B3013468DF80A309DF80B209DF88B
:10F850000A300193002300931346002200210398ED
:10F86000FFF7B9FF00BF05B05DF804FB84B001905D
:10F87000244B0393019B002B40D0234B1A68039920
:10F88000019B00BF00BF00BF00BF00BF00BF00BFA3
:10F8900000BF8A422FD000BF00BF00BF00BF00BF23
:10F8A00000BF00BF00BF00BF00BF00BF00BF00BF60
:10F8B00000BF00BF00BF00BF00BF00BF00BF00BF50
:10F8C00000BF00BF00BF00BF00BF00BF00BF00BF40
:10F8D00000BF00BF00BF00BF00BF00BF00BF00BF30
:10F8E00000BF00BF00BF00BF00BF00BF00BF00BF20
:10F8F00000BF00BF00BF013BC3D1019300BF04B0F4
:10F90000704700BF0024F4005845002000B583B0C4
:10F910000190019B4FF47A7202FB03F31846FFF744
:10F92000A5FF00BF03B05DF804FB000070B58AB00E
:10F93000079006910592059B0993099B5B68184601
:10F9400031F0F2FC0546099B1B881E46099B9C680A
:10F95000099B9B68184632F0CBF80346184631F0F5
:10F96000E3FC03460393029401960095069B079AD5
:10F970000849012031F04EFD022005F053FE05201C
:10F98000FFF7C4FF059A069907982DF0FBFA00BF10
:10F990000AB070BD506F050000B587B0F1EE103AA7
:10F9A0000193019B23F09F030293029BE1EE103A27
:10F9B000F1EE103A03932620FFF7D4FEFFF700FF85
:10F9C0000590059B0493049B002B04D0044AB921A5
:10F9D00004982DF0BFFA00BF07B05DF804FB00BF2C
:10F9E000E46F050000B589B00390039B5B881A465D
:10F9F000039B1B791946039B1B7800930B462049F8
:10FA0000032031F0D3FC039B002B34D0039B1B78E5
:10FA1000012B30D107F0EAFF0790079B0693069B66
:10FA2000002B04D0174ACB2106982DF093FA02221E
:10FA300000210D20FFF700FF1349022031F07AFC6E
:10FA4000FFF7BAFE079007F0AFFD034683F001030E
:10FA5000DBB2002B0AD0079B0593059B002B0AD035
:10FA6000084AD82105982DF075FA04E007490220CC
:10FA700031F060FCFEE700BF09B05DF804FB00BF99
:10FA8000FC700500E46F050044710500C0700500BE
:10FA900000B583B00190019B1B78012B08D0022B8D
:10FAA00010D0002B15D10D49032031F043FC10E09C
:10FAB0000B49032031F03EFC0520FFF727FFFFF73D
:10FAC00069FE06E00749032031F034FCFFF762FECF
:10FAD00000BF00BF03B05DF804FB00BFA8710500C4
:10FAE000E47105002472050000B59BB001AB24222F
:10FAF0000021184636F0E9F91C238DF80A30052359
:10FB00008DF80B300D238DF80C3011238DF80D304E
:10FB100001238DF80E3004238DF80F3040F61C437E
:10FB2000ADF8103041F25E03ADF81230594B059339
:10FB3000594B06936F23ADF81C3040F61C43ADF8CB
:10FB40001E300A238DF82030544B09930F2006F005
:10FB5000B3FD1990199B1893189B002B05D0504AA0
:10FB60004FF4897118982DF0F5F94E4B0F930FABA8
:10FB700019464D4805F0F8FD1990199B1793179BEE
:10FB8000002B05D0464A4FF48C7117982DF0E2F9FE
:10FB9000444B0E930EAB1946444803F0EFFA19900C
:10FBA000199B1693169B002B05D03D4A4FF48F717D
:10FBB00016982DF0CFF93B4B0D930DAB19463C48F1
:10FBC00004F0B4FF1990199B1593159B002B05D0D9
:10FBD000334A40F2251115982DF0BCF9354806F04E
:10FBE000AFF91990199B1493149B002B05D02C4A44
:10FBF0004FF4947114982DF0ADF92F4B019301AB94
:10FC000019462E4807F0AEFA1990199B1393139BCF
:10FC1000002B05D0224A40F22D1113982DF09AF9AD
:10FC200041F2883007F01EFA1990199B1293129B2B
:10FC3000002B05D01A4A4FF4987112982DF08AF9CA
:10FC40001F4B0A93194B0B9305230C930AAB1846D1
:10FC500001F094FC1990199B1193119B002B05D076
:10FC60000F4A4FF49C7111982DF074F9012005F0A2
:10FC7000D9FC1990199B1093109B002B05D0084AB2
:10FC800040F23B1110982DF065F900BF1BB05DF8F4
:10FC900004FB00BF60E3160020BF0200D86E050021
:10FCA000E46F0500486F0500984600208846002054
:10FCB00090460020A0460020E5F90100A84600205B
:10FCC00091FA010000B585B00C4B019301AB1846C9
:10FCD00007F03AFE0390039B0293029B002B05D092
:10FCE000074A4FF4AF7102982DF034F96420FFF702
:10FCF0000DFE00BF05B05DF804FB00BFA07205005B
:10FD0000E46F050000B589B01E4B02931E4B0393B0
:10FD100002AB18460AF038FF0790079B0693069B34
:10FD2000002B05D0194A40F2751106982DF012F9F2
:10FD3000144B0093144B01936B4618460AF0F4FFE2
:10FD40000790079B0593059B002B05D00F4A40F2B7
:10FD50007B1105982DF0FEF80BF002FA0790079B37
:10FD60000493049B002B05D0084A4FF4BF710498FC
:10FD70002DF0F0F86420FFF7C9FD00BF09B05DF871
:10FD800004FB00BF486F0500BC720500E46F05006E
:10FD900000B587B0002031F077FA0590059B0493F9
:10FDA000049B002B05D01B4A4FF4D77104982DF00B
:10FDB000D1F81949032031F0BDFA184A3C21082036
:10FDC0002DF084F90390039B0293029B002B05D036
:10FDD000104A4FF4DA7102982DF0BCF82EF022F898
:10FDE0000590059B0193019B002B05D0094A4FF418
:10FDF000DB7101982DF0AEF8FFF764FFFFF774FE9A
:10FE0000FFF780FF07F01AFE2DF026FAFFF7C4FD7A
:10FE1000FAE700BFE46F050060720500B0460020FD
:10FE20006DDF704700BF184676DF704700BF184689
:10FE30007ADF704700BF18467CDF704700BF184666
:10FE40007FDF704700BF18468FDF704700BF18463E
:10FE50009EDF704700BF1846A9DF704700BF1846F5
:10FE6000ADDF704700BF184669DF704700BF184616
:10FE700066DF704700BF184631DF704700BF184685
:10FE80003DDF704700BF184684B00190244B0393B8
:10FE9000019B002B40D0234B1A680399019B00BFA4
:10FEA00000BF00BF00BF00BF00BF00BF00BF8A424D
:10FEB0002FD000BF00BF00BF00BF00BF00BF00BF0A
:10FEC00000BF00BF00BF00BF00BF00BF00BF00BF3A
:10FED00000BF00BF00BF00BF00BF00BF00BF00BF2A
:10FEE00000BF00BF00BF00BF00BF00BF00BF00BF1A
:10FEF00000BF00BF00BF00BF00BF00BF00BF00BF0A
:10FF000000BF00BF00BF00BF00BF00BF00BF00BFF9
:10FF100000BF013BC3D1019300BF04B0704700BFD5
:10FF20000024F4005845002000B583B00190019BE7
:10FF30004FF47A7202FB03F31846FFF7A5FF00BFE8
:10FF400003B05DF804FB000000B583B001900091A0
:10FF5000009B1B78012B09D0022B02D0002B0AD06A
:10FF60000EE00C49032031F0E5F90EE00A490320C8
:10FF700031F0E0F909E00949032031F0DBF904E050
:10FF80000749022031F0D6F900BF00BF03B05DF889
:10FF900004FB00BFF0740500307505006C750500AA
:10FFA000AC75050000B585B00023019301AB184680
:10FFB0002EF04CFB03468DF80F309DF80F30029366
:10FFC000029B002B04D0074A842102982CF0C2FF28
:10FFD000019B002B14BF01230023DBB2184605B0A0
:10FFE0005DF804FBE875050000B589B003900B4689
:10FFF0008DF80B3000238DF817300DF117031846DC
:020000022000DC
:100000002CF078FB00238DF81F3016E09DF81F3090
:1000100001338DF81F302E49022031F08BF90DF19C
:10002000170318462CF066FB0520FFF77DFF9DF8AF
:100030001F30052B01D90D2345E09DF817309DF8A1
:100040000B209A42E2D89DF817301A462149032026
:1000500031F081F99DF80B30194603982CF066FBBE
:100060000690069B002B0CD01B4831F05DF9024630
:10007000069B0093A3231949022031F097F9069BB0
:1000800021E01749032031F055F900238DF81E3087
:100090000EE09DF81E30039A13441B781A4611494E
:1000A000132031F058F99DF81E3001338DF81E30C1
:1000B0009DF81E209DF80B309A42EAD30A4913207E
:1000C00031F038F90023184609B05DF804FB00BF91
:1000D0002C7605007C760500E8750500B4760500F1
:1000E00008770500387705004077050010B586B021
:1000F0009DF804306FF303038DF804309DF804304D
:100100006FF307138DF80430474B1B681C46464BB2
:100110001B68184635F055FF03469AB201AB2146DD
:100120001846FFF789FE0590059B0493049B002B5E
:1001300004D03E4AC22104982CF00CFF02AB0822E6
:100140000021184635F0C1FE374B1B68B3F80F305D
:100150009BB2ADF80830344B1B68B3F811309BB23A
:10016000ADF80A30304B1B68B3F813309BB2ADF8D2
:100170000C302D4B1B68B3F815309BB2ADF80E3028
:1001800002AB1846FFF754FE0590059B072B41D1A3
:10019000254B1B68002242F00602DA7300221A7413
:1001A000214B1B68002242F00C025A7400229A7400
:1001B0001D4B1B680022DA7400221A751A4B1B684B
:1001C000002242F040025A75002242F001029A7564
:1001D000154B1B68184601F05FFB0590059B002B33
:1001E00001D0059B1CE00623ADF808300C23ADF8C8
:1001F0000A300023ADF80C304FF4A073ADF80E3088
:1002000002AB1846FFF714FE0590059B002B06D0A5
:10021000059B05E0059B002B01D0059B00E000231A
:10022000184606B010BD00BFD84A0020E87505008A
:1002300000B585B00190019B1B78002B16D11149A8
:10024000012031F077F8104B1B883B211846FFF74F
:10025000EBFD0390039B0293029B002B0ED00B4AF5
:1002600040F2011102982CF075FE07E0019B1B780B
:10027000012B03D10649032031F05CF800BF05B023
:100280005DF804FB447705005C450020E875050037
:100290009477050000B583B00190019A06490120CA
:1002A00031F059F8054A40F2151101982CF052FE30
:1002B00000BF03B05DF804FBE0770500E8750500BA
:1002C00000B58BB002AB1C220021184635F0FDFDB5
:1002D0006B4608220021184635F0F7FD1F4B1B68BE
:1002E000B3F80F309BB2ADF800301C4B1B68B3F86D
:1002F00011309BB2ADF80230184B1B68B3F81330C5
:100300009BB2ADF80430154B1B68B3F815309BB2A7
:10031000ADF806306B4602934FF4004303934FF45D
:100320007023049303238DF814300023ADF81630A6
:1003300000238DF818300A4B07930A4B089302AB41
:10034000184622F0DDFE0990099B002B01D0099B85
:1003500000E0002318460BB05DF804FBD84A0020EB
:10036000310202009502020000B589B003468DF803
:1003700007309DF80730002B06D0032B20D11449FD
:10038000032030F0D7FF1EE01249032030F0D2FFE7
:1003900002238DF80C30104B1B6803AA10469847B7
:1003A000032022F0F9FC0790079B0693069B002B85
:1003B00008D00A4A40F2531106982CF0CBFD01E018
:1003C00000BF00E000BF00BF09B05DF804FB00BF44
:1003D0001C78050054780500804A0020E875050067
:1003E00000B58DB00190019B1B88013B542B00F29E
:1003F0006F8101A252F823F001060200D10602002B
:10040000D1060200D1060200D1060200D106020088
:10041000D1060200D1060200D1060200D106020078
:10042000D1060200D1060200D1060200D106020068
:10043000D10602004D0502006F050200D106020040
:10044000AF050200D1060200D1060200D10602006B
:10045000D1060200D1060200D1060200D106020038
:10046000D1060200D1060200D1060200D106020028
:10047000D1060200D106020097060200C70602005C
:10048000D1060200D1060200D1060200D106020008
:10049000D1060200D1060200D1060200D1060200F8
:1004A000D1060200D1060200D1060200D1060200E8
:1004B000D1060200D1060200D1060200D1060200D8
:1004C000D1060200D1060200D1060200D1060200C8
:1004D000D1060200D1060200D10602008706020002
:1004E000D1060200D1060200D1060200D1060200A8
:1004F000D1060200D1060200D1060200D106020098
:10050000D1060200D1060200D1060200D106020087
:10051000D1060200D1060200D1060200D106020077
:10052000D1060200D1060200D1060200D106020067
:10053000D1060200D1060200D1060200D905020050
:10054000D1060200D10602002706020068490320F6
:1005500030F0F0FE019B9A88664B1A8000238DF8DC
:100560000830654B1B6802AA10469847BBE0019B08
:100570001B7A1A466149032030F0EDFE5D4B4FF6C1
:10058000FF721A80FFF70EFD0346002B03D05C4B71
:1005900001221A70A7E05A4B00221A7001238DF82D
:1005A0000830554B1B6802AA104698479BE0514BF8
:1005B0001888002300228521FFF742FC0B900B9B3B
:1005C0000A930A9B002B00F085804E4A40F283116B
:1005D0000A982CF0BFFC7DE0464B188800230022CF
:1005E0000021FFF739FC0B900B9B0993099B002B13
:1005F00072D0444A40F2891109982CF0ABFC6BE0B0
:100600003C4B1B8800211846FFF732FC0B900B9BDC
:100610000893089B002B61D03A4A4FF4C7710898A1
:100620002CF098FC5AE0019BDB881A4636490320DF
:1006300030F091FE019B9B884FF48A711846FFF7BA
:100640000FFC0B900B9B0793079B002B05D02D4AAB
:100650004FF4CB7107982CF07DFC019BDA882B4B73
:10066000A3F8012029492A4824F080FE0B900B9B17
:100670000693069B002B33D0224A4FF4CD71069887
:100680002CF068FC2CE0019B5B891A462149032071
:1006900030F061FE27E02049032030F04BFE019B43
:1006A0009B88002200211846FFF7CEFB0B900B9B86
:1006B0000593059B002B15D0124A40F2A71105980F
:1006C0002CF048FC0EE01549032030F033FE0AE020
:1006D00000BF08E000BF06E000BF04E000BF02E08A
:1006E00000BF00E000BF00BF0DB05DF804FB00BF1D
:1006F0008C7805005C450020804A0020C878050001
:10070000DF4A0020E875050018790500DC4A002062
:100710008C4A002068790500B4790500047A050048
:1007200000B585B00190019822F01CFF019822F0DD
:1007300019FE0023039312E0144B1A68039BDB009D
:1007400013445B68002B07D0104B1A68039BDB0037
:1007500013445B6801989847039B013303930C4B48
:100760001B68039A9A42E7D301990A4824F043FD93
:100770000199094830F02DFA0198FFF731FE0198F0
:1007800022F0F4FB00BF05B05DF804FB844A0020B2
:10079000884A00208C4A0020FC4A002000B587B01F
:1007A000019001982DF064FF019805F079FE019801
:1007B00022F0F8FB019B022B02D0019B032B13D1EB
:1007C000FFF7F0FB034683F00103DBB2002B0BD0F5
:1007D000074B1B78002B07D001238DF80C30054BFD
:1007E0001B6803AA1046984700BF07B05DF804FBDA
:1007F000DF4A0020804A002000B593B0A54B1B685B
:10080000049304A8A44B4FF4A672A44930F0DCFB77
:100810001190119B1093109B002B05D0A04A4FF410
:10082000FE7110982CF096FB0023039303AB18463F
:1008300030F08EFC0F900F9B0E930E9B002B05D07B
:10084000974A4FF400710E982CF084FB6B460C22F3
:100850000021184635F039FB01238DF800304FF4A4
:100860008A73ADF80230039A6B4619462320FFF7CE
:10087000FBFA0F900F9B0D930D9B002B05D0884A20
:1008800040F209210D982CF065FB6B460C220021EB
:10089000184635F01AFB01238DF8003001238DF83E
:1008A00002300623ADF80430039A6B461946202027
:1008B000FFF7DAFA0F900F9B0C930C9B002B05D0DF
:1008C000774A40F211210C982CF044FB6B460C2225
:1008D0000021184635F0F9FA01238DF80030102375
:1008E0008DF80230039A6B4619462220FFF7BCFAB6
:1008F0000F900F9B0B930B9B002B05D0684A4FF476
:1009000006710B982CF026FB6B460C220021184632
:1009100035F0DBFA01238DF8003002238DF8023028
:10092000039A6B4619462120FFF79EFA0F900F9B02
:100930000A930A9B002B05D0594A40F21F210A98BE
:100940002CF008FB6B460C220021184635F0BDFA4E
:1009500002238DF80030039A6B4619460120FFF7F9
:1009600083FA0F900F9B0993099B002B05D04C4AEB
:100970004FF4097109982CF0EDFA6B460C22002116
:10098000184635F0A2FA01238DF80030039A6B4621
:1009900019464020FFF768FA0F900F9B0893089BB9
:1009A000002B05D03E4A40F2292108982CF0D2FABB
:1009B0006B460C220021184635F087FA4FF47A6313
:1009C0000093039A6B461946A120FFF74DFA0F904A
:1009D0000F9B0793079B002B05D0314A40F22E2135
:1009E00007982CF0B7FA6B460C220021184635F018
:1009F0006CFA9DF8003043F001038DF80030039A43
:100A00006B461946A020FFF72FFA0F900F9B069315
:100A1000069B002B05D0224A40F2332106982CF089
:100A200099FA03AB184630F0A3FB0F900F9B059388
:100A3000059B002B05D01A4A40F2362105982CF070
:100A400089FA184830F02CFB0F900F9B002B01D037
:100A50000F9B1BE0144830F033FB0F900F9B002BD3
:100A600001D00F9B12E00120FFF706FA0F900F9BB9
:100A7000002B01D00F9B09E00120FFF701FA0F9036
:100A80000F9B002B01D00F9B00E00023184613B0F2
:100A90005DF804FB4C7A050045120500144B00205C
:100AA000E8750500210702009D07020000B5B1B0FE
:100AB0004FF48073ADF878303B4B1B788DF87A306B
:100AC0001FAB3C220021184635F0FFF902238DF8B8
:100AD0007C3000238DF87E3006238DF87F30012393
:100AE000ADF884301EAB229316AB202200211846AD
:100AF00035F0EBF901238DF85B302C4B1B689B899B
:100B00009BB21A93294B1B689B7B1B9307AB3C2220
:100B10000021184635F0D9F900238DF8BF3010E0D8
:100B20009DF8BF30C3F103029DF8BF3020498A5CB5
:100B300030A90B4403F8B42C9DF8BF3001338DF875
:100B4000BF309DF8BF30032BEAD95923ADF81030E0
:100B500003AB06930423ADF8143000238DF81C304A
:100B600004AB109316AA07A91FA800230093114BEA
:100B700022F00EF82E902E9B002B0DD00E4830F058
:100B8000D3FB02462E9B009340F282230B490220A6
:100B900030F00CFC2E9B03E0012021F0EBFF002342
:100BA000184631B05DF804FB8C4A0020D84A00207A
:100BB000F84A002069030200E8750500B4760500D4
:100BC00000B583B00190054A40F28F2101982CF0C6
:100BD000C1F900BF03B05DF804FB00BFE875050074
:100BE00000B583B01A4B1B6893F82830022B03D84A
:100BF00005F014FD002327E0164B4FF43E721A60F7
:100C0000134B1B681733134A5360114B1B6893F83F
:100C100028309AB20F4B1A810E4B0F4A5A610F4877
:100C2000FFF7FEF80190019B002B01D0019B0BE028
:100C3000084BDB7A0233DAB2064BDA72054805F06C
:100C400081FC05F0ADFC0023184603B05DF804FB01
:100C5000D84A0020604C0020C10B02006A4C0020E2
:100C600000B595B0039001921A460B468DF80B30F3
:100C70001346ADF8083000238DF84F309DF80B3047
:100C8000062B00F2598101A252F823F0A90C0200B0
:100C9000E50C0200090D0200910D0200E10D0200B9
:100CA000130E0200AB0E0200BDF808300A2B00F252
:100CB0003681AE4B1B681846BDF808301A460199BC
:100CC00035F0DAF8A94B1A68BDF808300021D15484
:100CD000A64B1B68BDF80820D2B2DA7201238DF84A
:100CE0004F301CE1BDF80830032B40F01A819F4BB8
:100CF0001B680C33BDF808200199184635F0BCF884
:100D000001238DF84F300CE1BDF80830082B40F07E
:100D10000A81964B1B680F33BDF8082001991846CD
:100D200035F0AAF805AB08220021184635F0CDF8B9
:100D30008E4B1B68B3F80F309BB2ADF814308B4B61
:100D40001B68B3F811309BB2ADF81630874B1B68A7
:100D5000B3F813309BB2ADF81830844B1B68B3F86E
:100D600015309BB2ADF81A3005AB184622F020FBC7
:100D70001290129B1193119B002B05D07C4A40F2DC
:100D8000E12111982CF0E6F801238DF84F30CAE0EC
:100D9000BDF80830112B00F2C880744B1B68173364
:100DA000BDF808200199184635F066F86F4B1B68AE
:100DB000BDF80820D2B283F8282001238DF84F30E7
:100DC000FFF70EFF1090109B0F930F9B002B00F06E
:100DD000AC80674A4FF43C710F982CF0BBF8A4E04C
:100DE000BDF80830FA2B00F2A280604B1B68293353
:100DF000BDF808200199184635F03EF85B4B1B689A
:100E0000BDF80820D2B283F8232101238DF84F309A
:100E10008DE0BDF80830032B40F08B80019B0E93D2
:100E20000E9B1B78012B2FD10E9BB3F801309BB288
:100E30001A465049032030F08EFA4F4B1A880E9B09
:100E4000B3F801309BB219461046FFF701F80D9038
:100E50000D9B002B07D1BDF808301A460199474871
:100E600035F00AF865E04549454824F07FFA0D90D1
:100E70000D9B0C930C9B002B5BD03D4A40F20D3137
:100E80000C982CF067F854E03C493D4824F06EFA89
:100E90000D900D9B0B930B9B002B4AD0344A40F2D4
:100EA00013310B982CF056F843E0BDF80830F72BBF
:100EB00041D82E4B1B6803F59573BDF808200199A6
:100EC000184634F0D9FF294B1B68BDF80820D2B270
:100ED00083F8212214F0F0FA0A900A9B002B05D027
:100EE000234A40F21E310A982CF034F81F4B1B683D
:100EF00003F59573BDF80820D2B21146184614F0D8
:100F0000EFF80990099B002B05D0194A40F21F31D8
:100F100009982CF01FF801238DF84F300BE000BF2B
:100F20000AE000BF08E000BF06E000BF04E000BF29
:100F300002E000BF00E000BF9DF84F30002B10D052
:100F40000A4B1B68184600F0A7FC0890089B079303
:100F5000079B002B05D0064A40F22B3107982BF057
:100F6000F9FF00BF15B05DF804FB00BFD84A0020B0
:100F7000E8750500507A05005C450020DC4A002039
:100F80008C4A002000B589B000238DF81F30724BC9
:100F90001B6893F82431FF22934214BF01230023DE
:100FA0008DF81E306C4B1B6893F82531FF2293425D
:100FB00014BF012300238DF81D30674B1B6893F885
:100FC0002631FF22934214BF012300238DF81C30E9
:100FD000614B1A6803AB02F59272118892781980FE
:100FE0009A709DF81E30002B07D19DF81D30002B04
:100FF00003D19DF81C30002B2ED0574B1B68FF22CD
:1010000083F82421544B1B68FF2283F82521524B7F
:101010001B68FF2283F8262101238DF81F309DF8DD
:101020001E30002B03D19DF81D30002B14D000235F
:101030008DF81F30494B01221A70494800F02CFCF2
:101040000690069B0593059B002B05D0454A40F270
:101050004E3105982BF07EFFFF231A46FF231946D9
:10106000FF2300930B464049032030F09FF93B4B90
:101070001B78002B0DD09DF80C301A469DF80D30D2
:1010800019469DF80E3000930B463849032030F086
:101090008DF9314B1B6893F82830112B0FD92E4B4B
:1010A0001B6817330E223249184634F0E5FE2A4BEE
:1010B0001B680E2283F8282001238DF81F30264B51
:1010C0001B6893F82331FA2B0FD9234B1B68293364
:1010D00000222849184634F0CFFE1F4B1B6800221F
:1010E00083F8232101238DF81F301B4B1B6893F8D5
:1010F0002132F72B05D8184B1B6893F82132002BAF
:1011000010D1154B1B6803F5957316221A49184622
:1011100034F0B2FE104B1B68162283F82122012303
:101120008DF81F309DF81F30002B10D00A4B1B6824
:10113000184600F0B1FB0690069B0493049B002B1D
:1011400005D0084A40F2763104982BF003FF0023C3
:10115000184609B05DF804FBD84A0020E04A002098
:10116000CC720500E8750500987A0500D87A05006C
:10117000E3720500F5720500F673050000B585B051
:101180000A4B1B6801930A4B029301AB19460948AD
:1011900024F058F80390039B002B01D0039B00E040
:1011A0000023184605B05DF804FB00BFD84A0020B4
:1011B000610C02008C4A002000B589B001900091BA
:1011C000FFF7DCFF0690069B0593059B002B05D0DF
:1011D000244A4FF4667105982BF0BCFE0023079358
:1011E00018E0079BDB00019A13441B68002B0ED00C
:1011F000079BDB00019A13441B681B4A12781046B8
:1012000098470690069B002B01D0069B26E0079B83
:1012100001330793079A009B9A42E2D302AB08225C
:101220000021184634F051FE104B029301238DF833
:101230000C3001238DF80D3002AB19460C482FF00D
:1012400037FB0690069B0493049B002B05D0054AB0
:1012500040F2B13104982BF07DFE0023184609B00E
:101260005DF804FBE8750500E04A002049FF010035
:10127000FC4A0020B0B5C6B002AF14F04BF9C7F875
:101280000801D7F80831002B0FD0B04830F04CF8E7
:101290000246D7F80831009340F2BE33AC49022031
:1012A00030F084F8D7F808314BE1AA4B1B6803F5FE
:1012B00095731622A849184634F0A6FB0346002B66
:1012C00040F01C816B461D462021A44814F032F8E2
:1012D000C7F80801D7F80831002B0FD09B4830F031
:1012E00023F80246D7F80831009340F2C3339849F7
:1012F000022030F05BF8D7F80831FDE01B2387F8B7
:10130000073197F807010346013BC7F80031C1B226
:101310004FF000024FF000034FF00004D40044EA05
:101320005174CB00C1B24FF000024FF000034FF0F8
:101330000004D40044EA5174CB0003460733DB08B1
:10134000DB00ADEB030D02AB0033C7F8FC30D7F880
:10135000FC3000221A70D7F8FC308149184634F06E
:10136000D4FBD7F8FC307F49184634F0CEFB00237D
:1013700087F80F311EE007F1F80300210A461A80B2
:101380000A469A7097F80F31774AD35C1A4607F1EC
:10139000F8037649184634F0A3FBD7F8FC3007F180
:1013A000F8021146184634F0B0FB97F80F310133BC
:1013B00087F80F3197F80F31032BDCD9D7F8FC30C1
:1013C00018462FF0B1FF03461A46694903202FF053
:1013D000C2FFD7F8FC3097F807211146184613F0E2
:1013E00001FFC7F80801D7F80831002B0FD0574884
:1013F0002FF09AFF0246D7F80831009340F2D73316
:10140000534902202FF0D2FFD7F8083174E016229A
:101410005849012013F042FFC7F80801D7F80831F6
:10142000002B0FD049482FF07FFF0246D7F8083134
:10143000009340F2DA33464902202FF0B7FFD7F885
:10144000083159E013F0BEFFC7F80801D7F808319A
:10145000002B0FD03D482FF067FF0246D7F8083128
:10146000009340F2DD333A4902202FF09FFFD7F876
:10147000083141E0F72387F8FB3007F1FB023B46D8
:101480001146184613F084FEC7F80801D7F8083152
:10149000002B0FD02D482FF047FF0246D7F8083118
:1014A000009340F2E1332A4902202FF07FFFD7F862
:1014B000083121E097F8FB203B4683F8F7203B46B4
:1014C00019462D4823F07EFFC7F80801D7F80831E8
:1014D000002B0FD01D482FF027FF0246D7F8083108
:1014E000009340F2E5331A4902202FF05FFFD7F84E
:1014F000083101E0AD4623E0AD4622E0154B1B6804
:1015000003F59572134B1B6893F821321946104668
:1015100013F0E6FDC7F80801D7F80831002B0FD00B
:101520000A482FF001FF0246D7F80831009340F235
:10153000EA33074902202FF039FFD7F8083100E0DD
:101540000023184607F58877BD46B0BDE87505004D
:10155000B4760500D84A0020F6730500487B0500E4
:10156000E44A0020687B0500F84A0020387705002F
:101570006C7B0500987B05008C4A002000B585B087
:101580000190019B1B686A4A1360019B5B68694A72
:101590001360019B9B68684A1360FFF72DF9039065
:1015A000039B002B06D0039A644901202FF0D3FE41
:1015B000039BB8E0624BD3F88830614A43F4700370
:1015C000C2F88830BFF34F8FBFF36F8F04215D489F
:1015D000FEF70AFD0390039B002B06D0039A5A499D
:1015E00001202FF0B8FE039B9DE05849584800F0B9
:1015F0000DFA0390039B002B06D0039A5549012056
:101600002FF0A9FE039B8EE0504B1B680C22A3F821
:101610001120FFF7B7FC0390039B002B06D0039A21
:101620004D4901202FF097FE039B7CE0FEF75EFD05
:101630000390039B002B06D0039A484901202FF00A
:101640008AFE039B6FE03B4B1A683B4B1B681946B5
:101650001046FFF7B1FD0390039B002B06D0039AC1
:101660003F4901202FF077FE039B5CE0FFF71EFA55
:101670000390039B002B06D0039A3A4901202FF0D8
:101680006AFE039B4FE0FEF71BFE0390039B002BBB
:1016900006D0039A344901202FF05DFE039B42E0FF
:1016A000032021F079FB0390039B002B06D0039AC3
:1016B0002E4901202FF04FFE039B34E02C4805F00B
:1016C000F7FE0390039B002B06D0039A29490120C3
:1016D0002FF041FE039B26E025482FF025FE034610
:1016E0001A46254913202FF036FEFFF7C3FD03905D
:1016F000039B002B06D0039A204901202FF02BFEDC
:10170000039B10E00A20FEF70FFCFFF769FA039035
:10171000039B002B06D0039A194901202FF01BFED2
:10172000039B00E00023184605B05DF804FB00BFF2
:10173000804A0020844A0020884A0020B07B0500AF
:1017400000ED00E0F84A0020EC7B0500D84A0020BC
:10175000CC720500307C05006C7C0500AC7C05007B
:10176000E87C0500347D0500707D0500AC7D05003A
:10177000E44A0020EC7D0500287E05003C7E050043
:10178000707E050000B589B00390039B1B78012B88
:101790001AD0052B42D0002B4CD1039B5B68002B49
:1017A00003D1344B01221A7059E0334901202FF044
:1017B000C1FD00230793079B002B50D12F4A5D21C9
:1017C00000202BF0C7FB4AE0039B5B68002B16D17F
:1017D000039B9B89B3F5005F43D1039B1B7C1A4697
:1017E000039B9B891946039BDB8900930B46244985
:1017F00003202FF0DBFD234B01221A7031E0224938
:1018000001202FF097FD00230693069B002B28D183
:101810001A4A6F2100202BF09DFB22E0039B5B689E
:10182000002B20D1194903202FF084FD184B0122F1
:101830001A7018E0039B1B781A46039B5B681549D6
:1018400003202FF09CFD039B5B680593059B002BF9
:101850000BD00A4A7B2105982BF07CFB05E000BFEA
:1018600004E000BF02E000BF00E000BF00BF09B01D
:101870005DF804FBAC4E0020A87E0500D87E050074
:10188000207F0500AD4E00206C7F05009C7F050089
:10189000AE4E0020D07F050000B58BB003901F49ED
:1018A00003202FF047FD039B002B01D10E2331E0D5
:1018B00040F2222203991A4834F0DEFA194B4222F0
:1018C0001A60184B04938A23ADF814304FF4005378
:1018D000ADF8183042F20103ADF81A3004AB0793AB
:1018E0000123ADF8203006AB19460F482EF0DFFC7F
:1018F0000990099B002B0CD00C482FF015FD0246D7
:10190000099B009398230A4902202FF04FFD099B61
:1019100000E0002318460BB05DF804FB00800500D2
:10192000884C0020844C0020784C0020D87E050094
:101930003480050000B58BB0039005AB0822002170
:10194000184634F0C2FA2B4903202FF0F3FC05AB04
:10195000294A42F201014FF400502EF017FD099080
:10196000099B002B0CD025482FF0DEFC0246099B7A
:101970000093A923224902202FF018FD099B34E08F
:1019800007AB19461C482EF007FC0990099B002B59
:101990000CD01A482FF0C8FC0246099B0093AC23D8
:1019A000174902202FF002FD099B1EE0089B4FF40F
:1019B0000A721946134834F05FFA0F482EF028FCDB
:1019C0000990099B002B0CD00C482FF0ADFC02466F
:1019D000099B0093B1230A4902202FF0E7FC099BE1
:1019E00003E0039B084A1A60002318460BB05DF819
:1019F00004FB00BF88800500784C0020D87E0500DD
:101A000034800500844C0020884C002000B58BB049
:101A1000039002915B4903202FF08CFC039B002B69
:101A200001D10E23A9E058482EF020FB0990099B14
:101A3000002B0CD055482FF077FC0246099B0093F1
:101A4000C223534902202FF0B1FC099B95E02EF0F0
:101A50002DFB0990099B002B0ED04C482FF064FC05
:101A60000246099B0093C523494902202FF09EFCA2
:101A7000099B82E02BF0F0FB464B1B7883F00103BF
:101A8000DBB2002BF6D12EF055FC0990099B002B00
:101A90000ED03E482FF048FC0246099B0093CD2310
:101AA0003B4902202FF082FC099B66E02BF0D4FB1F
:101AB000394B1B7883F00103DBB2002BF6D102987F
:101AC000FFF738FF0990099B0A2B45D133490320C2
:101AD0002FF030FC40F222220399314834F0CCF947
:101AE000304B42221A602F4B04938A23ADF81430F6
:101AF0004FF40053ADF8183042F20103ADF81A303C
:101B000004AB07930123ADF82030274B00221A7055
:101B100006AB194625482EF0BBFB0990099B002B0C
:101B20000CD01A482FF000FC0246099B0093EB23CF
:101B3000174902202FF03AFC099B1EE0029B184A2D
:101B40001A6001E02BF088FB174B1B7883F0010330
:101B5000DBB2002BF6D10FE0099B002B0CD00B4819
:101B60002FF0E2FB0246099B0093F623084902206E
:101B70002FF01CFC099B00E0002318460BB05DF819
:101B800004FB00BFB880050085170200D87E050061
:101B900034800500AC4E0020AE4E0020E4800500ED
:101BA000884C0020844C0020AD4E0020784C002052
:101BB00000B587B08DED030A0290DDED037AFDEEEE
:101BC000E77ACDED017A9DF804305AB2029B1A7083
:101BD000029B93F9003007EE903AF8EEE77A9DED1C
:101BE000037A77EE677ACDED057ADDED057A9FED24
:101BF0000D7A67EE877AFCEEE77ACDED017A9DF8F3
:101C00000430DAB2029B5A70029B93F900301A46F4
:101C1000029B5B78044904202FF0B1FB00BF07B0A2
:101C20005DF804FB0000C8424081050000B583B0A8
:101C3000034600918DF80730009B9DF807201A702D
:101C40009DF807301A46044904202FF084FB00BF9A
:101C500003B05DF804FB00BF8881050000B587B0C4
:101C60008DED030A0290DDED037AFDEEE77A17EEC3
:101C7000902A029B1A60029B1B6807EE903AF8EECE
:101C8000E77A9DED037A77EE677ACDED057ADDEDA3
:101C9000057A9FED0D7A67EE877AFCEEE77ACDED57
:101CA000017A9DF80430DAB2029B1A71029B1B681C
:101CB0001A46029B1B79054904202FF060FB00BFE8
:101CC00007B05DF804FB00BF0000C842D0810500EA
:101CD00000B587B00190019B1B78002B02D0012B2F
:101CE00014D021E0019B5B78012B1AD110F046FA49
:101CF000F0EE407A03AB1846B0EE670AFFF7AEFF8E
:101D000003AB19460A4822F08DFB0AE00023059335
:101D1000059B002B07D1074A942100202BF01AF9CC
:101D200001E000BF00E000BF00BF07B05DF804FBAA
:101D3000B04E00202082050000B58DB003468DF81E
:101D400007309DF80730002B60D112F0C1FA8DEDFD
:101D50000B0A12F00BFA0346ADF82A3004AB184612
:101D60009DED0B0AFFF724FFBDF82A30DBB20DF121
:101D70000F0211461846FFF759FF2B4B1B78002B1B
:101D800014D0BDF82A309DED0B0A184600F05CFA1D
:101D90000990099B0893089B002B04D0234AB1218A
:101DA00008982BF0D7F8204B00221A70204B1B7894
:101DB000002B12D004AB19461E4822F0F3FA09900A
:101DC000099B0793079B002B04D0184AB82107985A
:101DD0002BF0C0F8164B00221A70174B1B78002B03
:101DE0001ED00DF10F031946124822F05BFB09903B
:101DF000099B0693069B002B04D00C4ABF21069832
:101E00002BF0A8F80C4B00221A7009E00023059370
:101E1000059B002B04D1054AC52100202BF09AF820
:101E200000BF0DB05DF804FBFA4E002020820500D3
:101E3000F94E0020B04E0020F84E002000B585B0CD
:101E40000190019B002B15D0019B1B88ADF80C3035
:101E5000019B5B88ADF80E30019B1B881A46019BE5
:101E60005B88064904202FF08AFA03AB1946044820
:101E700022F058FB00BF05B05DF804FB6C82050042
:101E8000B04E002000B587B0039000200AF0F6FBAA
:101E9000039B002B27D0039B1B881946039B5B8861
:101EA0001846039B9B881A46039BDB88019300928C
:101EB00003460A460E4904202FF091FA039B1B8823
:101EC000ADF81030039B5B88ADF81230039B9B8804
:101ED000ADF81430039BDB88ADF8163004AB19461F
:101EE000044822F05FFB00BF07B05DF804FB00BFB1
:101EF000B0820500B04E002000B585B001900A4BBD
:101F000001221A7012F082FA0390039B0293029B43
:101F1000002B05D0054A4FF4847102982BF01AF873
:101F200000BF05B05DF804FBF94E002020820500DB
:101F3000F0B585B0334B01221A70334B01221A7071
:101F400012F04EF80390039B002B0DD02F482FF07A
:101F5000EBF90246039B00934FF48B732C4902204C
:101F60002FF024FA039B49E012F050FA0390039BF0
:101F7000002B0DD025482FF0D7F90246039B009384
:101F800040F21913224902202FF010FA039B35E08A
:101F9000204F214B1B681B889BB299B24FF0000267
:101FA0004FF000034FF00004D40344EA5144CB0344
:101FB00013F5FA7544F100064FF47A724FF00003FE
:101FC0002846314633F01CFB03460C4600221946D6
:101FD00038462BF08BFF0390039B002B0DD00B4852
:101FE0002FF0A2F90246039B00934FF48F73084928
:101FF00002202FF0DBF9039B00E00023184605B018
:10200000F0BD00BFF94E0020FD4E002020820500EB
:10201000FC820500004F0020F04E002000B587B084
:1020200003468DF80F30194B00221A70184B1846D2
:102030002BF08EFF0590059B002B0DD015482FF03F
:1020400073F90246059B00934FF4967312490220E0
:102050002FF0ACF9059B14E09DF80F30002B0FD04A
:102060000E4B00221A700E4B1B7883F00103DBB27B
:10207000002B03D012F01EF8034602E0002300E01C
:102080000023184607B05DF804FB00BFF94E00209E
:10209000004F002020820500FC820500FD4E00203C
:1020A000FC4E002000B585B0019010F0B7F8039009
:1020B000039B0293029B002B05D0054A40F24B1173
:1020C00002982AF047FF00BF05B05DF804FB00BF8F
:1020D00020820500F0B585B00FF040FF0390039B10
:1020E0000293029B002B05D01D4A4FF4AB7102985E
:1020F0002AF030FF10F092F80390039B0193019BAC
:10210000002B05D0164A40F2591101982AF022FFFF
:10211000144F154B1B685B889BB299B24FF00002BD
:102120004FF000034FF00004D40344EA5144CB03C2
:1021300013F5FA7544F100064FF47A724FF000037C
:102140002846314633F05CFA03460C460022194615
:1021500038462BF0CBFE0346184605B0F0BD00BF55
:1021600020820500204F0020F04E002000B585B0F1
:102170000E4B18462BF0ECFE0390039B002B0DD06A
:102180000B482FF0D1F80246039B009340F26913ED
:10219000084902202FF00AF9039B02E00FF094FF98
:1021A0000346184605B05DF804FB00BF204F002031
:1021B00020820500FC82050000B587B00190002355
:1021C000ADF80A301C4B1B78012B31D10DF10A03FD
:1021D000184600F07BF90590059B0493049B002BA7
:1021E00005D0164A4FF4BD7104982AF0B3FEBDF82D
:1021F0000A30002B04D1124902202FF09BF810E086
:10220000BDF80A3018460BF075FE0590059B039348
:10221000039B002B05D0094A40F2831103982AF052
:1022200099FE054B02221A70064B18462BF090FEC1
:1022300000BF07B05DF804FBFB4E002020820500C4
:1022400050830500804F002000B589B003468DED16
:10225000020AADF80E301E4B1B78002B33D0BDF8B0
:102260000E301A46920013445B00ADF81E30DDEDCF
:10227000027A9FED187A67EE877AFDEEE77A17EE1D
:10228000903A0693BDF81E20069B134904202FF0B8
:1022900076F8BDF81E30069918460BF04BFD0590F8
:1022A000059B002B0DD00D482FF03EF80246059BF4
:1022B00000934FF4D3730A4902202FF077F8059B5F
:1022C00002E0002300E00023184609B05DF804FB9B
:1022D000FC4E002000007A44B883050020820500EF
:1022E000FC82050000B585B0114B00221A70114B1D
:1022F0001B78002B13D111F0DDFE0390039B002B04
:102300000DD00D482FF010F80246039B00934FF4B8
:10231000E1730A4902202FF049F8039B04E0084BBF
:1023200018462BF015FE0346184605B05DF804FB71
:10233000FC4E0020FD4E002020820500FC8205009E
:10234000804F002000B585B001900A4B01221A7021
:1023500012F05CF80390039B0293029B002B05D0C4
:10236000054A4FF4EA7102982AF0F4FD00BF05B067
:102370005DF804FBF84E002020820500F0B585B022
:102380002A4B01221A702A4B01221A7011F028FEE2
:102390000390039B002B0DD026482EF0C5FF02466C
:1023A000039B009340F2E113234902202EF0FEFF2D
:1023B000039B37E012F02AF80390039B002B0DD00B
:1023C0001C482EF0B1FF0246039B00934FF4F273BA
:1023D000194902202EF0EAFF039B23E0174F184B08
:1023E0001B689B889BB299B24FF000024FF000032C
:1023F0004FF00004D40344EA5144CB0313F5FA75BB
:1024000044F100064FF47A724FF00003284631463B
:1024100033F0F6F803460C460022194638462BF0F6
:1024200065FD0346184605B0F0BD00BFF84E00201C
:10243000FD4E002020820500FC820500404F002058
:10244000F04E002000B587B003468DF80F30194BD1
:1024500000221A70184B18462BF07AFD0590059B48
:10246000002B0DD015482EF05FFF0246059B009310
:1024700040F2F513124902202EF098FF059B14E05C
:102480009DF80F30002B0FD00E4B00221A700E4B10
:102490001B7883F00103DBB2002B03D011F00AFE9E
:1024A000034602E0002300E00023184607B05DF871
:1024B00004FB00BFF84E0020404F002020820500A2
:1024C000FC820500FD4E0020FC4E002000B583B0CC
:1024D0000190284B1B681B7A032B43D801A252F8AA
:1024E00023F000BFF5240200112502002D25020073
:1024F00049250200204B1B681B889AB2019B1A8059
:10250000019B1B881A461D4904202EF024FF2BE056
:10251000194B1B685B889AB2019B1A80019B1B8830
:102520001A46174904202EF016FF1DE0124B1B68B7
:102530009B889AB2019B1A80019B1B881A461149FD
:1025400004202EF008FF0FE00B4B1B68DB889AB2CB
:10255000019B1A80019B1B881A460B4904202EF010
:10256000FAFE01E0082300E00023184603B05DF8FE
:1025700004FB00BFF04E0020F44E0020188405003C
:1025800080840500E48405004885050000B587B017
:102590000346ADF80E30314B1B681B7A032B3FD836
:1025A00001A252F823F000BFB9250200D325020092
:1025B000ED25020007260200294B1B68BDF80E20FE
:1025C0001A80BDF80E301A46264904202EF0C3FEAC
:1025D00028E0234B1B68BDF80E205A80BDF80E3052
:1025E0001A46214904202EF0B6FE1BE01C4B1B6846
:1025F000BDF80E209A80BDF80E301A461B49042003
:102600002EF0A9FE0EE0164B1B68BDF80E20DA80F6
:10261000BDF80E301A46164904202EF09CFE01E04B
:10262000082317E00E4B1B68184600F0DDFF0590ED
:10263000059B002B0DD00F482EF076FE0246059B21
:10264000009340F24E230C4902202EF0AFFE059B72
:1026500000E00023184607B05DF804FBF04E0020B0
:10266000F44E0020AC85050010860500708605003C
:10267000D486050020820500FC82050000B585B0E7
:10268000284B1B681B7A1A46274904202EF063FE4C
:10269000244B1B681B7A032B1AD801A252F823F093
:1026A000B1260200B9260200C1260200C926020096
:1026B00000238DF80F300FE001238DF80F300BE071
:1026C00002238DF80F3007E003238DF80F3003E06D
:1026D00002238DF80F3000BF9DF80F3018460BF025
:1026E0007FFC0290029B002B0DD010482EF01CFEA8
:1026F0000246029B009340F26F230D4902202EF008
:1027000055FE029B0AE00B4B01221A700A4B002275
:102710004FF0617118462BF0E9FB0346184605B0EF
:102720005DF804FBF04E002038870500208205008C
:10273000FC820500FB4E0020804F002000B585B0D4
:10274000274B1B78022B41D1FFF7CCFD0390039B55
:10275000002B0DD023482EF0E7FD0246039B00938B
:1027600040F28123204902202EF020FE039B33E01B
:102770000DF10A0318460BF04BFB0390039B002B53
:102780000DD018482EF0D0FD0246039B00934FF465
:102790002173154902202EF009FE039B1CE0BDF8B1
:1027A0000A301846FFF7F2FE0390039B002B0DD072
:1027B0000C482EF0B9FD0246039B009340F287239C
:1027C000094902202EF0F2FD039B05E0044B002294
:1027D0001A700BF0ADFD0346184605B05DF804FB1A
:1027E000FB4E002020820500FC82050000B587B06A
:1027F0000190134B1B685B7A8DF80C30104B1B68F3
:102800009B7A8DF80D300E4B1B68DB7A8DF80E30FD
:1028100003AB1946002009F083FF0CF0A5FC0590DE
:10282000059B0493049B002B05D0064A40F29F2190
:1028300004982AF08FFB00BF07B05DF804FB00BFCF
:10284000F04E002020820500F0B585B02B4B1B68B0
:102850005B7A8DF80030294B1B689B7A8DF801302C
:10286000264B1B68DB7A8DF802306B461946002038
:1028700009F056FF0CF0DAFC0390039B0293029BD5
:10288000002B05D01E4A40F2AF2102982AF062FBCD
:102890000CF06AFC0390039B0193019B002B05D075
:1028A000174A40F2B22101982AF054FB154F134BFE
:1028B0001B68DB889BB299B24FF000024FF0000317
:1028C0004FF00004D40344EA5144CB0313F5FA75E6
:1028D00044F100064FF47A724FF000032846314667
:1028E00032F08EFE03460C460022194638462BF085
:1028F000FDFA0346184605B0F0BD00BFF04E0020BB
:1029000020820500604F002000B585B0124B1846AC
:102910002BF01EFB0390039B0293029B002B05D020
:102920000E4A40F2BF2102982AF014FB002009F061
:10293000A5FE0CF051FD0390039B0193019B002B1E
:1029400005D0064A4FF4317101982AF003FB0023A9
:10295000184605B05DF804FB604F0020208205009A
:1029600000B585B00190019B1B889BB2632B32D9C7
:10297000019B1B889BB24EF6602293422BD8019B91
:102980005B889BB2312B26D9019B5B889BB24EF6AC
:10299000602293421FD8019B9B889BB2632B1AD95C
:1029A000019B9B889BB24EF66022934213D8019BF9
:1029B000DB889BB2C72B0ED9019BDB889BB24EF6FE
:1029C0006022934207D8019B1B7A002B03D0019B06
:1029D0001B7A032B0ED90A4800F04EFD0390039B8F
:1029E0000293029B002B05D0064A40F2DA2102989E
:1029F0002AF0B0FA0023184605B05DF804FB00BFCA
:102A0000188105002082050000B589B00190019B66
:102A1000002B01D10E236AE00020FFF7FFFAFFF739
:102A2000A5FB0120FFF70EFDFFF76EFF019B1B8842
:102A30009BB2002B12D0304B93F83630002B0DD0C8
:102A4000FFF776FA0790079B0693069B002B05D0AD
:102A50002A4A40F2F32106982AF07CFA019B5B880F
:102A60009BB2002B12D0244B93F83730002B0DD0A3
:102A7000FFF730FB0790079B0593059B002B05D0C4
:102A80001E4A40F2FA2105982AF064FA019B9B88BD
:102A90009BB2002B12D0184B93F83830002B0DD07E
:102AA000FFF76CFC0790079B0493049B002B05D059
:102AB000124A40F2013104982AF04CFA019BDB885B
:102AC0009BB2002B12D00C4B93F83A30002B0DD058
:102AD000FFF7BAFE0790079B0393039B002B05D0DB
:102AE000064A4FF4427103982AF034FA002318463C
:102AF00009B05DF804FB00BFB04E00202082050045
:102B000000B593B0039001921A460B468DF80B3036
:102B10001346ADF808309DF80B30052B00F24281CA
:102B200001A252F823F000BF412B0200B92B020092
:102B3000132C02008B2C0200E12C0200372D020026
:102B4000039B93F836301A469F4904202EF003FC6D
:102B5000039B93F83630002B0FD0FFF7E9F9119063
:102B6000119B1093109B002B00F01E81974A40F29E
:102B7000273110982AF0EEF916E1039B93F83830CC
:102B8000002B14BF01230023DBB283F00103DBB26F
:102B900003F00103DBB21846FFF740FA1190119BD6
:102BA0000F930F9B002B00F0FF80884A4FF44B716E
:102BB0000F982AF0CFF9F7E0039B93F837301A46C5
:102BC000834904202EF0C7FB039B93F83730002B7A
:102BD0000FD0FFF77FFA1190119B0E930E9B002BE5
:102BE00000F0E480794A40F235310E982AF0B2F9CB
:102BF000DCE0FFF7BBFA1190119B0D930D9B002BAE
:102C000000F0D480714A40F23A310D982AF0A2F9CE
:102C1000CCE0039B93F838301A466E4904202EF01E
:102C20009AFB039B93F83830002B0FD0FFF7A6FBDD
:102C30001190119B0C930C9B002B00F0B980634A00
:102C400040F243310C982AF085F9B1E0039B93F8E8
:102C50003630002B14BF01230023DBB283F00103C5
:102C6000DBB203F00103DBB21846FFF7EBFB119078
:102C7000119B0B930B9B002B00F09A80534A4FF44F
:102C800052710B982AF066F992E0039B93F8393061
:102C90001A46514904202EF05EFB039B93F839300D
:102CA000002B0ED0FFF7EAFC1190119B0A930A9BB0
:102CB000002B7FD0454A40F251310A982AF04AF958
:102CC00078E0FFF73BFD1190119B0993099B002BC6
:102CD00070D03E4A40F2563109982AF03BF969E03B
:102CE000039B93F83A301A463C4904202EF033FBFC
:102CF000039B93F83A30002B0ED0FFF7A5FD1190FF
:102D0000119B0893089B002B56D0304A40F25F314C
:102D100008982AF01FF94FE0FFF7F6FD1190119B7C
:102D20000793079B002B47D0284A4FF45971079807
:102D30002AF010F940E0BDF808301A46284904206E
:102D40002EF009FBBDF808300C2B0CBF012300232B
:102D5000DBB20693069B002B05D11C4A40F26B3177
:102D600000202AF0F7F8019800F086FB1190119BE3
:102D70000593059B002B05D0144A40F26E3105984F
:102D80002AF0E8F80198FFF73FFE1190119B049399
:102D9000049B002B12D00D4A40F2713104982AF0A6
:102DA000D9F80BE000BF0AE000BF08E000BF06E072
:102DB00000BF04E000BF02E000BF00E000BF00BFB2
:102DC00013B05DF804FB00BF6C870500208205008E
:102DD000BC87050008880500548805009C8805000C
:102DE000E488050000B597B003468DF80F30002346
:102DF0008DF8483000238DF84930002310930023CC
:102E00008DF8443000238DF83F300DAB00221A605E
:102E10005A600023ADF830300023ADF83230464B15
:102E2000464A4749474800F097FC1590159B002BF0
:102E30000DD045482EF078FA0246159B009340F2DB
:102E40008E33424902202EF0B1FA159B6FE09DF8B7
:102E50000F30002B1DD03B4800F00EFB1590159B4A
:102E60001493149B002B05D0374A40F293311498E9
:102E70002AF070F8314800F0B7FB1590159B1393BA
:102E8000139B002B05D0304A40F2963113982AF05C
:102E900061F82B4B1B681846FFF762FD1590159BD8
:102EA000002B0DD028482EF03FFA0246159B0093C8
:102EB00040F29A33254902202EF078FA159B36E02D
:102EC00005AB1C220021184632F0FFFF12AB059320
:102ED00010AB06930DF13F0307930DAB09930CABB9
:102EE0000893174B1B680A93194B0B93194903203E
:102EF0002EF020FA05AB1946174821F0C9F91590B4
:102F0000159B002B0DD010482EF00EFA0246159B93
:102F100000934FF46A730D4902202EF047FA159B77
:102F200005E0074B1B681846FFF76EFD00231846A7
:102F300017B05DF804FB00BFF44E002024810500AB
:102F4000F04E00201881050020820500FC8205005B
:102F5000012B020030890500B04E002000B585B07D
:102F6000019001990C4821F062F9019B1B88112BFB
:102F70000DD100F0B1F80390039B0293029B002B4C
:102F800005D0064A40F2BE31029829F0E3FF00BFA7
:102F900005B05DF804FB00BFB04E002020820500A4
:102FA00000B589B00190002307935F238DF80830A6
:102FB00018230393019B0493064B0593064B06933A
:102FC00002AB184610F01CFF0790079B184609B08B
:102FD0005DF804FB84890500391D020000B589B045
:102FE00001905C238DF8083017230393019B049311
:102FF000074B0593074B069301238DF81C3002AB5A
:1030000018460EF013FF0346184609B05DF804FB9E
:1030100094890500D11C020000B58BB00390039B7E
:103020000593114B06935A238DF81C300F4B0893D0
:1030300005AB18460BF080FA0990099B002B0DD0C8
:103040000B482EF071F90246099B009340F20A43A7
:10305000084902202EF0AAF9099B00E00023184637
:103060000BB05DF804FB00BFA48905003D1E020003
:1030700020820500FC82050000B58BB00390039B05
:103080000593114B069338238DF81C300F4B089392
:1030900005AB18460BF0CEFF0990099B002B0DD015
:1030A0000B482EF041F90246099B009340F223435E
:1030B000084902202EF07AF9099B00E00023184607
:1030C0000BB05DF804FB00BFB4890500851E02004B
:1030D00020820500FC82050000B587B00020FEF7C5
:1030E0009DFF0590059B0493049B002B05D0224A6D
:1030F00040F23441049829F02DFFFFF737F805908E
:10310000059B0393039B002B05D01B4A40F23741DC
:10311000039829F01FFF0120FFF794F90590059B04
:103120000293029B002B05D0134A40F23A410298C9
:1031300029F010FFFFF7E8FB0590059B0193019B29
:10314000002B05D00C4A40F23D41019829F002FFC6
:10315000FFF7F4FA0590059B0093009B002B05D028
:10316000054A4FF48861009829F0F4FE00231846C0
:1031700007B05DF804FB00BF2082050000B58DB0EC
:1031800003900291039B002B01D10E23BAE0029B16
:10319000002B01D10E23B5E05C4903202EF0CAF8C4
:1031A000039B5B4A5A60039B5A4A1A60029B1B6846
:1031B0001846FFF713FF0B900B9B0A930A9B002BFB
:1031C00005D0554A40F254410A9829F0C3FE029BAB
:1031D0001B681846FFF7E4FE0B900B9B0993099BB5
:1031E000002B05D04C4A40F25741099829F0B2FE15
:1031F000029B1B681846FFF70FFF0B900B9B089371
:10320000089B002B05D0444A40F25A41089829F007
:10321000A1FE029B1B681846FFF72EFF0B900B9B2D
:103220000793079B002B05D03B4A40F25D4107986E
:1032300029F090FE394A012139482AF027FE0B90E7
:103240000B9B0693069B002B05D0334A40F261414D
:10325000069829F07FFE334A012133482AF016FEF2
:103260000B900B9B0593059B002B05D02A4A40F23F
:103270006441059829F06EFE2C4A01212C482AF061
:1032800005FE0B900B9B002B0DD023482EF04CF825
:1032900002460B9B009340F26743264902202EF022
:1032A00085F80B9B2EE0244A012124482AF0EEFDEC
:1032B0000B900B9B002B0DD017482EF035F80246D3
:1032C0000B9B009340F26A431A4902202EF06EF8DD
:1032D0000B9B17E01A4A01211A482AF0D7FD0B90E0
:1032E0000B9B002B0DD00C482EF01EF802460B9BBA
:1032F000009340F26D430F4902202EF057F80B9BCC
:1033000000E0002318460DB05DF804FB608905005D
:103310005D2F0200E52D020020820500F91E02004B
:103320002C810500A5200200308105004523020004
:1033300034810500FC820500ED270200388105007C
:10334000B92102003C81050000B589B00390039BC0
:103350001B78002B02D0012B1AD05BE0039B5B682B
:10336000002B06D13A4B01221A703A4B01221A70F7
:1033700065E0394901202DF0DDFF00230793079B0D
:10338000002B5CD1354A7221002029F0E3FD56E084
:10339000039B5B68002B2ED1039B9B8941F20102AA
:1033A000934210D1039B1B7C1A46039B9B891946B1
:1033B000039BDB8900930B46294903202DF0F6FF80
:1033C000284B01221A70039B9B8941F2030293420E
:1033D00037D1039B1B7C1A46039B9B891946039B91
:1033E000DB8900930B46204903202DF0DFFF1F4BA4
:1033F00001221A7025E01E4901202DF09BFF0023B9
:103400000693069B002B1CD1144A8C21002029F026
:10341000A1FD16E0039B1B781A46039B5B681549C8
:1034200003202DF0ACFF039B5B680593059B002BED
:1034300009D00A4A9121059829F08CFD03E000BFCC
:1034400002E000BF00E000BF00BF09B05DF804FB70
:10345000D54F0020D74F0020C4890500F48905000E
:10346000448A0500D44F0020948A0500D64F0020DE
:10347000E88A0500188B050000B58BB003901F4942
:1034800003202DF057FF039B002B01D10E2330E0CA
:103490000C2203991A4832F0EFFC1A4B42221A60B0
:1034A000184B04930423ADF8143041F20103ADF836
:1034B000183041F20203ADF81A3004AB0793012330
:1034C000ADF8203006AB19460F482CF0F0FE0990FD
:1034D000099B002B0CD00D482DF026FF0246099BBE
:1034E0000093AE230A4902202DF060FF099B00E003
:1034F000002318460BB05DF804FB00BF488B0500A5
:10350000BC4F0020B84F0020A04F0020F4890500D8
:10351000788B050000B58BB0039005AB0822002125
:10352000184632F0D2FC2A4903202DF003FF05ABE8
:10353000284A41F2020141F201002CF027FF0990D4
:10354000099B002B0CD024482DF0EEFE0246099B6F
:103550000093BF23214902202DF028FF099B33E06F
:1035600007AB19461B482CF017FE0990099B002B4E
:103570000CD019482DF0D8FE0246099B0093C223B7
:10358000164902202DF012FF099B1DE0089B102216
:103590001946134832F070FC0E482CF039FE0990A1
:1035A000099B002B0CD00C482DF0BEFE0246099B57
:1035B0000093C723094902202DF0F8FE099B03E080
:1035C000039B084A1A60002318460BB05DF804FB01
:1035D000CC8B0500A04F0020F4890500788B0500F6
:1035E000B84F0020BC4F002000B58BB003901F499E
:1035F00004202DF09FFE039B002B01D10E2330E011
:10360000082203991A4832F037FC1A4B42221A60FA
:10361000184B04930323ADF8143041F20303ADF8C3
:10362000183041F20403ADF81A3004AB07930123BC
:10363000ADF8203006AB19460F482CF038FE099043
:10364000099B002B0CD00D482DF06EFE0246099B05
:103650000093E6230A4902202DF0A8FE099B00E012
:10366000002318460BB05DF804FB00BFFC8B05007F
:10367000CC4F0020C84F0020AC4F0020F48905003B
:10368000788B050000B58BB0039005AB08220021B4
:10369000184632F01AFC2A4904202DF04BFE05ABE7
:1036A000284A41F2040141F203002CF06FFE099018
:1036B000099B002B0CD024482DF036FE0246099BB6
:1036C0000093F723214902202DF070FE099B33E07F
:1036D00007AB19461B482CF05FFD0990099B002B96
:1036E0000CD019482DF020FE0246099B0093FA23C6
:1036F000164902202DF05AFE099B1DE0089B0C2262
:103700001946134832F0B8FB0E482CF081FD0990A1
:10371000099B002B0CD00C482DF006FE0246099B9D
:103720000093FF23094902202DF040FE099B03E08E
:10373000039B084A1A60002318460BB05DF804FB8F
:103740002C8C0500AC4F0020F4890500788B050017
:10375000C84F0020CC4F002000B593B005900491D5
:10376000039202938D4903202DF0E4FD059B002B6D
:1037700001D10E230DE1039B002B01D10E2308E1A3
:1037800087482CF073FC1190119B002B0DD08548BD
:103790002DF0CAFD0246119B00934FF48A738249B3
:1037A00002202DF003FE119BF3E02CF07FFC119022
:1037B000119B002B0FD07B482DF0B6FD0246119BCC
:1037C000009340F21713784902202DF0EFFD119B72
:1037D000DFE029F041FD754B1B7883F00103DBB27C
:1037E000002BF6D1724B1B7883F00103DBB2002B68
:1037F000EFD10498FFF78EFE1190119B0A2B45D153
:103800006C4903202DF096FD0C2205996A4832F090
:1038100033FB6A4B42221A60684B0C930423ADF8C9
:10382000343041F20103ADF8383041F20203ADF813
:103830003A300CAB0F930123ADF84030604B0022BF
:103840001A700EAB19465F482CF022FD1190119BA7
:10385000002B0DD053482DF067FD0246119B0093BD
:1038600040F23513504902202DF0A0FD119B90E04D
:10387000049B514A1A6001E029F0EEFC504B1B7882
:1038800083F00103DBB2002BF6D110E0119B002B7B
:103890000DD044482DF048FD0246119B00934FF493
:1038A000A073414902202DF081FD119B71E0029827
:1038B000FFF7E8FE1190119B0A2B58D1039B1B8840
:1038C0009BB21946039B5B889BB21846039B9B885F
:1038D0009BB21A46039BDB889BB20193009203467E
:1038E0000A46394903202DF07AFD0822039937480A
:1038F00032F0C2FA364B42221A60354B079303234B
:10390000ADF8203041F20303ADF8243041F2040356
:10391000ADF8263007AB0A930123ADF82C302D4BC0
:1039200000221A7009AB19462B482CF0B1FC1190FB
:10393000119B002B0DD01B482DF0F6FC0246119B6D
:1039400000934FF4AD73184902202DF02FFD119B09
:103950001FE0029B1D4A1A6001E029F07DFC1D4B0F
:103960001B7883F00103DBB2002BF6D110E0119B32
:10397000002B0DD00B482DF0D7FC0246119B009375
:1039800040F26513084902202DF010FD119B00E064
:103990000023184613B05DF804FB00BF588C0500E7
:1039A00049330200F4890500788B0500D54F0020CB
:1039B000D74F0020848C0500BC4F0020B84F00205A
:1039C000D44F0020A04F0020B88C0500CC4F002021
:1039D000C84F0020D64F0020AC4F002000B589B062
:1039E0000190019B002B01D10E2327E0019B1B8836
:1039F0009BB2ADF80C30019B5B889BB2ADF80E30EA
:103A0000019B9B889BB2ADF81030019BDB889BB279
:103A1000ADF81230019B1B7A8DF8143003AB1846B9
:103A20000DF054FD0790079B0693069B002B04D0D6
:103A3000044A4C21069829F08DFA0023184609B053
:103A40005DF804FB208D050000B59BB0039001924A
:103A50001A460B468DF80B301346ADF808309DF82A
:103A60000B300B2B00F2138201A252F823F000BF9F
:103A7000273E0200A13A0200FF3A02005D3B02002D
:103A8000B73B0200153C02006F3C0200C93C02003B
:103A9000233D0200A13D0200F73D0200093E020065
:103AA000039B93F866301A46B44903202DF053FC6B
:103AB000039B93F86630002B10D04FF480700DF00C
:103AC00055FB1990199B1893189B002B00F0E1816E
:103AD000AB4A6021189829F03DFADAE14FF4807082
:103AE0000DF06CFC1990199B1793179B002B00F09D
:103AF000D081A34A6521179829F02CFAC9E1039BCC
:103B000093F867301A469F4903202DF024FC039B4D
:103B100093F86730002B10D04FF400700DF026FBA7
:103B20001990199B1693169B002B00F0B481944AB0
:103B30006E21169829F00EFAADE14FF400700DF0E9
:103B40003DFC1990199B1593159B002B00F0A38148
:103B50008B4A7321159829F0FDF99CE1039B93F89A
:103B600068301A46884903202DF0F5FB039B93F833
:103B70006830002B0FD008200DF0F8FA1990199B2F
:103B80001493149B002B00F088817D4A7C211498AB
:103B900029F0E0F981E108200DF010FC1990199B43
:103BA0001393139B002B00F07881754A81211398A1
:103BB00029F0D0F971E1039B93F869301A467349F3
:103BC00003202DF0C8FB039B93F86930002B10D025
:103BD0004FF480600DF0CAFA1990199B1293129B52
:103BE000002B00F05C81664A8A21129829F0B2F914
:103BF00055E14FF480600DF0E1FB1990199B119392
:103C0000119B002B00F04B815D4A8F21119829F008
:103C1000A1F944E1039B93F86A301A465C490320FA
:103C20002DF099FB039B93F86A30002B0FD00720EF
:103C30000DF09CFA1990199B1093109B002B00F02B
:103C400030814F4A9821109829F084F929E1072002
:103C50000DF0B4FB1990199B0F930F9B002B00F0F4
:103C60002081474A9D210F9829F074F919E1039B9F
:103C700093F86B301A46474903202DF06CFB039BE9
:103C800093F86B30002B0FD010200DF06FFA1990C5
:103C9000199B0E930E9B002B00F00581384AA6213C
:103CA0000E9829F057F9FEE010200DF087FB1990CF
:103CB000199B0D930D9B002B00F0F580304AAB2132
:103CC0000D9829F047F9EEE0039B93F86C301A4603
:103CD000314903202DF03FFB039B93F86C30002B00
:103CE0000FD020200DF042FA1990199B0C930C9BD9
:103CF000002B00F0DA80224AB4210C9829F02AF92E
:103D0000D3E020200DF05AFB1990199B0B930B9BCD
:103D1000002B00F0CA801A4AB9210B9829F01AF931
:103D2000C3E0039B93F86D301A461C4903202DF025
:103D300012FB039B93F86D30002B0FD040200DF049
:103D400015FA1990199B0A930A9B002B00F0AF807B
:103D50000B4AC2210A9829F0FDF8A8E040200DF096
:103D60002DFB1990199B0993099B002B00F09F8054
:103D7000034AC721099829F0EDF898E0688D0500FD
:103D8000208D0500B48D0500088E0500548E0500B9
:103D9000A48E0500F08E05003C8F05008C8F050079
:103DA000039B93F86E301A46454903202DF0D3FA51
:103DB000039B93F86E30002B0ED080200DF0D6F9C7
:103DC0001990199B0893089B002B72D03D4AD02173
:103DD000089829F0BFF86CE080200DF0EFFA1990F8
:103DE000199B0793079B002B63D0364AD521079870
:103DF00029F0B0F85DE0039B93F86F301A46324922
:103E000003202DF0A8FA57E0BDF80830039A019975
:103E1000184603F0A3FEBDF808301A4600210198A9
:103E200032F053F848E0BDF808301A46274903201D
:103E30002DF091FABDF80830092B0CBF01230023A7
:103E4000DBB20693069B002B04D11E4AF021002012
:103E500029F080F8019800F031FF1990199B059323
:103E6000059B002B04D0174AF321059829F072F81E
:103E70000198FFF7B3FD1990199B0493049B002B45
:103E800019D0104AF621049829F064F813E000BF15
:103E900012E000BF10E000BF0EE000BF0CE000BF6A
:103EA0000AE000BF08E000BF06E000BF04E000BF7A
:103EB00002E000BF00E000BF00BF1BB05DF804FBE4
:103EC000DC8F0500208D05002C9005007C900500FE
:103ED00000B589B003468DF80F303249324800F002
:103EE000A5FF0790079B002B0DD030482DF01CFA42
:103EF0000246079B009340F20D132D4902202DF03E
:103F000055FA079B49E09DF80F30002B0ED026484C
:103F100000F0D4FE0790079B0693069B002B05D06C
:103F2000224A4FF48971069829F014F81D4B1B683A
:103F30001846FFF753FD0790079B002B0DD01B4839
:103F40002DF0F2F90246079B00934FF48B7318494A
:103F500002202DF02BFA079B1FE004AB0822002162
:103F6000184631F0B2FF0F4B1B680493114B0593B9
:103F7000114903202DF0DEF904AB19460F4823F058
:103F800075F90790079B002B06D0079A0C49012072
:103F90002DF0E1F9079B00E00023184609B05DF819
:103FA00004FB00BF54500020148D0500208D050037
:103FB000CC900500493A020020910500D84F00201E
:103FC0006091050000B585B0019001990D4823F07E
:103FD0001DF9019B1B88112B0FD140F6FF700DF0CE
:103FE000EDF90390039B0293029B002B05D0064A38
:103FF00040F23711029828F0ADFF00BF05B05DF820
:1040000004FB00BFD84F0020208D05002DE9F047AC
:10401000BAB002AFF860B9607A60FB681B78082B11
:1040200000F2718501A252F823F000BF5140020056
:10403000054502005D450200E745020073480200A5
:10404000C3480200EF490200454A0200B54A020097
:104050007B68242B0CBF01230023DBB2C7F8D830C8
:10406000D7F8D830002B05D11F4A4FF4A17100209A
:1040700028F070FFBB68C7F8D430002387F8DD3024
:1040800064E097F8DD309B00D7F8D42013441B6818
:104090001B14A7F8D23097F8DD30144A32F91330E8
:1040A000B7F9D2209A4225DB97F8DD10B7F9D20094
:1040B00097F8DD300D4A32F91330009303460A4673
:1040C0000B4902202DF072F997F8DD30074A32F9DA
:1040D0001330194697F8DD309B00D7F8D4201344ED
:1040E0000A041A602DE000BF208D0500949605009B
:1040F0008C91050097F8DD30C54A32F91330B7F9D5
:10410000D2209A421DDA97F8DD10B7F9D20097F85D
:10411000DD30BF4A32F91330009303460A46BD49E9
:1041200002202DF043F997F8DD30B94A32F9133007
:10413000194697F8DD309B00D7F8D42013440A04C1
:104140001A6097F8DD30013387F8DD3097F8DD30FD
:10415000082B96D9D7F8D4301B689B111BB2A7F84F
:104160006430D7F8D43004331B689B111BB2A7F816
:104170006630D7F8D43008331B689B111BB2A7F800
:104180006830D7F8D4300C331B68DB121BB2A7F8A9
:104190006A30D7F8D43010331B68DB121BB2A7F893
:1041A0006C30D7F8D43014331B68DB121BB2A7F87D
:1041B0006E30D7F8D43018331B681B139BB25B42A8
:1041C0009BB21BB2A7F87230D7F8D4301C331B68EF
:1041D0001B131BB2A7F87030D7F8D43020331B68FC
:1041E0001B131BB2A7F874308B4904202DF0A2F8E2
:1041F000D7F8D4301B6818462FF012F803460C4647
:10420000C7E932344FF00002844BD7E932012FF076
:1042100097FB03460C46C7E9323407F15C00D7E947
:1042200032237F4931F05CFC07F15C0318462DF026
:104230007BF803461A467B4904202DF08CF8D7F80A
:10424000D43004331B6818462EF0EAFF03460C46B0
:10425000C7E932344FF00002704BD7E932012FF03A
:104260006FFB03460C46C7E9323407F15C00D7E91F
:1042700032236B4931F034FC07F15C0318462DF012
:1042800053F803461A46684904202DF064F8D7F81D
:10429000D43008331B6818462EF0C2FF03460C4684
:1042A000C7E932344FF000025C4BD7E932012FF0FE
:1042B00047FB03460C46C7E9323407F15C00D7E9F7
:1042C0003223574931F00CFC07F15C0318462DF0FE
:1042D0002BF803461A46554904202DF03CF8D7F830
:1042E000D4300C331B6818462EF09AFF03460C4658
:1042F000C7E932344FF00002484BD7E932012FF0C2
:104300001FFB03460C46C7E9323407F15C00D7E9CE
:104310003223434931F0E4FB07F15C0318462DF0EA
:1043200003F803461A46424904202DF014F8D7F842
:10433000D43010331B6818462EF072FF03460C462B
:10434000C7E932344FF00002344BD7E932012FF085
:10435000F7FA03460C46C7E9323407F15C00D7E9A7
:1043600032232F4931F0BCFB07F15C0318462CF0D7
:10437000DBFF03461A462F4904202CF0ECFFD7F848
:10438000D43014331B6818462EF04AFF03460C46FF
:10439000C7E932344FF00002204BD7E932012FF049
:1043A000CFFA03460C46C7E9323407F15C00D7E97F
:1043B00032231B4931F094FB07F15C0318462CF0C3
:1043C000B3FF03461A461C4904202CF0C4FFD7F85B
:1043D000D4301C331B6818462EF022FF03460C46CF
:1043E000C7E932344FF000020C4BD7E932012FF00D
:1043F000A7FA03460C46C7E9323407F15C00D7E957
:104400003223074931F06CFB07F15C03184615E0D5
:10441000A8960500D8910500249205000000F04000
:10442000549205005C9205008C920500BC92050038
:10443000EC92050020930500549305002CF074FFC6
:1044400003461A46BC4904202CF085FFD7F8D43027
:1044500018331B6818462EF0E3FE03460C461A4636
:10446000C7F8C82084F00043C7F8CC304FF00002F2
:10447000B24BD7E932012FF063FA03460C46C7E985
:10448000323407F15C00D7E93223AD4931F028FB23
:1044900007F15C0318462CF047FF03461A46A9496A
:1044A00004202CF058FFD7F8D43020331B6818466E
:1044B0002EF0B6FE03460C46C7E932344FF0000238
:1044C0009E4BD7E932012FF03BFA03460C46C7E971
:1044D000323407F15C00D7E93223994931F000FB0F
:1044E00007F15C0318462CF01FFF03461A46964955
:1044F00004202CF030FF07F164031946934823F0A1
:10450000A1F805E37B68102B0CBF01230023DBB26D
:10451000C7F8C430D7F8C430002B05D18C4A40F21C
:10452000BF11002028F016FDBB68C7F8C030D7F8CF
:10453000C0301B68FB64D7F8C0305B683B65D7F8B8
:10454000C0309B687B65D7F8C030DB68BB6507F17E
:104550004C0319467D4822F0EFFFD9E27B680C2B13
:104560000CBF01230023DBB2C7F8BC30D7F8BC3046
:10457000002B05D1764A40F2E111002028F0EAFC38
:10458000BB68C7F8B830D7F8B8301B683B64D7F8B9
:10459000B8305B687B64D7F8B8309B68BB643B6C11
:1045A000002B02DA03F57F43FF331B141A467B6CA2
:1045B000002B02DA03F57F43FF331B141946BB6C53
:1045C000002B02DA03F57F43FF331B1400930B46E5
:1045D000604904202CF0EAFE07F1400319465B48CD
:1045E00023F073F894E26B469A467B68242B0CBF49
:1045F00001230023DBB2C7F8B430D7F8B430002B66
:1046000005D1534A4FF4F971002028F0A3FCBB6890
:10461000C7F8B030D7F8B0301B681B141BB2BB858D
:10462000D7F8B03004331B681B141BB2FB85D7F8D6
:10463000B03008331B681B141BB23B86D7F8B03070
:104640000C331B681B141BB27B86D7F8B0301033B9
:104650001B681B141BB2BB86D7F8B03014331B6821
:104660001B141BB2FB86D7F8B03018331B681B1421
:104670001BB23B87D7F8B0301C331B681B141BB22E
:104680007B87D7F8B03020331B681B141BB2BB8765
:10469000314B1B78013BC7F8AC302F4B1B78D9B29C
:1046A0004FF000020B46144613EB030844EB0409D9
:1046B00043464C465B1842EB04044FF000014FF0B8
:1046C0000002220142EA137219010B461446224BE2
:1046D0001B781A4613465B0013445B001E4B1B7885
:1046E000D9B24FF000020B461446DD1844EB040625
:1046F0002B4634465B1842EB04044FF000014FF0A8
:104700000002220142EA137219010B461446124BB1
:104710001B781A4613465B0013445B000733DB0823
:10472000DB00ADEB030D02AB0033C7F8A83000236C
:1047300087F8DE3038E000BF889305000000F040C5
:1047400054920500B8930500E8930500D84F002067
:10475000208D050018940500BA96050097F8DE3004
:104760009B00D7F8B02013441B6818462EF058FD64
:104770004FF00002C24B2FF0E3F803460C46C7E9A6
:10478000283497F8DE2013465B0013445B00D7F80B
:10479000A820D018D7E92823BA4931F0A1F997F811
:1047A000DE30013387F8DE30B74B1B7897F8DE2018
:1047B0009A42D3D3B54904202CF0BCFDD7F8A830D9
:1047C00018462CF0B1FD0446D7F8A8300633184639
:1047D0002CF0AAFD0546D7F8A8300C3318462CF06B
:1047E000A3FD034600932B462246A94904202CF042
:1047F000DDFDD7F8A830123318462CF095FD04469D
:10480000D7F8A830183318462CF08EFD0546D7F897
:10481000A8301E3318462CF087FD034600932B4624
:1048200022469B4904202CF0C1FDD7F8A830243340
:1048300018462CF079FD0446D7F8A8302A331846DC
:104840002CF072FD0546D7F8A830303318462CF00E
:104850006BFD034600932B4622468D4904202CF025
:10486000A5FD07F12C0319468A4822F071FFD546B1
:104870004EE17B68042B0CBF01230023DBB2C7F899
:104880009C30D7F89C30002B05D1834A40F2172189
:10489000002028F05FFBBB681B68BB62BB6A002B73
:1048A00002DA03F57F43FF331B141A467B490420C9
:1048B0002CF051FD07F128031946764822F08BFFB2
:1048C00026E16B461D467B680C2B0CBF01230023A1
:1048D000DBB2C7F89830D7F89830002B05D16E4A74
:1048E00040F22221002028F035FBBB68C7F8943045
:1048F000D7F894301B68FB61D7F894305B683B6253
:10490000D7F894309B687B62654B1B78013BC7F8F6
:104910009030634B1B78D9B24FF000024FF0000388
:104920004FF00004940144EA91648B015C4B1B78C6
:10493000D9B24FF000024FF000034FF00004940191
:1049400044EA91648B01564B1B78DB000733DB088C
:10495000DB00ADEB030D02AB0033C7F88C30002356
:1049600087F8DF301AE097F8DF30DB00D7F88C20CB
:10497000D41897F8DF309B00D7F8942013441B68B5
:1049800018462EF089FD02460B464649204631F076
:10499000A7F897F8DF30013387F8DF30404B1B78FA
:1049A00097F8DF209A42DED3D7F88C3018462CF0E7
:1049B000BBFC0446D7F88C30083318462CF0B4FC06
:1049C0000646D7F88C30103318462CF0ADFC034661
:1049D000009333462246344904202CF0E7FC07F1CB
:1049E0001C0319462B4822F03AFFAD4690E07B6845
:1049F000022B0CBF01230023DBB2C7F88830D7F8A5
:104A00008830002B05D1244A40F23F21002028F0B5
:104A1000A1FABB68C7F88430D7F884301B783B769E
:104A2000D7F884305B787B767B7E1A463B7E1F49C5
:104A300004202CF0A4FC07F118031946154822F0B5
:104A4000F5FC65E07B68012B0CBF01230023DBB282
:104A5000C7F88030D7F88030002B05D10E4A4FF4CC
:104A60001471002028F076FABB681B781A461049AA
:104A700004202CF070FCB968064822F01AFD47E0CB
:104A80000000D0417C940500BA960500849405008E
:104A9000B8940500D84F0020208D0500E094050053
:104AA000BB96050020950500289505007495050026
:104AB000AC9505007B68082B0CBF01230023DBB2FB
:104AC000FB67FB6F002B05D1144A40F25A210020EE
